:020000022000DC
:1060000000000420ED5F04002D6004002F600400F8
:1060100031600400336004003560040000000000BB
:10602000000000000000000000000000695F0400A4
:106030003960040000000000895F04003D60040036
:10604000416204003F6004003F60040051A103006E
:106050003F6004003F6004003F6004003F600400B4
:106060003F6004003F6004003F6004003F600400A4
:106070003F6004003F6004003F6004003F60040094
:106080003F600400B95C04003F6004003F6004000E
:106090003F6004003F600400893503003F60040056
:1060A0003F6004003F6004003F6004003F60040064
:1060B0003F6004003F60040000000000000000009A
:1060C0003F6004003F6004003F6004005567040027
:1060D0003F6004003F6004003F600400F55B030084
:1060E0003F6004003F6004003F60040000000000C7
:1060F000000000003F60040000000000CD670400C5
:10610000000000000000000000000000000000008F
:10611000000000000000000000000000000000007F
:10612000000000000000000000000000000000006F
:10613000000000000000000000000000000000005F
:10614000000000000000000000000000000000004F
:10615000000000000000000000000000000000003F
:10616000000000000000000000000000000000002F
:10617000000000000000000000000000000000001F
:10618000000000000000000000000000000000000F
:1061900000000000000000000000000000000000FF
:1061A00000000000000000000000000000000000EF
:1061B00000000000000000000000000000000000DF
:1061C00000000000000000000000000000000000CF
:1061D00000000000000000000000000000000000BF
:1061E00000000000000000000000000000000000AF
:1061F000000000000000000000000000000000009F
:10620000F1EE103A43F08073E1EE103A704700BFB0
:1062100010B5054C237833B9044B13B10448AFF3E0
:1062200000800123237010BD906600200000000054
:106230002C9A050008B5034B1BB103490348AFF383
:10624000008008BD00000000946600202C9A050024
:10625000154B002B08BF134B9D46A3F5803A002138
:106260008B460F461348144A121A26F06DFE0F4B48
:10627000002B00D098470E4B002B00D098470020F1
:10628000002104000D000D48002802D00C48AFF397
:10629000008026F0EFFD200029001FF0FFFE26F011
:1062A000C3FD00BF00000800000004200000000043
:1062B00000000000906600209CC20020000000004A
:1062C0000000000042DF7047704700BF704700BF0A
:1062D00010B5034B0360044614F0CAF8204610BD05
:1062E000086D05002DE9F0419DF81840013CE4B22D
:1062F0000F2C21D80D4649B200291DDA1F46436DE7
:1063000006461868036821431B68C9B2904698473F
:10631000736D1868036808F07F011B6805F0EF05CE
:106320009847C02D08D0736D1868036807F07F0187
:106330001B68BDE8F0411847BDE8F0812DE9F04148
:106340009DF81840013CE4B20F2C21D80D4649B20B
:1063500000291DDA1F46436D06461868036821436D
:106360001B69C9B290469847736D1868036808F0B6
:106370007F011B6905F0EF059847C02D08D0736DAC
:106380001868036807F07F011B69BDE8F0411847F2
:10639000BDE8F0812DE9F0472F4F3B78012B00F04D
:1063A0000F0601F07F0502F07F0421D12B4B1B88E3
:1063B000F3B1072E48D0701EC3B20F2B42D863F042
:1063C0004F085FFA88F9264E736D186803684946CE
:1063D0001B699847736D1868036829461B699847BD
:1063E000736D1868036821461B69BDE8F0471847BC
:1063F000731EDBB20F2B25D8DFF86CA0DAF854201F
:106400001068026843F0B0091268494663F04F080B
:106410009047DAF854301868036829461B68984793
:10642000DAF854301868036821461B6898473B78AF
:10643000002BC8D10B4B1B78022BC2D1072E01D1E8
:10644000652DC0D8BDE8F087652D02D86FF04908EA
:10645000B7E70623D0E700BFF86000201E8C0020BD
:10646000AC660020D4680020C467002030B5014627
:1064700089B02548254D0DF07FF80023202269467C
:106480000446CDE90033CDE90333CDE9053302936A
:1064900007930BF0BFF920460BF0A6F825F04AFF52
:1064A0001B4B002225F0B0FF26F086FA194B2880FE
:1064B0001B7823B9184B02229A7009B030BD4822CC
:1064C0006A210720FFF766FF2A7802EB820202EBBF
:1064D0008202920002F07C0277210720FFF75AFF28
:1064E00049226A210720FFF755FF2B88642202FB0F
:1064F00003F2C2F3C71277210720FFF74BFF064BC9
:1065000002229A7009B030BDD88E00201E8C002067
:106510000000E43F1C8C0020148C00200E4B0F4A1E
:106520001B7810B50024148003B910BD48226A21DD
:106530000720FFF72FFF224677210720FFF72AFFCA
:1065400049226A210720FFF725FF22467721BDE86F
:1065500010400720FFF71EBF1C8C00201E8C00205F
:1065600010B5012182B004461A2020F06BFF0121F2
:106570001A2020F0EBFF05201DF044FA4FF4807341
:106580000094ADF8043002AB13E90600134813F091
:10659000A3FE00211A2020F0D9FFAC210F4813F0F0
:1065A00037FF53210D4813F033FF00210B4813F040
:1065B0002FFF00210446094813F02AFF00EB0421B5
:1065C000B1F5A64F06D0102205481DF097F900201E
:1065D00002B010BD012002B010BD00BF54A40020C5
:1065E0005097002070B5044642F21070FFF7B8FFD4
:1065F0007A497B481CF0FEFF257805B37949784835
:106600001CF098FF1022294675481DF047F9AC216F
:10661000754813F0FDFEE021734813F0F9FE0021E8
:10662000714813F0F5FE294603466F481D4613F0E6
:10663000EFFE00EB0520B0F5604F40F0A9806A4DF9
:10664000F021284613F0E4FE0021284613F0E0FE76
:106650000021284613F0DCFE0021284613F0D8FE66
:1066600010F00106ECD16578002D70D15E4DF0215F
:10667000284613F0CDFE0021284613F0C9FE002164
:10668000284613F0C5FE0021284613F0C1FE10F085
:106690000106ECD1A578002D7CD1534DF021284680
:1066A00013F0B6FE0021284613F0B2FE0021284662
:1066B00013F0AEFE0021284613F0AAFE10F00106EA
:1066C000ECD1E478FCB1494945481CF033FF102275
:1066D000214643481DF0E2F8AC21434813F098FEF0
:1066E000A421414813F094FE31463F4813F090FE38
:1066F000214603463C481C4613F08AFE00EB04206A
:10670000B0F5244F44D1384DF021284613F080FED7
:106710000021284613F07CFE0021284613F078FE65
:106720000021284613F074FE10F00104ECD12C482F
:106730001CF0B0FF2C4813F031FE21461A2020F047
:1067400005FF21461A2020F07DFE012070BD28495A
:1067500023481CF0EFFE1022294621481DF09EF828
:10676000AC21214813F054FEA0211F4813F050FE25
:1067700031461D4813F04CFE294603461A481D4673
:1067800013F046FE00EB0520B0F5204F3FF46EAF4E
:10679000002070BD174912481CF0CCFE102229467B
:1067A0000F481DF07BF8AC210F4813F031FEA821F3
:1067B0000D4813F02DFE31460B4813F029FE2946F3
:1067C000034609481D4613F023FE00EB0520B0F5F3
:1067D000284F3FF462AF0020DBE700BF14FE040047
:1067E0005097002024FE040054A4002060FE040002
:1067F00038FE04004CFE0400F8B5044642F2107066
:106800000D46FFF7ADFE4F494F481CF0F3FE2678CA
:10681000002E56D16678002E73D1A6788EBBE6780E
:10682000FEB15021494813F0F3FD0821474813F009
:10683000EFFD0021454813F0EBFD0021434813F024
:10684000E7FDEB78424904461C403F481CF072FECD
:106850003D48214610221DF021F8A64201D000201B
:10686000F8BD39481CF016FF384813F097FD002199
:106870001A2020F06BFE00211A2020F0E3FD0120F9
:10688000F8BD5821314813F0C3FD08212F4813F0FB
:10689000BFFD00212D4813F0BBFD00212B4813F054
:1068A000B7FDAB782B4907461F4027481CF042FE36
:1068B0002548394610221CF0F1FFBE42AFD000201F
:1068C000CEE75821214813F0A3FD00211F4813F003
:1068D0009FFD00211D4813F09BFD00211B4813F074
:1068E00097FD2B781C4907461F4017481CF022FED5
:1068F0001548394610221CF0D1FFBE428AD0002034
:10690000AEE75021114813F083FD00210F4813F02A
:106910007FFD00210D4813F07BFD00210B4813F093
:1069200077FD0E49C7B208481CF004FE39460648F8
:1069300010221CF0B3FF68780740BE423FF46DAFF1
:1069400000208DE774FE04005097002054A400201E
:10695000B8FE0400A8FE040088FE040098FE0400AF
:106960002DE9F04F894685B0514980465148174678
:106970001CF0E0FD494610224E481CF061FF4E48D5
:10698000FFF7EEFD7B08029345D0002508F10102D8
:106990004A4C01922B461E0A4021204618F815A0A9
:1069A0005FFA85FB13F034FD3146204613F030FDCD
:1069B0005946204613F02CFD51460746204613F059
:1069C00027FD034603EB0723AB424FF04801204667
:1069D0001AD1019B13F81530039313F019FD3146BA
:1069E000204613F015FD5946204613F011FD039B78
:1069F00006461946204613F00BFD00EB0620A84280
:106A000005F10105ABB203D0002005B0BDE8F08F61
:106A1000029A9342BFD34C21284813F0F9FC4FEA65
:106A200059054FEA5921254813F0F2FCE9B22348F1
:106A300013F0EEFC00210646204813F0E9FC204943
:106A400004461C481CF076FD1022294619481CF00B
:106A500055FF04EB06241B4916481CF06BFD21462C
:106A600014481022A4B21CF0EBFEA542CCD1134D69
:106A7000F021284613F0CCFC0021284613F0C8FC76
:106A80000021284613F0C4FC0021284613F0C0FC66
:106A900010F00104ECD1094813F080FC21461A20C3
:106AA00020F054FD1A20214620F0CCFC0120ACE758
:106AB000C8FE04005097002040420F0054A400205C
:106AC000D8FE0400ECFE0400014608B503481CF0A3
:106AD00001FE0121084620F039FDFEE75097002015
:106AE000014608B503481CF085FD0121084620F049
:106AF0002DFDFEE75097002010B542F2107082B0D5
:106B0000FFF72EFDAC211D4813F082FC80211B48AD
:106B100013F07EFC0021194813F07AFC0021044692
:106B2000164813F075FC00EB0420B0F5004F22D19D
:106B3000124CF021204613F06BFC0021204613F08C
:106B400067FC0021204613F063FC0021204613F06F
:106B50005FFC10F00101ECD10848019113F01EFC1C
:106B600001991A2020F0F2FC01991A2020F06AFC09
:106B7000012002B010BD0248FFF7B2FF54A400206C
:106B8000F4FE0400084C094908B5054620461CF0EF
:106B9000FFFC2946102220461CF078FE20461CF0FF
:106BA00079FD0348FFF79CFF5097002010FF040079
:106BB00024FF04002DE9F04780460C4617463AB101
:106BC000013A92B218460132FF2126F0BDF9034680
:106BD00004EB070C00224446204610F8011B0A294A
:106BE00000F053810D2900F050813A2940F0A48132
:106BF0006578A5F13001C9B209290CD9A5F1410187
:106C0000052940F25781A5F16101052900F288812B
:106C1000A5F15701C9B2A578A5F13000C6B2092E79
:106C20004FEA01100CD9A5F14101052940F23A8142
:106C3000A5F16101052900F27381A5F15706F6B2AD
:106C4000E578A5F13001C9B230440929C6B20CD9A2
:106C5000A5F14101052940F22981A5F1610105292C
:106C600000F25E81A5F15701C9B22579A5F1300E78
:106C70005FFA8EFE0901BEF1090FC9B20ED9A5F166
:106C8000410EBEF1050F40F21981A5F1610EBEF172
:106C9000050F00F24581573D5FFA85FE94F8059097
:106CA00001EB0E05A9F13001EDB2C9B22E4409295C
:106CB000F6B2ADB20CD9A9F14101052940F2028129
:106CC000A9F16101052900F21981A9F15701C9B2A1
:106CD00094F80690A9F1300E5FFA8EFE0901BEF11C
:106CE000090FC9B20FD9A9F1410EBEF1050F40F24B
:106CF000ED80A9F1610EBEF1050F00F2FF80A9F150
:106D000057095FFA89FE7144C9B201EB0525ADB29E
:106D10000E446545F6B280F2ED80E579A5F13001CB
:106D2000C9B209290CD9A5F14101052940F2D68043
:106D3000A5F16101052900F2F380A5F15701C9B25F
:106D4000257AA5F130095FFA89F90901B9F1090F2E
:106D5000C9B204F1090E40F29A80A5F14109B9F1D6
:106D6000050F40F2B880A5F16109B9F1050F00F2F5
:106D7000D780573DEDB20E4455FA86F6F6B200289C
:106D80004CD00B34002534E0A9F16101052900F253
:106D9000B580A9F15701C9B214F8019CA9F1300AD4
:106DA0005FFA8AFA0901BAF1090FC9B20ED9A9F13D
:106DB000410ABAF1050F2CD9A9F1610ABAF1050F00
:106DC00000F29C80A9F157095FFA89FA5144C9B2CF
:106DD00002F1010999541FFA89F20E449742F6B262
:106DE000C0F09B800135E9B2884204F102040D46EF
:106DF00014D914F8029CA9F13001C9B20929A64698
:106E0000CAD9A9F141010529BED8A9F13701C9B2F2
:106E1000C2E7A9F137095FFA89FAD7E79EF800407F
:106E2000A4F13001C9B209290AD9A4F14101052907
:106E300058D9A4F16101052978D8A4F15701C9B244
:106E40009EF80140A4F13000C0B209010928C9B27E
:106E500009D9A4F14100052848D9A4F16100052809
:106E600064D8573CE0B20E4450FA86F616F0FF0F95
:106E700068D19EF802100A290EF103045FD1BA42CC
:106E80007FF4AAAE2046BDE8F0870446A4E6494454
:106E9000C9B20E440129F6B27FF471AF0024204636
:106EA000BDE8F087A5F13706F6B2C9E6A5F13701CE
:106EB000C9B2DAE6A5F13701C9B2ACE6373D5FFAEF
:106EC00085FEEBE6A9F13701C9B201E7A9F1370E5A
:106ED0005FFA8EFE17E7373DEDB24CE7A5F13701BB
:106EE000C9B22DE7A4F13701C9B2A9E7A4F137006F
:106EF000C0B2B8E744462046BDE8F08713491448BD
:106F00001CF046FB4946102211481CF0BFFC1048FB
:106F10001CF0C0FB0F48FFF7E3FD0F48FFF7D4FD5F
:106F20000A490B481CF034FB2946ECE7074908489E
:106F30001CF02EFB2146E6E70848FFF7D1FD084884
:106F4000FFF7CEFD0748FFF7CBFD00BF10FF0400A1
:106F50005097002024FF040040FF040034FF040089
:106F600060FF040050FF04002DE9F04F824683B01B
:106F7000CD48CE4EFFF7F4FAD14619F8011B0A2985
:106F800000F090810D2900F08D813A2940F0ED81CB
:106F90009AF80100A0F13003DBB2092B0CD9A0F163
:106FA0004103052B40F2C481A0F16103052B00F2DF
:106FB000D281A0F15703DBB29AF80200A0F13008A9
:106FC0005FFA88F2092A4FEA03180CD9A0F14103AD
:106FD000052B40F2A981A0F16103052B00F2BB81D2
:106FE000A0F15702D2B29AF80300A0F13003DBB24D
:106FF0009044092B5FFA88FB0CD9A0F14103052BC3
:1070000040F28E81A0F16103052B00F2A481A0F172
:107010005703DBB29AF80400A0F13007FAB21B0163
:10702000092ADFB20CD9A0F14103052B40F274818B
:10703000A0F16103052B00F28E81A0F15702D2B2BC
:107040009AF805001744A0F13003FFB2DBB2BB444D
:10705000092B5FFA8BFBBAB20CD9A0F14103052BC7
:1070600040F25681A0F16103052B00F27481A0F17A
:107070005703DBB29AF80600A0F13007FFB21B01FC
:10708000092FDBB20CD9A0F14101052940F23C8166
:10709000A0F16101052900F25E81A0F15707FFB25E
:1070A0009AF807003B44DFB2A0F13003DBB2BB44E7
:1070B000092B07EB02275FFA8BFBBFB20CD9A0F1BB
:1070C0004103052B40F21C81A0F16103052B00F266
:1070D0004281A0F15703DBB29AF80800A0F1300416
:1070E000E4B21B01092CDBB20AF1090940F2E88085
:1070F000A0F14102052A40F20081A0F16102052AB7
:1071000000F229815738C0B29B4450FA8BFB5FFADA
:107110008BFBB8F1000F00F093800AF10B0A3D469B
:107120001DE02821304613F073F9690A304613F048
:107130006FF9C5F34701304613F06AF90021304674
:1071400013F066F9C3B2A3424FD1C7F101032B4438
:10715000DBB2013543450AF1020AADB270DA1AF822
:10716000024CA4F13003DBB2092BD1460BD9A4F1B8
:107170004103052B5DD9A4F16103052B00F2DC80EE
:10718000A4F15703DBB21AF8012CA2F130011C0163
:10719000CBB2092BE4B20AD9A2F14103052B4CD999
:1071A000A2F16103052B00F2D880573AD3B21C44F8
:1071B000E4B2A34415F001035FFA8BFBB1D12021A7
:1071C0003046019313F024F9690A304613F020F990
:1071D000C5F34701304613F01BF9019B30461946B1
:1071E00013F016F9C3B2A342AFD0314801931CF09B
:1071F00051FA30492E481CF09DF9102229462C489E
:107200001CF07CFB2C492A481CF094F910222146E2
:1072100027481CF03BFB294925481CF08BF9019BB2
:107220002348194610221CF039FB002003B0BDE8AA
:10723000F08FA4F13703DBB2A5E7373AD3B2B6E754
:1072400099F80000A0F13003DBB2092B0AD9A0F1B4
:107250004103052B4DD9A0F16103052B7BD8A0F18B
:107260005703DBB299F80100A0F13001C9B21B014C
:107270000929DBB20AD9A0F14102052A35D9A0F1CA
:107280006102052A67D8A0F15701C9B29B4451FA9F
:107290008BF111F0FF0171D199F802300A2B09F13D
:1072A000030968D1CA4667E640420F0054A4002093
:1072B0005097002070FF040094FF0400A4FF040016
:1072C0001C44E4B2A344012C5FFA8BFB7FF421AF92
:1072D0002E4813F063F800211A2020F037F91A2005
:1072E000002120F0AFF82046A0E7A0F13701C9B295
:1072F000CCE7A0F13703DBB2B4E73738C0B203E71D
:10730000A0F13703DBB2E7E6A0F13707FFB2C7E62B
:10731000A0F13703DBB2ADE6A0F13702D2B28FE6BF
:10732000A0F13703DBB275E6A0F13702D2B25AE61C
:10733000A0F13703DBB23FE6154916481CF028F9E7
:107340002146102213481CF0A1FA12481CF0A2F9A1
:107350001148FFF7C5FBFFF715FC0D490D480192D9
:107360001CF016F9019A1146EBE70A481CF03EF9A9
:107370000A48FFF7B5FB0A48FFF7B2FB05481022A1
:107380001CF084FA0748FFF7ABFB00BF54A40020B1
:1073900010FF04005097002024FF040034FF040075
:1073A00060FF0400ACFF04002DE9F04F012185B01F
:1073B000084620F0CBF8714971481CF0BBF87148C1
:1073C000FFF7CEF8002871D06F496D481CF012F914
:1073D00042F21070FFF7C4F830216C4813F018F82F
:1073E00000216A4813F014F80121684813F010F8DE
:1073F0000021664813F00CF830210502634813F0B1
:1074000007F80021614813F003F802215F4812F0E9
:10741000FFFF002104465D4812F0FAFF05F47F45A6
:1074200000EB0424594812F0B9FF2C4300211A2024
:1074300020F08CF8A4B200211A2020F003F8631E7B
:107440009BB24FF6FD72934204D8514B1F683B88A4
:10745000A34204D00024204605B0BDE8F08FFFF71A
:107460004BFB0521B81CFFF7BDF80028F2D04748B8
:1074700012F094FF00211A2020F068F800211A2051
:107480001FF0E0FF0021012020F060F864201CF0D4
:10749000B9FA0121084620F059F8384938481CF05B
:1074A00049F83848FFF75CF8814620B93949344833
:1074B0001CF0A0F8CEE7344931481CF09BF8B7F82F
:1074C00020A097F8228007F123030293BAF1000F5E
:1074D00024D0DFF8C4B003971FFA88F20BEB08063C
:1074E00047461C4600259046A9B220465B464246C8
:1074F0000191FFF75FFB019904464FB1264B4A46C5
:1075000013F8010BFF2818BF00229E42F8D172B376
:107510003D44AA4501D9002CE6D1039F0298FFF70C
:1075200023FD002896D007F10C0420460521FFF723
:1075300059F800288ED0204607F11601FFF75CF9B4
:107540000446002886D00425012108461FF0FEFFCE
:10755000C8201CF057FA002101201FF0F7FFC820B7
:107560001CF050FA6B1E13F0FF05EDD173E7424695
:107570005846FFF7F5F90028CAD16BE7E8FD04008B
:1075800050970020A086010004FE040054A40020AF
:10759000E06100200CFE0400EC6900202DE9F04FB2
:1075A000704C714F714E87B0204614F041FB704A09
:1075B000A36A70493B6001916F4FE56A6F4C07CA3F
:1075C0009B103B604FF48073ADF80830256003AD2D
:1075D00085E80700029A6749304612F07DFE0021D7
:1075E00002201FF0B3FF664B4FF4207043F00103FD
:1075F00098470021304612F00BFF00240134E4B21A
:107600002146304612F004FF0C2C05F8010BF5D191
:10761000012102201FF09AFF544812F0BFFE9DF88E
:1076200016209DF8155057499DF811E09DF80E80E1
:107630009DF80CB091F800A09DF80D609DF80F70BA
:107640009DF81090504B94004FEA840C0CF4407C51
:10765000A9004CEA0E0C4FEA851E88000EF4407E0D
:1076600001F4407141EA0B0B4EEA080E29029DF825
:107670001280C3F800B0950100F4407001F440712D
:1076800005F440753043394345EA08059DF8136019
:107690009DF814809DF817705860120204F440742D
:1076A00002F4407244EA0904324348EA0728C3E975
:1076B000044CC3E902E1C3E90652C3F82080BAF1E1
:1076C000000F4BD1DFF8C490D9E90067C01BD9F88F
:1076D0000870BBEB060648BF5646AEEB070700280E
:1076E000B8BF5046002FC3E90060B8BF00209F60BC
:1076F000B8BF9860D9F80C00091A0029D960BCBF3E
:107700000021D960D9F81010641A002CB8BF0021EC
:107710001C61B8BF1961D9F81410ACEB0101002944
:107720005961BCBF00215961D9F818106D1A002D9C
:10773000B8BF00219D61B8BF9961D9F81C10521AD9
:10774000002ADA61BCBF0022DA61D9F82020A8EB58
:107750000202002A1A62BCBF00221A6207B0BDE80A
:10776000F08F00BFEC8A00205C8E002054A4002023
:107770000000050080841E00148D0020808D0020F4
:1077800060680500178C00200C8E0020E88D00201A
:107790002DE9F04F2DED068B9DB013AB0AAA01A980
:1077A000CB48DFF89C93DFF89C83CA4FCA4ECB4D81
:1077B000CB4C13F01FF9CB4BDDED117A93ED001A92
:1077C000C94BCA49CA4AC3ED007ACA4BD2ED000A76
:1077D000D1ED006A9DED0F0A9DED107AC64AC749AA
:1077E000DB6882ED000ADDED061A9DED072ADDED6E
:1077F000082AC34A81ED007A30EE660A77EE600A05
:1078000037EEC11A189989ED000ADB01C8ED000AAC
:1078100087ED001AC6ED001A85ED002AC4ED002A96
:10782000116004D5B74B1A68D00700F1BD811DF077
:107830003FFBB54B99ED000AD8ED000A97ED001A11
:10784000D6ED001A95ED002AD4ED002AA0FB030125
:10785000830A43EA815307EE103AAC4C9FEDAC6AC1
:10786000D4ED0F7ADFEDAB8ADFEDAB6AB8EE477A85
:10787000204677EE677A84ED0E7A67EE867A84ED9D
:107880000F7AF4EEE87AF1EE10FA98BFF0EE678A1C
:10789000F4EEE68AF1EE10FAB8BFF0EE668AB0EECA
:1078A000683AC4ED107A14F093F894F82830002B5D
:1078B00000F09381994D236B2B60DFF88CA2D4F8F4
:1078C0002C90CAF80090964BD4ED0D7A93ED007A87
:1078D000944B37EE877AC3ED007A17EE100A17EE55
:1078E000104A24F039FD74A3D3E9002306460F465D
:1078F00025F01AF8002800F05C8171A3D3E9002379
:107900003046394624F0C8FB25F076F8DFF83CB263
:107910000446CBF80000484624F01EFD66A3D3E9D8
:10792000002324F0BBFB25F067F8814624F014FD0A
:1079300061A3D3E9002306460F4624F0F5FF48B1C2
:107940005FA3D3E900233046394624F0A5FB25F098
:1079500053F88146286880F0004024F0FDFC5AA3CB
:10796000D3E9002324F050FD25F046F809EE900AF3
:1079700089F00040C5ED009A24F0EEFC52A3D3E953
:10798000002324F041FD25F037F809EE100A84F0B9
:1079900000408AED009A24F0DFFC4BA3D3E90023DA
:1079A00024F032FD25F028F85F4B604C1A68CBF8C4
:1079B0000000D1070AEE100A40F1088194ED008A18
:1079C0005B4E5C4F96ED007AD7ED007A39EEC77AC0
:1079D0007AEE677AB5EEC07AF1EE10FAF5EEC07A7B
:1079E0004CBF01220022F1EE10FA4CBF012300230C
:1079F0009A42B5EEC09A00F0AD80F1EE10FA40F375
:107A0000AD80B0EEC99AD8F8000024F0A5FC2EA3F2
:107A1000D3E9002324F0F8FC804618EE900A89464A
:107A200024F09AFC02460B464046494624F0ECFC02
:107A3000804618EE100A894624F08EFC02460B465A
:107A40004046494624F02AFB24F0D6FF08EE100AEF
:107A5000F5EEC09AF1EE10FAB5EEC08A4CBF0122E5
:107A60000022F1EE10FA4CBF012300239A4287ED69
:107A700000AAC6ED009A206000F09380DFED2E7A18
:107A800068EE277A9FED327A2C4BB4EEC79AF1EE6E
:107A900010FAADBF002238EE678AC3ED007A1A6093
:107AA00084ED008A85ED008A1DB0BDEC068BBDE833
:107AB000F08F00BFAFF30080182D4454FB21094024
:107AC000182D4454FB211940F8C1631ADCA54C4021
:107AD000848D00204C8C0020DC8A0020E08A00206D
:107AE000E48A0020508C0020008D0020408C002073
:107AF000488C0020F0ED00E0F88C0020FC8C002089
:107B0000BC670020001000E040420F00208D0020E4
:107B1000BD3786350AD7233C6F12833A088D002083
:107B2000BC8E0020208C0020E8690020CC8A002038
:107B3000C88A0020C48A0020CDCCCC3CC08A00205A
:107B40003C8C0020448C0020948C0020B88E0020B7
:107B50000000AA42F1EE10FA7FF653AF5FED047A0F
:107B6000B0EEC99AB4EEE79AF1EE10FABFF64BAF59
:107B7000B5EEC08AF1EE10FAF5EEC09A4CBF0122C4
:107B80000022F1EE10FA4CBF012300239A4287ED48
:107B900000AAC6ED009A7FF471AF2B4B00221A6049
:107BA0007EE7DFED2A7A6DE75B689B0907EE103A06
:107BB00053E621A3D3E900233046394624F096FE4C
:107BC00050BBDFF890B0CBF80040A4E60122B0EE45
:107BD000698AC4ED009A1A60F2E6204613F0BAFEF4
:107BE0001B4D94F82830226B2A60002B7FF465AE81
:107BF000204613F0AFFEDFF860A094F82830D4F8E8
:107C00002C90CAF80090002B7FF45DAE204613F054
:107C1000A1FEDAF8009056E609A3D3E90023304626
:107C2000394624F03BFA24F0E7FEDFF828B004469A
:107C3000CBF800006FE600BF182D4454FB2109C0AB
:107C4000182D4454FB211940C08A00200000000078
:107C5000088D0020B88E0020948C00202DE9F04380
:107C6000B84DB94C2B785A012DED028B04EB431122
:107C7000A35C83B06BB3B54FDFEDB58AD7ED007A67
:107C80009FEDB48ACB79097A009177EEA87A2244E5
:107C900067EE887A8B4294BF88460E4692F806C0FB
:107CA0005179FDEEE77A41F2883917EE900A09FB27
:107CB0000CF209FB01F194BF1E4698461BF084FEAE
:107CC000B04280F28B80A44F3B78B3422B787BD1BB
:107CD0005A01A1184B7863B3A04FDFED9D8AD7ED11
:107CE000007A9FED9C8ACB7A097B009177EEA87A87
:107CF000224467EE887A8B4294BF88460E4692F8FB
:107D00000AC0517AFDEEE77A41F2883917EE900AFF
:107D100009FB0CF209FB01F194BF1E4698461BF0CB
:107D200053FEB0427CDA8E4F3B78B3422B7841D180
:107D30005A01A1188B7853B38A4FDFED8B8AD7EDA8
:107D4000007A9FED848ACB7B097C009177EEA87A3C
:107D5000224467EE887A8B4294BF88460E4692F89A
:107D60000EC0517BFDEEE77A42F2107917EE900AD1
:107D700009FB0CF209FB01F194BF1E4698461BF06B
:107D800023FEB0426EDA794F3B78B34204D103B0A0
:107D9000BDEC028BBDE8F0832B7804EB4313324635
:107DA000997DD87CFEF7F6FA3E7003B0BDEC028BED
:107DB000BDE8F08304EB43133246597D987CFEF70F
:107DC000E9FA2B783E70B3E704EB43133246197D92
:107DD000587CFEF7DFFA2B783E7079E7D7ED007A12
:107DE0002B7877EEA87A04EB431367EE887A9A79BA
:107DF0005979187A0090FDEEE77ADB7917EE900A50
:107E000009FB02F209FB01F11BF0DEFD40454ADDF2
:107E1000514F3B784646B3422B783FF459AFD3E7F6
:107E2000D7ED007A2B7877EEA87A04EB431367EE50
:107E3000887A9A7A597A187B0090FDEEE77ADB7A95
:107E400017EE900A09FB02F209FB01F11BF0BCFDE1
:107E5000404542DD424F3B784646B3422B783FF4E3
:107E600067AFA7E7D7ED007A2B7877EEA87A04EB17
:107E7000431367EE887A9A7B597B187C0090FDEE5D
:107E8000E77ADB7B17EE900A09FB02F209FB01F1AE
:107E90001BF09AFD40453ADD344F3B784646B342ED
:107EA0003FF475AF78E7D7ED007A2B7877EEA88AA4
:107EB00004EB431328EE888A9A795979187A00904E
:107EC000FDEEC87ADB7917EE900A09FB02F209FB96
:107ED00001F11BF079FDC6B2F5E6D7ED007A2B78FB
:107EE00077EEA88A04EB431328EE888A9A7A597AA7
:107EF000187B0090FDEEC87ADB7A17EE900A09FB3A
:107F000002F209FB01F11BF05FFDC6B20BE7D7EDF2
:107F1000007A2B7877EEA88A04EB431328EE888A40
:107F20009A7B597B187C0090FDEEC87ADB7B17EEBC
:107F3000900A09FB02F209FB01F11BF045FDC6B2F4
:107F400021E700BF6F8C002098600020088D002082
:107F50000000B44200007A44D08A0020948C0020B3
:107F6000D18A0020B88E002000003443D28A00203D
:107F7000F8B5474D2C681BF039FD464B464A1B7837
:107F800010682968984203DDCF0758BF44F0010408
:107F90005068984203DD8E0758BF44F00204906891
:107FA000834203DA4D0758BF44F00404D06883428B
:107FB00003DA080758BF44F008041069834203DA63
:107FC000CF0658BF44F010045069834203DA8E068E
:107FD00058BF44F020049069834203DA4D0658BF2D
:107FE00044F04004D069834203DA080658BF44F0E5
:107FF0008004126A934203DACB0558BF44F48074BC
:10800000A14201D10020F8BD244B254A1B78D35C46
:10801000422B4FEA510126D8224DC9B205EB03226B
:1080200013F0FB0F565C4FEA032C23F0040721D119
:108030001D481E4A405C1070012B02D11C48415C57
:108040001170C4F347046544285DD7B91649174A2F
:10805000095D1170012B02D1154B1B5D1370801B44
:1080600018BF0120F8BD134BC9B2C4F347045E5CCE
:10807000185DF4E7012B01D10C4ADFE70A2BFBD096
:10808000DFE7012B01D1094AE6E70A2BFBD0E6E73F
:10809000588C00208D6200200C8E00206F8C0020F8
:1080A00040620020505005000C0005008C8E00201E
:1080B000504F0500D8680020F8B504460E461BF066
:1080C00095FC334B1B78002B40D0054604B3314F51
:1080D0003B78002B3BD1304B304C186001223A707A
:1080E000E6B1217800294FD01B68EB1A192B15D95E
:1080F0002B4E32687221C2F3C7120720FEF74AF9ED
:10810000327873210720FEF745F900233B7005E024
:108110003EBB204F3B78002B30D1204C2378ABB1B5
:10812000204B1868281A192810D91F4D2A68742165
:1081300002F07F020720FEF72DF92A687621C2F3AC
:10814000C7120720FEF726F900232370F8BDAEB151
:10815000124C237883B9134A0F4B1060012222700E
:10816000C2E70E4C0B4F23783A7853B90D490123DF
:1081700008602370002AE9D0074BB5E7064B074C8F
:10818000B2E7002ACCD0F7E7064922700860ABE7D7
:108190001C8C00200C8A0020108A00200D8A0020F0
:1081A000588C0020148A0020148D002030B46B4BB2
:1081B0006B4A197802EB41120023907E01285CD0B3
:1081C0006848694A0578694C1278247868482B44D5
:1081D00003EB430302EB8303DBB2032C037036D0C3
:1081E000644A1278032A1AD0022A01D030BC7047A0
:1081F000614A525C12F0FB0F40F092805F4A604D82
:1082000001EB410401EB840111442A68C978C2F3EF
:1082100000228A42EAD10C33037030BC7047564AC0
:10822000545C012CE2D00A2CE0D0544A01EB410509
:1082300001EB8501524D11442A68C97802F0010210
:108240008A42D3D1072CE6D107330370CEE74A4ADE
:10825000545C0F2C5CD04B4A0C2C127864D00E2C42
:1082600068D0082C4DD1492A52D9424A12780C3391
:10827000DBB2032A0370B7D1D7E7937F002B9FD0DF
:10828000414A424C92ED017AD4ED007AB8EEC77AB9
:10829000F4EEC77AF1EE10FA57D4012B2ED092EDFE
:1082A000027AB8EEC77AF4EEC77AF1EE10FA4ED43D
:1082B000022B23D092ED037AB8EEC77AF4EEC77A98
:1082C000F1EE10FA45D4032B18D092ED047AB8EEF3
:1082D000C77AF4EEC77AF1EE10FA34D4042B32D018
:1082E00092ED057AB8EEC77AB4EEE77AF1EE10FABD
:1082F00031DC052B18BF00237FF462AF013BDBB2FA
:108300005EE73E2A19D0072C10D10733DBB2037089
:10831000184A1278032A88D0022A7FF467AF67E7E9
:10832000062A7FF463AF69E7392AF1D90C33DBB24F
:10833000037055E7452AF9D8EAE7012C3FF456AF18
:108340000A2CE0D152E70423D8E70346D6E70223FC
:10835000D4E70323D2E70523D0E700BF6F8C0020CA
:10836000986000208C8C0020858C0020798C002067
:108370007C8D00200D61002040620020A062002062
:10838000588C002044620020AC8C0020948C00208B
:108390002DE9F04F434B444D93F800C0434B444804
:1083A0001B784449444A454CDFF82CA12F680078DB
:1083B000D2F8008024789AF800E0414A414D85B017
:1083C0000193CCEBCC03C3EBC303CB180293039014
:1083D0000023009705E0002145F823100133092B05
:1083E00050D052F8041FA142F5DD00980028F2D1C8
:1083F000354E029F16F80C6097F8269001209840A1
:1084000040EA0800422E4FEA500040D8DFF8CCB0D6
:10841000C0B20BEB062B16F0FB0F1BF800B03BD1E4
:10842000DFF8BCE0012E1EF800E002D1274E16F85E
:1084300000E0019FBBEB0700CDD028FA03F6F6075A
:10844000C9D4039EB14528BFB1468145C3DBC9F1FC
:1084500000098145BFDC091B07EE901A1C4901EB9E
:10846000830191ED007AF8EEE77AA7EB0B0B67EE4C
:10847000877AFDEEE77A17EE901A0BFB01F145F8CB
:108480002310ABE78AF800E005B0BDE8F08F114E8D
:10849000C0B216F800B0CCE7012EC7D00A2EC5D066
:1084A000C7E700BF6F8C0020588E00204462002078
:1084B0003562002004600020588C00208D6200206E
:1084C000088E0020BC61002040620020504F050053
:1084D000308E0020D86800208C8E0020505005007F
:1084E0000C00050070B52A4C2378CBB963786BBBC0
:1084F000A37803B970BD274E1BF078FAB368C01A91
:10850000C728F7D9244D1BF071FAAB78B06002266A
:108510008BBB012103201FF019F80123AB7070BD44
:108520001C4E1BF063FA3368C01AC728DED91A4DF7
:108530001BF05CFA2B78306043BB012108201FF050
:1085400005F801232B706378002BD1D0114E1BF05E
:108550004DFA7368C01AC728CAD90F4D1BF046FAE6
:108560006B78706033B901210A201EF0EFFF012300
:108570006B70BDE70126094B0021985D1EF0E6FFF8
:10858000A35D0022013BA355AA5570BD0026F2E76A
:10859000148C0020B08A0020C067002050680500BD
:1085A0002DE9F8432C4D2D4F2D4C2E4EDFF8CC905D
:1085B0002DED068B9FED2C9ADFED2CAADFED2C8A9A
:1085C0009FED2CAADFED2C9A05F1030815F8011B8D
:1085D000012381B3D4ED007A337037EEA87AF4EE3C
:1085E000C97AF1EE10FAB0EE470A2EDC84ED007A7B
:1085F00019F0BAFBB7EE008A30EE088A28EE0A8A34
:10860000FCEEC87A28EE298A17EE901A38781EF008
:1086100033FDD4ED007A37EE888A84ED008AA845D0
:1086200007F1010704F1040406F10106CED1BDEC07
:10863000068BBDE8F8833378002BF0D038783170A2
:108640001EF01AFDC4F80090E9E7B0EE6A8AC4F89B
:1086500000900021DAE700BFF08C00205068050090
:1086600000610020BC8A00200AD72F410AD7232F9F
:108670000AD7A33B00C0FF430A00A436B4C8964003
:1086800000F0F000A0282DE9F04701F00F0402F0FF
:108690007F0603F07F0500F0088133D9B02845D06C
:1086A000E02877D19D4F3B7806EBC515A5F5005521
:1086B000012B2DB270D19A4B1B8805F50051013C5E
:1086C000E4B2C1F3C71605F07F05002B6CD00F2C68
:1086D00060D864F01F045FFA84F8924C636D1868E8
:1086E000036841461B699847636D1868036829460B
:1086F0001B699847636D1868036831461B69BDE8BC
:10870000F0471847802800F0B280902842D1834F6C
:108710003B78012B6FD1824B1B88013CE4B2002BCC
:108720006BD00F2C36D864F06F0489E07B4F3B7818
:10873000012B04D17A4B1B88002B40F0D580631E9F
:10874000DBB20F2B26D8DFF8E4A1DAF8542010684A
:10875000026843F0B0091268494663F04F08904739
:10876000DAF854301868036831461B689847DAF81D
:1087700054301868036829461B6898473B78002BDB
:1087800060D1694B1B78022B40F0B780072C01D1D8
:10879000652E57D8BDE8F08705F50051013CE4B2DD
:1087A000C1F3C71605F07F050F2CF3D8DFF87C91D5
:1087B000D9F854301868036844F0E0081B68414653
:1087C0009847D9F854301868036829461B689847B9
:1087D000D9F854301868036831461B6898473B78CD
:1087E00064F01F04002B7FF478AF4F4B1B78022BF3
:1087F0007FF471AFCEE7013CE4B20F2CCAD8DFF8AA
:108800002C81D8F854301868036844F090091B682C
:10881000494664F06F049847D8F8543018680368E4
:1088200031461B689847D8F85430186803682946C1
:108830001B6898473B782BB93B4B1B78022BA9D080
:108840005FFA84F9374C636D1868036849461B6901
:108850009847636D1868036831461B699847636DD4
:108860001868036829461B69BDE8F04718472B4F75
:108870003B78012B47D12A4B1B88013CE4B273B9EA
:108880000F2C87D8DFF8A480D8F854301868036814
:1088900044F080091B68494664F07F04BBE70F2C55
:1088A0003FF678AF64F07F04CAE71C4F3B78012B9A
:1088B00026D11B4B1B88013CE4B27BB90F2C3FF641
:1088C00069AFDFF86880D8F854301868036844F05E
:1088D000A0091B68494664F05F049CE70F2C3FF633
:1088E00059AF64F05F04ABE7072C0FD0013CE3B253
:1088F0000F2B3FF64FAF63F04F085FFA88F9A1E7FF
:10890000013CE4B2DAE7013CE4B2B9E7652E02D8F3
:108910006FF04908F1E7062315E700BFF860002073
:108920001E8C0020AC660020D4680020C4670020A4
:108930002C4A2D4938B5D2E90035D2E902042B443E
:108940000344D2E9040523440344D2E906402B44FE
:10895000126A097823440344134429B1234A244862
:108960001278825C032A24D0224A234812680068C5
:10897000224DC3F500531A44121817D4B2F5804F94
:10898000A8BF43F6FF722A601D4C2368934200D0B3
:1089900001B938BD1B49C2F3C713097802F07F0241
:1089A000E020FFF76DFE2B68236038BD00222A60AF
:1089B000EAE7154C154A164894F9005012780478E5
:1089C0001448521B121B07EE902A90ED007AF8EE25
:1089D000E77A67EE877AFDEEE77A17EE902A13447E
:1089E000C2E700BFBC6100208B8C00206F8C002090
:1089F00054620020308C0020788D002050620020CE
:108A0000FC600020346200207C8D0020848C0020DB
:108A100044620020586200207F499FED806AD1EDBA
:108A2000007A7F4ADFED7F6AF8B57F4B7F4D93ED8B
:108A3000007A7F4C67EE867A2DED048BE7EE267A7E
:108A40002B7892ED008AC1ED007A37EE088AB6EEF7
:108A5000009A38EE678A04EB431368EE098ADE7EDB
:108A6000C2ED008A1AF0C2FF2B787249F0EEE87A64
:108A7000B3EE047A04EB4312F4EEC77AF1EE10FA87
:108A8000127ECCBF012500250D70002A45D06A4911
:108A90006A4D0F7800225B012A60AFB3684A126802
:108AA000821A0B2A39D9674A92F800C0BCF1000F2C
:108AB00008D1B6EE007AF4EEC77AF1EE10FA6CDD6A
:108AC00001271770DFF8A4C19CF800705FB39FED19
:108AD0005E7A5E4FF4EEC77AF1EE10FAC8BF3860E6
:108AE0003F68C01BB0F5C87F22D900238CF8003046
:108AF0000B701370564B1B78022B0ED1BDEC048B00
:108B0000BDE8F840FFF714BFF4EEC97AF1EE10FAB1
:108B10004B4A05DD012310600B70BDEC048BF8BDE2
:108B20001268821ABDE74949012208608CF80020CA
:108B3000DFED487AB4EEE78AF1EE10FA1FDAFFEEC5
:108B4000008A2344DB7FBBB1032B48D0022B3ED0ED
:108B5000414BDFED426AD3ED007A07EE106A67EE13
:108B6000A67AB8EEC77A67EE877A67EEA88AFDEE36
:108B7000E88AC5ED008ABDE7F1EE688AE8E7DFED37
:108B8000387AB4EEE78AF1EE10FA96BFDFED357A67
:108B9000F7EE008A68EEA78AD3E7DFF8D0C09CF82A
:108BA00000E0BEF1000F92D19FED277AF4EEC77A74
:108BB000F1EE10FA08DC002F9CD0244B1B68C01A81
:108BC000B0F5C87F91D895E7204B1860F3E7F5EE34
:108BD000C08AF1EE10FA15D9DFED238AB8E7F5EE79
:108BE000C08ADFED217AF1EE10FA88BFF0EE678AD5
:108BF000FFEE007AF4EEE78AF1EE10FAB8BFF0EE7D
:108C0000678AA5E7FFEE007AF4EEE78AF1EE10FA44
:108C1000B2DAF7EE008A9BE78C8A00206666663F30
:108C2000908A0020CDCCCC3DE08A00206F8C0020C3
:108C300098600020748D00208A8A0020788D0020A2
:108C4000948A0020888A00203333B33E988A00201B
:108C5000988C00202506F0C1586200200AD7233DD9
:108C60002506F0410A85883D00000000898A002021
:108C7000F0B43E4A3E4B147804EB440204EB82020B
:108C800013449B7A13B33B4B1B78012B1ED03A4EF7
:108C90003A4BC4EBC402C2EBC202324493F800C0A8
:108CA00092F8245092F825200927511B642301EBE8
:108CB000C10117FB0535BCF1030F05EB61014FEA5C
:108CC000C40010D117FB023529440CE02B4B2C4A71
:108CD0001B781568032B25D02A4B274E1968491B92
:108CE00005EB6101E000284B1B68001BC0EBC000D6
:108CF0008B42304420D24278CB1A02FB03F202EBC3
:108D000082029300491BB3FBF1F3DBB203FB03F3D5
:108D1000DB105B421D4A13601D4B1B78022B1ED0DB
:108D2000F0BC70471B4B144E1A68511B05EB6101D8
:108D30001546E0002944D6E7591A437803EB83022D
:108D400002EB820203FB01F3B3EBC20F4FEAC20155
:108D5000E0DD0E4B19600E4B1B78022BE0D10E4B61
:108D60000022F0BC1A60FFF7E3BD00BF6F8C00204B
:108D7000A06200200D61002004600020798C00209A
:108D800094620020608E0020148D0020308C002022
:108D9000988C0020648E0020506200202DE9F04F56
:108DA000B64883B02422002124F0CEF8B44B1B78BF
:108DB00053B1032B08D0B14B986858B9DA68002A30
:108DC00044D00125032207E0FFF7E2FAAB4B986895
:108DD0000028F3D000250222AA49AB4C0978615C37
:108DE0008C1E012C3FD9A94C2478012C31D0022CA7
:108DF00027D111F0FB0F40F08680A549A5480978DE
:108E00008468A54EA142366802DA770740F12381D3
:108E1000022A00F09F8000249C60C0688142C0F25A
:108E20009D80032A01D00022DA60012D09D9D3E9FF
:108E300002209A49096802448A4202DD0022C3E9FD
:108E4000021203B0BDE8F04FFFF772BD6FF00105ED
:108E5000C2E700284ED0DA68002AF2D18F499A6022
:108E60000A68DA60EDE78D48DFF824920768DFF8DA
:108E70002882DFF83CE2DFF83CC2DFF83CA299F838
:108E800000B0D8F800009EF80040DCF800609AF8C6
:108E900000A00197022AC7F100097AD0470722D51E
:108EA00000279F60032A71D007076CD4002C40F084
:108EB000B880B24574D00024D3E902210A44019954
:108EC000C8F80000524291428EF80040CCF8006091
:108ED000B7DA012D60D90022C3E9029203B0BDE8E0
:108EE000F04FFFF725BD002C40F0A480B24577D0AD
:108EF0000024D7E7694AD86012689A6003B0BDE8D9
:108F0000F04FFFF715BD012901D00A2999D1624917
:108F10000868C50500F1D980040700F1D3805D4AD7
:108F20005B49D26809788A4240F3E9805B4C5C482F
:108F3000D4ED007AD0ED036A521A07EE102AF8EE4B
:108F4000E77AB8EEC77AE7EE667AFDEEE77AC3ED28
:108F5000037A76E7C0688142BFF665AF36073FF512
:108F600060AF032A3FF461AF411A4D4A07EE901AF1
:108F700092ED037AF8EEE77A67EE877AFDEEE77A0C
:108F8000C3ED037A51E70022DA6095E7C20593D476
:108F90008AE7C70582D587E7C2053FF552AF9AE752
:108FA0003C4AD2685A4552DD3E49DFED3F6AD1ED79
:108FB000037A3B4907EE102AF8EE677AB8EEC77AD3
:108FC00077EEE67AD1ED036A77EEC77A002467EE92
:108FD000A67AFDEEE77A17EE902A5242DA606BE746
:108FE0002C4CA468A34527462DDA2E4CDFED2E6AC3
:108FF000D4ED027A2A4C07EE107AF8EE677AB8EED2
:10900000C77A77EEE67AD4ED026A77EEC77A002463
:1090100067EEA67AFDEEE77A17EE907A7F429F60C0
:1090200040E7224A40F00800C0F3470402EB012168
:109030000E5D3EE71D4C40F00400C0F3470604EB14
:109040000124A65D52E7C3F8089000242AE7C3F87C
:109050000C90002430E7022A3FF47CAF641A104FD2
:1090600007EE904A97ED027AF8EEE77A67EE877A94
:10907000FDEEE77AC3ED027ACFE600BFBC610020C7
:10908000988C00206F8C0020406200208C8E002085
:109090008D6200200C8E0020588C0020E88A002071
:1090A000908E0020C8620020000048425050050009
:1090B000B0610020A88A00204462002002DB020781
:1090C0007FF5BFAE0022DA60BBE60F490F4CC968DE
:1090D0002478A142F2DD0007F4D4032A3FF4B1AEB4
:1090E000091B0B4A07EE901A92ED037AF8EEE77A25
:1090F00067EE877AFDEEE77AC3ED037AA1E6054ACB
:109100001268DA609DE600BF0C8E00208D620020A0
:10911000908E0020E88A00202DE9F04F3C4C3D481D
:1091200083B02422002123F00FFF2678002E6AD07E
:10913000032E68D0384BDFF8F8E01B683748384C0E
:10914000384901930023DEF8002000682478D1F824
:109150000080354DDFF8BCC0DFF8D8909A46012773
:1091600012E055F82310A1420BDA20FA03F107FAB6
:1091700003FBC90722EA0B0203D522FA03F1C90750
:109180000AD50133092B2DD022FA03F1C907E8D4FF
:1091900020FA03F1C907F4D5012E03D05CF823109F
:1091A0000029EED155F823108C4222DA28FA03FB6D
:1091B0001BF0010F23D1091B07EE901A1B4903F87E
:1091C000097001EB830191ED007AF8EEE77A67EE22
:1091D000877AFDEEE77A17EE901A4CF823100133E8
:1091E000092BD1D1CEF8002003B0BDE8F04FFFF736
:1091F0009FBB28FA03F1C90703F809A0C1D501995B
:109200004CF82310BDE7FFF7C3F8267892E700BFBC
:10921000988C0020BC610020E88A002004630020B4
:109220008D620020588C00200C8E0020908E002033
:109230005C8C00209C8C00202DE9F843294D2A4BA2
:109240002A7802EB42010B441B5CDBB100EB800986
:109250004FF03208254F08FB02930446FE5C012EB6
:1092600007EB030110D0052E27D0062E1DD1204973
:1092700091F90030033305DB1E48835C013B5BB290
:1092800083540B70BDE8F8834B78002BFAD10B792F
:10929000CA7889789020FFF7F3F92A78164B08FBF3
:1092A00002981E5517F80860DDE70A2E11D1134AFF
:1092B000137801331370BDE8F8830D4991F900303C
:1092C000022BDFDC0B48835C01335BB283540B70F1
:1092D000D8E70B2ED6D1094A1378013B1370BDE8AD
:1092E000F88300BF6F8C0020708C00201461002078
:1092F0008C8C0020908C00207C8C0020858C0020A1
:10930000114B12481B78124AC3EBC303C3EBC303D0
:1093100018440121837A11708B4203D0022B0DD0A7
:1093200033B17047437B027BC17A8020FFF7A8B935
:10933000437B027BC17A9020FFF7A2B9427B017B7D
:10934000C07AFDF727B800BF6F8C002004600020B2
:109350002E8C0020114B12481B78124AC3EBC3031A
:10936000C3EBC30318440021837B1170012B03D08E
:10937000022B0DD033B17047437C027CC17B80202F
:10938000FFF77EB9437C027CC17B9020FFF778B960
:10939000427C017CC07BFCF7FDBF00BF6F8C0020CE
:1093A000046000202E8C0020A94B2DE9F0471B887B
:1093B00043F480735A1C1A4282B06DD000210A46D1
:1093C00013F0010F08BF11465B1002F10102F7D143
:1093D00001F13E04E4B2462C28BF46243C3C9D4D9E
:1093E0009D4A2B78C3EBC303C3EBC30313449A7C9E
:1093F000032A3ED0DFF8B082D8F80030974A984967
:10940000984F91F800C0D2F800905168D7F800E06A
:109410009548964E04FB0C145FFA8EF29945046051
:10942000327017DB924B0121002031700A46187010
:109430002B789048396003EB430103EB810303442D
:109440005B7923B18C4C2378012B27D0227002B09A
:10945000BDE8F08709F10101994208DA8749BEF1B8
:10946000010F097804BF0222327001292DD0114664
:10947000DEE7834A1278CAB9197DDA7CDFF82882E0
:1094800042EAC112D8F8003005329A42B6DAFFF744
:1094900037FFD8F80030B1E70A24A0E7012AD5D079
:1094A0001AF0A4FA774B32781860CFE7DFF8F8812A
:1094B000197DDA7CD8F8003042EAC1129A429DDD6B
:1094C000FFF748FFD8F8003098E76F490878002880
:1094D0003DD0A4EB090100FB01F1DFF8D0C101EBA5
:1094E00041008CFB00A98CFB01ACC017C917A0EB95
:1094F000E910C1EBEC1121440444DFF8B4C1634826
:10950000CCF800109942046013DB9C4221DB02225C
:10951000BEF1010F327028D0BEF1030FA7D11AF0AF
:1095200065FA5B4B1B68C01A142852D83278114672
:109530007EE74F4B00210322BEF1010F19703270FC
:1095400095D0BEF1030F92D17246114670E72146C5
:10955000D3E7BEF1010F06D0BEF1030F87D1022A77
:10956000DDD0114664E7022A81D1414C01931AF003
:109570003DFA94F800C0019BBCF1000F15D1454A9B
:109580004549D2F800E00860444A4549C2F800C0A5
:109590000120C1F800C02070BEF1000F37D10221B8
:1095A00000230A462370327042E73B49394A096872
:1095B0001268401A9042F2D2384A116831B3384AE0
:1095C000116813605B1A002BE9DD3A78327011469E
:1095D0002EE7274CD8F800801AF008FA2378D3B980
:1095E000304A2D49D2F800C008602C4A2C4913603B
:1095F00001200B602070BCF1000F22D00123C1F8C4
:10960000008013603A783270114611E724490B60EC
:1096100001201060D9E7204A224B12681B68801A8B
:1096200098420ED21D4A13687BB11D4B1A68C3F8CD
:109630000080A8EB0208B8F5FA6FE3D0B8F1000F8C
:10964000E0DB002323700222DDE71549D6E700BFE7
:10965000588C00206F8C0020046000209462002051
:1096600043620020248C0020EC620020798C0020D2
:10967000548C0020A06200208C6200200D6100202C
:109680002E8C0020888E0020B8610020648E00207F
:10969000348C0020246200209C8A0020F48C00205E
:1096A000E88C0020AC610020148D00201F85EB5158
:1096B000608E00202DE9F84F1AF098F9984E994ADB
:1096C000336811689942044600F09E80DFF8A88252
:1096D000954F964D98F800101360012238602A705B
:1096E000002940D1924B1960924B93491B78934AC1
:1096F000CC5C336801211170422C4FF0000223FA38
:1097000001F32A7040F2D0808D4ADBB2D25C8D4CDE
:109710008D4D226000210120FEF7CEFC236801332D
:1097200014D023682A789A4210D0884B1B78022BD9
:109730000CD0874B32681A6086482422002123F01F
:1097400003FC854B0022C3E900221A7223682B70A8
:109750004FF0FF332360FFF727FE1AF047F97F4BE6
:109760001860BDE8F88F99461AF040F97C4B7D4AA5
:109770001B7810683168834203DAC80758BF49F084
:1097800001095068834203DA880758BF49F002098B
:109790009068834203DA480758BF49F00409D0684B
:1097A000834203DA080758BF49F008091069834269
:1097B00003DAC80658BF49F010095069834203DA3A
:1097C000880658BF49F020099069834203DA4806A9
:1097D00058BF49F04009D069834203DA080658BFF0
:1097E00049F08009126A934203DACB0558BF49F465
:1097F0008079494519D14E4B2A7800211960002AF9
:109800007FF472AFBDE8F88FDFF82491464FD9F8A6
:1098100000303868241A002B61D09C4257D3434D46
:1098200000232A78C9F80030E9E7424B424A1B7806
:10983000D25C422A4FEA510154D84B4BC9B203EBD8
:10984000022012F0FB0F10F801C04FEA022A22F0AA
:10985000040E57D1DFF818B144481BF801B080F866
:1098600000B0012A04D1DFF80CB11BF8011001701F
:10987000C9F34709534413F80930BEF1000F3AD138
:109880003B493A4811F809100170012A03D1394ABD
:1098900012F8092002706345ADD0DFF8949098F873
:1098A0000030C9F80030B4E72F4ADBB202EB0422E3
:1098B00014F0FB0FD25C2CD12D492C48C95C0170EF
:1098C000012C7FF424AF2B49CB5C03701FE7FEF71C
:1098D0004FFB0028A3D0D9F800309C4292D3134DFF
:1098E0002A788CE7164BC9B2C9F3470913F801C0AF
:1098F00013F80930CFE7012A01D11C48C7E70A2A2B
:10990000FBD0C8E7012A01D11848ACE70A2AFBD0EE
:10991000AEE7012C01D11548D5E70A2CFBD0F6E6BD
:10992000588C002084620020A08A0020A48A002095
:10993000588E00206F8C002040620020B061002013
:10994000D8680020DC8D002044620020988C002024
:109950005C8C0020BC6100209C8C0020348C00209A
:109960008D6200200C8E0020505005008C8E00204F
:109970000C000500504F0500548E002000F0F00050
:10998000C0282DE9F04101F00F0102F07F0510D051
:10999000D02830D12E4E3378012B48D12D4B1B8847
:1099A0000139002B44D0CBB20F2B24D863F02F0405
:1099B0002DE0274E3378012B1FD00139CBB20F2B6E
:1099C00019D8DFF89C80D8F854201068026843F05A
:1099D000C0071268394663F03F049047D8F8543006
:1099E0001868036829461B689847337883B91A4B6F
:1099F0001B78022B0BD1BDE8F081164B1B88013977
:109A0000002BDBD0CBB20F2BF5D863F03F04E7B2CD
:109A1000124C636D1868036839461B699847636D7B
:109A20001868036829461B69BDE8F04118470139E9
:109A3000CBB20F2BDFD8DFF82880D8F8542010687D
:109A4000026843F0D0071268394663F02F04C4E778
:109A5000F86000201E8C0020D4680020AC66002036
:109A6000C46700202DE9F041354D36492B78C3EB12
:109A7000C302C2EBC2020A4404469278012A45D0CE
:109A800003EB4302304E03EB820333449B79DA0746
:109A90000BD52E4A1778FFB12D4ADFF8CC80D76A54
:109AA000D8F80020BA4221D104BB9B0712D5274B1E
:109AB0001B787BB1264B274EDD6B3368AB4200D160
:109AC00044B1254B254A19781278EBB2A020FEF755
:109AD000D7FD3560BDE8F081214A1268642ADBDCDD
:109AE000DFF88480D8F80020BA42DDD01A4BFAB2F1
:109AF0001978D020FFF742FF2B78C8F8007003EBED
:109B0000430203EB82031E44B379CEE7DFF84080C3
:109B1000144ED8F80C203768BA424FEAC30001D17E
:109B2000002CADD0C31AC3EBC3030B44D2B2597996
:109B30001879FCF72FFCD8F80C202B7832609FE7BF
:109B40006F8C002004600020A06200208B8C00201D
:109B5000E4610020E08C002034620020848C00202E
:109B6000148D0020D48C0020D88C00200000000030
:109B70002DE9F04FA94DAA4C2B78AA4E03EB4302D6
:109B800003EB8202224431789279002A87B014BF15
:109B90004FF003084FF010085A0089B1A248C05C8A
:109BA000032800F02481A148DFF8BCC2A04F007850
:109BB0009CF900C03F78A0EB0C00874200F02C819C
:109BC0009C4F3878012802EB030003EB800020440F
:109BD000407809D9002850D09748007800284CD107
:109BE00031B907B0BDE8F08F0028F5D10029F8D0D1
:109BF0002B785A001A4403EB820239781444012965
:109C0000627800F0D480002A40F0D4808B4AD35C84
:109C1000032B00F0D9808A4B1B78032BE1D0894BB2
:109C20001B78002BDDD0884B1A6840F2FF139A4254
:109C3000D7D1864B7D4A1978127840238020FEF7D1
:109C40001FFD2B78824A02EB4312D27D012A00F0DD
:109C50007F81804AC3EBC303C3EBC30313440022D9
:109C60009B7C3270022BBCD17B4B1B78002BB8D075
:109C700007B0BDE8F04FFFF76DBB1A4403EB82025B
:109C800022445279002A40F0A5806C4AD25C032A13
:109C900000F02C816A4A1278032A08D0694A1278A7
:109CA0002AB1694A106840F2FF12904298D0DFF85A
:109CB0007CA19AF800200592002900F0E38003EBD4
:109CC000430203EB8202224492F809C0BCF1000F68
:109CD00000F0788101220492DFF878815F4ADFF892
:109CE0006CB103925E4A127822B15E4A1288002A51
:109CF00040F0FA80C3EBC302C2EBC2024244927846
:109D0000012A00F0ED8003EB430103EB81012144C4
:109D10005A008879002840F0E3804979012900F051
:109D2000DF80D018DFF808914F4999F8002091F8AA
:109D300000C003EB80002044624490F808C0D2B217
:109D40004FF0010E8AF8002086F800E0BCF1000F09
:109D500040F0E280039B9BF800101B789020FEF7F8
:109D60008FFC049B002B40F0CF8019F03FFEDFF802
:109D700008A1CAF8000019F039FE2B783B4ADAF83E
:109D800000C0C2F800C0C3EBC303C3EBC3039844D5
:109D9000DFF8E8C098F81230354A99F80010CCF88E
:109DA0000000022B117000F0A780317818E7002A1C
:109DB0003FF43FAF204A1278002A3FF43AAF1F4ADF
:109DC000D35C032B7FF427AF194B1B783F2B7FF419
:109DD00022AF2EE700297FF458AF19F007FE254B7C
:109DE0001B68C01A4045E0D32B7831784DE7DFF887
:109DF00078C00E4F0E489CF900E03F780078DFF8FD
:109E000080C0A7EB0E07C01B00289CF80070B8BFED
:109E1000404287427FF7D4AE064FEBE66F8C0020BE
:109E2000A06200208B8C002054620020848C0020D3
:109E300044620020798C0020C48C00204062002005
:109E40000D6100200C610020588C0020346200203D
:109E500098600020046000202E8C0020F362002017
:109E6000F86000201E8C00207C8D0020C88C002013
:109E7000DC8C0020888E0020A88C0020808C0020A4
:109E800035620020DFF85883C3EBC302C2EBC20285
:109E900042449278002A64D103EB430103EB810131
:109EA00021445A004979002940F00781BF490391B4
:109EB0001A4403EB820222449279D10700F1C48054
:109EC000920700F19080DFF81C9309EB4312D27DDA
:109ED000012A00F027810022DFF80CB3049201E789
:109EE0000120FFF7BFFD2B785A001AE7B04A12781D
:109EF0003F2A7FF4CFAE73E6AE4B1B78002B7FF486
:109F000054AFFFF7FDF950E7059A9BF80010402386
:109F10008020FEF7B5FB28E7C3EBC303C3EBC30305
:109F200018F8033023B1437813B9FEF7A1FEA24914
:109F3000A24B1B7893B9A24B1B78022B02D0FFF7E0
:109F4000EBF89D490B7899F800201A44D2B201E74A
:109F500019F04CFD9B4A2B7810607AE6FEF71EFF45
:109F6000EFE7994A994B10681B68DFF88092A0EBE5
:109F70008300D9F80030D9F8042020EAE070B0EB73
:109F8000830F4FEA830180F0F180084692004FF47E
:109F900080630093002319F017FD8D4B1B78012B74
:109FA000024600F02581022B00F0908189482B7831
:109FB00001784078401A02FB00F201EBA222C9F8B6
:109FC0000C2069E7DFF820B2059A9BF80010CDF865
:109FD00010C040238020FEF753FB744B0393DFF83F
:109FE00000822B787EE6784A784B10681B68DFF891
:109FF000FC91A0EB8300D9F83030D9F8342020EA66
:10A00000E070B0EB830F4FEA830180F0AA8008462E
:10A0100092004FF480630093002319F0D5FC6C4B41
:10A02000DB78012B024600F0E980022B00F0F18082
:10A0300068482B788179C079401A02FB00F201EB65
:10A04000A222C9F83C203EE75F4A604B10681B68BB
:10A05000DFF89891A0EB8300D9F82030D9F82420BC
:10A0600020EAE070B0EB830F4FEA830180F0838039
:10A07000084692004FF480630093002319F0A4FC7B
:10A08000534B9B78012B024600F08A80022B00F094
:10A09000DF8050492B78087991F805C003EB430124
:10A0A000ACEB000C03EB810102FB0CF2214400EB52
:10A0B000A220C9F82C008A7902E7434A434B106872
:10A0C0001B68DFF82891A0EB8300D9F81030D9F88D
:10A0D000142020EAE070B0EB830F4FEA830154D2E2
:10A0E000084692004FF480630093002319F06CFC43
:10A0F000374B5A78012A03464CD0022A00F0C78019
:10A1000034492A488A78C9780390891A03FB01F3F5
:10A1100002EBA323DAB2C9F81C3002702B787AB3B1
:10A120005A00C5E619F062FC2B78264909EB431268
:10A13000D1F800C0527EC2EB4211A0EB0C0002EB42
:10A140008102B0EB420F5FD92349244AD1ED007A56
:10A15000DFF894B0F1EE677AC2ED007A0022049243
:10A16000C0E59200904228BF104652E7920090420C
:10A1700028BF10460BE79200904228BF104679E7AF
:10A18000012103FA01F2017092E69200904228BF89
:10A190001046A7E700FB00F203FB02F31B15AFE735
:10A1A00000FB00F302FB03F2121572E7F3620020DA
:10A1B000446200202E8C00207C8D00202C8C0020FE
:10A1C000988C0020248B0020808D00209462002039
:10A1D000288C002048620020208C0020BC8E0020AB
:10A1E000046000209860002034620020E4610020B8
:10A1F00000FB00F302FB03F21215D7E600FB00F3AD
:10A2000002FB03F2121513E70022DFF810B10492EB
:10A2100068E500283FF40CAF22F08CF841EC100BFD
:10A2200017F0ECFD3AA3D3E9002351EC100B22F018
:10A23000EBF822F0E1FB07EE900A9FED377A67EE2C
:10A24000A77A67EE877AFDEEE77A17EE902AEFE6B7
:10A2500000283FF41EAF22F06DF841EC100B17F010
:10A26000CDFD2BA3D3E9002351EC100B22F0CCF849
:10A2700022F0C2FB07EE900A9FED277A67EEA77ADD
:10A2800067EE877AFDEEE77A17EE902A01E700285D
:10A290003FF436AF22F04EF841EC100B17F0AEFD54
:10A2A0001BA3D3E9002351EC100B22F0ADF822F0F0
:10A2B000A3FB07EE900A9FED187A67EEA77A67EE88
:10A2C000877AFDEEE77A17EE903A19E700283FF417
:10A2D0006DAE22F02FF841EC100B17F08FFD0CA3A0
:10A2E000D3E9002351EC100B22F08EF822F084FB0E
:10A2F00007EE900A9FED087A67EEA77A67EE877AF5
:10A30000FDEEE77A17EE902A50E600BFAFF300802B
:10A31000FE822B654715F73F0AD7234134620020A0
:10A320002DE9F041C64CC74D22682B689B1A002BC3
:10A33000B8BF5B42012B82B024DDC34FC3483B78DA
:10A34000C3EBC301C1EBC10101448978002968D185
:10A35000BF4E03EB430203EB8202324459005279B1
:10A36000002A40F08D80194403EB810333449B792C
:10A37000D80700F1BB80990724D40020FFF772FBB7
:10A3800023682B60B34B1A68D20708D4B249B34A8A
:10A390000968116001221A6002B0BDE8F081AF4C7B
:10A3A000AD4D23682A689B1A002BB8BF5B42022B75
:10A3B000F2DD01210020FDF77FFE2B68236002B053
:10A3C000BDE8F081A64BDFF8A8821B682068D8F8AA
:10A3D0003420A0EB8300D8F8303020EAE070B0EBF6
:10A3E000830F4FEA830180F0C780084692004FF444
:10A3F00080630093002319F0E7FA9A4BDA78012A78
:10A40000034600F0C380022A00F0D88096498A797A
:10A41000C879801A03FB00F302EBA323C8F83C3091
:10A42000ABE78F4BDFF848821868D8F80030A2EB12
:10A43000800020EAE070B0EB830FD8F804204FEAE8
:10A44000830180F09E80084692004FF48063009361
:10A45000002319F0B9FA834B1B78012B024600F058
:10A460009B80022B00F027817F483B780178407861
:10A47000401A02FB00F201EBA222C8F80C2067E7A9
:10A48000774BDFF8EC811B682068D8F81420A0EB2C
:10A490008300D8F8103020EAE070B0EB830F4FEA69
:10A4A000830164D2084692004FF480630093002336
:10A4B00019F08AFA6B4B5A78012A034678D0022A9F
:10A4C00000F0DA806849DFF8ACC18A78C878801A71
:10A4D00003FB00F302EBA323DAB2C8F81C308CF8BC
:10A4E00000203B78002A37D059003CE75C4BDFF86E
:10A4F00080811B682068D8F82420A0EB8300D8F85E
:10A50000203020EAE070B0EB830F4FEA830129D2BC
:10A51000084692004FF480630093002319F054FA28
:10A52000504B9A78012A03463CD0022A65D03A78EB
:10A530004D4802EB42070179407902EB8702401A4D
:10A54000164403FB00F301EBA321B379C8F82C10E8
:10A5500099077FF512AF35E7012203FA02F18CF873
:10A56000002000E79200904228BF1046D2E79200F8
:10A57000904228BF104697E79200904228BF1046AD
:10A5800035E79200904228BF10465EE700FB00F0DE
:10A5900003FB00F31B1539E700FB00F002FB00F2A0
:10A5A000121561E700FB00F003FB00F31B15BEE78B
:10A5B00000FB00F003FB00F31B1583E700283FF4CA
:10A5C00025AF21F0B7FE41EC100B17F017FC1AA3D2
:10A5D000D3E9002351EC100B21F016FF22F00CFA06
:10A5E00007EE900A9FED217A67EEA77A67EE877AE9
:10A5F000FDEEE77A17EE903A08E7002897D021F0B1
:10A6000099FE41EC100B17F0F9FB0BA3D3E90023E3
:10A6100051EC100B21F0F8FE22F0EEF907EE900A53
:10A620009FED127A67EEA77A67EE877AFDEEE77AFA
:10A6300017EE903A7BE700BFFE822B654715F73F88
:10A64000808D0020E48C00206F8C002004600020AE
:10A65000A0620020E4690020148D0020AC8A002054
:10A6600094620020288C0020486200200AD72341F1
:10A67000E4610020F362002000283FF423AF21F0C2
:10A6800059FE41EC100B17F0B9FB1BA3D3E90023D3
:10A6900051EC100B21F0B8FE22F0AEF907EE900A53
:10A6A0009FED177A67EEA77A67EE877AFDEEE77A75
:10A6B00017EE903A06E700283FF4D6AE21F03AFEB6
:10A6C00041EC100B17F09AFB0BA3D3E9002351ECDC
:10A6D000100B21F099FE22F08FF907EE900A9FED02
:10A6E000087A67EEA77A67EE877AFDEEE77A17EECB
:10A6F000902AB9E6AFF30080FE822B654715F73F3D
:10A700000AD72341036810B504460BB1743098474B
:10A7100094F87530803B7F2B43D8DFE803F0494243
:10A7200042424242424242424242424242425542F6
:10A7300042424242424242424242424242425942E2
:10A7400042424242424242424242424242425D42CE
:10A7500042424242424242424242424242426142BA
:10A7600042424242424242424242424242426B42A0
:10A7700042424242424242424242424242426F428C
:10A78000424242424242424242424242424283901A
:10A7900098A842424342ACB0B4B8BC42C040236D1A
:10A7A0001BB910BD636B002BFBD0BDE810401847F0
:10A7B000A368002BF5D094F8772094F8761094F8DD
:10A7C0007400BDE810401847E368002BF3D1E8E7B8
:10A7D0002369002BEFD1E4E76369002BEBD1E0E7BD
:10A7E000A369002BDDD094F8761094F87400BDE8CE
:10A7F00010401847E369002BF5D1D2E7226A002AFE
:10A80000CFD094F8771094F8763094F87400C9019A
:10A8100001F47E5103F07F031943BDE81040A1F518
:10A8200000511047636A002BBBD0B4F87610802922
:10A8300004F1780028BF8021BDE810401847A36AC2
:10A84000002BAED094F87600BDE810401847E26ABD
:10A85000002AA6D094F8773094F87600DB0103F450
:10A860007E5300F07F00BDE8104018431047236B73
:10A87000002BE7D195E7A36B002B96D191E7236CD2
:10A88000002B92D18DE7E36B002B8ED189E7636CAF
:10A89000002B8AD185E7A36C002B86D181E7E36C7E
:10A8A000002B82D17DE700BFF8B504468026002545
:10A8B0000DE094F80D31626D23F0010384F80D3141
:10A8C000106803681B699847C3B2FD2B07D1636DFD
:10A8D00018680368DB6898470028EAD1F8BD626E03
:10A8E000002A75D194F9591094F8592084F85B30F6
:10A8F000002980F2848002F10C01C9B201297ED9BD
:10A90000FD2A7CD0EF2A94BF02F0F001114601F03D
:10A91000CF07802F01D0D0296DD1000606D40121A8
:10A9200084F85C3084F85B201346616603F10C0206
:10A93000D2B2012A67D9FD2B65D0EF2B94BF03F06B
:10A94000F0011946A1F180027F2A5CD8DFE802F00D
:10A95000CB5B5B5B5B5B5B5B5B5B5B5B5B5B5B5BD7
:10A96000CB5B5B5B5B5B5B5B5B5B5B5B5B5B5B5BC7
:10A97000CB5B5B5B5B5B5B5B5B5B5B5B5B5B5B5BB7
:10A98000CB5B5B5B5B5B5B5B5B5B5B5B5B5B5B5BA7
:10A99000E85B5B5B5B5B5B5B5B5B5B5B5B5B5B5B7A
:10A9A000E85B5B5B5B5B5B5B5B5B5B5B5B5B5B5B6A
:10A9B000CB5B5B5B5B5B5B5B5B5B5B5B5B5B5B5B77
:10A9C000ECE8CBE85B5BBEECBEBEBEBEBE5BBEBE13
:10A9D000010627D494F85B10F0294BD0F72949D011
:10A9E000A11881F85B30236E591E8A4280F0A38043
:10A9F000013262666BE701F0DF01C0298DD040B201
:10AA00000028C0F22E8194F90D01636840F0010026
:10AA100084F80D0103B19847002084F85900C4E977
:10AA20001800F8BDA3F1F0010F29D3D801A050F808
:10AA300021F000BF97AA0200D5A90200D5A9020003
:10AA4000D5A90200D5A90200D5A90200D5A9020006
:10AA500097AA02007DAA02007DAA02007DAA020038
:10AA60007DAA02007DAA0200D5A902007DAA0200EB
:10AA70007DAA0200A11881F87830B4E700220120F5
:10AA8000A4F8762084F8742084F87530C4F8FC00AB
:10AA900084F8F800F8BD94F87810F02901D0F7296F
:10AAA000B1D1A5184FF4704185F8783001320023F8
:10AAB0000120A4F87620A4F8741084F85930C4E971
:10AAC0001833C4F8FC2084F8F800F8BD00230120F6
:10AAD00084F87430A4F87630C4E9183384F875101B
:10AAE00084F8F800F8BD032222660220626E8242DA
:10AAF000FFF47EAF03F00F03013394F85C2084F879
:10AB000074300023012084F8762084F87730C4E97B
:10AB1000183384F87510C4F8FC0084F8F800F8BD08
:10AB2000022222660120E1E7266684F8595084F863
:10AB300078107F20DAE794F85B10F02952D0F729DB
:10AB400050D00A063BD501F10C02D2B2012A36D907
:10AB5000FD2934D0EF2994BF01F0F0020A46802A83
:10AB600084F8752005D0902A03D0B02A01D0A02AFD
:10AB70005ED101F00F0094F85C5084F876500130FB
:10AB8000032B84F8740050D00025002084F87750FF
:10AB9000B02A4FF00105C4E91800C4F8FC3084F86D
:10ABA000F8503ED0B02A36D9E02A3AD002F0EF026F
:10ABB000C02A36D0002384F859300120F8BD94F81B
:10ABC0005C0084F876000022032BA4F874202CD0BB
:10ABD0000121C4E9182284F87720C4F8FC3084F8F5
:10ABE000F810E7E7224B6367F0218022012394F8F5
:10ABF000F750C4F8FC2084F8F830204684F8F710A9
:10AC0000FFF780FDF722022384F8795084F878203A
:10AC100063660020F8BDA02A03D002F0EF02802A6C
:10AC2000C8D184F859100120F8BD94F85D50ACE704
:10AC3000D02A9ED0E02A9CD0C02A9AD094F85C50AA
:10AC400084F876500020032B84F87400EDD00125A1
:10AC5000C4E9180084F87700C4F8FC3084F8F85090
:10AC6000A0E703F10C02D2B2012A3FF666AECAE6B3
:10AC700000F08000036810B504460BB174309847AB
:10AC800094F87530803B7F2B43D8DFE803F04942CE
:10AC90004242424242424242424242424242554281
:10ACA000424242424242424242424242424259426D
:10ACB00042424242424242424242424242425D4259
:10ACC0004242424242424242424242424242614245
:10ACD00042424242424242424242424242426B422B
:10ACE00042424242424242424242424242426F4217
:10ACF00042424242424242424242424242428390A5
:10AD000098A842424342ACB0B4B8BC42C040236DA4
:10AD10001BB910BD636B002BFBD0BDE8104018477A
:10AD2000A368002BF5D094F8772094F8761094F867
:10AD30007400BDE810401847E368002BF3D1E8E742
:10AD40002369002BEFD1E4E76369002BEBD1E0E747
:10AD5000A369002BDDD094F8761094F87400BDE858
:10AD600010401847E369002BF5D1D2E7226A002A88
:10AD7000CFD094F8771094F8763094F87400C90125
:10AD800001F47E5103F07F031943BDE81040A1F5A3
:10AD900000511047636A002BBBD0B4F876108029AD
:10ADA00004F1780028BF8021BDE810401847A36A4D
:10ADB000002BAED094F87600BDE810401847E26A48
:10ADC000002AA6D094F8773094F87600DB0103F4DB
:10ADD0007E5300F07F00BDE8104018431047236BFE
:10ADE000002BE7D195E7A36B002B96D191E7236C5D
:10ADF000002B92D18DE7E36B002B8ED189E7636C3A
:10AE0000002B8AD185E7A36C002B86D181E7E36C08
:10AE1000002B82D17DE700BFF8B5044680260025CF
:10AE20000DE094F80D31626D23F0010384F80D31CB
:10AE300010680368DB689847C3B2FD2B07D1636DC8
:10AE4000186803685B6998470028EAD1F8BD626E0C
:10AE5000002A75D194F9591094F8592084F85B3080
:10AE6000002980F2848002F10C01C9B201297ED947
:10AE7000FD2A7CD0EF2A94BF02F0F001114601F0C8
:10AE8000CF07802F01D0D0296DD1000606D4012133
:10AE900084F85C3084F85B201346616603F10C0291
:10AEA000D2B2012A67D9FD2B65D0EF2B94BF03F0F6
:10AEB000F0011946A1F180027F2A5CD8DFE802F098
:10AEC000CB5B5B5B5B5B5B5B5B5B5B5B5B5B5B5B62
:10AED000CB5B5B5B5B5B5B5B5B5B5B5B5B5B5B5B52
:10AEE000CB5B5B5B5B5B5B5B5B5B5B5B5B5B5B5B42
:10AEF000CB5B5B5B5B5B5B5B5B5B5B5B5B5B5B5B32
:10AF0000E85B5B5B5B5B5B5B5B5B5B5B5B5B5B5B04
:10AF1000E85B5B5B5B5B5B5B5B5B5B5B5B5B5B5BF4
:10AF2000CB5B5B5B5B5B5B5B5B5B5B5B5B5B5B5B01
:10AF3000ECE8CBE85B5BBEECBEBEBEBEBE5BBEBE9D
:10AF4000010627D494F85B10F0294BD0F72949D09B
:10AF5000A11881F85B30236E591E8A4280F0A380CD
:10AF6000013262666BE701F0DF01C0298DD040B28B
:10AF70000028C0F22E8194F90D01636840F00100B1
:10AF800084F80D0103B19847002084F85900C4E902
:10AF90001800F8BDA3F1F0010F29D3D801A050F893
:10AFA00021F000BF07B0020045AF020045AF02002C
:10AFB00045AF020045AF020045AF020045AF0200B9
:10AFC00007B00200EDAF0200EDAF0200EDAF0200EE
:10AFD000EDAF0200EDAF020045AF0200EDAF0200A1
:10AFE000EDAF0200A11881F87830B4E7002201200B
:10AFF000A4F8762084F8742084F87530C4F8FC0036
:10B0000084F8F800F8BD94F87810F02901D0F729F9
:10B01000B1D1A5184FF4704185F878300132002382
:10B020000120A4F87620A4F8741084F85930C4E9FB
:10B030001833C4F8FC2084F8F800F8BD0023012080
:10B0400084F87430A4F87630C4E9183384F87510A5
:10B0500084F8F800F8BD032222660220626E824264
:10B06000FFF47EAF03F00F03013394F85C2084F803
:10B0700074300023012084F8762084F87730C4E906
:10B08000183384F87510C4F8FC0084F8F800F8BD93
:10B09000022222660120E1E7266684F8595084F8EE
:10B0A00078107F20DAE794F85B10F02952D0F72966
:10B0B00050D00A063BD501F10C02D2B2012A36D992
:10B0C000FD2934D0EF2994BF01F0F0020A46802A0E
:10B0D00084F8752005D0902A03D0B02A01D0A02A88
:10B0E0005ED101F00F0094F85C5084F87650013086
:10B0F000032B84F8740050D00025002084F877508A
:10B10000B02A4FF00105C4E91800C4F8FC3084F8F7
:10B11000F8503ED0B02A36D9E02A3AD002F0EF02F9
:10B12000C02A36D0002384F859300120F8BD94F8A5
:10B130005C0084F876000022032BA4F874202CD045
:10B140000121C4E9182284F87720C4F8FC3084F87F
:10B15000F810E7E7224B6367F0218022012394F87F
:10B16000F750C4F8FC2084F8F830204684F8F71033
:10B17000FFF780FDF722022384F8795084F87820C5
:10B1800063660020F8BDA02A03D002F0EF02802AF7
:10B19000C8D184F859100120F8BD94F85D50ACE78F
:10B1A000D02A9ED0E02A9CD0C02A9AD094F85C5035
:10B1B00084F876500020032B84F87400EDD001252C
:10B1C000C4E9180084F87700C4F8FC3084F8F8501B
:10B1D000A0E703F10C02D2B2012A3FF666AECAE63E
:10B1E00000F0800090F87030DA0719D513F0FE0FE8
:10B1F00016D0F0B590F8755085F08002602A83B0C3
:10B2000004460ED890F874208A4245D0002943D0D5
:10B210005B08012B45D0032B00F09C8003B0F0BDF0
:10B220007047A5F1F0030F2BF8D801A252F823F0D4
:10B23000D3B2020001B3020023B30200B7B202008E
:10B240001DB202001DB2020071B202001DB2020066
:10B2500071B202001DB2020071B2020071B20200AE
:10B2600071B202001DB2020071B2020071B202009E
:10B2700005F10803DBB2072BD0D8012202FA03F351
:10B2800013F0DD0FCAD0636D1868036829461B6987
:10B2900003B0BDE8F04018475B08012B01D0022B3A
:10B2A000BCD1009294F8773094F876202946204655
:10B2B000FBF744F8B2E7436D90F8765018680368DE
:10B2C000F3211B699847636D186805F07F010368D7
:10B2D000DDE7B0F87630802B1F4628BF8027002B93
:10B2E0009CD000F17706636D18683546036816F840
:10B2F000011F1B69763D2D1B9847BD42F3D38DE797
:10B30000436D90F87650186894F8773002682D01F4
:10B3100003F00F03126905F07005F1211D439047FA
:10B32000B1E7436D90F87720186894F87650036879
:10B33000F2211B6945EAC2159847636D18680368D6
:10B3400005F07F011B699847636D1868C5F3C61146
:10B3500003689CE7009294F8773094F876202946A9
:10B36000FAF7ECFF5AE700BFF0B58C4C94F8585050
:10B37000102D83B006D98A4808F0D4F8002841D1AE
:10B3800003B0F0BD2046FFF78FFA0028F3D094F801
:10B390007530902B29D083F08003602B2BD97F4808
:10B3A000FFF7B0F994F87030DA07E4D513F0FE0F28
:10B3B000E1D094F8751081F08002602A47D894F8A3
:10B3C0007420954200F0D680002D00F0D3805B08F9
:10B3D000012B01D0032BCED1009294F8773094F852
:10B3E00076206E48FAF77EFFC5E794F8773013B9F8
:10B3F000802384F8753094F874309D42CFD0002DAE
:10B40000CDD0CFE7674808F001FB0028B8D0664CE4
:10B4100094F85850102DB3D82046FFF7FDFC0028B3
:10B42000AED094F87530902B00F0AE8083F080039E
:10B43000602B04D894F87430AB4200D015B95A4848
:10B44000FFF718FC58482946FFF7CCFE98E7A1F112
:10B45000F0030F2B8FD801A252F823F047B502005A
:10B4600019B50200E3B40200C3B4020077B30200CE
:10B4700077B302009DB4020077B302009DB40200CE
:10B4800077B302009DB402009DB402009DB4020097
:10B4900077B302009DB402009DB4020001F10803DD
:10B4A000DBB2072B3FF667AF012202FA03F313F07A
:10B4B000DD0F3FF460AF636D186803681B68984741
:10B4C00059E7636D94F8765018680368F3211B6898
:10B4D0009847636D1868036805F07F011B689847FB
:10B4E00049E7636D94F87720186894F876500368FC
:10B4F000F2211B6845EAC2159847636D1868036816
:10B5000005F07F011B689847636D18680368C5F3F1
:10B51000C6111B6898472EE7636D94F8765018683B
:10B5200094F8773002682D0103F00F031268F121BF
:10B5300005F070051D439047636D18680368294640
:10B540001B68984717E7B4F87630802B1F4628BF52
:10B550008027002B3FF40FAF144E636D18683546FB
:10B56000036816F8011F1B68763D2D1B9847AF42F4
:10B57000F3D800E794F870305B08012B3FF42CAF50
:10B58000022B7FF4F8AE27E794F87730002B7FF496
:10B5900051AF802384F875304CE700BFC4670020AA
:10B5A000D88E0020748B0020AC6600203B68002001
:10B5B00010B5054B036004460EF05AFF20461AF002
:10B5C000AFFD204610BD00BF086D05002DE9F84F06
:10B5D000DFF89C81584FDFF89C91DFF89CA1574C15
:10B5E000574E584D404608F02BF83A4656494046CB
:10B5F00021F0E2FB4846802108F026FF3A465349F5
:10B60000484621F0D9FB012150460AF08BF820462C
:10B610000FF072FA3A464E49204621F0CDFB4D48D4
:10B6200010F080F94C489FED4D0A0023002403627E
:10B6300001224FF081434FF4806141600361027544
:10B6400080F824400F2110F0C7FA454B73654FF086
:10B65000800BC3F8009021464FF6FF784FF00309A6
:10B660005A4606F17800C6E90044C6E90244C6E934
:10B670000444C6E90644C6E90844C6E90A44C6E9E2
:10B680000C44C6E90E44C6E91044C6E91244C6E9B2
:10B690001844C6E91A883465A6F8584086F85A4016
:10B6A000746786F8F84086F8709021F04DFC3A46B1
:10B6B0002C49C6F808413046C6E94044A6F80C417A
:10B6C00021F07AFB284B6B655A46214605F178003C
:10B6D000C3F800A0C5E90044C5E90244C5E9044433
:10B6E000C5E90644C5E90844C5E90A44C5E90C446E
:10B6F000C5E90E44C5E91044C5E91244C5E918443A
:10B70000C5E91A882C65A5F8584085F85A4085F88F
:10B7100070906C6785F8F84021F016FCC5E940444C
:10B720003A462846C5F80841A5F80C410F49BDE83E
:10B73000F84F21F041BB00BF00600020848D002045
:10B74000AC660020C46700205506030021060300F4
:10B75000D1620200208D0020EC8A00200AD7233C11
:10B76000188D0020C96202001C8D0020CD620200ED
:10B770002C8B0020748B0020688E002070B505464D
:10B780001648502104460EF077FCC5F307212046E9
:10B790000EF010FBE9B220460EF00CFB20460EF036
:10B7A000D3FC0122502120460EF026FC20460EF04C
:10B7B00015FB0B4DC6B245F0010500E0A84750212E
:10B7C00020460EF059FC20460EF0BEFC03464FF416
:10B7D0004850002BF2D1304670BD00BF98A3002026
:10B7E000606805002DE9F0411D4E1E4DDFF87880A0
:10B7F00028242046FFF7C2FF034604F10D0006F897
:10B80000013BFFF7BBFF98F8003005F8010B23B9A7
:10B8100001342B2CEDD1BDE8F081E7B2A7F10A028B
:10B82000D2B266210720FAF7B5FD16F8012C2132B5
:10B83000D2B266210720FAF7ADFD15F9012C07F108
:10B840004701002A02F17F030F46D2B2C9B24FF07E
:10B850000700BEBFDAB2F9B20720FAF79BFDD7E7BF
:10B8600040620020888C00201C8C0020000000001A
:10B870002DE9F04F2DED068B554C564B2578DFF812
:10B88000A0B1DFF8A0C15A5DDFF89CA15BF82530BC
:10B89000514F524E17F805B0DFF89091DFF890E164
:10B8A00019F805901EF805E04D48DFF888814D49EC
:10B8B00018F80580495D85B0003A00935CF82530A2
:10B8C00001935AF825300293474BDFF86CA15F5D76
:10B8D00010F805C005EB450306EB83060393434BC5
:10B8E000707A18BF01221A70009B414ACAF80030D2
:10B8F000404B82F80090404A83F800E0019B1360BF
:10B900003E4A029B1360DFF834A13D4B8AF8008069
:10B9100083F800C0DFF828813A4BDFF8289188F8D7
:10B9200000B089F800101F70039BDFF81CB10130D4
:10B930004FEA830820F0FEFC23A3D3E9002320F084
:10B9400063FD21F039F808EB0503DFF800812E4A8A
:10B9500018F80330107003EB430306EB430A2B4A3D
:10B9600016F813302A499AF804009AF801608BF807
:10B9700000309AF802300E701370013020F0DAFCBB
:10B9800011A3D3E9002320F03FFD20F0EDFF9AF84A
:10B990000530204A204E1060581C20F0CBFC0AA332
:10B9A000D3E9002320F030FD20F0DEFF735D1B495A
:10B9B000433BDAB2032A08605DD8DFF894A00AF5A9
:10B9C0008077CAF1000548E09A9999999999E93FD9
:10B9D0006F8C0020F0620020106100206062002067
:10B9E00038620020906200203C620020848E00209B
:10B9F0008C8C0020988C0020648C0020F462002045
:10BA00003562002034620020548E0020B86100208E
:10BA1000436200202462002040620020AC610020CC
:10BA20000863002028620020F8620020908C00202B
:10BA300054620020888C002004630020858C002044
:10BA40000D6100208D62002045620020A062002070
:10BA5000D76800202378F35C433B1B0203F57A632D
:10BA600005EB0A001844FFF789FE0AF8010F574555
:10BA7000F0D1CF4B1F78CF4BCF48D04E00254FF49D
:10BA800000521A60394640232A460560E02035609E
:10BA9000FCF7F6FD29462422C94821F055FA227800
:10BAA000C84902EB420302EB830343440D6018795B
:10BAB0004D600D72530020B1C3490878023818BF99
:10BAC0000120134402EB83039844C04B98F80760AD
:10BAD000BF49C04D1B780870002E14BF7F2640263A
