:020000022000DC
:106000000000042055B7040095B7040097B70400BA
:1060100099B704009BB704009DB70400000000007E
:10602000000000000000000000000000D1B60400E5
:10603000A1B7040000000000F1B60400A5B70400F9
:10604000A9B90400A7B70400A7B7040085ED0300B1
:10605000A7B70400A7B7040095900400A7B70400F1
:10606000A7B70400A7B70400A7B70400A7B70400A8
:10607000A7B70400A7B70400A7B70400A7B7040098
:10608000A7B7040021B40400A7B70400A7B7040011
:10609000A7B70400A7B7040075600300A7B7040002
:1060A000A7B70400A7B70400A7B70400A7B7040068
:1060B000A7B70400A7B7040000000000000000001C
:1060C000A7B70400A7B70400A7B70400BDBE04002B
:1060D000A7B70400A7B70400A7B70400858803008A
:1060E000A7B70400A7B70400A7B70400000000008A
:1060F00000000000A7B704000000000035BF040046
:10610000000000000000000000000000000000008F
:10611000000000000000000000000000000000007F
:10612000000000000000000000000000000000006F
:10613000000000000000000000000000000000005F
:10614000000000000000000000000000000000004F
:10615000000000000000000000000000000000003F
:10616000000000000000000000000000000000002F
:10617000000000000000000000000000000000001F
:10618000000000000000000000000000000000000F
:1061900000000000000000000000000000000000FF
:1061A00000000000000000000000000000000000EF
:1061B00000000000000000000000000000000000DF
:1061C00000000000000000000000000000000000CF
:1061D00000000000000000000000000000000000BF
:1061E00000000000000000000000000000000000AF
:1061F000000000000000000000000000000000009F
:10620000F1EE103A43F08073E1EE103A704700BFB0
:1062100010B5054C237833B9044B13B10448AFF3E0
:1062200000800123237010BD4067002000000000A3
:106230001CF3050008B5034B1BB103490348AFF33A
:10624000008008BD00000000446700201CF305002A
:10625000154B002B08BF134B9D46A3F5803A002138
:106260008B460F461348144A121A2CF033FA0F4B80
:10627000002B00D098470E4B002B00D098470020F1
:10628000002104000D000D48002802D00C48AFF397
:1062900000802CF0B5F92000290025F0B3FA2CF08D
:1062A00089F900BF00000800000004200000000081
:1062B0000000000040670020CCCB00200000000060
:1062C0000000000042DF7047704700BF704700BF0A
:1062D00010B5034B0360044618F0D6FD204610BDF0
:1062E000ECC505002DE9F0419DF81840013CE4B2F1
:1062F0000F2C21D80D4649B200291DDA1F46436DE7
:1063000006461868036821431B68C9B2904698473F
:10631000736D1868036808F07F011B6805F0EF05CE
:106320009847C02D08D0736D1868036807F07F0187
:106330001B68BDE8F0411847BDE8F0812DE9F04148
:106340009DF81840013CE4B20F2C21D80D4649B20B
:1063500000291DDA1F46436D06461868036821436D
:106360001B69C9B290469847736D1868036808F0B6
:106370007F011B6905F0EF059847C02D08D0736DAC
:106380001868036807F07F011B69BDE8F0411847F2
:10639000BDE8F0812DE9F041344B102805461C780A
:1063A00028BF1025012D38BF0125012C82B001F036
:1063B0007F0702F07F060ED0E4B92D4B07281C782A
:1063C00034D02C48009533463A46B021FFF78AFF77
:1063D000022C0CD004E0284B07281B6834D05BB19A
:1063E0002648009533463A46B021FFF7A7FF02B092
:1063F000BDE8F081072807D01E48009533463A468D
:10640000B021FFF76FFFEBE7652FF5D9DFF870805C
:1064100098F80030012B13D81648009533463A46B9
:10642000B021FFF75FFF98F8003009E0652FC8D969
:10643000DFF84C8098F80030012B0CD9022CD6D014
:1064400013F0FD0FD3D1CBE7652FC8D9002BDDD0DA
:106450000B4B1B78F4E70748009533463A46B021CA
:10646000FFF740FF022CDED1C1E700BF90610020A2
:106470008869002078680020088D00205C67002073
:10648000058D002030B50E4D83B00C4601904FF0C5
:10649000FF31286823F0AAFB019A68210720FFF743
:1064A00079FF224669210720FFF774FF002328683F
:1064B0001A46194603B0BDE8304022F06FBF00BF56
:1064C000808F002038B51C4B1C4A1B7800241460B8
:1064D00003B938BD1A4D4FF0FF31286823F086FB11
:1064E00048226A210720FFF755FF2246772107201F
:1064F000FFF750FF234622462146286822F04EFF30
:106500004FF0FF31286823F071FB49226A210720F0
:10651000FFF740FF224677210720FFF73BFF234686
:1065200022462868214622F039FF064B1A78022AB3
:1065300008BF1C7038BD00BF048D0020088D0020EE
:10654000808F0020058D002070B5014688B034484A
:106550000FF088FD0023044620226946CDE9003370
:10656000CDE90333CDE90533029307930DF09AFE8D
:1065700020460DF081FD2BF0A3FA2A4B00222BF0D0
:1065800009FB2BF0B7FD284B0628CCBF274D274D24
:106590001B78CCBF044607242C6023B9244B02226D
:1065A0009A7008B070BD234E4FF0FF31306804EB95
:1065B000840423F01BFB04EB840448226A21072097
:1065C000FFF7E8FEA20002F07C0277210720FFF728
:1065D000E1FE00231A461946306822F0DFFE2B68E0
:1065E0003068642404FB03F44FF0FF3123F0FEFA1B
:1065F000C4F3C71449226A210720FFF7CBFE2246C5
:1066000077210720FFF7C6FE00231A461946306897
:1066100022F0C4FE064B02229A7008B070BD00BF83
:10662000209200200000E43F048D0020088D00200F
:10663000FC8C0020808F002010B5012182B0044620
:106640001A2026F0C5FA01211A2026F045FB052064
:1066500022F080FD4FF480730094ADF8043002AB5B
:1066600013E90600134818F0ADF800211A2026F0AF
:1066700033FBAC210F4818F083F953210D4818F073
:106680007FF900210B4818F07BF9002104460948E6
:1066900018F076F900EB0421B1F5A64F06D01022D0
:1066A000054822F091FC002002B010BD012002B08C
:1066B00010BD00BF00AF0020A49A002070B50446B2
:1066C00042F21070FFF7B8FF7A497B4822F0F8FADF
:1066D000257805B37949784822F092FA10222946A4
:1066E000754822F041FCAC21754818F049F9E021C9
:1066F000734818F045F90021714818F041F929460E
:1067000003466F481D4618F03BF900EB0520B0F535
:10671000604F40F0A9806A4DF021284618F030F90A
:106720000021284618F02CF90021284618F028F9F5
:106730000021284618F024F910F00106ECD1657804
:10674000002D70D15E4DF021284618F019F9002176
:10675000284618F015F90021284618F011F90021F3
:10676000284618F00DF910F00106ECD1A578002D9F
:106770007CD1534DF021284618F002F9002128461B
:1067800018F0FEF80021284618F0FAF800212846F3
:1067900018F0F6F810F00106ECD1E478FCB14949A4
:1067A000454822F02DFA10222146434822F0DCFB16
:1067B000AC21434818F0E4F8A421414818F0E0F86F
:1067C00031463F4818F0DCF8214603463C481C4659
:1067D00018F0D6F800EB0420B0F5244F44D1384D22
:1067E000F021284618F0CCF80021284618F0C8F807
:1067F0000021284618F0C4F80021284618F0C0F8F7
:1068000010F00104ECD12C4822F0AAFA2C4818F020
:106810003BF821461A2026F05FFA21461A2026F07E
:10682000D7F9012070BD2849234822F0E9F9102248
:106830002946214822F098FBAC21214818F0A0F805
:10684000A0211F4818F09CF831461D4818F098F810
:10685000294603461A481D4618F092F800EB052019
:10686000B0F5204F3FF46EAF002070BD17491248BD
:1068700022F0C6F9102229460F4822F075FBAC2100
:106880000F4818F07DF8A8210D4818F079F8314626
:106890000B4818F075F82946034609481D4618F0BC
:1068A0006FF800EB0520B0F5284F3FF462AF0020F1
:1068B000DBE700BF94550500A49A0020A45505000D
:1068C00000AF0020E0550500B8550500CC55050087
:1068D000F8B5044642F210700D46FFF7ADFE4F4981
:1068E0004F4822F0EDF92678002E56D16678002E1A
:1068F00073D1A6788EBBE678FEB15021494818F0D6
:106900003FF80821474818F03BF80021454818F0A7
:1069100037F80021434818F033F8EB784249044631
:106920001C403F4822F06CF93D482146102222F0DD
:106930001BFBA64201D00020F8BD394822F010FA16
:10694000384817F0A1FF00211A2026F0C5F90021D0
:106950001A2026F03DF90120F8BD5821314818F0E1
:106960000FF808212F4818F00BF800212D4818F0D7
:1069700007F800212B4818F003F8AB782B4907469D
:106980001F40274822F03CF925483946102222F0C2
:10699000EBFABE42AFD00020CEE75821214817F0D5
:1069A000EFFF00211F4817F0EBFF00211D4817F0F3
:1069B000E7FF00211B4817F0E3FF2B781C4907462F
:1069C0001F40174822F01CF915483946102222F0C2
:1069D000CBFABE428AD00020AEE75021114817F012
:1069E000CFFF00210F4817F0CBFF00210D4817F013
:1069F000C7FF00210B4817F0C3FF0E49C7B2084874
:106A000022F0FEF839460648102222F0ADFA6878E6
:106A10000740BE423FF46DAF00208DE7F4550500FE
:106A2000A49A002000AF0020385605002856050023
:106A3000085605001856050010B50A4CF0212046EE
:106A400017F09EFF0021204617F09AFF00212046F4
:106A500017F096FF0021204617F092FFC307EDD4F0
:106A600010BD00BF00AF00202DE9F04F894685B072
:106A70005349544C80465448174622F0C1F84946C1
:106A80001022514822F042FA22F058FB2368C01A23
:106A9000B0F57A7F00F287804C48FFF7CDFD7B0888
:106AA000029345D0002508F10102494C01922B4682
:106AB0001E0A4021204618F815A05FFA85FB17F042
:106AC0005FFF3146204617F05BFF5946204617F01E
:106AD00057FF51460746204617F052FF034603EB87
:106AE0000723AB424FF0480120461AD1019B13F80F
:106AF0001530039317F044FF3146204617F040FF4E
:106B00005946204617F03CFF039B0646194620468F
:106B100017F036FF00EB0620A84205F10105ABB2E5
:106B200003D0002005B0BDE8F08F029A9A42BFD88A
:106B30004C21274817F024FF4FEA59054FEA592105
:106B4000234817F01DFFE9B2214817F019FF002173
:106B500006461F4817F014FF1E4904461A4822F043
:106B60004FF810222946184822F02EFA04EB06248A
:106B70001949154822F044F8214613481022A4B2BE
:106B800022F0C4F9A542CCD1FFF756FF104817F008
:106B90007BFE00211A2026F09FF81A20002126F003
:106BA00017F80120BEE722F0C9FA0C4B0C4A20600E
:106BB0000C49C3F80026044822F022F86CE700BF15
:106BC00048560500946A0020A49A002040420F0015
:106BD00000AF002064560500785605000000014013
:106BE0003546526E58560500014608B5044822F055
:106BF000D7F840F2FF31012025F004FEFEE700BF88
:106C0000A49A0020014608B5044822F059F840F241
:106C1000FF31012025F0F6FDFEE700BFA49A002019
:106C200010B542F2107082B0FFF706FDAC211D488E
:106C300017F0A6FE80211B4817F0A2FE002119487C
:106C400017F09EFE00210446164817F099FE00EB4F
:106C50000420B0F5004F22D1124CF021204617F04D
:106C60008FFE0021204617F08BFE0021204617F0F2
:106C700087FE0021204617F083FE10F00101ECD1C1
:106C80000848019117F000FE01991A2026F024F817
:106C900001991A2025F09CFF012002B010BD024886
:106CA000FFF7B0FF00AF002080560500084C0949EF
:106CB00008B50546204621F0D1FF2946102220467E
:106CC00022F04AF9204622F04BF80348FFF79AFFDA
:106CD000A49A00209C560500B05605002DE9F04707
:106CE00080460C4617463AB1013A92B21846013234
:106CF000FF212BF0EFFC034604EB070C0022444677
:106D0000204610F8011B0A2900F053810D2900F0DC
:106D100050813A2940F0A4816578A5F13001C9B2CB
:106D200009290CD9A5F14101052940F25781A5F1A6
:106D30006101052900F28881A5F15701C9B2A57842
:106D4000A5F13000C6B2092E4FEA01100CD9A5F109
:106D50004101052940F23A81A5F16101052900F2BE
:106D60007381A5F15706F6B2E578A5F13001C9B2F5
:106D700030440929C6B20CD9A5F14101052940F2D8
:106D80002981A5F16101052900F25E81A5F1570174
:106D9000C9B22579A5F1300E5FFA8EFE0901BEF168
:106DA000090FC9B20ED9A5F1410EBEF1050F40F28F
:106DB0001981A5F1610EBEF1050F00F24581573D25
:106DC0005FFA85FE94F8059001EB0E05A9F13001FC
:106DD000EDB2C9B22E440929F6B2ADB20CD9A9F16F
:106DE0004101052940F20281A9F16101052900F262
:106DF0001981A9F15701C9B294F80690A9F1300E92
:106E00005FFA8EFE0901BEF1090FC9B20FD9A9F1CF
:106E1000410EBEF1050F40F2ED80A9F1610EBEF109
:106E2000050F00F2FF80A9F157095FFA89FE71444E
:106E3000C9B201EB0525ADB20E446545F6B280F24C
:106E4000ED80E579A5F13001C9B209290CD9A5F188
:106E50004101052940F2D680A5F16101052900F222
:106E6000F380A5F15701C9B2257AA5F130095FFA7F
:106E700089F90901B9F1090FC9B204F1090E40F20B
:106E80009A80A5F14109B9F1050F40F2B880A5F14A
:106E90006109B9F1050F00F2D780573DEDB20E44FC
:106EA00055FA86F6F6B200284CD00B34002534E0B3
:106EB000A9F16101052900F2B580A9F15701C9B214
:106EC00014F8019CA9F1300A5FFA8AFA0901BAF1B3
:106ED000090FC9B20ED9A9F1410ABAF1050F2CD98F
:106EE000A9F1610ABAF1050F00F29C80A9F15709D6
:106EF0005FFA89FA5144C9B202F1010999541FFAA3
:106F000089F20E449742F6B2C0F09B800135E9B297
:106F1000884204F102040D4614D914F8029CA9F128
:106F20003001C9B20929A646CAD9A9F141010529EA
:106F3000BED8A9F13701C9B2C2E7A9F137095FFA92
:106F400089FAD7E79EF80040A4F13001C9B20929B7
:106F50000AD9A4F14101052958D9A4F161010529F3
:106F600078D8A4F15701C9B29EF80140A4F13000CD
:106F7000C0B209010928C9B209D9A4F14100052804
:106F800048D9A4F16100052864D8573CE0B20E440A
:106F900050FA86F616F0FF0F68D19EF802100A2903
:106FA0000EF103045FD1BA427FF4AAAE2046BDE8D9
:106FB000F0870446A4E64944C9B20E440129F6B25A
:106FC0007FF471AF00242046BDE8F087A5F13706B5
:106FD000F6B2C9E6A5F13701C9B2DAE6A5F1370183
:106FE000C9B2ACE6373D5FFA85FEEBE6A9F13701A1
:106FF000C9B201E7A9F1370E5FFA8EFE17E7373DF8
:10700000EDB24CE7A5F13701C9B22DE7A4F1370184
:10701000C9B2A9E7A4F13700C0B2B8E74446204698
:10702000BDE8F0871349144821F018FE49461022A4
:10703000114821F091FF104821F092FE0F48FFF710
:10704000E1FD0F48FFF7D0FD0A490B4821F006FE8D
:107050002946ECE70749084821F000FE2146E6E70B
:107060000848FFF7CFFD0848FFF7CCFD0748FFF7BA
:10707000C9FD00BF9C560500A49A0020B05605002B
:10708000CC560500C0560500EC560500DC56050040
:107090002DE9F04F824683B0CD48CE4EFFF7CCFAB3
:1070A000D14619F8011B0A2900F090810D2900F042
:1070B0008D813A2940F0ED819AF80100A0F130036A
:1070C000DBB2092B0CD9A0F14103052B40F2C4819E
:1070D000A0F16103052B00F2D281A0F15703DBB2CE
:1070E0009AF80200A0F130085FFA88F2092A4FEA04
:1070F00003180CD9A0F14103052B40F2A981A0F19E
:107100006103052B00F2BB81A0F15702D2B29AF8BD
:107110000300A0F13003DBB29044092B5FFA88FB37
:107120000CD9A0F14103052B40F28E81A0F161033F
:10713000052B00F2A481A0F15703DBB29AF80400FA
:10714000A0F13007FAB21B01092ADFB20CD9A0F175
:107150004103052B40F27481A0F16103052B00F27D
:107160008E81A0F15702D2B29AF805001744A0F11F
:107170003003FFB2DBB2BB44092B5FFA8BFBBAB220
:107180000CD9A0F14103052B40F25681A0F1610317
:10719000052B00F27481A0F15703DBB29AF80600C8
:1071A000A0F13007FFB21B01092FDBB20CD9A0F10F
:1071B0004101052940F23C81A0F16101052900F25D
:1071C0005E81A0F15707FFB29AF807003B44DFB297
:1071D000A0F13003DBB2BB44092B07EB02275FFAB7
:1071E0008BFBBFB20CD9A0F14103052B40F21C81EF
:1071F000A0F16103052B00F24281A0F15703DBB23D
:107200009AF80800A0F13004E4B21B01092CDBB2AB
:107210000AF1090940F2E880A0F14102052A40F292
:107220000081A0F16102052A00F229815738C0B21D
:107230009B4450FA8BFB5FFA8BFBB8F1000F00F018
:1072400093800AF10B0A3D461DE02821304617F0D5
:1072500097FB690A304617F093FBC5F347013046A8
:1072600017F08EFB0021304617F08AFBC3B2A34211
:107270004FD1C7F101032B44DBB2013543450AF17D
:10728000020AADB270DA1AF8024CA4F13003DBB294
:10729000092BD1460BD9A4F14103052B5DD9A4F1EB
:1072A0006103052B00F2DC80A4F15703DBB21AF86E
:1072B000012CA2F130011C01CBB2092BE4B20AD996
:1072C000A2F14103052B4CD9A2F16103052B00F279
:1072D000D880573AD3B21C44E4B2A34415F001035A
:1072E0005FFA8BFBB1D120213046019317F048FBA8
:1072F000690A304617F044FBC5F34701304617F0E2
:107300003FFB019B3046194617F03AFBC3B2A3423C
:10731000AFD03148019321F023FD30492E4821F0B0
:107320006FFC102229462C4821F04EFE2C492A4899
:1073300021F066FC10222146274821F00DFE294944
:10734000254821F05DFC019B23481946102221F0BD
:107350000BFE002003B0BDE8F08FA4F13703DBB2D1
:10736000A5E7373AD3B2B6E799F80000A0F13003A9
:10737000DBB2092B0AD9A0F14103052B4DD9A0F1AD
:107380006103052B7BD8A0F15703DBB299F801000C
:10739000A0F13001C9B21B010929DBB20AD9A0F161
:1073A0004102052A35D9A0F16102052A67D8A0F16A
:1073B0005701C9B29B4451FA8BF111F0FF0171D111
:1073C00099F802300A2B09F1030968D1CA4667E629
:1073D00040420F0000AF0020A49A0020FC56050098
:1073E00020570500305705001C44E4B2A344012C8B
:1073F0005FFA8BFB7FF421AF2E4817F045FA00218E
:107400001A2025F069FC1A20002125F0E1FB204616
:10741000A0E7A0F13701C9B2CCE7A0F13703DBB296
:10742000B4E73738C0B203E7A0F13703DBB2E7E6D1
:10743000A0F13707FFB2C7E6A0F13703DBB2ADE634
:10744000A0F13702D2B28FE6A0F13703DBB275E6C6
:10745000A0F13702D2B25AE6A0F13703DBB23FE621
:107460001549164821F0FAFB21461022134821F055
:1074700073FD124821F074FC1148FFF7C3FBFFF7BE
:1074800015FC0D490D48019221F0E8FB019A1146C7
:10749000EBE70A4821F010FC0A48FFF7B3FB0A4863
:1074A000FFF7B0FB0548102221F056FD0748FFF713
:1074B000A9FB00BF00AF00209C560500A49A002045
:1074C000B0560500C0560500EC56050038570500BB
:1074D0002DE9F04F40F2FF3185B0012025F092F9FF
:1074E0007249734821F08CFB7248FFF7A5F8002819
:1074F00072D071496E4821F0E3FB42F21070FFF741
:107500009BF830216D4817F03BFA00216B4817F0CB
:1075100037FA0121694817F033FA0021674817F05C
:107520002FFA30210502654817F02AFA0021634836
:1075300017F026FA0221614817F022FA00210446CA
:107540005E4817F01DFA05F47F4500EB04245B4804
:1075500017F09AF92C4300211A2025F0BDFBA4B2A4
:1075600000211A2025F034FB631E9BB24FF6FD72FA
:10757000934204D8524B1F683B88A34204D0002496
:10758000204605B0BDE8F08FFFF74AFB0521B81C87
:10759000FFF794F80028F2D0484817F075F9002159
:1075A0001A2025F099FB00211A2025F011FB00215B
:1075B000012025F027F9642021F0CCFD40F2FF31B5
:1075C000012025F01FF93949394821F019FB3948C4
:1075D000FFF732F8814620B93A49354821F070FB6F
:1075E000CDE73549324821F06BFBB7F820A097F87A
:1075F000228007F123030293BAF1000F24D0DFF8B1
:10760000C8B003971FFA88F20BEB080647461C46E2
:1076100000259046A9B220465B4642460191FFF7FD
:107620005DFB019904464FB1274B4A4613F8010B05
:10763000FF2818BF00229E42F8D17AB33D44AA45E4
:1076400001D9002CE6D1039F0298FFF721FD002805
:1076500095D007F10C0420460521FFF72FF80028EC
:107660008DD0204607F11601FFF732F904460028B5
:1076700085D0042540F2FF31012025F0C3F8C82051
:1076800021F068FD0021012025F0BCF8C82021F080
:1076900061FD6B1E13F0FF05ECD171E742465846C1
:1076A000FFF7E2F90028C9D169E700BF6855050076
:1076B000A49A0020A08601008455050000AF002098
:1076C000746200208C550500A46A00202DE9F04367
:1076D000544C554F554E87B0204618F0B5FF544ACC
:1076E000A36A54493B600191534FE56A534C07CA62
:1076F0009B103B604FF48073ADF80830256003ADFC
:1077000085E80700029A4B49304617F05BF80021E4
:10771000022025F0E1FA4A4B4FF4207043F00103B8
:1077200098470021304617F02BF900240134E4B2C9
:107730002146304617F024F90C2C05F8010BF5D141
:107740000121022025F0C8FA38483E4D3E4EDFF8B0
:10775000008117F099F89DF815109DF80DC09DF85F
:1077600016208B009F0007F4407747EA0C0703F4CC
:1077700040749DF80CC0354B44EA0C045F609DF8E2
:107780000EC01C608F019DF80F40090207F440777E
:1077900047EA0C0701F44071900021439F609DF877
:1077A0001070D96084009DF8111000F440703843C7
:1077B00004F440749DF81270186144EA01009101CC
:1077C00001F440719DF81440586139439DF8170049
:1077D0009DF813709961120202F440723A4344EA30
:1077E0000020C3E907201C1F03F120074FF0000908
:1077F00054F8041F284619F033F898F80020EB6A73
:107800002360383512B932689B1A2360002BB8BF49
:10781000C4F80090BC4206F10406E9D107B0BDE807
:10782000F08300BFD48B00209091002000AF002097
:107830008C57050080841E0034900020AC900020FE
:10784000F0C00500288D00201C91002040910020F0
:10785000FF8C00202DE9F043C04DC14C297801EB8D
:10786000C1032DED028B04EBC30014F8333083B059
:10787000CA007BB3BB4FDFEDBC8AD7ED007A9FED2A
:10788000BB8AC379007A009077EEA87A0A4404EBA9
:10789000C20167EE887A8A794979FDEEE77A8342F8
:1078A00041F2883994BF8046064609FB02F217EE82
:1078B000900A09FB01F194BF1E46984621F02CFC6A
:1078C000B04280F2E280AA4F3B78B34240F08E8013
:1078D0002978CA00501804EBC000437873B3A54F51
:1078E000DFEDA18AD7ED007A9FEDA08AC37A007BF5
:1078F000009077EEA87A0A4404EBC20167EE887A1A
:107900008A7A497AFDEEE77A834241F2883994BF58
:107910008046064609FB02F217EE900A09FB01F1C8
:1079200094BF1E46984621F0F7FBB04280F28A8051
:10793000914F3B78B3424BD12978CA00531804EBDE
:10794000C303987818B993F82030002B3BD08B4FA5
:10795000DFED8B8AD7ED007A9FED848A501804EB17
:10796000C00077EEA87A0A44C37B007C009004EB49
:10797000C20167EE887A8A7B497BFDEEE77A834213
:1079800042F2107994BF8046064609FB02F217EED8
:10799000900A09FB01F194BF1E46984621F0BCFBFA
:1079A000B04231DA774FDFF8E0813B7888F8006049
:1079B000B34208D02B7803EBC30304EBC3039A78DC
:1079C000002A40F0858003B0BDEC028BBDE8F08357
:1079D0002B7803EBC30304EBC3033246597D987C39
:1079E000FEF7D8FC29783E70CA00A7E72B7803EB96
:1079F000C30304EBC3033246197D587CFEF7CAFC6F
:107A000029783E70CA0065E7D7ED007A2B7877EECB
:107A1000A87A03EBC30304EBC30367EE887A9A7B6F
:107A2000597B187C0090FDEEE77ADB7B17EE900A1D
:107A300009FB02F209FB01F121F06EFB404554DD28
:107A40004646AFE7D7ED007A2B7877EEA87A03EBBE
:107A5000C30304EBC30367EE887A9A7A597A187BDA
:107A60000090FDEEE77ADB7A17EE900A09FB02F24E
:107A700009FB01F121F050FB404552DD3E4F3B78C0
:107A80004646B3423FF458AFA2E7D7ED007A2B78D1
:107A900077EEA87A03EBC30304EBC30367EE887A9F
:107AA0009A795979187A0090FDEEE77ADB7917EE2A
:107AB000900A09FB02F209FB01F121F02DFB404580
:107AC00064DD2B4F3B784646B3423FF401AF8DE770
:107AD000997DD87C3246FEF75DFC98F800303B700B
:107AE00003B0BDEC028BBDE8F083D7ED007A2B78B4
:107AF00077EEA88A03EBC30304EBC30328EE888A5E
:107B00009A7B597B187C0090FDEEC87ADB7B17EEE0
:107B1000900A09FB02F209FB01F121F0FDFAC6B25D
:107B200040E7D7ED007A2B7877EEA88A03EBC30302
:107B300004EBC30328EE888A9A7A597A187B00905E
:107B4000FDEEC87ADB7A17EE900A09FB02F209FB18
:107B500001F121F0E1FAC6B2EAE600BF848F00200D
:107B6000B8600020289000200000B44200007A4451
:107B7000B88B0020AC8F0020B98B0020FC91002036
:107B800000003443BA8B002004920020D7ED007A25
:107B90002B7877EEA88A03EBC30304EBC30328EE2C
:107BA000888A9A795979187A0090FDEEC87ADB793B
:107BB00017EE900A09FB02F209FB01F121F0ACFA81
:107BC000C6B280E6BC499FEDBD6AD1ED007ABC4BE0
:107BD000BC4A93ED007ADFEDBC6A2DE9F04F67EE09
:107BE000867A2DED028BE7EE267AB84DB84C92EDF1
:107BF000008A2B78C1ED007A37EE088A03EBC303C5
:107C000038EE678AF6EE008A04EBC30368EE288A32
:107C100085B0C2ED008A93F8242093F81BB001923E
:107C200093F8252093F826300292039321F086FAE8
:107C30002B78A84A03EBC301F0EEE87AB3EE047A9E
:107C400004EBC101F4EEC77AF1EE10FA0D7ECCBF61
:107C5000012600261670DA001DB991F82160002E69
:107C60007AD09D49DFF898C2DFF89882DFF898E271
:107C70009A4F0E784FF000094FF0000AC7F80090B5
:107C8000CCF80090C8F80090CEF800A07EB9B6EE0F
:107C9000007AF4EEC77AF1EE10FA08DD904A01237B
:107CA00010600B7005B0BDEC028BBDE8F08FDFF803
:107CB0003092D9F80090A0EB0909B9F10B0FF1D976
:107CC000DFF848A29AF80090B9F1000F1ED0DFF853
:107CD000409299F80060002E47D09FED827A824E44
:107CE000F4EEC77AF1EE10FAC8BF30603668801B38
:107CF000B0F5C87F3ED9002389F800300B708AF8B0
:107D0000003005B0BDEC028BBDE8F08FB6EE007A16
:107D1000F4EEC77AF1EE10FA00F39A80DFF8F091F2
:107D200099F80070002FD8D19FED6E7AF4EEC77AE3
:107D3000F1EE10FA01DD6C4B1860002EB2D06A4BE8
:107D40001B68C01AB0F5C87FACD9002389F8003091
:107D50000B708AF80030D4E791F82260002E80D1B1
:107D600091F8231000299DD07BE75F4E0121306000
:107D700089F80010DFED5D7AB4EEE78AF1EE10FAD3
:107D80004FDAD11804EBC101FFEE008AC97F002948
:107D90005BD0032900F0FC80022900F03281052924
:107DA00000F00B81042900F07B81B0EE687A9DB170
:107DB0004F499FED506AD1ED007A484906EE90BADE
:107DC00067EE867AF8EEE66A67EEA67A67EE877A5D
:107DD000FDEEE77AC1ED007AD11804EBC10191F80C
:107DE0002100002846D0DDED017A9FED4A7A91F816
:107DF0002710F8EEE77A67EE877A99B3032900F047
:107E00003681022900F0F580052900F069810429F6
:107E100000F09A8168EEA77AFDEEE77A17EE901AE5
:107E200026E0DFED357AD118B4EEE78A04EBC10124
:107E3000F1EE10FA98BFDFED317AC97F94BF68EE9A
:107E4000A78AF7EE008A0029A3D1B1EE687AAEE7DF
:107E500001268AF800603AE7F5EEC08AF1EE10FAE2
:107E6000C0F2CD8067EEE87AFDEEE77A17EE901A61
:107E7000CCF80010D11804EBC10191F822000028C1
:107E800055D0DDED027A9FED237A91F82810F8EEB7
:107E9000E77A67EE877A002945D0032900F0B98098
:107EA000022900F09580052900F03C81042900F0AA
:107EB000598167EEA87A38E0488B00206666663FF5
:107EC000C88B00204C8B0020CDCCCC3D848F002073
:107ED000B860002094900020468B0020A4900020E1
:107EE000508B00203333B33E548B00202506F0C165
:107EF000EC6200200AD7233D2506F0410A85883D23
:107F000098900020A09000209C900020448B00209E
:107F1000458B00200AD7233F00000000F5EEC08A01
:107F2000F1EE10FA5ADB67EEE87ACEED007A1344F0
:107F300004EBC30494F82330002B3FF4B3AEDDED23
:107F4000037A1FED0C7A94F82930F8EEE77A67EEA1
:107F5000877A63B967EEE88AFDEEE87A17EE903A21
:107F6000C8F8003005B0BDEC028BBDE8F08F032BE4
:107F700064D0022B35D0052B00F0C180042B00F01B
:107F8000068168EEA77AFDEEE77A17EE903AE7E70A
:107F90005FED1F7AF5EEC08AF1EE10FA8CBFB0EEFD
:107FA000677AB0EE687AFFEE007AB4EEE77AF1EE27
:107FB00010FAB8BFB0EE677AF9E6F7EE007AF4EEA1
:107FC000E78AF1EE10FA40F2B880BFEE007AEEE6F2
:107FD000F5EEC08AF1EE10FA40F2E7805FED327AFA
:107FE000A3E7F5EEC08AF1EE10FA40F2E780002335
:107FF000B6E7F5EEC08AF1EE10FA40F2EE8000210D
:1080000036E7F5EEC08AF1EE10FA5ED91FED3E7A42
:10801000CDE6F5EEC08A1FED407AF1EE10FA98BF7A
:10802000B0EE687AFFEE006AB4EEE67AF1EE10FA8E
:10803000B8BFB0EE667A67EE877A76E7F5EEC08A6B
:108040001FED4B7AF1EE10FA88BFF0EE478ABFEED3
:10805000007AF4EEC78AF1EE10FAB8BFF0EE478A64
:1080600068EEA78AFDEEE87A17EE903A78E7F5EE2B
:10807000C08A1FED577AF1EE10FA98BFB0EE687A19
:10808000FFEE006AB4EEE67AF1EE10FAB8BFB0EE99
:10809000667A67EE277AFDEEE77A17EE901AE7E642
:1080A000F7EE007AF4EEE78AF1EE10FA8CBFB0EE4C
:1080B000677AB0EE687AB5EEC07A5FED697AF1EE74
:1080C00010FAB8BFB0EE677A71E6FFEE007AF4EE10
:1080D000E78AF1EE10FABFF6B8AEB7EE007A66E6C0
:1080E000B7EE007AF4EEC78AF1EE10FA7FF6B4AE7E
:1080F000F1EE677AFDEEE77A17EE901AB8E6F5EE44
:10810000C08A1FED7B7AF1EE10FA88BFF0EE478A45
:10811000BFEE007AF4EEC78AF1EE10FAB8BFF0EEC7
:10812000478A2EE7B7EE007AF4EEC78AF1EE10FA2E
:108130007FF6F4AEF1EE677AF7E6F5EEC08AF1EE7F
:1081400010FABFF682AE61E7B7EE007AF4EEC78AA6
:10815000F1EE10FA98BFB0EE687A5FED916AB5EE75
:10816000C07A91E7B7EE007AF4EEC78AF1EE10FA22
:1081700098BFB0EE687AB5EEC07A5FED996AF1EE1D
:1081800010FAB8BFB0EE667A67EE877ACDE6B7EE42
:10819000007AF4EEC78AF1EE10FA88BFF0EE478A53
:1081A000F5EEC08A1FEDA47AB6E7BFEE007AF4EED2
:1081B000C78AF1EE10FABFF6B6AEB6E6BFEE007AA9
:1081C000F4EEC78AF1EE10FAFFF6DDAE67EEE87A5C
:1081D000FDEEE77A17EE903AC2E6BFEE007AF4EED3
:1081E000C78AF1EE10FABFF63DAE54E7F0B4CB4BC0
:1081F000CB4D1A78CB482B68CB49002A62D1CB4AA9
:1082000004680F681668E41BA64240F22B8143F015
:10821000010344684F685668E41BB442C0F03881DB
:10822000043CB44280F0768184688F689668E41BD1
:10823000B442C0F02A81043CA64240F26881C4687E
:10824000CF68D668E41BB442C0F01C81043CA6424F
:1082500040F25A8104690F691669E41BB442C0F008
:108260000E81043CA64240F24C8144694F69566934
:10827000E41BB442C0F00081043CA64240F23E81BF
:1082800084698F699669E41BB442C0F0F280043CB3
:10829000A64240F23081C469CF69D669E41BB4427A
:1082A000C0F0F980043CA64240F222810C6A006AC8
:1082B000116A021B8A4280F0CA8043F480732B60EB
:1082C000F0BC70470E6804689FED997A974AA41B2A
:1082D00007EE904AF8EE677A166867EE877AFDEE49
:1082E000E77A17EE907AE41BB442C0F0B880043C01
:1082F000A64298BF23F001034F6844689FED8C7A33
:108300005668E41B07EE904AF8EE677A67EE877AC4
:10831000FDEEE77A17EE907AE41BB44280F0BE805F
:1083200043F002038F6884689FED817A9668E41BAE
:1083300007EE904AF8EE677A67EE877AFDEEE77A05
:1083400017EE907AE41BB44280F0CC8043F0040333
:10835000CF68C4689FED767AD668E41B07EE904A32
:10836000F8EE677A67EE877AFDEEE77A17EE907A95
:10837000E41BB44280F0B08043F008030F69046945
:108380009FED6B7A1669E41B07EE904AF8EE677A68
:1083900067EE877AFDEEE77A17EE907AE41BB44237
:1083A00080F0948043F010034F6944699FED607A38
:1083B0005669E41B07EE904AF8EE677A67EE877A13
:1083C000FDEEE77A17EE907AE41BB44278D243F0E0
:1083D00020038F6984699FED567A9669E41B07EE46
:1083E000904AF8EE677A67EE877AFDEEE77A17EE45
:1083F000907AE41BB4425DD243F04003CF69C46974
:108400009FED4B7AD669E41B07EE904AF8EE677A47
:1084100067EE877AFDEEE77A17EE907AE41BB442B6
:1084200042D243F08003006A0C6A116A9FED407AE1
:10843000021B07EE902AF8EE677A67EE877AFDEE68
:10844000E77A17EE900A121A8A42FFF436AF043A1E
:10845000914201D823F480732B60F0BC704743F045
:10846000010349E7043CB442FFF4D3AE23F0010317
:10847000CFE643F040030EE743F0200300E743F06C
:108480001003F2E643F00803E4E643F00403D6E603
:1084900043F00203C8E643F0800307E7043CA6422A
:1084A00098BF23F002033DE7043CA64298BF23F0A7
:1084B0008003B8E7043CA64298BF23F040039DE741
:1084C000043CA64298BF23F0200382E7043CA64266
:1084D00098BF23F0100367E7043CA64298BF23F03F
:1084E00008034BE7043CA64298BF23F004032FE7A0
:1084F00023F08003DAE623F04003CCE623F02003E8
:10850000BEE623F01003B0E623F00803A2E623F052
:10851000040394E623F0020386E600BFFF8C0020EC
:10852000588F00206C6300201C9100204091002097
:10853000CDCC4C3E70B4254B254A1B78D25C422AE8
:10854000C0F3470027D8234B1978022904462BD0C3
:10855000214800EB02202346005D002A32D11F4E45
:108560001F4D345D2C70012A12D11E4D1C4CEB5C4A
:108570002370032A01D13F2821D0032906D01A4BAA
:108580001A6840F2FF139A4208BF002070BC70477F
:108590000A2AEAD0EDE70F4B1978144B022908BFDD
:1085A00000F07F00185CE8E7A2F11703012BCFD899
:1085B000094C00F07F0304EB0220C05CD3E70020ED
:1085C00070BC7047042ACAD0CDE700BF848F00205A
:1085D000D4620020A0610020E8A70500A457050090
:1085E000CC910020E8A60500588F00208C6900205F
:1085F00070B4204B204A1B78204C214D07CAC3EB96
:10860000C30604EB460485B02D78E47804AE06E991
:108610000700E5B91B4A11686FEA112101F0010159
:10862000194AC3EB031302EB830393F832201AB108
:1086300093F8372012070CD4124B1868C0F30020AF
:10864000001BB0FA80F0400905B070BC70470221F1
:10865000E6E793F8390040EA4400C0B204AB00EB0F
:1086600040001844014411F80C0C0138C0B205B0A8
:1086700070BC7047848F002098570500406300202D
:108680006B630020588F002004600020974A9848B0
:108690009178F8B556781378D47805781079002E4B
:1086A000C3F10003DBB218BFFF23002918BFFF236B
:1086B00056799049002C18BFFF23002818BFFF23CC
:1086C0009479D079127A002E05EBC50601EBC6012C
:1086D00018BFFF23002C18BFFF238C7E002818BF73
:1086E000FF23002A18BFFF23012C4FEAC5004FF0DB
:1086F00000026ED08049814C09782478804E0A446B
:1087000080491C4402EB42020B7804EB8204E4B281
:10871000032B34703FD07C4B1B78032B1CD0022BD7
:1087200000D0F8BD794B5B5DA3F14302032A06D963
:10873000182BF6D8764A22FA03F3DB07F1D5FFF7B8
:1087400057FF744AC5EB051502EB850595F83130E6
:1087500000FB03403070F8BD6C4B5A5D012AE0D03D
:108760000A2ADED06C496D4B401B01EB40011B68AF
:10877000C97803F001038B42D3D1664BC5EB0515D5
:1087800003EB8503072A93F831301C44E4B208BF99
:10879000053C3470F8BD5D4B5A5D0F2A71D00C2A30
:1087A0005BD00E2A76D0082A40F083805C4B1B7881
:1087B000492B66D95749544BC5EB051701EB870187
:1087C0001B7891F831100C44E4B2032B3470A6D11D
:1087D000C8E78A7F002A8DD05249534E91ED017A25
:1087E000D6ED007AB8EEC77AF4EEC77AF1EE10FA59
:1087F00073D4012A2ED091ED027AB8EEC77AF4EE46
:10880000C77AF1EE10FA6AD4022A23D091ED037AE6
:10881000B8EEC77AF4EEC77AF1EE10FA61D4032A03
:1088200018D091ED047AB8EEC77AF4EEC77AF1EE7B
:1088300010FA50D4042A4ED091ED057AB8EEC77ADA
:10884000B4EEE77AF1EE10FA4DDC052A18BF0022EB
:108850007FF450AF013AD2B24CE7314B1B78392B41
:108860000FD93E2B1AD12B4BC5EB051103EB81031E
:10887000072A93F831301C44E4B218D1053CE4B225
:108880003470214B1B78032B3FF46CAF022B7FF429
:1088900048AF47E7224B1B78452BF2D91D4BC5EB60
:1088A000051203EB820393F831301C44E4B23470B8
:1088B00031E71B4909783E29D5D1012A01D00A2A7E
:1088C000D1D1114A1278032A3FF42BAF022A7FF448
:1088D00028AF5B5D2EE70422BCE72246BAE70222FE
:1088E000B8E70322B6E70522B4E700BF408F0020B7
:1088F000848F0020B8600020A48F00209D8F00206E
:10890000A8900020918F0020A0610020D462002058
:10891000510080010460002040630020588F002037
:10892000D8620020C48F0020AC8F0020284B294A39
:108930001B78C3EB031302EB830393F83B30C3B103
:10894000254B9FED267AD3ED007AF4EEC77AF1EE4F
:1089500010FA0FD5224A1378022B2BD0BBEE047AE3
:10896000F4EEC77AF1EE10FA0CDC1E4B1B78032BE9
:108970001CD07047FBEE046AF4EEE67AF1EE10FAD2
:108980000BDD174A1378032B14D09FED147AF4EE05
:10899000C77AF1EE10FA16DA7047F4EEC77AF1EE04
:1089A00010FAE2DB0F4B1B78022BE0D10E4B0022BA
:1089B0001A7070470C4A11780029DAD10948012150
:1089C000037011707047074B1B78022BD1D1EDE774
:1089D000848F002004600020AC8F0020000096C22D
:1089E000918F0020558F00202090002070B5054603
:1089F0000C4620F0A3FB1A4A13783BB9194E1A49CA
:108A000030601A4E0B60012133601170CDB9154BE7
:108A100017491B680968C31A8B420ED2124B19689A
:108A2000A1B1124B19681C60611AB1F5FA6F11D02F
:108A30009DB1012D0ED100290CDB00231370022003
:108A400070BD012DF9D1074B0A49E2E70749012220
:108A50000C601A60084B187870BD0029FADCECE74E
:108A6000568F0020588B002010900020049000208A
:108A7000B862002040620020108D00202DE9F843EC
:108A8000AA4BAB4E1B78C3EB031206EB8202180114
:108A900092F82D20403A07EE902AF8EEE77A00F19E
:108AA000E7809FEDA47AF7EE000AE7EE870AC21A84
:108AB00006EB820292F82E20403A07EE902AF8EE5A
:108AC000E77A00F1E080DFED9B6AB7EE007AA7EE6F
:108AD000A67A994AC3EBC30102EB4102927A002ABB
:108AE00000F09D80954AC51A127806EB8505012A8B
:108AF00095F8241095F8277095F828E095F825C08A
:108B000095F8294095F82A8095F82C9000F0C980B6
:108B100009236422403CA8F14008B9F1000913FB85
:108B2000012113FB072713FB0E254FEA44044FEAEC
:108B3000480818BF4FF0010913FB0C22804E336820
:108B4000BB4234DC791A0129B8BF012107EE901A23
:108B5000FB1AB8EEE77A07EE903AF8EEE77AF7EE0E
:108B6000006A87EE870AB4EEE60AF1EE10FAF4EE38
:108B7000660A88BFB0EE660AF1EE10FA01D01EF068
:108B80006DF807EE904AF8EEE77A27EE800A6D4B13
:108B90009FED6D7AD3ED007A6C4B67EE877A27EE06
:108BA000800ABDEEC00A83ED000ABDE8F883AB423F
:108BB00074DB521B012AB8BF012207EE902A5B1B0F
:108BC000F8EEE76A07EE903AF8EEE77A9FED606A12
:108BD00087EEA60AF7EE007AB4EEC60AF1EE10FAB6
:108BE000B4EE677AB8BFB0EE460AF1EE10FA03D0E1
:108BF000F0EE470A1EF032F8B9F1000F08D0F7EE98
:108C0000007AB4EEE70AF1EE10FA88BFB0EE670A18
:108C100007EE908AF8EEE77A27EE800AB7E74D4A2A
:108C20001278032A52D0454A4B4912780968012A22
:108C30003DD0C31A06EB8306092296F82B0096F85E
:108C40000180642312FB0032521A01EB42028B189E
:108C50006FF013045F1004FB08F41420B7EE007AE1
:108C6000F0EE470A08FB00F83D464FF0010965E7C2
:108C7000DFED3A6A9FED3A7A77EEA67AF5EE000AD2
:108C8000E7EE870A13E79FED357ADFED356A77EE79
:108C9000877AB5EE007AA7EEA67A1AE79FED2C0A3E
:108CA00075E72C4A1278032A2DD02B4A11682D4AD9
:108CB000C31A06EB8306126896F801806FF013045E
:108CC000531804FB08F45F100A20C7E7254A224C1A
:108CD000254924681268194D09682D78C31A06EBD6
:108CE0008306121B96F8018001EB6202012D01EB55
:108CF00002036FF013044FEA630704FB08F40CBF90
:108D00000A201420AAE7174A134B17491B68126858
:108D1000096895F80180D21A01EB620253186FF0CE
:108D200013045F1004FB08F40A2097E7848F0020E7
:108D300004600020320C433D40630020A06100200D
:108D400034900020EC6200200AD7233C248D0020C0
:108D500000000000918F002030630020000080425E
:108D60000000403C94910020989100202DE9F84F9C
:108D7000B74BB84ADFEDB87AD2ED004A9FEDB75A4B
:108D80009FEDB77ADFF8F4829FEDB64A2DED048BA4
:108D9000D3ED009AB44BF4EEE79A93ED009AB34BFF
:108DA000F1EE10FAF4EEE74A8CBFF0EE675AF0EEFF
:108DB000695AF1EE10FA75EEA75A8CBFB0EE676AE9
:108DC000B0EE646AB4EEC59A76EE277AB0EE478AC2
:108DD000B1EE046AF1EE10FAA5EE868A1D78A44B76
:108DE0008CBFF0EE456AF0EE496AF0EE475A76EE37
:108DF000856AE7EE865A05EBC50708EBC707B0EEB4
:108E0000045AA6EE857A97F84560FDEEE57AD3ED33
:108E1000008A17EE902AFDEEC77ABDEEC88A17EEDB
:108E2000904A68EE848A4FEAC509002E76D0DFEDBD
:108E3000917A97F8313097F82CE097F82A1097F844
:108E40002D0097F82BB097F82E6097F82F70F4EE5E
:108E5000E74AF1EE10FA4FF0640CB8BF62464FF0EB
:108E6000190A403B07EE903A1AFB0ECC00F1D08174
:108E700009EB050308EBC303F8EEE77A93F8323009
:108E80009FED807AF7EE000A403BE7EE870A00F19B
:108E9000D48107EE903ADFED7B6AF8EEE77AB7EE21
:108EA000007AA7EEA67A09EB050308EBC303944505
:108EB00093F830A0F0EE477AC0F2D881AEEB010112
:108EC00001EB810101EB81010129B8BF0121ACEB6C
:108ED000020207EE901A07EE102AF7EE006AF8EE8B
:108EE000E77AB8EEC77AF4EE660AF1EE10FA87EE8A
:108EF000270A01D01DF0B2FEBAF1000F40F06982DE
:108F0000403E760007EE906AF8EEE77A67EEA87AC0
:108F100067EE807AFDEEE77A17EE906A09EB0500BE
:108F200008EBC00090F84630002B00F0E580DFED44
:108F3000517A90F835C090F83A3090F8332090F894
:108F4000361090F834E090F8377090F838A0F4EECE
:108F5000E79A18EE100AF1EE10FA4FF0640BB8BF62
:108F6000584608EE100A403B4FF0190007EE903AC1
:108F700010FB0CB000F1BA8109EB050308EBC30349
:108F8000F8EEE77A93F83B309FED3E7AF7EE000A71
:108F9000403BE7EE870A00F1BE8107EE903ADFED35
:108FA000396AF8EEE77AB7EE007AA7EEA67AF0EE25
:108FB000477A09EB050308EBC30393F839B018EEC1
:108FC000103A984260DA1922642312FB013318EE3A
:108FD000102A934200F39080AEEB010101EB810176
:108FE00001EB81010129B8BF0121D31A08EE103A23
:108FF00007EE101AB8EEC88AB8EEC77ADFED1E6A1F
:1090000088EE070AB7EE007AB4EEE60AF1EE10FA3F
:10901000F4EE477AB8BFB0EE660AF1EE10FA03D06C
:10902000F0EE670A1DF01AFEBBF1000F08D0F7EE54
:10903000007AB4EEE70AF1EE10FA88BFB0EE670AE4
:10904000AAF1400A4FEA4A0A07EE90AA49E000BF97
:10905000AC8F0020289000200000B4420000344370
:109060000000C8420AD7233CFC910020848F0020D6
:10907000EC6200200000B4C200000000B8600020D4
:10908000000034C3320C433DACEB020202EB82021F
:1090900002EB8202012AB8BF012207EE902AC31A0E
:1090A00008EE103AB8EEE77AF7EE007AB8EEC88A22
:1090B000F4EE670AF1EE10FA88EE070A01D01DF00F
:1090C000CDFDBBF1000F08D0F7EE007AB4EEE70A51
:1090D000F1EE10FA88BFB0EE670A403F7F0007EE5E
:1090E000907AF8EEE77A67EEA87A67EE807AFDEE7E
:1090F000E77A17EE903A1E4409EB050208EBC2022C
:1091000092F84730002B72D05FED237A92F843300B
:1091100092F83E1092F83CE092F83FC092F83D0081
:1091200092F8407092F841A0B4EEE79AF1EE10FA8E
:109130004FF06402B8BF1446403B07EE903A4FF040
:10914000190BF8EEE77A1BFB012256D41FED337A98
:10915000F7EE000AE7EE870A09EB050308EBC30305
:1091600093F84430403B07EE903AF8EEE77A00F18E
:1091700023811FED3C7AF7EE006AE7EE876A09EB80
:10918000050308EBC303944293F8425000F3D480E4
:10919000A1EB0E0101EB810101EB81010129B8BFB7
:1091A0000121131B07EE103A07EE901AF7EE006A42
:1091B000F8EEE77AB8EEC77AF4EE660AF1EE10FA46
:1091C00087EE270A01D01DF049FD002D40F00B81EC
:1091D000403F7F0007EE907AF8EEE77A67EEA88AC4
:1091E00068EE808AFDEEE88A18EE903A1E44BDECE7
:1091F000048B824B1E60BDE8F88FDFED816A9FED26
:10920000817A77EEA67AF5EE000AE7EE870AA3E701
:1092100009EB050308EBC303F8EEE77ADFED786AA4
:1092200093F832309FED777A77EEA67AF5EE000A62
:10923000403BE7EE870A7FF52CAE07EE903A9FEDB4
:10924000707ADFED706AF8EEE77A09EB050377EEE6
:10925000877AB5EE007AA7EEA67A08EBC3039445A9
:1092600093F830A0F0EE477ABFF628AE19216423B8
:1092700011FB0033934200F3AA80ABEB000000EB3C
:10928000800000EB80000128B8BF0120D21A07EE51
:10929000100A06EE902AB8EEC77AF8EEE66A9FED5D
:1092A0005A6A86EE870AB7EE007AB4EEC60AF1EE85
:1092B00010FAF4EE477AB8BFB0EE460AF1EE10FAB3
:1092C00003D0F0EE670A1DF0C9FCBAF1000F08D018
:1092D000F7EE007AB4EEE70AF1EE10FA88BFB0EECE
:1092E000670A403F7F0007EE907A0DE609EB050321
:1092F00008EBC303F8EEE77ADFED416A93F83B3001
:109300009FED407A77EEA67AF5EE000A403BE7EE55
:10931000870A7FF542AE07EE903A9FED397ADFED8E
:10932000396AF8EEE77A77EE877AB5EE007AA7EE3B
:10933000A67AF0EE477A3CE61923642213FB0C234D
:109340009C42FFF654AFA0EB0C0000EB800000EB5A
:1093500080000128B8BF012007EE900AE41AB8EE99
:10936000E77A07EE904AF8EEE77A9FED276A87EEF4
:10937000870AF7EE007AB4EEC60AF1EE10FAF4EEC0
:10938000676AB8BFB0EE460AF1EE10FA03D0F0EE0D
:10939000660A1DF063FC45B1F7EE007AB4EEE70A09
:1093A000F1EE10FA88BFB0EE670AAAF1400A4FEA60
:1093B0004A0A07EE90AA0FE7DFED116A9FED117AD6
:1093C00077EEA67AF5EE006AE7EE876AD7E6002622
:1093D000A4E5F7EE007AB4EEE70AF1EE10FA88BFE2
:1093E000B0EE670A8CE5F7EE007AB4EEE70AF1EE2C
:1093F00010FA88BFB0EE670AEAE600BF6C6800208A
:10940000000080420000403C000000002DE9F04FC9
:10941000D34BD44F1E78C6EB061307EB830385B0FE
:1094200093F8358093F8334093F8349005464046DE
:1094300028F046FBCC4B002228F0ACFB28F05AFE6B
:10944000CA4ACB4B52F825C053F82520DFF858E321
:1094500007EE102A07EE90CAF8EEC76AF8EEE77A30
:10946000B1EEE66A1EF8052002924FEA061BF1EE05
:10947000E75A07EE900A35EEC67AB5EEC07AF1EEFD
:1094800010FA40F31581F3EE0E6A27EE267AB94AF8
:10949000B949107851F825100391091AB74A43F8D1
:1094A00025C000EB5101323C01FB04F482FB043A7D
:1094B000E417C4EB2A1301EB030AB14C09FB0AF9C8
:1094C00082FB09A2A45D4FEAE979C9EB621201921D
:1094D000002C00F0A180032C00F09E80019AA1EBEB
:1094E0000309A9EB0209CC4568DD00F1030AD44564
:1094F00064DDF8EEE77A4FF0010AB4EEE77AF1EEB8
:1095000010FA0EF805A000F1FE80B8F17F0F68D0C8
:10951000CDF808A04FF0000A002C00F0BB80032C0F
:1095200000F0B880029A002A00F0C980DFF864E2F7
:109530001EF805E0BEF1000F56D1BAF1000F68D158
:10954000ABEB060E07EB8E0E9EF838E0BEF1000F77
:109550005FD10CB1032C5CD1082D00F0A081CB1A97
:109560009C4580F256818749019A51F825109FED5C
:10957000866A9B1A5B1A854A1B1A1278012BB8BFA0
:10958000012307EE902A07EE103AF8EEE77AB8EEDC
:10959000C77AACEB000C67EE277A07EE10CAF8EE3C
:1095A000C76A86EE277A7A4A67EE267AFDEEE77A70
:1095B00017EE903A5B0042F825302AE0A9F1030942
:1095C000CC454DDB4FF0000AF8EEE77AF4EEC77AAF
:1095D000F1EE10FA02DCB8F17F0F9DD1029A002A59
:1095E0006DD06C4B01225A55082D00F09280ABEBE8
:1095F000060607EB860797F83830002B74D1664AC9
:10960000634BD2ED007AFDEEE77A17EE902A43F82D
:10961000252005B0BDE8F08FABEB060907EB890903
:1096200099F838A0BAF1000F7FF458AF082D3FF435
:1096300055AFACEB01099944B9F1000F019AB8BFDD
:10964000C9F1000991456DDA00F10309CC453FF7F6
:1096500050AFCC45CCBF4FF0000A4FF0010AB3E742
:10966000F8EEE77A4FF0000AB4EEE77AF1EE10FA7E
:109670000EF805A03ED5DFF81CE1082D0EF805A078
:1096800000F09480DFF814E11EF80580B8F1000FB7
:1096900025D155E7082D00F09D80ABEB060E07EBBA
:1096A0008E0E9EF838E0BEF1000F7FF43BAF95E7D9
:1096B00036EE656AB3EE0E7A26EE077AE7E6DFF855
:1096C000D4E04FF00008082D0EF805806ED0DFF8CA
:1096D000CCE01EF80580B8F1000F3FF42EAF4FF03C
:1096E00000080EF8058028E72C4B01225A5505B0DA
:1096F000BDE8F08FB8F17F0F00F0C080CDF808A072
:10970000002CC7D00BE7234B082D03F805A07FF4EE
:109710006EAF234B1B78022B7FF469AF214B0122E4
:109720001A7076E70332914500F1030991DDCC45CB
:109730008FDDF8EEE77A0EF805A0B4EEE77AF1EEE9
:1097400010FA40F1BB80DFF854E0DFF848901EF8D3
:10975000058009F805A0B8F1000FC0D1F0E600BF00
:10976000848F0020046000200000F83F409100201A
:10977000648B00202A6300206C6300201F85EB515E
:10978000E86200201C91002000FC7F45C962002097
:1097900050620020B0900020EC620020408F00203A
:1097A000A06100206B6300204C8F0020DFF840E1B7
:1097B0009EF800E0BEF1020F1BD0DFF838E19EF802
:1097C0000880B8F1000F3FF4B8AE4FF000088EF8F3
:1097D0000880B2E6DFF818E19EF800E0BEF1020F63
:1097E0007FF45BAF029A002A71D1DFF80CE18EF8AA
:1097F0000820DFF800E1DFF804919EF808204FF020
:10980000000889F80080002A3FF497AE8EF808809F
:1098100093E633499FED336A0A7806EE902A019A5F
:109820001344039AD21A012A38BF012207EE902A64
:10983000F8EEE66AF8EE677AACEB030367EEA66A29
:1098400007EE903A86EE267A274A284BF8EEE77A1A
:10985000D2ED006A67EE277AFDEEE77A17EE902ADE
:10986000520007EE902AF8EEE77A77EEA67AFDEE40
:10987000E77A17EE902A43F82520CAE6DFF878E069
:10988000082D0EF805A091D0DFF868E01EF80580DD
:10989000B8F1000F3FF454AE4FF0000A1FE7144C2C
:1098A0002478022C3FF4B5AEABEB060607EB860737
:1098B00097F83A40002C3FF4ACAE50E6B8F17F0F79
:1098C0007FF41CAFDFF830E00EF805A0DCE7DFF82E
:1098D00028E09EF808E0BEF1000F3FF42EAE1DE731
:1098E000C962002000FC7F45EC620020506200202D
:1098F000A0610020408F0020B09000206B6300200A
:109900002DE9F04F8F4B90491A78904D904E914F22
:10991000DFF85C92DFF85C82C2EB021201EB82029C
:1099200085B092F8371092F8362042EA0112D1B28F
:10993000C2F3C01200240391029202E00134092C08
:1099400020D0327855F8041F91425FFA84FA0BDD7B
:10995000DFF828B2804ADBF80010106821FA04F220
:1099600002F00102024310D07C490022082C62540C
:1099700047F8242004F8092004F80820DED1784BA9
:1099800000221A7005B0BDE8F08F1A786E4B75484A
:10999000C2EB021203EB820290F800E092F826205C
:1099A0004FF0010C0CFA04F07245134640EA010036
:1099B00028BF73460093FEF7BDFD624B6A4993F8DA
:1099C00000C06A4A097812F80C20401A019052B37C
:1099D000DFF8ACE19EF800E0BEF1020F01462ED0A8
:1099E0000029C1D000988142BEDCC0F1000E8E4536
:1099F000BADC5548CCEB0C1E00EB8E0B4FEA0C107A
:109A00009BF832E00090BEF1000F4DD09BF838E09B
:109A1000BEF1000F3ED0019A02328FD15046FFF7BF
:109A2000F5FC484B8AE70099DFF854E149429EF87B
:109A300000E08142B8BF0146BEF1020FD0D1082C30
:109A400012D0002957D00098814203DCC0F1000EEB
:109A50007145CEDA41490022625447F8242004F8C7
:109A6000092004F8082069E7029800285ED100293F
:109A70004ED00098814203DCC0F1000E7145B8DA87
:109A8000344C3B483B49354A0023236203720B7236
:109A9000137274E70198023006D1039804F1FF3E77
:109AA00040FA0EF0C007B9D472BB009A2648A2EB68
:109AB0000C0200EB820292F83A2012B9082C3FF413
:109AC00061AF96F800C028682B4AA0EB0C0007EEA7
:109AD000900A02EB840292ED007AF8EEE77A4942AE
:109AE00067EE877AFDEEE77A17EE902A01FB02F225
:109AF00047F8242022E7194A47F8241004F80910EF
:109B000004F80810A15419E7032A7FF417AFCCE733
:109B10008C4610481649174A104BC0F820C081F8EF
:109B200008C082F808C083F808C028E7DBF800E026
:109B30001EF4807F9BD1204605B0BDE8F04FFFF7B3
:109B400065BC00BF848F0020046000203C91002091
:109B50002A630020506200208C9100204C8F00204E
:109B60006B630020C9620020D8620020E8620020F8
:109B7000B0900020408F002064910020588F00207A
:109B8000A06100202DE9F84F3D4C3E4824220021E1
:109B900028F0A0FD23785BB1032B09D03A4A3B495A
:109BA0001278C2EB021201EB820292F8322012B15B
:109BB000FFF7A6FE2378022B56D0354BDFF8E4C022
:109BC0003448354C354AD3F80090DCF80010006872
:109BD0002478D2F800E02B4E314DDFF8CC80DFF84E
:109BE000CCA00023012712E055F82320A2420BDA73
:109BF00020FA03F207FA03FBD20721EA0B0103D58F
:109C000021FA03F2D2070AD50133092B2AD021FA0F
:109C100003F2D207E8D420FA03F2D207F4D556F8BB
:109C20002320002AF0D155F823B05C451EDA2EFA25
:109C300003F2D20721D4ABEB040207EE902A0AEB21
:109C4000830292ED007A03F80870F8EEE77A67EE87
:109C5000877AFDEEE77A17EE902A46F82320013343
:109C6000092BD4D1CCF80010BDE8F88F2EFA03FBF5
:109C700003F808205A46D207C6D546F82390C3E712
:109C8000B08F002050620020848F002004600020EC
:109C9000D08B0020A86300202A630020588F00206A
:109CA000409100205C8F0020B48F0020D0910020D4
:109CB0002DE9F843AC4CAD482422002128F00AFDE0
:109CC00023785BB1032B09D0A94AAA491278C2EBC9
:109CD000021201EB820292F8322012B1FFF710FE5D
:109CE0002378022B3ED0A14CA368002B3CD0A04B84
:109CF000A14A1B78D35C9A1E012A40F2C9809F4A70
:109D00001278012A00F08A8002250026022A29D131
:109D100013F0FB0F00F08A80012B01D00A2B21D118
:109D2000974B1A68D60500F15E81150700F158813E
:109D3000944B954ADB681278934240F373819348C1
:109D40009349D0ED007AD1ED036A9B1A07EE103AE1
:109D5000F8EEE77AB8EEC77AE7EE667AFDEEE77AD4
:109D6000C4ED037ABDE8F883E568002D35D16FF0C6
:109D700001067F4B804A1B78D35C9A1E012A42D889
:109D80007F4F38684307C0F380092CD50023DFF8E4
:109D9000FC81A360032D77D038680207C0F3C009A7
:109DA0001ED47C4D2A78002A40F0CE807A4B186869
:109DB0007A4B1B78834200F0A180D4E90231D8F8B5
:109DC00000200B445B429342CCDD012E67D9524206
:109DD0000023C4E90223BDE8F88301260325C8E770
:109DE0000023E360E9E7DFF8AC8198F80020002A5F
:109DF00040F0A080684B1868684B1B78834270D095
:109E0000DFF88881C6E75D4A1278012A7FF47EAFC9
:109E10005E4A12680023C4E90223A3E7E368002B2B
:109E2000A0D15A4AA3601368E3609BE7564B55499B
:109E30001A788B6852489A42006835DB022D00F090
:109E4000EC800023A360CB689A4245DA070743D42D
:109E5000032D0DD09B1A4E4907EE903A91ED037AEF
:109E6000F8EEE77A67EE877AFDEEE77AC4ED037ADB
:109E7000012E7FF677AFD4E90231444A12680B44D1
:109E800093427FF76FAFA3E73868C10595D484E7A5
:109E90003B4F386810F480761AD1022572E73B6890
:109EA000DB053FF55FAF92E74707C7D4022D00F00F
:109EB000B4809B1A364F07EE903A97ED027AF8EE8F
:109EC000E77A67EE877AFDEEE77AC4ED027ABAE7C1
:109ED000DFF8B88000265FE7032DC9D00023E360D8
:109EE000C6E7284A284B92681B7893425CDBDFF870
:109EF0009C80D8F800305B42A3604BE7214A224B9C
:109F0000D2681B789A4229DD2549264BC968DB684F
:109F10000A449B1A07EE903A1D49F8EE677A91EDD4
:109F2000037A67EE877AFDEEE77A17EE903A5B42A6
:109F3000E36042E740F004003860FEF7FBFA164B9E
:109F400088F80090186057E740F008003860FEF786
:109F5000F1FA114B85F80090186029E7D8F8003025
:109F60005B42E36029E700BFB08F00205062002011
:109F7000848F002004600020D4620020CC91002057
:109F8000588F0020409100202A630020D08B0020B1
:109F9000D091002044620020888B0020D8620020ED
:109FA0001C9100206C6300202049214B89689B682C
:109FB000DFF88C800A449B1A07EE903A1D49F8EEB0
:109FC000677A91ED027A67EE877AFDEEE77A17EE0F
:109FD000903A5B42A360DDE602DB12077FF5C2AE7A
:109FE0000023E360BEE6144B1449DB6809788B421A
:109FF000F2DD1007F4D4032D3FF4B4AE5B1A0D4A22
:10A0000007EE903A92ED037AF8EEE77A67EE877AF8
:10A01000FDEEE77AC4ED037AA4E6CB689A42FFF638
:10A0200015AF5BE7064B1B68E3609BE61C910020C5
:10A030006C630020D0910020409100202A63002012
:10A04000D08B002070B52D4C2378E3B96378002BBA
:10A0500030D1A37803B970BD294E1FF06FF8B368F3
:10A06000C01AC728F7D9274D1FF068F8AB78B06041
:10A070000226002B34D140F2FF31032022F0C2FB34
:10A080000123AB7070BD1E4E1FF058F83368C01A24
:10A09000C728DBD91B4D1FF051F82B78306053BB1C
:10A0A00040F2FF31082022F0ADFB01232B706378D2
:10A0B000002BCED0124E1FF041F87368C01AC7288B
:10A0C000C7D9104D1FF03AF86B7870603BB940F279
:10A0D000FF310A2022F096FB01236B70B9E70126BD
:10A0E000094B0021985D22F08DFBA35D0022013B0E
:10A0F000A355AA5570BD0026F2E700BFFC8C0020D6
:10A10000908B002074680020E8C005002DE9F8431A
:10A110002C4D2D4F2D4C2E4EDFF8CC902DED068B77
:10A120009FED2C9ADFED2CAADFED2C8A9FED2CAA57
:10A13000DFED2C9A05F1030815F8011B012381B30B
:10A14000D4ED007A337037EEA87AF4EEC97AF1EEE6
:10A1500010FAB0EE470A2EDC84ED007A1CF04EFCBB
:10A16000B7EE008A30EE088A28EE0A8AFCEEC87A3A
:10A1700028EE298A17EE901A387822F043FBD4EDA6
:10A18000007A37EE888A84ED008AA84507F1010736
:10A1900004F1040406F10106CED1BDEC068BBDE846
:10A1A000F8833378002BF0D03878317022F02AFB16
:10A1B000C4F80090E9E7B0EE6A8AC4F80090002184
:10A1C000DAE700BF0C900020E8C005009461002091
:10A1D0009C8B00200AD72F410AD7232F0AD7A33BF5
:10A1E00000C0FF430A00A436B4C896400000000037
:10A1F0003F4B404A1B68126870B53F4D060104464C
:10A20000A3EB8200AB5920EAE07005EB0412B0EB3F
:10A21000830F526882B04FEA830159D208469200F8
:10A220004FF48063009300231EF076FF334A125DE3
:10A23000012A034651D0022A2CD0314ADFED316A7F
:10A2400012F8140002EB440207EE900A5278101A3A
:10A2500003FB00F3B8EEE77A07EE903AF8EEE77A00
:10A26000294BA7EEA67A354403EB8403012CF0EECC
:10A27000477ABCEEC77AC3ED007A17EE102A85ED57
:10A28000037A05D1214B12F0FF0214BF1A701C7023
:10A2900002B070BD0028D0D027F012FC41EC100BAA
:10A2A0001CF0F6FB10A3D3E9002351EC100B27F0B0
:10A2B00071FC27F067FF07EE900A9FED157A67EEB5
:10A2C000A77A67EE877AFDEEE77A17EE903AB4E761
:10A2D0009200904228BF1046A2E700FB00F003FB6B
:10A2E00000F31B15A9E700BFFE822B654715F73F5A
:10A2F000AC9000203063002078620020148D002094
:10A30000DC6200200000803A708F002097630020FC
:10A310000AD723412DE9F041DFF83C8006460F467D
:10A32000D8F800004FF0FF311D4614461FF05EFCC8
:10A330003A4631460720FCF72DF82A4621460720E9
:10A34000FCF728F80023D8F800001A46BDE8F041D1
:10A3500019461FF023B800BF808F0020F8B50446CF
:10A360000E461EF0EBFE2E4B1B78002B36D005461A
:10A37000E4B12C4F3B78002B31D12B4B2B4C186088
:10A3800001223A70BEB12178002945D01B68EB1A32
:10A39000192B10D9264B19687322CBB27220C1F346
:10A3A000C711FFF7B7FF00233B7004E00EBB1D4F42
:10A3B0003B785BBB1D4C237883B11E4B1868281A71
:10A3C00019280BD91C4B19687622C1F3C7137420C6
:10A3D00001F07F01FFF79EFF00232370F8BDAEB1AF
:10A3E000124C237883B9134A0F4B1060012222705C
:10A3F000CCE70E4C0B4F23783A7853B90D49012323
:10A4000008602370002AE9D0074BBFE7064B074CD2
:10A41000BCE7002AD1D0F7E7064922700860B5E70B
:10A42000048D0020C48A0020C88A0020C58A00202C
:10A43000588F0020CC8A0020349000202DE9F04174
:10A44000904C10290D46247828BF1025012D38BFC7
:10A450000125012C82B000F0F00002F07F0703F02C
:10A460007F062ED0002C70D1874BA0281C785BD0A3
:10A470000FD8802847D0902808D1014600958348FE
:10A4800033463A46FBF72EFF022C34D102B0BDE82A
:10A49000F081B02800F0A680E028F7D107EBC612C3
:10A4A000A2F5005212B202F5005601460095774817
:10A4B00002F07F02C6F3C713FBF714FF022CE5D0AE
:10A4C00067E0734BA0281B6800F082800DD9B0288C
:10A4D00069D0E028DAD107EBC612A2F5005212B219
:10A4E000002B4BD002F5005653E0802800F0BE80D0
:10A4F0009028CBD18BB36748009533463A469021DC
:10A50000FBF71CFFC2E701460095604833463A4618
:10A51000FBF7E8FE022CB9D05E48009533463A4678
:10A520008021FBF70BFFB1E7014600955748334602
:10A530003A46FBF7D7FE022CA8D056480095334682
:10A540003A46A021FBF7FAFEA0E7A02842D00CD89B
:10A55000802800F08E80902898D1014600954B48C5
:10A5600033463A46FBF7BEFEC5E7B02826D0E028C2
:10A570008CD107EBC612A2F5005212B202F50056BA
:10A580004248009502F07F02C6F3C713E021FBF7B3
:10A59000A9FE40480095C6F3C71306F07F02E021EC
:10A5A000FBF7CCFE72E7072929D04BB1394800955B
:10A5B00033463A46B021FBF7C1FE67E707292AD0A8
:10A5C00001460095314833463A46FBF78BFEEDE7EE
:10A5D000002BB2D1014600952C4833463A46FBF792
:10A5E00081FEAAE707292BD02848009533463A4632
:10A5F000B021FBF777FE022C3FF448AFD6E7652F7A
:10A60000D3D9DFF89480B3B198F8003013F0FD0F80
:10A610007FF43CAFCAE7652FD2D9DFF87C8098F889
:10A620000030012BF0D801460095184833463A46D1
:10A63000FBF758FEE8E798F80030012BF3D9E3E781
:10A64000652FD1D9DFF8508098F80030012B03D95D
:10A65000022C3FF41BAFD7E7014600950B48334669
:10A660003A46FBF73FFE022CCED10FE7002B7FF4DA
:10A6700053AF01460095054833463A46FBF732FE94
:10A680004AE700BF906100208869002078680020B8
:10A69000088D00205C670020058D00200000000070
:10A6A0002DE9F04F2DED068B9FB015AB0CAA03A939
:10A6B000CF48DFF8C0B3DFF8C083CE4FCE4ECF4DCA
:10A6C000CF4C14F0A3FECF4BDDED137A93ED001ABF
:10A6D000CD4BCE49CE4AC3ED007ACE4BD2ED000A27
:10A6E000D1ED006A9DED110A9DED127ACA4ACB495F
:10A6F000DB6882ED000ADDED081A9DED092ADDED2B
:10A700000A2AC74A81ED007A30EE660A77EE600ABF
:10A7100037EEC11A1A998BED000ADB01C8ED000A69
:10A7200087ED001AC6ED001A85ED002AC4ED002A57
:10A73000116004D5BB4B1A68D00700F152821FF09C
:10A740006BFFB94B9BED000AD8ED000A97ED001A9C
:10A75000D6ED001A95ED002AD4ED002AA0FB0301E6
:10A76000830A43EA815307EE103AB04C9FEDB06A7A
:10A77000D4ED0F7ADFEDAF8ADFEDAF6AB8EE477A3E
:10A78000204677EE677A84ED0E7A67EE867A84ED5E
:10A790000F7AF4EEE87AF1EE10FA98BFF0EE678ADD
:10A7A000F4EEE68AF1EE10FAB8BFF0EE668AB0EE8B
:10A7B000683AC4ED107A15F017FE94F82830002B93
:10A7C00000F027829D4D236B2B60DFF8B0A2D4F8F8
:10A7D0002C90CAF800909A4BD4ED0D7A93ED007A44
:10A7E000984B37EE877AC3ED007A17EE100A17EE12
:10A7F000104A27F077F978A3D3E9002306460F46DD
:10A8000027F058FC002800F0F18175A3D3E900235C
:10A810003046394627F006F827F0B4FC8A4B0193FE
:10A8200004461860484627F05DF96BA3D3E900237E
:10A8300026F0FAFF27F0A6FC814627F053F966A31D
:10A84000D3E9002306460F4627F034FC48B164A341
:10A85000D3E900233046394626F0E4FF27F092FC86
:10A860008146286880F0004027F03CF95EA3D3E9D8
:10A87000002327F08FF927F085FC09EE900A89F074
:10A880000040C5ED009A27F02DF957A3D3E9002326
:10A8900027F080F927F076FC09EE100A84F00040DA
:10A8A0008AED009A27F01EF94FA3D3E9002327F081
:10A8B00071F927F067FC654B01991A680860D107A8
:10A8C0000AEE100A624C40F19D8194ED008A614EBF
:10A8D000614F96ED007AD7ED007A39EEC77A7AEEBD
:10A8E000677AB5EEC07AF1EE10FAF5EEC07A4CBF99
:10A8F00001220022F1EE10FA4CBF012300239A42FC
:10A90000B5EEC09A00F01181F1EE10FA40F311811A
:10A91000B0EEC99AD8F8000027F0E4F832A3D3E9E2
:10A92000002327F037F9804618EE900A894627F071
:10A93000D9F802460B464046494627F02BF9804697
:10A9400018EE100A894627F0CDF802460B4640461D
:10A95000494626F069FF27F015FC08EE100AF5EECF
:10A96000C09AF1EE10FAB5EEC08A4CBF0122002267
:10A97000F1EE10FA4CBF012300239A4287ED00AAA2
:10A98000C6ED009A206000F02981DFED347A68EE90
:10A99000277A9FED337A334BB4EEC79AF1EE10FA73
:10A9A000ADBF002238EE678AC3ED007A1A602E4BE5
:10A9B0002E4A1B7884ED008A03EBC30302EBC3032A
:10A9C00085ED008A93F82030002B00F00281284C9E
:10A9D0002378002B63D053E0182D4454FB21094009
:10A9E000182D4454FB211940F8C1631ADCA54C40D2
:10A9F000BC900020388F0020C48B0020C88B002022
:10AA0000CC8B00203C8F00201C9000202C8F00203D
:10AA1000348F0020F0ED00E014900020189000200A
:10AA200070680020001000E040420F0040900020BD
:10AA3000BD3786350AD7233C6F12833A2890002011
:10AA4000009200200C8D0020FC910020A06A0020C4
:10AA5000B48B0020B08B0020AC8B0020CDCCCC3C44
:10AA60000000AA42A08B0020848F0020B860002044
:10AA70009F8B0020288F0020308F0020AC8F00207B
:10AA80000133DBB2052B237009D900210A2021F004
:10AA9000B9FE0021032021F0B5FE00232370DBED79
:10AAA000007AB6EE007AF4EEC77AF1EE10FA63DDC2
:10AAB000794E7A4D96ED007AF4EEC77A0123F1EEE5
:10AAC00010FA2B7000F3CC80B5EEC07AF1EE10FADC
:10AAD00040F3CB80DFED726A37EE667A86ED007A5E
:10AAE000B5EEC07AF1EE10FA40F2BF80F5EEC07A12
:10AAF000F1EE10FA6DD5DFED6B7AB4EEE77AF1EE98
:10AB000010FA00F2B980F7EE007A37EE277AF2EE0B
:10AB1000087A27EE277AFCEEC77ACDED017A9DF808
:10AB200004304FEAC3085F003AE0F1EE10FA7FF616
:10AB3000EFAEDFED5D7AB0EEC99AB4EEE79AF1EED2
:10AB400010FABFF6E7AEB5EEC08AF1EE10FAF5EEF8
:10AB5000C09A4CBF01220022F1EE10FA4CBF012333
:10AB600000239A4287ED00AAC6ED009A7FF40DAF4C
:10AB70004E4B00221A601AE7F5EEC07AF1EE10FA99
:10AB800027D5464D2B7823B3434E96ED007AB5EE8C
:10AB9000C07AF1EE10FAAEDA18274FF060080C23F5
:10ABA000434A4449127809789020FFF747FC414610
:10ABB0000A2021F027FE3946032021F023FE3E4AD9
:10ABC0003E4B12681A60002101220023316022707E
:10ABD0002B701FB0BDEC068BBDE8F08FDFED387A2F
:10ABE000D7E65B689B0907EE103ABEE526A3D3E9DA
:10ABF00000233046394627F03FFA48BB314B0193DA
:10AC00001C600FE60122B0EE698AC4ED009A1A605A
:10AC10005DE6204615F0AAFB2B4D94F82830226BF8
:10AC20002A60002B7FF4D1AD204615F09FFBDFF8A2
:10AC30009CA094F82830D4F82C90CAF80090002BEF
:10AC40007FF4C9AD204615F091FBDAF80090C2E51B
:10AC50000FA3D3E900233046394626F0E5FDDBE5B6
:10AC6000C6ED007AB0EE677A3AE700232B701FB08A
:10AC7000BDEC068BBDE8F08FFC274FF47C787E237B
:10AC80008EE700BFAFF30080182D4454FB2109C0AC
:10AC9000182D4454FB211940A88B0020A48B0020C0
:10ACA0003333333FAE4719410000AA42A08B002046
:10ACB00004920020C8620020C08F0020E08F002096
:10ACC00000000000FC91002028900020AC8F0020A4
:10ACD000354A364938B5D2E90035D2E902042B4469
:10ACE0000344D2E9040523440344D2E906402B443B
:10ACF000126A097823440344134429B12C4A2D488D
:10AD00001278825C032A27D02B4C2C4A2C4D1268D7
:10AD10002C482D680068C3F500531A442A441218C1
:10AD200017D4B2F5804FA8BF43F6FF722260264DBC
:10AD30002B68934200D001B938BD2449C2F3C71330
:10AD4000097802F07F02E020FFF778FB23682B6090
:10AD500038BD00222260EAE71D4C1E4A1E4894F9C5
:10AD60000050127804781D48521B121B07EE902ADF
:10AD700090ED007A1A4A104C1078F8EEE77A67EEF8
:10AD8000877AFDEEE77A17EE905A2B44236020B1C4
:10AD9000144D00202B601070B7E712480268036062
:10ADA00013445B10B1E700BF50620020A38F002066
:10ADB000848F0020E8620020E4620020248D0020BF
:10ADC000A49000206C68002020630020C86200204E
:10ADD000A89000209C8F0020D8620020EC62002008
:10ADE000296300203C8B0020F8B5364E364F327870
:10ADF000C2EB021317F82340002C36D03349C2EBC4
:10AE0000C20301EB4301D3004978002953D0304DF0
:10AE1000134405EBC303002493F8452072B3FDF7F8
:10AE2000A5FF2C4B1B78022B4FF0010432D02A4B8C
:10AE30001C78002C3BD0FEF73BFFFCF7C3FE3378B9
:10AE400003EBC30305EBC3031A7E52B993F8212029
:10AE50003AB993F8222022B993F823300BB9002C89
:10AE60002FD0BDE8F840FFF733BFD300184D13448F
:10AE700005EBC30393F84520002AD0D193F8462070
:10AE8000002ACCD193F84730002BC8D1114B1B7846
:10AE9000022BCCD13378C3EB031307EB830797F86E
:10AEA0003230002BC9D00C4B1C78002CC3D1FEF7DC
:10AEB00069FE0124C1E7FDF7E1FD32780124D300EA
:10AEC000D4E7F8BD848F0020046000204063002098
:10AED000B8600020B08F0020188D00202DE9F047C9
:10AEE0003D4E3E4A337803EB43010A44125CEAB11B
:10AEF00000EB80094FF03208394F08FB03920446FB
:10AF0000BD5C012D07EB02014FEA800A1CD0052D24
:10AF10000ED0062D2CD1334991F90020033205DBE8
:10AF20003148C25C013A52B2C2540A70BDE8F0879F
:10AF30002C4991F90020022AF8DC2B48C25C01322E
:10AF400052B2C2540A70F1E74A780AB3012AEDD12D
:10AF500054444FF0320A0AFB03433B441A79D97830
:10AF60009878FBF717FA33780AFB03443D5DCEE788
:10AF70000A2D05D11D4A137801331370BDE8F087FF
:10AF80000B2D18D1194A1378013B1370BDE8F087D7
:10AF90000B79CA7889789020FFF750FA3378144AF1
:10AFA00008FB0398155517F80850012DB844AED189
:10AFB00098F80120CAE7102DB8D10E4B0E4A1B7825
:10AFC000012B05D00D48012103701170BDE8F087F9
:10AFD00011780029AAD0F5E7848F0020888F0020FF
:10AFE000A8610020A48F0020A88F00209D8F002042
:10AFF000948F0020918F002020900020558F0020FA
:10B00000104B11481B78114AC3EB031300EB83006C
:10B010000121837A11708B4203D0022B0DD033B102
:10B020007047437B027BC17A8020FFF707BA437BDE
:10B03000027BC17A9020FFF701BA427B017BC07A84
:10B04000FBF7A8B9848F002004600020208D002029
:10B05000104B11481B78114AC3EB031300EB83001C
:10B060000021837B1170012B03D0022B0DD033B153
:10B070007047437C027CC17B8020FFF7DFB9437CB3
:10B08000027CC17B9020FFF7D9B9427C017CC07B58
:10B09000FBF780B9848F002004600020208D002001
:10B0A000824B1B8843F480735A1C1A422DE9F047E7
:10B0B00000F0A98000210A4613F0010F08BF1146D5
:10B0C0005B1002F10102F7D101F13E04E4B2462C1B
:10B0D00028BF46243C3C764E764A3378C3EB0313B4
:10B0E00002EB83039A7C032A79D0DFF80C82D8F82C
:10B0F0000010714B714A724F92F800C0D3F8009063
:10B100005A68D7F800E06F486F4D04FB0C245FFAD3
:10B110008EF3894504602B7015DB6C4A01200021F9
:10B12000287003461170327869493860C2EBC20258
:10B1300001EB4202527922B1664C2278012A64D096
:10B140002370BDE8F08709F101028A420BDB624AF5
:10B150001278002A00F08180012B7ED05F4B1B7893
:10B160002B701846DFE75E4ABEF1010F127804BF6C
:10B1700002232B70012AEAD15A4A1078002875D090
:10B18000A4EB090200FB02F2DFF870C102EB4200FF
:10B190008CFB00A98CFB02ACC017D217A0EBE91006
:10B1A000C2EBEC12224404444F48DFF85491026091
:10B1B0008A42C9F8004040DB8C4259DB0223BEF1D1
:10B1C000010F2B7062D0BEF1030F48D11DF0B6FF06
:10B1D000464B1B68C01A14285ED82B78B7E7444A40
:10B1E0001278D2B91A7DDFF81081DB7CD8F8001014
:10B1F00043EAC21305338B42BFF67BAFFFF700FF74
:10B20000D8F8001075E70A2465E7012B98D01DF0E7
:10B2100095FF384A2B78106092E7DFF8DC801A7DC2
:10B22000DB7CD8F8001043EAC2138B427FF761AF92
:10B23000FFF70EFFD8F800105BE7244A0021032334
:10B24000BEF1010F11702B7009D0BEF1030F06D1B2
:10B25000214B1B78002B81D17346184663E71E4AA9
:10B260001278002A7FF47AAF18465CE722469BE703
:10B27000BEF1010F07D0BEF1030F7FF468AF022BC0
:10B280007FF465AFA2E7022B7FF461AF0020FDF7EA
:10B29000ADFB034628705AE7D9F80020D8F8001013
:10B2A0000120FDF7A3FB0346287050E7588F0020CC
:10B2B000848F00200460002030630020D7620020CB
:10B2C000108D002090630020918F0020568F002069
:10B2D000406300202863002020900020558F00202C
:10B2E000A06100204C62002094910020208F00205B
:10B2F000208D0020C8910020349000201F85EB5144
:10B30000989100202DE9F8431DF018FF944D954ABF
:10B310002B6811689942044600F0A080DFF884820F
:10B32000914F924E98F800101360012238603270ED
:10B33000002942D18E4B19608E4B8F4F4FF0010880
:10B34000002483F8008034701DF0F8FE8B4B024619
:10B3500028681A60FDF7EEF82146034640463B7028
:10B36000FEF7FCFF3E787F2E76D0854F3B78B342C8
:10B3700072D0844B1B78022B0BD0834B2A681A6047
:10B3800082482422214627F0A5F9814BC3E90044D5
:10B390001C72804B804A1B783E70C3EB031302EB98
:10B3A000830393F8322022B193F838300BB1FFF7C2
:10B3B0001BFDBDE8F843FFF773BE99461DF0BEFEC6
:10B3C000764A774B1278196828688A4203DAC107EF
:10B3D00058BF49F0010959688A4203DA810758BF0A
:10B3E00049F0020999688A4203DA410758BF49F0D7
:10B3F0000409D9688A4203DA010758BF49F00809ED
:10B4000019698A4203DAC10658BF49F0100959691F
:10B410008A4203DA810658BF49F0200999698A42B5
:10B4200003DA410658BF49F04009D9698A4203DA74
:10B43000010658BF49F080091B6A9A4203DAC30526
:10B4400058BF49F4807948451BD1494B32780021D7
:10B450001960002A7FF470AFBDE8F883DFF810911F
:10B46000414FD9F800303868241A002B72D09C4222
:10B4700019D33E4E32780023C9F80030002AEBD0B1
:10B480005AE7FDF757F8034648469946FDF752F844
:10B490007F28DAD08145D8D0DFF8D49098F80030F2
:10B4A000C9F80030DFE72E681DF048FE3B4A3C4BF0
:10B4B0001278196828688A4203DAC70758BF46F02D
:10B4C00001065968914203DD810758BF46F0020624
:10B4D00099688A4203DA470758BF46F00406D968DC
:10B4E0008A4203DA010758BF46F0080619698A4202
:10B4F00003DAC70658BF46F0100659698A4203DAD4
:10B50000810658BF46F0200699698A4203DA470649
:10B5100058BF46F04006D9698A4203DA010658BF8F
:10B5200046F080061B6A9A4203DAC30558BF46F408
:10B530008076B0429DD0FCF7FDFF034630461E46A4
:10B54000FCF7F8FF7F2894D0864292D0D9F80030DB
:10B550009C4281D3054E3278002A3FF47DAFEBE662
:10B56000588F0020186300205C8B0020608B002027
:10B570008C910020446200206A630020208F00200C
:10B58000D8620020B08F00205C8F00205062002025
:10B59000B48F0020848F0020046000202A630020E4
:10B5A0004091002088910020102928BF10210129F6
:10B5B00000F0F00038BF0121C0282DE9F04102F071
:10B5C0007F0535D0D0280BD1234E3378012B09D1FC
:10B5D000224B1B6833B1013961F02F04E4B218E04B
:10B5E000BDE8F0811E4F7B6D0139186861F02F04B2
:10B5F0000368E4B21B68214698477B6D18680368AE
:10B6000029461B68984733781BB9164B1B78022BC9
:10B61000E6D0154E736D1868036821461B6998477C
:10B62000736D1868036829461B69BDE8F041184727
:10B63000094E3378012B07D1084B1B6823B1013920
:10B6400061F03F04E4B2E4E7054F7B6D013918680F
:10B6500061F03F04CCE700BF90610020088D00201E
:10B6600078680020886900205C6700202DE9F04F91
:10B67000704F714E3C78C4EB041306EB830385B026
:10B680009A78012A804600F0A280DFF8E491C4EBAA
:10B69000C40309EB430393F806A01AF0010F52D03C
:10B6A000664B93ED020AB5EEC00AF1EE10FA04DD26
:10B6B000634BD3ED007A30EE270A9FED627ADFED1F
:10B6C000627AB4EEC70AF1EE10FA88BFB0EE470A0C
:10B6D000B4EEE70AF1EE10FAB8BFB0EE670A03A8BD
:10B6E000CDED037A1BF058F9584BF0EE407AFEEEA0
:10B6F000EC7A1B78CDED017A002B45D0DDED037A95
:10B70000DFF870B1FDEEE77ADBF8003017EE905A03
:10B7100085F30705AB42C4EB041443D006EB840465
:10B7200094F82F20002A73D1494C2178EAB2D02016
:10B73000FFF73AFF3B78CBF80050C3EBC30309EBAC
:10B74000430999F806A01AF0020F1AD03F4B1B7854
:10B75000BBB1404BDC6B002C60D123463E4D1C44FA
:10B760002B6884F307049C4202D1B8F1000F08D083
:10B77000374B3A4A19781278E3B2A020FEF75EFE02
:10B780002C6005B0BDE8F08F354A1268642AB5DC3C
:10B79000DFF8E0B001931D46DBF80030AB42C4EBAC
:10B7A0000414BBD106EB840696F82F30002B38D05A
:10B7B0002C4E019A3368934237D0254C9DF80420D3
:10B7C00020785721FAF7E6FD019B3360ADE7214A67
:10B7D000D5682301CDB92A46DFF89C901544D9F8E5
:10B7E000002085F30705AA4203D1B8F1000F3FF40A
:10B7F0004CAF1C1B06EB8404EAB261792079FAF79E
:10B80000C9FD3C78C9F800503FE7174A1268E3E7E2
:10B81000EB1A0F331E2B87D8124ECEE7134B1B6843
:10B820009CE7B8F1000F8ED07EE7B8F1000FC4D1CD
:10B8300089E700BF848F002004600020708F002003
:10B840009C9000200000FE4200000000A38F00201A
:10B85000C862002078620020FC8F00209C8F0020AE
:10B8600034900020F48F002098900020A0900020B9
:10B8700040630020F08F0020EC8F00202DE9F04F76
:10B88000BE4DBF4C2B78BF4EC3EBC30204EB42024C
:10B8900030789279002A83B014BF4FF003094FF03B
:10B8A0001009DA0000283BD0B749DFF8FCC2C95CB8
:10B8B000B64F0329B649097800F0E8809CF900E00A
:10B8C00097F800C0A1EB0E018C4502D0BCF1000F2F
:10B8D0002AD1DFF8008398F80030012B00F0A18016
:10B8E0003A78002A00F0AB802B78C3EBC30104EB5D
:10B8F00041046178002940F09D80A649CB5C032B70
:10B9000000F08A81A44B1B78032B06D0A34B1A6846
:10B9100040F2FF139A4200F0928003B0BDE8F08F2E
:10B920009A4F39780029F8D0DFF8A88298F80010EB
:10B930000129A2EB030104EB4101497840F2BD80EB
:10B94000002940F0BC80D11A04EB4101497900295B
:10B9500000F0DB80002800F0CF80DFF834A29AF8F6
:10B9600000100191D21A04EB420292F809C0BCF116
:10B97000000F00F05A810122DFF84892DFF83CB254
:10B980000092874A1278002A00F0A180854A126846
:10B99000002A00F09C80DA008349387891F800C0D2
:10B9A000D31A04EB430300EB0C02187ADFF828C229
:10B9B0000123D2B28AF800208CF8003033700028BE
:10B9C00040F02281794B9BF800101B789020FEF705
:10B9D00035FD009B002B40F00F811DF0AFFBDFF821
:10B9E000FCA1CAF800001DF0A9FB2B78704ADAF818
:10B9F00000101160C3EB031309EB8309DFF8E0C10A
:10BA000099F812306B4A3978CCF80000022B11708B
:10BA100000F0EA80307800287FF45DAF03B0BDE825
:10BA2000F08F2B78C3EBC30204EB4204627832B18F
:10BA30003A7822B16049097800297FF45EAF5F4B04
:10BA4000534A1978127840238020FEF7F7FC2B78B0
:10BA50005B4A03EBC30102EBC102D27D012A00F075
:10BA60008680584AC3EB031302EB830300229B7CBE
:10BA70003270022B7FF451AF534B1B78002B3FF4F5
:10BA80004CAF03B0BDE8F04FFFF7E2BA9CF900807D
:10BA900097F800C0DFF84CE1A1EB0801ACEB010125
:10BAA00000299EF800E0B8BF49428E453FF711AF2C
:10BAB000BCF1000F7FF438AF0BE70029ABD03E4953
:10BAC000097800297FF43FAF0028A7D003E7C3EB34
:10BAD000031209EB82029278012A08D0C3EBC3015A
