:020000022000DC
:106000000000042015C4040055C4040057C4040053
:1060100059C404005BC404005DC404000000000017
:1060200000000000000000000000000091C3040018
:1060300061C4040000000000B1C3040065C4040092
:1060400069C6040067C4040067C40400C1F9030002
:1060500067C4040067C40400559D040067C40400BD
:1060600067C4040067C4040067C4040067C4040074
:1060700067C4040067C4040067C4040067C4040064
:1060800067C40400E1C0040067C4040067C40400DE
:1060900067C4040067C40400E16B030067C4040024
:1060A00067C4040067C4040067C4040067C4040034
:1060B00067C4040067C40400000000000000000082
:1060C00067C4040067C4040067C404007DCB0400F7
:1060D00067C4040067C4040067C40400F1930300AC
:1060E00067C4040067C4040067C404000000000023
:1060F0000000000067C4040000000000F5CB0400AD
:10610000000000000000000000000000000000008F
:10611000000000000000000000000000000000007F
:10612000000000000000000000000000000000006F
:10613000000000000000000000000000000000005F
:10614000000000000000000000000000000000004F
:10615000000000000000000000000000000000003F
:10616000000000000000000000000000000000002F
:10617000000000000000000000000000000000001F
:10618000000000000000000000000000000000000F
:1061900000000000000000000000000000000000FF
:1061A00000000000000000000000000000000000EF
:1061B00000000000000000000000000000000000DF
:1061C00000000000000000000000000000000000CF
:1061D00000000000000000000000000000000000BF
:1061E00000000000000000000000000000000000AF
:1061F000000000000000000000000000000000009F
:10620000F1EE103A43F08073E1EE103A704700BFB0
:1062100010B5054C237833B9044B13B10448AFF3E0
:1062200000800123237010BD58670020000000008B
:106230003C01060008B5034B1BB103490348AFF30B
:10624000008008BD000000005C6700203C010600E3
:10625000154B002B08BF134B9D46A3F5803A002138
:106260008B460F461348144A121A2DF093F80F4B21
:10627000002B00D098470E4B002B00D098470020F1
:10628000002104000D000D48002802D00C48AFF397
:1062900000802DF015F82000290026F013F92CF0CD
:1062A000E9FF00BF0000080000000420000000001B
:1062B000000000005867002024CC002000000000EF
:1062C00000000000704700BF704700BF10B5034BCF
:1062D0000360044619F0F6FB204610BD04D4050007
:1062E0002DE9F0419DF81840013CE4B20F2C21D873
:1062F0000D4649B200291DDA1F46436D064618684F
:10630000036821431B68C9B290469847736D1868AB
:10631000036808F07F011B6805F0EF059847C02D62
:1063200008D0736D1868036807F07F011B68BDE82B
:10633000F0411847BDE8F0812DE9F0419DF8184083
:10634000013CE4B20F2C21D80D4649B200291DDAD8
:106350001F46436D06461868036821431B69C9B28E
:1063600090469847736D1868036808F07F011B69B1
:1063700005F0EF059847C02D08D0736D18680368C5
:1063800007F07F011B69BDE8F0411847BDE8F081C7
:10639000F0B5284B102805461C7828BF1025012D84
:1063A00038BF0125012C83B001F07F0702F07F0682
:1063B00020D0002C34D1204B1B789C1E18BF012408
:1063C000072801D1652F23D81C48009533463A464B
:1063D000B021FFF785FF24B9194B1B7813F0FD0F8F
:1063E00006D11848009533463A46B021FFF7A4FF7E
:1063F00003B0F0BD144B0728D3ED007A17D0F5EEAB
:10640000407AF1EE10FA03D00D4B1B78012BE8D83F
:106410000A48009533463A46B021FFF761FFE0E7AE
:10642000072808BF0124F3D1652FF1D8CCE7652FE9
:10643000EED8E4E79C610020A0690020906800206D
:10644000358D002074670020388D002030B50E4D4A
:1064500083B00C4601904FF0FF31286824F026FAF3
:10646000019A68210720FFF793FF22466921072040
:10647000FFF78EFF002328681A46194603B0BDE8CF
:10648000304023F0EBBD00BFB48F00201C4B1D4AF1
:106490001B780021116003B9704710B51A4C4FF0FA
:1064A000FF31206824F002FA48226A210720FFF712
:1064B0006FFF002277210720FFF76AFF00231A46AB
:1064C0001946206823F0CAFD4FF0FF31206824F000
:1064D000EDF949226A210720FFF75AFF00227721B0
:1064E0000720FFF755FF00231A461946206823F0BE
:1064F000B5FD064B1A78022A04BF00221A7010BD9F
:10650000348D0020388D0020B48F0020358D002080
:10651000F0B5014689B005463748384F10F058FBB2
:106520000024202269460646CDE90044CDE9034413
:10653000CDE90544029407940EF062FC30460EF05B
:1065400031FB07EE900AF8EEE77AB7EE047A2C4BAF
:1065500067EE877A1D80C7ED007A23F04FFC294B48
:1065600029492A4D2A4A1B780C7001212860117094
:1065700023B9284B02229A7009B0F0BD9FED267A0C
:10658000D7ED007A254E67EE877A3068FCEEE77A21
:106590004FF0FF3117EE903A9DB224F087F9482270
:1065A0006A210720FFF7F4FE05F07F02772107201C
:1065B000FFF7EEFE234622462146306823F04EFDCB
:1065C00030684FF0FF3124F071F949226A21072029
:1065D000FFF7DEFEC5F3C71277210720FFF7D8FECD
:1065E000234622463068214623F038FD094B02221B
:1065F0009A7009B0F0BD00BF50920020388D002085
:10660000F4620020348D0020418C00203C8C00205E
:10661000408C00202C8D00200000C842B48F002048
:1066200010B5012182B004461A2027F031F901216A
:106630001A2027F0B1F9052023F0ECFB4FF480730A
:106640000094ADF8043002AB13E90600134818F0CB
:10665000D9FE00211A2027F09FF9AC210F4818F02D
:10666000AFFF53210D4818F0ABFF00210B4818F085
:10667000A7FF00210446094818F0A2FF00EB0421FF
:10668000B1F5A64F06D01022054823F0FDFA0020F0
:1066900002B010BD012002B010BD00BF58AF0020F5
:1066A000D49A002070B5044642F21070FFF7B8FF8C
:1066B0007A497B4823F064F9257805B3794978480D
:1066C00023F0FEF810222946754823F0ADFAAC21DC
:1066D000754818F075FFE021734818F071FF00212C
:1066E000714818F06DFF294603466F481D4618F0A3
:1066F00067FF00EB0520B0F5604F40F0A9806A4DC0
:10670000F021284618F05CFF0021284618F058FFB9
:106710000021284618F054FF0021284618F050FFA9
:1067200010F00106ECD16578002D70D15E4DF0219E
:10673000284618F045FF0021284618F041FF0021A7
:10674000284618F03DFF0021284618F039FF10F0C8
:106750000106ECD1A578002D7CD1534DF0212846BF
:1067600018F02EFF0021284618F02AFF00212846A5
:1067700018F026FF0021284618F022FF10F001062D
:10678000ECD1E478FCB14949454823F099F810224E
:106790002146434823F048FAAC21434818F010FF43
:1067A000A421414818F00CFF31463F4818F008FF7B
:1067B000214603463C481C4618F002FF00EB04202B
:1067C000B0F5244F44D1384DF021284618F0F8FE9A
:1067D0000021284618F0F4FE0021284618F0F0FEAB
:1067E0000021284618F0ECFE10F00104ECD12C48F2
:1067F00023F016F92C4818F067FE21461A2027F0DE
:10680000CBF821461A2027F043F8012070BD284913
:10681000234823F055F810222946214823F004FA92
:10682000AC21214818F0CCFEA0211F4818F0C8FE6A
:1068300031461D4818F0C4FE294603461A481D4635
:1068400018F0BEFE00EB0520B0F5204F3FF46EAF10
:10685000002070BD1749124823F032F81022294653
:106860000F4823F0E1F9AC210F4818F0A9FEA82148
:106870000D4818F0A5FE31460B4818F0A1FE294638
:10688000034609481D4618F09BFE00EB0520B0F5B5
:10689000284F3FF462AF0020DBE700BF54620500E1
:1068A000D49A00206462050058AF0020A062050061
:1068B000786205008C620500F8B5044642F210705B
:1068C0000D46FFF7ADFE4F494F4823F059F82678A3
:1068D000002E56D16678002E73D1A6788EBBE6784E
:1068E000FEB15021494818F06BFE0821474818F0C6
:1068F00067FE0021454818F063FE0021434818F068
:106900005FFEEB78424904461C403F4822F0D8FF26
:106910003D482146102223F087F9A64201D00020ED
:10692000F8BD394823F07CF8384818F0CDFD002137
:106930001A2027F031F800211A2026F0A9FF0120A3
:10694000F8BD5821314818F03BFE08212F4818F0B7
:1069500037FE00212D4818F033FE00212B4818F097
:106960002FFEAB782B4907461F40274822F0A8FF8F
:1069700025483946102223F057F9BE42AFD00020F7
:10698000CEE75821214818F01BFE00211F4818F0BF
:1069900017FE00211D4818F013FE00211B4818F0B7
:1069A0000FFE2B781C4907461F40174822F088FF2E
:1069B00015483946102223F037F9BE428AD000200C
:1069C000AEE75021114818F0FBFD00210F4818F0E8
:1069D000F7FD00210D4818F0F3FD00210B4818F0D9
:1069E000EFFD0E49C7B2084822F06AFF3946064853
:1069F000102223F019F968780740BE423FF46DAFCA
:106A000000208DE7B4620500D49A002058AF002022
:106A1000F8620500E8620500C8620500D86205005A
:106A200010B50A4CF021204618F0CAFD002120467E
:106A300018F0C6FD0021204618F0C2FD00212046B6
:106A400018F0BEFDC307EDD410BD00BF58AF002045
:106A50002DE9F04F894685B05349544C804654483F
:106A6000174622F02DFF49461022514823F0AEF878
:106A700023F0C4F92368C01AB0F57A7F00F287804A
:106A80004C48FFF7CDFD7B08029345D0002508F167
:106A90000102494C01922B461E0A4021204618F85B
:106AA00015A05FFA85FB18F08BFD3146204618F0E3
:106AB00087FD5946204618F083FD5146074620467B
:106AC00018F07EFD034603EB0723AB424FF048016D
:106AD00020461AD1019B13F81530039318F070FD6E
:106AE0003146204618F06CFD5946204618F068FDE6
:106AF000039B06461946204618F062FD00EB06206F
:106B0000A84205F10105ABB203D0002005B0BDE8F5
:106B1000F08F029A9A42BFD84C21274818F050FDB6
:106B20004FEA59054FEA5921234818F049FDE9B2C7
:106B3000214818F045FD002106461F4818F040FD89
:106B40001E4904461A4822F0BBFE10222946184866
:106B500023F09AF804EB06241949154822F0B0FEF8
:106B6000214613481022A4B223F030F8A542CCD11C
:106B7000FFF756FF104818F0A7FC00211A2026F056
:106B80000BFF1A20002126F083FE0120BEE723F030
:106B900035F90C4B0C4A20600C49C3F80026044818
:106BA00022F08EFE6CE700BF08630500AC6A00208F
:106BB000D49A002040420F0058AF00202463050003
:106BC00038630500000001403546526E1863050029
:106BD000014608B5014822F0D3FEFEE7D49A002012
:106BE00010B542F2107082B0FFF71AFDAC211D48BB
:106BF00018F0E6FC80211B4818F0E2FC002119483F
:106C000018F0DEFC00210446164818F0D9FC00EB11
:106C10000420B0F5004F22D1124CF021204618F08C
:106C2000CFFC0021204618F0CBFC0021204618F0B4
:106C3000C7FC0021204618F0C3FC10F00101ECD184
:106C40000848019118F040FC01991A2026F0A4FE92
:106C500001991A2026F01CFE012002B010BD024846
:106C6000FFF7B6FF58AF002040630500084C094904
:106C700008B50546204622F051FE2946102220463E
:106C800022F0CAFF204622F0CBFE0348FFF7A0FF08
:106C9000D49A00205C63050070630500A0F1300207
:106CA000D2B2092A12D9A0F14102052A08B508D9A1
:106CB000A0F16102052A0BD8A0F15703DAB2104601
:106CC00008BDA0F13703DAB2104608BD1046704780
:106CD000FFF7CCFF2DE9F04704460E461F469046CD
:106CE00032B1013A92B20132FF2118462CF052FB28
:106CF0002278B044A2463AB10A2A01D00D2A07D11F
:106D000014F8012F002AF7D192465046BDE8F087CB
:106D10003A2A40F0E4816078A0F13003DBB2092B1D
:106D20000CD9A0F14103052B40F2A781A0F161032A
:106D3000052B00F2D281A0F15703DBB2A078A0F1BD
:106D40003002D1B209294FEA03120CD9A0F1410354
:106D5000052B40F29681A0F16103052B00F2BD8165
:106D6000A0F15701C9B2E078A0F13003DBB20A44C8
:106D7000092BD5B20CD9A0F14103052B40F2858136
:106D8000A0F16103052B00F2A881A0F15703DBB24B
:106D90002079A0F13001C9B21B010929DBB20CD95D
:106DA000A0F14101052940F27481A0F1610105299A
:106DB00000F29381A0F15701C9B260790B44A0F1B0
:106DC0003001DBB2C9B21D440929EDB20CD9A0F1E2
:106DD0004101052940F26181A0F16101052900F21C
:106DE0007C81A0F15701C9B2A079A0F1300C5FFA03
:106DF0008CFC0901BCF1090FC9B20FD9A0F1410CFB
:106E0000BCF1050F40F24D81A0F1610CBCF1050F02
:106E100000F26381A0F1570C5FFA8CFCE0796144C9
:106E2000A0F1300CC9B25FFA8CFC0D44BCF1090F23
:106E3000EDB20FD9A0F1410CBCF1050F40F2148165
:106E4000A0F1610CBCF1050F00F24781A0F1570CD5
:106E50005FFA8CFC207AA0F1300E5FFA8EFE4FEACA
:106E60000C1CBEF1090F5FFA8CFC04F109094ED924
:106E7000A0F14103052B40F2FC80A0F16103052B3A
:106E800000F22B81A0F15703DBB2654453FA85F57C
:106E9000EDB2002A00F09880531E04F10D019BB260
:106EA00001EB43010B3422E0A0F16103052B00F25A
:106EB0001481A0F15702D2B214F8010CA0F13003F2
:106EC000DBB21201092BD2B20BD9A0F14103052B81
:106ED00071D9A0F16103052B00F2FF80A0F15703E7
:106EE000DBB21A44023415448C42EDB26CD014F873
:106EF000020CA0F13002D2B2092AA146DCD9A0F1DD
:106F00004103052BD0D8A0F13702D2B2D4E7E64432
:106F10005FFA8EF005440128EDB200F0CA80002827
:106F2000B7D141EA03214145BFF6EFAE002A79D03F
:106F30000A441FFA82FC0B342DE0A0F16103052BFB
:106F400000F2CB80A0F15703DBB214F8010CA0F1E2
:106F50003002D2B21B01092ADBB20BD9A0F14102E7
:106F6000052A5CD9A0F16102052A00F2B680A0F1E1
:106F70005702D2B21344DBB21D448E42EDB204D8A4
:106F8000884502DD8A1B92B2BB54013189B28C451F
:106F900004F1020446D014F8020CA0F13003DBB275
:106FA000092BA146D1D9A0F14103052BC5D8A0F1E9
:106FB0003703DBB2C9E7A0F13703DBB21A4402346E
:106FC00015448C42EDB292D199F80000A0F1300442
:106FD000E4B2092C09D9A0F14103052B66D9A0F12F
:106FE0006103052B79D85738C4B299F80100FFF72F
:106FF00055FE284400EB041515F0FF0F75D199F8E4
:1070000002200D2A0ABF99F8032009F1020409F1B0
:1070100003040A2A7FF46FAE627801346BE63738D6
:10702000C2B2A7E799F80000FFF738FE044699F8C6
:107030000100FFF733FE054405EB041010F0FF0FCD
:1070400050D199F802200D2A0ABF99F8032009F1BE
:10705000020409F103040A2A01D0A2464BE604F116
:10706000010A6278544646E6A0F1370C5FFA8CFCC0
:10707000F0E6A0F13703DBB207E7A0F13703DBB29C
:107080005CE6A0F13701C9B26DE6A0F13703DBB2CF
:107090007EE6A0F13701C9B28FE6A0F13701C9B28F
:1070A000A2E6A0F1370C5FFA8CFCB7E63738C4B221
:1070B0009BE7607AFFF7F2FD0346A07A1C46FFF7D4
:1070C000EDFD431903EB041313F0FF0308BF9A46C9
:1070D0003FF41BAE0648FFF77BFDFFF7C7FD0548F1
:1070E000FFF776FD0448FFF773FD0448FFF770FDD6
:1070F0008C63050080630500C0630500A063050084
:107100002DE9F04F824683B0CD48CE4EFFF788FA86
:10711000D14619F8011B0A2900F090810D2900F0D1
:107120008D813A2940F0ED819AF80100A0F13003F9
:10713000DBB2092B0CD9A0F14103052B40F2C4812D
:10714000A0F16103052B00F2D281A0F15703DBB25D
:107150009AF80200A0F130085FFA88F2092A4FEA93
:1071600003180CD9A0F14103052B40F2A981A0F12D
:107170006103052B00F2BB81A0F15702D2B29AF84D
:107180000300A0F13003DBB29044092B5FFA88FBC7
:107190000CD9A0F14103052B40F28E81A0F16103CF
:1071A000052B00F2A481A0F15703DBB29AF804008A
:1071B000A0F13007FAB21B01092ADFB20CD9A0F105
:1071C0004103052B40F27481A0F16103052B00F20D
:1071D0008E81A0F15702D2B29AF805001744A0F1AF
:1071E0003003FFB2DBB2BB44092B5FFA8BFBBAB2B0
:1071F0000CD9A0F14103052B40F25681A0F16103A7
:10720000052B00F27481A0F15703DBB29AF8060057
:10721000A0F13007FFB21B01092FDBB20CD9A0F19E
:107220004101052940F23C81A0F16101052900F2EC
:107230005E81A0F15707FFB29AF807003B44DFB226
:10724000A0F13003DBB2BB44092B07EB02275FFA46
:107250008BFBBFB20CD9A0F14103052B40F21C817E
:10726000A0F16103052B00F24281A0F15703DBB2CC
:107270009AF80800A0F13004E4B21B01092CDBB23B
:107280000AF1090940F2E880A0F14102052A40F222
:107290000081A0F16102052A00F229815738C0B2AD
:1072A0009B4450FA8BFB5FFA8BFBB8F1000F00F0A8
:1072B00093800AF10B0A3D461DE02821304618F064
:1072C0007FF9690A304618F07BF9C5F3470130466B
:1072D00018F076F90021304618F072F9C3B2A342D3
:1072E0004FD1C7F101032B44DBB2013543450AF10D
:1072F000020AADB270DA1AF8024CA4F13003DBB224
:10730000092BD1460BD9A4F14103052B5DD9A4F17A
:107310006103052B00F2DC80A4F15703DBB21AF8FD
:10732000012CA2F130011C01CBB2092BE4B20AD925
:10733000A2F14103052B4CD9A2F16103052B00F208
:10734000D880573AD3B21C44E4B2A34415F00103E9
:107350005FFA8BFBB1D120213046019318F030F950
:10736000690A304618F02CF9C5F34701304618F089
:1073700027F9019B3046194618F022F9C3B2A342FF
:10738000AFD03148019322F04BFB30492E4822F018
:1073900097FA102229462C4822F076FC2C492A48DC
:1073A00022F08EFA10222146274822F035FC294986
:1073B000254822F085FA019B23481946102222F025
:1073C00033FC002003B0BDE8F08FA4F13703DBB23B
:1073D000A5E7373AD3B2B6E799F80000A0F1300339
:1073E000DBB2092B0AD9A0F14103052B4DD9A0F13D
:1073F0006103052B7BD8A0F15703DBB299F801009C
:10740000A0F13001C9B21B010929DBB20AD9A0F1F0
:107410004102052A35D9A0F16102052A67D8A0F1F9
:107420005701C9B29B4451FA8BF111F0FF0171D1A0
:1074300099F802300A2B09F1030968D1CA4667E6B8
:1074400040420F0058AF0020D49A0020E8630500A6
:107450000C6405001C6405001C44E4B2A344012C28
:107460005FFA8BFB7FF421AF2E4818F02DF8002136
:107470001A2026F091FA1A20002126F009FA204657
:10748000A0E7A0F13701C9B2CCE7A0F13703DBB226
:10749000B4E73738C0B203E7A0F13703DBB2E7E661
:1074A000A0F13707FFB2C7E6A0F13703DBB2ADE6C4
:1074B000A0F13702D2B28FE6A0F13703DBB275E656
:1074C000A0F13702D2B25AE6A0F13703DBB23FE6B1
:1074D0001549164822F022FA21461022134822F0BC
:1074E0009BFB124822F09CFA1148FFF771FBFFF753
:1074F000BDFB0D490D48019222F010FA019A114688
:10750000EBE70A4822F038FA0A48FFF761FB0A481D
:10751000FFF75EFB0548102222F07EFB0748FFF7CD
:1075200057FB00BF58AF00205C630500D49A0020D1
:1075300070630500DC630500346405002464050005
:107540002DE9F04F7349744885B022F0B9F97348BA
:10755000FFF766F8002869D071496F4822F010FAE9
:1075600042F21070FFF75CF830216E4818F028F8EE
:1075700000216C4818F024F801216A4818F020F81E
:107580000021684818F01CF830210502654818F001
:1075900017F80021634818F013F80221614818F029
:1075A0000FF8002104465F4818F00AF805F47F45FB
:1075B00000EB04245B4817F087FF2C4300211A20BE
:1075C00026F0EAF9A4B200211A2026F061F9631E20
:1075D0009BB24FF6FD72934204D8534B1F683B8811
:1075E000A34204D00024204605B0BDE8F08FFFF789
:1075F000F7FA0521B81CFFF755F80028F2D04948E2
:1076000017F062FF00211A2026F0C6F900211A2087
:1076100026F03EF9642022F0FDFB3E493E4822F070
:107620004FF93E48FEF7FCFF814620B93F493A48F2
:1076300022F0A6F9D6E73A49374822F0A1F9B7F87F
:1076400020A097F8228007F123030293BAF1000FDC
:1076500025D0DFF8DCB003971FFA88F20BEB0806A1
:1076600047461C4600259046A9B220465B46424646
:107670000191FFF72FFB0199044657B12C4B4A4665
:1076800013F8010BFF2818BF00229E42F8D1002AF0
:1076900038D03D44AA4501D9002CE5D1039F02987A
:1076A000FFF72EFD00289DD007F10C042046052190
:1076B000FEF7F8FF002895D0204607F11601FFF7E6
:1076C000FBF8044600288DD0032540F2FF310A2044
:1076D00025F0F8FE40F2FF31032025F0F3FEC8202C
:1076E00022F098FB00210A2025F0ECFE0021032067
:1076F00025F0E8FEC82022F08DFB6B1E13F0FF057D
:10770000E3D170E742465846FFF7A2F90028C0D1FE
:1077100068E700BF28620500D49A0020A086010017
:107720004462050058AF0020846200204C620500CE
:10773000BC6A00202DE9F043674C684E684F87B063
:10774000204619F0D9FD674AA36A67493360019161
:10775000664EE56A664C07CA9B1033604FF480732F
:10776000ADF80830256003AD85E80700029A5E4950
:10777000384617F047FE0021022026F00DF95D4B38
:107780004FF4207043F0010398470021384617F06A
:1077900017FF002406460134E4B22146384617F0AC
:1077A0000FFF0B2C05F8010BF5D1534B4C48197802
:1077B0001431C9B217F004FF0121044602208DF8EC
:1077C000174026F0E9F8464817F07EFEDDE903276A
:1077D0009DF814509DF815009DF8161085EA0003D9
:1077E0007A404B40C2F3072753407B40C2F3074720
:1077F0007B4083EA126304F00302534083EA1313CD
:1078000003F00F03B3EB141F02D007B0BDE8F08301
:10781000FF2EFAD1230203F4407382001D439DF82A
:107820000C30364FDFF8E0803D62940002F4407285
:1078300013439DF80D209DF80E503B6004F44074F6
:107840008E001443830102027C609DF80F009DF8B6
:1078500011404FEA860C03F440732B4302F440724C
:107860009DF81050BB600CF4407C02434CEA040CC1
:1078700006F440708C0128430B029DF81250204EF4
:10788000FA6004F440719DF81340386103F44073CA
:10789000294323431B4DFB61C7E905C13C1F4FF042
:1078A0000009203754F8041F284619F031FE98F8D3
:1078B0000020EB6A2360383512B932689B1A2360C6
:1078C000002BB8BFC4F80090BC4206F10406E9D111
:1078D00007B0BDE8F08300BFF48B0020C491002006
:1078E00058AF00208864050080841E006890002046
:1078F000E0900020F0CE0500F89100207491002067
:10790000509100205C8D00202F8D00202DE9F04348
:10791000C04DC14C297801EBC1032DED028B04EB66
:10792000C30014F8333083B0CA007BB3BB4FDFED24
:10793000BC8AD7ED007A9FEDBB8AC379007A0090AC
:1079400077EEA87A0A4404EBC20167EE887A8A7956
:107950004979FDEEE77A834241F2883994BF804647
:10796000064609FB02F217EE900A09FB01F194BFEB
:107970001E46984622F030FAB04280F2E280AA4FCA
:107980003B78B34240F08E802978CA00501804EB4F
:10799000C000437873B3A54FDFEDA18AD7ED007A1D
:1079A0009FEDA08AC37A007B009077EEA87A0A4404
:1079B00004EBC20167EE887A8A7A497AFDEEE77AAB
:1079C000834241F2883994BF8046064609FB02F2A1
:1079D00017EE900A09FB01F194BF1E46984622F06B
:1079E000FBF9B04280F28A80914F3B78B3424BD191
:1079F0002978CA00531804EBC303987818B993F890
:107A00002030002B3BD08B4FDFED8B8AD7ED007AF7
:107A10009FED848A501804EBC00077EEA87A0A44E0
:107A2000C37B007C009004EBC20167EE887A8A7BFE
:107A3000497BFDEEE77A834242F2107994BF80469B
:107A4000064609FB02F217EE900A09FB01F194BF0A
:107A50001E46984622F0C0F9B04231DA774FDFF87F
:107A6000E0813B7888F80060B34208D02B7803EBC4
:107A7000C30304EBC3039A78002A40F0858003B067
:107A8000BDEC028BBDE8F0832B7803EBC30304EB62
:107A9000C3033246597D987CFEF77AFC29783E7004
:107AA000CA00A7E72B7803EBC30304EBC3033246FA
:107AB000197D587CFEF76CFC29783E70CA0065E79A
:107AC000D7ED007A2B7877EEA87A03EBC30304EBAB
:107AD000C30367EE887A9A7B597B187C0090FDEE91
:107AE000E77ADB7B17EE900A09FB02F209FB01F152
:107AF00022F072F9404554DD4646AFE7D7ED007AF3
:107B00002B7877EEA87A03EBC30304EBC30367EE8D
:107B1000887A9A7A597A187B0090FDEEE77ADB7AB8
:107B200017EE900A09FB02F209FB01F122F054F969
:107B3000404552DD3E4F3B784646B3423FF458AF96
:107B4000A2E7D7ED007A2B7877EEA87A03EBC30390
:107B500004EBC30367EE887A9A795979187A009012
:107B6000FDEEE77ADB7917EE900A09FB02F209FBDA
:107B700001F122F031F9404564DD2B4F3B78464658
:107B8000B3423FF401AF8DE7997DD87C3246FEF7D2
:107B9000FFFB98F800303B7003B0BDEC028BBDE8F2
:107BA000F083D7ED007A2B7877EEA88A03EBC30336
:107BB00004EBC30328EE888A9A7B597B187C0090DB
:107BC000FDEEC87ADB7B17EE900A09FB02F209FB97
:107BD00001F122F001F9C6B240E7D7ED007A2B7827
:107BE00077EEA88A03EBC30304EBC30328EE888A6D
:107BF0009A7A597A187B0090FDEEC87ADB7A17EEF4
:107C0000900A09FB02F209FB01F122F0E5F8C6B285
:107C1000EAE600BF14900020C46000205C900020C1
:107C20000000B44200007A44D88B0020DC8F002092
:107C3000D98B0020308C002000003443DA8B0020E8
:107C400038920020D7ED007A2B7877EEA88A03EBE4
:107C5000C30304EBC30328EE888A9A795979187A0A
:107C60000090FDEEC87ADB7917EE900A09FB02F26C
:107C700009FB01F122F0B0F8C6B280E6BC499FEDE5
:107C8000BD6AD1ED007ABC4BBC4A93ED007ADFEDC2
:107C9000BC6A2DE9F04F67EE867A2DED028BE7EE98
:107CA000267AB84DB84C92ED008A2B78C1ED007A57
:107CB00037EE088A03EBC30338EE678AF6EE008AD4
:107CC00004EBC30368EE288A85B0C2ED008A93F8FE
:107CD000242093F81BB0019293F8252093F82630C6
:107CE0000292039322F08AF82B78A84A03EBC3018F
:107CF000F0EEE87AB3EE047A04EBC101F4EEC77A51
:107D0000F1EE10FA0D7ECCBF012600261670DA00C7
:107D10001DB991F82160002E7AD09D49DFF898C2F4
:107D2000DFF89882DFF898E29A4F0E784FF000095A
:107D30004FF0000AC7F80090CCF80090C8F8009007
:107D4000CEF800A07EB9B6EE007AF4EEC77AF1EE76
:107D500010FA08DD904A012310600B7005B0BDECED
:107D6000028BBDE8F08FDFF83092D9F80090A0EBDD
:107D70000909B9F10B0FF1D9DFF848A29AF8009080
:107D8000B9F1000F1ED0DFF8409299F80060002E84
:107D900047D09FED827A824EF4EEC77AF1EE10FA68
:107DA000C8BF30603668801BB0F5C87F3ED900235D
:107DB00089F800300B708AF8003005B0BDEC028BFA
:107DC000BDE8F08FB6EE007AF4EEC77AF1EE10FA65
:107DD00000F39A80DFF8F09199F80070002FD8D165
:107DE0009FED6E7AF4EEC77AF1EE10FA01DD6C4B7E
:107DF0001860002EB2D06A4B1B68C01AB0F5C87F5D
:107E0000ACD9002389F800300B708AF80030D4E731
:107E100091F82260002E80D191F8231000299DD086
:107E20007BE75F4E0121306089F80010DFED5D7A5D
:107E3000B4EEE78AF1EE10FA4FDAD11804EBC10183
:107E4000FFEE008AC97F00295BD0032900F0FC8087
:107E5000022900F03281052900F00B81042900F08D
:107E60007B81B0EE687A9DB14F499FED506AD1EDAC
:107E7000007A484906EE90BA67EE867AF8EEE66A2E
:107E800067EEA67A67EE877AFDEEE77AC1ED007AB3
:107E9000D11804EBC10191F82100002846D0DDED96
:107EA000017A9FED4A7A91F82710F8EEE77A67EEAB
:107EB000877A99B3032900F03681022900F0F58012
:107EC000052900F06981042900F09A8168EEA77AFB
:107ED000FDEEE77A17EE901A26E0DFED357AD1183D
:107EE000B4EEE78A04EBC101F1EE10FA98BFDFEDC2
:107EF000317AC97F94BF68EEA78AF7EE008A00291D
:107F0000A3D1B1EE687AAEE701268AF800603AE7BD
:107F1000F5EEC08AF1EE10FAC0F2CD8067EEE87A95
:107F2000FDEEE77A17EE901ACCF80010D11804EBAA
:107F3000C10191F82200002855D0DDED027A9FEDB5
:107F4000237A91F82810F8EEE77A67EE877A00290D
:107F500045D0032900F0B980022900F09580052959
:107F600000F03C81042900F0598167EEA87A38E0DE
:107F7000608B00206666663FE88B0020648B0020E3
:107F8000CDCCCC3D14900020C4600020C8900020CF
:107F90005E8B0020D8900020688B00203333B33EE6
:107FA0006C8B00202506F0C1006300200AD7233D1A
:107FB0002506F0410A85883DCC900020D490002011
:107FC000D09000205C8B00205D8B00200AD7233FDF
:107FD00000000000F5EEC08AF1EE10FA5ADB67EE01
:107FE000E87ACEED007A134404EBC30494F823300E
:107FF000002B3FF4B3AEDDED037A1FED0C7A94F85D
:108000002930F8EEE77A67EE877A63B967EEE88A97
:10801000FDEEE87A17EE903AC8F8003005B0BDECF6
:10802000028BBDE8F08F032B64D0022B35D0052BDB
:1080300000F0C180042B00F0068168EEA77AFDEE07
:10804000E77A17EE903AE7E75FED1F7AF5EEC08A20
:10805000F1EE10FA8CBFB0EE677AB0EE687AFFEE00
:10806000007AB4EEE77AF1EE10FAB8BFB0EE677AB4
:10807000F9E6F7EE007AF4EEE78AF1EE10FA40F254
:10808000B880BFEE007AEEE6F5EEC08AF1EE10FAA7
:1080900040F2E7805FED327AA3E7F5EEC08AF1EEB9
:1080A00010FA40F2E7800023B6E7F5EEC08AF1EE61
:1080B00010FA40F2EE80002136E7F5EEC08AF1EECC
:1080C00010FA5ED91FED3E7ACDE6F5EEC08A1FEDBF
:1080D000407AF1EE10FA98BFB0EE687AFFEE006ACF
:1080E000B4EEE67AF1EE10FAB8BFB0EE667A67EE5B
:1080F000877A76E7F5EEC08A1FED4B7AF1EE10FA3B
:1081000088BFF0EE478ABFEE007AF4EEC78AF1EE40
:1081100010FAB8BFF0EE478A68EEA78AFDEEE87A5B
:1081200017EE903A78E7F5EEC08A1FED577AF1EE38
:1081300010FA98BFB0EE687AFFEE006AB4EEE67A05
:10814000F1EE10FAB8BFB0EE667A67EE277AFDEE70
:10815000E77A17EE901AE7E6F7EE007AF4EEE78A90
:10816000F1EE10FA8CBFB0EE677AB0EE687AB5EE39
:10817000C07A5FED697AF1EE10FAB8BFB0EE677AB7
:1081800071E6FFEE007AF4EEE78AF1EE10FABFF640
:10819000B8AEB7EE007A66E6B7EE007AF4EEC78ABC
:1081A000F1EE10FA7FF6B4AEF1EE677AFDEEE77A03
:1081B00017EE901AB8E6F5EEC08A1FED7B7AF1EE65
:1081C00010FA88BFF0EE478ABFEE007AF4EEC78A55
:1081D000F1EE10FAB8BFF0EE478A2EE7B7EE007A5C
:1081E000F4EEC78AF1EE10FA7FF6F4AEF1EE677A9C
:1081F000F7E6F5EEC08AF1EE10FABFF682AE61E75F
:10820000B7EE007AF4EEC78AF1EE10FA98BFB0EE3E
:10821000687A5FED916AB5EEC07A91E7B7EE007AC1
:10822000F4EEC78AF1EE10FA98BFB0EE687AB5EEB8
:10823000C07A5FED996AF1EE10FAB8BFB0EE667AD7
:1082400067EE877ACDE6B7EE007AF4EEC78AF1EEF4
:1082500010FA88BFF0EE478AF5EEC08A1FEDA47AC7
:10826000B6E7BFEE007AF4EEC78AF1EE10FABFF679
:10827000B6AEB6E6BFEE007AF4EEC78AF1EE10FABB
:10828000FFF6DDAE67EEE87AFDEEE77A17EE903A9C
:10829000C2E6BFEE007AF4EEC78AF1EE10FABFF63E
:1082A0003DAE54E74C4B1B68DB05F0B462D44B4B3E
:1082B0004B4D186A95ED007A4A4B4B491A784B4C56
:1082C0004B4B24781B6A4B4F286007EE900AF8EE60
:1082D000C76AF8EEE77AB1EEE67AC2EB8212114491
:1082E0001B1B91F83C2091F83E50434E04EB530386
:1082F000323A03FB02F287FB02C1D217C2EB211212
:10830000B1EEE76A03EB020C322101FB0CF187FBB3
:1083100001C7C9179B1AC1EB6712A6FB05167608A1
:108320009B1A36490A7A76EE477AF5EEC07AF1EE74
:1083300010FADABF37EE467AF3EE0E7AB3EE0E7A23
:1083400027EE277A07EE906A9842F8EEE77A1CDD6E
:10835000E61CB04219DDB4EEE77A0123F1EE10FA23
:108360000B722CD47F2D2AD0254B1B7A53BB254B67
:108370001B7802E0234A00231370234A2349107814
:1083800013704340F0BC0B707047033B98420CDA0B
:1083900000230B721E4A1A4C1A48117A00232372CA
:1083A000037001B113720023E7E70234A042EFDD4E
:1083B000B4EEE77AF1EE10FA08D5002AEAD0104BB5
:1083C00001221A720F4A01231370D6E77F2DF4D0D1
:1083D000002ADFD0C8E700BF8C8F002074910020F6
:1083E000748B002014900020046000203F63002064
:1083F000806300201F85EB51ABAAAAAA808F0020C2
:10840000E49000207F630020788B002047910020BB
:10841000748F0020F0B4CD4BCD4D1A78CD482B6829
:10842000CD49002A73D1CD4A04680F681668E41B51
:10843000A64240F2418143F0010344684F68566808
:10844000E41BB442C0F05181043CB44280F09F81EF
:1084500084688F689668E41BB442C0F03781043C9E
:10846000A64240F29181C468CF68D668E41BA64258
:1084700000F22981043CA64240F2838104690F691D
:108480001669E41BB442C0F02D81043CA64240F2C0
:10849000758144694F695669E41BB442C0F01F817D
:1084A000043CA64240F2678184698F699669E41BA7
:1084B000B442C0F01181043CA64240F25981C46923
:1084C000CF69D669E41BB442C0F00381043CA642E4
:1084D00040F238810C6A006A116A021B8A4280F0FD
:1084E000DB809F4A43F480732B601378022B40F0AB
:1084F000DE809C4B9C4A1B78C3EB8313134493F898
:1085000037301B0740F1D380F0BCFFF7CBBE0E68BD
:1085100004689FED967A914AA41B07EE904AF8EE04
:10852000677A166867EE877AFDEEE77A17EE907A3B
:10853000E41BB442C0F0BD80043CA64298BF23F0C7
:1085400001034F6844689FED897A5668E41B07EE83
:10855000904AF8EE677A67EE877AFDEEE77A17EED3
:10856000907AE41BB44280F0C38043F002038F682A
:1085700084689FED7E7A9668E41B07EE904AF8EED9
:10858000677A67EE877AFDEEE77A17EE907AE41B5A
:10859000B44280F0D18043F00403CF68C4689FEDFB
:1085A000737AD668E41B07EE904AF8EE677A67EEB6
:1085B000877AFDEEE77A17EE907AE41BB44280F0FA
:1085C000B58043F008030F6904699FED687A166966
:1085D000E41B07EE904AF8EE677A67EE877AFDEEC5
:1085E000E77A17EE907AE41BB44280F0998043F06A
:1085F00010034F6944699FED5D7A5669E41B07EEED
:10860000904AF8EE677A67EE877AFDEEE77A17EE22
:10861000907AE41BB4427DD243F020038F698469D1
:108620009FED527A9669E41B07EE904AF8EE677A5E
:1086300067EE877AFDEEE77A17EE907AE41BB44294
:1086400062D243F04003CF69C4699FED487AD6698E
:10865000E41B07EE904AF8EE677A67EE877AFDEE44
:10866000E77A17EE907AE41BB44247D243F08003D6
:10867000006A0C6A116A9FED3D7A021B07EE902A90
:10868000F8EE677A67EE877AFDEEE77A17EE900AE2
:10869000121A8A42FFF425AF043A914201D823F41A
:1086A00080732F4A2B601378022B3FF422AFF0BC6B
:1086B000704743F0010344E7043CA6423FF6BDAED9
:1086C00023F00103B9E643F00803D7E643F00403BF
:1086D000C9E643F08003FDE643F04003EFE643F0D4
:1086E0002003E1E643F01003D3E643F00203AFE6D4
:1086F000043CA64298BF23F0020338E7043CA6429C
:1087000098BF23F08003B3E7043CA64298BF23F050
:10871000400398E7043CA64298BF23F020037DE77E
:10872000043CA64298BF23F0100362E7043CA64233
:1087300098BF23F0080346E7043CA64298BF23F005
:1087400004032AE723F08003C4E600BF2F8D002036
:108750008C8F0020806300205091002074910020B5
:10876000B16100201490002004600020CDCC4C3E6C
:1087700023F04003A3E623F0200395E623F0100343
:1087800087E623F0080379E623F004036BE623F081
:1087900002035DE670B42D4B2D4A1B78D15C422953
:1087A000C0F3470325D82B480478022C1A462CD056
:1087B000294800EB01201929805C164633D071BB93
:1087C000264D274AAD5D157001291BD1254D244A40
:1087D000EB5C1370032901D13F2830D0032C06D065
:1087E000214B1A6840F2FF139A4208BF002070BC68
:1087F0007047184A14781D4A022C08BF03F07F0303
:10880000D05CEBE70A29E1D0E4E7A1F117000128E9
:10881000CED8114A03F07F0302EB0122D05C042979
:10882000D2D11E46CCE7124B1B78002BD6D1602A42
:108830000AD0202A06D03E2A08BF4B20CEE70020CF
:1088400070BC70474A20C9E74920C7E71490002050
:10885000E4620020B1610020E4B40500A0640500DA
:1088600000920020E4B305008C8F0020A469002052
:108870007F63002010B42849284A0C78284B07CA87
:1088800085B00DF1100C0CE907001B7814BB254ACC
:108890001468254AD25C6FEA1424192A04F00104F2
:1088A0001ED0224A2249C3EB83100244C3EBC30308
:1088B00001EB430392F83210DB78B1B9194A106822
:1088C000C0F30020C01AB0FA80F0400905B05DF88E
:1088D000044B7047144AD25C192A4FF00204E0D1CD
:1088E000002005B05DF8044B704792F83710090777
:1088F000E4D592F8390040EA4300C0B204AB00EB83
:1089000040001844044414F80C0C0138C0B205B0FF
:108910005DF8044B704700BF7F630020946405003E
:10892000149000208C8F0020E4620020046000205E
:10893000546300208E4A8F499078F8B556781378A2
:10894000D57814790978002EC3F10003DBB218BF83
:10895000FF23002818BFFF2356798748002D18BF32
:10896000FF23002C18BFFF239479D579127A002EAB
:1089700001EBC10600EBC60018BFFF23002C18BF97
:10898000FF23847E002D18BFFF23002A18BFFF237A
:10899000012C4FEAC1064FF0000268D07748784CAE
:1089A000784D00782478C1EB81173D4400EB4000FE
:1089B00004EB800095F83150734C744F034405FB71
:1089C00002332278DCB2032A3C7035D0704B187821
:1089D000032815D0022800D0F8BD6E4B5B5CA3F1D4
:1089E0004302032A06D9182BF6D86B4A22FA03F35E
:1089F000DB07F1D5FFF73EFF00FB05403870F8BDFF
:108A0000644B13F801C0BCF1010FE5D0BCF10A0FB3
:108A1000E2D0624A624B711A02EB41021B68D278C3
:108A200003F001039342D7D12C44E4B2BCF1070F09
:108A300008BF053C3C70F8BD564B13F801C0BCF1B3
:108A40000F0F66D0BCF10C0F55D0BCF10E0F69D0E2
:108A5000BCF1080F6ED1534B1B78492B59D94C4BA5
:108A600018782C44E4B203283C70B3D1D1E7827F5C
:108A7000002A93D04C484D4D90ED017AD5ED007A07
:108A8000B8EEC77AF4EEC77AF1EE10FA68D4012A8C
:108A90002ED090ED027AB8EEC77AF4EEC77AF1EEF6
:108AA00010FA5FD4022A23D090ED037AB8EEC77A89
:108AB000F4EEC77AF1EE10FA56D4032A18D090EDEE
:108AC000047AB8EEC77AF4EEC77AF1EE10FA45D41C
:108AD000042A43D090ED057AB8EEC77AB4EEE77A6F
:108AE000F1EE10FA42DC052A18BF00227FF456AFDF
:108AF000013AD2B252E72B4B1B78392B09D93E2BC6
:108B000014D12C44BCF1070FE4B211D1053CE4B2FE
:108B10003C701F4B187803283FF47BAF02287FF48A
:108B20005BAF5AE71F4B1B78452BF2D92C44E4B2BC
:108B30003C704BE71B4A12783E2AE2D1BCF1010F90
:108B400002D0BCF10A0FDCD1114A1278032A3FF49B
:108B500043AF022A7FF440AF5B5C46E70422C7E7DD
:108B60002246C5E70222C3E70322C1E70522BFE789
:108B7000748F002014900020C4600020D48F002047
:108B8000CD8F002004600020C18F0020DC900020E9
:108B9000B1610020E4620020510080015463002094
:108BA0008C8F0020E8620020F48F0020DC8F0020F2
:108BB000284B294A1B78C3EB8313134493F83B30AB
:108BC000C3B1264B9FED267AD3ED007AF4EEC77A37
:108BD000F1EE10FA0FD5234A1378022B2BD0BBEEFF
:108BE000047AF4EEC77AF1EE10FA0CDC1E4B1B7817
:108BF000032B1CD07047FBEE046AF4EEE67AF1EE2C
:108C000010FA0BDD174A1378032B14D09FED147A5A
:108C1000F4EEC77AF1EE10FA16DA7047F4EEC77A7E
:108C2000F1EE10FAE2DB104B1B78022BE0D10F4B78
:108C300000221A7070470D4A11780029DAD10A48CB
:108C40000121037011707047074B1B78022BD1D1A3
:108C5000EDE700BF1490002004600020DC8F0020AE
:108C6000000096C2C18F0020898F00205490002000
:108C700070B505460C4621F0C1F81A4A13783BB985
:108C8000194E1A4930601A4E0B6001213360117081
:108C9000CDB9154B17491B680968C31A8B420ED210
:108CA000124B1968A1B1124B19681C60611AB1F519
:108CB000FA6F11D09DB1012D0ED100290CDB0023DC
:108CC0001370022070BD012DF9D1074B0A49E2E76C
:108CD000074901220C601A60084B187870BD002902
:108CE000FADCECE78A8F0020708B00204490002093
:108CF00038900020C862002050620020448D00207F
:108D00002DE9F843A74BA84E1B78C3EB83123244DE
:108D1000980192F82D20403A07EE902AF8EEE77A73
:108D200000F1E4809FEDA17AF7EE000AE7EE870AF2
:108D3000C21A324492F82E20403A07EE902AF8EEFA
:108D4000E77A00F1DE80DFED996AB7EE007AA7EEF0
:108D5000A67A974AC3EBC30102EB4102927A002A3A
:108D600000F09C80934AC51A12783544012A95F880
:108D7000241095F8277095F828E095F825C095F807
:108D8000294095F82A8095F82C9000F0C880092396
:108D90006422403CA8F14008B9F1000913FB01210D
:108DA00013FB072713FB0E254FEA44044FEA48083C
:108DB00018BF4FF0010913FB0C227F4E3368BB42F2
:108DC00034DC791A0129B8BF012107EE901AFB1A89
:108DD000B8EEE77A07EE903AF8EEE77AF7EE006A37
:108DE00087EE870AB4EEE60AF1EE10FAF4EE660AB0
:108DF00088BFB0EE660AF1EE10FA01D01EF08CFDCD
:108E000007EE904AF8EEE77A27EE800A6B4B9FED6B
:108E10006C7AD3ED007A6B4B67EE877A27EE800A87
:108E2000BDEEC00A83ED000ABDE8F883AB4273DBF8
:108E3000521B012AB8BF012207EE902A5B1BF8EEF5
:108E4000E76A07EE903AF8EEE77A9FED5F6A87EE01
:108E5000A60AF7EE007AB4EEC60AF1EE10FAB4EE06
:108E6000677AB8BFB0EE460AF1EE10FA03D0F0EE22
:108E7000470A1EF051FDB9F1000F08D0F7EE007A55
:108E8000B4EEE70AF1EE10FA88BFB0EE670A07EE1B
:108E9000908AF8EEE77A27EE800AB7E74B4A127815
:108EA000032A50D0434A4A4912780968012A3CD023
:108EB000C31A1E44092296F82B0096F801806423F9
:108EC00012FB0032521A01EB42028B186FF01304AE
:108ED0005F1004FB08F41420B7EE007AF0EE470AA6
:108EE00008FB00F83D464FF0010966E7DFED396AFF
:108EF0009FED397A77EEA67AF5EE000AE7EE870A5B
:108F000016E79FED347ADFED346A77EE877AB5EEB7
:108F1000007AA7EEA67A1CE79FED2B0A76E72B4A8C
:108F20001278032A2BD02A4A11682C4AC31A1E44ED
:108F3000126896F801806FF01304531804FB08F4CC
:108F40005F100A20C8E7254A214C25492468126889
:108F5000184D09682D78C31A1E44121B96F801801B
:108F600001EB6202012D01EB02036FF013044FEAE3
:108F7000630704FB08F40CBF0A201420ACE7174A6F
:108F8000134B17491B681268096895F80180D21ABB
:108F900001EB620253186FF013045F1004FB08F436
:108FA0000A2099E71490002004600020320C433D11
:108FB00054630020B161002068900020006300200D
:108FC0000AD7233C588D002000000000C18F0020EC
:108FD00044630020000080420000403CC891002013
:108FE000CC9100202DE9F84FB74BB84ADFEDB87AA5
:108FF000D2ED004A9FEDB75A9FEDB77ADFF8F482C1
:109000009FEDB64A2DED048BD3ED009AB44BF4EEF0
:10901000E79A93ED009AB34BF1EE10FAF4EEE74ABB
:109020008CBFF0EE675AF0EE695AF1EE10FA75EE69
:10903000A75A8CBFB0EE676AB0EE646AB4EEC59A08
:1090400076EE277AB0EE478AB1EE046AF1EE10FAB6
:10905000A5EE868A1D78A44B8CBFF0EE456AF0EE33
:10906000496AF0EE475A76EE856AE7EE865A05EBD6
:10907000C50708EBC707B0EE045AA6EE857A97F845
:109080004560FDEEE57AD3ED008A17EE902AFDEEFD
:10909000C77ABDEEC88A17EE904A68EE848A4FEA16
:1090A000C509002E76D0DFED917A97F8313097F828
:1090B0002CE097F82A1097F82D0097F82BB097F826
:1090C0002E6097F82F70F4EEE74AF1EE10FA4FF0A9
:1090D000640CB8BF62464FF0190A403B07EE903A65
:1090E0001AFB0ECC00F1D08109EB050308EBC3039A
:1090F000F8EEE77A93F832309FED807AF7EE000AC7
:10910000403BE7EE870A00F1D48107EE903ADFEDAD
:109110007B6AF8EEE77AB7EE007AA7EEA67A09EB5B
:10912000050308EBC303944593F830A0F0EE477AAB
:10913000C0F2D881AEEB010101EB810101EB8101AD
:109140000129B8BF0121ACEB020207EE901A07EE2D
:10915000102AF7EE006AF8EEE77AB8EEC77AF4EE76
:10916000660AF1EE10FA87EE270A01D01EF0D4FB52
:10917000BAF1000F40F06982403E760007EE906A37
:10918000F8EEE77A67EEA87A67EE807AFDEEE77A86
:1091900017EE906A09EB050008EBC00090F8463026
:1091A000002B00F0E580DFED517A90F835C090F8A3
:1091B0003A3090F8332090F8361090F834E090F878
:1091C000377090F838A0F4EEE79A18EE100AF1EE36
:1091D00010FA4FF0640BB8BF584608EE100A403B37
:1091E0004FF0190007EE903A10FB0CB000F1BA8175
:1091F00009EB050308EBC303F8EEE77A93F83B307D
:109200009FED3E7AF7EE000A403BE7EE870A00F159
:10921000BE8107EE903ADFED396AF8EEE77AB7EEF5
:10922000007AA7EEA67AF0EE477A09EB050308EB81
:10923000C30393F839B018EE103A984260DA192255
:10924000642312FB013318EE102A934200F390803E
:10925000AEEB010101EB810101EB81010129B8BFF6
:109260000121D31A08EE103A07EE101AB8EEC88A98
:10927000B8EEC77ADFED1E6A88EE070AB7EE007A0D
:10928000B4EEE60AF1EE10FAF4EE477AB8BFB0EEAB
:10929000660AF1EE10FA03D0F0EE670A1EF03CFB0E
:1092A000BBF1000F08D0F7EE007AB4EEE70AF1EE5A
:1092B00010FA88BFB0EE670AAAF1400A4FEA4A0ADC
:1092C00007EE90AA49E000BFDC8F00205C900020F0
:1092D0000000B442000034430000C8420AD7233CD7
:1092E000308C002014900020006300200000B4C2E5
:1092F00000000000C4600020000034C3320C433D75
:10930000ACEB020202EB820202EB8202012AB8BF3E
:10931000012207EE902AC31A08EE103AB8EEE77A57
:10932000F7EE007AB8EEC88AF4EE670AF1EE10FAAA
:1093300088EE070A01D01EF0EFFABBF1000F08D04B
:10934000F7EE007AB4EEE70AF1EE10FA88BFB0EE5D
:10935000670A403F7F0007EE907AF8EEE77A67EE03
:10936000A87A67EE807AFDEEE77A17EE903A1E440F
:1093700009EB050208EBC20292F84730002B72D0CD
:109380005FED237A92F8433092F83E1092F83CE079
:1093900092F83FC092F83D0092F8407092F841A0D8
:1093A000B4EEE79AF1EE10FA4FF06402B8BF14463B
:1093B000403B07EE903A4FF0190BF8EEE77A1BFBB3
:1093C000012256D41FED337AF7EE000AE7EE870A42
:1093D00009EB050308EBC30393F84430403B07EE69
:1093E000903AF8EEE77A00F123811FED3C7AF7EE30
:1093F000006AE7EE876A09EB050308EBC3039442B2
:1094000093F8425000F3D480A1EB0E0101EB8101EF
:1094100001EB81010129B8BF0121131B07EE103AAE
:1094200007EE901AF7EE006AF8EEE77AB8EEC77A20
:10943000F4EE660AF1EE10FA87EE270A01D01EF06C
:109440006BFA002D40F00B81403F7F0007EE907AD1
:10945000F8EEE77A67EEA88A68EE808AFDEEE88A81
:1094600018EE903A1E44BDEC048B824B1E60BDE8A2
:10947000F88FDFED816A9FED817A77EEA67AF5EEBF
:10948000000AE7EE870AA3E709EB050308EBC3032D
:10949000F8EEE77ADFED786A93F832309FED777A6D
:1094A00077EEA67AF5EE000A403BE7EE870A7FF5F5
:1094B0002CAE07EE903A9FED707ADFED706AF8EE11
:1094C000E77A09EB050377EE877AB5EE007AA7EE27
:1094D000A67A08EBC303944593F830A0F0EE477AE0
:1094E000BFF628AE1921642311FB0033934200F329
:1094F000AA80ABEB000000EB800000EB80000128AD
:10950000B8BF0120D21A07EE100A06EE902AB8EE74
:10951000C77AF8EEE66A9FED5A6A86EE870AB7EEDA
:10952000007AB4EEC60AF1EE10FAF4EE477AB8BF4C
:10953000B0EE460AF1EE10FA03D0F0EE670A1EF024
:10954000EBF9BAF1000F08D0F7EE007AB4EEE70AB3
:10955000F1EE10FA88BFB0EE670A403F7F0007EED9
:10956000907A0DE609EB050308EBC303F8EEE77A02
:10957000DFED416A93F83B309FED407A77EEA67AB3
:10958000F5EE000A403BE7EE870A7FF542AE07EEB4
:10959000903A9FED397ADFED396AF8EEE77A77EEA7
:1095A000877AB5EE007AA7EEA67AF0EE477A3CE627
:1095B0001923642213FB0C239C42FFF654AFA0EB4B
:1095C0000C0000EB800000EB80000128B8BF0120F8
:1095D00007EE900AE41AB8EEE77A07EE904AF8EE42
:1095E000E77A9FED276A87EE870AF7EE007AB4EEF6
:1095F000C60AF1EE10FAF4EE676AB8BFB0EE460A9A
:10960000F1EE10FA03D0F0EE660A1EF085F945B1CE
:10961000F7EE007AB4EEE70AF1EE10FA88BFB0EE8A
:10962000670AAAF1400A4FEA4A0A07EE90AA0FE732
:10963000DFED116A9FED117A77EEA67AF5EE006AFA
:10964000E7EE876AD7E60026A4E5F7EE007AB4EEE7
:10965000E70AF1EE10FA88BFB0EE670A8CE5F7EE84
:10966000007AB4EEE70AF1EE10FA88BFB0EE670AAE
:10967000EAE600BF84680020000080420000403C11
:10968000000000002DE9F04FBE4BBF4F1E78DFF801
:1096900034A3C6EB86133B4485B093F8358093F82A
:1096A000334093F834900546404629F069F8B74BAB
:1096B000002229F0CFF829F07DFBB54BDFF808E355
:1096C0001A781EF805100291AA424FEA861107EE99
:1096D000900A019100F0E5809FEDAE7A5AF82500DE
:1096E000AD4AAE4992F800C051F825100391A1EBA4
:1096F0000C01DFF8D8B21D700CEB5101323C01FBBC
:1097000004F48BFB0432E417C4EB2213CA18A44CF4
:1097100009FB02F28BFB029BA45DD217C2EB6B121A
:109720000192002C47D0032C45D0019AA1EB0309EC
:10973000A9EB020981457ADBA9F10309814504DC23
:10974000DAF82090E14580F21381F8EEE77A4FF0E5
:109750000009B4EEE77AF1EE10FA0EF80590CE4665
:1097600000F18A80B8F17F0F00F08680CDF8089074
:10977000002C75D0032C73D0029A002A7CD0DFF81D
:109780002C8218F80580B8F1000F00F08480B30136
:109790009E1B374497F83830002B42D1814A824BC8
:1097A000D2ED007AFDEEE77A17EE902A43F82520F5
:1097B00005B0BDE8F08FB201A2EB0609B94499F8F3
:1097C0003890B9F1000FB0D1A0EB01099944B9F17B
:1097D000000F019AB8BFC9F10009914580F2B98024
:1097E0000CF10309814526DB8145B4BF4FF0000E23
:1097F0004FF0010EF8EEE77AF4EEC77AF1EE10FAC8
:1098000002DCB8F17F0FB3D1029A002A34D0674B43
:1098100001225A55B3019E1B374497F83830002B6C
:10982000BCD0634B01225A5505B0BDE8F08F0CF156
:10983000030B834580DAF8EEE77A4FF00109B4EEC6
:10984000E77AF1EE10FA0EF8059000F18D80B8F18C
:109850007F0FDCD0CDF808904FF0000E002C89D19E
:10986000B201A2EB0608B84498F83880B8F1000FAE
:10987000CAD0029A002A82D1DFF83481DFF82CB1F5
:1098800018F805A04FF000090BF80590BAF1000F89
:1098900001D008F80590BEF1000F21D005B0BDE859
:1098A000F08F444A5AF8250052F8251007EE100AA6
:1098B00006EE901AB8EEC77AF8EEE66AF1EEC75AED
:1098C000B1EEE66A35EEC67AB5EEC07AF1EE10FA80
:1098D00051DDF3EE0E6A27EE267A42F82500FFE608
:1098E000B201961B374497F83860002ED6D10CB1E0
:1098F000032CD3D1CB1A83426ADD2F49019A51F848
:1099000025109FED2E6A9B1A5B1A2D4AA3EB0C03C0
:109910001278012BB8BF012307EE902A07EE103A08
:10992000F8EEE77AB8EEC77AA0EB0C0067EE277A7C
:1099300007EE100AF8EEC76A86EE277A1A4A67EE33
:10994000267AFDEEE77A17EE903A5B0042F8253072
:10995000A4E702F1030AD1450CF103097FF744AFF4
:109960008145FFF6F2AE3FE7104B03F805900EE796
:109970004FF0000E3EE736EE656AB3EE0E7A26EE45
:10998000077AAAE714900020046000200000F83F46
:109990003D63002000C079443F63002080630020C5
:1099A000FC6200200063002060620020E490002040
:1099B000748F0020848B00205091002000FC7F4594
:1099C000D962002074910020808F00201F85EB5108
:1099D00019499FED1A6A0A7806EE902A019A1344F3
:1099E000039AD21A012A38BF012207EE902AF8EE14
:1099F000E66AF8EE677AC31A67EEA66A07EE903A4F
:109A000086EE267A0E4A0F4BF8EEE77AD2ED006A20
:109A100067EE277AFDEEE77A17EE902A520007EEFE
:109A2000902AF8EEE77A77EEA67AFDEEE77A17EE5F
:109A3000902A43F8252031E7D962002000FC7F45B9
:109A400000630020606200202DE9F04FDFF8C4B110
:109A5000DFF8C4919BF8002063486449805C097872
:109A6000C2EB82134B4485B093F8374093F836200D
:109A700093F8265042EA0413DBB2039300287AD00D
:109A80008D422B4628BF0B46CDE90131584EDFF8F9
:109A90008C81584FDFF888A1002413E0564B1A78C8
:109AA000AA4201D1FF221A70DFF864C15348544919
:109AB000544A00234CF8243023546354A354082DF3
:109AC00056D00134336823FA04F2D207E5B2E5D464
:109AD0003A7858F824109142E6DDDAF80020002A9E
:109AE000E2D10120A0401843FEF754FE464A9BF8FD
:109AF00000303D49127811F803C0801ABCF1000F04
:109B00003DD1C3EB83114944019A91F832E05242AE
:109B10008242B8BF02469901BEF1000F37D1CB1A7D
:109B20004B4493F83A300BB3002ABDD0029B9A42C3
:109B3000BADC5B429A42B7DB387858F82410334BD2
:109B4000091A07EE901A03EB840393ED007A30496B
:109B5000F8EEE77A524267EE877AFDEEE77A17EE83
:109B6000903A02FB03F341F82430A8E7082CDBD13C
:109B700005B0BDE8F08F0223CDE9013386E7C3EBE2
:109B800083124A44990192F8322072B10246A1EB45
:109B9000030ECE449EF838E0BEF1000F0AD1023029
:109BA00017D0BCF1000FBAD01046BCF1030F86D11C
:109BB0000246B4E7023082D1002C82D0039A631EA1
:109BC00042FA03F3DB077FF57AAF2846FFF75AFD29
:109BD00075E7002CE5D0039804F1FF3E40FA0EF043
:109BE000C007F2D4DDE700BFFC620020D96200208C
:109BF0008C8F00203F6300203D630020E490002014
:109C0000748F0020808F0020E8620020989100204F
:109C100060620020149000200460002074910020F5
:109C2000C09100202DE9F84F3D4C3E4824220021F0
:109C300029F0B0FB237853B1032B08D03A4A3B49B3
:109C40001278C2EB82120A4492F8322012B1FFF766
:109C5000FBFE2378022B56D0354BDFF8E8C03548A1
:109C6000354C364AD3F80090DCF8001000682478B0
:109C7000D2F800E02B4E324DDFF8CC80DFF8CCA0DC
:109C80000023012712E055F82320A2420BDA20FA24
:109C900003F207FA03FBD20721EA0B0103D521FAED
:109CA00003F2D2070AD50133092B2AD021FA03F295
:109CB000D207E8D420FA03F2D207F4D556F82320CD
:109CC000002AF0D155F823B05C451EDA2EFA03F2D3
:109CD000D20721D4ABEB040207EE902A0AEB8302F1
:109CE00092ED007A03F80870F8EEE77A67EE877A6B
:109CF000FDEEE77A17EE902A46F823200133092B70
:109D0000D4D1CCF80010BDE8F88F2EFA03FB03F88D
:109D100008205A46D207C6D546F82390C3E700BFAD
:109D2000E08F00206062002014900020046000207A
:109D3000F08B0020BC6300203F6300208C8F00204C
:109D400074910020908F0020E48F00200492002066
:109D50002DE9F843AB4CAC482422002129F01AFB32
:109D6000237853B1032B08D0A84AA9491278C2EB33
:109D700082120A4492F8322012B1FFF765FE23786E
:109D8000022B3ED0A04CA368002B3CD09F4BA14A95
:109D90001B78D35C9A1E012A40F2C9809E4A127831
:109DA000012A00F08A8002250026022A29D113F018
:109DB000FB0F00F08A80012B01D00A2B21D1974B99
:109DC0001A68D60500F15D81150700F15781944BA3
:109DD000944ADB681278934240F372819248934927
:109DE000D0ED007AD1ED036A9B1A07EE103AF8EE37
:109DF000E77AB8EEC77AE7EE667AFDEEE77AC4ED69
:109E0000037ABDE8F883E568002D35D16FF00106CF
:109E10007E4B804A1B78D35C9A1E012A42D87F4F22
:109E200038684307C0F380092CD50023DFF8F88198
:109E3000A360032D77D038680207C0F3C0091ED491
:109E40007B4D2A78002A40F0CE807A4B18687A4BF6
:109E50001B78834200F0A180D4E90231D8F80020B9
:109E60000B445B429342CCDD012E67D95242002362
:109E7000C4E90223BDE8F88301260325C8E70023CF
:109E8000E360E9E7DFF8A88198F80020002A40F0B5
:109E9000A080684B1868684B1B78834270D0DFF84D
:109EA0008881C6E75C4A1278012A7FF47EAF5E4A59
:109EB00012680023C4E90223A3E7E368002BA0D1C2
:109EC000594AA3601368E3609BE7564B54491A78DC
:109ED0008B6852489A42006835DB022D00F0EB8017
:109EE0000023A360CB689A4245DA070743D4032DC9
:109EF0000DD09B1A4D4907EE903A91ED037AF8EE9A
:109F0000E77A67EE877AFDEEE77AC4ED037A012EF1
:109F10007FF677AFD4E90231434A12680B4493428B
:109F20007FF76FAFA3E73868C10595D484E73B4F4F
:109F3000386810F480761AD1022572E73B68DB0599
:109F40003FF55FAF92E74707C7D4022D00F0B3801B
:109F50009B1A364F07EE903A97ED027AF8EEE77AC1
:109F600067EE877AFDEEE77AC4ED027ABAE7DFF8AA
:109F7000B88000265FE7032DC9D00023E360C6E761
:109F8000274A284B92681B7893425BDBDFF8988066
:109F9000D8F800305B42A3604BE7214A214BD268DE
:109FA0001B789A4229DD2549254BC968DB680A449C
:109FB0009B1A07EE903A1D49F8EE677A91ED037A05
:109FC00067EE877AFDEEE77A17EE903A5B42E36040
:109FD00042E740F004003860FEF7DCFB154B88F8E0
:109FE0000090186057E740F008003860FEF7D2FB99
:109FF000104B85F80090186029E7D8F800305B42D4
:10A00000E36029E7E08F00206062002014900020C8
:10A0100004600020E4620020009200208C8F002069
:10A02000749100203F630020F08B002004920020F8
:10A0300054620020A88B0020E8620020509100208C
:10A04000806300202049214B89689B68DFF88C8061
:10A050000A449B1A07EE903A1D49F8EE677A91ED93
:10A06000027A67EE877AFDEEE77A17EE903A5B4266
:10A07000A360DEE602DB12077FF5C3AE0023E360D8
:10A08000BFE6144B1449DB6809788B42F2DD1007F8
:10A09000F4D4032D3FF4B5AE5B1A0D4A07EE903AA7
:10A0A00092ED037AF8EEE77A67EE877AFDEEE77ACB
:10A0B000C4ED037AA5E6CB689A42FFF616AF5CE7DB
:10A0C000064B1B68E3609CE65091002080630020F3
:10A0D00004920020749100203F630020F08B002048
:10A0E00070B52D4C2378E3B96378002B30D1A37879
:10A0F00003B970BD294E1FF081FEB368C01AC7288E
:10A10000F7D9274D1FF07AFEAB78B0600226002BFE
:10A1100034D140F2FF31032023F0D4F90123AB7096
:10A1200070BD1E4E1FF06AFE3368C01AC728DBD907
:10A130001B4D1FF063FE2B78306053BB40F2FF31A4
:10A14000082023F0BFF901232B706378002BCED0B9
:10A15000124E1FF053FE7368C01AC728C7D9104D9E
:10A160001FF04CFE6B7870603BB940F2FF310A2063
:10A1700023F0A8F901236B70B9E70126094B0021F0
:10A18000985D23F09FF9A35D0022013BA355AA55DA
:10A1900070BD0026F2E700BF2C8D0020B08B0020A0
:10A1A0008C680020E4CE05002DE9F8432C4D2D4F9E
:10A1B0002D4C2E4EDFF8CC902DED068B9FED2C9A7A
:10A1C000DFED2CAADFED2C8A9FED2CAADFED2C9A77
:10A1D00005F1030815F8011B012381B3D4ED007AC2
:10A1E000337037EEA87AF4EEC97AF1EE10FAB0EED9
:10A1F000470A2EDC84ED007A1DF05EFAB7EE008A85
:10A2000030EE088A28EE0A8AFCEEC87A28EE298AFF
:10A2100017EE901A387823F055F9D4ED007A37EE1E
:10A22000888A84ED008AA84507F1010704F1040437
:10A2300006F10106CED1BDEC068BBDE8F88333787C
:10A24000002BF0D03878317023F03CF9C4F800903E
:10A25000E9E7B0EE6A8AC4F800900021DAE700BFAF
:10A2600040900020E4CE0500A4610020BC8B0020BB
:10A270000AD72F410AD7232F0AD7A33B00C0FF4399
:10A280000A00A436B4C896403F4B404A1B68126887
:10A2900070B53F4D06010446A3EB8200AB5920EA9E
:10A2A000E07005EB0412B0EB830F526882B04FEA06
:10A2B000830159D2084692004FF480630093002333
:10A2C0001FF08AFD334A125D012A034651D0022A4B
:10A2D0002CD0314ADFED316A12F8140002EB44024F
:10A2E00007EE900A5278101A03FB00F3B8EEE77AF3
:10A2F00007EE903AF8EEE77A294BA7EEA67A3544B6
:10A3000003EB8403012CF0EE477ABCEEC77AC3ED71
:10A31000007A17EE102A85ED037A05D1214B12F051
:10A32000FF0214BF1A701C7002B070BD0028D0D09C
:10A3300028F026FA41EC100B1DF008FA10A3D3E91F
:10A34000002351EC100B28F085FA28F07BFD07EE76
:10A35000900A9FED157A67EEA77A67EE877AFDEE91
:10A36000E77A17EE903AB4E79200904228BF104681
:10A37000A2E700FB00F003FB00F31B15A9E700BFF9
:10A38000FE822B654715F73FE090002044630020D4
:10A3900088620020488D0020EC6200200000803A96
:10A3A000A48F0020AB6300200AD723412DE9F041A0
:10A3B000DFF83C8006460F46D8F800004FF0FF312A
:10A3C0001D46144620F072FA3A4631460720FBF744
:10A3D000DFFF2A4621460720FBF7DAFF0023D8F8E3
:10A3E00000001A46BDE8F04119461FF037BE00BF15
:10A3F000B48F0020F8B504460E461FF0FFFC2E4B2C
:10A400001B78002B36D00546E4B12C4F3B78002B4F
:10A4100031D12B4B2B4C186001223A70BEB1217800
:10A42000002945D01B68EB1A192B10D9264B196847
:10A430007322CBB27220C1F3C711FFF7B7FF00231D
:10A440003B7004E00EBB1D4F3B785BBB1D4C23787B
:10A4500083B11E4B1868281A19280BD91C4B196890
:10A460007622C1F3C713742001F07F01FFF79EFF2E
:10A4700000232370F8BDAEB1124C237883B9134A80
:10A480000F4B106001222270CCE70E4C0B4F23784B
:10A490003A7853B90D49012308602370002AE9D0A6
:10A4A000074BBFE7064B074CBCE7002AD1D0F7E7C4
:10A4B000064922700860B5E7348D0020DC8A002050
:10A4C000E08A0020DD8A00208C8F0020E48A0020B2
:10A4D000689000202DE9F0418C4C10290D4624781D
:10A4E00028BF1025012D38BF0125012C82B000F0B6
:10A4F000F00002F07F0703F07F0636D0002C40F01A
:10A50000AF80834B93F80080B8F1020418BF012498
:10A51000A02800F08A8010D8802874D0902809D113
:10A52000014600957B4833463A46FBF7D9FEB8F121
:10A53000020F44D102B0BDE8F081B02848D0E02835
:10A54000F8D107EBC612A2F5005212B202F5005480
:10A55000014600956F4802F07F02C4F3C713FBF772
:10A56000BFFEB8F1020FE5D09FE06B4BD3ED007A50
:10A57000F5EE407AF1EE10FA0CBF01230023A0287B
:10A5800000F09D8011D9B02800F0AE80E028D1D134
:10A5900007EBC612F5EE407AA2F50052F1EE10FA82
:10A5A00012B277D002F500547FE0802800F0A0803E
:10A5B0009028BFD1F5EE407AF1EE10FA58D0574806
:10A5C000009533463A469021FBF7B6FEB2E70124E8
:10A5D00007293DD10123652F7ED8002B38D1504B60
:10A5E0001B78012B34D924B94D4B1B7813F0FD0F88
:10A5F000A0D14A48009533463A46B021FBF79CFE6D
:10A6000002B0BDE8F08101460095424833463A4623
:10A61000FBF766FEB8F1020F8CD040480095334638
:10A620003A468021FBF788FE84E7014600953948C9
:10A6300033463A46FBF754FEB8F1020F3FF47AAFC7
:10A640003648009533463A46A021FBF775FE71E780
:10A650003048009533463A46B021FBF741FEC2E749
:10A66000A02831D00CD8802847D090287FF462AF42
:10A6700001460095274833463A46FBF731FE9EE7F0
:10A68000B028A4D0E0287FF455AF07EBC612A2F59E
:10A69000005212B202F500541E48009502F07F02EB
:10A6A000C4F3C713E021FBF71BFE1C480095C4F35D
:10A6B000C71304F07F02E021FBF73EFE3AE7F5EE18
:10A6C000407AF1EE10FABBD10146009511483346AD
:10A6D0003A46FBF705FEB3E70E48009533463A4687
:10A6E000B021FBF7FDFD84E707297FF476AF72E721
:10A6F000F5EE407AF1EE10FA8FD10146009505484B
:10A7000033463A46FBF7ECFD87E700BF9C6100202B
:10A71000A069002090680020388D00207467002018
:10A72000358D0020000000002DE9F04F2DED068B47
:10A730009FB015AB0CAA03A9D748DFF8E083D74F29
:10A74000D74ED84DD84C15F079FCD84BDDED137AA7
:10A7500093ED001AD64BD749D74AC3ED007AD74BB1
:10A76000D2ED000AD1ED006A9DED110A9DED127A3D
:10A77000D34AD449DB6882ED000ADDED081A9DED6D
:10A78000092ADDED0A2AD04AD04881ED007A30EE60
:10A79000660A77EE600A37EEC11A1A9980ED000A50
:10A7A000DB01C8ED000A87ED001AC6ED001A85ED41
:10A7B000002AC4ED002A116004D5C54B1A68D007E1
:10A7C00000F11E8320F088FDC24BC04AD8ED000A7C
:10A7D00092ED000A97ED001AD6ED001A95ED002AC9
:10A7E000D4ED002AA0FB0301830A43EA815307EE5C
:10A7F000103AB94C9FEDB96AD4ED0F7ADFEDB88A03
:10A80000DFEDB86AB8EE477A204677EE677A84EDD6
:10A810000E7A67EE867A84ED0F7AF4EEE87AF1EE3E
:10A8200010FA98BFF0EE678AF4EEE68AF1EE10FABD
:10A83000B8BFF0EE668AB0EE683AC4ED107A16F052
:10A840002BFC94F82830002B00F0E382DFF8D0A234
:10A85000236BCAF80030DFF8CCB2D4F82C90CBF8D8
:10A860000090A14BD4ED0D7A93ED007A9F4B37EE1B
:10A87000877AC3ED007A17EE100A17EE105A27F008
:10A8800091FF7FA3D3E9002306460F4628F072FA12
:10A89000002800F0A2827CA3D3E900233046394689
:10A8A00027F020FE28F0CEFA914B01930546186060
:10A8B000484627F077FF72A3D3E9002327F014FE60
:10A8C00028F0C0FA814627F06DFF6DA3D3E900237D
:10A8D00006460F4628F04EFA48B16BA3D3E9002391
:10A8E0003046394627F0FEFD28F0ACFA8146DAF80A
:10A8F000000080F0004027F055FF65A3D3E9002356
:10A9000027F0A8FF28F09EFA09EE900A89F000408F
:10A91000CAED009A27F046FF5DA3D3E9002327F094
:10A9200099FF28F08FFA09EE100A85F000408BEDB0
:10A93000009A27F037FF56A3D3E9002327F08AFFB8
:10A9400028F080FA6B4B01991A680860D1070AEE6B
:10A95000100A694D40F13A8295ED008A674E684FC2
:10A9600096ED007AD7ED007A39EEC77A7AEE677AFB
:10A97000B5EEC07AF1EE10FAF5EEC07A4CBF0122C6
:10A980000022F1EE10FA4CBF012300239A42B5EEEB
:10A99000C09A00F0B781F1EE10FA40F3B781B0EE43
:10A9A000C99AD8F8000027F0FDFE39A3D3E90023A7
:10A9B00027F050FF804618EE900A894627F0F2FEF5
:10A9C00002460B464046494627F044FF804618EEB3
:10A9D000100A894627F0E6FE02460B4640464946E5
:10A9E00027F082FD28F02EFA08EE100AF5EEC09A44
:10A9F000F1EE10FAB5EEC08A4CBF01220022F1EE52
:10AA000010FA4CBF012300239A4287ED00AAC6ED3D
:10AA1000009A286000F0F181DFED3A7A68EE277A3B
:10AA20009FED397A394BB4EEC79AF1EE10FAADBF0B
:10AA3000002238EE678AC3ED007A1A60344E9FED2B
:10AA4000355ADFED355A85ED008AA6F138030FCB74
:10AA500086E80F0094ED116A94ED127A94ED130AD2
:10AA6000D4ED146A66EE077A28EE058AE0EE267ABF
:10AA70008AED008A77EEA77A56E000BFAFF3008038
:10AA8000182D4454FB210940182D4454FB21194032
:10AA9000F8C1631ADCA54C40F09000206C8F0020B8
:10AAA000E48B0020E88B0020EC8B0020708F0020CE
:10AAB00050900020608F0020688F0020F0ED00E0B3
:10AAC000489000204C900020886800205C8F002077
:10AAD000001000E040420F0074900020BD37863522
:10AAE0000AD7233C6F12833A34920020408D002015
:10AAF00030920020B86A0020D48B0020D08B002038
:10AB0000CC8B0020CDCCCC3C0000AA42C08B0020D6
:10AB1000B89000209A99993F52B87E3F648F0020E8
:10AB20005C900020DC8F0020F0EEE77AF4EEE57A0E
:10AB3000F1EE10FA40F13F8127EE000A27EE077A86
:10AB4000A6EE660AA6EEA67AF0EE007AF7EE000A06
:10AB5000E7EE670A30EE000A1CF0DCFE10EE100A89
:10AB600027F020FEE2A3D3E9002327F073FE28F0AC
:10AB700069F99FEDC57A07EE900AF4EEC77AF1EE17
:10AB800010FA0CD99FEDC16ADFEDC16AB0EE677AA9
:10AB9000B4EEE67AF1EE10FA77EEC67AF6D89FEDCB
:10ABA000BD7AF4EEC77AF1EE10FA0CDA9FEDB76ACF
:10ABB000DFEDB96AB0EE677AB4EEE67AF1EE10FA3C
:10ABC00077EE867AF6DBB54AB54BD2ED006A9FED9B
:10ABD000AE7AC3ED007A77EEA67AF4EEC77AF1EE9C
:10ABE00010FA0CD99FEDA96ADFEDA96AB0EE677A79
:10ABF000B4EEE67AF1EE10FA77EEC67AF6D89FED6B
:10AC0000A57AF4EEC77AF1EE10FA0CDA9FED9F6A9E
:10AC1000DFEDA16AB0EE677AB4EEE67AF1EE10FAF3
:10AC200077EE867AF6DB9FED9F7A9F499F4B67EE22
:10AC3000877A0122C1ED007A1A709D4B9D4A1B78DC
:10AC400003EBC30302EBC30393F82030002B00F0A7
:10AC5000AD80994C237873B10133DBB2052B23709F
:10AC600009D900210A2022F02DFC0021032022F026
:10AC700029FC00232370914BD3ED007AB6EE007AC5
:10AC8000F4EEC77AF1EE10FA63DD8D4E8D4D96ED40
:10AC9000007AF4EEC77A0123F1EE10FA2B7000F37C
:10ACA000D980B5EEC07AF1EE10FA40F3D880DFED2E
:10ACB000866A37EE667A86ED007AB5EEC07AF1EEF6
:10ACC00010FA40F2CC80F5EEC07AF1EE10FA6DD5B4
:10ACD000DFED7E7AB4EEE77AF1EE10FA00F2C6808C
:10ACE000F7EE007A37EE277AF2EE087A67EE277AE7
:10ACF000FCEEE77ACDED017A9DF804304FEAC30807
:10AD00005F003AE0F1EE10FA7FF649AEDFED707ABF
:10AD1000B0EEC99AB4EEE79AF1EE10FABFF641AE82
:10AD2000B5EEC08AF1EE10FAF5EEC09A4CBF0122E2
:10AD30000022F1EE10FA4CBF012300239A4287ED66
:10AD400000AAC6ED009A7FF467AE624B00221A603B
:10AD500074E6F5EEC07AF1EE10FA27D5594D2B784E
:10AD600023B3574E96ED007AB5EEC07AF1EE10FAA5
:10AD7000AEDA18274FF060080C23574A574912786B
:10AD800009789020FFF7A6FB41460A2022F09AFBA3
:10AD90003946032022F096FB514A524B12681A6042
:10ADA000002101220023316022702B701FB0BDEC06
:10ADB000068BBDE8F08F3D4B1B78002B7FF43DAF39
:10ADC0003949374A00230B60136036E70122B0EEA1
:10ADD000698AC5ED009A1A60C0E527A3D3E900236C
:10ADE0003046394627F0A8FF78B125A3D3E90023E0
:10ADF0003046394627F078FB54E5DFED3B7A0FE625
:10AE00005B689B0907EE103AF3E4384B01931D6031
:10AE10004EE5204616F002F9DFF8DCA094F8283061
:10AE2000226BCAF80020002B7FF415AD204616F0E7
:10AE3000F5F8DFF8C8B094F82830D4F82C90CBF8A7
:10AE40000090002B7FF40DAD204616F0E7F8DBF8FC
:10AE5000009006E5C6ED007AB0EE677A2DE7002394
:10AE60002B701FB0BDEC068BBDE8F08FFC274FF4B4
:10AE70007C787E2381E700BF182D4454FB2109C054
:10AE8000182D4454FB211940000034430000B44302
:10AE900000000744000034C3000007C4348C0020C5
:10AEA0003C8D00209A99993F308C0020C48B002063
:10AEB00014900020C4600020BF8B00205C8F002015
:10AEC000C88B0020C58B00203333333FAE47194178
:10AED0000000AA42C08B002038920020D8620020D7
:10AEE000F08F002010900020000000003092002021
:10AEF000F8C1631ADCA54C405C900020DC8F002078
:10AF00003C4A3D48916870B5D2E90035D468007874
:10AF100096692B440B4415693849234454692B44E2
:10AF2000C0EB801529442344D2E90754334491F8F7
:10AF300032202B44234432B191F838201AB1304AE0
:10AF4000304C157803E02E4A1578C5B92D4C2E4AA1
:10AF50002E4812682E4900680968C3F500531A4448
:10AF6000024452183DD4B2F5804FA8BF43F6FF7299
:10AF70002260284E3368934200D035BB70BD264A0C
:10AF8000125C032AE2D12548254A264990F900405F
:10AF9000127808782449121B121A07EE902A91EDB4
:10AFA000007A224A174C1178F8EEE77A67EE877A32
:10AFB000FDEEE77A17EE900A03442360A1B11C4E20
:10AFC00000200D4633601070C1E71A49C2F3C71361
:10AFD000097802F07F02E020FFF77CFA23683360F3
:10AFE00070BD00222260C4E711490A680B60134457
:10AFF0005B10ACE760620020149000200460002029
:10B00000D38F0020F8620020588D0020D8900020B7
:10B010008468002034630020FC620020DC90002063
:10B02000CC8F0020E8620020006300203E630020F7
:10B03000548B0020D8620020F8B5354E354F327859
:10B04000C2EB8213FC5C002C35D03349C2EBC20347
:10B0500001EB4301D3004978002951D02F4D13440F
:10B0600005EBC303002493F845206AB3FDF7BAFF4C
:10B070002B4B1B78022B4FF0010431D0294B1C784D
:10B08000002C39D0FEF764FEFCF7F8FD337803EBB3
:10B09000C30305EBC3031A7E4AB993F8212032B9E2
:10B0A00093F822201AB993F8233003B974B3BDE89A
:10B0B000F840FFF725BFD300184D134405EBC30339
:10B0C00093F84520002AD1D193F84620002ACDD10B
:10B0D00093F84730002BC9D1114B1B78022BCDD1EF
:10B0E0003378C3EB83131F4497F83230002BCBD057
:10B0F0000C4B1C78002CC5D1FEF794FD0124C3E74E
:10B10000FDF7FEFD32780124D300D5E7F8BD00BF7E
:10B11000149000200460002054630020C4600020CC
:10B12000E08F00204C8D0020104B11481B78114AF5
:10B13000C3EB831318440121837A11708B4203D02F
:10B14000022B0DD033B17047437B027BC17A802044
:10B15000FFF7C0B9437B027BC17A9020FFF7BAB9F1
:10B16000427B017BC07AFBF713B900BF149000202B
:10B1700004600020548D0020104B11481B78114AA8
:10B18000C3EB831318440021837B1170012B03D080
:10B19000022B0DD033B17047437C027CC17B8020F1
:10B1A000FFF798B9437C027CC17B9020FFF792B9EE
:10B1B000427C017CC07BFBF7EBB800BF1490002001
:10B1C00004600020548D00209E4B2DE9F0471B8821
:10B1D00043F480735A1C1A4282B000F0AA80002106
:10B1E0000A4613F0010F08BF11465B1002F101027D
:10B1F000F7D101F13E04E4B2462C28BF46243C3C82
:10B20000914E924A3378C3EB831313449A7C032AFA
:10B210007BD0DFF88C82D8F800208D4B8D498E4F83
:10B2200091F800C0D3F800905968D7F800E08B4837
:10B230008B4D04FB0C145FFA8EF3914504602B7068
:10B2400016DB884A012000212870034611703278ED
:10B2500085493860C2EBC20201EB4202527922B149
:10B26000824C2278012A66D0237002B0BDE8F087B4
:10B2700009F1010191420BDB7D4A1278002A00F0AE
:10B280008280012B7FD07B4B1B782B701846DEE72A
:10B290007949BEF1010F097804BF02232B700129FF
:10B2A000EAD176490878002876D0A4EB090100FBA2
:10B2B00001F1DFF8F0C101EB41008CFB00A98CFB30
:10B2C00001ACC017C917A0EBE910C1EBEC11214488
:10B2D00004446B48DFF8D09101609142C9F8004006
:10B2E00041DB94425ADB0223BEF1010F2B7063D085
:10B2F000BEF1030F49D11EF081FD624B1B68C01ADD
:10B30000142800F290802B78B6E75F4A1278D2B901
:10B310001A7DDFF88C81DB7C43EAC213D8F8002069
:10B3200005339342BFF679AFFFF7FEFED8F8002051
:10B3300073E70A2464E7012B96D01EF05FFD534AA1
:10B340002B78106090E7DFF85881197DDB7CD8F806
:10B35000002043EAC11393427FF75FAFFFF70CFF72
:10B36000D8F8002059E73F4A00210323BEF1010F1E
:10B3700011702B7009D0BEF1030F06D13C4B1B7826
:10B38000002B80D17346184661E7394A1278002AAB
:10B390007FF479AF18465AE721469AE7BEF1010FCC
:10B3A00007D0BEF1030F7FF467AF022B7FF464AFC9
:10B3B000A1E7022B7FF460AF01921EF01FFD294927
:10B3C000019A0C78E4B9324BDFF8D0E0D3F800C032
:10B3D000CEF800002F4B30481C604FF0010E046087
:10B3E00081F800E0BCF1000F28D1214B1A78002031
:10B3F000022308702B70002A7FF445AF184626E719
:10B40000264C234B24681B68001B9842EDD2214B2D
:10B41000186890B1204B18681A60121A002AE4DDEF
:10B420003B782B7028E7D9F80020D8F800100120CD
:10B43000FDF71EFC034628701EE717480260012135
:10B440001960EDE78C8F002014900020046000202C
:10B4500044630020E7620020448D0020A4630020A4
:10B46000C18F00208A8F0020546300203C6300209D
:10B4700054900020898F0020B16100205C62002080
:10B48000C8910020548F0020548D0020FC91002092
:10B49000C86200204490002038900020708B00206B
:10B4A000689000201F85EB51CC9100202DE9F843D6
:10B4B0001EF0A4FC9A4E9B4A3368116899420446D8
:10B4C00000F0A680DFF8A082974F984D98F8001002
:10B4D0001360012238602A70002943D1944A954BA9
:10B4E0001160954A954F00244FF0010882F80080C2
:10B4F0001C702C701EF082FC914B024630681A6062
:10B50000FDF748F92146034640463B70FEF772FFBF
:10B510003D787F2D7AD08B4F3B78AB4276D08A4BEB
:10B520001B78022B0BD0894B32681A608848242282
:10B53000214627F02FFF874BC3E900441C72864B3E
:10B54000864A1B783D70C3EB8313134493F8322073
:10B5500022B193F83830002B40F0DD80BDE8F8438D
:10B56000FFF732BE99461EF049FC7D4A7D4B1278AA
:10B57000196830688A4203DAC10758BF49F00109E7
:10B5800059688A4203DA810758BF49F0020999686D
:10B590008A4203DA410758BF49F00409D9688A4250
:10B5A00003DA010758BF49F0080919698A4203DA2A
:10B5B000C10658BF49F0100959698A4203DA810669
:10B5C00058BF49F0200999698A4203DA410658BFF9
:10B5D00049F04009D9698A4203DA010658BF49F0A7
:10B5E00080091B6A9A4203DAC30558BF49F480797F
:10B5F000484520D14E4B2A7800211960002A40F09E
:10B600008D804C4B1A780AB1484D6AE7BDE8F88343
:10B61000DFF81C91444FD9F800303868241A002B09
:10B6200073D09C4219D3414D2A780023C9F80030C9
:10B63000002AE6D072E0FDF7ADF803464846994689
:10B64000FDF7A8F87F28D5D08145D3D0DFF8E0906A
:10B6500098F80030C9F80030DFE735681EF0CEFBFF
:10B660003F4A404B1278196830688A4203DAC707AC
:10B6700058BF45F001055968914203DD810758BF65
:10B6800045F0020599688A4203DA470758BF45F03A
:10B690000405D968914203DD010758BF45F008054C
:10B6A00019698A4203DAC70658BF45F0100559697F
:10B6B0008A4203DA810658BF45F0200599698A421B
:10B6C00003DA470658BF45F04005D9698A4203DAD4
:10B6D000010658BF45F080051B6A9A4203DAC3058C
:10B6E00058BF45F48075A8429DD0FDF753F8034636
:10B6F00028461D46FDF74EF87F2894D0854292D00B
:10B70000D9F800309C42FFF47CAF084D2A78002A1B
:10B710003FF477AF02E0FFF78FFC1FE7054BE0E651
:10B720008C8F00202C6300207C8B0020808B0020DD
:10B73000C091002047910020546200207E630020C9
:10B74000548F0020E8620020E08F0020908F0020BE
:10B7500060620020E48F002014900020046000202C
:10B760003F63002074910020BC910020102928BF65
:10B770001021012900F0F00038BF0121C0282DE977
:10B78000F04102F07F053AD0D02810D1284E33780E
:10B79000012B0ED1274BD3ED007AF5EE407AF1EE76
:10B7A00010FA06D0013961F02F04E4B218E0BDE8C8
:10B7B000F081214F7B6D0139186861F02F04036817
:10B7C000E4B21B68214698477B6D186803682946D8
:10B7D0001B68984733781BB9184B1B78022BE6D0AF
:10B7E000174E736D1868036821461B699847736D7F
:10B7F0001868036829461B69BDE8F04118470C4EDC
:10B800003378012B0CD10B4BD3ED007AF5EE407A57
:10B81000F1EE10FA04D0013961F03F04E4B2DFE741
:10B82000054F7B6D0139186861F03F04C7E700BF21
:10B830009C610020388D002090680020A0690020C5
:10B84000746700202DE9F04F6E4F6F4E3C78C4EBCB
:10B850008413334485B09A78012A804600F0A08092
:10B86000DFF8DC91C4EBC40309EB430393F806A0B3
:10B870001AF0010F51D0654B93ED020AB5EEC00AE4
:10B88000F1EE10FA04DD624BD3ED007A30EE270AB8
:10B890009FED607ADFED607AB4EEC70AF1EE10FA40
:10B8A00088BFB0EE470AB4EEE70AF1EE10FAB8BF6F
:10B8B000B0EE670A03A8CDED037A1BF0CBFE574B21
:10B8C000F0EE407AFEEEEC7A1B78CDED017A002B9B
:10B8D00044D0DDED037ADFF86CB1FDEEE77ADBF8FA
:10B8E000003017EE905A85F30705AB42C4EB841481
:10B8F00042D0344494F82F20002A71D1484C21784A
:10B90000EAB2D020FFF732FF3B78CBF80050C3EB10
:10B91000C30309EB430999F806A01AF0020F1AD0E5
:10B920003E4B1B78BBB13F4BDC6B002C5ED12346FA
:10B930003D4D1C442B6884F307049C4202D1B8F1AE
:10B94000000F08D0364B394A19781278E3B2A0209C
:10B95000FEF7C0FD2C6005B0BDE8F08F344A1268D8
:10B96000642AB6DCDFF8DCB001931D46DBF800305A
:10B97000AB42C4EB8414BCD1264496F82F30002B84
:10B9800037D02C4E019A3368934236D0244C9DF820
:10B99000042020785721FAF7FBFC019B3360AEE7C7
:10B9A000204AD568A301C5B92A46DFF89C90154402
:10B9B000D9F8002085F30705AA4203D1B8F1000F9A
:10B9C0003FF44EAF1C1B3444EAB261792079FAF798
:10B9D000DFFC3C78C9F8005042E7174A1268E4E7F8
:10B9E000EB1A0F331E2B89D8124ECFE7134B1B686F
:10B9F0009EE7B8F1000F90D080E7B8F1000FC5D1F5
:10BA00008BE700BF1490002004600020A48F00206A
:10BA1000D09000200000FE4200000000D38F0020E4
:10BA2000D86200208862002030900020CC8F002057
:10BA30006890002028900020CC900020D490002016
:10BA40005463002024900020209000202DE9F04F26
:10BA5000AB4DAC4C2B78AC4EC3EBC30204EB4202B3
:10BA6000C3EB831091793044002985B090F83220DF
:10BA700014BF0321102103914FEA831ED900002A2D
:10BA80004FD090F83820003A18BF012202929F4A06
:10BA9000DFF8BC92DFF8BC82107899F8002098F8A3
:10BAA00000C0019200283ED0DFF8ACA2DFF878B2E7
:10BAB0001AF803A09BF900B0BAF1030F0CEB0B07C7
:10BAC00000F0BF80019A974200F0D680BCF1000FD1
:10BAD0002CD18F4B1B78012B00F09F808D4B99F858
