:020000022000DC
:10600000000004200DB604004DB604004FB6040095
:1060100051B6040053B6040055B604000000000059
:1060200000000000000000000000000089B504002E
:1060300059B6040000000000A9B504005DB60400D4
:1060400061B804005FB604005FB604003DEC0300D5
:106050005FB604005FB604004D8F04005FB6040015
:106060005FB604005FB604005FB604005FB60400CC
:106070005FB604005FB604005FB604005FB60400BC
:106080005FB60400D9B204005FB604005FB6040036
:106090005FB604005FB604002D5F03005FB6040026
:1060A0005FB604005FB604005FB604005FB604008C
:1060B0005FB604005FB604000000000000000000AE
:1060C0005FB604005FB604005FB6040075BD04004F
:1060D0005FB604005FB604005FB604003D870300AE
:1060E0005FB604005FB604005FB604000000000065
:1060F000000000005FB6040000000000EDBD0400D9
:10610000000000000000000000000000000000008F
:10611000000000000000000000000000000000007F
:10612000000000000000000000000000000000006F
:10613000000000000000000000000000000000005F
:10614000000000000000000000000000000000004F
:10615000000000000000000000000000000000003F
:10616000000000000000000000000000000000002F
:10617000000000000000000000000000000000001F
:10618000000000000000000000000000000000000F
:1061900000000000000000000000000000000000FF
:1061A00000000000000000000000000000000000EF
:1061B00000000000000000000000000000000000DF
:1061C00000000000000000000000000000000000CF
:1061D00000000000000000000000000000000000BF
:1061E00000000000000000000000000000000000AF
:1061F000000000000000000000000000000000009F
:10620000F1EE103A43F08073E1EE103A704700BFB0
:1062100010B5054C237833B9044B13B10448AFF3E0
:1062200000800123237010BD4067002000000000A3
:10623000DCF1050008B5034B1BB103490348AFF37C
:10624000008008BD0000000044670020DCF105006C
:10625000154B002B08BF134B9D46A3F5803A002138
:106260008B460F461348144A121A2CF08FF90F4B25
:10627000002B00D098470E4B002B00D098470020F1
:10628000002104000D000D48002802D00C48AFF397
:1062900000802CF011F92000290025F00FFA2CF0D5
:1062A000E5F800BF00000800000004200000000026
:1062B0000000000040670020CCCB00200000000060
:1062C0000000000042DF7047704700BF704700BF0A
:1062D00010B5034B0360044618F032FD204610BD94
:1062E000ACC405002DE9F0419DF81840013CE4B232
:1062F0000F2C21D80D4649B200291DDA1F46436DE7
:1063000006461868036821431B68C9B2904698473F
:10631000736D1868036808F07F011B6805F0EF05CE
:106320009847C02D08D0736D1868036807F07F0187
:106330001B68BDE8F0411847BDE8F0812DE9F04148
:106340009DF81840013CE4B20F2C21D80D4649B20B
:1063500000291DDA1F46436D06461868036821436D
:106360001B69C9B290469847736D1868036808F0B6
:106370007F011B6905F0EF059847C02D08D0736DAC
:106380001868036807F07F011B69BDE8F0411847F2
:10639000BDE8F0812DE9F041344B102805461C780A
:1063A00028BF1025012D38BF0125012C82B001F036
:1063B0007F0702F07F060ED0E4B92D4B07281C782A
:1063C00034D02C48009533463A46B021FFF78AFF77
:1063D000022C0CD004E0284B07281B6834D05BB19A
:1063E0002648009533463A46B021FFF7A7FF02B092
:1063F000BDE8F081072807D01E48009533463A468D
:10640000B021FFF76FFFEBE7652FF5D9DFF870805C
:1064100098F80030012B13D81648009533463A46B9
:10642000B021FFF75FFF98F8003009E0652FC8D969
:10643000DFF84C8098F80030012B0CD9022CD6D014
:1064400013F0FD0FD3D1CBE7652FC8D9002BDDD0DA
:106450000B4B1B78F4E70748009533463A46B021CA
:10646000FFF740FF022CDED1C1E700BF90610020A2
:106470008869002078680020088D00205C67002073
:10648000058D002030B50E4D83B00C4601904FF0C5
:10649000FF31286823F006FB019A68210720FFF7E7
:1064A00079FF224669210720FFF774FF002328683F
:1064B0001A46194603B0BDE8304022F0CBBE00BFFB
:1064C000808F002038B51C4B1C4A1B7800241460B8
:1064D00003B938BD1A4D4FF0FF31286823F0E2FAB6
:1064E00048226A210720FFF755FF2246772107201F
:1064F000FFF750FF234622462146286822F0AAFED5
:106500004FF0FF31286823F0CDFA49226A21072095
:10651000FFF740FF224677210720FFF73BFF234686
:1065200022462868214622F095FE064B1A78022A58
:1065300008BF1C7038BD00BF048D0020088D0020EE
:10654000808F0020058D002070B5014688B034484A
:106550000FF0E4FC0023044620226946CDE9003315
:10656000CDE90333CDE90533029307930DF0F6FD32
:1065700020460DF0DDFC2BF0FFF92A4B00222BF01A
:1065800065FA2BF013FD284B0628CCBF274D274D6D
:106590001B78CCBF044607242C6023B9244B02226D
:1065A0009A7008B070BD234E4FF0FF31306804EB95
:1065B000840423F077FA04EB840448226A2107203C
:1065C000FFF7E8FEA20002F07C0277210720FFF728
:1065D000E1FE00231A461946306822F03BFE2B6884
:1065E0003068642404FB03F44FF0FF3123F05AFABF
:1065F000C4F3C71449226A210720FFF7CBFE2246C5
:1066000077210720FFF7C6FE00231A461946306897
:1066100022F020FE064B02229A7008B070BD00BF27
:10662000209200200000E43F048D0020088D00200F
:10663000FC8C0020808F002010B5012182B0044620
:106640001A2026F021FA01211A2026F0A1FA0520AD
:1066500022F0DCFC4FF480730094ADF8043002AB00
:1066600013E90600134818F009F800211A2026F053
:106670008FFAAC210F4818F0DFF853210D4818F0BD
:10668000DBF800210B4818F0D7F800210446094830
:1066900018F0D2F800EB0421B1F5A64F06D0102275
:1066A000054822F0EDFB002002B010BD012002B031
:1066B00010BD00BF00AF0020A49A002070B50446B2
:1066C00042F21070FFF7B8FF7A497B4822F054FA83
:1066D000257805B37949784822F0EEF91022294649
:1066E000754822F09DFBAC21754818F0A5F8E02113
:1066F000734818F0A1F80021714818F09DF8294658
:1067000003466F481D4618F097F800EB0520B0F5DA
:10671000604F40F0A9806A4DF021284618F08CF8AF
:106720000021284618F088F80021284618F084F83F
:106730000021284618F080F810F00106ECD16578A9
:10674000002D70D15E4DF021284618F075F800211B
:10675000284618F071F80021284618F06DF800213D
:10676000284618F069F810F00106ECD1A578002D44
:106770007CD1534DF021284618F05EF800212846C0
:1067800018F05AF80021284618F056F8002128463B
:1067900018F052F810F00106ECD1E478FCB1494948
:1067A000454822F089F910222146434822F038FB5F
:1067B000AC21434818F040F8A421414818F03CF8B7
:1067C00031463F4818F038F8214603463C481C46FD
:1067D00018F032F800EB0420B0F5244F44D1384DC6
:1067E000F021284618F028F80021284618F024F84F
:1067F0000021284618F020F80021284618F01CF83F
:1068000010F00104ECD12C4822F006FA2C4817F0C5
:1068100097FF21461A2026F0BBF921461A2026F0C0
:1068200033F9012070BD2849234822F045F9102290
:106830002946214822F0F4FAAC21214817F0FCFF48
:10684000A0211F4817F0F8FF31461D4817F0F4FF4C
:10685000294603461A481D4617F0EEFF00EB0520B7
:10686000B0F5204F3FF46EAF002070BD17491248BD
:1068700022F022F9102229460F4822F0D1FAAC2149
:106880000F4817F0D9FFA8210D4817F0D5FF314662
:106890000B4817F0D1FF2946034609481D4617F05B
:1068A000CBFF00EB0520B0F5284F3FF462AF00208E
:1068B000DBE700BF54540500A49A0020645405008F
:1068C00000AF0020A0540500785405008C5405004A
:1068D000F8B5044642F210700D46FFF7ADFE4F4981
:1068E0004F4822F049F92678002E56D16678002EBE
:1068F00073D1A6788EBBE678FEB15021494817F0D7
:106900009BFF0821474817F097FF0021454817F0E3
:1069100093FF0021434817F08FFFEB78424904466C
:106920001C403F4822F0C8F83D482146102222F082
:1069300077FAA64201D00020F8BD394822F06CF960
:10694000384817F0FDFE00211A2026F021F9002119
:106950001A2026F099F80120F8BD5821314817F087
:106960006BFF08212F4817F067FF00212D4817F013
:1069700063FF00212B4817F05FFFAB782B490746D8
:106980001F40274822F098F825483946102222F067
:1069900047FABE42AFD00020CEE75821214817F079
:1069A0004BFF00211F4817F047FF00211D4817F03B
:1069B00043FF00211B4817F03FFF2B781C49074677
:1069C0001F40174822F078F815483946102222F067
:1069D00027FABE428AD00020AEE75021114817F0B6
:1069E0002BFF00210F4817F027FF00210D4817F05B
:1069F00023FF00210B4817F01FFF0E49C7B20848BC
:106A000022F05AF839460648102222F009FA68782E
:106A10000740BE423FF46DAF00208DE7B45405003F
:106A2000A49A002000AF0020F8540500E8540500A7
:106A3000C8540500D854050010B50A4CF021204672
:106A400017F0FAFE0021204617F0F6FE002120463E
:106A500017F0F2FE0021204617F0EEFEC307EDD43A
:106A600010BD00BF00AF00202DE9F04F894685B072
:106A70005349544C80465448174622F01DF8494665
:106A80001022514822F09EF922F0B4FA2368C01A6D
:106A9000B0F57A7F00F287804C48FFF7CDFD7B0888
:106AA000029345D0002508F10102494C01922B4682
:106AB0001E0A4021204618F815A05FFA85FB17F042
:106AC000BBFE3146204617F0B7FE5946204617F068
:106AD000B3FE51460746204617F0AEFE034603EBD1
:106AE0000723AB424FF0480120461AD1019B13F80F
:106AF0001530039317F0A0FE3146204617F09CFE98
:106B00005946204617F098FE039B06461946204634
:106B100017F092FE00EB0620A84205F10105ABB28A
:106B200003D0002005B0BDE8F08F029A9A42BFD88A
:106B30004C21274817F080FE4FEA59054FEA5921AA
:106B4000234817F079FEE9B2214817F075FE0021BD
:106B500006461F4817F070FE1E4904461A4821F0E9
:106B6000ABFF10222946184822F08AF904EB0624CC
:106B70001949154821F0A0FF214613481022A4B25C
:106B800022F020F9A542CCD1FFF756FF104817F0AC
:106B9000D7FD00211A2025F0FBFF1A20002125F047
:106BA00073FF0120BEE722F025FA0C4B0C4A20604F
:106BB0000C49C3F80026044821F07EFF6CE700BFB3
:106BC00008550500946A0020A49A002040420F0056
:106BD00000AF002024550500385505000000014095
:106BE0003546526E18550500014608B5044822F096
:106BF00033F840F2FF31012025F060FDFEE700BFD1
:106C0000A49A0020014608B5044821F0B5FF40F2DF
:106C1000FF31012025F052FDFEE700BFA49A0020BD
:106C200010B542F2107082B0FFF706FDAC211D488E
:106C300017F002FE80211B4817F0FEFD00211948C5
:106C400017F0FAFD00210446164817F0F5FD00EB99
:106C50000420B0F5004F22D1124CF021204617F04D
:106C6000EBFD0021204617F0E7FD0021204617F03C
:106C7000E3FD0021204617F0DFFD10F00101ECD10B
:106C80000848019117F05CFD01991A2025F080FF5A
:106C900001991A2025F0F8FE012002B010BD02482B
:106CA000FFF7B0FF00AF002040550500084C094930
:106CB00008B50546204621F02DFF29461022204622
:106CC00022F0A6F8204621F0A7FF0348FFF79AFF1D
:106CD000A49A00205C550500705505002DE9F04789
:106CE00080460C4617463AB1013A92B21846013234
:106CF000FF212BF04BFC034604EB070C002244461B
:106D0000204610F8011B0A2900F053810D2900F0DC
:106D100050813A2940F0A4816578A5F13001C9B2CB
:106D200009290CD9A5F14101052940F25781A5F1A6
:106D30006101052900F28881A5F15701C9B2A57842
:106D4000A5F13000C6B2092E4FEA01100CD9A5F109
:106D50004101052940F23A81A5F16101052900F2BE
:106D60007381A5F15706F6B2E578A5F13001C9B2F5
:106D700030440929C6B20CD9A5F14101052940F2D8
:106D80002981A5F16101052900F25E81A5F1570174
:106D9000C9B22579A5F1300E5FFA8EFE0901BEF168
:106DA000090FC9B20ED9A5F1410EBEF1050F40F28F
:106DB0001981A5F1610EBEF1050F00F24581573D25
:106DC0005FFA85FE94F8059001EB0E05A9F13001FC
:106DD000EDB2C9B22E440929F6B2ADB20CD9A9F16F
:106DE0004101052940F20281A9F16101052900F262
:106DF0001981A9F15701C9B294F80690A9F1300E92
:106E00005FFA8EFE0901BEF1090FC9B20FD9A9F1CF
:106E1000410EBEF1050F40F2ED80A9F1610EBEF109
:106E2000050F00F2FF80A9F157095FFA89FE71444E
:106E3000C9B201EB0525ADB20E446545F6B280F24C
:106E4000ED80E579A5F13001C9B209290CD9A5F188
:106E50004101052940F2D680A5F16101052900F222
:106E6000F380A5F15701C9B2257AA5F130095FFA7F
:106E700089F90901B9F1090FC9B204F1090E40F20B
:106E80009A80A5F14109B9F1050F40F2B880A5F14A
:106E90006109B9F1050F00F2D780573DEDB20E44FC
:106EA00055FA86F6F6B200284CD00B34002534E0B3
:106EB000A9F16101052900F2B580A9F15701C9B214
:106EC00014F8019CA9F1300A5FFA8AFA0901BAF1B3
:106ED000090FC9B20ED9A9F1410ABAF1050F2CD98F
:106EE000A9F1610ABAF1050F00F29C80A9F15709D6
:106EF0005FFA89FA5144C9B202F1010999541FFAA3
:106F000089F20E449742F6B2C0F09B800135E9B297
:106F1000884204F102040D4614D914F8029CA9F128
:106F20003001C9B20929A646CAD9A9F141010529EA
:106F3000BED8A9F13701C9B2C2E7A9F137095FFA92
:106F400089FAD7E79EF80040A4F13001C9B20929B7
:106F50000AD9A4F14101052958D9A4F161010529F3
:106F600078D8A4F15701C9B29EF80140A4F13000CD
:106F7000C0B209010928C9B209D9A4F14100052804
:106F800048D9A4F16100052864D8573CE0B20E440A
:106F900050FA86F616F0FF0F68D19EF802100A2903
:106FA0000EF103045FD1BA427FF4AAAE2046BDE8D9
:106FB000F0870446A4E64944C9B20E440129F6B25A
:106FC0007FF471AF00242046BDE8F087A5F13706B5
:106FD000F6B2C9E6A5F13701C9B2DAE6A5F1370183
:106FE000C9B2ACE6373D5FFA85FEEBE6A9F13701A1
:106FF000C9B201E7A9F1370E5FFA8EFE17E7373DF8
:10700000EDB24CE7A5F13701C9B22DE7A4F1370184
:10701000C9B2A9E7A4F13700C0B2B8E74446204698
:10702000BDE8F0871349144821F074FD4946102249
:10703000114821F0EDFE104821F0EEFD0F48FFF75A
:10704000E1FD0F48FFF7D0FD0A490B4821F062FD32
:107050002946ECE70749084821F05CFD2146E6E7B0
:107060000848FFF7CFFD0848FFF7CCFD0748FFF7BA
:10707000C9FD00BF5C550500A49A002070550500AD
:107080008C55050080550500AC5505009C55050044
:107090002DE9F04F824683B0CD48CE4EFFF7CCFAB3
:1070A000D14619F8011B0A2900F090810D2900F042
:1070B0008D813A2940F0ED819AF80100A0F130036A
:1070C000DBB2092B0CD9A0F14103052B40F2C4819E
:1070D000A0F16103052B00F2D281A0F15703DBB2CE
:1070E0009AF80200A0F130085FFA88F2092A4FEA04
:1070F00003180CD9A0F14103052B40F2A981A0F19E
:107100006103052B00F2BB81A0F15702D2B29AF8BD
:107110000300A0F13003DBB29044092B5FFA88FB37
:107120000CD9A0F14103052B40F28E81A0F161033F
:10713000052B00F2A481A0F15703DBB29AF80400FA
:10714000A0F13007FAB21B01092ADFB20CD9A0F175
:107150004103052B40F27481A0F16103052B00F27D
:107160008E81A0F15702D2B29AF805001744A0F11F
:107170003003FFB2DBB2BB44092B5FFA8BFBBAB220
:107180000CD9A0F14103052B40F25681A0F1610317
:10719000052B00F27481A0F15703DBB29AF80600C8
:1071A000A0F13007FFB21B01092FDBB20CD9A0F10F
:1071B0004101052940F23C81A0F16101052900F25D
:1071C0005E81A0F15707FFB29AF807003B44DFB297
:1071D000A0F13003DBB2BB44092B07EB02275FFAB7
:1071E0008BFBBFB20CD9A0F14103052B40F21C81EF
:1071F000A0F16103052B00F24281A0F15703DBB23D
:107200009AF80800A0F13004E4B21B01092CDBB2AB
:107210000AF1090940F2E880A0F14102052A40F292
:107220000081A0F16102052A00F229815738C0B21D
:107230009B4450FA8BFB5FFA8BFBB8F1000F00F018
:1072400093800AF10B0A3D461DE02821304617F0D5
:10725000F3FA690A304617F0EFFAC5F347013046F2
:1072600017F0EAFA0021304617F0E6FAC3B2A3425B
:107270004FD1C7F101032B44DBB2013543450AF17D
:10728000020AADB270DA1AF8024CA4F13003DBB294
:10729000092BD1460BD9A4F14103052B5DD9A4F1EB
:1072A0006103052B00F2DC80A4F15703DBB21AF86E
:1072B000012CA2F130011C01CBB2092BE4B20AD996
:1072C000A2F14103052B4CD9A2F16103052B00F279
:1072D000D880573AD3B21C44E4B2A34415F001035A
:1072E0005FFA8BFBB1D120213046019317F0A4FA4D
:1072F000690A304617F0A0FAC5F34701304617F087
:107300009BFA019B3046194617F096FAC3B2A34286
:10731000AFD03148019321F07FFC30492E4821F055
:10732000CBFB102229462C4821F0AAFD2C492A48E3
:1073300021F0C2FB10222146274821F069FD29498E
:10734000254821F0B9FB019B23481946102221F062
:1073500067FD002003B0BDE8F08FA4F13703DBB276
:10736000A5E7373AD3B2B6E799F80000A0F13003A9
:10737000DBB2092B0AD9A0F14103052B4DD9A0F1AD
:107380006103052B7BD8A0F15703DBB299F801000C
:10739000A0F13001C9B21B010929DBB20AD9A0F161
:1073A0004102052A35D9A0F16102052A67D8A0F16A
:1073B0005701C9B29B4451FA8BF111F0FF0171D111
:1073C00099F802300A2B09F1030968D1CA4667E629
:1073D00040420F0000AF0020A49A0020BC550500D9
:1073E000E0550500F05505001C44E4B2A344012C0F
:1073F0005FFA8BFB7FF421AF2E4817F0A1F9002133
:107400001A2025F0C5FB1A20002125F03DFB20465F
:10741000A0E7A0F13701C9B2CCE7A0F13703DBB296
:10742000B4E73738C0B203E7A0F13703DBB2E7E6D1
:10743000A0F13707FFB2C7E6A0F13703DBB2ADE634
:10744000A0F13702D2B28FE6A0F13703DBB275E6C6
:10745000A0F13702D2B25AE6A0F13703DBB23FE621
:107460001549164821F056FB21461022134821F0F9
:10747000CFFC124821F0D0FB1148FFF7C3FBFFF708
:1074800015FC0D490D48019221F044FB019A11466B
:10749000EBE70A4821F06CFB0A48FFF7B3FB0A4808
:1074A000FFF7B0FB0548102221F0B2FC0748FFF7B8
:1074B000A9FB00BF00AF00205C550500A49A002086
:1074C0007055050080550500AC550500F8550500C0
:1074D0002DE9F04F40F2FF3185B0012025F0EEF8A4
:1074E0007249734821F0E8FA7248FFF7A5F80028BE
:1074F00072D071496E4821F03FFB42F21070FFF7E5
:107500009BF830216D4817F097F900216B4817F070
:1075100093F90121694817F08FF90021674817F0A6
:107520008BF930210502654817F086F90021634880
:1075300017F082F90221614817F07EF90021044614
:107540005E4817F079F905F47F4500EB04245B48A9
:1075500017F0F6F82C4300211A2025F019FBA4B2ED
:1075600000211A2025F090FA631E9BB24FF6FD729F
:10757000934204D8524B1F683B88A34204D0002496
:10758000204605B0BDE8F08FFFF74AFB0521B81C87
:10759000FFF794F80028F2D0484817F0D1F80021FE
:1075A0001A2025F0F5FA00211A2025F06DFA0021A5
:1075B000012025F083F8642021F028FD40F2FF31FE
:1075C000012025F07BF83949394821F075FA39480E
:1075D000FFF732F8814620B93A49354821F0CCFA14
:1075E000CDE73549324821F0C7FAB7F820A097F81F
:1075F000228007F123030293BAF1000F24D0DFF8B1
:10760000C8B003971FFA88F20BEB080647461C46E2
:1076100000259046A9B220465B4642460191FFF7FD
:107620005DFB019904464FB1274B4A4613F8010B05
:10763000FF2818BF00229E42F8D17AB33D44AA45E4
:1076400001D9002CE6D1039F0298FFF721FD002805
:1076500095D007F10C0420460521FFF72FF80028EC
:107660008DD0204607F11601FFF732F904460028B5
:1076700085D0042540F2FF31012025F01FF8C820F5
:1076800021F0C4FC0021012025F018F8C82021F0C9
:10769000BDFC6B1E13F0FF05ECD171E74246584666
:1076A000FFF7E2F90028C9D169E700BF28540500B7
:1076B000A49A0020A08601004454050000AF0020D9
:1076C000746200204C540500A46A00202DE9F043A8
:1076D000544C554F554E87B0204618F011FF544A70
:1076E000A36A54493B600191534FE56A534C07CA62
:1076F0009B103B604FF48073ADF80830256003ADFC
:1077000085E80700029A4B49304616F0B7FF002182
:10771000022025F03DFA4A4B4FF4207043F001035C
:1077200098470021304617F087F800240134E4B26E
:107730002146304617F080F80C2C05F8010BF5D1E6
:107740000121022025F024FA38483E4D3E4EDFF854
:10775000008116F0F5FF9DF815109DF80DC09DF8FD
:1077600016208B009F0007F4407747EA0C0703F4CC
:1077700040749DF80CC0354B44EA0C045F609DF8E2
:107780000EC01C608F019DF80F40090207F440777E
:1077900047EA0C0701F44071900021439F609DF877
:1077A0001070D96084009DF8111000F440703843C7
:1077B00004F440749DF81270186144EA01009101CC
:1077C00001F440719DF81440586139439DF8170049
:1077D0009DF813709961120202F440723A4344EA30
:1077E0000020C3E907201C1F03F120074FF0000908
:1077F00054F8041F284618F08FFF98F80020EB6A11
:107800002360383512B932689B1A2360002BB8BF49
:10781000C4F80090BC4206F10406E9D107B0BDE807
:10782000F08300BFD48B00209091002000AF002097
:107830004C56050080841E0034900020AC9000203F
:10784000B0BF0500288D00201C9100204091002031
:10785000FF8C00202DE9F043C04DC14C297801EB8D
:10786000C1032DED028B04EBC30014F8333083B059
:10787000CA007BB3BB4FDFEDBC8AD7ED007A9FED2A
:10788000BB8AC379007A009077EEA87A0A4404EBA9
:10789000C20167EE887A8A794979FDEEE77A8342F8
:1078A00041F2883994BF8046064609FB02F217EE82
:1078B000900A09FB01F194BF1E46984621F088FB0F
:1078C000B04280F2E280AA4F3B78B34240F08E8013
:1078D0002978CA00501804EBC000437873B3A54F51
:1078E000DFEDA18AD7ED007A9FEDA08AC37A007BF5
:1078F000009077EEA87A0A4404EBC20167EE887A1A
:107900008A7A497AFDEEE77A834241F2883994BF58
:107910008046064609FB02F217EE900A09FB01F1C8
:1079200094BF1E46984621F053FBB04280F28A80F5
:10793000914F3B78B3424BD12978CA00531804EBDE
:10794000C303987818B993F82030002B3BD08B4FA5
:10795000DFED8B8AD7ED007A9FED848A501804EB17
:10796000C00077EEA87A0A44C37B007C009004EB49
:10797000C20167EE887A8A7B497BFDEEE77A834213
:1079800042F2107994BF8046064609FB02F217EED8
:10799000900A09FB01F194BF1E46984621F018FB9E
:1079A000B04231DA774FDFF8E0813B7888F8006049
:1079B000B34208D02B7803EBC30304EBC3039A78DC
:1079C000002A40F0858003B0BDEC028BBDE8F08357
:1079D0002B7803EBC30304EBC3033246597D987C39
:1079E000FEF7D8FC29783E70CA00A7E72B7803EB96
:1079F000C30304EBC3033246197D587CFEF7CAFC6F
:107A000029783E70CA0065E7D7ED007A2B7877EECB
:107A1000A87A03EBC30304EBC30367EE887A9A7B6F
:107A2000597B187C0090FDEEE77ADB7B17EE900A1D
:107A300009FB02F209FB01F121F0CAFA404554DDCD
:107A40004646AFE7D7ED007A2B7877EEA87A03EBBE
:107A5000C30304EBC30367EE887A9A7A597A187BDA
:107A60000090FDEEE77ADB7A17EE900A09FB02F24E
:107A700009FB01F121F0ACFA404552DD3E4F3B7865
:107A80004646B3423FF458AFA2E7D7ED007A2B78D1
:107A900077EEA87A03EBC30304EBC30367EE887A9F
:107AA0009A795979187A0090FDEEE77ADB7917EE2A
:107AB000900A09FB02F209FB01F121F089FA404525
:107AC00064DD2B4F3B784646B3423FF401AF8DE770
:107AD000997DD87C3246FEF75DFC98F800303B700B
:107AE00003B0BDEC028BBDE8F083D7ED007A2B78B4
:107AF00077EEA88A03EBC30304EBC30328EE888A5E
:107B00009A7B597B187C0090FDEEC87ADB7B17EEE0
:107B1000900A09FB02F209FB01F121F059FAC6B201
:107B200040E7D7ED007A2B7877EEA88A03EBC30302
:107B300004EBC30328EE888A9A7A597A187B00905E
:107B4000FDEEC87ADB7A17EE900A09FB02F209FB18
:107B500001F121F03DFAC6B2EAE600BF848F0020B1
:107B6000B8600020289000200000B44200007A4451
:107B7000B88B0020AC8F0020B98B0020FC91002036
:107B800000003443BA8B002004920020D7ED007A25
:107B90002B7877EEA88A03EBC30304EBC30328EE2C
:107BA000888A9A795979187A0090FDEEC87ADB793B
:107BB00017EE900A09FB02F209FB01F121F008FA25
:107BC000C6B280E6BC499FEDBD6AD1ED007ABC4BE0
:107BD000BC4A93ED007ADFEDBC6A2DE9F04F67EE09
:107BE000867A2DED028BE7EE267AB84DB84C92EDF1
:107BF000008A2B78C1ED007A37EE088A03EBC303C5
:107C000038EE678AF6EE008A04EBC30368EE288A32
:107C100085B0C2ED008A93F8242093F81BB001923E
:107C200093F8252093F826300292039321F0E2F98D
:107C30002B78A84A03EBC301F0EEE87AB3EE047A9E
:107C400004EBC101F4EEC77AF1EE10FA0D7ECCBF61
:107C5000012600261670DA001DB991F82160002E69
:107C60007AD09D49DFF898C2DFF89882DFF898E271
:107C70009A4F0E784FF000094FF0000AC7F80090B5
:107C8000CCF80090C8F80090CEF800A07EB9B6EE0F
:107C9000007AF4EEC77AF1EE10FA08DD904A01237B
:107CA00010600B7005B0BDEC028BBDE8F08FDFF803
:107CB0003092D9F80090A0EB0909B9F10B0FF1D976
:107CC000DFF848A29AF80090B9F1000F1ED0DFF853
:107CD000409299F80060002E47D09FED827A824E44
:107CE000F4EEC77AF1EE10FAC8BF30603668801B38
:107CF000B0F5C87F3ED9002389F800300B708AF8B0
:107D0000003005B0BDEC028BBDE8F08FB6EE007A16
:107D1000F4EEC77AF1EE10FA00F39A80DFF8F091F2
:107D200099F80070002FD8D19FED6E7AF4EEC77AE3
:107D3000F1EE10FA01DD6C4B1860002EB2D06A4BE8
:107D40001B68C01AB0F5C87FACD9002389F8003091
:107D50000B708AF80030D4E791F82260002E80D1B1
:107D600091F8231000299DD07BE75F4E0121306000
:107D700089F80010DFED5D7AB4EEE78AF1EE10FAD3
:107D80004FDAD11804EBC101FFEE008AC97F002948
:107D90005BD0032900F0FC80022900F03281052924
:107DA00000F00B81042900F07B81B0EE687A9DB170
:107DB0004F499FED506AD1ED007A484906EE90BADE
:107DC00067EE867AF8EEE66A67EEA67A67EE877A5D
:107DD000FDEEE77AC1ED007AD11804EBC10191F80C
:107DE0002100002846D0DDED017A9FED4A7A91F816
:107DF0002710F8EEE77A67EE877A99B3032900F047
:107E00003681022900F0F580052900F069810429F6
:107E100000F09A8168EEA77AFDEEE77A17EE901AE5
:107E200026E0DFED357AD118B4EEE78A04EBC10124
:107E3000F1EE10FA98BFDFED317AC97F94BF68EE9A
:107E4000A78AF7EE008A0029A3D1B1EE687AAEE7DF
:107E500001268AF800603AE7F5EEC08AF1EE10FAE2
:107E6000C0F2CD8067EEE87AFDEEE77A17EE901A61
:107E7000CCF80010D11804EBC10191F822000028C1
:107E800055D0DDED027A9FED237A91F82810F8EEB7
:107E9000E77A67EE877A002945D0032900F0B98098
:107EA000022900F09580052900F03C81042900F0AA
:107EB000598167EEA87A38E0488B00206666663FF5
:107EC000C88B00204C8B0020CDCCCC3D848F002073
:107ED000B860002094900020468B0020A4900020E1
:107EE000508B00203333B33E548B00202506F0C165
:107EF000EC6200200AD7233D2506F0410A85883D23
:107F000098900020A09000209C900020448B00209E
:107F1000458B00200AD7233F00000000F5EEC08A01
:107F2000F1EE10FA5ADB67EEE87ACEED007A1344F0
:107F300004EBC30494F82330002B3FF4B3AEDDED23
:107F4000037A1FED0C7A94F82930F8EEE77A67EEA1
:107F5000877A63B967EEE88AFDEEE87A17EE903A21
:107F6000C8F8003005B0BDEC028BBDE8F08F032BE4
:107F700064D0022B35D0052B00F0C180042B00F01B
:107F8000068168EEA77AFDEEE77A17EE903AE7E70A
:107F90005FED1F7AF5EEC08AF1EE10FA8CBFB0EEFD
:107FA000677AB0EE687AFFEE007AB4EEE77AF1EE27
:107FB00010FAB8BFB0EE677AF9E6F7EE007AF4EEA1
:107FC000E78AF1EE10FA40F2B880BFEE007AEEE6F2
:107FD000F5EEC08AF1EE10FA40F2E7805FED327AFA
:107FE000A3E7F5EEC08AF1EE10FA40F2E780002335
:107FF000B6E7F5EEC08AF1EE10FA40F2EE8000210D
:1080000036E7F5EEC08AF1EE10FA5ED91FED3E7A42
:10801000CDE6F5EEC08A1FED407AF1EE10FA98BF7A
:10802000B0EE687AFFEE006AB4EEE67AF1EE10FA8E
:10803000B8BFB0EE667A67EE877A76E7F5EEC08A6B
:108040001FED4B7AF1EE10FA88BFF0EE478ABFEED3
:10805000007AF4EEC78AF1EE10FAB8BFF0EE478A64
:1080600068EEA78AFDEEE87A17EE903A78E7F5EE2B
:10807000C08A1FED577AF1EE10FA98BFB0EE687A19
:10808000FFEE006AB4EEE67AF1EE10FAB8BFB0EE99
:10809000667A67EE277AFDEEE77A17EE901AE7E642
:1080A000F7EE007AF4EEE78AF1EE10FA8CBFB0EE4C
:1080B000677AB0EE687AB5EEC07A5FED697AF1EE74
:1080C00010FAB8BFB0EE677A71E6FFEE007AF4EE10
:1080D000E78AF1EE10FABFF6B8AEB7EE007A66E6C0
:1080E000B7EE007AF4EEC78AF1EE10FA7FF6B4AE7E
:1080F000F1EE677AFDEEE77A17EE901AB8E6F5EE44
:10810000C08A1FED7B7AF1EE10FA88BFF0EE478A45
:10811000BFEE007AF4EEC78AF1EE10FAB8BFF0EEC7
:10812000478A2EE7B7EE007AF4EEC78AF1EE10FA2E
:108130007FF6F4AEF1EE677AF7E6F5EEC08AF1EE7F
:1081400010FABFF682AE61E7B7EE007AF4EEC78AA6
:10815000F1EE10FA98BFB0EE687A5FED916AB5EE75
:10816000C07A91E7B7EE007AF4EEC78AF1EE10FA22
:1081700098BFB0EE687AB5EEC07A5FED996AF1EE1D
:1081800010FAB8BFB0EE667A67EE877ACDE6B7EE42
:10819000007AF4EEC78AF1EE10FA88BFF0EE478A53
:1081A000F5EEC08A1FEDA47AB6E7BFEE007AF4EED2
:1081B000C78AF1EE10FABFF6B6AEB6E6BFEE007AA9
:1081C000F4EEC78AF1EE10FAFFF6DDAE67EEE87A5C
:1081D000FDEEE77A17EE903AC2E6BFEE007AF4EED3
:1081E000C78AF1EE10FABFF63DAE54E7F0B4CB4BC0
:1081F000CB4D1A78CB482B68CB49002A62D1CB4AA9
:1082000004680F681668E41BA64240F22B8143F015
:10821000010344684F685668E41BB442C0F03881DB
:10822000043CB44280F0768184688F689668E41BD1
:10823000B442C0F02A81043CA64240F26881C4687E
:10824000CF68D668E41BB442C0F01C81043CA6424F
:1082500040F25A8104690F691669E41BB442C0F008
:108260000E81043CA64240F24C8144694F69566934
:10827000E41BB442C0F00081043CA64240F23E81BF
:1082800084698F699669E41BB442C0F0F280043CB3
:10829000A64240F23081C469CF69D669E41BB4427A
:1082A000C0F0F980043CA64240F222810C6A006AC8
:1082B000116A021B8A4280F0CA8043F480732B60EB
:1082C000F0BC70470E6804689FED997A974AA41B2A
:1082D00007EE904AF8EE677A166867EE877AFDEE49
:1082E000E77A17EE907AE41BB442C0F0B880043C01
:1082F000A64298BF23F001034F6844689FED8C7A33
:108300005668E41B07EE904AF8EE677A67EE877AC4
:10831000FDEEE77A17EE907AE41BB44280F0BE805F
:1083200043F002038F6884689FED817A9668E41BAE
:1083300007EE904AF8EE677A67EE877AFDEEE77A05
:1083400017EE907AE41BB44280F0CC8043F0040333
:10835000CF68C4689FED767AD668E41B07EE904A32
:10836000F8EE677A67EE877AFDEEE77A17EE907A95
:10837000E41BB44280F0B08043F008030F69046945
:108380009FED6B7A1669E41B07EE904AF8EE677A68
:1083900067EE877AFDEEE77A17EE907AE41BB44237
:1083A00080F0948043F010034F6944699FED607A38
:1083B0005669E41B07EE904AF8EE677A67EE877A13
:1083C000FDEEE77A17EE907AE41BB44278D243F0E0
:1083D00020038F6984699FED567A9669E41B07EE46
:1083E000904AF8EE677A67EE877AFDEEE77A17EE45
:1083F000907AE41BB4425DD243F04003CF69C46974
:108400009FED4B7AD669E41B07EE904AF8EE677A47
:1084100067EE877AFDEEE77A17EE907AE41BB442B6
:1084200042D243F08003006A0C6A116A9FED407AE1
:10843000021B07EE902AF8EE677A67EE877AFDEE68
:10844000E77A17EE900A121A8A42FFF436AF043A1E
:10845000914201D823F480732B60F0BC704743F045
:10846000010349E7043CB442FFF4D3AE23F0010317
:10847000CFE643F040030EE743F0200300E743F06C
:108480001003F2E643F00803E4E643F00403D6E603
:1084900043F00203C8E643F0800307E7043CA6422A
:1084A00098BF23F002033DE7043CA64298BF23F0A7
:1084B0008003B8E7043CA64298BF23F040039DE741
:1084C000043CA64298BF23F0200382E7043CA64266
:1084D00098BF23F0100367E7043CA64298BF23F03F
:1084E00008034BE7043CA64298BF23F004032FE7A0
:1084F00023F08003DAE623F04003CCE623F02003E8
:10850000BEE623F01003B0E623F00803A2E623F052
:10851000040394E623F0020386E600BFFF8C0020EC
:10852000588F00206C6300201C9100204091002097
:10853000CDCC4C3E70B4254B254A1B78D25C422AE8
:10854000C0F3470027D8234B1978022904462BD0C3
:10855000214800EB02202346005D002A32D11F4E45
:108560001F4D345D2C70012A12D11E4D1C4CEB5C4A
:108570002370032A01D13F2821D0032906D01A4BAA
:108580001A6840F2FF139A4208BF002070BC70477F
:108590000A2AEAD0EDE70F4B1978144B022908BFDD
:1085A00000F07F00185CE8E7A2F11703012BCFD899
:1085B000094C00F07F0304EB0220C05CD3E70020ED
:1085C00070BC7047042ACAD0CDE700BF848F00205A
:1085D000D4620020A0610020A8A605006456050012
:1085E000CC910020A8A50500588F00208C690020A0
:1085F00070B4214B214A1B78214C224D07CAC3EB92
:10860000C30604EB460485B02D78E47804AE06E991
:108610000700EDB91C4A11686FEA112101F0010150
:108620001A4AC3EB0310C3EB8003134493F83220C0
:108630001AB193F8372012070CD4134B1868C0F303
:108640000020001BB0FA80F0400905B070BC7047F4
:108650000221E5E793F8390040EA4400C0B204ABD8
:1086600000EB40001844014411F80C0C0138C0B272
:1086700005B070BC704700BF848F002058560500BD
:10868000406300206B630020588F002004600020AE
:10869000994A9A489178F8B556781378D47805783D
:1086A0001079002EC3F10003DBB218BFFF230029AD
:1086B00018BFFF2356799249002C18BFFF230028CA
:1086C00018BFFF239479D079127A002E05EBC506E6
:1086D00001EBC60118BFFF23002C18BFFF238C7EBF
:1086E000002818BFFF23002A18BFFF23012C4FEAE0
:1086F000C5004FF0000271D08249834C097824787C
:10870000824E0A4482491C4402EB42020B7804EB7D
:108710008204E4B2032B347041D07E4B1B78032BD0
:108720001DD0022B00D0F8BD7B4B5B5DA3F1430253
:10873000032A06D9182BF6D8784A22FA03F3DB0766
:10874000F1D5FFF755FF764AC5EB0511C5EB81055D
:10875000154495F8313000FB03403070F8BD6E4B86
:108760005A5D012ADFD00A2ADDD06E496E4B401BCC
:1087700001EB40011B68C97803F001038B42D2D1A1
:10878000674BC5EB0511C5EB81052B44072A93F810
:1087900031301C44E4B208BF053C3470F8BD5E4B78
:1087A0005A5D0F2A73D00C2A5CD00E2A78D0082A82
:1087B00040F086805D4B1B78492B68D95849554F4E
:1087C000C5EB0513C5EB830319443B7891F83110D1
:1087D0000C44E4B2032B3470A3D1C6E78A7F002A8D
:1087E0008AD05349534E91ED017AD6ED007AB8EE16
:1087F000C77AF4EEC77AF1EE10FA75D4012A2ED0BA
:1088000091ED027AB8EEC77AF4EEC77AF1EE10FA7B
:108810006CD4022A23D091ED037AB8EEC77AF4EE35
:10882000C77AF1EE10FA63D4032A18D091ED047AD6
:10883000B8EEC77AF4EEC77AF1EE10FA52D4042AF1
:1088400050D091ED057AB8EEC77AB4EEE77AF1EE42
:1088500010FA4FDC052A18BF00227FF44DAF013A11
:10886000D2B249E7314B1B78392B10D93E2B1BD1A3
:108870002B49C5EB0513C5EB83030B44072A93F87B
:1088800031301C44E4B219D1053CE4B23470214BC0
:108890001B78032B3FF469AF022B7FF444AF43E70F
:1088A000224B1B78452BF2D91D4AC5EB0513C5EBAE
:1088B0008303134493F831301C44E4B234702CE742
:1088C0001A4909783E29D3D1012A01D00A2ACFD1E9
:1088D000104A1278032A3FF426AF022A7FF423AF0E
:1088E0005B5D29E70422BAE72246B8E70222B6E731
:1088F0000322B4E70522B2E7408F0020848F0020D6
:10890000B8600020A48F00209D8F0020A890002038
:10891000918F0020A0610020D462002051008001CE
:108920000460002040630020588F0020D86200209F
:10893000C48F0020AC8F0020234B1B780BB3234B3C
:108940009FED237AD3ED007AF4EEC77AF1EE10FAB8
:1089500018D5204A1378022B28D0F5EEC07AF1EE14
:1089600010FA2CDD1378032B20D09FED197AF4EE4A
:10897000C77AF1EE10FA00DA7047174B1B78022B1A
:1089800010D07047F5EEC07AF1EE10FA01DD114A11
:10899000E8E7F4EEC77AF1EE10FA10DB0E4B1B7825
:1089A000022B0ED10D4B00221A7070470B4A117822
:1089B0000029E6D108480121037011707047064B69
:1089C0001B78032BDDD1EDE7218D0020AC8F00203B
:1089D000000070C2918F0020558F00202090002051
:1089E00070B505460C4620F005FB1A4A13783BB9D2
:1089F000194E1A4930601A4E0B6001213360117014
:108A0000CDB9154B17491B680968C31A8B420ED2A2
:108A1000124B1968A1B1124B19681C60611AB1F5AB
:108A2000FA6F11D09DB1012D0ED100290CDB00236E
:108A30001370022070BD012DF9D1074B0A49E2E7FE
:108A4000074901220C601A60084B187870BD002994
:108A5000FADCECE7568F0020588B002010900020A5
:108A600004900020B862002040620020108D002099
:108A70002DE9F843AD4BAE4D1B78C3EB0312C3EBAE
:108A800082022A44190192F82D20403A07EE902ADA
:108A9000F8EEE77A00F1EC809FEDA67AF7EE000A97
:108AA000E7EE870ACA1AC3EB82022A4492F82E2004
:108AB000403A07EE902AF8EEE77A00F1E480DFED25
:108AC0009D6AB7EE007AA7EEA67A9B4AC3EBC30075
:108AD00002EB4002927A002A00F0A180974AC81A5D
:108AE00092F800E0C3EB80002844BEF1010F90F83B
:108AF000246090F8279090F8287090F825C090F89E
:108B0000294090F82A2090F82C8000F0CA804FF07D
:108B1000640EA2F14001403C0922B8F100084FEA7E
:108B2000410512FB06E612FB09E012FB07E14FEAE2
:108B3000440418BF4FF0010812FB0CE2804B1B6885
:108B4000834234DC821B012AB8BF012207EE902A3F
:108B5000C31AB8EEE77A07EE903AF8EEE77AF7EE46
:108B6000006A87EE870AB4EEE60AF1EE10FAF4EE38
:108B7000660A88BFB0EE660AF1EE10FA01D01DF069
:108B8000C9FF07EE904AF8EEE77A27EE800A6D4BB0
:108B90009FED6D7AD3ED007A6C4B67EE877A27EE06
:108BA000800ABDEEC00A83ED000ABDE8F8838B425F
:108BB00074DB521A012AB8BF012207EE902A5B1A11
:108BC000F8EEE76A07EE903AF8EEE77A9FED606A12
:108BD00087EEA60AF7EE007AB4EEC60AF1EE10FAB6
:108BE000B4EE677AB8BFB0EE460AF1EE10FA03D0E1
:108BF000F0EE470A1DF08EFFB8F1000F08D0F7EE37
:108C0000007AB4EEE70AF1EE10FA88BFB0EE670A18
:108C100007EE905AF8EEE77A27EE800AB7E74D4A5A
:108C20001278032A52D0454A4B4812780668012A26
:108C30003DD0C91AC3EB81031D44092295F82B10BE
:108C40006D78642312FB0132921B06EB4202B318CB
:108C50006FF01304581004FB05F41421B7EE007AEA
:108C600005FB01F5F0EE470A01464FF0010865E704
:108C7000DFED3A6A9FED3A7A77EEA67AF5EE000AD2
:108C8000E7EE870A0EE79FED357ADFED356A77EE7E
:108C9000877AB5EE007AA7EEA67A16E79FED2C0A42
:108CA00075E72C4A1278032A2DD02B4A16682D4AD4
:108CB000C91AC3EB81031D4412686D786FF0130469
:108CC000931904FB05F458100A21C7E72648254AE2
:108CD000214C0668246819481268C91AC3EB81033D
:108CE0001D4401786D78121B06EB6202012906EB28
:108CF00002036FF013044FEA630004FB05F40CBF9A
:108D00000A211421AAE7174A134B17491B68126856
:108D10000E684578D21A06EB620293196FF01304BD
:108D2000581004FB05F40A2198E700BF848F002047
:108D300004600020320C433D40630020A06100200D
:108D400034900020EC6200200AD7233C248D0020C0
:108D500000000000918F002030630020000080425E
:108D60000000403C94910020989100202DE9F84F9C
:108D7000B74BB84ADFEDB87AD2ED004A9FEDB75A4B
:108D80009FEDB77ADFF8F4829FEDB64A2DED048BA4
:108D9000D3ED009AB44BF4EEE79A93ED009AB34BFF
:108DA000F1EE10FAF4EEE74A8CBFF0EE675AF0EEFF
:108DB000695AF1EE10FA75EEA75A8CBFB0EE676AE9
:108DC000B0EE646AB4EEC59A76EE277AB0EE478AC2
:108DD000B1EE046AF1EE10FAA5EE868A1D78A44B76
:108DE0008CBFF0EE456AF0EE496AF0EE475A76EE37
:108DF000856AE7EE865A05EBC50708EBC707B0EEB4
:108E0000045AA6EE857A97F84560FDEEE57AD3ED33
:108E1000008A17EE902AFDEEC77ABDEEC88A17EEDB
:108E2000904A68EE848A4FEAC509002E76D0DFEDBD
:108E3000917A97F8313097F82CE097F82A1097F844
:108E40002D0097F82BB097F82E6097F82F70F4EE5E
:108E5000E74AF1EE10FA4FF0640CB8BF62464FF0EB
:108E6000190A403B07EE903A1AFB0ECC00F1D08174
:108E700009EB050308EBC303F8EEE77A93F8323009
:108E80009FED807AF7EE000A403BE7EE870A00F19B
:108E9000D48107EE903ADFED7B6AF8EEE77AB7EE21
:108EA000007AA7EEA67A09EB050308EBC303944505
:108EB00093F830A0F0EE477AC0F2D881AEEB010112
:108EC00001EB810101EB81010129B8BF0121ACEB6C
:108ED000020207EE901A07EE102AF7EE006AF8EE8B
:108EE000E77AB8EEC77AF4EE660AF1EE10FA87EE8A
:108EF000270A01D01DF00EFEBAF1000F40F0698282
:108F0000403E760007EE906AF8EEE77A67EEA87AC0
:108F100067EE807AFDEEE77A17EE906A09EB0500BE
:108F200008EBC00090F84630002B00F0E580DFED44
:108F3000517A90F835C090F83A3090F8332090F894
:108F4000361090F834E090F8377090F838A0F4EECE
:108F5000E79A18EE100AF1EE10FA4FF0640BB8BF62
:108F6000584608EE100A403B4FF0190007EE903AC1
:108F700010FB0CB000F1BA8109EB050308EBC30349
:108F8000F8EEE77A93F83B309FED3E7AF7EE000A71
:108F9000403BE7EE870A00F1BE8107EE903ADFED35
:108FA000396AF8EEE77AB7EE007AA7EEA67AF0EE25
:108FB000477A09EB050308EBC30393F839B018EEC1
:108FC000103A984260DA1922642312FB013318EE3A
:108FD000102A934200F39080AEEB010101EB810176
:108FE00001EB81010129B8BF0121D31A08EE103A23
:108FF00007EE101AB8EEC88AB8EEC77ADFED1E6A1F
:1090000088EE070AB7EE007AB4EEE60AF1EE10FA3F
:10901000F4EE477AB8BFB0EE660AF1EE10FA03D06C
:10902000F0EE670A1DF076FDBBF1000F08D0F7EEF9
:10903000007AB4EEE70AF1EE10FA88BFB0EE670AE4
:10904000AAF1400A4FEA4A0A07EE90AA49E000BF97
:10905000AC8F0020289000200000B4420000344370
:109060000000C8420AD7233CFC910020848F0020D6
:10907000EC6200200000B4C200000000B8600020D4
:10908000000034C3320C433DACEB020202EB82021F
:1090900002EB8202012AB8BF012207EE902AC31A0E
:1090A00008EE103AB8EEE77AF7EE007AB8EEC88A22
:1090B000F4EE670AF1EE10FA88EE070A01D01DF00F
:1090C00029FDBBF1000F08D0F7EE007AB4EEE70AF5
:1090D000F1EE10FA88BFB0EE670A403F7F0007EE5E
:1090E000907AF8EEE77A67EEA87A67EE807AFDEE7E
:1090F000E77A17EE903A1E4409EB050208EBC2022C
:1091000092F84730002B72D05FED237A92F843300B
:1091100092F83E1092F83CE092F83FC092F83D0081
:1091200092F8407092F841A0B4EEE79AF1EE10FA8E
:109130004FF06402B8BF1446403B07EE903A4FF040
:10914000190BF8EEE77A1BFB012256D41FED337A98
:10915000F7EE000AE7EE870A09EB050308EBC30305
:1091600093F84430403B07EE903AF8EEE77A00F18E
:1091700023811FED3C7AF7EE006AE7EE876A09EB80
:10918000050308EBC303944293F8425000F3D480E4
:10919000A1EB0E0101EB810101EB81010129B8BFB7
:1091A0000121131B07EE103A07EE901AF7EE006A42
:1091B000F8EEE77AB8EEC77AF4EE660AF1EE10FA46
:1091C00087EE270A01D01DF0A5FC002D40F00B8191
:1091D000403F7F0007EE907AF8EEE77A67EEA88AC4
:1091E00068EE808AFDEEE88A18EE903A1E44BDECE7
:1091F000048B824B1E60BDE8F88FDFED816A9FED26
:10920000817A77EEA67AF5EE000AE7EE870AA3E701
:1092100009EB050308EBC303F8EEE77ADFED786AA4
:1092200093F832309FED777A77EEA67AF5EE000A62
:10923000403BE7EE870A7FF52CAE07EE903A9FEDB4
:10924000707ADFED706AF8EEE77A09EB050377EEE6
:10925000877AB5EE007AA7EEA67A08EBC3039445A9
:1092600093F830A0F0EE477ABFF628AE19216423B8
:1092700011FB0033934200F3AA80ABEB000000EB3C
:10928000800000EB80000128B8BF0120D21A07EE51
:10929000100A06EE902AB8EEC77AF8EEE66A9FED5D
:1092A0005A6A86EE870AB7EE007AB4EEC60AF1EE85
:1092B00010FAF4EE477AB8BFB0EE460AF1EE10FAB3
:1092C00003D0F0EE670A1DF025FCBAF1000F08D0BC
:1092D000F7EE007AB4EEE70AF1EE10FA88BFB0EECE
:1092E000670A403F7F0007EE907A0DE609EB050321
:1092F00008EBC303F8EEE77ADFED416A93F83B3001
:109300009FED407A77EEA67AF5EE000A403BE7EE55
:10931000870A7FF542AE07EE903A9FED397ADFED8E
:10932000396AF8EEE77A77EE877AB5EE007AA7EE3B
:10933000A67AF0EE477A3CE61923642213FB0C234D
:109340009C42FFF654AFA0EB0C0000EB800000EB5A
:1093500080000128B8BF012007EE900AE41AB8EE99
:10936000E77A07EE904AF8EEE77A9FED276A87EEF4
:10937000870AF7EE007AB4EEC60AF1EE10FAF4EEC0
:10938000676AB8BFB0EE460AF1EE10FA03D0F0EE0D
:10939000660A1DF0BFFB45B1F7EE007AB4EEE70AAE
:1093A000F1EE10FA88BFB0EE670AAAF1400A4FEA60
:1093B0004A0A07EE90AA0FE7DFED116A9FED117AD6
:1093C00077EEA67AF5EE006AE7EE876AD7E6002622
:1093D000A4E5F7EE007AB4EEE70AF1EE10FA88BFE2
:1093E000B0EE670A8CE5F7EE007AB4EEE70AF1EE2C
:1093F00010FA88BFB0EE670AEAE600BF6C6800208A
:10940000000080420000403C000000002DE9F04FC9
:10941000B84BB94F1E78DFF82093C6EB0613C6EBA6
:1094200083033B4485B0054693F8350093F83340F9
:1094300093F8348028F0A0FAB04B002228F006FB05
:1094400028F0B4FDAE4AAF4B52F825C053F82520A2
:10945000029007EE102A07EE90CAB8EEC77AF8EE2F
:10946000E77AF1EEC76A19F8052003923001B1EEF0
:10947000E76A76EE667AF5EEC07AF1EE10FA40F31E
:10948000D580B3EE0E7A67EE877A9F499F4A51F8EE
:1094900025A092F800E0DFF8A4B243F825C0AAEBBB
:1094A0000E010EEB5101323C01FB04F48BFB043244
:1094B000E417C4EB2213CA18954C08FB02F28BFB8D
:1094C000028BA45DD217C2EB6B120192002C51D01B
:1094D000032C4FD0019AA1EB0308A8EB0208C44566
:1094E0001CDD0EF1030BDC4518DD9DED027AB8EEB4
:1094F000C77A0123F4EEC77AF1EE10FA09F80530C5
:1095000000F1E080029B7F2B76D0002C74D0032CDE
:1095100072D0804B5B5D002B71D128E0A8F103086D
:10952000C4454ADA4FF0000809F80580DFF8E4B1D5
:109530004FF00009082D0BF805900AD1DFF8F0B1C3
:109540009BF800B0BBF1020F04BFDFF8E8B18BF865
:109550000090DFF8D89119F805B0BBF1000F03D0E7
:109560004FF0000B09F805B0B8F1000F65D005B059
:10957000BDE8F08FA0EB0608C6EB8808B84498F861
:109580003880B8F1000FA5D1082DA3D0ACEB0108AD
:109590009844B8F1000F019AB8BFC8F1000890458F
:1095A00080F29C800EF10308C4459EDCC445CCBF0C
:1095B0004FF000084FF0010801E04FF000089DED6A
:1095C000027AB8EEC77AB4EEE77AF1EE10FA10DC60
:1095D000029A7F2A0DD064B1032C0AD0039A002A84
:1095E000A4D0DFF8309119F80590B9F1000F06D139
:1095F000BAE7039A002A99D0464B01225A55082D02
:1096000064D0801BC6EB8006374497F83830002BB7
:1096100052D1414A414BD2ED007AFDEEE77A17EE86
:10962000902A43F8252005B0BDE8F08F76EEC66A93
:10963000F3EE0E7A66EEA77A27E7A0EB0608C6EBF4
:109640008808B84498F83880B8F1000F8FD10CB171
:10965000032C8CD1082D00F0AA80CB1A9C456FDA20
:109660002F49019A51F825109FED2E6A9B1A5B1A1B
:109670002D4AA3EB0E031278012BB8BF012307EE8E
:10968000902A07EE103AF8EEE77AB8EEC77AACEB1C
:109690000E0C67EE277A07EE10CAF8EEC76A86EE60
:1096A000277A1E4A67EE267AFDEEE77A17EE903AA1
:1096B0005B0042F825305AE71C4B01225A5505B091
:1096C000BDE8F08F134A082D53559AD1184B1B78DB
:1096D000022B96D1174B01221A7048E702F1030BB7
:1096E000D8450EF103087FF761AFC4453FF71AAFC5
:1096F0005CE700BF848F0020046000200000F83F7A
:1097000040910020648B00206C6300202A630020BD
:10971000E8620020B0900020EC620020506200203F
:109720001C91002000FC7F45C9620020408F002072
:10973000A06100206B6300204C8F00201F85EB513F
:1097400022499FED236A0A7806EE902A019A134473
:10975000AAEB030ABAF1010F38BF4FF0010A07EE76
:1097600090AAF8EEE66AF8EE677AACEB030367EED0
:10977000A66A07EE903A86EE267A164A164BF8EE5F
:10978000E77AD2ED006A67EE277AFDEEE77A17EE08
:10979000902A520007EE902AF8EEE77A77EEA67A42
:1097A000FDEEE77A17EE902A43F82520DFE60B4C12
:1097B0002478022C3FF4DBAE801BC6EB80063744D6
:1097C00097F83A0000283FF4D2AE46E7C96200207D
:1097D00000FC7F45EC62002050620020A061002068
:1097E0002DE9F04F914B924D1A78924E924FDFF83F
:1097F0006892DFF86882C2EB0211C2EB81028F49E6
:109800000A4485B092F8371092F8362042EA0112E5
:10981000D1B2C2F3C01200240391029202E00134DB
:10982000092C20D0327855F8041F91425FFA84FA4F
:109830000BDDDFF830B2824ADBF80010106821FA45
:1098400004F202F00102024310D07E490022082CEB
:10985000625447F8242004F8092004F80820DED1D7
:10986000794B00221A7005B0BDE8F08F1A78734B5F
:109870007648C2EB021CC2EB8C021A4490F800E05E
:1098800092F826204FF0010C0CFA04F072451346B2
:1098900040EA010028BF73460093FEF74BFE634B7E
:1098A0006B4993F800C06B4A097812F80C20401AF3
:1098B000019062B3DFF8B0E19EF800E0BEF1020F64
:1098C000014630D00029C0D000988142BDDCC0F1F3
:1098D000000E8E45B9DC5948CCEB0C1ECCEB8E0E3D
:1098E00000EB0E0B4FEA0C109BF832E00090BEF13B
:1098F000000F4DD09BF838E0BEF1000F3ED0019A2A
:1099000002328CD15046FFF781FD484B87E7009922
:10991000DFF854E149429EF800E08142B8BF0146B9
:10992000BEF1020FCED1082C12D0002958D00098D9
:10993000814203DCC0F1000E7145CCDA41490022BE
:10994000625447F8242004F8092004F8082066E748
:10995000029800285FD100294FD00098814203DC93
:10996000C0F1000E7145B6DA334C3B483B49354AED
:109970000023236203720B72137271E701980230A5
:1099800006D1039804F1FF3E40FA0EF0C007B9D4A7
:109990007ABB009A2948A2EB0C02CCEB820202446B
:1099A00092F83A2012B9082C3FF45DAF96F800C047
:1099B00028682B4AA0EB0C0007EE900A02EB840209
:1099C00092ED007AF8EEE77A494267EE877AFDEE8B
:1099D000E77A17EE902A01FB02F247F824201EE7EF
:1099E000184A47F8241004F8091004F80810A15484
:1099F00015E7032A7FF413AFCBE78C460E481649D0
:109A0000164A104BC0F820C081F808C082F808C080
:109A100083F808C024E7DBF800E01EF4807F9AD1C9
:109A2000204605B0BDE8F04FFFF7F0BC848F002062
:109A30003C9100202A630020506200200460002036
:109A40008C9100204C8F00206B630020C9620020A5
:109A5000D8620020E8620020B0900020408F0020F3
:109A600064910020588F0020A06100202DE9F84F5C
:109A70003E4C3F482422002128F088FD237863B122
:109A8000032B0AD03B4A3C491278C2EB0210C2EBCE
:109A900080020A4492F8322012B1FFF7A1FE237827
:109AA000022B56D0354BDFF8E8C03548354C364AE6
:109AB000D3F80090DCF8001000682478D2F800E0B9
:109AC0002B4E324DDFF8CC80DFF8CCA000230127ED
:109AD00012E055F82320A2420BDA20FA03F207FA2B
:109AE00003FBD20721EA0B0103D521FA03F2D207C7
:109AF0000AD50133092B2AD021FA03F2D207E8D480
:109B000020FA03F2D207F4D556F82320002AF0D128
:109B100055F823B05C451EDA2EFA03F2D20721D4A1
:109B2000ABEB040207EE902A0AEB830292ED007A77
:109B300003F80870F8EEE77A67EE877AFDEEE77AC9
:109B400017EE902A46F823200133092BD4D1CCF804
:109B50000010BDE8F88F2EFA03FB03F808205A46E0
:109B6000D207C6D546F82390C3E700BFB08F0020C8
:109B700050620020848F002004600020D08B0020E1
:109B8000A86300202A630020588F00204091002005
:109B90005C8F0020B48F0020D09100202DE9F84385
:109BA000AC4CAD482422002128F0F0FC237863B1AE
:109BB000032B0AD0A94AAA491278C2EB0210C2EBC1
:109BC00080020A4492F8322012B1FFF709FE23788E
:109BD000022B3ED0A04CA368002B3CD09F4BA14A47
:109BE0001B78D35C9A1E012A40F2C9809E4A1278E3
:109BF000012A00F08A8002250026022A29D113F0CA
:109C0000FB0F00F08A80012B01D00A2B21D1974B4A
:109C10001A68D60500F15D81150700F15781944B54
:109C2000944ADB681278934240F3728192489349D8
:109C3000D0ED007AD1ED036A9B1A07EE103AF8EEE8
:109C4000E77AB8EEC77AE7EE667AFDEEE77AC4ED1A
:109C5000037ABDE8F883E568002D35D16FF0010681
:109C60007E4B804A1B78D35C9A1E012A42D87F4FD4
:109C700038684307C0F380092CD50023DFF8F8814A
:109C8000A360032D77D038680207C0F3C0091ED443
:109C90007B4D2A78002A40F0CE807A4B18687A4BA8
:109CA0001B78834200F0A180D4E90231D8F800206B
:109CB0000B445B429342CCDD012E67D95242002314
:109CC000C4E90223BDE8F88301260325C8E7002381
:109CD000E360E9E7DFF8A88198F80020002A40F067
:109CE000A080684B1868684B1B78834270D0DFF8FF
:109CF0008881C6E75C4A1278012A7FF47EAF5E4A0B
:109D000012680023C4E90223A3E7E368002BA0D173
:109D1000594AA3601368E3609BE7564B54491A788D
:109D20008B6852489A42006835DB022D00F0EB80C8
:109D30000023A360CB689A4245DA070743D4032D7A
:109D40000DD09B1A4D4907EE903A91ED037AF8EE4B
:109D5000E77A67EE877AFDEEE77AC4ED037A012EA3
:109D60007FF677AFD4E90231434A12680B4493423D
:109D70007FF76FAFA3E73868C10595D484E73B4F01
:109D8000386810F480761AD1022572E73B68DB054B
:109D90003FF55FAF92E74707C7D4022D00F0B380CD
:109DA0009B1A364F07EE903A97ED027AF8EEE77A73
:109DB00067EE877AFDEEE77AC4ED027ABAE7DFF85C
:109DC000B88000265FE7032DC9D00023E360C6E713
:109DD000274A284B92681B7893425BDBDFF8988018
:109DE000D8F800305B42A3604BE7214A214BD26890
:109DF0001B789A4229DD2549254BC968DB680A444E
:109E00009B1A07EE903A1D49F8EE677A91ED037AB6
:109E100067EE877AFDEEE77A17EE903A5B42E360F1
:109E200042E740F004003860FEF784FB154B88F8E9
:109E30000090186057E740F008003860FEF77AFBA2
:109E4000104B85F80090186029E7D8F800305B4285
:109E5000E36029E7B08F002050620020848F00204B
:109E600004600020D4620020CC910020588F002094
:109E7000409100202A630020D08B0020D091002048
:109E800044620020888B0020D86200201C910020B2
:109E90006C6300202049214B89689B68DFF88C8027
:109EA0000A449B1A07EE903A1D49F8EE677A91ED45
:109EB000027A67EE877AFDEEE77A17EE903A5B4218
:109EC000A360DEE602DB12077FF5C3AE0023E3608A
:109ED000BFE6144B1449DB6809788B42F2DD1007AA
:109EE000F4D4032D3FF4B5AE5B1A0D4A07EE903A59
:109EF00092ED037AF8EEE77A67EE877AFDEEE77A7D
:109F0000C4ED037AA5E6CB689A42FFF616AF5CE78C
:109F1000064B1B68E3609CE61C9100206C630020EC
:109F2000D0910020409100202A630020D08B002097
:109F300070B52D4C2378E3B96378002B30D1A3782A
:109F400003B970BD294E1FF055F8B368C01AC72871
:109F5000F7D9274D1FF04EF8AB78B0600226002BE2
:109F600034D140F2FF31032022F0A8FB0123AB7073
:109F700070BD1E4E1FF03EF83368C01AC728DBD9EB
:109F80001B4D1FF037F82B78306053BB40F2FF3188
:109F9000082022F093FB01232B706378002BCED096
:109FA000124E1FF027F87368C01AC728C7D9104D82
:109FB0001FF020F86B7870603BB940F2FF310A2047
:109FC00022F07CFB01236B70B9E70126094B0021CD
:109FD000985D22F073FBA35D0022013BA355AA55B7
:109FE00070BD0026F2E700BFFC8C0020908B0020A3
:109FF00074680020A8BF05002DE9F8432C4D2D4FB3
:10A000002D4C2E4EDFF8CC902DED068B9FED2C9A2B
:10A01000DFED2CAADFED2C8A9FED2CAADFED2C9A28
:10A0200005F1030815F8011B012381B3D4ED007A73
:10A03000337037EEA87AF4EEC97AF1EE10FAB0EE8A
:10A04000470A2EDC84ED007A1CF034FCB7EE008A5F
:10A0500030EE088A28EE0A8AFCEEC87A28EE298AB1
:10A0600017EE901A387822F029FBD4ED007A37EEFB
:10A07000888A84ED008AA84507F1010704F10404E9
:10A0800006F10106CED1BDEC068BBDE8F88333782E
:10A09000002BF0D03878317022F010FBC4F800901B
:10A0A000E9E7B0EE6A8AC4F800900021DAE700BF61
:10A0B0000C900020A8BF0500946100209C8B00201C
:10A0C0000AD72F410AD7232F0AD7A33B00C0FF434B
:10A0D0000A00A436B4C896403F4B404A1B68126839
:10A0E00070B53F4D06010446A3EB8200AB5920EA50
:10A0F000E07005EB0412B0EB830F526882B04FEAB8
:10A10000830159D2084692004FF4806300930023E4
:10A110001EF05EFF334A125D012A034651D0022A27
:10A120002CD0314ADFED316A12F8140002EB440200
:10A1300007EE900A5278101A03FB00F3B8EEE77AA4
:10A1400007EE903AF8EEE77A294BA7EEA67A354467
:10A1500003EB8403012CF0EE477ABCEEC77AC3ED23
:10A16000007A17EE102A85ED037A05D1214B12F003
:10A17000FF0214BF1A701C7002B070BD0028D0D04E
:10A1800027F0FAFB41EC100B1CF0DEFB10A3D3E927
:10A19000002351EC100B27F059FC27F04FFF07EE7E
:10A1A000900A9FED157A67EEA77A67EE877AFDEE43
:10A1B000E77A17EE903AB4E79200904228BF104633
:10A1C000A2E700FB00F003FB00F31B15A9E700BFAB
:10A1D000FE822B654715F73FAC90002030630020CE
:10A1E00078620020148D0020DC6200200000803A9C
:10A1F000708F0020976300200AD723412DE9F0419A
:10A20000DFF83C8006460F46D8F800004FF0FF31DB
:10A210001D4614461FF046FC3A4631460720FCF71F
:10A22000B9F82A4621460720FCF7B4F80023D8F8ED
:10A2300000001A46BDE8F04119461FF00BB800BFF8
:10A24000808F00202DE9F04104460E461EF0D2FE1C
:10A25000384B1B78002B49D0054674B3364F3B78FA
:10A26000002B45D1354B364C186001223A7056B35D
:10A270002178002959D01B68EB1A192B23D9314BAF
:10A28000314ED3F8008030684FF0FF311FF00AFCE8
:10A29000C8F3C71272210720FCF77CF85FFA88F236
:10A2A00073210720FCF776F800231A461946306818
:10A2B0001EF0D0FF00233B7005E01EBB1E4F3B7815
:10A2C000002B2CD11E4C237883B1204B1868281A00
:10A2D00019280BD91E4B19687622C1F3C7137420B5
:10A2E00001F07F01FFF78AFF00232370BDE8F081B2
:10A2F000AEB1134C237883B9144A104B106001227D
:10A300002270B8E70E4C0C4F23783A7853B90F49B6
:10A31000012308602370002AE8D0084BABE7074B05
:10A32000074CA8E7002AD0D0F7E708492270086058
:10A33000A1E700BF048D0020C48A0020C88A002045
:10A34000C58A0020588F0020808F0020CC8A0020F2
:10A35000349000202DE9F041904C10290D462478CE
:10A3600028BF1025012D38BF0125012C82B000F037
:10A37000F00002F07F0703F07F062ED0002C70D192
:10A38000874BA0281C785BD00FD8802847D0902816
:10A3900008D101460095834833463A46FBF7A2FFB1
:10A3A000022C34D102B0BDE8F081B02800F0A680C4
:10A3B000E028F7D107EBC612A2F5005212B202F55F
:10A3C000005601460095774802F07F02C6F3C71396
:10A3D000FBF788FF022CE5D067E0734BA0281B68D1
:10A3E00000F082800DD9B02869D0E028DAD107EBDF
:10A3F000C612A2F5005212B2002B4BD002F5005645
:10A4000053E0802800F0BE809028CBD18BB3674802
:10A41000009533463A469021FBF790FFC2E701468C
:10A420000095604833463A46FBF75CFF022CB9D0F2
:10A430005E48009533463A468021FBF77FFFB1E73F
:10A4400001460095574833463A46FBF74BFF022C2E
:10A45000A8D05648009533463A46A021FBF76EFF38
:10A46000A0E7A02842D00CD8802800F08E80902849
:10A4700098D1014600954B4833463A46FBF732FFE8
:10A48000C5E7B02826D0E0288CD107EBC612A2F58C
:10A49000005212B202F500564248009502F07F02C7
:10A4A000C6F3C713E021FBF71DFF40480095C6F334
:10A4B000C71306F07F02E021FBF740FF72E7072990
:10A4C00029D04BB13948009533463A46B021FBF7C5
:10A4D00035FF67E707292AD0014600953148334602
:10A4E0003A46FBF7FFFEEDE7002BB2D1014600959F
:10A4F0002C4833463A46FBF7F5FEAAE707292BD04E
:10A500002848009533463A46B021FBF7EBFE022C73
:10A510003FF448AFD6E7652FD3D9DFF89480B3B1C5
:10A5200098F8003013F0FD0F7FF43CAFCAE7652FB9
:10A53000D2D9DFF87C8098F80030012BF0D80146A2
:10A540000095184833463A46FBF7CCFEE8E798F802
:10A550000030012BF3D9E3E7652FD1D9DFF8508024
:10A5600098F80030012B03D9022C3FF41BAFD7E73A
:10A57000014600950B4833463A46FBF7B3FE022CE2
:10A58000CED10FE7002B7FF453AF0146009505486D
:10A5900033463A46FBF7A6FE4AE700BF906100202B
:10A5A0008869002078680020088D00205C67002002
:10A5B000058D0020000000002DE9F04F2DED068BE9
:10A5C0009FB015AB0CAA03A9CF48DFF8C0B3DFF8E2
:10A5D000C083CE4FCE4ECF4DCF4C14F073FECF4B39
:10A5E000DDED137A93ED001ACD4BCE49CE4AC3ED83
:10A5F000007ACE4BD2ED000AD1ED006A9DED110A32
:10A600009DED127ACA4ACB49DB6882ED000ADDED86
:10A61000081A9DED092ADDED0A2AC74A81ED007A64
:10A6200030EE660A77EE600A37EEC11A1A998BEDA2
:10A63000000ADB01C8ED000A87ED001AC6ED001A1A
:10A6400085ED002AC4ED002A116004D5BB4B1A68C1
:10A65000D00700F152821FF03BFFB94B9BED000A7F
:10A66000D8ED000A97ED001AD6ED001A95ED002AF4
:10A67000D4ED002AA0FB0301830A43EA815307EECD
:10A68000103AB04C9FEDB06AD4ED0F7ADFEDAF8A8F
:10A69000DFEDAF6AB8EE477A204677EE677A84ED51
:10A6A0000E7A67EE867A84ED0F7AF4EEE87AF1EEB0
:10A6B00010FA98BFF0EE678AF4EEE68AF1EE10FA2F
:10A6C000B8BFF0EE668AB0EE683AC4ED107A15F0C5
:10A6D000E7FD94F82830002B00F027829D4D236B76
:10A6E0002B60DFF8B0A2D4F82C90CAF800909A4BF7
:10A6F000D4ED0D7A93ED007A984B37EE877AC3ED5F
:10A70000007A17EE100A17EE104A27F047F978A3DF
:10A71000D3E9002306460F4627F028FC002800F066
:10A72000F18175A3D3E900233046394626F0D6FFE0
:10A7300027F084FC8A4B019304461860484627F0B2
:10A740002DF96BA3D3E9002326F0CAFF27F076FC8E
:10A75000814627F023F966A3D3E9002306460F4676
:10A7600027F004FC48B164A3D3E9002330463946FE
:10A7700026F0B4FF27F062FC8146286880F0004094
:10A7800027F00CF95EA3D3E9002327F05FF927F047
:10A7900055FC09EE900A89F00040C5ED009A27F0BB
:10A7A000FDF857A3D3E9002327F050F927F046FC22
:10A7B00009EE100A84F000408AED009A27F0EEF8C6
:10A7C0004FA3D3E9002327F041F927F037FC654B6D
:10A7D00001991A680860D1070AEE100A624C40F12C
:10A7E0009D8194ED008A614E614F96ED007AD7ED20
:10A7F000007A39EEC77A7AEE677AB5EEC07AF1EE72
:10A8000010FAF5EEC07A4CBF01220022F1EE10FAE8
:10A810004CBF012300239A42B5EEC09A00F011818B
:10A82000F1EE10FA40F31181B0EEC99AD8F80000A9
:10A8300027F0B4F832A3D3E9002327F007F98046C4
:10A8400018EE900A894627F0A9F802460B464046C2
:10A85000494627F0FBF8804618EE100A894627F093
:10A860009DF802460B464046494626F039FF27F040
:10A87000E5FB08EE100AF5EEC09AF1EE10FAB5EE1F
:10A88000C08A4CBF01220022F1EE10FA4CBF012316
:10A8900000239A4287ED00AAC6ED009A206000F0DE
:10A8A0002981DFED347A68EE277A9FED337A334BD6
:10A8B000B4EEC79AF1EE10FAADBF002238EE678A07
:10A8C000C3ED007A1A602E4B2E4A1B7884ED008A65
:10A8D00003EBC30302EBC30385ED008A93F820303A
:10A8E000002B00F00281284C2378002B63D053E02A
:10A8F000182D4454FB210940182D4454FB211940C4
:10A90000F8C1631ADCA54C40BC900020388F0020B1
:10A91000C48B0020C88B0020CC8B00203C8F0020F3
:10A920001C9000202C8F0020348F0020F0ED00E0E0
:10A93000149000201890002070680020001000E0A3
:10A9400040420F0040900020BD3786350AD7233C97
:10A950006F12833A28900020009200200C8D002076
:10A96000FC910020A06A0020B48B0020B08B002056
:10A97000AC8B0020CDCCCC3C0000AA42A08B0020A8
:10A98000848F0020B86000209F8B0020288F00203B
:10A99000308F0020AC8F00200133DBB2052B2370F9
:10A9A00009D900210A2021F089FE0021032021F08D
:10A9B00085FE00232370DBED007AB6EE007AF4EE1C
:10A9C000C77AF1EE10FA63DD794E7A4D96ED007A92
:10A9D000F4EEC77A0123F1EE10FA2B7000F3CC806D
:10A9E000B5EEC07AF1EE10FA40F3CB80DFED726A7B
:10A9F00037EE667A86ED007AB5EEC07AF1EE10FA9F
:10AA000040F2BF80F5EEC07AF1EE10FA6DD5DFEDC1
:10AA10006B7AB4EEE77AF1EE10FA00F2B980F7EE55
:10AA2000007A37EE277AF2EE087A27EE277AFCEEE4
:10AA3000C77ACDED017A9DF804304FEAC3085F0074
:10AA40003AE0F1EE10FA7FF6EFAEDFED5D7AB0EEB0
:10AA5000C99AB4EEE79AF1EE10FABFF6E7AEB5EE9A
:10AA6000C08AF1EE10FAF5EEC09A4CBF0122002226
:10AA7000F1EE10FA4CBF012300239A4287ED00AAA1
:10AA8000C6ED009A7FF40DAF4E4B00221A601AE714
:10AA9000F5EEC07AF1EE10FA27D5464D2B7823B3A8
:10AAA000434E96ED007AB5EEC07AF1EE10FAAEDACA
:10AAB00018274FF060080C23434A4449127809785C
:10AAC0009020FFF747FC41460A2021F0F7FD394668
:10AAD000032021F0F3FD3E4A3E4B12681A6000212C
:10AAE00001220023316022702B701FB0BDEC068B59
:10AAF000BDE8F08FDFED387AD7E65B689B0907EE9B
:10AB0000103ABEE526A3D3E900233046394627F0A4
:10AB10000FFA48BB314B01931C600FE60122B0EEE7
:10AB2000698AC4ED009A1A605DE6204615F07AFB4A
:10AB30002B4D94F82830226B2A60002B7FF4D1AD86
:10AB4000204615F06FFBDFF89CA094F82830D4F86D
:10AB50002C90CAF80090002B7FF4C9AD204615F068
:10AB600061FBDAF80090C2E50FA3D3E90023304679
:10AB7000394626F0B5FDDBE5C6ED007AB0EE677A22
:10AB80003AE700232B701FB0BDEC068BBDE8F08FB9
:10AB9000FC274FF47C787E238EE700BFAFF3008064
:10ABA000182D4454FB2109C0182D4454FB21194091
:10ABB000A88B0020A48B00203333333FAE471941CC
:10ABC0000000AA42A08B002004920020C86200204E
:10ABD000C08F0020E08F002000000000FC910020CA
:10ABE00028900020AC8F0020354A364938B5D2E98C
:10ABF0000035D2E902042B440344D2E9040523447E
:10AC00000344D2E906402B44126A097823440344E2
:10AC1000134429B12C4A2D481278825C032A27D08C
:10AC20002B4C2C4A2C4D12682C482D680068C3F51B
:10AC300000531A442A44121817D4B2F5804FA8BF03
:10AC400043F6FF722260264D2B68934200D001B973
:10AC500038BD2449C2F3C713097802F07F02E0200F
:10AC6000FFF778FB23682B6038BD00222260EAE7FB
:10AC70001D4C1E4A1E4894F90050127804781D4855
:10AC8000521B121B07EE902A90ED007A1A4A104CC4
:10AC90001078F8EEE77A67EE877AFDEEE77A17EE3E
:10ACA000905A2B44236020B1144D00202B6010706B
:10ACB000B7E712480268036013445B10B1E700BFB6
:10ACC00050620020A38F0020848F0020E8620020C3
:10ACD000E4620020248D0020A49000206C680020F5
:10ACE00020630020C8620020A89000209C8F0020D4
:10ACF000D8620020EC620020296300203C8B0020F9
:10AD0000F8B5374E374F3378C3EB0312C3EB8202EB
:10AD1000BC5C002C36D03449C3EBC30201EB4201CA
:10AD2000DA004978002954D0304D134405EBC303B1
:10AD3000002493F8452072B3FEF718F82C4B1B78CB
:10AD4000022B4FF0010432D02A4B1C78002C3CD04F
:10AD5000FEF724FFFCF736FF337803EBC30305EB64
:10AD6000C3031A7E52B993F821203AB993F82220EE
:10AD700022B993F823300BB9002C30D0BDE8F8404D
:10AD8000FFF732BFDA00194D134405EBC30393F804
:10AD90004520002AD0D193F84620002ACCD193F840
:10ADA0004730002BC8D1124B1B78022BCCD1337803
:10ADB000C3EB0312C3EB82031F4497F83230002B1E
:10ADC000C8D00C4B1C78002CC2D1FEF74FFE0124DA
:10ADD000C0E7FDF74DFE33780124DA00D3E7F8BD74
:10ADE000848F00200460002040630020B8600020B1
:10ADF000B08F0020188D00202DE9F0473D4E3E4ACF
:10AE0000337803EB43010A44125CEAB100EB80099A
:10AE10004FF03208394F08FB03920446BD5C012D08
:10AE200007EB02014FEA800A1CD0052D0ED0062D3B
:10AE30002CD1334991F90020033205DB3148C25C43
:10AE4000013A52B2C2540A70BDE8F0872C4991F918
:10AE50000020022AF8DC2B48C25C013252B2C254F4
:10AE60000A70F1E74A780AB3012AEDD154444FF051
:10AE7000320A0AFB03433B441A79D9789878FBF7E6
:10AE800089FA33780AFB03443D5DCEE70A2D05D1EC
:10AE90001D4A137801331370BDE8F0870B2D18D1CC
:10AEA000194A1378013B1370BDE8F0870B79CA7813
:10AEB00089789020FFF74EFA3378144A08FB0398FC
:10AEC000155517F80850012DB844AED198F8012057
:10AED000CAE7102DB8D10E4B0E4A1B78012B05D0B6
:10AEE0000D48012103701170BDE8F0871178002929
:10AEF000AAD0F5E7848F0020888F0020A861002069
:10AF0000A48F0020A88F00209D8F0020948F002008
:10AF1000918F002020900020558F0020114B124867
:10AF20001B78124AC3EB0311C3EB810318440121C0
:10AF3000837A11708B4203D0022B0DD033B170474E
:10AF4000437B027BC17A8020FFF704BA437B027BFC
:10AF5000C17A9020FFF7FEB9427B017BC07AFBF7F4
:10AF600019BA00BF848F002004600020208D0020CB
:10AF7000114B12481B78124AC3EB0311C3EB810338
:10AF800018440021837B1170012B03D0022B0DD0BC
:10AF900033B17047437C027CC17B8020FFF7DAB974
:10AFA000437C027CC17B9020FFF7D4B9427C017CBA
:10AFB000C07BFBF7EFB900BF848F00200460002046
:10AFC000208D0020834B1B8843F480735A1C1A4247
:10AFD0002DE9F04700F0AA8000210A4613F0010F86
:10AFE00008BF11465B1002F10102F7D101F13E04E6
:10AFF000E4B2462C28BF46243C3C774E774A33784F
:10B00000C3EB0311C3EB810313449A7C032A79D069
:10B01000DFF80C82D8F80010714B724A724F92F828
:10B0200000C0D3F800905A68D7F800E06F48704D20
:10B0300004FB0C245FFA8EF3894504602B7015DB4A
:10B040006C4A0120002128700346117032786A4949
:10B050003860C2EBC20201EB4202527922B1674C66
:10B060002278012A64D02370BDE8F08709F101023B
:10B070008A420BDB624A1278002A00F08180012BA1
:10B080007ED0604B1B782B701846DFE75E4ABEF11E
:10B09000010F127804BF02232B70012AEAD15B4A08
:10B0A0001078002875D0A4EB090200FB02F2DFF84B
:10B0B00074C102EB42008CFB00A98CFB02ACC017F0
:10B0C000D217A0EBE910C2EBEC1222440444504822
:10B0D000DFF8549102608A42C9F8004040DB8C429C
:10B0E00059DB0223BEF1010F2B7062D0BEF1030FBA
:10B0F00048D11DF07FFF474B1B68C01A14285ED84B
:10B100002B78B7E7444A1278D2B91A7DDFF810815C
:10B11000DB7CD8F8001043EAC21305338B42BFF63C
:10B120007BAFFFF7FBFED8F8001075E70A2464E751
:10B13000012B98D01DF05EFF384A2B78106092E703
:10B14000DFF8DC801A7DDB7CD8F8001043EAC213FC
:10B150008B427FF761AFFFF70BFFD8F800105BE77A
:10B16000244A00210323BEF1010F11702B7009D076
:10B17000BEF1030F06D1224B1B78002B81D1734601
:10B18000184663E71E4A1278002A7FF47AAF184601
:10B190005CE722469BE7BEF1010F07D0BEF1030F2B
:10B1A0007FF468AF022B7FF465AFA2E7022B7FF438
:10B1B00061AF0020FDF714FC034628705AE7D9F868
:10B1C0000020D8F800100120FDF70AFC0346287083
:10B1D00050E700BF588F0020848F002004600020BB
:10B1E00030630020D7620020108D00209063002083
:10B1F000918F0020568F002040630020286300209C
:10B2000020900020558F0020A06100204C6200207B
:10B2100094910020208F0020208D0020C8910020D4
:10B22000349000201F85EB51989100202DE9F843C0
:10B230001DF0E0FE954D964A2B6811689942044630
:10B2400000F0A180DFF88882924F934E98F80010AA
:10B250001360012238603270002943D18F4B19608E
:10B260008F4B904F4FF00108002483F8008034701A
:10B270001DF0C0FE8C4B024628681A60FDF75AF993
:10B280002146034640463B70FEF7DCFF3E787F2EAA
:10B2900077D0864F3B78B34273D0854B1B78022B17
:10B2A0000BD0844B2A681A6083482422214627F059
:10B2B0006DF9824BC3E900441C72814B814A1B78B3
:10B2C0003E70C3EB0311C3EB8103134493F83220A8
:10B2D00022B193F838300BB1FFF712FDBDE8F84307
:10B2E000FFF770BE99461DF085FE774A774B1278BE
:10B2F000196828688A4203DAC10758BF49F0010972
:10B3000059688A4203DA810758BF49F002099968EF
:10B310008A4203DA410758BF49F00409D9688A42D2
:10B3200003DA010758BF49F0080919698A4203DAAC
:10B33000C10658BF49F0100959698A4203DA8106EB
:10B3400058BF49F0200999698A4203DA410658BF7B
:10B3500049F04009D9698A4203DA010658BF49F029
:10B3600080091B6A9A4203DAC30558BF49F4807901
:10B3700048451BD1494B327800211960002A7FF4DF
:10B380006FAFBDE8F883DFF81491424FD9F8003071
:10B390003868241A002B72D09C4219D33E4E327862
:10B3A0000023C9F80030002AEBD059E7FDF7C2F8B6
:10B3B000034648469946FDF7BDF87F28DAD0814517
:10B3C000D8D0DFF8D89098F80030C9F80030DFE71F
:10B3D0002E681DF00FFE3C4A3C4B12781968286815
:10B3E0008A4203DAC70758BF46F0010659689142FE
:10B3F00003DD810758BF46F0020699688A4203DAE6
:10B40000470758BF46F00406D9688A4203DA0107A5
:10B4100058BF46F0080619698A4203DAC70658BFC2
:10B4200046F0100659698A4203DA810658BF46F091
:10B43000200699698A4203DA470658BF46F040065B
:10B44000D9698A4203DA010658BF46F080061B6AB2
:10B450009A4203DAC30558BF46F48076B0429DD0C5
:10B46000FDF768F8034630461E46FDF763F87F286F
:10B4700094D0864292D0D9F800309C4281D3064EB7
:10B480003278002A3FF47DAFEAE600BF588F0020F3
:10B49000186300205C8B0020608B00208C910020C2
:10B4A000446200206A630020208F0020D8620020C0
:10B4B000B08F00205C8F002050620020B48F0020ED
:10B4C000848F0020046000202A6300204091002027
:10B4D00088910020102928BF1021012900F0F000D8
:10B4E00038BF0121C0282DE9F04102F07F0535D099
:10B4F000D0280BD1234E3378012B09D1224B1B6866
:10B5000033B1013961F02F04E4B218E0BDE8F081F5
:10B510001E4F7B6D0139186861F02F040368E4B297
:10B520001B68214698477B6D1868036829461B688D
:10B53000984733781BB9164B1B78022BE6D0154E73
:10B54000736D1868036821461B699847736D186806
:10B55000036829461B69BDE8F0411847094E337856
:10B56000012B07D1084B1B6823B1013961F03F045F
:10B57000E4B2E4E7054F7B6D0139186861F03F04E0
:10B58000CCE700BF90610020088D00207868002083
:10B59000886900205C6700202DE9F04F724E734DE2
:10B5A0003478C4EB0413C4EB83032B4485B09A783E
:10B5B000012A804600F0A480DFF8E891C4EBC403C0
:10B5C00009EB430393F806A01AF0010F53D0684B20
:10B5D00093ED020AB5EEC00AF1EE10FA04DD654BF8
:10B5E000D3ED007A30EE270A9FED637ADFED637AC0
:10B5F000B4EEC70AF1EE10FA88BFB0EE470AB4EE17
:10B60000E70AF1EE10FAB8BFB0EE670A03A8CDED75
:10B61000037A1BF01DF95A4BF0EE407AFEEEEC7AFD
:10B620001B78CDED017A002B46D0DDED037ADFF8F3
:10B6300078B1FDEEE77ADBF8003017EE907A87F309
:10B640000707BB4244D0C4EB0412C4EB82042C4471
:10B6500094F82F20002A75D14A4C2178FAB2D020D4
:10B66000FFF738FF3378CBF80070C3EBC30309EB67
:10B67000430999F806A01AF0020F1AD0404B1B7824
:10B68000BBB1414BDC6B002C62D123463F4D1C44C7
:10B690002B6884F307049C4202D1B8F1000F08D054
:10B6A000384B3B4A19781278E3B2A020FEF752FEDD
:10B6B0002C6005B0BDE8F08F364A1268642AB4DC0D
:10B6C000DFF8E4B001931F46DBF80030BB42BAD18B
:10B6D000C4EB0413C4EB8304254495F82F30002BEE
:10B6E00039D02D4D019A2B68934238D0254C9DF8C6
:10B6F000042020785721FAF74DFE019B2B60ACE720
:10B70000214AD7682301D7B93A46DFF8A0901744F9
:10B71000D9F8002087F30707BA4203D1B8F1000F28
:10B720003FF44AAF1B1BC4EB83042C44FAB261798B
:10B730002079FAF72FFE3478C9F800703CE7174AF1
:10B740001268E2E7FB1A0F331E2B85D8124DCDE7A6
:10B75000134B1B689AE7B8F1000F8CD07CE7B8F167
:10B76000000FC3D187E700BF848F00200460002052
:10B77000708F00209C9000200000FE42000000001E
:10B78000A38F0020C862002078620020FC8F002078
:10B790009C8F002034900020F48F0020989000208F
:10B7A000A090002040630020F08F0020EC8F00204C
:10B7B0002DE9F04FBC4DBD4C2B78BD4EC3EBC30201
:10B7C00004EB420230789279002A83B014BF4FF024
:10B7D00003094FF01009DA0000283BD0B549DFF823
:10B7E000F4C2C95CB44F0329B449097800F0EA8077
:10B7F0009CF900E097F800C0A1EB0E018C4502D047
:10B80000BCF1000F2AD1DFF8F48298F80030012B48
:10B8100000F0A2803A78002A00F0AC802B78C3EBCD
:10B82000C30104EB41046178002940F09E80A449E3
:10B83000CB5C032B00F08A81A24B1B78032B06D034
:10B84000A14B1A6840F2FF139A4200F0938003B0B4
:10B85000BDE8F08F984F39780029F8D0DFF89C8246
:10B8600098F800100129A2EB030104EB410149788B
:10B8700040F2BF80002940F0BE80D11A04EB4101A4
:10B880004979002900F0DE80002800F0D280DFF83E
:10B890002CA29AF800100191D21A04EB420292F8FD
:10B8A00009C0BCF1000F00F05A810122DFF840927C
:10B8B000DFF834B20092854A1278002A00F0A380A3
:10B8C000834A1268002A00F09E80DA0081493878A5
:10B8D00091F800C0D31A04EB430300EB0C02187A72
:10B8E000DFF81CC20123D2B28AF800208CF80030A5
:10B8F0003370002840F02281774B9BF800101B78B2
:10B900009020FEF727FD009B002B40F00F811DF0DB
:10B9100071FBDFF8F0A1CAF800001DF06BFB2B787B
:10B920006E4ADAF800101160C3EB0312C3EB820316
:10B930009944DFF8D4C199F81230694A3978CCF8C3
:10B940000000022B117000F0E980307800287FF4AD
:10B950005CAF03B0BDE8F08F2B78C3EBC30204EB00
:10B960004204627832B13A7822B15E4909780029FE
:10B970007FF45DAF5C4B514A1978127840238020E8
:10B98000FEF7E8FC2B78594A03EBC30102EBC10236
:10B99000D27D012A00F0BC80554AC3EB0311C3EBF2
:10B9A0008103134400229B7C3270022B7FF44FAF43
:10B9B000504B1B78002B3FF44AAF03B0BDE8F04F6B
:10B9C000FFF7D6BA9CF9008097F800C0DFF83CE199
:10B9D000A1EB0801ACEB010100299EF800E0B8BF23
:10B9E00049428E453FF70FAFBCF1000F7FF436AFF1
:10B9F00009E70029AAD03B49097800297FF43DAF27
:10BA00000028A6D001E7C3EB0312C3EB82024A442D
:10BA10009278012A08D0C3EBC30104EB4101DA009C
:10BA20008879002800F096800120FFF7B5FD2B787B
:10BA30004BE71DF0DFFA304B1B68C01A48453078E1
:10BA400084D32B78DFF874A09AF8002001920028A4
:10BA500040F0AF80DFF89890C3EB0312C3EB820293
:10BA60004A449278002A40F0A080C3EBC30104EB63
:10BA70004101DA004979002940F09180D11A04EBA4
:10BA800041018979C8077FD4890777D4DFF85CB092
:10BA90001A440BEBC202D27D012A00F08C800022F6
:10BAA000DFF844B0009206E7848F00204063002056
:10BAB000A38F0020E8620020D86200209C8F002025
:10BAC000D4620020A0610020588F002090610020E7
:10BAD000088D0020A890002097630020E08F0020B0
