:020000022000DC
:10600000000004206DC40400ADC40400AFC404004B
:10601000B1C40400B3C40400B5C40400000000000F
:10602000000000000000000000000000E9C30400C0
:10603000B9C404000000000009C40400BDC4040089
:10604000C1C60400BFC40400BFC4040015FA0300A5
:10605000BFC40400BFC40400AD9D0400BFC404005D
:10606000BFC40400BFC40400BFC40400BFC4040014
:10607000BFC40400BFC40400BFC40400BFC4040004
:10608000BFC4040039C10400BFC40400BFC404007D
:10609000BFC40400BFC40400316C0300BFC40400CB
:1060A000BFC40400BFC40400BFC40400BFC40400D4
:1060B000BFC40400BFC404000000000000000000D2
:1060C000BFC40400BFC40400BFC40400D5CB040097
:1060D000BFC40400BFC40400BFC404004194030053
:1060E000BFC40400BFC40400BFC40400000000001B
:1060F00000000000BFC40400000000004DCC0400FC
:10610000000000000000000000000000000000008F
:10611000000000000000000000000000000000007F
:10612000000000000000000000000000000000006F
:10613000000000000000000000000000000000005F
:10614000000000000000000000000000000000004F
:10615000000000000000000000000000000000003F
:10616000000000000000000000000000000000002F
:10617000000000000000000000000000000000001F
:10618000000000000000000000000000000000000F
:1061900000000000000000000000000000000000FF
:1061A00000000000000000000000000000000000EF
:1061B00000000000000000000000000000000000DF
:1061C00000000000000000000000000000000000CF
:1061D00000000000000000000000000000000000BF
:1061E00000000000000000000000000000000000AF
:1061F000000000000000000000000000000000009F
:10620000F1EE103A43F08073E1EE103A704700BFB0
:1062100010B5054C237833B9044B13B10448AFF3E0
:1062200000800123237010BD58670020000000008B
:106230009C01060008B5034B1BB103490348AFF3AB
:10624000008008BD000000005C6700209C01060083
:10625000154B002B08BF134B9D46A3F5803A002138
:106260008B460F461348144A121A2DF0BFF80F4BF5
:10627000002B00D098470E4B002B00D098470020F1
:10628000002104000D000D48002802D00C48AFF397
:1062900000802DF041F82000290026F03FF92DF074
:1062A00015F800BF000008000000042000000000F6
:1062B000000000005867002028CC002000000000EB
:1062C00000000000704700BF704700BF10B5034BCF
:1062D0000360044619F020FC204610BD64D405007C
:1062E0002DE9F0419DF81840013CE4B20F2C21D873
:1062F0000D4649B200291DDA1F46436D064618684F
:10630000036821431B68C9B290469847736D1868AB
:10631000036808F07F011B6805F0EF059847C02D62
:1063200008D0736D1868036807F07F011B68BDE82B
:10633000F0411847BDE8F0812DE9F0419DF8184083
:10634000013CE4B20F2C21D80D4649B200291DDAD8
:106350001F46436D06461868036821431B69C9B28E
:1063600090469847736D1868036808F07F011B69B1
:1063700005F0EF059847C02D08D0736D18680368C5
:1063800007F07F011B69BDE8F0411847BDE8F081C7
:10639000F0B5284B102805461C7828BF1025012D84
:1063A00038BF0125012C83B001F07F0702F07F0682
:1063B00020D0002C34D1204B1B789C1E18BF012408
:1063C000072801D1652F23D81C48009533463A464B
:1063D000B021FFF785FF24B9194B1B7813F0FD0F8F
:1063E00006D11848009533463A46B021FFF7A4FF7E
:1063F00003B0F0BD144B0728D3ED007A17D0F5EEAB
:10640000407AF1EE10FA03D00D4B1B78012BE8D83F
:106410000A48009533463A46B021FFF761FFE0E7AE
:10642000072808BF0124F3D1652FF1D8CCE7652FE9
:10643000EED8E4E79C610020A0690020906800206D
:10644000398D0020746700203C8D002030B50E4D42
:1064500083B00C4601904FF0FF31286824F052FAC7
:10646000019A68210720FFF793FF22466921072040
:10647000FFF78EFF002328681A46194603B0BDE8CF
:10648000304023F017BE00BFB88F002038B5214A36
:10649000214B224C224823491B7800251560224AB3
:1064A0004FF6FF752580002404700C70146003B94A
:1064B00038BD1E4D4FF0FF31286824F023FA4822E2
:1064C0006A210720FFF764FF224677210720FFF7A4
:1064D0005FFF234622462146286823F0EBFD4FF05C
:1064E000FF31286824F00EFA49226A210720FFF7BD
:1064F0004FFF224677210720FFF74AFF2346224617
:106500002868214623F0D6FD094B1A78022A08BFD5
:106510001C7038BD3C8D0020388D0020F4620020B6
:10652000448C0020458C0020408C0020B88F002037
:10653000398D0020F0B5014689B005463748384FFF
:1065400010F06EFB0024202269460646CDE9004487
:10655000CDE90344CDE90544029407940EF078FC9C
:1065600030460EF047FB07EE900AF8EEE77AB7EEFA
:10657000047A2C4B67EE877A1D80C7ED007A23F0F2
:1065800069FC294B29492A4D2A4A1B780C700121A4
:106590002860117023B9284B02229A7009B0F0BD0F
:1065A0009FED267AD7ED007A254E67EE877A306820
:1065B000FCEEE77A4FF0FF3117EE903A9DB224F0EF
:1065C000A1F948226A210720FFF7E2FE05F07F02C9
:1065D00077210720FFF7DCFE23462246214630685C
:1065E00023F068FD30684FF0FF3124F08BF9492229
:1065F0006A210720FFF7CCFEC5F3C71277210720D9
:10660000FFF7C6FE234622463068214623F052FD9E
:10661000094B02229A7009B0F0BD00BF54920020CD
:106620003C8D0020F4620020388D0020458C002035
:10663000408C0020448C0020308D00200000C84297
:10664000B88F002010B5012182B004461A2027F02F
:106650004BF901211A2027F0CBF9052023F006FC85
:106660004FF480730094ADF8043002AB13E90600D8
:10667000134818F0EFFE00211A2027F0B9F9AC21D9
:106680000F4818F0C5FF53210D4818F0C1FF002135
:106690000B4818F0BDFF00210446094818F0B8FF68
:1066A00000EB0421B1F5A64F06D01022054823F0D7
:1066B00017FB002002B010BD012002B010BD00BFCA
:1066C0005CAF0020D89A002070B5044642F21070EA
:1066D000FFF7B8FF7A497B4823F07EF9257805B3A8
:1066E0007949784823F018F910222946754823F093
:1066F000C7FAAC21754818F08BFFE021734818F0F9
:1067000087FF0021714818F083FF294603466F4830
:106710001D4618F07DFF00EB0520B0F5604F40F0FE
:10672000A9806A4DF021284618F072FF0021284602
:1067300018F06EFF0021284618F06AFF0021284655
:1067400018F066FF10F00106ECD16578002D70D1CD
:106750005E4DF021284618F05BFF0021284618F016
:1067600057FF0021284618F053FF0021284618F053
:106770004FFF10F00106ECD1A578002D7CD1534DD0
:10678000F021284618F044FF0021284618F040FF69
:106790000021284618F03CFF0021284618F038FF59
:1067A00010F00106ECD1E478FCB14949454823F0EA
:1067B000B3F810222146434823F062FAAC21434843
:1067C00018F026FFA421414818F022FF31463F4827
:1067D00018F01EFF214603463C481C4618F018FFDF
:1067E00000EB0420B0F5244F44D1384DF021284669
:1067F00018F00EFF0021284618F00AFF0021284655
:1068000018F006FF0021284618F002FF10F00104DE
:10681000ECD12C4823F030F92C4818F07DFE2146AD
:106820001A2027F0E5F821461A2027F05DF801200C
:1068300070BD2849234823F06FF8102229462148CB
:1068400023F01EFAAC21214818F0E2FEA0211F48D7
:1068500018F0DEFE31461D4818F0DAFE29460346E0
:106860001A481D4618F0D4FE00EB0520B0F5204F65
:106870003FF46EAF002070BD1749124823F04CF86A
:10688000102229460F4823F0FBF9AC210F4818F0DD
:10689000BFFEA8210D4818F0BBFE31460B4818F08A
:1068A000B7FE2946034609481D4618F0B1FE00EB25
:1068B0000520B0F5284F3FF462AF0020DBE700BFB2
:1068C000B4620500D89A0020C46205005CAF0020C5
:1068D00000630500D8620500EC620500F8B50446C7
:1068E00042F210700D46FFF7ADFE4F494F4823F0BE
:1068F00073F82678002E56D16678002E73D1A678CC
:106900008EBBE678FEB15021494818F081FE08217F
:10691000474818F07DFE0021454818F079FE002117
:10692000434818F075FEEB78424904461C403F4846
:1069300022F0F2FF3D482146102223F0A1F9A642A1
:1069400001D00020F8BD394823F096F8384818F0F7
:10695000E3FD00211A2027F04BF800211A2026F031
:10696000C3FF0120F8BD5821314818F051FE08211D
:106970002F4818F04DFE00212D4818F049FE002147
:106980002B4818F045FEAB782B4907461F40274897
:1069900022F0C2FF25483946102223F071F9BE4289
:1069A000AFD00020CEE75821214818F031FE002159
:1069B0001F4818F02DFE00211D4818F029FE002167
:1069C0001B4818F025FE2B781C4907461F40174826
:1069D00022F0A2FF15483946102223F051F9BE4299
:1069E0008AD00020AEE75021114818F011FE002196
:1069F0000F4818F00DFE00210D4818F009FE002187
:106A00000B4818F005FE0E49C7B2084822F084FF73
:106A100039460648102223F033F968780740BE4211
:106A20003FF46DAF00208DE714630500D89A002075
:106A30005CAF00205863050048630500286305002B
:106A40003863050010B50A4CF021204618F0E0FD2F
:106A50000021204618F0DCFD0021204618F0D8FD6A
:106A60000021204618F0D4FDC307EDD410BD00BFAF
:106A70005CAF00202DE9F04F894685B05349544C56
:106A800080465448174622F047FF49461022514895
:106A900023F0C8F823F0DEF92368C01AB0F57A7F36
:106AA00000F287804C48FFF7CDFD7B08029345D06C
:106AB000002508F10102494C01922B461E0A402193
:106AC000204618F815A05FFA85FB18F0A1FD3146A5
:106AD000204618F09DFD5946204618F099FD514674
:106AE0000746204618F094FD034603EB0723AB420C
:106AF0004FF0480120461AD1019B13F8153003933B
:106B000018F086FD3146204618F082FD5946204691
:106B100018F07EFD039B06461946204618F078FDC6
:106B200000EB0620A84205F10105ABB203D000201E
:106B300005B0BDE8F08F029A9A42BFD84C21274891
:106B400018F066FD4FEA59054FEA5921234818F01D
:106B50005FFDE9B2214818F05BFD002106461F48A1
:106B600018F056FD1E4904461A4822F0D5FE1022A0
:106B70002946184823F0B4F804EB062419491548AF
:106B800022F0CAFE214613481022A4B223F04AF88C
:106B9000A542CCD1FFF756FF104818F0BDFC0021EC
:106BA0001A2026F025FF1A20002126F09DFE012044
:106BB000BEE723F04FF90C4B0C4A20600C49C3F898
:106BC0000026044822F0A8FE6CE700BF68630500B9
:106BD000AC6A0020D89A002040420F005CAF002031
:106BE0008463050098630500000001403546526E3D
:106BF00078630500014608B5014822F0EDFEFEE786
:106C0000D89A002010B542F2107082B0FFF71AFD3A
:106C1000AC211D4818F0FCFC80211B4818F0F8FC42
:106C20000021194818F0F4FC00210446164818F019
:106C3000EFFC00EB0420B0F5004F22D1124CF02104
:106C4000204618F0E5FC0021204618F0E1FC002168
:106C5000204618F0DDFC0021204618F0D9FC10F089
:106C60000101ECD10848019118F056FC01991A2055
:106C700026F0BEFE01991A2026F036FE012002B051
:106C800010BD0248FFF7B6FF5CAF0020A06305000F
:106C9000084C094908B50546204622F06BFE2946F6
:106CA0001022204622F0E4FF204622F0E5FE0348B1
:106CB000FFF7A0FFD89A0020BC630500D063050051
:106CC000A0F13002D2B2092A12D9A0F14102052A5C
:106CD00008B508D9A0F16102052A0BD8A0F1570325
:106CE000DAB2104608BDA0F13703DAB2104608BD8B
:106CF00010467047FFF7CCFF2DE9F04704460E46DB
:106D00001F46904632B1013A92B20132FF21184635
:106D10002CF06CFB2278B044A2463AB10A2A01D08A
:106D20000D2A07D114F8012F002AF7D192465046B8
:106D3000BDE8F0873A2A40F0DB816078A0F13003AB
:106D4000DBB2092B0CD9A0F14103052B40F296814F
:106D5000A0F16103052B00F2C381A0F15703DBB260
:106D6000A078A0F13002D1B209294FEA03120CD960
:106D7000A0F14103052B40F28581A0F16103052BB1
:106D800000F2AE81A0F15701C9B2E078A0F1300362
:106D9000DBB20A44092BD5B20CD9A0F14103052B73
:106DA00040F27481A0F16103052B00F29981A0F1FA
:106DB0005703DBB22079A0F13001C9B21B010929C8
:106DC000DBB20CD9A0F14101052940F26381A0F1A9
:106DD0006101052900F28481A0F15701C9B26079EF
:106DE0000B44A0F13001DBB2C9B21D440929EDB258
:106DF0000CD9A0F14101052940F25081A0F16101B7
:106E0000052900F26D81A0F15701C9B2A079A0F166
:106E1000300C5FFA8CFC0901BCF1090FC9B20FD923
:106E2000A0F1410CBCF1050F40F23C81A0F1610CD6
:106E3000BCF1050F00F25481A0F1570C5FFA8CFCF5
:106E4000E0796144A0F1300CC9B25FFA8CFC0D44CA
:106E5000BCF1090FEDB20FD9A0F1410CBCF1050F47
:106E600040F22581A0F1610CBCF1050F00F23881E0
:106E7000A0F1570C5FFA8CFC207AA0F1300E5FFA7B
:106E80008EFE4FEA0C1CBEF1090F5FFA8CFC04F178
:106E900009094ED9A0F14103052B40F2EB80A0F186
:106EA0006103052B00F21C81A0F15703DBB265449E
:106EB00053FA85F5EDB2002A00F09880531E04F1D4
:106EC0000D019BB201EB43010B3422E0A0F1610301
:106ED000052B00F20581A0F15702D2B214F8010C83
:106EE000A0F13003DBB21201092BD2B20BD9A0F111
:106EF0004103052B71D9A0F16103052B00F2F0804D
:106F0000A0F15703DBB21A44023415448C42EDB2AF
:106F10006CD014F8020CA0F13002D2B2092AA146BA
:106F2000DCD9A0F14103052BD0D8A0F13702D2B2B1
:106F3000D4E7E6445FFA8EF005440128EDB200F094
:106F4000BB800028B7D141EA03214145BFF6EFAE2F
:106F5000002A6DD00A441FFA82FC0B342DE0A0F108
:106F60006103052B00F2BC80A0F15703DBB214F8DB
:106F7000010CA0F13002D2B21B01092ADBB20BD9FD
:106F8000A0F14102052A50D9A0F16102052A00F2C0
:106F9000A780A0F15702D2B21344DBB21D448E4247
:106FA000EDB204D8884502DD8A1B92B2BB54013190
:106FB00089B28C4504F102043AD014F8020CA0F115
:106FC0003003DBB2092BA146D1D9A0F14103052B37
:106FD000C5D8A0F13703DBB2C9E7A0F13703DBB2B4
:106FE0001A44023415448C42EDB292D199F8000053
:106FF000FFF766FE044699F80100FFF761FE0544BD
:1070000005EB041010F0FF0F6FD199F802200D2A44
:107010000ABF99F8032009F1020409F103040A2ABE
:107020007FF47BAE6278013477E63738C2B2B3E7DB
:1070300099F80000FFF744FE044699F80100FFF7B5
:107040003FFE054405EB041010F0FF0F4AD199F8FC
:1070500002200D2A0ABF99F8032009F1020409F160
:1070600003040A2A01D0A24657E604F1010A627815
:10707000544652E6A0F13703DBB218E7A0F137031C
:10708000DBB26DE6A0F13701C9B27EE6A0F13703AD
:10709000DBB28FE6A0F13701C9B2A0E6A0F137015B
:1070A000C9B2B3E6A0F1370C5FFA8CFCC8E6A0F1D8
:1070B000370C5FFA8CFCDFE6607AFFF701FE0346CF
:1070C000A07A1C46FFF7FCFD431903EB041313F0F1
:1070D000FF0308BF9A463FF42AAE0748FFF78AFD30
:1070E000FFF7D6FD0548FFF785FD0548FFF782FD50
:1070F0000448FFF77FFD00BFEC6305002064050036
:1071000000640500E06305002DE9F04F824683B07E
:10711000CD48CE4EFFF796FAD14619F8011B0A2941
:1071200000F090810D2900F08D813A2940F0ED8129
:107130009AF80100A0F13003DBB2092B0CD9A0F1C1
:107140004103052B40F2C481A0F16103052B00F23D
:10715000D281A0F15703DBB29AF80200A0F1300807
:107160005FFA88F2092A4FEA03180CD9A0F141030B
:10717000052B40F2A981A0F16103052B00F2BB8130
:10718000A0F15702D2B29AF80300A0F13003DBB2AB
:107190009044092B5FFA88FB0CD9A0F14103052B21
:1071A00040F28E81A0F16103052B00F2A481A0F1D1
:1071B0005703DBB29AF80400A0F13007FAB21B01C2
:1071C000092ADFB20CD9A0F14103052B40F27481EA
:1071D000A0F16103052B00F28E81A0F15702D2B21B
:1071E0009AF805001744A0F13003FFB2DBB2BB44AC
:1071F000092B5FFA8BFBBAB20CD9A0F14103052B26
:1072000040F25681A0F16103052B00F27481A0F1D8
:107210005703DBB29AF80600A0F13007FFB21B015A
:10722000092FDBB20CD9A0F14101052940F23C81C4
:10723000A0F16101052900F25E81A0F15707FFB2BC
:107240009AF807003B44DFB2A0F13003DBB2BB4445
:10725000092B07EB02275FFA8BFBBFB20CD9A0F119
:107260004103052B40F21C81A0F16103052B00F2C4
:107270004281A0F15703DBB29AF80800A0F1300474
:10728000E4B21B01092CDBB20AF1090940F2E880E3
:10729000A0F14102052A40F20081A0F16102052A15
:1072A00000F229815738C0B29B4450FA8BFB5FFA39
:1072B0008BFBB8F1000F00F093800AF10B0A3D46FA
:1072C0001DE02821304618F0A3F9690A304618F06D
:1072D0009FF9C5F34701304618F09AF9002130466E
:1072E00018F096F9C3B2A3424FD1C7F101032B4462
:1072F000DBB2013543450AF1020AADB270DA1AF881
:10730000024CA4F13003DBB2092BD1460BD9A4F116
:107310004103052B5DD9A4F16103052B00F2DC804C
:10732000A4F15703DBB21AF8012CA2F130011C01C1
:10733000CBB2092BE4B20AD9A2F14103052B4CD9F7
:10734000A2F16103052B00F2D880573AD3B21C4456
:10735000E4B2A34415F001035FFA8BFBB1D1202105
:107360003046019318F054F9690A304618F050F984
:10737000C5F34701304618F04BF9019B30461946DA
:1073800018F046F9C3B2A342AFD03148019322F0BE
:1073900073FB30492E4822F0BFFA102229462C48B0
:1073A00022F09EFC2C492A4822F0B6FA10222146EF
:1073B000274822F05DFC2949254822F0ADFA019BBF
:1073C00023481946102222F05BFC002003B0BDE8E0
:1073D000F08FA4F13703DBB2A5E7373AD3B2B6E7B3
:1073E00099F80000A0F13003DBB2092B0AD9A0F113
:1073F0004103052B4DD9A0F16103052B7BD8A0F1EA
:107400005703DBB299F80100A0F13001C9B21B01AA
:107410000929DBB20AD9A0F14102052A35D9A0F128
:107420006102052A67D8A0F15701C9B29B4451FAFD
:107430008BF111F0FF0171D199F802300A2B09F19B
:10744000030968D1CA4667E640420F005CAF0020DE
:10745000D89A0020486405006C6405007C6405002F
:107460001C44E4B2A344012C5FFA8BFB7FF421AFF0
:107470002E4818F051F800211A2026F0B9FA1A20E7
:10748000002126F031FA2046A0E7A0F13701C9B269
:10749000CCE7A0F13703DBB2B4E73738C0B203E77B
:1074A000A0F13703DBB2E7E6A0F13707FFB2C7E68A
:1074B000A0F13703DBB2ADE6A0F13702D2B28FE61E
:1074C000A0F13703DBB275E6A0F13702D2B25AE67B
:1074D000A0F13703DBB23FE61549164822F04AFA1D
:1074E00021461022134822F0C3FB124822F0C4FAAE
:1074F0001148FFF77FFBFFF7CBFB0D490D480192C9
:1075000022F038FA019A1146EBE70A4822F060FAB5
:107510000A48FFF76FFB0A48FFF76CFB054810228B
:1075200022F0A6FB0748FFF765FB00BF5CAF002019
:10753000BC630500D89A0020D06305003C640500B8
:1075400094640500846405002DE9F04F7349744884
:1075500085B022F0E1F97348FFF774F8002869D08C
:1075600071496F4822F038FA42F21070FFF76AF85A
:1075700030216E4818F04CF800216C4818F048F89B
:1075800001216A4818F044F80021684818F040F8D2
:1075900030210502654818F03BF80021634818F0D7
:1075A00037F80221614818F033F8002104465F489B
:1075B00018F02EF805F47F4500EB04245B4817F023
:1075C000ABFF2C4300211A2026F012FAA4B20021AE
:1075D0001A2026F089F9631E9BB24FF6FD72934282
:1075E00004D8534B1F683B88A34204D00024204694
:1075F00005B0BDE8F08FFFF705FB0521B81CFFF7CC
:1076000063F80028F2D0494817F086FF00211A20BD
:1076100026F0EEF900211A2026F066F9642022F007
:1076200025FC3E493E4822F077F93E48FFF70AF82C
:10763000814620B93F493A4822F0CEF9D6E73A4987
:10764000374822F0C9F9B7F820A097F8228007F14F
:1076500023030293BAF1000F25D0DFF8DCB00397C3
:107660001FFA88F20BEB080647461C460025904699
:10767000A9B220465B4642460191FFF73DFB0199C6
:10768000044657B12C4B4A4613F8010BFF2818BF8C
:1076900000229E42F8D1002A38D03D44AA4501D9A3
:1076A000002CE5D1039F0298FFF72EFD00289DD006
:1076B00007F10C0420460521FFF706F8002895D0B5
:1076C000204607F11601FFF709F9044600288DD07E
:1076D000032540F2FF310A2025F020FF40F2FF3160
:1076E000032025F01BFFC82022F0C0FB00210A2048
:1076F00025F014FF0021032025F010FFC82022F000
:10770000B5FB6B1E13F0FF05E3D170E74246584608
:10771000FFF7B0F90028C0D168E700BF8862050014
:10772000D89A0020A0860100A46205005CAF00206A
:1077300084620020AC620500BC6A00202DE9F043A1
:10774000674C684E684F87B0204619F001FE674AC3
:10775000A36A674933600191664EE56A664C07CAC1
:107760009B1033604FF48073ADF80830256003AD93
:1077700085E80700029A5E49384617F06BFE002143
:10778000022026F035F95D4B4FF4707043F0010391
:1077900098470021384617F03BFF00240646013485
:1077A000E4B22146384617F033FF0B2C05F8010BE5
:1077B000F5D1534B4C4819781431C9B217F028FF52
:1077C0000121044602208DF8174026F011F94648A1
:1077D00017F0A2FEDDE903279DF814509DF815006F
:1077E0009DF8161085EA00037A404B40C2F3072744
:1077F00053407B40C2F307477B4083EA126304F0A7
:107800000302534083EA131303F00F03B3EB141F77
:1078100002D007B0BDE8F083FF2EFAD1230203F4B3
:10782000407382001D439DF80C30364FDFF8E08036
:107830003D62940002F4407213439DF80D209DF8C0
:107840000E503B6004F440748E0014438301020226
:107850007C609DF80F009DF811404FEA860C03F400
:1078600040732B4302F440729DF81050BB600CF43F
:10787000407C02434CEA040C06F440708C0128431F
:107880000B029DF81250204EFA6004F440719DF8EE
:107890001340386103F44073294323431B4DFB61BC
:1078A000C7E905C13C1F4FF00009203754F8041FF9
:1078B000284619F059FE98F80020EB6A2360383505
:1078C00012B932689B1A2360002BB8BFC4F800902D
:1078D000BC4206F10406E9D107B0BDE8F08300BF61
:1078E000F88B0020C89100205CAF0020E864050000
:1078F00080841E006C900020E490002050CF050092
:10790000FC9100207891002054910020608D00208F
:10791000338D00202DE9F043C04DC14C297801EB97
:10792000C1032DED028B04EBC30014F8333083B098
:10793000CA007BB3BB4FDFEDBC8AD7ED007A9FED69
:10794000BB8AC379007A009077EEA87A0A4404EBE8
:10795000C20167EE887A8A794979FDEEE77A834237
:1079600041F2883994BF8046064609FB02F217EEC1
:10797000900A09FB01F194BF1E46984622F058FA7E
:10798000B04280F2E280AA4F3B78B34240F08E8052
:107990002978CA00501804EBC000437873B3A54F90
:1079A000DFEDA18AD7ED007A9FEDA08AC37A007B34
:1079B000009077EEA87A0A4404EBC20167EE887A59
:1079C0008A7A497AFDEEE77A834241F2883994BF98
:1079D0008046064609FB02F217EE900A09FB01F108
:1079E00094BF1E46984622F023FAB04280F28A8065
:1079F000914F3B78B3424BD12978CA00531804EB1E
:107A0000C303987818B993F82030002B3BD08B4FE4
:107A1000DFED8B8AD7ED007A9FED848A501804EB56
:107A2000C00077EEA87A0A44C37B007C009004EB88
:107A3000C20167EE887A8A7B497BFDEEE77A834252
:107A400042F2107994BF8046064609FB02F217EE17
:107A5000900A09FB01F194BF1E46984622F0E8F90E
:107A6000B04231DA774FDFF8E0813B7888F8006088
:107A7000B34208D02B7803EBC30304EBC3039A781B
:107A8000002A40F0858003B0BDEC028BBDE8F08396
:107A90002B7803EBC30304EBC3033246597D987C78
:107AA000FEF776FC29783E70CA00A7E72B7803EB37
:107AB000C30304EBC3033246197D587CFEF768FC10
:107AC00029783E70CA0065E7D7ED007A2B7877EE0B
:107AD000A87A03EBC30304EBC30367EE887A9A7BAF
:107AE000597B187C0090FDEEE77ADB7B17EE900A5D
:107AF00009FB02F209FB01F122F09AF9404554DD3D
:107B00004646AFE7D7ED007A2B7877EEA87A03EBFD
:107B1000C30304EBC30367EE887A9A7A597A187B19
:107B20000090FDEEE77ADB7A17EE900A09FB02F28D
:107B300009FB01F122F07CF9404552DD3E4F3B78D4
:107B40004646B3423FF458AFA2E7D7ED007A2B7810
:107B500077EEA87A03EBC30304EBC30367EE887ADE
:107B60009A795979187A0090FDEEE77ADB7917EE69
:107B7000900A09FB02F209FB01F122F059F9404594
:107B800064DD2B4F3B784646B3423FF401AF8DE7AF
:107B9000997DD87C3246FEF7FBFB98F800303B70AD
:107BA00003B0BDEC028BBDE8F083D7ED007A2B78F3
:107BB00077EEA88A03EBC30304EBC30328EE888A9D
:107BC0009A7B597B187C0090FDEEC87ADB7B17EE20
:107BD000900A09FB02F209FB01F122F029F9C6B271
:107BE00040E7D7ED007A2B7877EEA88A03EBC30342
:107BF00004EBC30328EE888A9A7A597A187B00909E
:107C0000FDEEC87ADB7A17EE900A09FB02F209FB57
:107C100001F122F00DF9C6B2EAE600BF189000208B
:107C2000C4600020609000200000B44200007A444C
:107C3000DC8B0020E08F0020DD8B0020348C0020C6
:107C400000003443DE8B00203C920020D7ED007A08
:107C50002B7877EEA88A03EBC30304EBC30328EE6B
:107C6000888A9A795979187A0090FDEEC87ADB797A
:107C700017EE900A09FB02F209FB01F122F0D8F895
:107C8000C6B280E6BC499FEDBD6AD1ED007ABC4B1F
:107C9000BC4A93ED007ADFEDBC6A2DE9F04F67EE48
:107CA000867A2DED028BE7EE267AB84DB84C92ED30
:107CB000008A2B78C1ED007A37EE088A03EBC30304
:107CC00038EE678AF6EE008A04EBC30368EE288A72
:107CD00085B0C2ED008A93F8242093F81BB001927E
:107CE00093F8252093F826300292039322F0B2F8FD
:107CF0002B78A84A03EBC301F0EEE87AB3EE047ADE
:107D000004EBC101F4EEC77AF1EE10FA0D7ECCBFA0
:107D1000012600261670DA001DB991F82160002EA8
:107D20007AD09D49DFF898C2DFF89882DFF898E2B0
:107D30009A4F0E784FF000094FF0000AC7F80090F4
:107D4000CCF80090C8F80090CEF800A07EB9B6EE4E
:107D5000007AF4EEC77AF1EE10FA08DD904A0123BA
:107D600010600B7005B0BDEC028BBDE8F08FDFF842
:107D70003092D9F80090A0EB0909B9F10B0FF1D9B5
:107D8000DFF848A29AF80090B9F1000F1ED0DFF892
:107D9000409299F80060002E47D09FED827A824E83
:107DA000F4EEC77AF1EE10FAC8BF30603668801B77
:107DB000B0F5C87F3ED9002389F800300B708AF8EF
:107DC000003005B0BDEC028BBDE8F08FB6EE007A56
:107DD000F4EEC77AF1EE10FA00F39A80DFF8F09132
:107DE00099F80070002FD8D19FED6E7AF4EEC77A23
:107DF000F1EE10FA01DD6C4B1860002EB2D06A4B28
:107E00001B68C01AB0F5C87FACD9002389F80030D0
:107E10000B708AF80030D4E791F82260002E80D1F0
:107E200091F8231000299DD07BE75F4E012130603F
:107E300089F80010DFED5D7AB4EEE78AF1EE10FA12
:107E40004FDAD11804EBC101FFEE008AC97F002987
:107E50005BD0032900F0FC80022900F03281052963
:107E600000F00B81042900F07B81B0EE687A9DB1AF
:107E70004F499FED506AD1ED007A484906EE90BA1D
:107E800067EE867AF8EEE66A67EEA67A67EE877A9C
:107E9000FDEEE77AC1ED007AD11804EBC10191F84B
:107EA0002100002846D0DDED017A9FED4A7A91F855
:107EB0002710F8EEE77A67EE877A99B3032900F086
:107EC0003681022900F0F580052900F06981042936
:107ED00000F09A8168EEA77AFDEEE77A17EE901A25
:107EE00026E0DFED357AD118B4EEE78A04EBC10164
:107EF000F1EE10FA98BFDFED317AC97F94BF68EEDA
:107F0000A78AF7EE008A0029A3D1B1EE687AAEE71E
:107F100001268AF800603AE7F5EEC08AF1EE10FA21
:107F2000C0F2CD8067EEE87AFDEEE77A17EE901AA0
:107F3000CCF80010D11804EBC10191F82200002800
:107F400055D0DDED027A9FED237A91F82810F8EEF6
:107F5000E77A67EE877A002945D0032900F0B980D7
:107F6000022900F09580052900F03C81042900F0E9
:107F7000598167EEA87A38E0648B00206666663F18
:107F8000EC8B0020688B0020CDCCCC3D18900020DD
:107F9000C4600020CC900020628B0020DC90002088
:107FA0006C8B00203333B33E708B00202506F0C16C
:107FB000006300200AD7233D2506F0410A85883D4D
:107FC000D0900020D8900020D4900020608B00201A
:107FD000618B00200AD7233F00000000F5EEC08A25
:107FE000F1EE10FA5ADB67EEE87ACEED007A134430
:107FF00004EBC30494F82330002B3FF4B3AEDDED63
:10800000037A1FED0C7A94F82930F8EEE77A67EEE0
:10801000877A63B967EEE88AFDEEE87A17EE903A60
:10802000C8F8003005B0BDEC028BBDE8F08F032B23
:1080300064D0022B35D0052B00F0C180042B00F05A
:10804000068168EEA77AFDEEE77A17EE903AE7E749
:108050005FED1F7AF5EEC08AF1EE10FA8CBFB0EE3C
:10806000677AB0EE687AFFEE007AB4EEE77AF1EE66
:1080700010FAB8BFB0EE677AF9E6F7EE007AF4EEE0
:10808000E78AF1EE10FA40F2B880BFEE007AEEE631
:10809000F5EEC08AF1EE10FA40F2E7805FED327A39
:1080A000A3E7F5EEC08AF1EE10FA40F2E780002374
:1080B000B6E7F5EEC08AF1EE10FA40F2EE8000214C
:1080C00036E7F5EEC08AF1EE10FA5ED91FED3E7A82
:1080D000CDE6F5EEC08A1FED407AF1EE10FA98BFBA
:1080E000B0EE687AFFEE006AB4EEE67AF1EE10FACE
:1080F000B8BFB0EE667A67EE877A76E7F5EEC08AAB
:108100001FED4B7AF1EE10FA88BFF0EE478ABFEE12
:10811000007AF4EEC78AF1EE10FAB8BFF0EE478AA3
:1081200068EEA78AFDEEE87A17EE903A78E7F5EE6A
:10813000C08A1FED577AF1EE10FA98BFB0EE687A58
:10814000FFEE006AB4EEE67AF1EE10FAB8BFB0EED8
:10815000667A67EE277AFDEEE77A17EE901AE7E681
:10816000F7EE007AF4EEE78AF1EE10FA8CBFB0EE8B
:10817000677AB0EE687AB5EEC07A5FED697AF1EEB3
:1081800010FAB8BFB0EE677A71E6FFEE007AF4EE4F
:10819000E78AF1EE10FABFF6B8AEB7EE007A66E6FF
:1081A000B7EE007AF4EEC78AF1EE10FA7FF6B4AEBD
:1081B000F1EE677AFDEEE77A17EE901AB8E6F5EE83
:1081C000C08A1FED7B7AF1EE10FA88BFF0EE478A85
:1081D000BFEE007AF4EEC78AF1EE10FAB8BFF0EE07
:1081E000478A2EE7B7EE007AF4EEC78AF1EE10FA6E
:1081F0007FF6F4AEF1EE677AF7E6F5EEC08AF1EEBF
:1082000010FABFF682AE61E7B7EE007AF4EEC78AE5
:10821000F1EE10FA98BFB0EE687A5FED916AB5EEB4
:10822000C07A91E7B7EE007AF4EEC78AF1EE10FA61
:1082300098BFB0EE687AB5EEC07A5FED996AF1EE5C
:1082400010FAB8BFB0EE667A67EE877ACDE6B7EE81
:10825000007AF4EEC78AF1EE10FA88BFF0EE478A92
:10826000F5EEC08A1FEDA47AB6E7BFEE007AF4EE11
:10827000C78AF1EE10FABFF6B6AEB6E6BFEE007AE8
:10828000F4EEC78AF1EE10FAFFF6DDAE67EEE87A9B
:10829000FDEEE77A17EE903AC2E6BFEE007AF4EE12
:1082A000C78AF1EE10FABFF63DAE54E74C4B1B689F
:1082B000DB05F0B462D44B4B4B4D186A95ED007A58
:1082C0004A4B4B491A784B4C4B4B24781B6A4B4F0B
:1082D000286007EE900AF8EEC76AF8EEE77AB1EE8A
:1082E000E67AC2EB821211441B1B91F83C2091F8F4
:1082F0003E50434E04EB5303323A03FB02F287FB3A
:1083000002C1D217C2EB2112B1EEE76A03EB020CF5
:10831000322101FB0CF187FB01C7C9179B1AC1EB86
:108320006712A6FB051676089B1A36490A7A76EE7E
:10833000477AF5EEC07AF1EE10FADABF37EE467AF8
:10834000F3EE0E7AB3EE0E7A27EE277A07EE906AF6
:108350009842F8EEE77A1CDDE61CB04219DDB4EE77
:10836000E77A0123F1EE10FA0B722CD47F2D2AD07C
:10837000254B1B7A53BB254B1B7802E0234A002375
:108380001370234A2349107813704340F0BC0B70DC
:108390007047033B98420CDA00230B721E4A1A4CBA
:1083A0001A48117A00232372037001B1137200235B
:1083B000E7E70234A042EFDDB4EEE77AF1EE10FA1F
:1083C00008D5002AEAD0104B01221A720F4A012365
:1083D0001370D6E77F2DF4D0002ADFD0C8E700BFA6
:1083E000908F002078910020788B0020189000203A
:1083F000046000203F630020806300201F85EB5154
:10840000ABAAAAAA848F0020E89000207F630020F6
:108410007C8B00204B910020788F0020F0B4CD4B56
:10842000CD4D1A78CD482B68CD49002A73D1CD4A5D
:1084300004680F681668E41BA64240F2418143F0CD
:10844000010344684F685668E41BB442C0F0518190
:10845000043CB44280F09F8184688F689668E41B76
:10846000B442C0F03781043CA64240F29181C46816
:10847000CF68D668E41BA64200F22981043CA642DC
:1084800040F2838104690F691669E41BB442C0F0AD
:108490002D81043CA64240F2758144694F695669BA
:1084A000E41BB442C0F01F81043CA64240F2678145
:1084B00084698F699669E41BB442C0F01181043C61
:1084C000A64240F25981C469CF69D669E41BB4421F
:1084D000C0F00381043CA64240F238810C6A006A75
:1084E000116A021B8A4280F0DB809F4A43F480734A
:1084F0002B601378022B40F0DE809C4B9C4A1B784B
:10850000C3EB8313134493F837301B0740F1D38038
:10851000F0BCFFF7CBBE0E6804689FED967A914AD7
:10852000A41B07EE904AF8EE677A166867EE877A22
:10853000FDEEE77A17EE907AE41BB442C0F0BD80FE
:10854000043CA64298BF23F001034F6844689FEDA6
:10855000897A5668E41B07EE904AF8EE677A67EE70
:10856000877AFDEEE77A17EE907AE41BB44280F04A
:10857000C38043F002038F6884689FED7E7A96681B
:10858000E41B07EE904AF8EE677A67EE877AFDEE15
:10859000E77A17EE907AE41BB44280F0D18043F082
:1085A0000403CF68C4689FED737AD668E41B07EEB6
:1085B000904AF8EE677A67EE877AFDEEE77A17EE73
:1085C000907AE41BB44280F0B58043F008030F6951
:1085D00004699FED687A1669E41B07EE904AF8EE8D
:1085E000677A67EE877AFDEEE77A17EE907AE41BFA
:1085F000B44280F0998043F010034F6944699FEDC5
:108600005D7A5669E41B07EE904AF8EE677A67EEEA
:10861000877AFDEEE77A17EE907AE41BB4427DD2BA
:1086200043F020038F6984699FED527A9669E41BB9
:1086300007EE904AF8EE677A67EE877AFDEEE77A02
:1086400017EE907AE41BB44262D243F04003CF6944
:10865000C4699FED487AD669E41B07EE904AF8EEAC
:10866000677A67EE877AFDEEE77A17EE907AE41B79
:10867000B44247D243F08003006A0C6A116A9FED4E
:108680003D7A021B07EE902AF8EE677A67EE877A4A
:10869000FDEEE77A17EE900A121A8A42FFF425AF30
:1086A000043A914201D823F480732F4A2B60137847
:1086B000022B3FF422AFF0BC704743F0010344E7C4
:1086C000043CA6423FF6BDAE23F00103B9E643F0F9
:1086D0000803D7E643F00403C9E643F08003FDE650
:1086E00043F04003EFE643F02003E1E643F01003DC
:1086F000D3E643F00203AFE6043CA64298BF23F062
:10870000020338E7043CA64298BF23F08003B3E796
:10871000043CA64298BF23F0400398E7043CA642DD
:1087200098BF23F020037DE7043CA64298BF23F0C6
:10873000100362E7043CA64298BF23F0080346E713
:10874000043CA64298BF23F004032AE723F08003E9
:10875000C4E600BF338D0020908F0020806300208E
:108760005491002078910020B161002018900020E1
:1087700004600020CDCC4C3E23F04003A3E623F060
:10878000200395E623F0100387E623F0080379E63B
:1087900023F004036BE623F002035DE670B42D4B77
:1087A0002D4A1B78D15C4229C0F3470325D82B48BA
:1087B0000478022C1A462CD0294800EB01201929F4
:1087C000805C164633D071BB264D274AAD5D1570CF
:1087D00001291BD1254D244AEB5C1370032901D1DB
:1087E0003F2830D0032C06D0214B1A6840F2FF13EB
:1087F0009A4208BF002070BC7047184A14781D4A7E
:10880000022C08BF03F07F03D05CEBE70A29E1D01C
:10881000E4E7A1F117000128CED8114A03F07F0345
:1088200002EB0122D05C0429D2D11E46CCE7124BC8
:108830001B78002BD6D1602A0AD0202A06D03E2AE7
:1088400008BF4B20CEE7002070BC70474A20C9E724
:108850004920C7E718900020E4620020B1610020A1
:1088600044B50500006505000492002044B40500ED
:10887000908F0020A46900207F63002030B4254938
:10888000254B264A0D781C78034607CA84B00DF1A3
:10889000100C0CE90700EDB9214A125D6FEA23259F
:1088A000192A05F001051BD01E4A1F49C4EB84108C
:1088B0000244C4EBC40401EB440492F83210E4789F
:1088C00091B9C3F30023181BB0FA80F0400904B03B
:1088D00030BC7047124A125D192A4FF00205E3D1ED
:1088E000002004B030BC704792F837100907E8D573
:1088F00092F8390040EA4400C0B204AB00EB4000FB
:108900001844054415F80C0C0138C0B204B030BC52
:10891000704700BF7F63002018900020F4640500BA
:10892000E462002004600020546300202DE9F0413F
:10893000884C894D94F801E02378A67894F803C018
:1089400027792D78BEF1000FC3F10003DBB218BF09
:10895000FF23002E18BFFF2394F805E07F4EBCF1E3
:10896000000F18BFFF23002F18BFFF23A77994F82B
:1089700007C0247ABEF1000F05EBC50E06EBCE064C
:1089800018BFFF23002F18BFFF23B77EBCF1000FD5
:1089900018BFFF23002C18BFFF23012F4FEAC50C7F
:1089A0004FF000045ED06E4E6E4FDFF8D0E13678A7
:1089B0003F78C5EB8518C64406EB460607EB8606EE
:1089C0009EF83170334407FB04330328DEB25CB2F7
:1089D00035D0654B1B78032B1AD0022B02D02046D2
:1089E000BDE8F081614B5B5DA3F14302032A06D928
:1089F000182BF4D85E4A22FA03F3DB07EFD50846BA
:108A0000FFF73CFF00FB074464B22046BDE8F0815D
:108A1000564B585D0128E2D00A28E0D0554BACEB0C
:108A2000050503EB450301F00101DB789942D6D13E
:108A30003B19DBB2072808BF053B5CB2CFE74B4BC5
:108A4000585D0F285DD00C2851D00E2861D0082821
:108A500065D1492A55DD444B1B78BC19032B64B200
:108A6000BBD1DBE7B47F002C9DD0434EDFF810E193
:108A700096ED017ADEED007AB8EEC77AF4EEC77AA9
:108A8000F1EE10FA5DD4012C2ED096ED027AB8EEFC
:108A9000C77AF4EEC77AF1EE10FA54D4022C23D040
:108AA00096ED037AB8EEC77AF4EEC77AF1EE10FAD3
:108AB0004BD4032C18D096ED047AB8EEC77AB4EEF6
:108AC000E77AF1EE10FA3ADC042C38D096ED057A0C
:108AD000B8EEC77AB4EEE77AF1EE10FA37DC052C7F
:108AE00018BF00247FF45FAF013CE4B25BE7392A92
:108AF00007DD3E2A0FD1BB190728DBB20DD1053B9C
:108B00005CB2194B1B78032B88D0022B7FF467AF24
:108B100068E7452AF5DDBB19DBB25CB259E73E2AAE
:108B2000E9D1012801D00A28E5D10F4A1278032A99
:108B30003FF455AF022A7FF452AF5B5D5AE704243D
:108B4000D2E73C46D0E70224CEE70324CCE7052455
:108B5000CAE700BF788F002018900020C460002072
:108B6000D88F0020D18F0020B1610020E462002066
:108B70005100800154630020F88F00200460002021
:108B8000E08F0020284B294A1B78C3EB8313134442
:108B900093F83B30C3B1264B9FED267AD3ED007A94
:108BA000F4EEC77AF1EE10FA0FD5234A1378022BB0
:108BB0002BD0BBEE047AF4EEC77AF1EE10FA0CDC9F
:108BC0001E4B1B78032B1CD07047FBEE046AF4EE9F
:108BD000E67AF1EE10FA0BDD174A1378032B14D066
:108BE0009FED147AF4EEC77AF1EE10FA16DA7047B8
:108BF000F4EEC77AF1EE10FAE2DB104B1B78022B91
:108C0000E0D10F4B00221A7070470D4A11780029ED
:108C1000DAD10A480121037011707047074B1B78A5
:108C2000022BD1D1EDE700BF189000200460002096
:108C3000E08F0020000096C2C58F00208D8F00209D
:108C40005890002070B505460C4621F003F91A4AE9
:108C500013783BB9194E1A4930601A4E0B60012146
:108C600033601170CDB9154B17491B680968C31AD9
:108C70008B420ED2124B1968A1B1124B19681C60BD
:108C8000611AB1F5FA6F11D09DB1012D0ED10029F5
:108C90000CDB00231370022070BD012DF9D1074BAE
:108CA0000A49E2E7074901220C601A60084B18786C
:108CB00070BD0029FADCECE78E8F0020748B002059
:108CC000489000203C900020C862002050620020A4
:108CD000488D00202DE9F843A74BA84E1B78C3EB25
:108CE00083123244980192F82D20403A07EE902AE0
:108CF000F8EEE77A00F1E4809FEDA17AF7EE000A42
:108D0000E7EE870AC21A324492F82E20403A07EE64
:108D1000902AF8EEE77A00F1DE80DFED996AB7EE8F
:108D2000007AA7EEA67A974AC3EBC30102EB410291
:108D3000927A002A00F09C80934AC51A1278354432
:108D4000012A95F8241095F8277095F828E095F8F1
:108D500025C095F8294095F82A8095F82C9000F0C8
:108D6000C88009236422403CA8F14008B9F10009F9
:108D700013FB012113FB072713FB0E254FEA4404C5
:108D80004FEA480818BF4FF0010913FB0C227F4E31
:108D90003368BB4234DC791A0129B8BF012107EEE0
:108DA000901AFB1AB8EEE77A07EE903AF8EEE77AF7
:108DB000F7EE006A87EE870AB4EEE60AF1EE10FAE3
:108DC000F4EE660A88BFB0EE660AF1EE10FA01D042
:108DD0001EF0CEFD07EE904AF8EEE77A27EE800A05
:108DE0006B4B9FED6C7AD3ED007A6B4B67EE877A15
:108DF00027EE800ABDEEC00A83ED000ABDE8F883C5
:108E0000AB4273DB521B012AB8BF012207EE902A46
:108E10005B1BF8EEE76A07EE903AF8EEE77A9FED13
:108E20005F6A87EEA60AF7EE007AB4EEC60AF1EEA4
:108E300010FAB4EE677AB8BFB0EE460AF1EE10FA57
:108E400003D0F0EE470A1EF093FDB9F1000F08D0F1
:108E5000F7EE007AB4EEE70AF1EE10FA88BFB0EE52
:108E6000670A07EE908AF8EEE77A27EE800AB7E7FE
:108E70004B4A1278032A50D0434A4A49127809686B
:108E8000012A3CD0C31A1E44092296F82B0096F8FA
:108E90000180642312FB0032521A01EB42028B184C
:108EA0006FF013045F1004FB08F41420B7EE007A8F
:108EB000F0EE470A08FB00F83D464FF0010966E76F
:108EC000DFED396A9FED397A77EEA67AF5EE000A82
:108ED000E7EE870A16E79FED347ADFED346A77EE26
:108EE000877AB5EE007AA7EEA67A1CE79FED2B0AEB
:108EF00076E72B4A1278032A2BD02A4A11682C4A8B
:108F0000C31A1E44126896F801806FF013045318B8
:108F100004FB08F45F100A20C8E7254A214C2549C4
:108F200024681268184D09682D78C31A1E44121B54
:108F300096F8018001EB6202012D01EB02036FF054
:108F400013044FEA630704FB08F40CBF0A20142043
:108F5000ACE7174A134B17491B681268096895F864
:108F60000180D21A01EB620253186FF013045F10F4
:108F700004FB08F40A2099E7189000200460002000
:108F8000320C433D54630020B16100206C900020FE
:108F9000006300200AD7233C5C8D00200000000005
:108FA000C58F002044630020000080420000403C48
:108FB000CC910020D09100202DE9F84FB74BB84A52
:108FC000DFEDB87AD2ED004A9FEDB75A9FEDB77A40
:108FD000DFF8F4829FEDB64A2DED048BD3ED009AB5
:108FE000B44BF4EEE79A93ED009AB34BF1EE10FA1E
:108FF000F4EEE74A8CBFF0EE675AF0EE695AF1EEF4
:1090000010FA75EEA75A8CBFB0EE676AB0EE646ACC
:10901000B4EEC59A76EE277AB0EE478AB1EE046ACE
:10902000F1EE10FAA5EE868A1D78A44B8CBFF0EE07
:10903000456AF0EE496AF0EE475A76EE856AE7EE49
:10904000865A05EBC50708EBC707B0EE045AA6EE33
:10905000857A97F84560FDEEE57AD3ED008A17EE44
:10906000902AFDEEC77ABDEEC88A17EE904A68EEE8
:10907000848A4FEAC509002E76D0DFED917A97F801
:10908000313097F82CE097F82A1097F82D0097F8D0
:109090002BB097F82E6097F82F70F4EEE74AF1EEB8
:1090A00010FA4FF0640CB8BF62464FF0190A403B0B
:1090B00007EE903A1AFB0ECC00F1D08109EB0503C4
:1090C00008EBC303F8EEE77A93F832309FED807A2D
:1090D000F7EE000A403BE7EE870A00F1D48107EE85
:1090E000903ADFED7B6AF8EEE77AB7EE007AA7EE0A
:1090F000A67A09EB050308EBC303944593F830A067
:10910000F0EE477AC0F2D881AEEB010101EB8101AC
:1091100001EB81010129B8BF0121ACEB020207EE8E
:10912000901A07EE102AF7EE006AF8EEE77AB8EE2A
:10913000C77AF4EE660AF1EE10FA87EE270A01D03C
:109140001EF016FCBAF1000F40F06982403E760036
:1091500007EE906AF8EEE77A67EEA87A67EE807A13
:10916000FDEEE77A17EE906A09EB050008EBC00008
:1091700090F84630002B00F0E580DFED517A90F852
:1091800035C090F83A3090F8332090F8361090F8C7
:1091900034E090F8377090F838A0F4EEE79A18EEC3
:1091A000100AF1EE10FA4FF0640BB8BF584608EE03
:1091B000100A403B4FF0190007EE903A10FB0CB03C
:1091C00000F1BA8109EB050308EBC303F8EEE77A77
:1091D00093F83B309FED3E7AF7EE000A403BE7EE16
:1091E000870A00F1BE8107EE903ADFED396AF8EEAA
:1091F000E77AB7EE007AA7EEA67AF0EE477A09EBA7
:10920000050308EBC30393F839B018EE103A9842FF
:1092100060DA1922642312FB013318EE102A9342FC
:1092200000F39080AEEB010101EB810101EB8101C4
:109230000129B8BF0121D31A08EE103A07EE101A1F
:10924000B8EEC88AB8EEC77ADFED1E6A88EE070A64
:10925000B7EE007AB4EEE60AF1EE10FAF4EE477AD1
:10926000B8BFB0EE660AF1EE10FA03D0F0EE670A6E
:109270001EF07EFBBBF1000F08D0F7EE007AB4EED3
:10928000E70AF1EE10FA88BFB0EE670AAAF1400AC9
:109290004FEA4A0A07EE90AA49E000BFE08F00209B
:1092A000609000200000B442000034430000C84237
:1092B0000AD7233C348C0020189000200063002043
:1092C0000000B4C200000000C4600020000034C3ED
:1092D000320C433DACEB020202EB820202EB820253
:1092E000012AB8BF012207EE902AC31A08EE103AED
:1092F000B8EEE77AF7EE007AB8EEC88AF4EE670ABD
:10930000F1EE10FA88EE070A01D01EF031FBBBF136
:10931000000F08D0F7EE007AB4EEE70AF1EE10FA8B
:1093200088BFB0EE670A403F7F0007EE907AF8EE04
:10933000E77A67EEA87A67EE807AFDEEE77A17EEB5
:10934000903A1E4409EB050208EBC20292F847303E
:10935000002B72D05FED237A92F8433092F83E10E2
:1093600092F83CE092F83FC092F83D0092F84070CD
:1093700092F841A0B4EEE79AF1EE10FA4FF06402D1
:10938000B8BF1446403B07EE903A4FF0190BF8EE89
:10939000E77A1BFB012256D41FED337AF7EE000A61
:1093A000E7EE870A09EB050308EBC30393F84430A3
:1093B000403B07EE903AF8EEE77A00F123811FED8B
:1093C0003C7AF7EE006AE7EE876A09EB050308EBE3
:1093D000C303944293F8425000F3D480A1EB0E01F2
:1093E00001EB810101EB81010129B8BF0121131BB0
:1093F00007EE103A07EE901AF7EE006AF8EEE77AF9
:10940000B8EEC77AF4EE660AF1EE10FA87EE270A94
:1094100001D01EF0ADFA002D40F00B81403F7F00DF
:1094200007EE907AF8EEE77A67EEA88A68EE808A0F
:10943000FDEEE88A18EE903A1E44BDEC048B824B98
:109440001E60BDE8F88FDFED816A9FED817A77EECF
:10945000A67AF5EE000AE7EE870AA3E709EB050313
:1094600008EBC303F8EEE77ADFED786A93F8323061
:109470009FED777A77EEA67AF5EE000A403BE7EEAD
:10948000870A7FF52CAE07EE903A9FED707ADFEDFC
:10949000706AF8EEE77A09EB050377EE877AB5EEA6
:1094A000007AA7EEA67A08EBC303944593F830A0A0
:1094B000F0EE477ABFF628AE1921642311FB003382
:1094C000934200F3AA80ABEB000000EB800000EBBE
:1094D00080000128B8BF0120D21A07EE100A06EE5C
:1094E000902AB8EEC77AF8EEE66A9FED5A6A86EEE1
:1094F000870AB7EE007AB4EEC60AF1EE10FAF4EE7F
:10950000477AB8BFB0EE460AF1EE10FA03D0F0EE9B
:10951000670A1EF02DFABAF1000F08D0F7EE007AB4
:10952000B4EEE70AF1EE10FA88BFB0EE670A403FEA
:109530007F0007EE907A0DE609EB050308EBC30305
:10954000F8EEE77ADFED416A93F83B309FED407A21
:1095500077EEA67AF5EE000A403BE7EE870A7FF544
:1095600042AE07EE903A9FED397ADFED396AF8EEB8
:10957000E77A77EE877AB5EE007AA7EEA67AF0EE74
:10958000477A3CE61923642213FB0C239C42FFF626
:1095900054AFA0EB0C0000EB800000EB8000012832
:1095A000B8BF012007EE900AE41AB8EEE77A07EE9A
:1095B000904AF8EEE77A9FED276A87EE870AF7EE82
:1095C000007AB4EEC60AF1EE10FAF4EE676AB8BF9C
:1095D000B0EE460AF1EE10FA03D0F0EE660A1EF085
:1095E000C7F945B1F7EE007AB4EEE70AF1EE10FAEA
:1095F00088BFB0EE670AAAF1400A4FEA4A0A07EEAE
:1096000090AA0FE7DFED116A9FED117A77EEA67A47
:10961000F5EE006AE7EE876AD7E60026A4E5F7EEE6
:10962000007AB4EEE70AF1EE10FA88BFB0EE670AEE
:109630008CE5F7EE007AB4EEE70AF1EE10FA88BF97
:10964000B0EE670AEAE600BF8468002000008042AE
:109650000000403C000000002DE9F04FBE4BBF4F22
:109660001E78DFF834A3C6EB86133B4485B093F82D
:10967000358093F8334093F834900546404629F0FE
:10968000ABF8B74B002229F011F929F0BFFBB54B1D
:10969000DFF808E31A781EF805100291AA424FEA93
:1096A000861107EE900A019100F0E5809FEDAE7AF9
:1096B0005AF82500AD4AAE4992F800C051F825107D
:1096C0000391A1EB0C01DFF8D8B21D700CEB510136
:1096D000323C01FB04F48BFB0432E417C4EB22138D
:1096E000CA18A44C09FB02F28BFB029BA45DD217A3
:1096F000C2EB6B120192002C47D0032C45D0019A8B
:10970000A1EB0309A9EB020981457ADBA9F1030961
:10971000814504DCDAF82090E14580F21381F8EE0F
:10972000E77A4FF00009B4EEE77AF1EE10FA0EF89E
:109730000590CE4600F18A80B8F17F0F00F0868058
:10974000CDF80890002C75D0032C73D0029A002A13
:109750007CD0DFF82C8218F80580B8F1000F00F0FB
:109760008480B3019E1B374497F83830002B42D1D8
:10977000814A824BD2ED007AFDEEE77A17EE902A0D
:1097800043F8252005B0BDE8F08FB201A2EB060931
:10979000B94499F83890B9F1000FB0D1A0EB0109A4
:1097A0009944B9F1000F019AB8BFC9F10009914578
:1097B00080F2B9800CF10309814526DB8145B4BFF5
:1097C0004FF0000E4FF0010EF8EEE77AF4EEC77A94
:1097D000F1EE10FA02DCB8F17F0FB3D1029A002A41
:1097E00034D0674B01225A55B3019E1B374497F87A
:1097F0003830002BBCD0634B01225A5505B0BDE870
:10980000F08F0CF1030B834580DAF8EEE77A4FF026
:109810000109B4EEE77AF1EE10FA0EF8059000F1C6
:109820008D80B8F17F0FDCD0CDF808904FF0000E9E
:10983000002C89D1B201A2EB0608B84498F8388010
:10984000B8F1000FCAD0029A002A82D1DFF8348121
:10985000DFF82CB118F805A04FF000090BF80590BF
:10986000BAF1000F01D008F80590BEF1000F21D029
:1098700005B0BDE8F08F444A5AF8250052F825108B
:1098800007EE100A06EE901AB8EEC77AF8EEE66A0E
:10989000F1EEC75AB1EEE66A35EEC67AB5EEC07A99
:1098A000F1EE10FA51DDF3EE0E6A27EE267A42F859
:1098B0002500FFE6B201961B374497F83860002E6A
:1098C000D6D10CB1032CD3D1CB1A83426ADD2F49F8
:1098D000019A51F825109FED2E6A9B1A5B1A2D4AAA
:1098E000A3EB0C031278012BB8BF012307EE902ADB
:1098F00007EE103AF8EEE77AB8EEC77AA0EB0C0064
:1099000067EE277A07EE100AF8EEC76A86EE277A26
:109910001A4A67EE267AFDEEE77A17EE903A5B0078
:1099200042F82530A4E702F1030AD1450CF10309FE
:109930007FF744AF8145FFF6F2AE3FE7104B03F8E7
:1099400005900EE74FF0000E3EE736EE656AB3EE87
:109950000E7A26EE077AAAE718900020046000200D
:109960000000F83F3D63002000C079443F630020C1
:1099700080630020FC620020006300206062002001
:10998000E8900020788F0020888B002054910020E0
:1099900000FC7F45D962002078910020848F002050
:1099A0001F85EB5119499FED1A6A0A7806EE902A35
:1099B000019A1344039AD21A012A38BF012207EEF2
:1099C000902AF8EEE66AF8EE677AC31A67EEA66A9E
:1099D00007EE903A86EE267A0E4A0F4BF8EEE77ABB
:1099E000D2ED006A67EE277AFDEEE77A17EE902A4D
:1099F000520007EE902AF8EEE77A77EEA67AFDEEAF
:109A0000E77A17EE902A43F8252031E7D962002043
:109A100000FC7F4500630020606200202DE9F04FCC
:109A20006E4BDFF8F0A119786D4B6E4D585C2D78B8
:109A3000C1EB8112524485B092F8374092F836104B
:109A400092F8266041EA0412D3B20393002800F092
:109A50008A80AE42334628BF2B460193624EDFF820
:109A6000B881624FDFF8B4B1002413E0604B1A787C
:109A7000AA4201D1FF221A70DFF894C15D485E4905
:109A80005E4A00234CF8243023546354A354082D19
:109A900066D00134316821FA04F3D807E5B2E5D481
:109AA0003B7858F824209A42E6DDDBF80030002BA2
:109AB000E2D10123A340194308460291FEF76EFE4E
:109AC00002464F484F4B90F8009002991878A2EB4D
:109AD0000909FEF72BFF414B4B4A1B78404992F98D
:109AE000002011F803C0801A00EB0902BCF1000F3E
:109AF0003CD1C3EB83105044019990F832E04942C5
:109B00009142B8BF11469801BEF1000F36D1C31A79
:109B1000534493F83A300BB30029ADD0019B9942DE
:109B2000AADC5B429942A7DB387858F82420374BEF
:109B3000121A07EE902A03EB840393ED007A344A5D
:109B4000F8EEE77A494267EE877AFDEEE77A17EE9C
:109B5000903A01FB03F342F8243098E7082CDBD15C
:109B600005B0BDE8F08F0223019377E7C3EB8311C3
:109B70005144980191F8321071B11146A0EB030ED7
:109B8000D6449EF838E0BEF1000F0BD102321AD055
:109B9000BCF1000FBBD00A46BCF1030F7FF477AFD6
:109BA0001146B4E702327FF472AF002C3FF471AF7C
:109BB000039A631E42FA03F3DB077FF568AF28467A
:109BC000FFF74AFD63E7002CE2D0039A04F1FF3E61
:109BD00042FA0EF2D207F2D4DAE700BF1890002062
:109BE000FC620020D9620020908F00203F6300209B
:109BF0003D630020E8900020788F0020848F0020B3
:109C0000E8620020C58F0020E09000209C91002099
:109C1000606200200460002078910020C491002040
:109C20002DE9F84F3D4C3E482422002129F0DEFB6F
:109C3000237853B1032B08D03A4A3B491278C2EB40
:109C400082120A4492F8322012B1FFF7E7FE23781D
:109C5000022B56D0354BDFF8E8C03548354C364A34
:109C6000D3F80090DCF8001000682478D2F800E007
:109C70002B4E324DDFF8CC80DFF8CCA0002301273B
:109C800012E055F82320A2420BDA20FA03F207FA79
:109C900003FBD20721EA0B0103D521FA03F2D20715
:109CA0000AD50133092B2AD021FA03F2D207E8D4CE
:109CB00020FA03F2D207F4D556F82320002AF0D177
:109CC00055F823B05C451EDA2EFA03F2D20721D4F0
:109CD000ABEB040207EE902A0AEB830292ED007AC6
:109CE00003F80870F8EEE77A67EE877AFDEEE77A18
:109CF00017EE902A46F823200133092BD4D1CCF853
:109D00000010BDE8F88F2EFA03FB03F808205A462E
:109D1000D207C6D546F82390C3E700BFE48F0020E2
:109D2000606200201890002004600020F48B002066
:109D3000BC6300203F630020908F002078910020BA
:109D4000948F0020E88F0020089200202DE9F8432E
:109D5000AB4CAC482422002129F048FB237853B1B6
:109D6000032B08D0A84AA9491278C2EB82120A44F0
:109D700092F8322012B1FFF751FE2378022B3ED029
:109D8000A04CA368002B3CD09F4BA14A1B78D35C0E
:109D90009A1E012A40F2C9809E4A1278012A00F0D8
:109DA0008A8002250026022A29D113F0FB0F00F039
:109DB0008A80012B01D00A2B21D1974B1A68D60536
:109DC00000F15D81150700F15781944B944ADB68DF
:109DD0001278934240F3728192489349D0ED007A11
:109DE000D1ED036A9B1A07EE103AF8EEE77AB8EE67
:109DF000C77AE7EE667AFDEEE77AC4ED037ABDE84E
:109E0000F883E568002D35D16FF001067E4B804A5E
:109E10001B78D35C9A1E012A42D87F4F38684307CB
:109E2000C0F380092CD50023DFF8F881A360032D4F
:109E300077D038680207C0F3C0091ED47B4D2A785A
:109E4000002A40F0CE807A4B18687A4B1B78834208
:109E500000F0A180D4E90231D8F800200B445B4225
:109E60009342CCDD012E67D952420023C4E902237C
:109E7000BDE8F88301260325C8E70023E360E9E78E
:109E8000DFF8A88198F80020002A40F0A080684BF5
:109E90001868684B1B78834270D0DFF88881C6E76A
:109EA0005C4A1278012A7FF47EAF5E4A1268002372
:109EB000C4E90223A3E7E368002BA0D1594AA360B9
:109EC0001368E3609BE7564B54491A788B685248F5
:109ED0009A42006835DB022D00F0EB800023A3607E
:109EE000CB689A4245DA070743D4032D0DD09B1A5D
:109EF0004D4907EE903A91ED037AF8EEE77A67EE76
:109F0000877AFDEEE77AC4ED037A012E7FF677AF0C
:109F1000D4E90231434A12680B4493427FF76FAF92
:109F2000A3E73868C10595D484E73B4F386810F43F
:109F300080761AD1022572E73B68DB053FF55FAFFB
:109F400092E74707C7D4022D00F0B3809B1A364F23
:109F500007EE903A97ED027AF8EEE77A67EE877AA5
:109F6000FDEEE77AC4ED027ABAE7DFF8B8800026A2
:109F70005FE7032DC9D00023E360C6E7274A284BDB
:109F800092681B7893425BDBDFF89880D8F800304A
:109F90005B42A3604BE7214A214BD2681B789A426F
:109FA00029DD2549254BC968DB680A449B1A07EE61
:109FB000903A1D49F8EE677A91ED037A67EE877A59
:109FC000FDEEE77A17EE903A5B42E36042E740F03D
:109FD00004003860FEF7E2FB154B88F8009018602B
:109FE00057E740F008003860FEF7D8FB104B85F8C3
:109FF0000090186029E7D8F800305B42E36029E759
:10A00000E48F00206062002018900020046000208F
:10A01000E462002004920020908F002078910020BC
:10A020003F630020F48B002008920020546200203F
:10A03000AC8B0020E8620020549100208063002057
:10A040002049214B89689B68DFF88C800A449B1A61
:10A0500007EE903A1D49F8EE677A91ED027A67EEC5
:10A06000877AFDEEE77A17EE903A5B42A360DEE670
:10A0700002DB12077FF5C3AE0023E360BFE6144B9B
:10A080001449DB6809788B42F2DD1007F4D4032D04
:10A090003FF4B5AE5B1A0D4A07EE903A92ED037AA3
:10A0A000F8EEE77A67EE877AFDEEE77AC4ED037A99
:10A0B000A5E6CB689A42FFF616AF5CE7064B1B6835
:10A0C000E3609CE654910020806300200892002009
:10A0D000789100203F630020F48B002070B52D4C58
:10A0E0002378E3B96378002B30D1A37803B970BD2E
:10A0F000294E1FF0AFFEB368C01AC728F7D9274D05
:10A100001FF0A8FEAB78B0600226002B34D140F2DD
:10A11000FF31032023F002FA0123AB7070BD1E4E05
:10A120001FF098FE3368C01AC728DBD91B4D1FF0FB
:10A1300091FE2B78306053BB40F2FF31082023F0B2
:10A14000EDF901232B706378002BCED0124E1FF057
:10A1500081FE7368C01AC728C7D9104D1FF07AFE58
:10A160006B7870603BB940F2FF310A2023F0D6F9DA
:10A1700001236B70B9E70126094B0021985D23F09C
:10A18000CDF9A35D0022013BA355AA5570BD002661
:10A19000F2E700BF308D0020B48B00208C680020D7
:10A1A00044CF05002DE9F8432C4D2D4F2D4C2E4E5C
:10A1B000DFF8CC902DED068B9FED2C9ADFED2CAACD
:10A1C000DFED2C8A9FED2CAADFED2C9A05F1030818
:10A1D00015F8011B012381B3D4ED007A337037EEFB
:10A1E000A87AF4EEC97AF1EE10FAB0EE470A2EDC46
:10A1F00084ED007A1DF08CFAB7EE008A30EE088A02
:10A2000028EE0A8AFCEEC87A28EE298A17EE901A00
:10A21000387823F083F9D4ED007A37EE888A84ED1C
:10A22000008AA84507F1010704F1040406F10106BC
:10A23000CED1BDEC068BBDE8F8833378002BF0D08F
:10A240003878317023F06AF9C4F80090E9E7B0EE8D
:10A250006A8AC4F800900021DAE700BF4490002029
:10A2600044CF0500A4610020C08B00200AD72F41F5
:10A270000AD7232F0AD7A33B00C0FF430A00A43606
:10A28000B4C89640000000003F4B404A1B6812686B
:10A2900070B53F4D06010446A3EB8200AB5920EA9E
:10A2A000E07005EB0412B0EB830F526882B04FEA06
:10A2B000830159D2084692004FF480630093002333
:10A2C0001FF0B6FD334A125D012A034651D0022A1F
:10A2D0002CD0314ADFED316A12F8140002EB44024F
:10A2E00007EE900A5278101A03FB00F3B8EEE77AF3
:10A2F00007EE903AF8EEE77A294BA7EEA67A3544B6
:10A3000003EB8403012CF0EE477ABCEEC77AC3ED71
:10A31000007A17EE102A85ED037A05D1214B12F051
:10A32000FF0214BF1A701C7002B070BD0028D0D09C
:10A3300028F052FA41EC100B1DF034FA10A3D3E9C7
:10A34000002351EC100B28F0B1FA28F0A7FD07EE1E
:10A35000900A9FED157A67EEA77A67EE877AFDEE91
:10A36000E77A17EE903AB4E79200904228BF104681
:10A37000A2E700FB00F003FB00F31B15A9E700BFF9
:10A38000FE822B654715F73FE490002044630020D0
:10A39000886200204C8D0020EC6200200000803A92
:10A3A000A88F0020AB6300200AD723412DE9F0419C
:10A3B000DFF83C8006460F46D8F800004FF0FF312A
:10A3C0001D46144620F09EFA3A4631460720FBF718
:10A3D000DFFF2A4621460720FBF7DAFF0023D8F8E3
:10A3E00000001A46BDE8F04119461FF063BE00BFE9
:10A3F000B88F0020F8B504460E461FF02BFD2E4BFB
:10A400001B78002B36D00546E4B12C4F3B78002B4F
:10A4100031D12B4B2B4C186001223A70BEB1217800
:10A42000002945D01B68EB1A192B10D9264B196847
:10A430007322CBB27220C1F3C711FFF7B7FF00231D
:10A440003B7004E00EBB1D4F3B785BBB1D4C23787B
:10A4500083B11E4B1868281A19280BD91C4B196890
:10A460007622C1F3C713742001F07F01FFF79EFF2E
:10A4700000232370F8BDAEB1124C237883B9134A80
:10A480000F4B106001222270CCE70E4C0B4F23784B
:10A490003A7853B90D49012308602370002AE9D0A6
:10A4A000074BBFE7064B074CBCE7002AD1D0F7E7C4
:10A4B000064922700860B5E7388D0020DC8A00204C
:10A4C000E08A0020DD8A0020908F0020E48A0020AE
:10A4D0006C9000202DE9F0418C4C10290D46247819
:10A4E00028BF1025012D38BF0125012C82B000F0B6
:10A4F000F00002F07F0703F07F0636D0002C40F01A
:10A50000AF80834B93F80080B8F1020418BF012498
:10A51000A02800F08A8010D8802874D0902809D113
:10A52000014600957B4833463A46FBF7D9FEB8F121
:10A53000020F44D102B0BDE8F081B02848D0E02835
:10A54000F8D107EBC612A2F5005212B202F5005480
:10A55000014600956F4802F07F02C4F3C713FBF772
:10A56000BFFEB8F1020FE5D09FE06B4BD3ED007A50
:10A57000F5EE407AF1EE10FA0CBF01230023A0287B
:10A5800000F09D8011D9B02800F0AE80E028D1D134
:10A5900007EBC612F5EE407AA2F50052F1EE10FA82
:10A5A00012B277D002F500547FE0802800F0A0803E
:10A5B0009028BFD1F5EE407AF1EE10FA58D0574806
:10A5C000009533463A469021FBF7B6FEB2E70124E8
:10A5D00007293DD10123652F7ED8002B38D1504B60
:10A5E0001B78012B34D924B94D4B1B7813F0FD0F88
:10A5F000A0D14A48009533463A46B021FBF79CFE6D
:10A6000002B0BDE8F08101460095424833463A4623
:10A61000FBF766FEB8F1020F8CD040480095334638
:10A620003A468021FBF788FE84E7014600953948C9
:10A6300033463A46FBF754FEB8F1020F3FF47AAFC7
:10A640003648009533463A46A021FBF775FE71E780
:10A650003048009533463A46B021FBF741FEC2E749
:10A66000A02831D00CD8802847D090287FF462AF42
:10A6700001460095274833463A46FBF731FE9EE7F0
:10A68000B028A4D0E0287FF455AF07EBC612A2F59E
:10A69000005212B202F500541E48009502F07F02EB
:10A6A000C4F3C713E021FBF71BFE1C480095C4F35D
:10A6B000C71304F07F02E021FBF73EFE3AE7F5EE18
:10A6C000407AF1EE10FABBD10146009511483346AD
:10A6D0003A46FBF705FEB3E70E48009533463A4687
:10A6E000B021FBF7FDFD84E707297FF476AF72E721
:10A6F000F5EE407AF1EE10FA8FD10146009505484B
:10A7000033463A46FBF7ECFD87E700BF9C6100202B
:10A71000A0690020906800203C8D00207467002014
:10A72000398D0020000000002DE9F04F2DED068B43
:10A730009FB015AB0CAA03A9DB48DC4C15F0A8FCB4
:10A74000DB4BDDED137A93ED001ADA4A9DED127AB8
:10A75000D2ED000AD849D94BD94A9DED110AD94802
:10A76000D1ED006A83ED007A37EEC11AD64982ED49
:10A77000001AD64BD64A9DED092ADDED0A2A80ED56
:10A78000000ADDED081AD348C1ED007AC2ED002AB7
:10A79000D149D24A83ED002AD14BC0ED001A1A9854
:10A7A000D3F804350860116813605B1A23F07F4307
:10A7B00077EE600A07EE103A30EE660ADFEDC97AEE
:10A7C00084ED000AF8EEC78AC74CF4EEE78AF1EE92
:10A7D00010FAC4ED000AC0F227839FEDC47ADFEDC2
:10A7E000C47A68EE878AF4EEE78AF1EE10FA88BF41
:10A7F000F0EE678ABF4CB0EE683A204616F076FC61
:10A8000094F82830002B00F02A83DFF830A3236B64
:10A81000CAF80030DFF82883D4F82C90C8F80090EC
:10A82000B54BD4ED0D7A93ED007AB44B37EE877AC1
:10A83000C3ED007A17EE100A17EE105A27F0DEFF6C
:10A8400093A3D3E9002306460F4628F0BFFA002859
:10A8500000F0D38290A3D3E900233046394627F095
:10A860006DFE28F01BFBDFF8DCB20546CBF80000DC
:10A87000484627F0C3FF86A3D3E9002327F060FEF4
:10A8800028F00CFB814627F0B9FF81A3D3E9002310
:10A8900006460F4628F09AFA48B17FA3D3E9002371
:10A8A0003046394627F04AFE28F0F8FA8146DAF8B1
:10A8B000000080F0004027F0A1FF79A3D3E9002336
:10A8C00027F0F4FF28F0EAFA09EE900A89F0004038
:10A8D000CAED009A27F092FF71A3D3E9002327F075
:10A8E000E5FF28F0DBFA09EE100A85F0004088ED5C
:10A8F000009A27F083FF6AA3D3E9002327F0D6FF4D
:10A9000028F0CCFA7E4B7F4D1A68CBF80000D107B7
:10A910000AEE100A40F16A8295ED008A7A4E7B4F6A
:10A9200096ED007AD7ED007A39EEC77A7AEE677A3B
:10A93000B5EEC07AF1EE10FAF5EEC07A4CBF012206
:10A940000022F1EE10FA4CBF012300239A42B5EE2B
:10A95000C09A00F0E581F1EE10FA40F3E581B0EE27
:10A96000C99A614B186827F049FF4DA3D3E900232A
:10A9700027F09CFF804618EE900A894627F03EFF9C
:10A9800002460B464046494627F090FF804618EEA7
:10A99000100A894627F032FF02460B4640464946D8
:10A9A00027F0CEFD28F07AFA08EE100AF5EEC09AEC
:10A9B000F1EE10FAB5EEC08A4CBF01220022F1EE92
:10A9C00010FA4CBF012300239A4287ED00AAC6ED7E
:10A9D000009A286000F02B829FED4D7ADFED4D7AD2
:10A9E000B4EEC79AF1EE10FA68EE277AC0F2298227
:10A9F0009FED497A494BF0EE477A83ED007A9FED5F
:10AA0000487AB4EEC78AF1EE10FA07DB9FED457A7B
:10AA1000B4EEC78AF1EE10FA40F21782D5ED007A53
:10AA20009FED417AF4EEC77AF1EE10FA05DB9FED67
:10AA30003F7A77EEC77AC5ED007A9FED3D7AF4EE66
:10AA4000C77AF1EE10FA05D89FED387A77EE877A5B
:10AA5000C5ED007A374DCAED007AA5F138030FCB6A
:10AA600085E80F0094ED116A94ED127A94ED130AC3
:10AA7000D4ED146ADFED305A66EE077AE0EE267AFE
:10AA800077EEA77AF0EEE77A5EE000BFAFF30080E2
:10AA9000182D4454FB210940182D4454FB21194022
:10AAA000F8C1631ADCA54C40F4900020608F0020B0
:10AAB000748F00206C8F0020648F00205090002045
:10AAC000708F00204C90002054900020EC8B0020D0
:10AAD000F08B0020E88B0020886800205C8B002031
:10AAE000004002406F120342688F002000000038CF
:10AAF0000AD7A33C7890002038920020448D002093
:10AB0000B86A0020D88B0020D48B0020D08B002086
:10AB10000000AA42CDCCCC3C00000000C48B002039
:10AB20000000B4C20000B442000087430000B443F8
:10AB3000000087C3BC90002052B87E3F6090002088
:10AB4000E08F002034920020F4EEE57AF1EE10FA66
:10AB500040F1418127EE000A27EE077AA6EE660A49
:10AB6000A6EEA67AF0EE007AF7EE000AE7EE670AA4
:10AB700030EE000A1CF0FAFE10EE100A27F03EFE3E
:10AB8000EEA3D3E9002327F091FE28F087F99FED8B
:10AB9000D27A07EE900AF4EEC77AF1EE10FA0CD9E9
:10ABA0009FEDCE6ADFEDCE6AB0EE677AB4EEE67A5C
:10ABB000F1EE10FA77EEC67AF6D89FEDCA7AF4EE87
:10ABC000C77AF1EE10FA0CDA9FEDC46ADFEDC66ABF
:10ABD000B0EE677AB4EEE67AF1EE10FA77EE867AA6
:10ABE000F6DBC24A9FEDBC7AD2ED006AC04AC14B87
:10ABF000C2ED007A77EEA67AF4EEC77AF1EE10FA9B
:10AC0000C3ED007A0ED99FEDB56ADFEDB56AB0EEFF
:10AC1000677AB4EEE67AF1EE10FA77EEC67AF6D8F5
:10AC2000C3ED007A9FEDAF7AF4EEC77AF1EE10FA39
:10AC30000EDA9FEDAA6ADFEDAC6AB0EE677AB4EE89
:10AC4000E67AF1EE10FA77EE867AF6DBC3ED007A5B
:10AC5000A94B01221A70A94BA94A1B7803EBC30325
:10AC600002EBC30393F82030002B00F0AF80A54C1B
:10AC7000237873B10133DBB2052B237009D900218E
:10AC80000A2022F04BFC0021032022F047FC002385
:10AC900023709D4BD3ED007AB6EE007AF4EEC77ABE
:10ACA000F1EE10FA65DD994E994D96ED007AF4EECD
:10ACB000C77A0123F1EE10FA2B7000F3F180B5EEA4
:10ACC000C07AF1EE10FA40F3F080DFED926A37EED1
:10ACD000667A86ED007AB5EEC07AF1EE10FA40F2AF
:10ACE000E480F5EEC07AF1EE10FA6FD5DFED8A7AE6
:10ACF000B4EEE77AF1EE10FA00F2DE80F7EE007AB9
:10AD000037EE277AF2EE087A67EE277AFCEEE77ADA
:10AD1000CDED017A9DF804304FEAC3085F003CE0B6
:10AD2000F1EE10FA7FF61BAEDFED7C7AB0EEC99A39
:10AD3000B4EEE79AF1EE10FABFF613AEB5EEC08AA4
:10AD4000F1EE10FAF5EEC09A4CBF01220022F1EEAE
:10AD500010FA4CBF012300239A4287ED00AAC6EDEA
:10AD6000009A7FF439AE6E4BDFED6E7AC3ED007A58
:10AD700045E6F5EEC07AF1EE10FA27D5644D2B7852
:10AD800023B3624E96ED007AB5EEC07AF1EE10FA7A
:10AD9000ACDA18274FF060080C23634A6349127835
:10ADA00009789020FFF796FB41460A2022F0B6FB77
:10ADB0003946032022F0B2FB5D4A5E4B12681A60EE
:10ADC000002101220023316022702B701FB0BDECE6
:10ADD000068BBDE8F08F484B1B78002B7FF43BAF10
:10ADE0004449434A00230B60136034E70122B0EE6C
:10ADF000698AC5ED009A1A6090E533A3D3E9002370
:10AE00003046394627F0C4FF20B331A3D3E90023ED
:10AE10003046394627F094FB28F040F8DFF824B19B
:10AE20000546CBF8000023E5DFED438AE2E49FED21
:10AE30003B7ADFED3C7AB4EEC79AF1EE10FABFF63A
:10AE4000D7AD374BC3ED007AD9E578EE677AC5ED1B
:10AE5000007AE5E5DFF8ECB0CBF8005008E52046D5
:10AE600016F006F9DFF8E0A094F82830226BCAF853
:10AE70000020002B7FF4CEAC204616F0F9F8DFF866
:10AE8000CC8094F82830D4F82C90C8F80090002B8F
:10AE90007FF4C6AC204616F0EBF8D8F80090BFE47B
:10AEA000C6ED007AB0EE677A15E700232B701FB06D
:10AEB000BDEC068BBDE8F08FFC274FF47C787E2339
:10AEC0006BE700BFAFF30080182D4454FB2109C08D
:10AED000182D4454FB211940000034430000B443B2
:10AEE00000000744000034C3000007C4388C002071
:10AEF000408D0020348C0020C88B0020189000204A
:10AF0000C4600020C38B0020608F0020CC8B002009
:10AF1000C98B00203333333FAE4719410000AA42AA
:10AF2000C48B0020000000003C920020D86200206A
:10AF3000F48F0020149000206F12833AF8C1631A36
:10AF4000DCA54C403492002060900020E08F00206F
:10AF50003C4A3D48916870B5D2E90035D468007824
:10AF600096692B440B4415693849234454692B4492
:10AF7000C0EB801529442344D2E90754334491F8A7
:10AF800032202B44234432B191F838201AB1304A90
:10AF9000304C157803E02E4A1578C5B92D4C2E4A51
:10AFA0002E4812682E4900680968C3F500531A44F8
:10AFB000024452183DD4B2F5804FA8BF43F6FF7249
:10AFC0002260284E3368934200D035BB70BD264ABC
:10AFD000125C032AE2D12548254A264990F900400F
:10AFE000127808782449121B121A07EE902A91ED64
:10AFF000007A224A174C1178F8EEE77A67EE877AE2
:10B00000FDEEE77A17EE900A03442360A1B11C4ECF
:10B0100000200D4633601070C1E71A49C2F3C71310
:10B02000097802F07F02E020FFF754FA23683360CA
:10B0300070BD00222260C4E711490A680B60134406
:10B040005B10ACE7606200201890002004600020D4
:10B05000D78F0020F86200205C8D0020DC9000205B
:10B060008468002034630020FC620020E09000200F
:10B07000D08F0020E8620020006300203E630020A3
:10B08000548B0020D8620020F8B5354E354F327809
:10B09000C2EB8213FC5C002C35D03349C2EBC203F7
:10B0A00001EB4301D3004978002951D02F4D1344BF
:10B0B00005EBC303002493F845206AB3FDF77CFF3A
:10B0C0002B4B1B78022B4FF0010431D0294B1C78FD
:10B0D000002C39D0FEF73AFEFCF7D4FD337803EBB1
:10B0E000C30305EBC3031A7E4AB993F8212032B992
:10B0F00093F822201AB993F8233003B974B3BDE84A
:10B10000F840FFF725BFD300184D134405EBC303E8
:10B1100093F84520002AD1D193F84620002ACDD1BA
:10B1200093F84730002BC9D1114B1B78022BCDD19E
:10B130003378C3EB83131F4497F83230002BCBD006
:10B140000C4B1C78002CC5D1FEF76AFD0124C3E727
:10B15000FDF7C0FD32780124D300D5E7F8BD00BF6C
:10B16000189000200460002054630020C460002078
:10B17000E48F0020508D0020104B11481B78114A9D
:10B18000C3EB831318440121837A11708B4203D0DF
:10B19000022B0DD033B17047437B027BC17A8020F4
:10B1A000FFF798B9437B027BC17A9020FFF792B9F1
:10B1B000427B017BC07AFBF7EBB800BF1890002000
:10B1C00004600020588D0020104B11481B78114A54
:10B1D000C3EB831318440021837B1170012B03D030
:10B1E000022B0DD033B17047437C027CC17B8020A1
:10B1F000FFF770B9437C027CC17B9020FFF76AB9EE
:10B20000427C017CC07BFBF7C3B800BF18900020D4
:10B2100004600020588D00209E4B2DE9F0471B88CC
:10B2200043F480735A1C1A4282B000F0AA800021B5
:10B230000A4613F0010F08BF11465B1002F101022C
:10B24000F7D101F13E04E4B2462C28BF46243C3C31
:10B25000914E924A3378C3EB831313449A7C032AAA
:10B260007BD0DFF88C82D8F800208D4B8D498E4F33
:10B2700091F800C0D3F800905968D7F800E08B48E7
:10B280008B4D04FB0C145FFA8EF3914504602B7018
:10B2900016DB884A0120002128700346117032789D
:10B2A00085493860C2EBC20201EB4202527922B1F9
:10B2B000824C2278012A66D0237002B0BDE8F08764
:10B2C00009F1010191420BDB7D4A1278002A00F05E
:10B2D0008280012B7FD07B4B1B782B701846DEE7DA
:10B2E0007949BEF1010F097804BF02232B700129AF
:10B2F000EAD176490878002876D0A4EB090100FB52
:10B3000001F1DFF8F0C101EB41008CFB00A98CFBDF
:10B3100001ACC017C917A0EBE910C1EBEC11214437
:10B3200004446B48DFF8D09101609142C9F80040B5
:10B3300041DB94425ADB0223BEF1010F2B7063D034
:10B34000BEF1030F49D11EF085FD624B1B68C01A88
:10B35000142800F290802B78B6E75F4A1278D2B9B1
:10B360001A7DDFF88C81DB7C43EAC213D8F8002019
:10B3700005339342BFF679AFFFF7FEFED8F8002001
:10B3800073E70A2464E7012B96D01EF063FD534A4D
:10B390002B78106090E7DFF85881197DDB7CD8F8B6
:10B3A000002043EAC11393427FF75FAFFFF70CFF22
:10B3B000D8F8002059E73F4A00210323BEF1010FCE
:10B3C00011702B7009D0BEF1030F06D13C4B1B78D6
:10B3D000002B80D17346184661E7394A1278002A5B
:10B3E0007FF479AF18465AE721469AE7BEF1010F7C
:10B3F00007D0BEF1030F7FF467AF022B7FF464AF79
:10B40000A1E7022B7FF460AF01921EF023FD2949D2
:10B41000019A0C78E4B9324BDFF8D0E0D3F800C0E1
:10B42000CEF800002F4B30481C604FF0010E046036
:10B4300081F800E0BCF1000F28D1214B1A780020E0
:10B44000022308702B70002A7FF445AF184626E7C8
:10B45000264C234B24681B68001B9842EDD2214BDD
:10B46000186890B1204B18681A60121A002AE4DD9F
:10B470003B782B7028E7D9F80020D8F8001001207D
:10B48000FDF7E0FB034628701EE717480260012124
:10B490001960EDE7908F00201890002004600020D4
:10B4A00044630020E7620020488D0020A463002050
:10B4B000C58F00208E8F0020546300203C63002045
:10B4C000589000208D8F0020B16100205C62002028
:10B4D000CC910020588F0020588D00200092002031
:10B4E000C8620020489000203C900020748B00200F
:10B4F0006C9000201F85EB51D09100202DE9F8437E
:10B500001EF0A8FC9A4E9B4A336811689942044683
:10B5100000F0A680DFF8A082974F984D98F80010B1
:10B520001360012238602A70002943D1944A954B58
:10B530001160954A954F00244FF0010882F8008071
:10B540001C702C701EF086FC914B024630681A600D
:10B55000FDF724F92146034640463B70FEF74AFFBB
:10B560003D787F2D7AD08B4F3B78AB4276D08A4B9B
:10B570001B78022B0BD0894B32681A608848242232
:10B58000214627F033FF874BC3E900441C72864BEA
:10B59000864A1B783D70C3EB8313134493F8322023
:10B5A00022B193F83830002B40F0DD80BDE8F8433D
:10B5B000FFF732BE99461EF04DFC7D4A7D4B127856
:10B5C000196830688A4203DAC10758BF49F0010997
:10B5D00059688A4203DA810758BF49F0020999681D
:10B5E0008A4203DA410758BF49F00409D9688A4200
:10B5F00003DA010758BF49F0080919698A4203DADA
:10B60000C10658BF49F0100959698A4203DA810618
:10B6100058BF49F0200999698A4203DA410658BFA8
:10B6200049F04009D9698A4203DA010658BF49F056
:10B6300080091B6A9A4203DAC30558BF49F480792E
:10B64000484520D14E4B2A7800211960002A40F04D
:10B650008D804C4B1A780AB1484D6AE7BDE8F883F3
:10B66000DFF81C91444FD9F800303868241A002BB9
:10B6700073D09C4219D3414D2A780023C9F8003079
:10B68000002AE6D072E0FDF789F80346484699465D
:10B69000FDF784F87F28D5D08145D3D0DFF8E0903E
:10B6A00098F80030C9F80030DFE735681EF0D2FBAB
:10B6B0003F4A404B1278196830688A4203DAC7075C
:10B6C00058BF45F001055968914203DD810758BF15
:10B6D00045F0020599688A4203DA470758BF45F0EA
:10B6E0000405D968914203DD010758BF45F00805FC
:10B6F00019698A4203DAC70658BF45F0100559692F
:10B700008A4203DA810658BF45F0200599698A42CA
:10B7100003DA470658BF45F04005D9698A4203DA83
:10B72000010658BF45F080051B6A9A4203DAC3053B
:10B7300058BF45F48075A8429DD0FDF72FF8034609
:10B7400028461D46FDF72AF87F2894D0854292D0DE
:10B75000D9F800309C42FFF47CAF084D2A78002ACB
:10B760003FF477AF02E0FFF78FFC1FE7054BE0E601
:10B77000908F00202C630020808B0020848B002081
:10B78000C49100204B910020546200207E63002071
:10B79000588F0020E8620020E48F0020948F002062
:10B7A00060620020E88F00201890002004600020D4
:10B7B0003F63002078910020C0910020102928BF0D
:10B7C0001021012900F0F00038BF0121C0282DE927
:10B7D000F04102F07F053AD0D02810D1284E3378BE
:10B7E000012B0ED1274BD3ED007AF5EE407AF1EE26
:10B7F00010FA06D0013961F02F04E4B218E0BDE878
:10B80000F081214F7B6D0139186861F02F040368C6
:10B81000E4B21B68214698477B6D18680368294687
:10B820001B68984733781BB9184B1B78022BE6D05E
:10B83000174E736D1868036821461B699847736D2E
:10B840001868036829461B69BDE8F04118470C4E8B
:10B850003378012B0CD10B4BD3ED007AF5EE407A07
:10B86000F1EE10FA04D0013961F03F04E4B2DFE7F1
:10B87000054F7B6D0139186861F03F04C7E700BFD1
:10B880009C6100203C8D002090680020A069002071
:10B89000746700202DE9F04F6E4F6F4E3C78C4EB7B
:10B8A0008413334485B09A78012A804600F0A08042
:10B8B000DFF8DC91C4EBC40309EB430393F806A063
:10B8C0001AF0010F51D0654B93ED020AB5EEC00A94
:10B8D000F1EE10FA04DD624BD3ED007A30EE270A68
:10B8E0009FED607ADFED607AB4EEC70AF1EE10FAF0
:10B8F00088BFB0EE470AB4EEE70AF1EE10FAB8BF1F
:10B90000B0EE670A03A8CDED037A1BF0CFFE574BCC
:10B91000F0EE407AFEEEEC7A1B78CDED017A002B4A
:10B9200044D0DDED037ADFF86CB1FDEEE77ADBF8A9
:10B93000003017EE905A85F30705AB42C4EB841430
:10B9400042D0344494F82F20002A71D1484C2178F9
:10B95000EAB2D020FFF732FF3B78CBF80050C3EBC0
:10B96000C30309EB430999F806A01AF0020F1AD095
:10B970003E4B1B78BBB13F4BDC6B002C5ED12346AA
:10B980003D4D1C442B6884F307049C4202D1B8F15E
:10B99000000F08D0364B394A19781278E3B2A0204C
:10B9A000FEF798FD2C6005B0BDE8F08F344A1268B0
:10B9B000642AB6DCDFF8DCB001931D46DBF800300A
:10B9C000AB42C4EB8414BCD1264496F82F30002B34
:10B9D00037D02C4E019A3368934236D0244C9DF8D0
:10B9E000042020785721FAF7D3FC019B3360AEE79F
:10B9F000204AD568A301C5B92A46DFF89C901544B2
:10BA0000D9F8002085F30705AA4203D1B8F1000F49
:10BA10003FF44EAF1C1B3444EAB261792079FAF747
:10BA2000B7FC3C78C9F8005042E7174A1268E4E7CF
:10BA3000EB1A0F331E2B89D8124ECFE7134B1B681E
:10BA40009EE7B8F1000F90D080E7B8F1000FC5D1A4
:10BA50008BE700BF1890002004600020A88F002012
:10BA6000D49000200000FE4200000000D78F00208C
:10BA7000D86200208862002034900020D08F0020FF
:10BA80006C9000202C900020D0900020D8900020B6
:10BA90005463002028900020249000202DE9F04FCE
:10BAA000A34DA44C2B78A44EC3EBC30204EB42027B
:10BAB000C3EB831091793044002985B090F832208F
:10BAC00014BF032110210291D900002A4DD090F813
:10BAD0003820003A18BF01220192984FDFF8A08267
