:020000022000DC
:1060000000000420258F0400658F0400678F0400C2
:10601000698F04006B8F04006D8F04000000000086
:10602000000000000000000000000000A18E04003D
:10603000718F040000000000C18E0400758F040001
:1060400079910400778F0400778F04006DC70300F7
:10605000778F0400778F040065680400778F040051
:10606000778F0400778F0400778F0400778F040008
:10607000778F0400778F0400778F0400778F0400F8
:10608000778F0400F18B0400778F0400778F040072
:10609000778F0400778F040061560300778F040028
:1060A000778F0400778F0400778F0400778F0400C8
:1060B000778F0400778F04000000000000000000CC
:1060C000778F0400778F0400778F04008D9604008B
:1060D000778F0400778F0400778F04004D7D0300D5
:1060E000778F0400778F0400778F04000000000092
:1060F00000000000778F04000000000005970400F6
:10610000000000000000000000000000000000008F
:10611000000000000000000000000000000000007F
:10612000000000000000000000000000000000006F
:10613000000000000000000000000000000000005F
:10614000000000000000000000000000000000004F
:10615000000000000000000000000000000000003F
:10616000000000000000000000000000000000002F
:10617000000000000000000000000000000000001F
:10618000000000000000000000000000000000000F
:1061900000000000000000000000000000000000FF
:1061A00000000000000000000000000000000000EF
:1061B00000000000000000000000000000000000DF
:1061C00000000000000000000000000000000000CF
:1061D00000000000000000000000000000000000BF
:1061E00000000000000000000000000000000000AF
:1061F000000000000000000000000000000000009F
:10620000F1EE103A43F08073E1EE103A704700BFB0
:1062100010B5054C237833B9044B13B10448AFF3E0
:1062200000800123237010BD1C67002000000000C7
:10623000ACC9050008B5034B1BB103490348AFF3D4
:10624000008008BD0000000020670020ACC90500E8
:10625000154B002B08BF134B9D46A3F5803A002138
:106260008B460F461348144A121A29F01BFE0F4B97
:10627000002B00D098470E4B002B00D098470020F1
:10628000002104000D000D48002802D00C48AFF397
:10629000008029F09DFD2000290022F09BFE29F0BE
:1062A00071FD00BF00000800000004200000000095
:1062B000000000001C67002078C4002000000000DF
:1062C0000000000042DF7047704700BF704700BF0A
:1062D00010B5034B0360044616F0CAFA204610BD01
:1062E000749C05002DE9F0419DF81840013CE4B292
:1062F0000F2C21D80D4649B200291DDA1F46436DE7
:1063000006461868036821431B68C9B2904698473F
:10631000736D1868036808F07F011B6805F0EF05CE
:106320009847C02D08D0736D1868036807F07F0187
:106330001B68BDE8F0411847BDE8F0812DE9F04148
:106340009DF81840013CE4B20F2C21D80D4649B20B
:1063500000291DDA1F46436D06461868036821436D
:106360001B69C9B290469847736D1868036808F0B6
:106370007F011B6905F0EF059847C02D08D0736DAC
:106380001868036807F07F011B69BDE8F0411847F2
:10639000BDE8F0812DE9F041344B102805461C780A
:1063A00028BF1025012D38BF0125012C82B001F036
:1063B0007F0702F07F060ED0E4B92D4B07281C782A
:1063C00034D02C48009533463A46B021FFF78AFF77
:1063D000022C0CD004E0284B07281B6834D05BB19A
:1063E0002648009533463A46B021FFF7A7FF02B092
:1063F000BDE8F081072807D01E48009533463A468D
:10640000B021FFF76FFFEBE7652FF5D9DFF870805C
:1064100098F80030012B13D81648009533463A46B9
:10642000B021FFF75FFF98F8003009E0652FC8D969
:10643000DFF84C8098F80030012B0CD9022CD6D014
:1064400013F0FD0FD3D1CBE7652FC8D9002BDDD0DA
:106450000B4B1B78F4E70748009533463A46B021CA
:10646000FFF740FF022CDED1C1E700BF70610020C2
:106470006469002054680020C08C00203867002028
:10648000BD8C002030B50E4D83B00C4601904FF00E
:10649000FF31286820F092FF019A68210720FFF75A
:1064A00079FF224669210720FFF774FF002328683F
:1064B0001A46194603B0BDE8304020F057BB00BF74
:1064C0002C8D002038B51C4B1C4A1B78002414600E
:1064D00003B938BD1A4D4FF0FF31286820F06EFF28
:1064E00048226A210720FFF755FF2246772107201F
:1064F000FFF750FF234622462146286820F036FB4E
:106500004FF0FF31286820F059FF49226A21072007
:10651000FFF740FF224677210720FFF73BFF234686
:1065200022462868214620F021FB064B1A78022AD1
:1065300008BF1C7038BD00BFBC8C0020C08C002080
:106540002C8D0020BD8C002070B5014688B03448E9
:106550000FF07EF80023044620226946CDE900337F
:10656000CDE90333CDE90533029307930DF090F99C
:1065700020460DF077F828F08BFE2A4B002228F0F9
:10658000F1FE29F09FF9284B0628CCBF274D274D57
:106590001B78CCBF044607242C6023B9244B02226D
:1065A0009A7008B070BD234E4FF0FF31306804EB95
:1065B000840420F003FF04EB840448226A210720AE
:1065C000FFF7E8FEA20002F07C0277210720FFF728
:1065D000E1FE00231A461946306820F0C7FA2B68FE
:1065E0003068642404FB03F44FF0FF3120F0E6FE32
:1065F000C4F3C71449226A210720FFF7CBFE2246C5
:1066000077210720FFF7C6FE00231A461946306897
:1066100020F0ACFA064B02229A7008B070BD00BFA1
:10662000C08F00200000E43FBC8C0020C08C002004
:10663000B48C00202C8D002010B5012182B00446BE
:106640001A2023F0ADFE01211A2023F02DFF052092
:1066500020F068F94FF480730094ADF8043002AB79
:1066600013E90600134815F0E3FD00211A2023F07A
:106670001BFFAC210F4815F077FE53210D4815F094
:1066800073FE00210B4815F06FFE002104460948F7
:1066900015F06AFE00EB0421B1F5A64F06D01022DA
:1066A000054820F079F8002002B010BD012002B0AA
:1066B00010BD00BF54A500204498002070B50446CA
:1066C00042F21070FFF7B8FF7A497B481FF0E0FEF6
:1066D000257805B3794978481FF07AFE10222946BB
:1066E000754820F029F8AC21754815F03DFEE021F1
:1066F000734815F039FE0021714815F035FE294622
:1067000003466F481D4615F02FFE00EB0520B0F53F
:10671000604F40F0A9806A4DF021284615F024FE14
:106720000021284615F020FE0021284615F01CFE09
:106730000021284615F018FE10F00106ECD165780E
:10674000002D70D15E4DF021284615F00DFE002180
:10675000284615F009FE0021284615F005FE002107
:10676000284615F001FE10F00106ECD1A578002DA9
:106770007CD1534DF021284615F0F6FD0021284626
:1067800015F0F2FD0021284615F0EEFD0021284607
:1067900015F0EAFD10F00106ECD1E478FCB14949AE
:1067A00045481FF015FE1022214643481FF0C4FF44
:1067B000AC21434815F0D8FDA421414815F0D4FD83
:1067C00031463F4815F0D0FD214603463C481C4663
:1067D00015F0CAFD00EB0420B0F5244F44D1384D2C
:1067E000F021284615F0C0FD0021284615F0BCFD1B
:1067F0000021284615F0B8FD0021284615F0B4FD0B
:1068000010F00104ECD12C481FF092FE2C4815F03A
:1068100071FD21461A2023F047FE21461A2023F05D
:10682000BFFD012070BD284923481FF0D1FD102273
:10683000294621481FF080FFAC21214815F094FD26
:10684000A0211F4815F090FD31461D4815F08CFD24
:10685000294603461A481D4615F086FD00EB052023
:10686000B0F5204F3FF46EAF002070BD17491248BD
:106870001FF0AEFD102229460F481FF05DFFAC212E
:106880000F4815F071FDA8210D4815F06DFD31463A
:106890000B4815F069FD2946034609481D4615F0C9
:1068A00063FD00EB0520B0F5284F3FF462AF0020F8
:1068B000DBE700BF642D050044980020742D05001F
:1068C00054A50020B02D0500882D05009C2D050045
:1068D000F8B5044642F210700D46FFF7ADFE4F4981
:1068E0004F481FF0D5FD2678002E56D16678002E31
:1068F00073D1A6788EBBE678FEB15021494815F0D9
:1069000033FD0821474815F02FFD0021454815F0BB
:106910002BFD0021434815F027FDEB784249044642
:106920001C403F481FF054FD3D48214610221FF0F7
:1069300003FFA64201D00020F8BD39481FF0F8FD42
:10694000384815F0D7FC00211A2023F0ADFD0021B6
:106950001A2023F025FD0120F8BD5821314815F0FB
:1069600003FD08212F4815F0FFFC00212D4815F0EC
:10697000FBFC00212B4815F0F7FCAB782B490746B0
:106980001F4027481FF024FD2548394610221FF0DC
:10699000D3FEBE42AFD00020CEE75821214815F0EB
:1069A000E3FC00211F4815F0DFFC00211D4815F015
:1069B000DBFC00211B4815F0D7FC2B781C4907464F
:1069C0001F4017481FF004FD1548394610221FF0DC
:1069D000B3FEBE428AD00020AEE75021114815F028
:1069E000C3FC00210F4815F0BFFC00210D4815F035
:1069F000BBFC00210B4815F0B7FC0E49C7B2084894
:106A00001FF0E6FC3946064810221FF095FE687814
:106A10000740BE423FF46DAF00208DE7C42D050056
:106A20004498002054A50020082E0500F82D0500EC
:106A3000D82D0500E82D05002DE9F04F894685B0D9
:106A40005C495D4C80465D4817461FF0C1FC4946D5
:106A500010225A481FF042FE1FF058FF2368C01A48
:106A6000B0F57A7F00F299805548FFF7E5FD7B0885
:106A7000029345D0002508F10102524C01922B46A9
:106A80001E0A4021204618F815A05FFA85FB15F074
:106A90006BFC3146204615F067FC5946204615F040
:106AA00063FC51460746204615F05EFC034603EBA7
:106AB0000723AB424FF0480120461AD1019B13F83F
:106AC0001530039315F050FC3146204615F04CFC70
:106AD0005946204615F048FC039B064619462046B9
:106AE00015F042FC00EB0620A84205F10105ABB20F
:106AF00003D0002005B0BDE8F08F029A9342BFD3C7
:106B00004C21304815F030FC4FEA59054FEA592125
:106B10002C4815F029FCE9B22A4815F025FC002183
:106B20000646284815F020FC2749044623481FF054
:106B30004FFC1022294621481FF02EFE04EB0624AC
:106B400022491E481FF044FC21461C481022A4B2D2
:106B50001FF0C4FDA542CCD11A4DF021284615F0F6
:106B600003FC0021284615F0FFFB0021284615F004
:106B7000FBFB0021284615F0F7FB10F00104ECD1D7
:106B8000104815F0B7FB21461A2023F08DFC1A207F
:106B9000214623F005FC0120ACE71FF0B7FE0C4BAB
:106BA0000C4A20600C49C3F8002604481FF010FC72
:106BB0005AE700BF182E0500706A00204498002094
:106BC00040420F0054A50020342E0500482E050039
:106BD000000001403546526E282E0500014608B5DA
:106BE00004481FF0C5FC40F2FF31012023F0F2F908
:106BF000FEE700BF44980020014608B504481FF096
:106C000047FC40F2FF31012023F0E4F9FEE700BF2A
:106C10004498002010B542F2107082B0FFF70CFDCE
:106C2000AC211D4815F0A0FB80211B4815F09CFBF2
:106C30000021194815F098FB00210446164815F06C
:106C400093FB00EB0420B0F5004F22D1124CF02151
:106C5000204615F089FB0021204615F085FB002118
:106C6000204615F081FB0021204615F07DFB10F039
:106C70000101ECD10848019115F03CFB01991A2063
:106C800023F012FC01991A2023F08AFB012002B0A4
:106C900010BD0248FFF7B0FF54A50020502E05009C
:106CA000084C094908B5054620461FF0BFFB294698
:106CB000102220461FF038FD20461FF039FC034803
:106CC000FFF79AFF449800206C2E0500802E0500E7
:106CD0002DE9F04780460C4617463AB1013A92B288
:106CE00018460132FF2129F0DDF8034604EB070CBA
:106CF00000224446204610F8011B0A2900F0538167
:106D00000D2900F050813A2940F0A4816578A5F161
:106D10003001C9B209290CD9A5F14101052940F278
:106D20005781A5F16101052900F28881A5F157017C
:106D3000C9B2A578A5F13000C6B2092E4FEA0110FC
:106D40000CD9A5F14101052940F23A81A5F1610173
:106D5000052900F27381A5F15706F6B2E578A5F191
:106D60003001C9B230440929C6B20CD9A5F141019C
:106D7000052940F22981A5F16101052900F25E8112
:106D8000A5F15701C9B22579A5F1300E5FFA8EFE43
:106D90000901BEF1090FC9B20ED9A5F1410EBEF12C
:106DA000050F40F21981A5F1610EBEF1050F00F249
:106DB0004581573D5FFA85FE94F8059001EB0E057D
:106DC000A9F13001EDB2C9B22E440929F6B2ADB233
:106DD0000CD9A9F14101052940F20281A9F1610113
:106DE000052900F21981A9F15701C9B294F806905A
:106DF000A9F1300E5FFA8EFE0901BEF1090FC9B28A
:106E00000FD9A9F1410EBEF1050F40F2ED80A9F1B5
:106E1000610EBEF1050F00F2FF80A9F157095FFA7C
:106E200089FE7144C9B201EB0525ADB20E4465453A
:106E3000F6B280F2ED80E579A5F13001C9B20929F9
:106E40000CD9A5F14101052940F2D680A5F16101D7
:106E5000052900F2F380A5F15701C9B2257AA5F101
:106E600030095FFA89F90901B9F1090FC9B204F1D2
:106E7000090E40F29A80A5F14109B9F1050F40F2DF
:106E8000B880A5F16109B9F1050F00F2D780573D2F
:106E9000EDB20E4455FA86F6F6B200284CD00B340B
:106EA000002534E0A9F16101052900F2B580A9F1BE
:106EB0005701C9B214F8019CA9F1300A5FFA8AFAA5
:106EC0000901BAF1090FC9B20ED9A9F1410ABAF103
:106ED000050F2CD9A9F1610ABAF1050F00F29C80C7
:106EE000A9F157095FFA89FA5144C9B202F10109BF
:106EF00099541FFA89F20E449742F6B2C0F09B8073
:106F00000135E9B2884204F102040D4614D914F89F
:106F1000029CA9F13001C9B20929A646CAD9A9F132
:106F200041010529BED8A9F13701C9B2C2E7A9F1CB
:106F300037095FFA89FAD7E79EF80040A4F13001DB
:106F4000C9B209290AD9A4F14101052958D9A4F1E6
:106F50006101052978D8A4F15701C9B29EF8014012
:106F6000A4F13000C0B209010928C9B209D9A4F1BD
:106F70004100052848D9A4F16100052864D8573C90
:106F8000E0B20E4450FA86F616F0FF0F68D19EF874
:106F900002100A290EF103045FD1BA427FF4AAAEAF
:106FA0002046BDE8F0870446A4E64944C9B20E4431
:106FB0000129F6B27FF471AF00242046BDE8F087C6
:106FC000A5F13706F6B2C9E6A5F13701C9B2DAE68E
:106FD000A5F13701C9B2ACE6373D5FFA85FEEBE6B5
:106FE000A9F13701C9B201E7A9F1370E5FFA8EFEA8
:106FF00017E7373DEDB24CE7A5F13701C9B22DE7F0
:10700000A4F13701C9B2A9E7A4F13700C0B2B8E7CB
:1070100044462046BDE8F087134914481FF006FA9D
:107020004946102211481FF07FFB10481FF080FADC
:107030000F48FFF7E1FD0F48FFF7D0FD0A490B4865
:107040001FF0F4F92946ECE7074908481FF0EEF96C
:107050002146E6E70848FFF7CFFD0848FFF7CCFDDB
:107060000748FFF7C9FD00BF6C2E050044980020BB
:10707000802E05009C2E0500902E0500BC2E0500DC
:10708000AC2E05002DE9F04F824683B0CD48CE4EA0
:10709000FFF7D2FAD14619F8011B0A2900F09081B6
:1070A0000D2900F08D813A2940F0ED819AF8010018
:1070B000A0F13003DBB2092B0CD9A0F14103052B61
:1070C00040F2C481A0F16103052B00F2D281A0F14E
:1070D0005703DBB29AF80200A0F130085FFA88F299
:1070E000092A4FEA03180CD9A0F14103052B40F2FD
:1070F000A981A0F16103052B00F2BB81A0F1570229
:10710000D2B29AF80300A0F13003DBB29044092B0D
:107110005FFA88FB0CD9A0F14103052B40F28E8168
:10712000A0F16103052B00F2A481A0F15703DBB2AB
:107130009AF80400A0F13007FAB21B01092ADFB265
:107140000CD9A0F14103052B40F27481A0F1610339
:10715000052B00F28E81A0F15702D2B29AF80500F9
:107160001744A0F13003FFB2DBB2BB44092B5FFA36
:107170008BFBBAB20CD9A0F14103052B40F256812A
:10718000A0F16103052B00F27481A0F15703DBB27B
:107190009AF80600A0F13007FFB21B01092FDBB2FD
:1071A0000CD9A0F14101052940F23C81A0F1610117
:1071B000052900F25E81A0F15707FFB29AF8070097
:1071C0003B44DFB2A0F13003DBB2BB44092B07EB39
:1071D00002275FFA8BFBBFB20CD9A0F14103052B4C
:1071E00040F21C81A0F16103052B00F24281A0F165
:1071F0005703DBB29AF80800A0F13004E4B21B0197
:10720000092CDBB20AF1090940F2E880A0F1410241
:10721000052A40F20081A0F16102052A00F22981CD
:107220005738C0B29B4450FA8BFB5FFA8BFBB8F126
:10723000000F00F093800AF10B0A3D461DE0282163
:10724000304615F091F8690A304615F08DF8C5F30F
:107250004701304615F088F80021304615F084F8D3
:10726000C3B2A3424FD1C7F101032B44DBB20135B6
:1072700043450AF1020AADB270DA1AF8024CA4F1E1
:107280003003DBB2092BD1460BD9A4F14103052B06
:107290005DD9A4F16103052B00F2DC80A4F1570352
:1072A000DBB21AF8012CA2F130011C01CBB2092B80
:1072B000E4B20AD9A2F14103052B4CD9A2F1610332
:1072C000052B00F2D880573AD3B21C44E4B2A34451
:1072D00015F001035FFA8BFBB1D1202130460193F9
:1072E00015F042F8690A304615F03EF8C5F347013B
:1072F000304615F039F8019B3046194615F034F840
:10730000C3B2A342AFD0314801931FF011F9304905
:107310002E481FF05DF8102229462C481FF03CFA39
:107320002C492A481FF054F81022214627481FF004
:10733000FBF9294925481FF04BF8019B23481946C2
:1073400010221FF0F9F9002003B0BDE8F08FA4F17E
:107350003703DBB2A5E7373AD3B2B6E799F80000B6
:10736000A0F13003DBB2092B0AD9A0F14103052BB0
:107370004DD9A0F16103052B7BD8A0F15703DBB2F7
:1073800099F80100A0F13001C9B21B010929DBB253
:107390000AD9A0F14102052A35D9A0F16102052AD6
:1073A00067D8A0F15701C9B29B4451FA8BF111F093
:1073B000FF0171D199F802300A2B09F1030968D154
:1073C000CA4667E640420F0054A5002044980020BA
:1073D000CC2E0500F02E0500002F05001C44E4B261
:1073E000A344012C5FFA8BFB7FF421AF2E4814F0ED
:1073F00081FF00211A2023F057F81A20002122F0E3
:10740000CFFF2046A0E7A0F13701C9B2CCE7A0F139
:107410003703DBB2B4E73738C0B203E7A0F1370374
:10742000DBB2E7E6A0F13707FFB2C7E6A0F137030A
:10743000DBB2ADE6A0F13702D2B28FE6A0F137039E
:10744000DBB275E6A0F13702D2B25AE6A0F13703FB
:10745000DBB23FE6154916481EF0E8FF2146102230
:1074600013481FF061F912481FF062F81148FFF746
:10747000C3FBFFF715FC0D490D4801921EF0D6FF26
:10748000019A1146EBE70A481EF0FEFF0A48FFF793
:10749000B3FB0A48FFF7B0FB054810221FF044F980
:1074A0000748FFF7A9FB00BF54A500206C2E05007C
:1074B00044980020802E0500902E0500BC2E05006B
:1074C000082F05002DE9F04F40F2FF3185B0012073
:1074D00022F080FD724973481EF07AFF7248FFF770
:1074E000ABF8002872D071496E481EF0D1FF42F20D
:1074F0001070FFF7A1F830216D4814F035FF00211E
:107500006B4814F031FF0121694814F02DFF002170
:10751000674814F029FF30210502654814F024FF64
:107520000021634814F020FF0221614814F01CFF81
:10753000002104465E4814F017FF05F47F4500EB78
:1075400004245B4814F0D6FE2C4300211A2022F0BC
:10755000ABFFA4B200211A2022F022FF631E9BB2CF
:107560004FF6FD72934204D8524B1F683B88A342EA
:1075700004D00024204605B0BDE8F08FFFF74AFB99
:107580000521B81CFFF79AF80028F2D0484814F0FB
:10759000B1FE00211A2022F087FF00211A2022F0DC
:1075A000FFFE0021012022F015FD64201FF0BAF932
:1075B00040F2FF31012022F00DFD394939481EF01B
:1075C00007FF3948FFF738F8814620B93A4935486E
:1075D0001EF05EFFCDE7354932481EF059FFB7F87F
:1075E00020A097F8228007F123030293BAF1000F3D
:1075F00024D0DFF8C8B003971FFA88F20BEB080617
:1076000047461C4600259046A9B220465B464246A6
:107610000191FFF75DFB019904464FB1274B4A46A4
:1076200013F8010BFF2818BF00229E42F8D17AB34D
:107630003D44AA4501D9002CE6D1039F0298FFF7EB
:1076400021FD002895D007F10C0420460521FFF705
:1076500035F800288DD0204607F11601FFF738F9DC
:107660000446002885D0042540F2FF31012022F095
:10767000B1FCC8201FF056F90021012022F0AAFC1D
:10768000C8201FF04FF96B1E13F0FF05ECD171E716
:1076900042465846FFF7D0F90028C9D169E700BF34
:1076A000382D050044980020A0860100542D0500C7
:1076B00054A50020586200205C2D0500806A00203F
:1076C0002DE9F04F704C714F714E87B0204616F087
:1076D000AFFC704AA36A70493B6001916F4FE56A45
:1076E0006F4C07CA9B103B604FF48073ADF80830B5
:1076F000256003AD85E80700029A6749304614F01B
:1077000097FD0021022022F0CFFE664B4FF420703F
:1077100043F0010398470021304614F025FE002471
:107720000134E4B22146304614F01EFE0C2C05F85C
:10773000010BF5D10121022022F0B6FE544814F0CD
:10774000D9FD9DF816209DF8155057499DF811E078
:107750009DF80E809DF80CB091F800A09DF80D608A
:107760009DF80F709DF81090504B94004FEA840CD8
:107770000CF4407CA9004CEA0E0C4FEA851E8800F0
:107780000EF4407E01F4407141EA0B0B4EEA080E04
:1077900029029DF81280C3F800B0950100F44070F2
:1077A00001F4407105F440753043394345EA08055A
:1077B0009DF813609DF814809DF8177058601202B0
:1077C00004F4407402F4407244EA0904324348EA83
:1077D0000728C3E9044CC3E902E1C3E90652C3F830
:1077E0002080BAF1000F4BD1DFF8C490D9E90067CF
:1077F000C01BD9F80870BBEB060648BF5646AEEB77
:1078000007070028B8BF5046002FC3E90060B8BF83
:1078100000209F60B8BF9860D9F80C00091A0029B1
:10782000D960BCBF0021D960D9F81010641A002CAF
:10783000B8BF00211C61B8BF1961D9F81410ACEBB6
:10784000010100295961BCBF00215961D9F8181004
:107850006D1A002DB8BF00219D61B8BF9961D9F89C
:107860001C10521A002ADA61BCBF0022DA61D9F872
:107870002020A8EB0202002A1A62BCBF00221A6272
:1078800007B0BDE8F08F00BF8C8B00202C8F00204C
:1078900054A500205C2F050080841E00DC8D002094
:1078A000548E0020C0970500B78C0020DC8E00208D
:1078B000B88E00202DE9F043C04DC14C297801EB72
:1078C000C1032DED028B04EBC30014F8333083B0F9
:1078D000CA007BB3BB4FDFEDBC8AD7ED007A9FEDCA
:1078E000BB8AC379007A009077EEA87A0A4404EB49
:1078F000C20167EE887A8A794979FDEEE77A834298
:1079000041F2883994BF8046064609FB02F217EE21
:10791000900A09FB01F194BF1E4698461EF0E4FF51
:10792000B04280F2E280AA4F3B78B34240F08E80B2
:107930002978CA00501804EBC000437873B3A54FF0
:10794000DFEDA18AD7ED007A9FEDA08AC37A007B94
:10795000009077EEA87A0A4404EBC20167EE887AB9
:107960008A7A497AFDEEE77A834241F2883994BFF8
:107970008046064609FB02F217EE900A09FB01F168
:1079800094BF1E4698461EF0AFFFB04280F28A8038
:10799000914F3B78B3424BD12978CA00531804EB7E
:1079A000C303987818B993F82030002B3BD08B4F45
:1079B000DFED8B8AD7ED007A9FED848A501804EBB7
:1079C000C00077EEA87A0A44C37B007C009004EBE9
:1079D000C20167EE887A8A7B497BFDEEE77A8342B3
:1079E00042F2107994BF8046064609FB02F217EE78
:1079F000900A09FB01F194BF1E4698461EF074FFE1
:107A0000B04231DA774FDFF8E0813B7888F80060E8
:107A1000B34208D02B7803EBC30304EBC3039A787B
:107A2000002A40F0858003B0BDEC028BBDE8F083F6
:107A30002B7803EBC30304EBC3033246597D987CD8
:107A4000FEF7A8FC29783E70CA00A7E72B7803EB65
:107A5000C30304EBC3033246197D587CFEF79AFC3E
:107A600029783E70CA0065E7D7ED007A2B7877EE6B
:107A7000A87A03EBC30304EBC30367EE887A9A7B0F
:107A8000597B187C0090FDEEE77ADB7B17EE900ABD
:107A900009FB02F209FB01F11EF026FF404554DD0F
:107AA0004646AFE7D7ED007A2B7877EEA87A03EB5E
:107AB000C30304EBC30367EE887A9A7A597A187B7A
:107AC0000090FDEEE77ADB7A17EE900A09FB02F2EE
:107AD00009FB01F11EF008FF404552DD3E4F3B78A7
:107AE0004646B3423FF458AFA2E7D7ED007A2B7871
:107AF00077EEA87A03EBC30304EBC30367EE887A3F
:107B00009A795979187A0090FDEEE77ADB7917EEC9
:107B1000900A09FB02F209FB01F11EF0E5FE404567
:107B200064DD2B4F3B784646B3423FF401AF8DE70F
:107B3000997DD87C3246FEF72DFC98F800303B70DA
:107B400003B0BDEC028BBDE8F083D7ED007A2B7853
:107B500077EEA88A03EBC30304EBC30328EE888AFD
:107B60009A7B597B187C0090FDEEC87ADB7B17EE80
:107B7000900A09FB02F209FB01F11EF0B5FEC6B244
:107B800040E7D7ED007A2B7877EEA88A03EBC303A2
:107B900004EBC30328EE888A9A7A597A187B0090FE
:107BA000FDEEC87ADB7A17EE900A09FB02F209FBB8
:107BB00001F11EF099FEC6B2EAE600BF308D00204A
:107BC00098600020D08D00200000B44200007A446C
:107BD000708B0020588D0020718B00209C8F00201E
:107BE00000003443728B0020A48F0020D7ED007A70
:107BF0002B7877EEA88A03EBC30304EBC30328EECC
:107C0000888A9A795979187A0090FDEEC87ADB79DA
:107C100017EE900A09FB02F209FB01F11EF064FE67
:107C2000C6B280E6BC499FEDBD6AD1ED007ABC4B7F
:107C3000BC4A93ED007ADFEDBC6A2DE9F04F67EEA8
:107C4000867A2DED028BE7EE267AB84DB84C92ED90
:107C5000008A2B78C1ED007A37EE088A03EBC30364
:107C600038EE678AF6EE008A04EBC30368EE288AD2
:107C700085B0C2ED008A93F8242093F81BB00192DE
:107C800093F8252093F82630029203931EF03EFECF
:107C90002B78A84A03EBC301F0EEE87AB3EE047A3E
:107CA00004EBC101F4EEC77AF1EE10FA0D7ECCBF01
:107CB000012600261670DA001DB991F82160002E09
:107CC0007AD09D49DFF898C2DFF89882DFF898E211
:107CD0009A4F0E784FF000094FF0000AC7F8009055
:107CE000CCF80090C8F80090CEF800A07EB9B6EEAF
:107CF000007AF4EEC77AF1EE10FA08DD904A01231B
:107D000010600B7005B0BDEC028BBDE8F08FDFF8A2
:107D10003092D9F80090A0EB0909B9F10B0FF1D915
:107D2000DFF848A29AF80090B9F1000F1ED0DFF8F2
:107D3000409299F80060002E47D09FED827A824EE3
:107D4000F4EEC77AF1EE10FAC8BF30603668801BD7
:107D5000B0F5C87F3ED9002389F800300B708AF84F
:107D6000003005B0BDEC028BBDE8F08FB6EE007AB6
:107D7000F4EEC77AF1EE10FA00F39A80DFF8F09192
:107D800099F80070002FD8D19FED6E7AF4EEC77A83
:107D9000F1EE10FA01DD6C4B1860002EB2D06A4B88
:107DA0001B68C01AB0F5C87FACD9002389F8003031
:107DB0000B708AF80030D4E791F82260002E80D151
:107DC00091F8231000299DD07BE75F4E01213060A0
:107DD00089F80010DFED5D7AB4EEE78AF1EE10FA73
:107DE0004FDAD11804EBC101FFEE008AC97F0029E8
:107DF0005BD0032900F0FC80022900F032810529C4
:107E000000F00B81042900F07B81B0EE687A9DB10F
:107E10004F499FED506AD1ED007A484906EE90BA7D
:107E200067EE867AF8EEE66A67EEA67A67EE877AFC
:107E3000FDEEE77AC1ED007AD11804EBC10191F8AB
:107E40002100002846D0DDED017A9FED4A7A91F8B5
:107E50002710F8EEE77A67EE877A99B3032900F0E6
:107E60003681022900F0F580052900F06981042996
:107E700000F09A8168EEA77AFDEEE77A17EE901A85
:107E800026E0DFED357AD118B4EEE78A04EBC101C4
:107E9000F1EE10FA98BFDFED317AC97F94BF68EE3A
:107EA000A78AF7EE008A0029A3D1B1EE687AAEE77F
:107EB00001268AF800603AE7F5EEC08AF1EE10FA82
:107EC000C0F2CD8067EEE87AFDEEE77A17EE901A01
:107ED000CCF80010D11804EBC10191F82200002861
:107EE00055D0DDED027A9FED237A91F82810F8EE57
:107EF000E77A67EE877A002945D0032900F0B98038
:107F0000022900F09580052900F03C81042900F049
:107F1000598167EEA87A38E0248B00206666663FB8
:107F2000808B0020288B0020CDCCCC3D308D0020D4
:107F3000986000203C8E0020228B00204C8E002078
:107F40002C8B00203333B33E308B00202506F0C14C
:107F5000D06200200AD7233D2506F0410A85883DDE
:107F6000408E0020488E0020448E0020208B002070
:107F7000218B00200AD7233F00000000F5EEC08AC5
:107F8000F1EE10FA5ADB67EEE87ACEED007A134490
:107F900004EBC30494F82330002B3FF4B3AEDDEDC3
:107FA000037A1FED0C7A94F82930F8EEE77A67EE41
:107FB000877A63B967EEE88AFDEEE87A17EE903AC1
:107FC000C8F8003005B0BDEC028BBDE8F08F032B84
:107FD00064D0022B35D0052B00F0C180042B00F0BB
:107FE000068168EEA77AFDEEE77A17EE903AE7E7AA
:107FF0005FED1F7AF5EEC08AF1EE10FA8CBFB0EE9D
:10800000677AB0EE687AFFEE007AB4EEE77AF1EEC6
:1080100010FAB8BFB0EE677AF9E6F7EE007AF4EE40
:10802000E78AF1EE10FA40F2B880BFEE007AEEE691
:10803000F5EEC08AF1EE10FA40F2E7805FED327A99
:10804000A3E7F5EEC08AF1EE10FA40F2E7800023D4
:10805000B6E7F5EEC08AF1EE10FA40F2EE800021AC
:1080600036E7F5EEC08AF1EE10FA5ED91FED3E7AE2
:10807000CDE6F5EEC08A1FED407AF1EE10FA98BF1A
:10808000B0EE687AFFEE006AB4EEE67AF1EE10FA2E
:10809000B8BFB0EE667A67EE877A76E7F5EEC08A0B
:1080A0001FED4B7AF1EE10FA88BFF0EE478ABFEE73
:1080B000007AF4EEC78AF1EE10FAB8BFF0EE478A04
:1080C00068EEA78AFDEEE87A17EE903A78E7F5EECB
:1080D000C08A1FED577AF1EE10FA98BFB0EE687AB9
:1080E000FFEE006AB4EEE67AF1EE10FAB8BFB0EE39
:1080F000667A67EE277AFDEEE77A17EE901AE7E6E2
:10810000F7EE007AF4EEE78AF1EE10FA8CBFB0EEEB
:10811000677AB0EE687AB5EEC07A5FED697AF1EE13
:1081200010FAB8BFB0EE677A71E6FFEE007AF4EEAF
:10813000E78AF1EE10FABFF6B8AEB7EE007A66E65F
:10814000B7EE007AF4EEC78AF1EE10FA7FF6B4AE1D
:10815000F1EE677AFDEEE77A17EE901AB8E6F5EEE3
:10816000C08A1FED7B7AF1EE10FA88BFF0EE478AE5
:10817000BFEE007AF4EEC78AF1EE10FAB8BFF0EE67
:10818000478A2EE7B7EE007AF4EEC78AF1EE10FACE
:108190007FF6F4AEF1EE677AF7E6F5EEC08AF1EE1F
:1081A00010FABFF682AE61E7B7EE007AF4EEC78A46
:1081B000F1EE10FA98BFB0EE687A5FED916AB5EE15
:1081C000C07A91E7B7EE007AF4EEC78AF1EE10FAC2
:1081D00098BFB0EE687AB5EEC07A5FED996AF1EEBD
:1081E00010FAB8BFB0EE667A67EE877ACDE6B7EEE2
:1081F000007AF4EEC78AF1EE10FA88BFF0EE478AF3
:10820000F5EEC08A1FEDA47AB6E7BFEE007AF4EE71
:10821000C78AF1EE10FABFF6B6AEB6E6BFEE007A48
:10822000F4EEC78AF1EE10FAFFF6DDAE67EEE87AFB
:10823000FDEEE77A17EE903AC2E6BFEE007AF4EE72
:10824000C78AF1EE10FABFF63DAE54E7F0B4CB4B5F
:10825000CB4D1A78CB482B68CB49002A62D1CB4A48
:1082600004680F681668E41BA64240F22B8143F0B5
:10827000010344684F685668E41BB442C0F038817B
:10828000043CB44280F0768184688F689668E41B71
:10829000B442C0F02A81043CA64240F26881C4681E
:1082A000CF68D668E41BB442C0F01C81043CA642EF
:1082B00040F25A8104690F691669E41BB442C0F0A8
:1082C0000E81043CA64240F24C8144694F695669D4
:1082D000E41BB442C0F00081043CA64240F23E815F
:1082E00084698F699669E41BB442C0F0F280043C53
:1082F000A64240F23081C469CF69D669E41BB4421A
:10830000C0F0F980043CA64240F222810C6A006A67
:10831000116A021B8A4280F0CA8043F480732B608A
:10832000F0BC70470E6804689FED997A974AA41BC9
:1083300007EE904AF8EE677A166867EE877AFDEEE8
:10834000E77A17EE907AE41BB442C0F0B880043CA0
:10835000A64298BF23F001034F6844689FED8C7AD2
:108360005668E41B07EE904AF8EE677A67EE877A64
:10837000FDEEE77A17EE907AE41BB44280F0BE80FF
:1083800043F002038F6884689FED817A9668E41B4E
:1083900007EE904AF8EE677A67EE877AFDEEE77AA5
:1083A00017EE907AE41BB44280F0CC8043F00403D3
:1083B000CF68C4689FED767AD668E41B07EE904AD2
:1083C000F8EE677A67EE877AFDEEE77A17EE907A35
:1083D000E41BB44280F0B08043F008030F690469E5
:1083E0009FED6B7A1669E41B07EE904AF8EE677A08
:1083F00067EE877AFDEEE77A17EE907AE41BB442D7
:1084000080F0948043F010034F6944699FED607AD7
:108410005669E41B07EE904AF8EE677A67EE877AB2
:10842000FDEEE77A17EE907AE41BB44278D243F07F
:1084300020038F6984699FED567A9669E41B07EEE5
:10844000904AF8EE677A67EE877AFDEEE77A17EEE4
:10845000907AE41BB4425DD243F04003CF69C46913
:108460009FED4B7AD669E41B07EE904AF8EE677AE7
:1084700067EE877AFDEEE77A17EE907AE41BB44256
:1084800042D243F08003006A0C6A116A9FED407A81
:10849000021B07EE902AF8EE677A67EE877AFDEE08
:1084A000E77A17EE900A121A8A42FFF436AF043ABE
:1084B000914201D823F480732B60F0BC704743F0E5
:1084C000010349E7043CB442FFF4D3AE23F00103B7
:1084D000CFE643F040030EE743F0200300E743F00C
:1084E0001003F2E643F00803E4E643F00403D6E6A3
:1084F00043F00203C8E643F0800307E7043CA642CA
:1085000098BF23F002033DE7043CA64298BF23F046
:108510008003B8E7043CA64298BF23F040039DE7E0
:10852000043CA64298BF23F0200382E7043CA64205
:1085300098BF23F0100367E7043CA64298BF23F0DE
:1085400008034BE7043CA64298BF23F004032FE73F
:1085500023F08003DAE623F04003CCE623F0200387
:10856000BEE623F01003B0E623F00803A2E623F0F2
:10857000040394E623F0020386E600BFB78C0020D4
:10858000048D00204C630020B88E0020DC8E00207B
:10859000CDCC4C3E10B41D4B1D4A1B78D25C422AF8
:1085A0004FEA500022D81B49C3B201EB022112F05E
:1085B000FB0FC85C22D1184C1849E45C0C70012AEE
:1085C00002D1174CE35C0B70032A01D13F2811D074
:1085D000144B1B78032B06D0134B1A6840F2FF1381
:1085E0009A4208BF00205DF8044B70470F4BC0B2A1
:1085F000185CEDE700205DF8044B7047012A01D1BB
:108600000649DEE70A2AFBD0DEE700BF308D0020F6
:10861000B8620020AC7F0500682F05006C8F002039
:10862000AC7E050084610020048D00206869002074
:1086300070B46B4B6B4A197801EBC10302EBC302B8
:10864000CC00907E01284FF0000358D06648674A5E
:1086500000781278664D034403EB430302EB830377
:108660002A786448DBB2032A037032D0624A127857
:10867000032A18D0022A01D070BC70475F4A525CAE
:1086800012F0FB0F40F08E805D4A5E4D611A02EBE6
:1086900041012A68C978C2F300228A42ECD10C3326
:1086A000037070BC7047554A555C012DE4D00A2D0B
:1086B000E2D0534A534E611A02EB41013268C97845
:1086C00002F001028A42D7D1072DE8D107330370A7
:1086D000D2E74A4A555C0F2D5CD04B4A0C2D1278DC
:1086E00064D00E2D68D0082D4DD1492A52D9424A66
:1086F00012780C33DBB2032A0370BBD1D9E7937F26
:10870000002BA3D0414A424D92ED017AD5ED007A7B
:10871000B8EEC77AF4EEC77AF1EE10FA57D4012B0F
:108720002ED092ED027AB8EEC77AF4EEC77AF1EE67
:1087300010FA4ED4022B23D092ED037AB8EEC77A0A
:10874000F4EEC77AF1EE10FA45D4032B18D092ED6F
:10875000047AB8EEC77AF4EEC77AF1EE10FA34D4A0
:10876000042B32D092ED057AB8EEC77AB4EEE77AF0
:10877000F1EE10FA31DC052B18BF00237FF466AF51
:10878000013BDBB262E73E2A19D0072D10D1073337
:10879000DBB20370184A1278032A8AD0022A7FF4C7
:1087A0006BAF6BE7062A7FF467AF6DE7392AF1D923
:1087B0000C33DBB2037059E7452AF9D8EAE7012DFB
:1087C0003FF45AAF0A2DE0D156E70423D8E7034619
:1087D000D6E70223D4E70323D2E70523D0E700BF7F
:1087E000308D002098600020508D0020498D0020A1
:1087F0003D8D0020508E002084610020B862002052
:1088000020630020048D0020BC620020708D0020B9
:10881000588D002070B505460C461EF077F81A4AB0
:1088200013783BB9194E1A4930601A4E0B6001217A
:1088300033601170CDB9154B17491B680968C31A0D
:108840008B420ED2124B1968A1B1124B19681C60F1
:10885000611AB1F5FA6F11D09DB1012D0ED1002929
:108860000CDB00231370022070BD012DF9D1074BE2
:108870000A49E2E7074901220C601A60084B1878A0
:1088800070BD0029FADCECE7008D0020348B00205D
:10889000BC8D0020B08D00209C620020246200204E
:1088A000C88C00202DE9F843AC4BAD491878C0EBDB
:1088B000C003C3EBC3030B44C50093F82D30403B0A
:1088C00007EE903AF8EEE77A00F1E9809FEDA57A9D
:1088D000F7EE000AE7EE870A2B1AC3EBC3030B443B
:1088E00093F82E30403B07EE903AF8EEE77A00F12D
:1088F000E180DFED9C6AB7EE007AA7EEA67A9A4A8D
:108900002B1A02EB4302927A002A00F09F80974CC8
:10891000C3EBC30394F800E0CA18BEF1010F92F84C
:10892000246092F8277092F8283092F825C092F8C7
:10893000294092F82A8092F82C9000F0C9800925ED
:108940006422403CA8F14008B9F1000915FB062655
:1089500015FB072715FB03204FEA44044FEA48089C
:1089600018BF4FF0010915FB0C22814D2B68BB424B
:1089700034DCBE1B012EB8BF012607EE906AFB1A3D
:10898000B8EEE77A07EE903AF8EEE77AF7EE006A8B
:1089900087EE870AB4EEE60AF1EE10FAF4EE660A04
:1089A00088BFB0EE660AF1EE10FA01D01BF03EFD72
:1089B00007EE904AF8EEE77A27EE800A6D4B9FEDBE
:1089C0006E7AD3ED007A6D4B67EE877A27EE800AD8
:1089D000BDEEC00A83ED000ABDE8F883834274DB74
:1089E000121A012AB8BF012207EE902A1B1AF8EECC
:1089F000E76A07EE903AF8EEE77A9FED616A87EE54
:108A0000A60AF7EE007AB4EEC60AF1EE10FAB4EE5A
:108A1000677AB8BFB0EE460AF1EE10FA03D0F0EE76
:108A2000470A1BF003FDB9F1000F08D0F7EE007AFA
:108A3000B4EEE70AF1EE10FA88BFB0EE670A07EE6F
:108A4000908AF8EEE77A27EE800AB7E74D4A127867
:108A5000032A53D0454A4C4C12782668012A3DD04F
:108A6000C3EBC3030B44092293F82B1093F8018046
:108A7000642312FB0132921B06EB4202B3186FF023
:108A800013045F1004FB08F41421B7EE007AF0EE33
:108A9000470A08FB01F838464FF0010965E7DFEDAA
:108AA0003B6A9FED3B7A77EEA67AF5EE000AE7EE99
:108AB000870A11E79FED357ADFED356A77EE877A21
:108AC000B5EE007AA7EEA67A19E79FED2D0A75E7B5
:108AD0002C4B1B78032B2ED02B4B1E682D4A281AAB
:108AE000C0EBC0000B18126893F801806FF01304FC
:108AF000931904FB08F45F100A21C6E72248254AAF
:108B0000254D0468126819482E680078C3EBC3032A
:108B10000B44121B93F8018006EB6202012806EB5E
:108B200002036FF013044FEA630704FB08F40CBF61
:108B30000A211421A9E7174B134917481B68096834
:108B4000066892F801805A1A06EB620293196FF0D8
:108B500013045F1004FB08F40A2196E7308D00200F
:108B600004600020320C433D20630020846100201B
:108B7000DC8D0020D06200200AD7233CDC8C002052
:108B8000000000003D8D00201063002000008042A6
:108B90000000403C308F0020348F00202DE9F84F3A
:108BA000B74BB84ADFEDB87AD2ED004A9FEDB75A1D
:108BB0009FEDB77ADFF8F4829FEDB64A2DED048B76
:108BC000D3ED009AB44BF4EEE79A93ED009AB34BD1
:108BD000F1EE10FAF4EEE74A8CBFF0EE675AF0EED1
:108BE000695AF1EE10FA75EEA75A8CBFB0EE676ABB
:108BF000B0EE646AB4EEC59A76EE277AB0EE478A94
:108C0000B1EE046AF1EE10FAA5EE868A1D78A44B47
:108C10008CBFF0EE456AF0EE496AF0EE475A76EE08
:108C2000856AE7EE865A05EBC50708EBC707B0EE85
:108C3000045AA6EE857A97F84560FDEEE57AD3ED05
:108C4000008A17EE902AFDEEC77ABDEEC88A17EEAD
:108C5000904A68EE848A4FEAC509002E76D0DFED8F
:108C6000917A97F8313097F82CE097F82A1097F816
:108C70002D0097F82BB097F82E6097F82F70F4EE30
:108C8000E74AF1EE10FA4FF0640CB8BF62464FF0BD
:108C9000190A403B07EE903A1AFB0ECC00F1D08146
:108CA00009EB050308EBC303F8EEE77A93F83230DB
:108CB0009FED807AF7EE000A403BE7EE870A00F16D
:108CC000D48107EE903ADFED7B6AF8EEE77AB7EEF3
:108CD000007AA7EEA67A09EB050308EBC3039445D7
:108CE00093F830A0F0EE477AC0F2D881AEEB0101E4
:108CF00001EB810101EB81010129B8BF0121ACEB3E
:108D0000020207EE901A07EE102AF7EE006AF8EE5C
:108D1000E77AB8EEC77AF4EE660AF1EE10FA87EE5B
:108D2000270A01D01BF082FBBAF1000F40F06982E4
:108D3000403E760007EE906AF8EEE77A67EEA87A92
:108D400067EE807AFDEEE77A17EE906A09EB050090
:108D500008EBC00090F84630002B00F0E580DFED16
:108D6000517A90F835C090F83A3090F8332090F866
:108D7000361090F834E090F8377090F838A0F4EEA0
:108D8000E79A18EE100AF1EE10FA4FF0640BB8BF34
:108D9000584608EE100A403B4FF0190007EE903A93
:108DA00010FB0CB000F1BA8109EB050308EBC3031B
:108DB000F8EEE77A93F83B309FED3E7AF7EE000A43
:108DC000403BE7EE870A00F1BE8107EE903ADFED07
:108DD000396AF8EEE77AB7EE007AA7EEA67AF0EEF7
:108DE000477A09EB050308EBC30393F839B018EE93
:108DF000103A984260DA1922642312FB013318EE0C
:108E0000102A934200F39080AEEB010101EB810147
:108E100001EB81010129B8BF0121D31A08EE103AF4
:108E200007EE101AB8EEC88AB8EEC77ADFED1E6AF0
:108E300088EE070AB7EE007AB4EEE60AF1EE10FA11
:108E4000F4EE477AB8BFB0EE660AF1EE10FA03D03E
:108E5000F0EE670A1BF0EAFABBF1000F08D0F7EE5C
:108E6000007AB4EEE70AF1EE10FA88BFB0EE670AB6
:108E7000AAF1400A4FEA4A0A07EE90AA49E000BF69
:108E8000588D0020D08D00200000B44200003443F3
:108E90000000C8420AD7233C9C8F0020308D002060
:108EA000D06200200000B4C20000000098600020E2
:108EB000000034C3320C433DACEB020202EB8202F1
:108EC00002EB8202012AB8BF012207EE902AC31AE0
:108ED00008EE103AB8EEE77AF7EE007AB8EEC88AF4
:108EE000F4EE670AF1EE10FA88EE070A01D01BF0E3
:108EF0009DFABBF1000F08D0F7EE007AB4EEE70A56
:108F0000F1EE10FA88BFB0EE670A403F7F0007EE2F
:108F1000907AF8EEE77A67EEA87A67EE807AFDEE4F
:108F2000E77A17EE903A1E4409EB050208EBC202FD
:108F300092F84730002B72D05FED237A92F84330DD
:108F400092F83E1092F83CE092F83FC092F83D0053
:108F500092F8407092F841A0B4EEE79AF1EE10FA60
:108F60004FF06402B8BF1446403B07EE903A4FF012
:108F7000190BF8EEE77A1BFB012256D41FED337A6A
:108F8000F7EE000AE7EE870A09EB050308EBC303D7
:108F900093F84430403B07EE903AF8EEE77A00F160
:108FA00023811FED3C7AF7EE006AE7EE876A09EB52
:108FB000050308EBC303944293F8425000F3D480B6
:108FC000A1EB0E0101EB810101EB81010129B8BF89
:108FD0000121131B07EE103A07EE901AF7EE006A14
:108FE000F8EEE77AB8EEC77AF4EE660AF1EE10FA18
:108FF00087EE270A01D01BF019FA002D40F00B81F3
:10900000403F7F0007EE907AF8EEE77A67EEA88A95
:1090100068EE808AFDEEE88A18EE903A1E44BDECB8
:10902000048B824B1E60BDE8F88FDFED816A9FEDF7
:10903000817A77EEA67AF5EE000AE7EE870AA3E7D3
:1090400009EB050308EBC303F8EEE77ADFED786A76
:1090500093F832309FED777A77EEA67AF5EE000A34
:10906000403BE7EE870A7FF52CAE07EE903A9FED86
:10907000707ADFED706AF8EEE77A09EB050377EEB8
:10908000877AB5EE007AA7EEA67A08EBC30394457B
:1090900093F830A0F0EE477ABFF628AE192164238A
:1090A00011FB0033934200F3AA80ABEB000000EB0E
:1090B000800000EB80000128B8BF0120D21A07EE23
:1090C000100A06EE902AB8EEC77AF8EEE66A9FED2F
:1090D0005A6A86EE870AB7EE007AB4EEC60AF1EE57
:1090E00010FAF4EE477AB8BFB0EE460AF1EE10FA85
:1090F00003D0F0EE670A1BF099F9BAF1000F08D01F
:10910000F7EE007AB4EEE70AF1EE10FA88BFB0EE9F
:10911000670A403F7F0007EE907A0DE609EB0503F2
:1091200008EBC303F8EEE77ADFED416A93F83B30D2
:109130009FED407A77EEA67AF5EE000A403BE7EE27
:10914000870A7FF542AE07EE903A9FED397ADFED60
:10915000396AF8EEE77A77EE877AB5EE007AA7EE0D
:10916000A67AF0EE477A3CE61923642213FB0C231F
:109170009C42FFF654AFA0EB0C0000EB800000EB2C
:1091800080000128B8BF012007EE900AE41AB8EE6B
:10919000E77A07EE904AF8EEE77A9FED276A87EEC6
:1091A000870AF7EE007AB4EEC60AF1EE10FAF4EE92
:1091B000676AB8BFB0EE460AF1EE10FA03D0F0EEDF
:1091C000660A1BF033F945B1F7EE007AB4EEE70A10
:1091D000F1EE10FA88BFB0EE670AAAF1400A4FEA32
:1091E0004A0A07EE90AA0FE7DFED116A9FED117AA8
:1091F00077EEA67AF5EE006AE7EE876AD7E60026F4
:10920000A4E5F7EE007AB4EEE70AF1EE10FA88BFB3
:10921000B0EE670A8CE5F7EE007AB4EEE70AF1EEFD
:1092200010FA88BFB0EE670AEAE600BF486800207F
:10923000000080420000403C000000002DE9F84F93
:10924000324D334E334FDFF8E490DFF8E4A00024D2
:1092500005E0002347F824300134092C53D033783B
:1092600055F8042F9A42F4DDD9F80030002BF0D1E4
:109270009AF8002028492948DFF8B88090F800C003
:10928000D8F80030C2EBC202C2EBC2020A4401208D
:1092900092F826B0A0401843E34528BFE346FFF705
:1092A00079F91F4A1F499AF800301278CB5C801A6E
:1092B00023B9CBF100039842B8BF18460028C8D0A4
:1092C000D8F80030E340DB07C3D45845C1DCCBF10C
:1092D000000B8345BDDC31782A68134B521A07EE28
:1092E000902A03EB840393ED007AF8EEE77A40428C
:1092F00067EE877AFDEEE77A17EE903A00FB03F30C
:1093000047F82430A8E7BDE8F88F00BFD88E0020CA
:109310000A6300203462002004600020AD62002057
:10932000BC620020CC620020008F0020288F00202B
:10933000308D0020048D00202DE9F04F3B4C3C483F
:1093400083B02422002126F0ADFD2678002E68D0BF
:10935000032E66D0374BDFF8F4E01B683648374CF5
:10936000374901930023DEF8002000682478D1F803
:109370000080344DDFF8B8C0DFF8D4909A4601275A
:1093800012E055F82310A1420BDA20FA03F107FA94
:1093900003FBC90722EA0B0203D522FA03F1C9072E
:1093A0000AD50133092B2DD022FA03F1C907E8D4DD
:1093B00020FA03F1C907F4D5012E03D05CF823107D
:1093C0000029EED155F823108C4220DA28FA03FB4D
:1093D0001BF0010F21D1091B07EE901A1A4903F85F
:1093E000097001EB830191ED007AF8EEE77A67EE00
:1093F000877AFDEEE77A17EE901A4CF823100133C6
:10940000092BD1D1CEF8002003B0BDE8F08F28FAA7
:1094100003F1C90703F809A0C3D501994CF823103B
:10942000BFE7FFF70BFF267894E700BF5C8D0020B5
:1094300034620020888B0020886300200A630020AB
:10944000048D0020DC8E0020708F0020088D00200D
:10945000608D00202DE9F843AD482422002126F03C
:1094600021FDAC4B1B78002B42D0032B40D0A84CE5
:10947000A368002B42D1E568002D73D16FF001067F
:10948000A54BA64A1B78D35C9A1E012A00F2BA802B
:10949000A34F38684307C0F3800966D50023DFF87F
:1094A0009C82A360032D00F0CB8038680207C0F3D4
:1094B000C00900F1B2809B4D2A78002A40F00E814D
:1094C000994B1868994B1B78834200F0E180D4E9EE
:1094D0000231D8F800200B445B42934206DD012E96
:1094E00040F2B38052420023C4E90223BDE8F8836E
:1094F000874CFFF7A3FEA368002BBCD0864B874A9E
:109500001B78D35C9A1E012A40F29380884A127815
:10951000012A00F0858002250026022AE6D113F0F8
:10952000FB0F32D1834B844A1B7891687C488B4275
:10953000006802DA470740F10981022D4CD0002172
:10954000A160D26893424ADB032D01D00023E3607F
:10955000012ECBD9D4E90231784A12680B449342E8
:10956000C4DDC0E7012603258AE7DFF8B88198F853
:109570000020002A40F0A8806B4B18686B4B1B78CA
:10958000834267D0DFF8B4818CE7012B01D00A2B2E
:10959000ACD1634B1A68D60500F1F180150700F1D4
:1095A000EB80654B634ADB681278934240F301819C
:1095B00062486349D0ED007AD1ED036A9B1A07EE49
:1095C000103AF8EEE77AB8EEC77AE7EE667AFDEE83
:1095D000E77AC4ED037A89E7D2689342B6DA0707DF
:1095E000B2D4032DB4D0D31A554907EE903A91ED79
:1095F000037AF8EEE77A67EE877AFDEEE77AC4ED54
:10960000037AA5E74A4A1278012A86D14B4A1268A2
:109610000023C4E90223BDE8F8830023E36056E792
:10962000E368002B7FF462AF444AA3601368E360F1
:109630005CE73B4F386810F4807659D1022529E762
:109640003868C1053FF543AF30E73B68DB053FF5C0
:109650004DAF47E7384A374B92681B78934250DA50
:109660003849394B89689B68DFF8D0800A449B1AD7
:1096700007EE903A3249F8EE677A91ED027A67EE9A
:10968000877AFDEEE77A17EE903A5B42A36009E72E
:10969000294A284BD2681B789A422DDD29492A4B4A
:1096A000C968DB680A449B1A07EE903A2449F8EE31
:1096B000677A91ED037A67EE877AFDEEE77A17EE27
:1096C000903A5B42E36002E740F004003860FEF746
:1096D00061FF154B88F8009018604FE740F00800D4
:1096E0003860FEF757FF104B85F800901860E9E6E8
:1096F000DFF848800026D8E6D8F800305B42E36007
:10970000E5E6DFF83880D8F800305B42A360C9E6B0
:10971000346200205C8D0020308D0020B862002073
:10972000048D002028620020408B0020BC620020B5
:109730006C8F00200A630020DC8E0020888B0020C4
:10974000708F0020B88E00204C630020022D3FF463
:1097500043AFC91A194F07EE901A97ED027AF8EE47
:10976000E77A67EE877AFDEEE77AC4ED027AE8E6FB
:1097700002DB12077FF5BAAE0023E360B6E6104BBA
:109780001049DB6809788B42F2DD1007F4D4032D11
:109790003FF4ACAE5B1A094A07EE903A92ED037AB9
:1097A000F8EEE77A67EE877AFDEEE77AC4ED037AA2
:1097B0009CE6054B1B68E36098E600BF708F0020B5
:1097C000DC8E00200A630020888B002070B52D4CB1
:1097D0002378E3B96378002B30D1A37803B970BD47
:1097E000294E1DF093F8B368C01AC728F7D9274D42
:1097F0001DF08CF8AB78B0600226002B34D140F21B
:10980000FF31032020F0E6FB0123AB7070BD1E4E3C
:109810001DF07CF83368C01AC728DBD91B4D1DF03A
:1098200075F82B78306053BB40F2FF31082020F0F0
:10983000D1FB01232B706378002BCED0124E1DF08C
:1098400065F87368C01AC728C7D9104D1DF05EF8B7
:109850006B7870603BB940F2FF310A2020F0BAFB10
:1098600001236B70B9E70126094B0021985D20F0B8
:10987000B1FBA35D0022013BA355AA5570BD002694
:10988000F2E700BFB48C0020488B00205068002015
:10989000AC9705002DE9F8432C4D2D4F2D4C2E4E45
:1098A000DFF8CC902DED068B9FED2C9ADFED2CAAE6
:1098B000DFED2C8A9FED2CAADFED2C9A05F1030831
:1098C00015F8011B012381B3D4ED007A337037EE14
:1098D000A87AF4EEC97AF1EE10FAB0EE470A2EDC5F
:1098E00084ED007A1AF072FCB7EE008A30EE088A36
:1098F00028EE0A8AFCEEC87A28EE298A17EE901A1A
:10990000387820F067FBD4ED007A37EE888A84ED52
:10991000008AA84507F1010704F1040406F10106D5
:10992000CED1BDEC068BBDE8F8833378002BF0D0A8
:109930003878317020F04EFBC4F80090E9E7B0EEC3
:109940006A8AC4F800900021DAE700BFB88D0020D1
:10995000AC97050078610020548B00200AD72F4176
:109960000AD7232F0AD7A33B00C0FF430A00A4361F
:10997000B4C89640000000003F4B404A1B68126884
:1099800070B53F4D06010446A3EB8200AB5920EAB7
:10999000E07005EB0412B0EB830F526882B04FEA1F
:1099A000830159D2084692004FF48063009300234C
:1099B0001CF09AFF334A125D012A034651D0022A55
:1099C0002CD0314ADFED316A12F8140002EB440268
:1099D00007EE900A5278101A03FB00F3B8EEE77A0C
:1099E00007EE903AF8EEE77A294BA7EEA67A3544CF
:1099F00003EB8403012CF0EE477ABCEEC77AC3ED8B
:109A0000007A17EE102A85ED037A05D1214B12F06A
:109A1000FF0214BF1A701C7002B070BD0028D0D0B5
:109A200025F036FC41EC100B1AF01AFC10A3D3E918
:109A3000002351EC100B25F095FC25F08BFF07EE71
:109A4000900A9FED157A67EEA77A67EE877AFDEEAA
:109A5000E77A17EE903AB4E79200904228BF10469A
:109A6000A2E700FB00F003FB00F31B15A9E700BF12
:109A7000FE822B654715F73F548E002010630020AF
:109A80005C620020CC8C0020C06200200000803A84
:109A90001C8D0020776300200AD723412DE9F04177
:109AA000DFF83C8006460F46D8F800004FF0FF3143
:109AB0001D4614461DF082FC3A4631460720FCF74D
:109AC00069FC2A4621460720FCF764FC0023D8F8ED
:109AD00000001A46BDE8F04119461DF047B800BF26
:109AE0002C8D0020F8B504460E461CF00FFF2E4BBF
:109AF0001B78002B36D00546E4B12C4F3B78002B69
:109B000031D12B4B2B4C186001223A70BEB1217819
:109B1000002945D01B68EB1A192B10D9264B196860
:109B20007322CBB27220C1F3C711FFF7B7FF002336
:109B30003B7004E00EBB1D4F3B785BBB1D4C237894
:109B400083B11E4B1868281A19280BD91C4B1968A9
:109B50007622C1F3C713742001F07F01FFF79EFF47
:109B600000232370F8BDAEB1124C237883B9134A99
:109B70000F4B106001222270CCE70E4C0B4F237864
:109B80003A7853B90D49012308602370002AE9D0BF
:109B9000074BBFE7064B074CBCE7002AD1D0F7E7DD
:109BA000064922700860B5E7BC8C0020A08A00201E
:109BB000A48A0020A18A0020048D0020A88A002009
:109BC000DC8D00202DE9F041904C10290D462478C1
:109BD00028BF1025012D38BF0125012C82B000F0CF
:109BE000F00002F07F0703F07F062ED0002C70D12A
:109BF000874BA0281C785BD00FD8802847D09028AE
:109C000008D101460095834833463A46FCF76AFB83
:109C1000022C34D102B0BDE8F081B02800F0A6805B
:109C2000E028F7D107EBC612A2F5005212B202F5F6
:109C3000005601460095774802F07F02C6F3C7132D
:109C4000FCF750FB022CE5D067E0734BA0281B68A3
:109C500000F082800DD9B02869D0E028DAD107EB76
:109C6000C612A2F5005212B2002B4BD002F50056DC
:109C700053E0802800F0BE809028CBD18BB367489A
:109C8000009533463A469021FCF758FBC2E701465F
:109C90000095604833463A46FCF724FB022CB9D0C5
:109CA0005E48009533463A468021FCF747FBB1E712
:109CB00001460095574833463A46FCF713FB022C01
:109CC000A8D05648009533463A46A021FCF736FB0B
:109CD000A0E7A02842D00CD8802800F08E809028E1
:109CE00098D1014600954B4833463A46FCF7FAFABC
:109CF000C5E7B02826D0E0288CD107EBC612A2F524
:109D0000005212B202F500564248009502F07F025E
:109D1000C6F3C713E021FCF7E5FA40480095C6F307
:109D2000C71306F07F02E021FCF708FB72E7072962
:109D300029D04BB13948009533463A46B021FCF75B
:109D4000FDFA67E707292AD00146009531483346D6
:109D50003A46FCF7C7FAEDE7002BB2D10146009571
:109D60002C4833463A46FCF7BDFAAAE707292BD020
:109D70002848009533463A46B021FCF7B3FA022C46
:109D80003FF448AFD6E7652FD3D9DFF89480B3B15D
:109D900098F8003013F0FD0F7FF43CAFCAE7652F51
:109DA000D2D9DFF87C8098F80030012BF0D801463A
:109DB0000095184833463A46FCF794FAE8E798F8D5
:109DC0000030012BF3D9E3E7652FD1D9DFF85080BC
:109DD00098F80030012B03D9022C3FF41BAFD7E7D2
:109DE000014600950B4833463A46FCF77BFA022CB5
:109DF000CED10FE7002B7FF453AF01460095054805
:109E000033463A46FCF76EFA4AE700BF706100201D
:109E10006469002054680020C08C0020386700204E
:109E2000BD8C0020000000002DE9F04F2DED068BC9
:109E30009FB015AB0CAA03A9CF48DFF8C0B3DFF879
:109E4000C083CE4FCE4ECF4DCF4C12F0D3FFCF4B71
:109E5000DDED137A93ED001ACD4BCE49CE4AC3ED1A
:109E6000007ACE4BD2ED000AD1ED006A9DED110AC9
:109E70009DED127ACA4ACB49DB6882ED000ADDED1E
:109E8000081A9DED092ADDED0A2AC74A81ED007AFC
:109E900030EE660A77EE600A37EEC11A1A998BED3A
:109EA000000ADB01C8ED000A87ED001AC6ED001AB2
:109EB00085ED002AC4ED002A116004D5BB4B1A6859
:109EC000D00700F152821DF08FFFB94B9BED000AC5
:109ED000D8ED000A97ED001AD6ED001A95ED002A8C
:109EE000D4ED002AA0FB0301830A43EA815307EE65
:109EF000103AB04C9FEDB06AD4ED0F7ADFEDAF8A27
:109F0000DFEDAF6AB8EE477A204677EE677A84EDE8
:109F10000E7A67EE867A84ED0F7AF4EEE87AF1EE47
:109F200010FA98BFF0EE678AF4EEE68AF1EE10FAC6
:109F3000B8BFF0EE668AB0EE683AC4ED107A13F05E
:109F400047FF94F82830002B00F027829D4D236BAB
:109F50002B60DFF8B0A2D4F82C90CAF800909A4B8E
:109F6000D4ED0D7A93ED007A984B37EE877AC3EDF6
:109F7000007A17EE100A17EE104A25F09BF978A325
:109F8000D3E9002306460F4625F07CFC002800F0AC
:109F9000F18175A3D3E900233046394625F02AF82C
:109FA00025F0D8FC8A4B019304461860484625F0FA
:109FB00081F96BA3D3E9002325F01EF825F0CAFC34
:109FC000814625F077F966A3D3E9002306460F46BC
:109FD00025F058FC48B164A3D3E900233046394644
:109FE00025F008F825F0B6FC8146286880F000408E
:109FF00025F060F95EA3D3E9002325F0B3F925F03D
:10A00000A9FC09EE900A89F00040C5ED009A25F000
:10A0100051F957A3D3E9002325F0A4F925F09AFCC0
:10A0200009EE100A84F000408AED009A25F042F90A
:10A030004FA3D3E9002325F095F925F08BFC654B60
:10A0400001991A680860D1070AEE100A624C40F1C3
:10A050009D8194ED008A614E614F96ED007AD7EDB7
:10A06000007A39EEC77A7AEE677AB5EEC07AF1EE09
:10A0700010FAF5EEC07A4CBF01220022F1EE10FA80
:10A080004CBF012300239A42B5EEC09A00F0118123
:10A09000F1EE10FA40F31181B0EEC99AD8F8000041
:10A0A00025F008F932A3D3E9002325F05BF98046B7
:10A0B00018EE900A894625F0FDF802460B46404608
:10A0C000494625F04FF9804618EE100A894625F0DA
:10A0D000F1F802460B464046494624F08DFF25F034
:10A0E00039FC08EE100AF5EEC09AF1EE10FAB5EE62
:10A0F000C08A4CBF01220022F1EE10FA4CBF0123AE
:10A1000000239A4287ED00AAC6ED009A206000F075
:10A110002981DFED347A68EE277A9FED337A334B6D
:10A12000B4EEC79AF1EE10FAADBF002238EE678A9E
:10A13000C3ED007A1A602E4B2E4A1B7884ED008AFC
:10A1400003EBC30302EBC30385ED008A93F82030D1
:10A15000002B00F00281284C2378002B63D053E0C1
:10A16000182D4454FB210940182D4454FB2119405B
:10A17000F8C1631ADCA54C40588E0020F88C0020F2
:10A180007C8B0020808B0020848B0020FC8C0020A6
:10A19000C88D0020EC8C0020F48C0020F0ED00E055
:10A1A000C08D0020C48D00204C680020001000E00D
:10A1B00040420F00E88D0020BD3786350AD7233C8A
:10A1C0006F12833AD08D0020A08F0020C48C002015
:10A1D0009C8F00207C6A00206C8B0020688B002004
:10A1E000648B0020CDCCCC3C0000AA42588B0020D0
:10A1F000308D002098600020578B0020E88C0020D4
:10A20000F08C0020588D00200133DBB2052B237029
:10A2100009D900210A201FF0DDFE002103201FF0D4
:10A22000D9FE00232370DBED007AB6EE007AF4EE5F
:10A23000C77AF1EE10FA63DD794E7A4D96ED007A29
:10A24000F4EEC77A0123F1EE10FA2B7000F3CC8004
:10A25000B5EEC07AF1EE10FA40F3CB80DFED726A12
:10A2600037EE667A86ED007AB5EEC07AF1EE10FA36
:10A2700040F2BF80F5EEC07AF1EE10FA6DD5DFED59
:10A280006B7AB4EEE77AF1EE10FA00F2B980F7EEED
:10A29000007A37EE277AF2EE087A27EE277AFCEE7C
:10A2A000C77ACDED017A9DF804304FEAC3085F000C
:10A2B0003AE0F1EE10FA7FF6EFAEDFED5D7AB0EE48
:10A2C000C99AB4EEE79AF1EE10FABFF6E7AEB5EE32
:10A2D000C08AF1EE10FAF5EEC09A4CBF01220022BE
:10A2E000F1EE10FA4CBF012300239A4287ED00AA39
:10A2F000C6ED009A7FF40DAF4E4B00221A601AE7AC
:10A30000F5EEC07AF1EE10FA27D5464D2B7823B33F
:10A31000434E96ED007AB5EEC07AF1EE10FAAEDA61
:10A3200018274FF060080C23434A444912780978F3
:10A330009020FFF747FC41460A201FF04BFE3946AC
:10A3400003201FF047FE3E4A3E4B12681A60002170
:10A3500001220023316022702B701FB0BDEC068BF0
:10A36000BDE8F08FDFED387AD7E65B689B0907EE32
:10A37000103ABEE526A3D3E900233046394625F03E
:10A3800063FA48BB314B01931C600FE60122B0EE2B
:10A39000698AC4ED009A1A605DE6204613F0DAFC83
:10A3A0002B4D94F82830226B2A60002B7FF4D1AD1E
:10A3B000204613F0CFFCDFF89CA094F82830D4F8A6
:10A3C0002C90CAF80090002B7FF4C9AD204613F002
:10A3D000C1FCDAF80090C2E50FA3D3E900233046B0
:10A3E000394624F009FEDBE5C6ED007AB0EE677A67
:10A3F0003AE700232B701FB0BDEC068BBDE8F08F51
:10A40000FC274FF47C787E238EE700BFAFF30080FB
:10A41000182D4454FB2109C0182D4454FB21194028
:10A42000608B00205C8B00203333333FAE471941F3
:10A430000000AA42588B0020A48F0020AC620020AC
:10A440006C8D00208C8D0020000000009C8F00206F
:10A45000D08D0020588D0020354A364938B5D2E9D4
:10A460000035D2E902042B440344D2E90405234415
:10A470000344D2E906402B44126A0978234403447A
:10A48000134429B12C4A2D481278825C032A27D024
:10A490002B4C2C4A2C4D12682C482D680068C3F5B3
:10A4A00000531A442A44121817D4B2F5804FA8BF9B
:10A4B00043F6FF722260264D2B68934200D001B90B
:10A4C00038BD2449C2F3C713097802F07F02E020A7
:10A4D000FFF778FB23682B6038BD00222260EAE793
:10A4E0001D4C1E4A1E4894F90050127804781D48ED
:10A4F000521B121B07EE902A90ED007A1A4A104C5C
:10A500001078F8EEE77A67EE877AFDEEE77A17EED5
:10A51000905A2B44236020B1144D00202B60107002
:10A52000B7E712480268036013445B10B1E700BF4D
:10A53000346200204F8D0020308D0020CC6200203E
:10A54000C8620020DC8C00204C8E0020486800206F
:10A5500074610020AC620020508E0020488D0020E5
:10A56000BC620020D062002009630020188B00200C
:10A57000F8B5294D294C2A78C2EBC201C1EBC100C4
:10A58000D300265C36B1264800EB4101497800290A
:10A590003BD00026234C134404EBC30393F845201F
:10A5A00012B993F846205AB3FEF7F8FA01261E4B6B
:10A5B0001F7897B1FEF74EFF3E46FDF733FB2B7831
:10A5C00003EBC30304EBC3031A7E12B993F82120F3
:10A5D0005AB1BDE8F840FFF73FBF144B1B78022B80
:10A5E000EBD0FEF7A9FE0126E7E793F82220002A28
:10A5F000EFD193F82330002BEBD1002EE9D1F8BD39
:10A6000093F84730002BD2D0CEE7FEF74BF92A78EB
:10A610000126D300BEE700BF308D0020046000207B
:10A620002063002098600020D08C00205C8D0020EA
:10A630002DE9F047354E364A337803EB43010A449F
:10A64000125CEAB100EB80094FF03208314F08FB91
:10A6500003920446BD5C012D07EB02014FEA800A1C
:10A660001CD0052D0ED0062D2CD12B4991F90020A0
:10A67000033205DB2948C25C013A52B2C2540A7067
:10A68000BDE8F087244991F90020022AF8DC23482C
:10A69000C25C013252B2C2540A70F1E74A780AB37E
:10A6A000012AEDD154444FF0320A0AFB03433B44E4
:10A6B0001A79D9789878FBF76DFE33780AFB034452
:10A6C0003D5DCEE70A2D05D1154A1378013313708D
:10A6D000BDE8F0870B2DD3D1114A1378013B1370DD
:10A6E000BDE8F0870B79CA7889789020FFF76AFA7D
:10A6F00033780C4A08FB0398155517F80850012DBC
:10A70000B844AED198F80120CAE700BF308D0020D0
:10A71000348D00208C610020508D0020548D00204D
:10A72000498D0020408D0020114B12481B78124AA1
:10A73000C3EBC303C3EBC30318440121837A117035
:10A740008B4203D0022B0DD033B17047437B027B89
:10A75000C17A8020FFF736BA437B027BC17A902012
:10A76000FFF730BA427B017BC07AFBF713BE00BF14
:10A77000308D002004600020D88C0020114B12483E
:10A780001B78124AC3EBC303C3EBC3031844002175
:10A79000837B1170012B03D0022B0DD033B1704796
:10A7A000437C027CC17B8020FFF70CBA437C027C97
:10A7B000C17B9020FFF706BA427C017CC07BFBF78F
:10A7C000E9BD00BF308D002004600020D88C00203F
:10A7D000914B2DE9F0471B8843F480735A1C1A42B1
:10A7E00082B06CD000210A4613F0010F08BF114659
:10A7F0005B1002F10102F7D101F13E04E4B2462CF4
:10A8000028BF46243C3C854D854A2B78C3EBC303C7
:10A81000C3EBC30313449A7C032A3DD0DFF84C8278
:10A82000D8F800307F4A8049804F91F800C0D2F8B4
:10A8300000905168D7F800E07D487E4E04FB0C1470
:10A840005FFA8EF299450460327016DB7A4B012173
:10A85000002031700A4618702B7878483960C3EBB5
:10A86000C30300EB43035B7923B1754C2378012BC1
:10A8700027D0227002B0BDE8F08709F101019942AA
:10A8800008DA7049BEF1010F097804BF0222327064
:10A8900001292DD01146DFE76B4A1278CAB9197D1C
:10A8A000DA7CDFF8C88142EAC112D8F800300532FC
:10A8B0009A42B7DAFFF738FFD8F80030B2E70A2437
:10A8C000A1E7012AD5D01CF021F8604B327818603E
:10A8D000CFE7DFF89881197DDA7CD8F8003042EABA
:10A8E000C1129A429EDDFFF749FFD8F8003099E780
:10A8F0005749087800283DD0A4EB090100FB01F17D
:10A90000DFF86CC101EB41008CFB00A98CFB01ACB2
:10A91000C017C917A0EBE910C1EBEC1121440444A6
:10A920004C48DFF8509101609942C9F8004013DBB0
:10A930009C4221DB0222BEF1010F327028D0BEF111
:10A94000030FA7D11BF0E2FF434B1B68C01A14286A
:10A9500052D8327811467FE7374B00210322BEF1EF
:10A96000010F1970327095D0BEF1030F92D172466B
:10A97000114671E72146D3E7BEF1010F06D0BEF1C3
:10A98000030F87D1022ADDD0114665E7022A81D163
:10A99000294C01931BF0BAFF94F800C0019BBCF155
:10A9A000000F15D12D4A2E49D2F800E008602D4A3B
:10A9B0002D49C2F800C00120C1F800C02070BEF1CE
:10A9C000000F25D1022100230A462370327043E78D
:10A9D0002349224A09681268401A9042F2D2214A59
:10A9E0001168A1B1204A116813605B1A002BE9DDE0
:10A9F0003A78327011462FE7D9F80020D8F80010C5
:10AA00000120FDF707FF02463070014624E7164992
:10AA10000B6001201060EBE7048D0020308D0020DA
:10AA20000460002010630020BB620020C88C00205E
:10AA3000706300203D8D0020008D002020630020E9
:10AA40000863002084610020D88C0020688F0020DB
:10AA500030620020308F0020E08C00209C620020BB
:10AA6000348B0020BC8D0020B08D0020DC8D0020B8
:10AA70001F85EB51348F00202DE9F8431BF046FF72
:10AA80008D4D8E4A2B6811689942044600F09180E2
:10AA9000DFF860828A4F8B4E98F800101360012215
:10AAA00038603270002933D1874B1960874B884F4B
:10AAB0004FF00108002483F8008034701BF026FF5B
:10AAC000844B024628681A60FDF764FD2146034660
:10AAD00040463B70FFF706F83E787F2E67D07E4FEA
:10AAE0003B78B34263D07D4B1B78022B0BD07C4B61
:10AAF0002A681A607B482422214625F0D3F97A4B34
:10AB0000C3E900441C723E70BDE8F843FFF760BE25
:10AB100099461BF0FBFE754A754B12781968286838
:10AB20008A4203DAC10758BF49F0010959688A42CD
:10AB300003DA810758BF49F0020999688A4203DAAB
:10AB4000410758BF49F00409D9688A4203DA01076E
:10AB500058BF49F0080919698A4203DAC10658BF8B
:10AB600049F0100959698A4203DA810658BF49F051
:10AB7000200999698A4203DA410658BF49F0400921
:10AB8000D9698A4203DA010658BF49F080091B6A75
:10AB90009A4203DAC30558BF49F4807948451BD16E
:10ABA000494B327800211960002A7FF47FAFBDE85D
:10ABB000F883DFF81491424FD9F800303868241A2E
:10ABC000002B72D09C4219D33E4E32780023C9F834
:10ABD0000030002AEBD069E7FDF7DCFC034648466D
:10ABE0009946FDF7D7FC7F28DAD08145D8D0DFF829
:10ABF000D89098F80030C9F80030DFE72E681BF0D5
:10AC000085FE3A4A3A4B1278196828688A4203DA74
:10AC1000C70758BF46F001065968914203DD810716
:10AC200058BF46F0020699688A4203DA470758BFC0
:10AC300046F00406D9688A4203DA010758BF46F095
:10AC4000080619698A4203DAC70658BF46F010069B
:10AC500059698A4203DA810658BF46F0200699698D
:10AC60008A4203DA470658BF46F04006D9698A424D
:10AC700003DA010658BF46F080061B6A9A4203DADF
:10AC8000C30558BF46F48076B0429DD0FDF782FCE4
:10AC9000034630461E46FDF77DFC7F2894D0864251
:10ACA00092D0D9F800309C4281D3064E3278002AE7
:10ACB0003FF47DAFFAE600BF048D0020FC62002067
:10ACC000388B00203C8B0020288F00202862002039
:10ACD0004A630020E08C0020BC6200205C8D0020D4
:10ACE000088D002034620020608D00200A6300205F
:10ACF000DC8E0020248F0020102928BF102101297C
:10AD000000F0F00038BF0121C0282DE9F04102F029
:10AD10007F0535D0D0280BD1234E3378012B09D1B4
:10AD2000224B1B6833B1013961F02F04E4B218E003
:10AD3000BDE8F0811E4F7B6D0139186861F02F046A
:10AD40000368E4B21B68214698477B6D1868036866
:10AD500029461B68984733781BB9164B1B78022B82
:10AD6000E6D0154E736D1868036821461B69984735
:10AD7000736D1868036829461B69BDE8F0411847E0
:10AD8000094E3378012B07D1084B1B6823B10139D9
:10AD900061F03F04E4B2E4E7054F7B6D01391868C8
:10ADA00061F03F04CCE700BF70610020C08C002040
:10ADB0005468002064690020386700202DE9F04FB6
:10ADC0006F4F704E97F800B0CBEBCB03C3EBC303D0
:10ADD000334485B09B78012B80464FEACB0400F0CA
:10ADE0008680DFF8D891A4EB0B0309EB43039B7932
:10ADF000DA0755D5644A92ED020AB5EEC00AF1EEC3
:10AE000010FA04DD614AD2ED007A30EE270A9FED98
:10AE1000607ADFED607A0093B4EEC70AF1EE10FAC3
:10AE200088BFB0EE470AB4EEE70AF1EE10FAB8BFF9
:10AE3000B0EE670A03A8CDED037A19F095F9564AEA
:10AE4000009B1278F0EE407AFEEEEC7ACDED017ABE
:10AE5000002A45D0DDED037AFDEEE77A17EE905A31
:10AE600085F30705DFF858A1DAF80020A4EB0B04FE
:10AE7000AA42C4EBC40468D0344494F82F30002BA9
:10AE80005AD1464C2178EAB2D020FFF735FF3B7803
:10AE9000CAF80050C3EBC30309EB430999F8063025
:10AEA0009B071AD53C4B1B78BBB13D4BDC6B002C90
:10AEB00048D123463B4D1C442B6884F307049C4235
:10AEC00002D1B8F1000F08D0344B374A1978127804
:10AED000E3B2A020FEF776FE2C6005B0BDE8F08F4F
:10AEE000324909686429B5DC01921546BAE72C4B52
:10AEF000DD68F5B92B46DFF8CC901D44D9F8003059
:10AF000085F30705AB4203D1B8F1000F3FF469AFF9
:10AF1000A4EB0B04C4EBC4043444EAB26179207995
:10AF2000FBF738FA97F800B0C9F800504FEACB04A5
:10AF300057E71F4B1B68DEE7AA1A0F321E2AA0D85C
:10AF40001C4E0BE01C4B1B68B4E7264496F82F20E0
:10AF500072B1184E019932688A420DD00F4C9DF89B
:10AF6000042020785721FBF715FA019B336089E70D
:10AF7000B8F1000F94D084E7B8F1000FEED18FE75D
:10AF8000308D0020046000201C8D0020448E0020A5
:10AF90000000FE42000000004F8D0020AC62002047
:10AFA0005C620020A88D0020488D0020DC8D0020F0
:10AFB000408E0020A08D0020488E002020630020BD
:10AFC0009C8D0020988D00202DE9F04FB94DBA4C92
:10AFD0002B78BA4EC3EBC30204EB4202307892796D
:10AFE000002A83B014BF4FF003094FF01009DA00B4
:10AFF00000283BD0B249DFF8ECC2C95CB14F03294D
:10B00000B149097800F0E9809CF900E097F800C0A8
:10B01000A1EB0E018C4502D0BCF1000F2AD1DFF864
:10B02000E88298F80030012B00F0A1803A78002ADD
:10B0300000F0AB802B78C3EBC30104EB41046178D3
:10B04000002940F09D80A149CB5C032B00F0858155
:10B050009F4B1B78032B06D09E4B1A6840F2FF13C0
:10B060009A4200F0928003B0BDE8F08F954F397896
:10B070000029F8D0DFF8908298F800100129A2EB9F
:10B08000030104EB4101497840F2BE80002940F001
:10B09000BD80D11A04EB41014979002900F0DB8021
:10B0A000002800F0CE80DFF820A29AF8001001916D
:10B0B000D11A04EB410191F809B0BBF1000F00F087
:10B0C00055818549DFF8349200914FF0010B834997
:10B0D0000978002900F0A28081490968002900F060
:10B0E0009D808049387891F800C0D31A04EB43035F
:10B0F00000EB0C02187ADFF814C20123D2B28AF8EE
:10B1000000208CF800303370002840F01E81764B10
:10B1100000991B7809789020FEF754FDBBF1000FD1
:10B1200040F00B811BF0F2FBDFF8E4A1CAF800004D
:10B130001BF0ECFB2B786D4ADAF800101160C3EBC2
:10B14000C303C3EBC3039944DFF8C8C199F81230B5
:10B15000674A3978CCF80000022B117000F0E580C6
:10B16000307800287FF45DAF03B0BDE8F08F2B7816
:10B17000C3EBC30204EB4204627832B13A7822B1E5
:10B180005C49097800297FF45EAF534B4E4A197829
:10B19000127840238020FEF715FD2A78564902EBED
:10B1A000C20301EBC301D300C97D012900F0B680C1
:10B1B0009B1A524AC3EBC303134400229B7C327098
:10B1C000022B7FF450AF4E4B1B78002B3FF44BAF5C
:10B1D00003B0BDE8F04FFFF7D1BA9CF9008097F8B3
:10B1E00000C0DFF834E1A1EB0801ACEB010100295C
:10B1F0009EF800E0B8BF49428E453FF710AFBCF162
:10B20000000F7FF437AF0AE70029AAD0394909783F
:10B2100000297FF43EAF0028A6D002E7D11AC1EB87
:10B22000C10048448078012805D004EB41018879A9
:10B23000002800F096800120FFF7C0FD2B78DA008F
:10B240004FE71BF063FB2F4B1B68C01A484587D3A1
:10B250002B783078DA00DFF870A09AF800100191AE
:10B2600000287FF425AFDFF89490D11AC1EBC1011B
:10B2700049448978002940F09D80D11A04EB4101AE
:10B280004979002940F09080D11A04EB4101897975
:10B29000C8077ED4890776D4DFF85CB0D1180BEBF1
:10B2A000C101C97D012900F08A800B4900914FF04E
:10B2B000000B0CE7308D0020206300204F8D002014
:10B2C000CC620020BC620020488D0020B8620020C3
:10B2D00084610020048D0020AC6200207061002099
:10B2E000C08C0020508E0020776300208C8D0020C1
:10B2F00000630020888D00209860002004600020FA
:10B30000D88C0020688F00203D8D0020096300202C
:10B310006C8D0020448D0020AD6200201BF0F6FAF9
:10B320002A783B49D300086042E73A4B1B78002B50
:10B330007FF416AFFFF7F8F912E7DDE9003280205D
:10B3400019784023FEF73EFCECE6FFF711F932498D
:10B350003A780B781A44D2B2D9E63F2A7FF478AE15
:10B3600013E7497901297FF4BCAE64E72B4B019ABE
:10B370001978009380204023FEF724FC2B78DFF817
:10B38000A890DA00A3E60320FEF7F6FA2B78DA009D
:10B3900082E70220FEF7F0FA2B78C3EBC30104EB3F
:10B3A0004101DA00897975E70120FEF7E5FA2B788B
:10B3B000DA0069E7FEF7E0FA2B78DA005DE71BF0C8
:10B3C000A5FA2B78124A03EBC3010BEBC10BD2F8A1
:10B3D00000C09BF81920C2EB421102EB8101A0EBE7
:10B3E0000C00B0EB410F4FEAC3020CD90C480D49D9
:10B3F000D0ED007A09480090F1EE677AC1ED007A4D
:10B400004FF0000B63E6054900914FF0000B5EE63C
:10B41000C48B0020D88C0020508E0020AC6200200D
:10B42000C48C0020A08F00200460002000000000D9
:10B430002DE9F041C44DC5492B7803EBC30201EB64
:10B44000C20182B091F82200DA0018B991F8230005
:10B4500000282DD0BE4CBF4E2768BF48D11AC1EB83
:10B46000C10101448978002940F0D080BB4FD11A36
:10B4700007EB41014979002940F0C280D31A07EB5C
:10B4800043039B79D80777D4990733D40020FFF77B
:10B4900095FC23683360B24B1A68D20717D4B149C0
:10B4A000B14A0968116001221A6002B0BDE8F0815A
:10B4B00091F821100029CDD1A54CA64E27683168FE
:10B4C000C91B0029B8BF49420129C6DCE3E7A64CE5
:10B4D000A44D23682A689B1A002BB8BF5B42022B3D
:10B4E000E3DD01210020FEF7FDFA2B68236002B0A6
:10B4F000BDE8F0819D4BDFF88C821B682068D8F88E
:10B500003420A0EB8300D8F8303020EAE070B0EBB4
:10B51000830F4FEA8301C0F0BF809200904228BFA2
:10B5200010464FF48063009300231BF0DDF9904B2D
:10B53000DA78012A034600F0BE80022A00F0C180BA
:10B540008C49DFED8D6A8A79C8798C49801A03FBB2
:10B5500000F307EE903A07EE102AF8EEE77AB8EE1D
:10B56000C77AA7EEA67AF0EE477ABCEEC77AC1EDAD
:10B57000037A88ED0F7A89E77C4BDFF808821B6835
:10B580002068D8F82420A0EB8300D8F8203020EAE7
:10B59000E070B0EB830F4FEA83017AD392009042C0
:10B5A00028BF10464FF48063009300231BF09CF9E2
:10B5B0006F4B9A78012A034677D0022A00F0E48084
:10B5C0006C49DFED6D6A0A7948792978801A03FBA6
:10B5D00000F307EE903A07EE102AF8EEE77AB8EE9D
:10B5E000C77AC1EBC101A7EEA67A644A07EB41070F
:10B5F000FCEEC77ABB7982ED027AC8ED0B7A43E79D
:10B600000120FEF7B9F92B78DA0037E7574BDFF85E
:10B6100074811868D8F80030D8F80420A7EB8000AF
:10B6200020EAE070B0EB830F4FEA83012ED3920043
:10B63000904228BF10464FF48063009300231BF014
:10B6400053F94B4B1A78012A034628D0022A57D0C7
:10B650004849DFED496A0A784878484F801A03FB69
:10B6600000F307EE903A07EE102AF8EEE77AB8EE0C
:10B67000C77A2B78A7EEA67ADA00F0EE477ABCEE0E
:10B68000C77AC7ED007A88ED037AEFE608469200A4
:10B69000D1E70846920085E70846920041E700FBA3
:10B6A00000F003FB00F31B15D2E700FB00F003FBE7
:10B6B00000F31B1584E700FB00F003FB00F31B15F0
:10B6C0003EE700283FF43CAF23F0E2FD41EC100BD5
:10B6D00018F0C6FD1AA3D3E9002351EC100B23F098
:10B6E00041FE24F037F907EE900A9FED257A67EEC8
:10B6F000A77A67EE877AFDEEE77A17EE903A1FE7B2
:10B700000028A5D023F0C4FD41EC100B18F0A8FDD3
:10B710000BA3D3E9002351EC100B23F023FE24F0FC
:10B7200019F907EE900A9FED167A67EEA77A67EE91
:10B73000877AFDEEE77A17EE903A89E7AFF300805B
:10B74000FE822B654715F73F308D00209860002062
:10B75000548E0020AC8D0020046000202063002067
:10B76000786A0020DC8D0020448B002010630020CC
:10B77000CC8C0020C06200200000803A1C8D00208C
:10B780000AD723415C62002000283FF419AF23F060
:10B790007FFD41EC100B18F063FD0CA3D3E90023EF
:10B7A00051EC100B23F0DEFD24F0D4F807EE900AE4
:10B7B0009FED057A67EEA77A67EE877AFDEEE77A66
:10B7C00017EE903AFCE600BF0AD72341FE822B65B4
:10B7D0004715F73F036810B504460BB1743098471E
:10B7E00094F87530803B7F2B43D8DFE803F0494263
:10B7F0004242424242424242424242424242554216
:10B800004242424242424242424242424242594201
:10B8100042424242424242424242424242425D42ED
:10B8200042424242424242424242424242426142D9
:10B8300042424242424242424242424242426B42BF
:10B8400042424242424242424242424242426F42AB
:10B850004242424242424242424242424242839039
:10B8600098A842424342ACB0B4B8BC42C040236D39
:10B870001BB910BD636B002BFBD0BDE8104018470F
:10B88000A368002BF5D094F8772094F8761094F8FC
:10B890007400BDE810401847E368002BF3D1E8E7D7
:10B8A0002369002BEFD1E4E76369002BEBD1E0E7DC
:10B8B000A369002BDDD094F8761094F87400BDE8ED
:10B8C00010401847E369002BF5D1D2E7226A002A1D
:10B8D000CFD094F8771094F8763094F87400C901BA
:10B8E00001F47E5103F07F031943BDE81040A1F538
:10B8F00000511047636A002BBBD0B4F87610802942
:10B9000004F1780028BF8021BDE810401847A36AE1
:10B91000002BAED094F87600BDE810401847E26ADC
:10B92000002AA6D094F8773094F87600DB0103F46F
:10B930007E5300F07F00BDE8104018431047236B92
:10B94000002BE7D195E7A36B002B96D191E7236CF1
:10B95000002B92D18DE7E36B002B8ED189E7636CCE
:10B96000002B8AD185E7A36C002B86D181E7E36C9D
:10B97000002B82D17DE700BF38B5436D04461868BF
:10B980000368DB689847002845D094F80D31626D54
:10B9900023F0010384F80D31106803681B69984790
:10B9A000C3B2FD2B37D0626EBABB94F9591094F82C
:10B9B000592084F85B30002918DA02F10C01C9B271
:10B9C000012913D9FD2A11D0EF2A94BF02F0F0010A
:10B9D000114601F0CF05802D00F09C80D02900F0A9
:10B9E000998001F0DF01C02900F0948040B2002866
:10B9F000C0F2788294F90D01636840F0010084F888
:10BA00000D0103B19847002084F85900C4E91800DB
:10BA100038BD01326266002038BD010653D494F867
:10BA20005B10F02900F09681F72900F09381A118AE
:10BA300081F85B30216E4B1E9A42EAD394F85B305A
:10BA4000F02B00F09881F72B00F095811A0640F159
:10BA5000FE81F42B00F0FB81F52B00F02682FD2BFC
:10BA600000F0F581EF2B94BF03F0F0021A46802A14
:10BA700084F8752006D0902A04D0B02A02D0A02ADB
:10BA800040F0278203F00F0094F85C5084F8765061
:10BA90000130032984F8740000F0048200210020A2
:10BAA0000125B02AC4E9180084F8771084F8F8500A
:10BAB00005D0B02A40F2E381E02A40F0DA8184F830
:10BAC0005930012038BDA3F1F0010F29A7D801A0FA
:10BAD00050F821F0A9BD02001FBA02001FBA0200EF
