:020000022000DC
:1060000000000420458F0400858F0400878F040062
:10601000898F04008B8F04008D8F04000000000026
:10602000000000000000000000000000C18E04001D
:10603000918F040000000000E18E0400958F0400A1
:1060400099910400978F0400978F04008DC7030077
:10605000978F0400978F040085680400978F0400D1
:10606000978F0400978F0400978F0400978F040088
:10607000978F0400978F0400978F0400978F040078
:10608000978F0400118C0400978F0400978F0400F1
:10609000978F0400978F040081560300978F0400A8
:1060A000978F0400978F0400978F0400978F040048
:1060B000978F0400978F040000000000000000008C
:1060C000978F0400978F0400978F0400AD9604000B
:1060D000978F0400978F0400978F04006D7D030055
:1060E000978F0400978F0400978F04000000000032
:1060F00000000000978F04000000000025970400B6
:10610000000000000000000000000000000000008F
:10611000000000000000000000000000000000007F
:10612000000000000000000000000000000000006F
:10613000000000000000000000000000000000005F
:10614000000000000000000000000000000000004F
:10615000000000000000000000000000000000003F
:10616000000000000000000000000000000000002F
:10617000000000000000000000000000000000001F
:10618000000000000000000000000000000000000F
:1061900000000000000000000000000000000000FF
:1061A00000000000000000000000000000000000EF
:1061B00000000000000000000000000000000000DF
:1061C00000000000000000000000000000000000CF
:1061D00000000000000000000000000000000000BF
:1061E00000000000000000000000000000000000AF
:1061F000000000000000000000000000000000009F
:10620000F1EE103A43F08073E1EE103A704700BFB0
:1062100010B5054C237833B9044B13B10448AFF3E0
:1062200000800123237010BD2067002000000000C3
:10623000CCC9050008B5034B1BB103490348AFF3B4
:10624000008008BD0000000024670020CCC90500C4
:10625000154B002B08BF134B9D46A3F5803A002138
:106260008B460F461348144A121A29F02BFE0F4B87
:10627000002B00D098470E4B002B00D098470020F1
:10628000002104000D000D48002802D00C48AFF397
:10629000008029F0ADFD2000290022F0ABFE29F09E
:1062A00081FD00BF00000800000004200000000085
:1062B00000000000206700207CC4002000000000D7
:1062C0000000000042DF7047704700BF704700BF0A
:1062D00010B5034B0360044616F0DAFA204610BDF1
:1062E000949C05002DE9F0419DF81840013CE4B272
:1062F0000F2C21D80D4649B200291DDA1F46436DE7
:1063000006461868036821431B68C9B2904698473F
:10631000736D1868036808F07F011B6805F0EF05CE
:106320009847C02D08D0736D1868036807F07F0187
:106330001B68BDE8F0411847BDE8F0812DE9F04148
:106340009DF81840013CE4B20F2C21D80D4649B20B
:1063500000291DDA1F46436D06461868036821436D
:106360001B69C9B290469847736D1868036808F0B6
:106370007F011B6905F0EF059847C02D08D0736DAC
:106380001868036807F07F011B69BDE8F0411847F2
:10639000BDE8F0812DE9F041344B102805461C780A
:1063A00028BF1025012D38BF0125012C82B001F036
:1063B0007F0702F07F060ED0E4B92D4B07281C782A
:1063C00034D02C48009533463A46B021FFF78AFF77
:1063D000022C0CD004E0284B07281B6834D05BB19A
:1063E0002648009533463A46B021FFF7A7FF02B092
:1063F000BDE8F081072807D01E48009533463A468D
:10640000B021FFF76FFFEBE7652FF5D9DFF870805C
:1064100098F80030012B13D81648009533463A46B9
:10642000B021FFF75FFF98F8003009E0652FC8D969
:10643000DFF84C8098F80030012B0CD9022CD6D014
:1064400013F0FD0FD3D1CBE7652FC8D9002BDDD0DA
:106450000B4B1B78F4E70748009533463A46B021CA
:10646000FFF740FF022CDED1C1E700BF74610020BE
:106470006869002058680020C48C00203C67002018
:10648000C18C002030B50E4D83B00C4601904FF00A
:10649000FF31286820F0A2FF019A68210720FFF74A
:1064A00079FF224669210720FFF774FF002328683F
:1064B0001A46194603B0BDE8304020F067BB00BF64
:1064C000308D002038B51C4B1C4A1B78002414600A
:1064D00003B938BD1A4D4FF0FF31286820F07EFF18
:1064E00048226A210720FFF755FF2246772107201F
:1064F000FFF750FF234622462146286820F046FB3E
:106500004FF0FF31286820F069FF49226A210720F7
:10651000FFF740FF224677210720FFF73BFF234686
:1065200022462868214620F031FB064B1A78022AC1
:1065300008BF1C7038BD00BFC08C0020C48C002078
:10654000308D0020C18C002070B5014688B03448E1
:106550000FF08EF80023044620226946CDE900336F
:10656000CDE90333CDE90533029307930DF0A0F98C
:1065700020460DF087F828F09BFE2A4B002228F0D9
:1065800001FF29F0AFF9284B0628CCBF274D274D36
:106590001B78CCBF044607242C6023B9244B02226D
:1065A0009A7008B070BD234E4FF0FF31306804EB95
:1065B000840420F013FF04EB840448226A2107209E
:1065C000FFF7E8FEA20002F07C0277210720FFF728
:1065D000E1FE00231A461946306820F0D7FA2B68EE
:1065E0003068642404FB03F44FF0FF3120F0F6FE22
:1065F000C4F3C71449226A210720FFF7CBFE2246C5
:1066000077210720FFF7C6FE00231A461946306897
:1066100020F0BCFA064B02229A7008B070BD00BF91
:10662000C48F00200000E43FC08C0020C48C0020F8
:10663000B88C0020308D002010B5012182B00446B6
:106640001A2023F0BDFE01211A2023F03DFF052072
:1066500020F078F94FF480730094ADF8043002AB69
:1066600013E90600134815F0F3FD00211A2023F06A
:106670002BFFAC210F4815F087FE53210D4815F074
:1066800083FE00210B4815F07FFE002104460948D7
:1066900015F07AFE00EB0421B1F5A64F06D01022CA
:1066A000054820F089F8002002B010BD012002B09A
:1066B00010BD00BF58A500204898002070B50446C2
:1066C00042F21070FFF7B8FF7A497B481FF0F0FEE6
:1066D000257805B3794978481FF08AFE10222946AB
:1066E000754820F039F8AC21754815F04DFEE021D1
:1066F000734815F049FE0021714815F045FE294602
:1067000003466F481D4615F03FFE00EB0520B0F52F
:10671000604F40F0A9806A4DF021284615F034FE04
:106720000021284615F030FE0021284615F02CFEE9
:106730000021284615F028FE10F00106ECD16578FE
:10674000002D70D15E4DF021284615F01DFE002170
:10675000284615F019FE0021284615F015FE0021E7
:10676000284615F011FE10F00106ECD1A578002D99
:106770007CD1534DF021284615F006FE0021284615
:1067800015F002FE0021284615F0FEFD00212846E6
:1067900015F0FAFD10F00106ECD1E478FCB149499E
:1067A00045481FF025FE1022214643481FF0D4FF24
:1067B000AC21434815F0E8FDA421414815F0E4FD63
:1067C00031463F4815F0E0FD214603463C481C4653
:1067D00015F0DAFD00EB0420B0F5244F44D1384D1C
:1067E000F021284615F0D0FD0021284615F0CCFDFB
:1067F0000021284615F0C8FD0021284615F0C4FDEB
:1068000010F00104ECD12C481FF0A2FE2C4815F02A
:1068100081FD21461A2023F057FE21461A2023F03D
:10682000CFFD012070BD284923481FF0E1FD102253
:10683000294621481FF090FFAC21214815F0A4FD06
:10684000A0211F4815F0A0FD31461D4815F09CFD04
:10685000294603461A481D4615F096FD00EB052013
:10686000B0F5204F3FF46EAF002070BD17491248BD
:106870001FF0BEFD102229460F481FF06DFFAC210E
:106880000F4815F081FDA8210D4815F07DFD31461A
:106890000B4815F079FD2946034609481D4615F0B9
:1068A00073FD00EB0520B0F5284F3FF462AF0020E8
:1068B000DBE700BF842D050048980020942D0500DB
:1068C00058A50020D02D0500A82D0500BC2D0500E1
:1068D000F8B5044642F210700D46FFF7ADFE4F4981
:1068E0004F481FF0E5FD2678002E56D16678002E21
:1068F00073D1A6788EBBE678FEB15021494815F0D9
:1069000043FD0821474815F03FFD0021454815F09B
:106910003BFD0021434815F037FDEB784249044622
:106920001C403F481FF064FD3D48214610221FF0E7
:1069300013FFA64201D00020F8BD39481FF008FE21
:10694000384815F0E7FC00211A2023F0BDFD002196
:106950001A2023F035FD0120F8BD5821314815F0EB
:1069600013FD08212F4815F00FFD00212D4815F0CB
:106970000BFD00212B4815F007FDAB782B4907468E
:106980001F4027481FF034FD2548394610221FF0CC
:10699000E3FEBE42AFD00020CEE75821214815F0DB
:1069A000F3FC00211F4815F0EFFC00211D4815F0F5
:1069B000EBFC00211B4815F0E7FC2B781C4907462F
:1069C0001F4017481FF014FD1548394610221FF0CC
:1069D000C3FEBE428AD00020AEE75021114815F018
:1069E000D3FC00210F4815F0CFFC00210D4815F015
:1069F000CBFC00210B4815F0C7FC0E49C7B2084874
:106A00001FF0F6FC3946064810221FF0A5FE6878F4
:106A10000740BE423FF46DAF00208DE7E42D050036
:106A20004898002058A50020282E0500182E0500A3
:106A3000F82D0500082E05002DE9F04F894685B098
:106A40005C495D4C80465D4817461FF0D1FC4946C5
:106A500010225A481FF052FE1FF068FF2368C01A28
:106A6000B0F57A7F00F299805548FFF7E5FD7B0885
:106A7000029345D0002508F10102524C01922B46A9
:106A80001E0A4021204618F815A05FFA85FB15F074
:106A90007BFC3146204615F077FC5946204615F020
:106AA00073FC51460746204615F06EFC034603EB87
:106AB0000723AB424FF0480120461AD1019B13F83F
:106AC0001530039315F060FC3146204615F05CFC50
:106AD0005946204615F058FC039B064619462046A9
:106AE00015F052FC00EB0620A84205F10105ABB2FF
:106AF00003D0002005B0BDE8F08F029A9342BFD3C7
:106B00004C21304815F040FC4FEA59054FEA592115
:106B10002C4815F039FCE9B22A4815F035FC002163
:106B20000646284815F030FC2749044623481FF044
:106B30005FFC1022294621481FF03EFE04EB06248C
:106B400022491E481FF054FC21461C481022A4B2C2
:106B50001FF0D4FDA542CCD11A4DF021284615F0E6
:106B600013FC0021284615F00FFC0021284615F0E3
:106B70000BFC0021284615F007FC10F00104ECD1B5
:106B8000104815F0C7FB21461A2023F09DFC1A205F
:106B9000214623F015FC0120ACE71FF0C7FE0C4B8B
:106BA0000C4A20600C49C3F8002604481FF020FC62
:106BB0005AE700BF382E0500746A0020489800206C
:106BC00040420F0058A50020542E0500682E0500F5
:106BD000000001403546526E482E0500014608B5BA
:106BE00004481FF0D5FC40F2FF31012023F002FAE7
:106BF000FEE700BF48980020014608B504481FF092
:106C000057FC40F2FF31012023F0F4F9FEE700BF0A
:106C10004898002010B542F2107082B0FFF70CFDCA
:106C2000AC211D4815F0B0FB80211B4815F0ACFBD2
:106C30000021194815F0A8FB00210446164815F05C
:106C4000A3FB00EB0420B0F5004F22D1124CF02141
:106C5000204615F099FB0021204615F095FB0021F8
:106C6000204615F091FB0021204615F08DFB10F019
:106C70000101ECD10848019115F04CFB01991A2053
:106C800023F022FC01991A2023F09AFB012002B084
:106C900010BD0248FFF7B0FF58A50020702E050078
:106CA000084C094908B5054620461FF0CFFB294688
:106CB000102220461FF048FD20461FF049FC0348E3
:106CC000FFF79AFF489800208C2E0500A02E0500A3
:106CD0002DE9F04780460C4617463AB1013A92B288
:106CE00018460132FF2129F0EDF8034604EB070CAA
:106CF00000224446204610F8011B0A2900F0538167
:106D00000D2900F050813A2940F0A4816578A5F161
:106D10003001C9B209290CD9A5F14101052940F278
:106D20005781A5F16101052900F28881A5F157017C
:106D3000C9B2A578A5F13000C6B2092E4FEA0110FC
:106D40000CD9A5F14101052940F23A81A5F1610173
:106D5000052900F27381A5F15706F6B2E578A5F191
:106D60003001C9B230440929C6B20CD9A5F141019C
:106D7000052940F22981A5F16101052900F25E8112
:106D8000A5F15701C9B22579A5F1300E5FFA8EFE43
:106D90000901BEF1090FC9B20ED9A5F1410EBEF12C
:106DA000050F40F21981A5F1610EBEF1050F00F249
:106DB0004581573D5FFA85FE94F8059001EB0E057D
:106DC000A9F13001EDB2C9B22E440929F6B2ADB233
:106DD0000CD9A9F14101052940F20281A9F1610113
:106DE000052900F21981A9F15701C9B294F806905A
:106DF000A9F1300E5FFA8EFE0901BEF1090FC9B28A
:106E00000FD9A9F1410EBEF1050F40F2ED80A9F1B5
:106E1000610EBEF1050F00F2FF80A9F157095FFA7C
:106E200089FE7144C9B201EB0525ADB20E4465453A
:106E3000F6B280F2ED80E579A5F13001C9B20929F9
:106E40000CD9A5F14101052940F2D680A5F16101D7
:106E5000052900F2F380A5F15701C9B2257AA5F101
:106E600030095FFA89F90901B9F1090FC9B204F1D2
:106E7000090E40F29A80A5F14109B9F1050F40F2DF
:106E8000B880A5F16109B9F1050F00F2D780573D2F
:106E9000EDB20E4455FA86F6F6B200284CD00B340B
:106EA000002534E0A9F16101052900F2B580A9F1BE
:106EB0005701C9B214F8019CA9F1300A5FFA8AFAA5
:106EC0000901BAF1090FC9B20ED9A9F1410ABAF103
:106ED000050F2CD9A9F1610ABAF1050F00F29C80C7
:106EE000A9F157095FFA89FA5144C9B202F10109BF
:106EF00099541FFA89F20E449742F6B2C0F09B8073
:106F00000135E9B2884204F102040D4614D914F89F
:106F1000029CA9F13001C9B20929A646CAD9A9F132
:106F200041010529BED8A9F13701C9B2C2E7A9F1CB
:106F300037095FFA89FAD7E79EF80040A4F13001DB
:106F4000C9B209290AD9A4F14101052958D9A4F1E6
:106F50006101052978D8A4F15701C9B29EF8014012
:106F6000A4F13000C0B209010928C9B209D9A4F1BD
:106F70004100052848D9A4F16100052864D8573C90
:106F8000E0B20E4450FA86F616F0FF0F68D19EF874
:106F900002100A290EF103045FD1BA427FF4AAAEAF
:106FA0002046BDE8F0870446A4E64944C9B20E4431
:106FB0000129F6B27FF471AF00242046BDE8F087C6
:106FC000A5F13706F6B2C9E6A5F13701C9B2DAE68E
:106FD000A5F13701C9B2ACE6373D5FFA85FEEBE6B5
:106FE000A9F13701C9B201E7A9F1370E5FFA8EFEA8
:106FF00017E7373DEDB24CE7A5F13701C9B22DE7F0
:10700000A4F13701C9B2A9E7A4F13700C0B2B8E7CB
:1070100044462046BDE8F087134914481FF016FA8D
:107020004946102211481FF08FFB10481FF090FABC
:107030000F48FFF7E1FD0F48FFF7D0FD0A490B4865
:107040001FF004FA2946ECE7074908481FF0FEF94B
:107050002146E6E70848FFF7CFFD0848FFF7CCFDDB
:107060000748FFF7C9FD00BF8C2E05004898002097
:10707000A02E0500BC2E0500B02E0500DC2E05005C
:10708000CC2E05002DE9F04F824683B0CD48CE4E80
:10709000FFF7D2FAD14619F8011B0A2900F09081B6
:1070A0000D2900F08D813A2940F0ED819AF8010018
:1070B000A0F13003DBB2092B0CD9A0F14103052B61
:1070C00040F2C481A0F16103052B00F2D281A0F14E
:1070D0005703DBB29AF80200A0F130085FFA88F299
:1070E000092A4FEA03180CD9A0F14103052B40F2FD
:1070F000A981A0F16103052B00F2BB81A0F1570229
:10710000D2B29AF80300A0F13003DBB29044092B0D
:107110005FFA88FB0CD9A0F14103052B40F28E8168
:10712000A0F16103052B00F2A481A0F15703DBB2AB
:107130009AF80400A0F13007FAB21B01092ADFB265
:107140000CD9A0F14103052B40F27481A0F1610339
:10715000052B00F28E81A0F15702D2B29AF80500F9
:107160001744A0F13003FFB2DBB2BB44092B5FFA36
:107170008BFBBAB20CD9A0F14103052B40F256812A
:10718000A0F16103052B00F27481A0F15703DBB27B
:107190009AF80600A0F13007FFB21B01092FDBB2FD
:1071A0000CD9A0F14101052940F23C81A0F1610117
:1071B000052900F25E81A0F15707FFB29AF8070097
:1071C0003B44DFB2A0F13003DBB2BB44092B07EB39
:1071D00002275FFA8BFBBFB20CD9A0F14103052B4C
:1071E00040F21C81A0F16103052B00F24281A0F165
:1071F0005703DBB29AF80800A0F13004E4B21B0197
:10720000092CDBB20AF1090940F2E880A0F1410241
:10721000052A40F20081A0F16102052A00F22981CD
:107220005738C0B29B4450FA8BFB5FFA8BFBB8F126
:10723000000F00F093800AF10B0A3D461DE0282163
:10724000304615F0A1F8690A304615F09DF8C5F3EF
:107250004701304615F098F80021304615F094F8B3
:10726000C3B2A3424FD1C7F101032B44DBB20135B6
:1072700043450AF1020AADB270DA1AF8024CA4F1E1
:107280003003DBB2092BD1460BD9A4F14103052B06
:107290005DD9A4F16103052B00F2DC80A4F1570352
:1072A000DBB21AF8012CA2F130011C01CBB2092B80
:1072B000E4B20AD9A2F14103052B4CD9A2F1610332
:1072C000052B00F2D880573AD3B21C44E4B2A34451
:1072D00015F001035FFA8BFBB1D1202130460193F9
:1072E00015F052F8690A304615F04EF8C5F347011B
:1072F000304615F049F8019B3046194615F044F820
:10730000C3B2A342AFD0314801931FF021F93049F5
:107310002E481FF06DF8102229462C481FF04CFA19
:107320002C492A481FF064F81022214627481FF0F4
:107330000BFA294925481FF05BF8019B23481946A1
:1073400010221FF009FA002003B0BDE8F08FA4F16D
:107350003703DBB2A5E7373AD3B2B6E799F80000B6
:10736000A0F13003DBB2092B0AD9A0F14103052BB0
:107370004DD9A0F16103052B7BD8A0F15703DBB2F7
:1073800099F80100A0F13001C9B21B010929DBB253
:107390000AD9A0F14102052A35D9A0F16102052AD6
:1073A00067D8A0F15701C9B29B4451FA8BF111F093
:1073B000FF0171D199F802300A2B09F1030968D154
:1073C000CA4667E640420F0058A5002048980020B2
:1073D000EC2E0500102F0500202F05001C44E4B200
:1073E000A344012C5FFA8BFB7FF421AF2E4814F0ED
:1073F00091FF00211A2023F067F81A20002122F0C3
:10740000DFFF2046A0E7A0F13701C9B2CCE7A0F129
:107410003703DBB2B4E73738C0B203E7A0F1370374
:10742000DBB2E7E6A0F13707FFB2C7E6A0F137030A
:10743000DBB2ADE6A0F13702D2B28FE6A0F137039E
:10744000DBB275E6A0F13702D2B25AE6A0F13703FB
:10745000DBB23FE6154916481EF0F8FF2146102220
:1074600013481FF071F912481FF072F81148FFF726
:10747000C3FBFFF715FC0D490D4801921EF0E6FF16
:10748000019A1146EBE70A481FF00EF80A48FFF789
:10749000B3FB0A48FFF7B0FB054810221FF054F970
:1074A0000748FFF7A9FB00BF58A500208C2E050058
:1074B00048980020A02E0500B02E0500DC2E050007
:1074C000282F05002DE9F04F40F2FF3185B0012053
:1074D00022F090FD724973481EF08AFF7248FFF750
:1074E000ABF8002872D071496E481EF0E1FF42F2FD
:1074F0001070FFF7A1F830216D4814F045FF00210E
:107500006B4814F041FF0121694814F03DFF002150
:10751000674814F039FF30210502654814F034FF44
:107520000021634814F030FF0221614814F02CFF61
:10753000002104465E4814F027FF05F47F4500EB68
:1075400004245B4814F0E6FE2C4300211A2022F0AC
:10755000BBFFA4B200211A2022F032FF631E9BB2AF
:107560004FF6FD72934204D8524B1F683B88A342EA
:1075700004D00024204605B0BDE8F08FFFF74AFB99
:107580000521B81CFFF79AF80028F2D0484814F0FB
:10759000C1FE00211A2022F097FF00211A2022F0BC
:1075A0000FFF0021012022F025FD64201FF0CAF901
:1075B00040F2FF31012022F01DFD394939481EF00B
:1075C00017FF3948FFF738F8814620B93A4935485E
:1075D0001EF06EFFCDE7354932481EF069FFB7F85F
:1075E00020A097F8228007F123030293BAF1000F3D
:1075F00024D0DFF8C8B003971FFA88F20BEB080617
:1076000047461C4600259046A9B220465B464246A6
:107610000191FFF75DFB019904464FB1274B4A46A4
:1076200013F8010BFF2818BF00229E42F8D17AB34D
:107630003D44AA4501D9002CE6D1039F0298FFF7EB
:1076400021FD002895D007F10C0420460521FFF705
:1076500035F800288DD0204607F11601FFF738F9DC
:107660000446002885D0042540F2FF31012022F095
:10767000C1FCC8201FF066F90021012022F0BAFCED
:10768000C8201FF05FF96B1E13F0FF05ECD171E706
:1076900042465846FFF7D0F90028C9D169E700BF34
:1076A000582D050048980020A0860100742D050083
:1076B00058A50020586200207C2D0500846A002017
:1076C0002DE9F04F704C714F714E87B0204616F087
:1076D000BFFC704AA36A70493B6001916F4FE56A35
:1076E0006F4C07CA9B103B604FF48073ADF80830B5
:1076F000256003AD85E80700029A6749304614F01B
:10770000A7FD0021022022F0DFFE664B4FF420701F
:1077100043F0010398470021304614F035FE002461
:107720000134E4B22146304614F02EFE0C2C05F84C
:10773000010BF5D10121022022F0C6FE544814F0BD
:10774000E9FD9DF816209DF8155057499DF811E068
:107750009DF80E809DF80CB091F800A09DF80D608A
:107760009DF80F709DF81090504B94004FEA840CD8
:107770000CF4407CA9004CEA0E0C4FEA851E8800F0
:107780000EF4407E01F4407141EA0B0B4EEA080E04
:1077900029029DF81280C3F800B0950100F44070F2
:1077A00001F4407105F440753043394345EA08055A
:1077B0009DF813609DF814809DF8177058601202B0
:1077C00004F4407402F4407244EA0904324348EA83
:1077D0000728C3E9044CC3E902E1C3E90652C3F830
:1077E0002080BAF1000F4BD1DFF8C490D9E90067CF
:1077F000C01BD9F80870BBEB060648BF5646AEEB77
:1078000007070028B8BF5046002FC3E90060B8BF83
:1078100000209F60B8BF9860D9F80C00091A0029B1
:10782000D960BCBF0021D960D9F81010641A002CAF
:10783000B8BF00211C61B8BF1961D9F81410ACEBB6
:10784000010100295961BCBF00215961D9F8181004
:107850006D1A002DB8BF00219D61B8BF9961D9F89C
:107860001C10521A002ADA61BCBF0022DA61D9F872
:107870002020A8EB0202002A1A62BCBF00221A6272
:1078800007B0BDE8F08F00BF908B0020308F002044
:1078900058A500207C2F050080841E00E08D00206C
:1078A000588E0020E0970500BB8C0020E08E002061
:1078B000BC8E00202DE9F043C04DC14C297801EB6E
:1078C000C1032DED028B04EBC30014F8333083B0F9
:1078D000CA007BB3BB4FDFEDBC8AD7ED007A9FEDCA
:1078E000BB8AC379007A009077EEA87A0A4404EB49
:1078F000C20167EE887A8A794979FDEEE77A834298
:1079000041F2883994BF8046064609FB02F217EE21
:10791000900A09FB01F194BF1E4698461EF0F4FF41
:10792000B04280F2E280AA4F3B78B34240F08E80B2
:107930002978CA00501804EBC000437873B3A54FF0
:10794000DFEDA18AD7ED007A9FEDA08AC37A007B94
:10795000009077EEA87A0A4404EBC20167EE887AB9
:107960008A7A497AFDEEE77A834241F2883994BFF8
:107970008046064609FB02F217EE900A09FB01F168
:1079800094BF1E4698461EF0BFFFB04280F28A8028
:10799000914F3B78B3424BD12978CA00531804EB7E
:1079A000C303987818B993F82030002B3BD08B4F45
:1079B000DFED8B8AD7ED007A9FED848A501804EBB7
:1079C000C00077EEA87A0A44C37B007C009004EBE9
:1079D000C20167EE887A8A7B497BFDEEE77A8342B3
:1079E00042F2107994BF8046064609FB02F217EE78
:1079F000900A09FB01F194BF1E4698461EF084FFD1
:107A0000B04231DA774FDFF8E0813B7888F80060E8
:107A1000B34208D02B7803EBC30304EBC3039A787B
:107A2000002A40F0858003B0BDEC028BBDE8F083F6
:107A30002B7803EBC30304EBC3033246597D987CD8
:107A4000FEF7A8FC29783E70CA00A7E72B7803EB65
:107A5000C30304EBC3033246197D587CFEF79AFC3E
:107A600029783E70CA0065E7D7ED007A2B7877EE6B
:107A7000A87A03EBC30304EBC30367EE887A9A7B0F
:107A8000597B187C0090FDEEE77ADB7B17EE900ABD
:107A900009FB02F209FB01F11EF036FF404554DDFF
:107AA0004646AFE7D7ED007A2B7877EEA87A03EB5E
:107AB000C30304EBC30367EE887A9A7A597A187B7A
:107AC0000090FDEEE77ADB7A17EE900A09FB02F2EE
:107AD00009FB01F11EF018FF404552DD3E4F3B7897
:107AE0004646B3423FF458AFA2E7D7ED007A2B7871
:107AF00077EEA87A03EBC30304EBC30367EE887A3F
:107B00009A795979187A0090FDEEE77ADB7917EEC9
:107B1000900A09FB02F209FB01F11EF0F5FE404557
:107B200064DD2B4F3B784646B3423FF401AF8DE70F
:107B3000997DD87C3246FEF72DFC98F800303B70DA
:107B400003B0BDEC028BBDE8F083D7ED007A2B7853
:107B500077EEA88A03EBC30304EBC30328EE888AFD
:107B60009A7B597B187C0090FDEEC87ADB7B17EE80
:107B7000900A09FB02F209FB01F11EF0C5FEC6B234
:107B800040E7D7ED007A2B7877EEA88A03EBC303A2
:107B900004EBC30328EE888A9A7A597A187B0090FE
:107BA000FDEEC87ADB7A17EE900A09FB02F209FBB8
:107BB00001F11EF0A9FEC6B2EAE600BF348D002036
:107BC0009C600020D48D00200000B44200007A4464
:107BD000748B00205C8D0020758B0020A08F00200E
:107BE00000003443768B0020A88F0020D7ED007A68
:107BF0002B7877EEA88A03EBC30304EBC30328EECC
:107C0000888A9A795979187A0090FDEEC87ADB79DA
:107C100017EE900A09FB02F209FB01F11EF074FE57
:107C2000C6B280E6BC499FEDBD6AD1ED007ABC4B7F
:107C3000BC4A93ED007ADFEDBC6A2DE9F04F67EEA8
:107C4000867A2DED028BE7EE267AB84DB84C92ED90
:107C5000008A2B78C1ED007A37EE088A03EBC30364
:107C600038EE678AF6EE008A04EBC30368EE288AD2
:107C700085B0C2ED008A93F8242093F81BB00192DE
:107C800093F8252093F82630029203931EF04EFEBF
:107C90002B78A84A03EBC301F0EEE87AB3EE047A3E
:107CA00004EBC101F4EEC77AF1EE10FA0D7ECCBF01
:107CB000012600261670DA001DB991F82160002E09
:107CC0007AD09D49DFF898C2DFF89882DFF898E211
:107CD0009A4F0E784FF000094FF0000AC7F8009055
:107CE000CCF80090C8F80090CEF800A07EB9B6EEAF
:107CF000007AF4EEC77AF1EE10FA08DD904A01231B
:107D000010600B7005B0BDEC028BBDE8F08FDFF8A2
:107D10003092D9F80090A0EB0909B9F10B0FF1D915
:107D2000DFF848A29AF80090B9F1000F1ED0DFF8F2
:107D3000409299F80060002E47D09FED827A824EE3
:107D4000F4EEC77AF1EE10FAC8BF30603668801BD7
:107D5000B0F5C87F3ED9002389F800300B708AF84F
:107D6000003005B0BDEC028BBDE8F08FB6EE007AB6
:107D7000F4EEC77AF1EE10FA00F39A80DFF8F09192
:107D800099F80070002FD8D19FED6E7AF4EEC77A83
:107D9000F1EE10FA01DD6C4B1860002EB2D06A4B88
:107DA0001B68C01AB0F5C87FACD9002389F8003031
:107DB0000B708AF80030D4E791F82260002E80D151
:107DC00091F8231000299DD07BE75F4E01213060A0
:107DD00089F80010DFED5D7AB4EEE78AF1EE10FA73
:107DE0004FDAD11804EBC101FFEE008AC97F0029E8
:107DF0005BD0032900F0FC80022900F032810529C4
:107E000000F00B81042900F07B81B0EE687A9DB10F
:107E10004F499FED506AD1ED007A484906EE90BA7D
:107E200067EE867AF8EEE66A67EEA67A67EE877AFC
:107E3000FDEEE77AC1ED007AD11804EBC10191F8AB
:107E40002100002846D0DDED017A9FED4A7A91F8B5
:107E50002710F8EEE77A67EE877A99B3032900F0E6
:107E60003681022900F0F580052900F06981042996
:107E700000F09A8168EEA77AFDEEE77A17EE901A85
:107E800026E0DFED357AD118B4EEE78A04EBC101C4
:107E9000F1EE10FA98BFDFED317AC97F94BF68EE3A
:107EA000A78AF7EE008A0029A3D1B1EE687AAEE77F
:107EB00001268AF800603AE7F5EEC08AF1EE10FA82
:107EC000C0F2CD8067EEE87AFDEEE77A17EE901A01
:107ED000CCF80010D11804EBC10191F82200002861
:107EE00055D0DDED027A9FED237A91F82810F8EE57
:107EF000E77A67EE877A002945D0032900F0B98038
:107F0000022900F09580052900F03C81042900F049
:107F1000598167EEA87A38E0288B00206666663FB4
:107F2000848B00202C8B0020CDCCCC3D348D0020C8
:107F30009C600020408E0020268B0020508E002068
:107F4000308B00203333B33E348B00202506F0C144
:107F5000D06200200AD7233D2506F0410A85883DDE
:107F6000448E00204C8E0020488E0020248B002060
:107F7000258B00200AD7233F00000000F5EEC08AC1
:107F8000F1EE10FA5ADB67EEE87ACEED007A134490
:107F900004EBC30494F82330002B3FF4B3AEDDEDC3
:107FA000037A1FED0C7A94F82930F8EEE77A67EE41
:107FB000877A63B967EEE88AFDEEE87A17EE903AC1
:107FC000C8F8003005B0BDEC028BBDE8F08F032B84
:107FD00064D0022B35D0052B00F0C180042B00F0BB
:107FE000068168EEA77AFDEEE77A17EE903AE7E7AA
:107FF0005FED1F7AF5EEC08AF1EE10FA8CBFB0EE9D
:10800000677AB0EE687AFFEE007AB4EEE77AF1EEC6
:1080100010FAB8BFB0EE677AF9E6F7EE007AF4EE40
:10802000E78AF1EE10FA40F2B880BFEE007AEEE691
:10803000F5EEC08AF1EE10FA40F2E7805FED327A99
:10804000A3E7F5EEC08AF1EE10FA40F2E7800023D4
:10805000B6E7F5EEC08AF1EE10FA40F2EE800021AC
:1080600036E7F5EEC08AF1EE10FA5ED91FED3E7AE2
:10807000CDE6F5EEC08A1FED407AF1EE10FA98BF1A
:10808000B0EE687AFFEE006AB4EEE67AF1EE10FA2E
:10809000B8BFB0EE667A67EE877A76E7F5EEC08A0B
:1080A0001FED4B7AF1EE10FA88BFF0EE478ABFEE73
:1080B000007AF4EEC78AF1EE10FAB8BFF0EE478A04
:1080C00068EEA78AFDEEE87A17EE903A78E7F5EECB
:1080D000C08A1FED577AF1EE10FA98BFB0EE687AB9
:1080E000FFEE006AB4EEE67AF1EE10FAB8BFB0EE39
:1080F000667A67EE277AFDEEE77A17EE901AE7E6E2
:10810000F7EE007AF4EEE78AF1EE10FA8CBFB0EEEB
:10811000677AB0EE687AB5EEC07A5FED697AF1EE13
:1081200010FAB8BFB0EE677A71E6FFEE007AF4EEAF
:10813000E78AF1EE10FABFF6B8AEB7EE007A66E65F
:10814000B7EE007AF4EEC78AF1EE10FA7FF6B4AE1D
:10815000F1EE677AFDEEE77A17EE901AB8E6F5EEE3
:10816000C08A1FED7B7AF1EE10FA88BFF0EE478AE5
:10817000BFEE007AF4EEC78AF1EE10FAB8BFF0EE67
:10818000478A2EE7B7EE007AF4EEC78AF1EE10FACE
:108190007FF6F4AEF1EE677AF7E6F5EEC08AF1EE1F
:1081A00010FABFF682AE61E7B7EE007AF4EEC78A46
:1081B000F1EE10FA98BFB0EE687A5FED916AB5EE15
:1081C000C07A91E7B7EE007AF4EEC78AF1EE10FAC2
:1081D00098BFB0EE687AB5EEC07A5FED996AF1EEBD
:1081E00010FAB8BFB0EE667A67EE877ACDE6B7EEE2
:1081F000007AF4EEC78AF1EE10FA88BFF0EE478AF3
:10820000F5EEC08A1FEDA47AB6E7BFEE007AF4EE71
:10821000C78AF1EE10FABFF6B6AEB6E6BFEE007A48
:10822000F4EEC78AF1EE10FAFFF6DDAE67EEE87AFB
:10823000FDEEE77A17EE903AC2E6BFEE007AF4EE72
:10824000C78AF1EE10FABFF63DAE54E7F0B4CB4B5F
:10825000CB4D1A78CB482B68CB49002A62D1CB4A48
:1082600004680F681668E41BA64240F22B8143F0B5
:10827000010344684F685668E41BB442C0F038817B
:10828000043CB44280F0768184688F689668E41B71
:10829000B442C0F02A81043CA64240F26881C4681E
:1082A000CF68D668E41BB442C0F01C81043CA642EF
:1082B00040F25A8104690F691669E41BB442C0F0A8
:1082C0000E81043CA64240F24C8144694F695669D4
:1082D000E41BB442C0F00081043CA64240F23E815F
:1082E00084698F699669E41BB442C0F0F280043C53
:1082F000A64240F23081C469CF69D669E41BB4421A
:10830000C0F0F980043CA64240F222810C6A006A67
:10831000116A021B8A4280F0CA8043F480732B608A
:10832000F0BC70470E6804689FED997A974AA41BC9
:1083300007EE904AF8EE677A166867EE877AFDEEE8
:10834000E77A17EE907AE41BB442C0F0B880043CA0
:10835000A64298BF23F001034F6844689FED8C7AD2
:108360005668E41B07EE904AF8EE677A67EE877A64
:10837000FDEEE77A17EE907AE41BB44280F0BE80FF
:1083800043F002038F6884689FED817A9668E41B4E
:1083900007EE904AF8EE677A67EE877AFDEEE77AA5
:1083A00017EE907AE41BB44280F0CC8043F00403D3
:1083B000CF68C4689FED767AD668E41B07EE904AD2
:1083C000F8EE677A67EE877AFDEEE77A17EE907A35
:1083D000E41BB44280F0B08043F008030F690469E5
:1083E0009FED6B7A1669E41B07EE904AF8EE677A08
:1083F00067EE877AFDEEE77A17EE907AE41BB442D7
:1084000080F0948043F010034F6944699FED607AD7
:108410005669E41B07EE904AF8EE677A67EE877AB2
:10842000FDEEE77A17EE907AE41BB44278D243F07F
:1084300020038F6984699FED567A9669E41B07EEE5
:10844000904AF8EE677A67EE877AFDEEE77A17EEE4
:10845000907AE41BB4425DD243F04003CF69C46913
:108460009FED4B7AD669E41B07EE904AF8EE677AE7
:1084700067EE877AFDEEE77A17EE907AE41BB44256
:1084800042D243F08003006A0C6A116A9FED407A81
:10849000021B07EE902AF8EE677A67EE877AFDEE08
:1084A000E77A17EE900A121A8A42FFF436AF043ABE
:1084B000914201D823F480732B60F0BC704743F0E5
:1084C000010349E7043CB442FFF4D3AE23F00103B7
:1084D000CFE643F040030EE743F0200300E743F00C
:1084E0001003F2E643F00803E4E643F00403D6E6A3
:1084F00043F00203C8E643F0800307E7043CA642CA
:1085000098BF23F002033DE7043CA64298BF23F046
:108510008003B8E7043CA64298BF23F040039DE7E0
:10852000043CA64298BF23F0200382E7043CA64205
:1085300098BF23F0100367E7043CA64298BF23F0DE
:1085400008034BE7043CA64298BF23F004032FE73F
:1085500023F08003DAE623F04003CCE623F0200387
:10856000BEE623F01003B0E623F00803A2E623F0F2
:10857000040394E623F0020386E600BFBB8C0020D0
:10858000088D002050630020BC8E0020E08E00206B
:10859000CDCC4C3E10B41D4B1D4A1B78D25C422AF8
:1085A0004FEA500022D81B49C3B201EB022112F05E
:1085B000FB0FC85C22D1184C1849E45C0C70012AEE
:1085C00002D1174CE35C0B70032A01D13F2811D074
:1085D000144B1B78032B06D0134B1A6840F2FF1381
:1085E0009A4208BF00205DF8044B70470F4BC0B2A1
:1085F000185CEDE700205DF8044B7047012A01D1BB
:108600000649DEE70A2AFBD0DEE700BF348D0020F2
:10861000B8620020CC7F0500882F0500708F0020F5
:10862000CC7E050084610020088D00206C6900204C
:10863000F0B47C4B7C4A197801EBC10302EBC30216
:10864000CC00907E01284FF000036BD07748784A29
:1086500000781278774D034403EB430302EB830366
:108660002A787548DBB2032A03703FD0734A127828
:10867000032A1DD0022A01D0F0BC7047704A525C18
:1086800012F0FB0F40F0AC806E4A6F4D641A02EBA3
:1086900044042A68E478C2F30022A242ECD16B4C75
:1086A000322202FB014191F8312013440370E3E7C9
:1086B000634A555C012DDFD00A2DDDD0614A624E40
:1086C000641A02EB44043268E47802F00102A24228
:1086D000D2D15E4C322202FB0141072D91F83120AC
:1086E0001344DBB208BF053B0370C5E7544A555C31
:1086F0000F2D6CD0564A0C2D127857D00E2D73D0FA
:10870000082D7DD1492A62D9504F4C4A322606FBAA
:108710000176127896F831603344DBB2032A037095
:10872000A8D1CBE7937F002B90D04A4A4A4D92EDD7
:10873000017AD5ED007AB8EEC77AF4EEC77AF1EE99
:1087400010FA67D4012B2ED092ED027AB8EEC77AD8
:10875000F4EEC77AF1EE10FA5ED4022B23D092ED3C
:10876000037AB8EEC77AF4EEC77AF1EE10FA55D470
:10877000032B18D092ED047AB8EEC77AF4EEC77ADC
:10878000F1EE10FA44D4042B42D092ED057AB8EE03
:10879000C77AB4EEE77AF1EE10FA41DC052B18BF88
:1087A00000237FF453AF013BDBB24FE7392A0ED9E8
:1087B0003E2A1BD1254E322202FB0162072D92F880
:1087C00031201344DBB219D1053BDBB203701B4AE5
:1087D0001278032A3FF472AF022A7FF44DAF4DE7BF
:1087E000062A7FF449AF4FE7452AF0D9174D3222C8
:1087F00002FB015292F831201344DBB2037035E7DB
:108800003E2AD7D1012D3FF437AF0A2DD2D133E71D
:108810000423C8E70346C6E70223C4E70323C2E7ED
:108820000523C0E7348D00209C600020548D00207B
:108830004D8D0020418D0020548E00208461002049
:10884000B862002024630020088D0020046000200E
:10885000BC620020748D00205C8D002070B5054640
:108860000C461EF063F81A4A13783BB9194E1A49A0
:1088700030601A4E0B60012133601170CDB9154B79
:1088800017491B680968C31A8B420ED2124B19682C
:10889000A1B1124B19681C60611AB1F5FA6F11D0C1
:1088A0009DB1012D0ED100290CDB00231370022095
:1088B00070BD012DF9D1074B0A49E2E707490122B2
:1088C0000C601A60084B187870BD0029FADCECE7E0
:1088D000048D0020388B0020C08D0020B48D002036
:1088E0009C62002024620020CC8C00202DE9F843FB
:1088F000A64BA74E1878322303FB006393F82D3064
:10890000403B07EE903AF8EEE77A00F1E7809FED02
:10891000A17AF7EE000AE7EE870A322303FB006331
:1089200093F82E30403B07EE903AF8EEE77A00F1EC
:10893000E080DFED986AB7EE007AA7EEA67A964B54
:10894000C0EBC00203EB42039B7A002B00F09D803A
:10895000924B32251A7805FB0065012A95F8241000
:1089600095F8277095F8283095F825C095F8294096
:1089700095F82A8095F82C9000F0C9800926642289
:10898000403CA8F14008B9F1000916FB012116FB93
:10899000072716FB03254FEA44044FEA480818BF8F
:1089A0004FF0010916FB0C227D4E3368BB4234DCCC
:1089B000791A0129B8BF012107EE901AFB1AB8EE07
:1089C000E77A07EE903AF8EEE77AF7EE006A87EE7C
:1089D000870AB4EEE60AF1EE10FAF4EE660A88BFF2
:1089E000B0EE660AF1EE10FA01D01BF02FFD07EE93
:1089F000904AF8EEE77A27EE800A6A4B9FED6A7A92
:108A0000D3ED007A694B67EE877A27EE800ABDEED8
:108A1000C00A83ED000ABDE8F883AB4274DB521B49
:108A2000012AB8BF012207EE902A5B1BF8EEE76A25
:108A300007EE903AF8EEE77A9FED5D6A87EEA60AB8
:108A4000F7EE007AB4EEC60AF1EE10FAB4EE677AE9
:108A5000B8BFB0EE460AF1EE10FA03D0F0EE470AC6
:108A60001BF0F4FCB9F1000F08D0F7EE007AB4EE79
:108A7000E70AF1EE10FA88BFB0EE670A07EE908AB7
:108A8000F8EEE77A27EE800AB7E74A4B1B78032B0C
:108A900052D0424B484A1B781168012B3DD03223FB
:108AA00003FB0060092290F82B4090F801806423BA
:108AB00012FB0432521A01EB42028B186FF01304BE
:108AC0005F1004FB08F41420B7EE007AF0EE470ABA
:108AD00008FB00F83D464FF0010965E7DFED376A16
:108AE0009FED377A77EEA67AF5EE000AE7EE870A71
:108AF00013E79FED327ADFED326A77EE877AB5EED3
:108B0000007AA7EEA67A1AE79FED290A75E7294BA6
:108B10001B78032B2DD0284B19682A4A322303FBDC
:108B20000060126890F8018053186FF013045F1012
:108B300004FB08F40A20C7E71F4B224A1C68174BA6
:108B400021491D7812680968322303FB0060121B5B
:108B500090F8018001EB6202012D01EB02036FF03E
:108B600013044FEA630704FB08F40CBF0A20142027
:108B7000AAE7144A104B144912681B68096895F853
:108B80000180D21A01EB6202CEE700BF348D0020D3
:108B900004600020320C433D2463002084610020E7
:108BA000E08D0020D06200200AD7233CE08C00201A
:108BB00000000000418D002014630020000080426E
:108BC0000000403C348F0020388F00202DE9F84F02
:108BD000B74BB84ADFEDB87AD2ED004A9FEDB75AED
:108BE0009FEDB77ADFF8F4829FEDB64A2DED048B46
:108BF000D3ED009AB44BF4EEE79A93ED009AB34BA1
:108C0000F1EE10FAF4EEE74A8CBFF0EE675AF0EEA0
:108C1000695AF1EE10FA75EEA75A8CBFB0EE676A8A
:108C2000B0EE646AB4EEC59A76EE277AB0EE478A63
:108C3000B1EE046AF1EE10FAA5EE868A1D78A44B17
:108C40008CBFF0EE456AF0EE496AF0EE475A76EED8
:108C5000856AE7EE865A05EBC50708EBC707B0EE55
:108C6000045AA6EE857A97F84560FDEEE57AD3EDD5
:108C7000008A17EE902AFDEEC77ABDEEC88A17EE7D
:108C8000904A68EE848A4FEAC509002E76D0DFED5F
:108C9000917A97F8313097F82CE097F82A1097F8E6
:108CA0002D0097F82BB097F82E6097F82F70F4EE00
:108CB000E74AF1EE10FA4FF0640CB8BF62464FF08D
:108CC000190A403B07EE903A1AFB0ECC00F1D08116
:108CD00009EB050308EBC303F8EEE77A93F83230AB
:108CE0009FED807AF7EE000A403BE7EE870A00F13D
:108CF000D48107EE903ADFED7B6AF8EEE77AB7EEC3
:108D0000007AA7EEA67A09EB050308EBC3039445A6
:108D100093F830A0F0EE477AC0F2D881AEEB0101B3
:108D200001EB810101EB81010129B8BF0121ACEB0D
:108D3000020207EE901A07EE102AF7EE006AF8EE2C
:108D4000E77AB8EEC77AF4EE660AF1EE10FA87EE2B
:108D5000270A01D01BF07AFBBAF1000F40F06982BC
:108D6000403E760007EE906AF8EEE77A67EEA87A62
:108D700067EE807AFDEEE77A17EE906A09EB050060
:108D800008EBC00090F84630002B00F0E580DFEDE6
:108D9000517A90F835C090F83A3090F8332090F836
:108DA000361090F834E090F8377090F838A0F4EE70
:108DB000E79A18EE100AF1EE10FA4FF0640BB8BF04
:108DC000584608EE100A403B4FF0190007EE903A63
:108DD00010FB0CB000F1BA8109EB050308EBC303EB
:108DE000F8EEE77A93F83B309FED3E7AF7EE000A13
:108DF000403BE7EE870A00F1BE8107EE903ADFEDD7
:108E0000396AF8EEE77AB7EE007AA7EEA67AF0EEC6
:108E1000477A09EB050308EBC30393F839B018EE62
:108E2000103A984260DA1922642312FB013318EEDB
:108E3000102A934200F39080AEEB010101EB810117
:108E400001EB81010129B8BF0121D31A08EE103AC4
:108E500007EE101AB8EEC88AB8EEC77ADFED1E6AC0
:108E600088EE070AB7EE007AB4EEE60AF1EE10FAE1
:108E7000F4EE477AB8BFB0EE660AF1EE10FA03D00E
:108E8000F0EE670A1BF0E2FABBF1000F08D0F7EE34
:108E9000007AB4EEE70AF1EE10FA88BFB0EE670A86
:108EA000AAF1400A4FEA4A0A07EE90AA49E000BF39
:108EB0005C8D0020D48D00200000B44200003443BB
:108EC0000000C8420AD7233CA08F0020348D002028
:108ED000D06200200000B4C2000000009C600020AE
:108EE000000034C3320C433DACEB020202EB8202C1
:108EF00002EB8202012AB8BF012207EE902AC31AB0
:108F000008EE103AB8EEE77AF7EE007AB8EEC88AC3
:108F1000F4EE670AF1EE10FA88EE070A01D01BF0B2
:108F200095FABBF1000F08D0F7EE007AB4EEE70A2D
:108F3000F1EE10FA88BFB0EE670A403F7F0007EEFF
:108F4000907AF8EEE77A67EEA87A67EE807AFDEE1F
:108F5000E77A17EE903A1E4409EB050208EBC202CD
:108F600092F84730002B72D05FED237A92F84330AD
:108F700092F83E1092F83CE092F83FC092F83D0023
:108F800092F8407092F841A0B4EEE79AF1EE10FA30
:108F90004FF06402B8BF1446403B07EE903A4FF0E2
:108FA000190BF8EEE77A1BFB012256D41FED337A3A
:108FB000F7EE000AE7EE870A09EB050308EBC303A7
:108FC00093F84430403B07EE903AF8EEE77A00F130
:108FD00023811FED3C7AF7EE006AE7EE876A09EB22
:108FE000050308EBC303944293F8425000F3D48086
:108FF000A1EB0E0101EB810101EB81010129B8BF59
:109000000121131B07EE103A07EE901AF7EE006AE3
:10901000F8EEE77AB8EEC77AF4EE660AF1EE10FAE7
:1090200087EE270A01D01BF011FA002D40F00B81CA
:10903000403F7F0007EE907AF8EEE77A67EEA88A65
:1090400068EE808AFDEEE88A18EE903A1E44BDEC88
:10905000048B824B1E60BDE8F88FDFED816A9FEDC7
:10906000817A77EEA67AF5EE000AE7EE870AA3E7A3
:1090700009EB050308EBC303F8EEE77ADFED786A46
:1090800093F832309FED777A77EEA67AF5EE000A04
:10909000403BE7EE870A7FF52CAE07EE903A9FED56
:1090A000707ADFED706AF8EEE77A09EB050377EE88
:1090B000877AB5EE007AA7EEA67A08EBC30394454B
:1090C00093F830A0F0EE477ABFF628AE192164235A
:1090D00011FB0033934200F3AA80ABEB000000EBDE
:1090E000800000EB80000128B8BF0120D21A07EEF3
:1090F000100A06EE902AB8EEC77AF8EEE66A9FEDFF
:109100005A6A86EE870AB7EE007AB4EEC60AF1EE26
:1091100010FAF4EE477AB8BFB0EE460AF1EE10FA54
:1091200003D0F0EE670A1BF091F9BAF1000F08D0F6
:10913000F7EE007AB4EEE70AF1EE10FA88BFB0EE6F
:10914000670A403F7F0007EE907A0DE609EB0503C2
:1091500008EBC303F8EEE77ADFED416A93F83B30A2
:109160009FED407A77EEA67AF5EE000A403BE7EEF7
:10917000870A7FF542AE07EE903A9FED397ADFED30
:10918000396AF8EEE77A77EE877AB5EE007AA7EEDD
:10919000A67AF0EE477A3CE61923642213FB0C23EF
:1091A0009C42FFF654AFA0EB0C0000EB800000EBFC
:1091B00080000128B8BF012007EE900AE41AB8EE3B
:1091C000E77A07EE904AF8EEE77A9FED276A87EE96
:1091D000870AF7EE007AB4EEC60AF1EE10FAF4EE62
:1091E000676AB8BFB0EE460AF1EE10FA03D0F0EEAF
:1091F000660A1BF02BF945B1F7EE007AB4EEE70AE8
:10920000F1EE10FA88BFB0EE670AAAF1400A4FEA01
:109210004A0A07EE90AA0FE7DFED116A9FED117A77
:1092200077EEA67AF5EE006AE7EE876AD7E60026C3
:10923000A4E5F7EE007AB4EEE70AF1EE10FA88BF83
:10924000B0EE670A8CE5F7EE007AB4EEE70AF1EECD
:1092500010FA88BFB0EE670AEAE600BF4C6800204B
:10926000000080420000403C000000002DE9F84F63
:10927000314D324E324FDFF8E090DFF8E0A00024AD
:1092800005E0002347F824300134092C51D033780D
:1092900055F8042F9A42F4DDD9F80030002BF0D1B4
:1092A0002848294B9AF8001090F800C0DFF8B080E9
:1092B000322000FB0131D8F8002091F826B00120BF
:1092C000A0401043E34528BFE346FFF763F91F4979
:1092D0001F4B9AF8002009789A5C401A22B9CBF10A
:1092E00000029042B8BF10460028CAD0D8F800301B
:1092F000E340DB07C5D45845C3DCCBF1000B834505
:10930000BFDC31782A68134B521A07EE902A03EB20
:10931000840393ED007AF8EEE77A404267EE877AAD
:10932000FDEEE77A17EE903A00FB03F347F824309E
:10933000AAE7BDE8F88F00BFDC8E00200E63002096
:1093400034620020AD62002004600020BC62002076
:10935000CC620020048F00202C8F0020348D002050
:10936000088D00202DE9F04F3B4C3C4883B024226F
:10937000002126F0A7FD2678002E68D0032E66D0A7
:10938000374BDFF8F4E01B683648374C3749019318
:109390000023DEF8002000682478D1F80080344DE6
:1093A000DFF8B8C0DFF8D4909A46012712E055F8EC
:1093B0002310A1420BDA20FA03F107FA03FBC907D5
:1093C00022EA0B0203D522FA03F1C9070AD50133B9
:1093D000092B2DD022FA03F1C907E8D420FA03F1B2
:1093E000C907F4D5012E03D05CF823100029EED173
:1093F00055F823108C4220DA28FA03FB1BF0010FEA
:1094000021D1091B07EE901A1A4903F8097001EBE4
:10941000830191ED007AF8EEE77A67EE877AFDEE48
:10942000E77A17EE901A4CF823100133092BD1D1AB
:10943000CEF8002003B0BDE8F08F28FA03F1C90789
:1094400003F809A0C3D501994CF82310BFE7FFF733
:109450000DFF267894E700BF608D00203462002065
:109460008C8B00208C6300200E630020088D002070
:10947000E08E0020748F00200C8D0020648D002071
:109480002DE9F843AD482422002126F01BFDAC4B0A
:109490001B78002B42D0032B40D0A84CA368002B94
:1094A00042D1E568002D73D16FF00106A54BA64AA5
:1094B0001B78D35C9A1E012A00F2BA80A34F386849
:1094C0004307C0F3800966D50023DFF89C82A360C0
:1094D000032D00F0CB8038680207C0F3C00900F10B
:1094E000B2809B4D2A78002A40F00E81994B186873
:1094F000994B1B78834200F0E180D4E90231D8F81F
:1095000000200B445B42934206DD012E40F2B38003
:1095100052420023C4E90223BDE8F883874CFFF7D9
:10952000A5FEA368002BBCD0864B874A1B78D35C72
:109530009A1E012A40F29380884A1278012A00F08C
:10954000858002250026022AE6D113F0FB0F32D1D6
:10955000834B844A1B7891687C488B42006802DA0E
:10956000470740F10981022D4CD00021A160D2684B
:1095700093424ADB032D01D00023E360012ECBD9B7
:10958000D4E90231784A12680B449342C4DDC0E743
:10959000012603258AE7DFF8B88198F80020002A21
:1095A00040F0A8806B4B18686B4B1B78834267D0E8
:1095B000DFF8B4818CE7012B01D00A2BACD1634BCF
:1095C0001A68D60500F1F180150700F1EB80654BB4
:1095D000634ADB681278934240F301816248634931
:1095E000D0ED007AD1ED036A9B1A07EE103AF8EE3F
:1095F000E77AB8EEC77AE7EE667AFDEEE77AC4ED71
:10960000037A89E7D2689342B6DA0707B2D4032D0A
:10961000B4D0D31A554907EE903A91ED037AF8EE9B
:10962000E77A67EE877AFDEEE77AC4ED037AA5E77D
:109630004A4A1278012A86D14B4A12680023C4E9AB
:109640000223BDE8F8830023E36056E7E368002BBC
:109650007FF462AF444AA3601368E3605CE73B4F6A
:10966000386810F4807659D1022529E73868C10599
:109670003FF543AF30E73B68DB053FF54DAF47E7CC
:10968000384A374B92681B78934250DA3849394B45
:1096900089689B68DFF8D0800A449B1A07EE903AED
:1096A0003249F8EE677A91ED027A67EE877AFDEE3D
:1096B000E77A17EE903A5B42A36009E7294A284B04
:1096C000D2681B789A422DDD29492A4BC968DB688C
:1096D0000A449B1A07EE903A2449F8EE677A91ED16
:1096E000037A67EE877AFDEEE77A17EE903A5B42EF
:1096F000E36002E740F004003860FEF74BFF154BD3
:1097000088F8009018604FE740F008003860FEF7D6
:1097100041FF104B85F800901860E9E6DFF84880BB
:109720000026D8E6D8F800305B42E360E5E6DFF8D3
:109730003880D8F800305B42A360C9E6346200206C
:10974000608D0020348D0020B8620020088D00203C
:1097500028620020448B0020BC620020708F002013
:109760000E630020E08E00208C8B0020748F002080
:10977000BC8E002050630020022D3FF443AFC91A75
:10978000194F07EE901A97ED027AF8EEE77A67EE36
:10979000877AFDEEE77AC4ED027AE8E602DB12078B
:1097A0007FF5BAAE0023E360B6E6104B1049DB68E4
:1097B00009788B42F2DD1007F4D4032D3FF4ACAEF0
:1097C0005B1A094A07EE903A92ED037AF8EEE77ACF
:1097D00067EE877AFDEEE77AC4ED037A9CE6054BE7
:1097E0001B68E36098E600BF748F0020E08E0020C5
:1097F0000E6300208C8B002070B52D4C2378E3B9CC
:109800006378002B30D1A37803B970BD294E1DF0C9
:109810008DF8B368C01AC728F7D9274D1DF086F810
:10982000AB78B0600226002B34D140F2FF31032028
:1098300020F0E0FB0123AB7070BD1E4E1DF076F8EA
:109840003368C01AC728DBD91B4D1DF06FF82B7881
:10985000306053BB40F2FF31082020F0CBFB0123E6
:109860002B706378002BCED0124E1DF05FF873681A
:10987000C01AC728C7D9104D1DF058F86B78706012
:109880003BB940F2FF310A2020F0B4FB01236B709A
:10989000B9E70126094B0021985D20F0ABFBA35DE1
:1098A0000022013BA355AA5570BD0026F2E700BF78
:1098B000B88C00204C8B002054680020CC97050009
:1098C0002DE9F8432C4D2D4F2D4C2E4EDFF8CC902A
:1098D0002DED068B9FED2C9ADFED2CAADFED2C8A67
:1098E0009FED2CAADFED2C9A05F1030815F8011B5A
:1098F000012381B3D4ED007A337037EEA87AF4EE09
:10990000C97AF1EE10FAB0EE470A2EDC84ED007A47
:109910001AF06CFCB7EE008A30EE088A28EE0A8A4C
:10992000FCEEC87A28EE298A17EE901A387820F0D3
:1099300061FBD4ED007A37EE888A84ED008AA84571
:1099400007F1010704F1040406F10106CED1BDECD4
:10995000068BBDE8F8833378002BF0D0387831706F
:1099600020F048FBC4F80090E9E7B0EE6A8AC4F83A
:1099700000900021DAE700BFBC8D0020CC970500E5
:1099800078610020588B00200AD72F410AD7232F57
:109990000AD7A33B00C0FF430A00A436B4C89640D0
:1099A0003F4B404A1B68126870B53F4D06010446A4
:1099B000A3EB8200AB5920EAE07005EB0412B0EB98
:1099C000830F526882B04FEA830159D20846920051
:1099D0004FF48063009300231CF096FF334A125D1E
:1099E000012A034651D0022A2CD0314ADFED316AD8
:1099F00012F8140002EB440207EE900A5278101A93
:109A000003FB00F3B8EEE77A07EE903AF8EEE77A58
:109A1000294BA7EEA67A354403EB8403012CF0EE24
:109A2000477ABCEEC77AC3ED007A17EE102A85EDAF
:109A3000037A05D1214B12F0FF0214BF1A701C707B
:109A400002B070BD0028D0D025F032FC41EC100BE4
:109A50001AF016FC10A3D3E9002351EC100B25F0EB
:109A600091FC25F087FF07EE900A9FED157A67EECF
:109A7000A77A67EE877AFDEEE77A17EE903AB4E7B9
:109A80009200904228BF1046A2E700FB00F003FBC3
:109A900000F31B15A9E700BFFE822B654715F73FB2
:109AA000588E0020146300205C620020D08C0020BF
:109AB000C06200200000803A208D00207B630020DF
:109AC0000AD723412DE9F041DFF83C8006460F46D6
:109AD000D8F800004FF0FF311D4614461DF07EFC03
:109AE0003A4631460720FCF755FC2A462146072016
:109AF000FCF750FC0023D8F800001A46BDE8F041FE
:109B000019461DF043B800BF308D0020F8B504465B
:109B10000E461CF00BFF2E4B1B78002B36D0054653
:109B2000E4B12C4F3B78002B31D12B4B2B4C1860E0
:109B300001223A70BEB12178002945D01B68EB1A8A
:109B4000192B10D9264B19687322CBB27220C1F39E
:109B5000C711FFF7B7FF00233B7004E00EBB1D4F9A
:109B60003B785BBB1D4C237883B11E4B1868281AC9
:109B700019280BD91C4B19687622C1F3C71374201E
:109B800001F07F01FFF79EFF00232370F8BDAEB107
:109B9000124C237883B9134A0F4B106001222270B4
:109BA000CCE70E4C0B4F23783A7853B90D4901237B
:109BB00008602370002AE9D0074BBFE7064B074C2B
:109BC000BCE7002AD1D0F7E7064922700860B5E764
:109BD000C08C0020A48A0020A88A0020A58A00202A
:109BE000088D0020AC8A0020E08D00202DE9F04196
:109BF000904C10290D46247828BF1025012D38BF20
:109C00000125012C82B000F0F00002F07F0703F084
:109C10007F062ED0002C70D1874BA0281C785BD0FB
:109C20000FD8802847D0902808D101460095834856
:109C300033463A46FCF756FB022C34D102B0BDE85D
:109C4000F081B02800F0A680E028F7D107EBC6121B
:109C5000A2F5005212B202F500560146009577486F
:109C600002F07F02C6F3C713FCF73CFB022CE5D0E1
:109C700067E0734BA0281B6800F082800DD9B028E4
:109C800069D0E028DAD107EBC612A2F5005212B271
:109C9000002B4BD002F5005653E0802800F0BE8028
:109CA0009028CBD18BB36748009533463A46902134
:109CB000FCF744FBC2E701460095604833463A464C
:109CC000FCF710FB022CB9D05E48009533463A46AB
:109CD0008021FCF733FBB1E7014600955748334636
:109CE0003A46FCF7FFFA022CA8D0564800953346B6
:109CF0003A46A021FCF722FBA0E7A02842D00CD8CE
:109D0000802800F08E80902898D1014600954B481D
:109D100033463A46FCF7E6FAC5E7B02826D0E028F5
:109D20008CD107EBC612A2F5005212B202F5005612
:109D30004248009502F07F02C6F3C713E021FCF70A
:109D4000D1FA40480095C6F3C71306F07F02E02120
:109D5000FCF7F4FA72E7072929D04BB1394800958E
:109D600033463A46B021FCF7E9FA67E707292AD0DB
:109D700001460095314833463A46FCF7B3FAEDE721
:109D8000002BB2D1014600952C4833463A46FCF7E9
:109D9000A9FAAAE707292BD02848009533463A4666
:109DA000B021FCF79FFA022C3FF448AFD6E7652FAD
:109DB000D3D9DFF89480B3B198F8003013F0FD0FD9
:109DC0007FF43CAFCAE7652FD2D9DFF87C8098F8E2
:109DD0000030012BF0D801460095184833463A462A
:109DE000FCF780FAE8E798F80030012BF3D9E3E7B5
:109DF000652FD1D9DFF8508098F80030012B03D9B6
:109E0000022C3FF41BAFD7E7014600950B483346C1
:109E10003A46FCF767FA022CCED10FE7002B7FF40D
:109E200053AF01460095054833463A46FCF75AFAC7
:109E30004AE700BF7461002068690020586800206C
:109E4000C48C00203C670020C18C00200000000072
:109E50002DE9F04F2DED068B9FB015AB0CAA03A991
:109E6000CF48DFF8C0B3DFF8C083CE4FCE4ECF4D22
:109E7000CF4C12F0CFFFCF4BDDED137A93ED001AEC
:109E8000CD4BCE49CE4AC3ED007ACE4BD2ED000A7F
:109E9000D1ED006A9DED110A9DED127ACA4ACB49B7
:109EA000DB6882ED000ADDED081A9DED092ADDED83
:109EB0000A2AC74A81ED007A30EE660A77EE600A18
:109EC00037EEC11A1A998BED000ADB01C8ED000AC2
:109ED00087ED001AC6ED001A85ED002AC4ED002AB0
:109EE000116004D5BB4B1A68D00700F152821DF0F7
:109EF0008BFFB94B9BED000AD8ED000A97ED001AD5
:109F0000D6ED001A95ED002AD4ED002AA0FB03013E
:109F1000830A43EA815307EE103AB04C9FEDB06AD2
:109F2000D4ED0F7ADFEDAF8ADFEDAF6AB8EE477A96
:109F3000204677EE677A84ED0E7A67EE867A84EDB6
:109F40000F7AF4EEE87AF1EE10FA98BFF0EE678A35
:109F5000F4EEE68AF1EE10FAB8BFF0EE668AB0EEE3
:109F6000683AC4ED107A13F043FF94F82830002BC0
:109F700000F027829D4D236B2B60DFF8B0A2D4F850
:109F80002C90CAF800909A4BD4ED0D7A93ED007A9C
:109F9000984B37EE877AC3ED007A17EE100A17EE6A
:109FA000104A25F097F978A3D3E9002306460F4617
:109FB00025F078FC002800F0F18175A3D3E9002397
:109FC0003046394625F026F825F0D4FC8A4B01931B
:109FD00004461860484625F07DF96BA3D3E90023B9
:109FE00025F01AF825F0C6FC814625F073F966A322
:109FF000D3E9002306460F4625F054FC48B164A37C
:10A00000D3E900233046394625F004F825F0B2FCA8
:10A010008146286880F0004025F05CF95EA3D3E912
:10A02000002325F0AFF925F0A5FC09EE900A89F090
:10A030000040C5ED009A25F04DF957A3D3E9002360
:10A0400025F0A0F925F096FC09EE100A84F00040F6
:10A050008AED009A25F03EF94FA3D3E9002325F0BD
:10A0600091F925F087FC654B01991A680860D107C2
:10A070000AEE100A624C40F19D8194ED008A614E17
:10A08000614F96ED007AD7ED007A39EEC77A7AEE15
:10A09000677AB5EEC07AF1EE10FAF5EEC07A4CBFF1
:10A0A00001220022F1EE10FA4CBF012300239A4254
:10A0B000B5EEC09A00F01181F1EE10FA40F3118173
:10A0C000B0EEC99AD8F8000025F004F932A3D3E91C
:10A0D000002325F057F9804618EE900A894625F0AE
:10A0E000F9F802460B464046494625F04BF98046B2
:10A0F00018EE100A894625F0EDF802460B46404658
:10A10000494624F089FF25F035FC08EE100AF5EEEB
:10A11000C09AF1EE10FAB5EEC08A4CBF01220022BF
:10A12000F1EE10FA4CBF012300239A4287ED00AAFA
:10A13000C6ED009A206000F02981DFED347A68EEE8
:10A14000277A9FED337A334BB4EEC79AF1EE10FACB
:10A15000ADBF002238EE678AC3ED007A1A602E4B3D
:10A160002E4A1B7884ED008A03EBC30302EBC30382
:10A1700085ED008A93F82030002B00F00281284CF6
:10A180002378002B63D053E0182D4454FB21094061
:10A19000182D4454FB211940F8C1631ADCA54C402A
:10A1A0005C8E0020FC8C0020808B0020848B0020A3
:10A1B000888B0020008D0020CC8D0020F08C0020AA
:10A1C000F88C0020F0ED00E0C48D0020C88D002048
:10A1D00050680020001000E040420F00EC8D00208D
:10A1E000BD3786350AD7233C6F12833AD48D0020C1
:10A1F000A48F0020C88C0020A08F0020806A00203F
:10A20000708B00206C8B0020688B0020CDCCCC3C68
:10A210000000AA425C8B0020348D00209C6000204E
:10A220005B8B0020EC8C0020F48C00205C8D0020E7
:10A230000133DBB2052B237009D900210A201FF05E
:10A24000D9FE002103201FF0D5FE00232370DBED93
:10A25000007AB6EE007AF4EEC77AF1EE10FA63DD1A
:10A26000794E7A4D96ED007AF4EEC77A0123F1EE3D
:10A2700010FA2B7000F3CC80B5EEC07AF1EE10FA34
:10A2800040F3CB80DFED726A37EE667A86ED007AB6
:10A29000B5EEC07AF1EE10FA40F2BF80F5EEC07A6A
:10A2A000F1EE10FA6DD5DFED6B7AB4EEE77AF1EEF0
:10A2B00010FA00F2B980F7EE007A37EE277AF2EE64
:10A2C000087A27EE277AFCEEC77ACDED017A9DF861
:10A2D00004304FEAC3085F003AE0F1EE10FA7FF66F
:10A2E000EFAEDFED5D7AB0EEC99AB4EEE79AF1EE2B
:10A2F00010FABFF6E7AEB5EEC08AF1EE10FAF5EE51
:10A30000C09A4CBF01220022F1EE10FA4CBF01238B
:10A3100000239A4287ED00AAC6ED009A7FF40DAFA4
:10A320004E4B00221A601AE7F5EEC07AF1EE10FAF1
:10A3300027D5464D2B7823B3434E96ED007AB5EEE4
:10A34000C07AF1EE10FAAEDA18274FF060080C234D
:10A35000434A4449127809789020FFF747FC414668
:10A360000A201FF047FE394603201FF043FE3E4AF5
:10A370003E4B12681A6000210122002331602270D6
:10A380002B701FB0BDEC068BBDE8F08FDFED387A87
:10A39000D7E65B689B0907EE103ABEE526A3D3E932
:10A3A00000233046394625F05FFA48BB314B019314
:10A3B0001C600FE60122B0EE698AC4ED009A1A60B3
:10A3C0005DE6204613F0D6FC2B4D94F82830226B26
:10A3D0002A60002B7FF4D1AD204613F0CBFCDFF8D0
:10A3E0009CA094F82830D4F82C90CAF80090002B48
:10A3F0007FF4C9AD204613F0BDFCDAF80090C2E549
:10A400000FA3D3E900233046394624F005FEDBE5EF
:10A41000C6ED007AB0EE677A3AE700232B701FB0E2
:10A42000BDEC068BBDE8F08FFC274FF47C787E23D3
:10A430008EE700BFAFF30080182D4454FB2109C004
:10A44000182D4454FB211940648B0020608B0020A0
:10A450003333333FAE4719410000AA425C8B0020E2
:10A46000A88F0020AC620020708D0020908D00200D
:10A4700000000000A08F0020D48D00205C8D002003
:10A48000354A364938B5D2E90035D2E902042B44C1
:10A490000344D2E9040523440344D2E906402B4493
:10A4A000126A097823440344134429B12C4A2D48E5
:10A4B0001278825C032A27D02B4C2C4A2C4D126830
:10A4C0002C482D680068C3F500531A442A4412181A
:10A4D00017D4B2F5804FA8BF43F6FF722260264D15
:10A4E0002B68934200D001B938BD2449C2F3C71389
:10A4F000097802F07F02E020FFF778FB23682B60E9
:10A5000038BD00222260EAE71D4C1E4A1E4894F91D
:10A510000050127804781D48521B121B07EE902A37
:10A5200090ED007A1A4A104C1078F8EEE77A67EE50
:10A53000877AFDEEE77A17EE905A2B44236020B11C
:10A54000144D00202B601070B7E7124802680360BA
:10A5500013445B10B1E700BF34620020538D00202C
:10A56000348D0020CC620020C8620020E08C0020E6
:10A57000508E00204C68002004630020AC62002054
:10A58000548E00204C8D0020BC620020D062002040
:10A590000D6300201C8B0020F8B5304D30492A781F
:10A5A000322303FB02F3CE5C4EB32E49C2EBC2034F
:10A5B00001EB4301D3004978002948D02A4C1344C9
:10A5C00004EBC303002693F845200AB3FEF7FEFA16
:10A5D000264B1F7801263FB3FEF752FF3E46FDF79C
:10A5E00021FB2B7803EBC30304EBC3031A7E12B9E0
:10A5F00093F8212002B3BDE8F840FFF741BFD30034
:10A60000194C134404EBC30393F84520002ADDD111
:10A6100093F84620002AD9D193F84730002BD5D1A2
:10A62000124B1F78002FD7D1114B1B78022BD6D09D
:10A63000FEF798FE0126D2E793F82220002ADAD10D
:10A6400093F82330002BD6D1002ED4D1F8BDFEF7DD
:10A650004DF92A780126D300D2E700BF348D0020BF
:10A6600004600020246300209C600020D48C002023
:10A67000608D00202DE9F047354E364A337803EBE4
:10A6800043010A44125CEAB100EB80094FF0320842
:10A69000314F08FB03920446BD5C012D07EB02011C
:10A6A0004FEA800A1CD0052D0ED0062D2CD12B4947
:10A6B00091F90020033205DB2948C25C013A52B20D
:10A6C000C2540A70BDE8F087244991F90020022A9B
:10A6D000F8DC2348C25C013252B2C2540A70F1E77E
:10A6E0004A780AB3012AEDD154444FF0320A0AFBEA
:10A6F00003433B441A79D9789878FBF74BFE3378BB
:10A700000AFB03443D5DCEE70A2D05D1154A1378B7
:10A7100001331370BDE8F0870B2DD3D1114A1378A4
:10A72000013B1370BDE8F0870B79CA7889789020D7
:10A73000FFF75CFA33780C4A08FB0398155517F8B5
:10A740000850012DB844AED198F80120CAE700BFE7
:10A75000348D0020388D00208C610020548D002025
:10A76000588D00204D8D0020448D0020104A114B43
:10A770001078114A322101FB00300121837A1170D7
:10A780008B4203D0022B0DD033B17047437B027B49
:10A79000C17A8020FFF72ABA437B027BC17A9020DE
:10A7A000FFF724BA427B017BC07AFBF7F3BD00BF01
:10A7B000348D002004600020DC8C0020104A114BF6
:10A7C0001078114A322101FB00300021837B117087
:10A7D000012B03D0022B0DD033B17047437C027C98
:10A7E000C17B8020FFF702BA437C027CC17B9020B2
:10A7F000FFF7FCB9427C017CC07BFBF7CBBD00BFFF
:10A80000348D002004600020DC8C0020904B2DE96A
:10A81000F0471B8843F480735A1C1A4282B06AD0F6
:10A8200000210A4613F0010F08BF11465B1002F128
:10A830000102F7D101F13E04E4B2462C28BF4624C0
:10A840003C3C844E844A3378322101FB03239A7CBA
:10A85000032A3DD0DFF84C82D8F800307F4A804987
:10A86000804F91F800C0D2F800905168D7F800E00E
:10A870007D487E4D04FB0C145FFA8EF2994504600E
:10A880002A7016DB7A4B0121002029700A461870C5
:10A89000337878483960C3EBC30300EB43035B793B
:10A8A00023B1754C2378012B27D0227002B0BDE86C
:10A8B000F08709F10101994208DA7049BEF1010FF0
:10A8C000097804BF02222A7001292DD01146DFE742
:10A8D0006B4A1278CAB9197DDA7CDFF8C88142EA7E
:10A8E000C112D8F8003005329A42B7DAFFF73EFFBE
:10A8F000D8F80030B2E70A24A3E7012AD5D01CF02B
:10A9000015F8604B2A781860CFE7DFF89881197D39
:10A91000DA7CD8F8003042EAC1129A429EDDFFF795
:10A920004DFFD8F8003099E75749087800283DD006
:10A93000A4EB090100FB01F1DFF86CC101EB410060
:10A940008CFB00A98CFB01ACC017C917A0EBE91068
:10A95000C1EBEC11214404444C48DFF850910160F4
:10A960009942C9F8004013DB9C4221DB0222BEF170
:10A97000010F2A7028D0BEF1030FA7D11BF0D6FF1C
:10A98000434B1B68C01A142852D82A7811467FE717
:10A99000374B00210322BEF1010F19702A7095D0A8
:10A9A000BEF1030F92D17246114671E72146D3E7FB
:10A9B000BEF1010F06D0BEF1030F87D1022ADDD010
:10A9C000114665E7022A81D1294C01931BF0AEFFA5
:10A9D00094F800C0019BBCF1000F15D12D4A2E49FF
:10A9E000D2F800E008602D4A2D49C2F800C00120CD
:10A9F000C1F800C02070BEF1000F25D10221002354
:10AA00000A4623702A7043E72349224A09681268DC
:10AA1000401A9042F2D2214A1168A1B1204A11682D
:10AA200013605B1A002BE9DD3A782A7011462FE794
:10AA3000D9F80020D8F800100120FDF70FFF0246DA
:10AA40002870014624E716490B6001201060EBE7EF
:10AA5000088D0020348D0020046000201463002045
:10AA6000BB620020CC8C002074630020418D00204C
:10AA7000048D0020246300200C63002084610020EA
:10AA8000DC8C00206C8F002030620020348F00208E
:10AA9000E48C00209C620020388B0020C08D0020B8
:10AAA000B48D0020E08D00201F85EB51388F0020F1
:10AAB0002DE9F8431BF03AFF8D4D8E4A2B68116843
:10AAC0009942044600F09180DFF860828A4F8B4EF5
:10AAD00098F800101360012238603270002933D1D9
:10AAE000874B1960874B884F4FF00108002483F88B
:10AAF000008034701BF01AFF844B024628681A60ED
:10AB0000FDF748FD2146034640463B70FEF7FEFF39
:10AB10003E787F2E67D07E4F3B78B34263D07D4B2B
:10AB20001B78022B0BD07C4B2A681A607B482422AE
:10AB3000214625F0C7F97A4BC3E900441C723E70E8
:10AB4000BDE8F843FFF762BE99461BF0EFFE754A79
:10AB5000754B1278196828688A4203DAC10758BF12
:10AB600049F0010959688A4203DA810758BF49F060
:10AB7000020999688A4203DA410758BF49F004097B
:10AB8000D9688A4203DA010758BF49F008091969F0
:10AB90008A4203DAC10658BF49F0100959698A424E
:10ABA00003DA810658BF49F0200999698A4203DA1D
:10ABB000410658BF49F04009D9698A4203DA0106C3
:10ABC00058BF49F080091B6A9A4203DAC30558BF8F
:10ABD00049F4807948451BD1494B327800211960EE
:10ABE000002A7FF47FAFBDE8F883DFF81491424F6D
:10ABF000D9F800303868241A002B72D09C4219D33F
:10AC00003E4E32780023C9F80030002AEBD069E7C5
:10AC1000FDF7C0FC034648469946FDF7BBFC7F287C
:10AC2000DAD08145D8D0DFF8D89098F80030C9F84C
:10AC30000030DFE72E681BF079FE3A4A3A4B127873
:10AC4000196828688A4203DAC70758BF46F0010628
:10AC50005968914203DD810758BF46F002069968A2
:10AC60008A4203DA470758BF46F00406D9688A4289
:10AC700003DA010758BF46F0080619698A4203DA69
:10AC8000C70658BF46F0100659698A4203DA8106A2
:10AC900058BF46F0200699698A4203DA470658BF32
:10ACA00046F04006D9698A4203DA010658BF46F0E9
:10ACB00080061B6A9A4203DAC30558BF46F48076C1
:10ACC000B0429DD0FDF766FC034630461E46FDF7B8
:10ACD00061FC7F2894D0864292D0D9F800309C4203
:10ACE00081D3064E3278002A3FF47DAFFAE600BFEA
:10ACF000088D0020FC6200203C8B0020408B00204F
:10AD00002C8F0020286200204E630020E48C00205D
:10AD1000BC620020608D00200C8D00203462002079
:10AD2000648D00200E630020E08E0020288F00201C
:10AD3000102928BF1021012900F0F00038BF01219F
:10AD4000C0282DE9F04102F07F0535D0D0280BD185
:10AD5000234E3378012B09D1224B1B6833B10139C3
:10AD600061F02F04E4B218E0BDE8F0811E4F7B6D66
:10AD70000139186861F02F040368E4B21B682146AA
:10AD800098477B6D1868036829461B689847337895
:10AD90001BB9164B1B78022BE6D0154E736D186845
:10ADA000036821461B699847736D18680368294634
:10ADB0001B69BDE8F0411847094E3378012B07D1D4
:10ADC000084B1B6823B1013961F03F04E4B2E4E7AA
:10ADD000054F7B6D0139186861F03F04CCE700BF77
:10ADE00074610020C48C002058680020686900202D
:10ADF0003C6700202DE9F04F6E4FDFF8EC813C7886
:10AE0000322303FB048385B09B78012B064600F0B8
:10AE1000A180DFF8D891C4EBC40309EB430393F896
:10AE200006A01AF0010F51D0634B93ED020AB5EE64
:10AE3000C00AF1EE10FA04DD604BD3ED007A30EE7B
:10AE4000270A9FED5F7ADFED5F7AB4EEC70AF1EE75
:10AE500010FA88BFB0EE470AB4EEE70AF1EE10FA36
:10AE6000B8BFB0EE670A03A8CDED037A19F08CF9EC
:10AE7000554BF0EE407AFEEEEC7A1B78CDED017A80
:10AE8000002B42D0DDED037ADFF864B1FDEEE77A06
:10AE9000DBF8003017EE905A85F30705AB4240D03F
:10AEA000322202FB048494F82F20002A71D1474CEF
:10AEB0002178EAB2D020FFF73BFF3B78CBF8005077
:10AEC000C3EBC30309EB430999F806A01AF0020F7C
:10AED00018D03D4B1B78ABB13D4BDC6B002C5FD1E8
:10AEE00023463C4D1C442B6884F307049C4200D14C
:10AEF00046B1364B384A19781278E3B2A020FEF7F3
:10AF000075FE2C6005B0BDE8F08F344A1268642AE3
:10AF1000B8DCDFF8DCB001931D46DBF80030AB4253
:10AF2000BED1322303FB048494F82F30002B3AD097
:10AF3000DFF8C080019AD8F80030934236D0234C15
:10AF40009DF8042020785721FBF724FA019BC8F8CC
:10AF50000030ADE71E4BDD68C5B92B46DFF8989091
:10AF60001D44D9F8003085F30705AB4202D1002E0D
:10AF70003FF44FAF322303FB0484EAB261792079B6
:10AF8000FBF708FA3C78C9F8005042E7144B1B68FD
:10AF9000E4E7EB1A0F331E2B89D8DFF85880CEE791
:10AFA000104B1B689DE7002E90D080E7002EC6D185
:10AFB0008CE700BF348D0020208D0020488E0020BB
:10AFC0000000FE4200000000538D0020AC62002013
:10AFD0005C620020AC8D00204C8D0020E08D0020B4
:10AFE000448E00204C8E002004600020246300204A
:10AFF000A08D0020A48D00209C8D00202DE9F04F15
:10B00000BC4DBD4C2B78BD4EC3EBC30204EB4202DA
:10B0100030789279002A83B014BF4FF003094FF0C3
:10B020001009DA0000283BD0B549DFF8F4C2C95C4A
:10B03000B44F0329B449097800F0E6809CF900E098
:10B0400097F800C0A1EB0E018C4502D0BCF1000FB7
:10B050002AD1DFF8F88298F80030012B00F0A080A8
:10B060003A78002A00F0AA802B78C3EBC30104EBE6
:10B0700041046178002940F09C80A449CB5C032BFB
:10B0800000F08681A24B1B78032B06D0A14B1A68D7
:10B0900040F2FF139A4200F0918003B0BDE8F08FB8
:10B0A000984F39780029F8D0DFF8A08298F800107E
:10B0B0000129A2EB030104EB4101497840F2BB8076
:10B0C000002940F0BA80D11A04EB410149790029E6
:10B0D00000F0D880002800F0CC80DFF82CA29AF88D
:10B0E00000100191D21A04EB420292F809C0BCF19F
:10B0F000000F00F056810122DFF84092DFF834B2F1
:10B100000092854A1278002A00F09F80834A1268D4
:10B11000002A00F09A80DA008149387891F800C05E
:10B12000D31A04EB430300EB0C02187ADFF820C2B9
:10B130000123D2B28AF800208CF800303370002846
:10B1400040F01E81774B9BF800101B789020FEF793
:10B150004DFD009B002B40F00B811BF0E7FBDFF85F
:10B16000F4A1CAF800001BF0E1FB6F4A2B78DAF873
:10B1700000101160322202FB0399DFF8DCC199F85C
:10B1800012306A4A3978CCF80000022B117000F0B6
:10B19000E780307800287FF45EAF03B0BDE8F08F21
:10B1A0002B78C3EBC30204EB4204627832B13A78E5
:10B1B00022B15F49097800297FF45FAF5D4B524AA5
:10B1C0001978127840238020FEF710FD2B785A4A18
:10B1D00003EBC30102EBC102D27D012A00F08380A0
:10B1E000564A322101FB032300229B7C3270022B42
:10B1F0007FF453AF524B1B78002B3FF44EAF03B09C
:10B20000BDE8F04FFFF7DABA9CF9008097F800C06C
:10B21000DFF848E1A1EB0801ACEB010100299EF841
:10B2200000E0B8BF49428E453FF713AFBCF1000FB5
:10B230007FF43AAF0DE70029ACD03D4909780029E9
:10B240007FF441AF0028A8D005E7322202FB039229
:10B250009278012A08D0C3EBC30104EB4101DA0064
:10B260008879002800F098800120FFF7C3FD2B7833
:10B2700051E71BF05BFB334B1B68C01A4845307825
:10B2800088D32B78DFF880A09AF80020019200285C
:10B2900040F0B180DFF8A490322202FB0392927852
:10B2A000002A40F0A480C3EBC30104EB4101DA00A3
:10B2B0004979002940F09580D11A04EB4101897940
:10B2C000C80700F1838089077AD4DFF86CB01A448C
:10B2D0000BEBC202D27D012A00F08F800022DFF842
:10B2E00054B000920DE71BF021FB174A2B78106039
:10B2F00076E700BF348D002024630020538D0020AA
:10B30000CC620020BC6200204C8D0020B86200207E
:10B3100084610020088D002074610020C48C00200E
:10B32000548E00207B630020908D0020006300205D
:10B330008C8D0020AC6200209C6000200460002006
:10B34000DC8C00206C8F0020C88B0020418D0020F9
:10B350000D630020708D0020488D0020AD6200201C
:10B36000394B1B78002B7FF414AFFFF7FFF910E780
:10B37000019A9BF8001040238020FEF737FCECE692
:10B38000FFF70AF931493A780B781A44D2B2D9E674
:10B390003F2A7FF477AE11E7497901297FF4BCAEEB
:10B3A00062E7DFF8B8B0019A9BF80010CDF800C052
:10B3B00040238020FEF71AFCDFF8A4902B78A0E64B
:10B3C0000320FEF7EDFA2B78DA007EE70220FEF785
:10B3D000E7FA2B78C3EBC30104EB4101DA0089796A
:10B3E00071E70120FEF7DCFA2B78DA0064E7FEF75C
:10B3F000D7FA2B7857E7DA0074E61BF097FA2B7828
:10B40000134A03EBC3010BEBC10BD2F800C09BF84E
:10B410001920C2EB4211A0EB0C0002EB8102B0EB51
:10B42000420F0CD90B490C4AD1ED007ADFF82CB051
:10B43000F1EE677AC2ED007A0022009261E6002206
:10B44000DFF818B000925CE6DC8C0020548E0020FF
:10B45000C88B0020C88C0020A48F0020AC62002084
:10B4600004600020000000002DE9F041C44DC549F2
:10B470002B7803EBC30201EBC20182B091F82200EA
:10B48000DA0018B991F8230000282CD0BE4CBF4F29
:10B490002068BF4E322101FB03618978002940F00A
:10B4A000D080BC4ED11A06EB41014979002940F009
:10B4B000C280D31A06EB43039B79D80777D4990748
:10B4C00033D40020FFF796FC23683B60B24B1A6828
:10B4D000D20717D4B149B24A0968116001221A6033
:10B4E00002B0BDE8F08191F821100029CED1A64C20
:10B4F000A64F20683968091A0029B8BF49420129B6
:10B50000C7DCE3E7A64CA54D23682A689B1A002BED
:10B51000B8BF5B42022BE3DD01210020FEF7F6FA03
:10B520002B68236002B0BDE8F0819E4BDFF88C826F
:10B530001B682068D8F83420A0EB8300D8F830309E
:10B5400020EAE070B0EB830F4FEA8301C0F0BF80C8
:10B550009200904228BF10464FF48063009300236E
:10B560001BF0D2F9904BDA78012A034600F0BE8036
:10B57000022A00F0C1808D49DFED8D6A8A79C87991
:10B580008C49801A03FB00F307EE903A07EE102A6D
:10B59000F8EEE77AB8EEC77AA7EEA67AF0EE477A29
:10B5A000BCEEC77AC1ED037A88ED0F7A89E77D4B4F
:10B5B000DFF808821B682068D8F82420A0EB8300FD
:10B5C000D8F8203020EAE070B0EB830F4FEA830117
:10B5D0007AD39200904228BF10464FF480630093C4
:10B5E00000231BF091F9704B9A78012A034677D01B
:10B5F000022A00F0E5806D49DFED6D6A0A7948792D
:10B600002978801A03FB00F307EE903A07EE102A20
:10B61000F8EEE77AB8EEC77AC1EBC101A7EEA67AD9
:10B62000644A06EB4106FCEEC77AB37982ED027AF2
:10B63000C8ED0B7A43E70120FEF7B2F92B78DA0068
:10B6400037E7584BDFF874811A68D8F80030A0EB60
:10B65000820020EAE070B0EB830FD8F804204FEAB4
:10B6600083012ED39200904228BF10464FF480638E
:10B67000009300231BF048F94B4B1A78012A03462C
:10B6800028D0022A57D04949DFED496A0A7848781C
:10B69000484E801A03FB00F307EE903A07EE102A9B
:10B6A000F8EEE77AB8EEC77A2B78A7EEA67ADA003A
:10B6B000F0EE477ABCEEC77AC6ED007A88ED037AE1
:10B6C000EFE608469200D1E70846920085E7084673
:10B6D000920041E700FB00F003FB00F31B15D2E7EB
:10B6E00000FB00F003FB00F31B1584E700FB00F0F8
:10B6F00003FB00F31B153EE700283FF43CAF23F0AB
:10B70000D7FD41EC100B18F0BBFD1BA3D3E90023C0
:10B7100051EC100B23F036FE24F02CF907EE900AC2
:10B720009FED257A67EEA77A67EE877AFDEEE77AD6
:10B7300017EE903A1FE70028A5D023F0B9FD41ECA1
:10B74000100B18F09DFD0CA3D3E9002351EC100B56
:10B7500023F018FE24F00EF907EE900A9FED167AFA
:10B7600067EEA77A67EE877AFDEEE77A17EE903AF2
:10B7700089E700BFAFF30080FE822B654715F73FD6
:10B78000348D00209C600020588E0020B08D002059
:10B7900004600020246300207C6A0020E08D0020EB
:10B7A000488B002014630020D08C0020C062002051
:10B7B0000000803A208D00200AD723415C620020DF
:10B7C00000283FF418AF23F073FD41EC100B18F084
:10B7D00057FD0CA3D3E9002351EC100B23F0D2FD4D
:10B7E00024F0C8F807EE900A9FED057A67EEA77A75
:10B7F00067EE877AFDEEE77A17EE903AFBE600BF38
:10B800000AD72341FE822B654715F73F036810B521
:10B8100004460BB17430984794F87530803B7F2B09
:10B8200043D8DFE803F049424242424242424242A8
:10B8300042424242424255424242424242424242D5
:10B8400042424242424259424242424242424242C1
:10B850004242424242425D424242424242424242AD
:10B860004242424242426142424242424242424299
:10B870004242424242426B4242424242424242427F
:10B880004242424242426F4242424242424242426B
:10B89000424242424242839098A842424342ACB064
:10B8A000B4B8BC42C040236D1BB910BD636B002B04
:10B8B000FBD0BDE810401847A368002BF5D094F8E2
:10B8C000772094F8761094F87400BDE8104018477B
:10B8D000E368002BF3D1E8E72369002BEFD1E4E71D
:10B8E0006369002BEBD1E0E7A369002BDDD094F86E
:10B8F000761094F87400BDE810401847E369002BF7
:10B90000F5D1D2E7226A002ACFD094F8771094F8C4
:10B91000763094F87400C90101F47E5103F07F037E
:10B920001943BDE81040A1F500511047636A002B90
:10B93000BBD0B4F87610802904F1780028BF8021AC
:10B94000BDE810401847A36A002BAED094F87600EB
:10B95000BDE810401847E26A002AA6D094F8773074
:10B9600094F87600DB0103F47E5300F07F00BDE81D
:10B97000104018431047236B002BE7D195E7A36BCA
:10B98000002B96D191E7236C002B92D18DE7E36BCE
:10B99000002B8ED189E7636C002B8AD185E7A36CDD
:10B9A000002B86D181E7E36C002B82D17DE700BFBD
:10B9B00038B5436D044618680368DB68984700286B
:10B9C00045D094F80D31626D23F0010384F80D31F8
:10B9D000106803681B699847C3B2FD2B37D0626EAD
:10B9E000BABB94F9591094F8592084F85B300029B7
:10B9F00018DA02F10C01C9B2012913D9FD2A11D0BC
:10BA0000EF2A94BF02F0F001114601F0CF05802D1E
:10BA100000F09C80D02900F0998001F0DF01C0295E
:10BA200000F0948040B20028C0F2788294F90D01B1
:10BA3000636840F0010084F80D0103B198470020CD
:10BA400084F85900C4E9180038BD0132626600204C
:10BA500038BD010653D494F85B10F02900F09681AC
:10BA6000F72900F09381A11881F85B30216E4B1EFD
:10BA70009A42EAD394F85B30F02B00F09881F72BD0
:10BA800000F095811A0640F1FE81F42B00F0FB8155
:10BA9000F52B00F02682FD2B00F0F581EF2B94BFF3
:10BAA00003F0F0021A46802A84F8752006D0902A06
:10BAB00004D0B02A02D0A02A40F0278203F00F0061
:10BAC00094F85C5084F876500130032984F87400AF
:10BAD00000F00482002100200125B02AC4E91800EA
