:020000022000DC
:1060000000000420B94F0400F94F0400FB4F0400C6
:10601000FD4F0400FF4F0400015004000000000089
:10602000000000000000000000000000354F0400E8
:106030000550040000000000554F04000950040002
:106040000D5204000B5004000B500400299503006E
:106050000B5004000B5004000B5004000B500400C4
:106060000B5004000B5004000B5004000B500400B4
:106070000B5004000B5004000B5004000B500400A4
:106080000B500400854C04000B5004000B5004001E
:106090000B5004000B500400152A03000B500400A1
:1060A0000B5004000B5004000B5004000B50040074
:1060B0000B5004000B500400000000000000000022
:1060C0000B5004000B5004000B5004002157040037
:1060D0000B5004000B5004000B500400CD4F030084
:1060E0000B5004000B5004000B5004000000000093
:1060F000000000000B50040000000000995704004D
:10610000000000000000000000000000000000008F
:10611000000000000000000000000000000000007F
:10612000000000000000000000000000000000006F
:10613000000000000000000000000000000000005F
:10614000000000000000000000000000000000004F
:10615000000000000000000000000000000000003F
:10616000000000000000000000000000000000002F
:10617000000000000000000000000000000000001F
:10618000000000000000000000000000000000000F
:1061900000000000000000000000000000000000FF
:1061A00000000000000000000000000000000000EF
:1061B00000000000000000000000000000000000DF
:1061C00000000000000000000000000000000000CF
:1061D00000000000000000000000000000000000BF
:1061E00000000000000000000000000000000000AF
:1061F000000000000000000000000000000000009F
:10620000F1EE103A43F08073E1EE103A704700BFB0
:1062100010B5054C237833B9044B13B10448AFF3E0
:1062200000800123237010BDD46500200000000011
:106230003C28050008B5034B1BB103490348AFF3E5
:10624000008008BD00000000D86500203C28050043
:10625000154B002B08BF134B9D46A3F5803A002138
:106260008B460F461348144A121A25F053FE0F4B63
:10627000002B00D098470E4B002B00D098470020F1
:10628000002104000D000D48002802D00C48AFF397
:10629000008025F0D5FD200029001EF0E5FE25F048
:1062A000A9FD00BF0000080000000420000000005D
:1062B00000000000D465002090A200200000000033
:1062C0000000000042DF7047704700BF704700BF0A
:1062D00010B5034B0360044613F0B6FA204610BD18
:1062E00018FB04002DE9F0419DF81840013CE4B290
:1062F0000F2C21D80D4649B200291DDA1F46436DE7
:1063000006461868036821431B68C9B2904698473F
:10631000736D1868036808F07F011B6805F0EF05CE
:106320009847C02D08D0736D1868036807F07F0187
:106330001B68BDE8F0411847BDE8F0812DE9F04148
:106340009DF81840013CE4B20F2C21D80D4649B20B
:1063500000291DDA1F46436D06461868036821436D
:106360001B69C9B290469847736D1868036808F0B6
:106370007F011B6905F0EF059847C02D08D0736DAC
:106380001868036807F07F011B69BDE8F0411847F2
:10639000BDE8F0812DE9F047284E3378012B00F05D
:1063A0000F0001F07F0502F07F071FD1244B1B88EF
:1063B0000138E3B1C3B20F2B3ED863F04F045FFA4C
:1063C00084F8204C636D1868036841461B69984740
:1063D000636D1868036829461B699847636D1868E0
:1063E000036839461B69BDE8F04718470138C3B256
:1063F0000F2B21D8DFF85490D9F854201068026888
:1064000043F0B0081268414663F04F049047D9F852
:1064100054301868036829461B689847D9F85430E7
:106420001868036839461B6898473378002BC8D131
:10643000054B1B78022BC2D1BDE8F087F860002025
:10644000FA6B0020F0650020186800200867002023
:1064500030B5014689B02548254D0CF0D3FA00230C
:10646000202269460446CDE90033CDE90333CDE966
:106470000533029307930AF013FC20460AF0FAFA58
:1064800024F03EFF1B4B002224F0A4FF25F07AFAF3
:10649000194B28801B7823B9184B02229A7009B037
:1064A00030BD48226A210720FFF774FF2A7802EBEB
:1064B000820202EB8202920002F07C027721072026
:1064C000FFF768FF49226A210720FFF763FF2B8847
:1064D000642202FB03F2C2F3C71277210720FFF701
:1064E00059FF064B02229A7009B030BDCC6E0020D5
:1064F000FA6B00200000E43FF86B0020586B00208E
:106500000E4B0F4A1B7810B50024148003B910BD40
:1065100048226A210720FFF73DFF22467721072006
:10652000FFF738FF49226A210720FFF733FF224691
:106530007721BDE810400720FFF72CBFF86B002043
:10654000FA6B00202DE9F04F704C714F714E87B0FF
:10655000204614F059FD704AA36A70493B600191CE
:106560006F4FE56A6F4C07CA9B103B604FF4807316
:10657000ADF80830256003AD85E80700029A674949
:10658000304613F095F8002102201FF0C5FF664B3E
:106590004FF4207043F0010398470021304613F078
:1065A00023F900240134E4B22146304613F01CF9EB
:1065B0000C2C05F8010BF5D1012102201FF0ACFFD6
:1065C000544813F0D7F89DF816209DF815505749F8
:1065D0009DF811E09DF80E809DF80CB091F800A098
:1065E0009DF80D609DF80F709DF81090504B940031
:1065F0004FEA840C0CF4407CA9004CEA0E0C4FEAE4
:10660000851E88000EF4407E01F4407141EA0B0BB8
:106610004EEA080E29029DF81280C3F800B09501D9
:1066200000F4407001F4407105F440753043394383
:1066300045EA08059DF813609DF814809DF81770D1
:106640005860120204F4407402F4407244EA0904EF
:10665000324348EA0728C3E9044CC3E902E1C3E92D
:106660000652C3F82080BAF1000F4BD1DFF8C49076
:10667000D9E90067C01BD9F80870BBEB060648BF14
:106680005646AEEB07070028B8BF5046002FC3E9B7
:106690000060B8BF00209F60B8BF9860D9F80C00B8
:1066A000091A0029D960BCBF0021D960D9F810109F
:1066B000641A002CB8BF00211C61B8BF1961D9F859
:1066C0001410ACEB010100295961BCBF00215961D4
:1066D000D9F818106D1A002DB8BF00219D61B8BF00
:1066E0009961D9F81C10521A002ADA61BCBF002245
:1066F000DA61D9F82020A8EB0202002A1A62BCBF96
:1067000000221A6207B0BDE8F08F00BF306A002097
:10671000506E002048840020E4ED040080841E00B8
:10672000E86C0020546D002070F60400F26B00202D
:10673000046E0020BC6D00202DE9F04F2DED068B7E
:106740009DB013AB0AAA01A9CB48DFF89C93DFF8F0
:106750009C83CA4FCA4ECB4DCB4C13F037FBCB4B6F
:10676000DDED117A93ED001AC94BCA49CA4AC3ED4F
:10677000007ACA4BD2ED000AD1ED006A9DED0F0AF6
:106780009DED107AC64AC749DB6882ED000ADDED4F
:10679000061A9DED072ADDED082AC34A81ED007A2D
:1067A00030EE660A77EE600A37EEC11A189989ED65
:1067B000000ADB01C8ED000A87ED001AC6ED001AD9
:1067C00085ED002AC4ED002A116004D5B74B1A6884
:1067D000D00700F1BD811DF051FBB54B99ED000ACA
:1067E000D8ED000A97ED001AD6ED001A95ED002AB3
:1067F000D4ED002AA0FB0301830A43EA815307EE8C
:10680000103AAC4C9FEDAC6AD4ED0F7ADFEDAB8A59
:10681000DFEDAB6AB8EE477A204677EE677A84ED13
:106820000E7A67EE867A84ED0F7AF4EEE87AF1EE6E
:1068300010FA98BFF0EE678AF4EEE68AF1EE10FAED
:10684000B8BFF0EE668AB0EE683AC4ED107A14F084
:10685000ABFA94F82830002B00F09381994D236B0C
:106860002B60DFF88CA2D4F82C90CAF80090964BDD
:10687000D4ED0D7A93ED007A944B37EE877AC3ED21
:10688000007A17EE100A17EE104A24F04BFD74A39D
:10689000D3E9002306460F4625F02CF8002800F027
:1068A0005C8171A3D3E900233046394624F0DAFB3A
:1068B00025F088F8DFF83CB20446CBF800004846E3
:1068C00024F030FD66A3D3E9002324F0CDFB25F0AE
:1068D00079F8814624F026FD61A3D3E9002306461A
:1068E0000F4625F007F848B15FA3D3E900233046EF
:1068F000394624F0B7FB25F065F88146286880F01A
:10690000004024F00FFD5AA3D3E9002324F062FDD8
:1069100025F058F809EE900A89F00040C5ED009A7C
:1069200024F000FD52A3D3E9002324F053FD25F009
:1069300049F809EE100A84F000408AED009A24F02C
:10694000F1FC4BA3D3E9002324F044FD25F03AF8F1
:106950005F4B604C1A68CBF80000D1070AEE100AB2
:1069600040F1088194ED008A5B4E5C4F96ED007A11
:10697000D7ED007A39EEC77A7AEE677AB5EEC07A4B
:10698000F1EE10FAF5EEC07A4CBF01220022F1EED2
:1069900010FA4CBF012300239A42B5EEC09A00F0D2
:1069A000AD80F1EE10FA40F3AD80B0EEC99AD8F8A0
:1069B000000024F0B7FC2EA3D3E9002324F00AFD45
:1069C000804618EE900A894624F0ACFC02460B463D
:1069D0004046494624F0FEFC804618EE100A8946DF
:1069E00024F0A0FC02460B464046494624F03CFBFE
:1069F00024F0E8FF08EE100AF5EEC09AF1EE10FA66
:106A0000B5EEC08A4CBF01220022F1EE10FA4CBF55
:106A1000012300239A4287ED00AAC6ED009A206068
:106A200000F09380DFED2E7A68EE277A9FED327AC0
:106A30002C4BB4EEC79AF1EE10FAADBF002238EE3F
:106A4000678AC3ED007A1A6084ED008A85ED008ABA
:106A50001DB0BDEC068BBDE8F08F00BFAFF300802A
:106A6000182D4454FB210940182D4454FB21194092
:106A7000F8C1631ADCA54C40586D0020286C00203A
:106A8000206A0020246A0020286A00202C6C002044
:106A9000D46C00201C6C0020246C0020F0ED00E081
:106AA000CC6C0020D06C002000670020001000E0BB
:106AB00040420F00F46C0020BD3786350AD7233CD6
:106AC0006F12833ADC6C0020B06E0020FC6B00205B
:106AD0002C690020106A00200C6A0020086A00203F
:106AE000CDCCCC3C046A0020186C0020206C002027
:106AF000686C0020AC6E00200000AA42F1EE10FA93
:106B00007FF653AF5FED047AB0EEC99AB4EEE79A20
:106B1000F1EE10FABFF64BAFB5EEC08AF1EE10FA07
:106B2000F5EEC09A4CBF01220022F1EE10FA4CBFE4
:106B3000012300239A4287ED00AAC6ED009A7FF454
:106B400071AF2B4B00221A607EE7DFED2A7A6DE7EA
:106B50005B689B0907EE103A53E621A3D3E90023B3
:106B60003046394624F0A8FE50BBDFF890B0CBF891
:106B70000040A4E60122B0EE698AC4ED009A1A60D2
:106B8000F2E6204614F0D2F81B4D94F82830226B20
:106B90002A60002B7FF465AE204614F0C7F8DFF8BA
:106BA00060A094F82830D4F82C90CAF80090002BFC
:106BB0007FF45DAE204614F0B9F8DAF8009056E69E
:106BC00009A3D3E900233046394624F04DFA24F0D6
:106BD000F9FEDFF828B00446CBF800006FE600BFEE
:106BE000182D4454FB2109C0182D4454FB21194091
:106BF000046A002000000000DC6C0020AC6E002065
:106C0000686C00202DE9F043B84DB94C2B785A013F
:106C10002DED028B04EB4311A35C83B06BB3B54F36
:106C2000DFEDB58AD7ED007A9FEDB48ACB79097A8A
:106C3000009177EEA87A224467EE887A8B4294BF5F
:106C400088460E4692F806C05179FDEEE77A41F289
:106C5000883917EE900A09FB0CF209FB01F194BF89
:106C60001E4698461BF096FEB04280F28B80A44FE1
:106C70003B78B3422B787BD15A01A1184B7863B390
:106C8000A04FDFED9D8AD7ED007A9FED9C8ACB7AED
:106C9000097B009177EEA87A224467EE887A8B42CE
:106CA00094BF88460E4692F80AC0517AFDEEE77A04
:106CB00041F2883917EE900A09FB0CF209FB01F149
:106CC00094BF1E4698461BF065FEB0427CDA8E4F9C
:106CD0003B78B3422B7841D15A01A1188B7853B33A
:106CE0008A4FDFED8B8AD7ED007A9FED848ACB7BCC
:106CF000097C009177EEA87A224467EE887A8B426D
:106D000094BF88460E4692F80EC0517BFDEEE77A9E
:106D100042F2107917EE900A09FB0CF209FB01F11F
:106D200094BF1E4698461BF035FEB0426EDA794F8E
:106D30003B78B34204D103B0BDEC028BBDE8F083D5
:106D40002B7804EB43133246997DD87CFFF722FB66
:106D50003E7003B0BDEC028BBDE8F08304EB43133F
:106D60003246597D987CFFF715FB2B783E70B3E7D0
:106D700004EB43133246197D587CFFF70BFB2B784D
:106D80003E7079E7D7ED007A2B7877EEA87A04EB9E
:106D9000431367EE887A9A795979187A0090FDEE54
:106DA000E77ADB7917EE900A09FB02F209FB01F1A1
:106DB0001BF0F0FD40454ADD514F3B784646B3425B
:106DC0002B783FF459AFD3E7D7ED007A2B7877EEE5
:106DD000A87A04EB431367EE887A9A7A597A187B7B
:106DE0000090FDEEE77ADB7A17EE900A09FB02F2DB
:106DF00009FB01F11BF0CEFD404542DD424F3B78DF
:106E00004646B3422B783FF467AFA7E7D7ED007A49
:106E10002B7877EEA87A04EB431367EE887A9A7B97
:106E2000597B187C0090FDEEE77ADB7B17EE900A29
:106E300009FB02F209FB01F11BF0ACFD40453ADD14
:106E4000344F3B784646B3423FF475AF78E7D7ED11
:106E5000007A2B7877EEA88A04EB431328EE888A11
:106E60009A795979187A0090FDEEC87ADB7917EE95
:106E7000900A09FB02F209FB01F11BF08BFDC6B27F
:106E8000F5E6D7ED007A2B7877EEA88A04EB43136A
:106E900028EE888A9A7A597A187B0090FDEEC87A93
:106EA000DB7A17EE900A09FB02F209FB01F11BF0F5
:106EB00071FDC6B20BE7D7ED007A2B7877EEA88A82
:106EC00004EB431328EE888A9A7B597B187C009048
:106ED000FDEEC87ADB7B17EE900A09FB02F209FB94
:106EE00001F11BF057FDC6B221E700BF4B6C00203B
:106EF00098600020DC6C00200000B44200007A445E
:106F0000146A0020686C0020156A0020AC6E002016
:106F100000003443166A0020F8B504460E461BF004
:106F20004BFD334B1B78002B40D0054604B3314F4B
:106F30003B78002B3BD1304B304C186001223A702B
:106F4000E6B1217800294FD01B68EB1A192B15D90F
:106F50002B4E32687221C2F3C7120720FFF71AFACC
:106F6000327873210720FFF715FA00233B7005E004
:106F70003EBB204F3B78002B30D1204C2378ABB167
:106F8000204B1868281A192810D91F4D2A68742117
:106F900002F07F020720FFF7FDF92A687621C2F38D
:106FA000C7120720FFF7F6F900232370F8BDAEB132
:106FB000124C237883B9134A0F4B106001222270C0
:106FC000C2E70E4C0B4F23783A7853B90D49012391
:106FD00008602370002AE9D0074BB5E7064B074C41
:106FE000B2E7002ACCD0F7E7064922700860ABE789
:106FF000F86B00205069002054690020516900207E
:10700000346C002058690020E86C002070B49E4B5E
:107010009E4A1B78D35C462B4FD8DFE813F05A000A
:1070200084001F01C4005A004700F500FC0006015F
:10703000B8008400290155017D01870194019C015C
:10704000A400A4004E005A005A00AC014E004E00AD
:107050004E004E004E004E004E004E004E004E00C0
:107060004E004E004E004E004E004E004E004E00B0
:107070004E004E004E004E004E004E004E004E00A0
:107080004E004E004E004E004E004E004E004E0090
:107090004E004E004E004E004E004E004E004E0080
:1070A0004E004E00530053005300530040087849EF
:1070B000784BC2B218708A5C0AB94FF0FF321046A2
:1070C00070BC7047734A744B40081070C0B21A5CB1
:1070D000F5E7704A714CC0F38501042B117014F868
:1070E000112000F06E81152B40F07D81132900F0F6
:1070F0008781332908BF4C22860700D50132684DAD
:107100002D68A842DBD104EB4101664C497821701F
:10711000142BD4D1C0F346007F2800F06F812028C3
:1071200008BF4822CBE7C50540F152815C49594A66
:107130000E685D4CC0F3460186421170C0F34705EE
:1071400014F8112004D104EB41015648497801702C
:107150000A2BB4D105F07D05482D00F03781682D4C
:1071600008BF4522ABE74B4CC0F34702C0F3850193
:10717000FF2A217000F03581C50540F120814B4A7E
:10718000122B525C9BD1472A08BF462297E7C0F3D7
:107190008503474A3F49D25C0B70C0F34700FF2884
:1071A00008BF3D228BE7C20540F10981C0F34700CB
:1071B000431C034200F01D8100231A4610F0010F0A
:1071C00008BF1346401002F10102F7D1DBB2314A89
:1071D0007F2B137000F00581002B00F02781012B1D
:1071E00000F02681022B00F02781032B00F026817E
:1071F000042B00F02581052B14BF072206222D4BFE
:1072000003EB42035A785AE7224A2B4BC0F346005D
:1072100010701A5C53E7C30540F1D8801D4A274B14
:10722000C0F3460010701A5C49E710F4C07F00F00C
:10723000AA8043085A2B00F0ED804C2B00F0EC8024
:107240001F49144C03F07F0222708A5CC1053FF590
:1072500036AF2C2B3FF433AF0C3230E7C40540F18E
:10726000AE800C4A174BC0F3460010701A5C26E73C
:10727000C60500F19B8003090E2B00F0D5800506A2
:1072800040F1A48048221AE74B6C0020A461002042
:1072900030F00400AF6D00201C68002050F40400A2
:1072A000346C0020806E002030F3040070F2040083
:1072B000B0F10400D0F40400F0EE040030F104005A
:1072C000F0F10400F0ED04006149624AC0F3850367
:1072D0000B708107D25C15D52F2A3FF4F0AE342A0B
:1072E00000F09080352A00F09D80362A00F0A280C0
:1072F0003B2A00F0A7803C2A00F0A6803D2A00F03F
:10730000A5800132C3057FF5DAAE312A7FF7D7AE0B
:1073100002F10C031A46D2E640084F494C4BC2B268
:1073200018708A5C002A7FF4CAAEC6E6C0F3460332
:1073300047494A4A0B70C605D25C7FF5C0AE312A78
:107340007FF7BDAE88E7C0F34600454A404B125C6C
:1073500018700432B3E6C0F30712C0F3800302F0E2
:107360001800520002F006020343134338493D4A15
:107370000B70D25CA3E6C40511D410F0800F14BFCB
:107380004E224C229BE610F0FF0F3FF452AF400814
:107390002C2843D0302814BF4C224D228FE62C4A93
:1073A000314BC0F3460010701A5C88E604062FD5F6
:1073B000274A2E4BC0F3450010701A5C7FE64A2224
:1073C0007DE685077FF59BAE013A98E6472276E693
:1073D000274B1B688342F2D1264B02221A704A22A5
:1073E0006DE63C226BE6224D2D6885427FF490AE1F
:1073F00089E6174B7F221A703C2260E63D225EE64A
:107400004B2279E64023C1057FF559AE1A4656E670
:10741000452254E6582252E6562250E60C4B4B22A7
:1074200018704CE64123EEE7462248E60122E6E6E4
:107430000222E4E64223E6E70322E0E60422DEE657
:107440000522DCE64723DEE74823DCE74923DAE7C9
:10745000AF6D002070EF040060F50400B0F204008E
:1074600070EE040030F40400E0F40400B0EF040017
:10747000346C0020806E002030B4854B854A19782A
:1074800002EB41120023907E01285AD08248834AA1
:107490000578834C1278247882482B4403EB43030D
:1074A00002EB8303804ADBB2032C525C037000F0D2
:1074B0008E807E4C2478032C2BD0022C0CD002F032
:1074C000F701052901D1013B03700C2A1AD1037879
:1074D0000233037030BC704712F0FB0F40F0AA80FB
:1074E00001EB4105724C01EB8501724D0C4429689A
:1074F000E478C1F300218C4204D10C33DBB2052ABD
:107500000370E0D0092AE5D10378053B037030BC55
:107510007047012ADED00A2ADCD001EB4105644C19
:1075200001EB8501634D0C442968E47801F0010109
:10753000A142C4D1072A00F09E800C33DBB2037055
:10754000BDE7937F002BA1D05B4A5C4C92ED017AA2
:10755000D4ED007AB8EEC77AF4EEC77AF1EE10FAFD
:1075600000F18E80012B2FD092ED027AB8EEC77A0F
:10757000F4EEC77AF1EE10FA00F18480022B23D0EA
:1075800092ED037AB8EEC77AF4EEC77AF1EE10FA0C
:107590007AD4032B18D092ED047AB8EEC77AF4EEC1
:1075A000C77AF1EE10FA69D4042B67D092ED057A10
:1075B000B8EEC77AB4EEE77AF1EE10FA66DC052B86
:1075C00018BF00237FF462AF013BDBB25EE70F2AF6
:1075D00027D03B4C0C2A24783ED00E2A42D0082AD1
:1075E00018D14B2C1DD9314C24780C33DBB2032C31
:1075F00003707FF46FAF01EB41052D4C01EB85016A
:107600002C4D0C442968E47801F001018C427FF490
:1076100061AF92E73E2C28D0072A1FD10733DBB297
:107620000370224C2478032C3FF477AF022C7FF4B4
:1076300046AF51E7062A7FF442AF01EB41051C4CEF
:1076400001EB85011B4D0C442968E478C1F300214E
:107650008C427FF43FAF50E73D2CE2D90C33DBB2D4
:10766000037026E7492CF9D8DBE7012A3FF432AF53
:107670000A2AD1D12EE7073303702BE70423A3E7AF
:107680000346A1E702239FE703239DE705239BE72A
:107690004B6C002098600020636C0020616C00201F
:1076A000556C0020506D0020A46100200D61002069
:1076B00008620020346C0020806C0020686C002080
:1076C000A86100202DE9F04FAF4BB04C93F800803B
:1076D000AF4B94F800A0D3F80090AE4BAE491F78A2
:1076E000AE4BAF4A1B78AF4809780478AE4DAF482F
:1076F00087B00393C8EBC803C3EBC30302EB030BD0
:107700006FEA0A0302930491002306E0002245F881
:1077100023200133092B00F0878050F8041FA14279
:10772000F4DDA34E9BF826E016F8086001960122CE
:107730009A40B44642EA0902BCF1460F48D8DFE855
:107740001CF08300B2000B02DA0183005601F50041
:10775000FD00C801B901B200E70087016C017601A4
:1077600007011101D200D2004700830083004B01C2
:1077700047004700470047004700470047004700D1
:1077800047004700470047004700470047004700C1
:1077900047004700470047004700470047004700B1
:1077A00047004700470047004700470047004700A1
:1077B0004700470047004700470047004700470091
:1077C00047004700470047007B007B007B007B00B1
:1077D000029A4FF0FF3C002A98D029FA03F6F607E8
:1077E00094D4049E764528BF764696428EDB764238
:1077F00096428BDC0A1B07EE902A6E4A02EB83024C
:1078000092ED007AF8EEE77AAAEB0C0C67EE877A35
:10781000FDEEE77A17EE902A0CFB02F245F82320E2
:107820000133092B7FF479AF5A4B039A1F705B4BDE
:107830001A7007B0BDE8F08FC2F347075E4A12F82E
:1078400007C0ACEB0A02C6E75C4EC2F3850705979A
:1078500016F817C0019E042E00F0B281152E40F0DC
:10786000C481059E132E00F0B681332E08BF4FF061
:107870004C0C960701D50CF1010C914545D14F4EAA
:1078800006EB470676780396019E142E3DD1C2F38F
:1078900046027F2A00F01881202A36D1CAF1480218
:1078A0004FF0480C97E7D60540F1AC81C2F347068C
:1078B000C2F346070596424E914516F817C003D10C
:1078C00006EB470252780392019A0A2A1DD1059AC3
:1078D00002F07D02482A24D0682A16D1CAF1450256
:1078E0004FF0450C77E7C2F3470CBCF1FF0FC2F332
:1078F000850700F09881D20540F14A81314A12F89B
:1079000007C0019A122A00F07481ACEB0A0262E708
:10791000D60500F14A8116090E2E00F06E8112067E
:10792000BCD4CAF147024FF0470C54E7C2F34607F4
:10793000254A12F807C0ACEB0A024CE7D605F0D591
:10794000C2F34607214A12F807C0ACEB0A0242E72D
:10795000C2F346071E4A12F807C00CF1040CACEB48
:107960000A0238E7C2F3071606F0180CC2F38002C9
:10797000760042EA0C0706F006021743154A12F891
:1079800007C0ACEB0A0226E74B6C0020A861002080
:10799000346C0020AF6D002099610020806E0020C3
:1079A00004600020F561002024610020006E0020AA
:1079B000A4610020286E00201C68002050F4040000
:1079C00030F3040070F20400F0EE040030F1040023
:1079D00070EE040030F40400D60500F1DE801206DB
:1079E00000F1F480CAF14C024FF04C0CF3E6C2F304
:1079F00047079F4A12F807C0BCF1000F85D129FA4A
:107A000003F2D2073FF582AE049A724528BF724650
:107A100016464FF0FF3C029AE9E6C2F34707954A43
:107A200012F807C0BCF1000F7FF46FAFE7E7924E8A
:107A3000C2F3460716F807C0D6057FF566AFBCF15E
:107A4000310F7FF762AF0CF10C0CACEB0A02C2E60F
:107A50008A4EC2F3850716F807C096071DD5BCF1FC
:107A60002F0F00F0D980BCF1340F00F0B780BCF1CB
:107A7000350F00F0EB80BCF1360F00F0EB80BCF16D
:107A80003B0F00F0EF80BCF13C0F00F0ED80BCF14B
:107A90003D0F00F0EB800CF1010CD2057FF535AF06
:107AA000BCF1310F7FF731AF0CF10C06A6EB0A02E7
:107AB000B44690E6C2F38507714EC2F34702FF2A2F
:107AC00016F807C07FF421AFCAF13D024FF03D0C1C
:107AD00081E612F4C07F49D112F0FF0F46D0520860
:107AE0002C2A00F0AF80302A7FF47CAFCAF14D021F
:107AF0004FF04D0C6FE6D6054AD5C2F34702561C2F
:107B0000164200F08C8000273E4612F0010F08BF9D
:107B10003746521006F10106F7D1FFB27F2F08BF9A
:107B20004FF03C0C3FF4F1AE002F00F09180012F9C
:107B300000F09280022F00F09180032F53D0042F89
:107B400000F08E80052F0CBF062607264D4A02EB5B
:107B5000460292F801C0D8E6D60519D5C2F3460709
:107B6000494A12F807C0ACEB0A0234E656085A2E0E
:107B70005ED04C2E61D0DFF81CC106F07F07D20525
:107B80001CF807C03FF5C1AE2C2E7FF45CAFBCE6FD
:107B9000CAF14A024FF04A0C1DE6C2F346073B4ABF
:107BA00012F807C0ACEB0A0215E616067FF596AE92
:107BB000C2F34507364A12F807C0ACEB0A020AE6E0
:107BC00096077FF55AAE0CF1FF3C56E6CAF14E021D
:107BD0004FF04E0CFFE54FF04B0C4AE64026D20525
:107BE0003FF564AF91E60426B0E791457FF44CAED3
:107BF00045E6BCF1470F7FF488AECAF146024FF06C
:107C0000460CE8E5914508BF0226CAF14A0208BFC2
:107C100003964FF04A0CDEE5CAF12F02DBE54FF088
:107C20003C0C7F2771E6CAF13C024FF03C0CD2E5D8
:107C3000CAF158024FF0580CCDE5CAF156024FF088
:107C4000560CC8E517464FF04B0C5EE64126C6E7DA
:107C500001267BE74226C2E7022677E7032675E77F
:107C6000052673E74726BAE74826B8E74926B6E768
:107C700030F0040060F50400B0F2040070EF04007E
:107C8000B0F10400D0F40400F0ED0400E0F40400CE
:107C9000B0EF0400F0F1040070B52A4C2378CBB9A2
:107CA00063786BBBA37803B970BD274E1AF084FECE
:107CB000B368C01AC728F7D9244D1AF07DFEAB78F7
:107CC000B06002268BBB012103201EF025FC01239E
:107CD000AB7070BD1C4E1AF06FFE3368C01AC72817
:107CE000DED91A4D1AF068FE2B78306043BB0121B3
:107CF00008201EF011FC01232B706378002BD1D0DB
:107D0000114E1AF059FE7368C01AC728CAD90F4D10
:107D10001AF052FE6B78706033B901210A201EF010
:107D2000FBFB01236B70BDE70126094B0021985D29
:107D30001EF0F2FBA35D0022013BA355AA5570BDC6
:107D40000026F2E7586B0020F46900200467002049
:107D500060F604002DE9F8432C4D2D4F2D4C2E4E8E
:107D6000DFF8CC902DED068B9FED2C9ADFED2CAA41
:107D7000DFED2C8A9FED2CAADFED2C9A05F103088C
:107D800015F8011B012381B3D4ED007A337037EE6F
:107D9000A87AF4EEC97AF1EE10FAB0EE470A2EDCBA
:107DA00084ED007A19F0CCF9B7EE008A30EE088A3B
:107DB00028EE0A8AFCEEC87A28EE298A17EE901A75
:107DC00038781EF03FF9D4ED007A37EE888A84EDDA
:107DD000008AA84507F1010704F1040406F1010631
:107DE000CED1BDEC068BBDE8F8833378002BF0D004
:107DF000387831701EF026F9C4F80090E9E7B0EE4B
:107E00006A8AC4F800900021DAE700BFC46C002041
:107E100060F6040000610020006A00200AD72F41AC
:107E20000AD7232F0AD7A33B00C0FF430A00A4367A
:107E3000B4C8964000F0F000A0282DE9F04701F00A
:107E40000F0402F07F0603F07F0500F0D08034D9E4
:107E5000B02800F0E980E0286ED1874F3B7806EB30
:107E6000C515A5F50055012B2DB239D1834B1B88C3
:107E700005F50051013CE4B2C1F3C71605F07F05DA
:107E8000002B35D00F2C57D864F01F045FFA84F80C
:107E90007B4C636D1868036841461B699847636DA6
:107EA0001868036829461B699847636D186803685A
:107EB00031461B69BDE8F047184780287AD09028E2
:107EC0003AD16D4F3B78012B38D16C4B1B88013C6C
:107ED000E4B2002B34D00F2C2ED864F06F0452E0A3
:107EE00005F50051013CE4B2C1F3C71605F07F056A
:107EF0000F2C21D8DFF89091D9F854301868036816
:107F000044F0E0081B6841469847D9F85430186897
:107F1000036829461B689847D9F8543018680368E5
:107F200031461B6898473B7864F01F04002BAFD1A3
:107F3000544B1B78022BA9D1BDE8F087013CE4B279
:107F40000F2CF9D8DFF84081D8F85430186803684E
:107F500044F090091B68494664F06F049847D8F8CC
:107F600054301868036831461B689847D8F8543075
:107F70001868036829461B6898473B782BB9414B22
:107F80001B78022BD8D05FFA84F93D4C636D1868DA
:107F9000036849461B699847636D18680368314652
:107FA0001B699847636D1868036829461B69BDE81B
:107FB000F0471847304F3B78012B5AD12F4B1B8885
:107FC000013CE4B273B90F2CB6D8DFF8BC80D8F806
:107FD00054301868036844F080091B68494664F00F
:107FE0007F04BBE70F2CA7D864F07F04CBE7224FB8
:107FF0003B78012B3AD1214B1B88013CE4B273B989
:108000000F2C99D8DFF88080D8F8543018680368AE
:1080100044F0A0091B68494664F05F049EE70F2CFA
:108020008AD864F05F04AEE7134F3B78012B1AD176
:10803000124B1B88013CE4B27BB90F2C3FF67CAF9E
:10804000DFF84480D8F854301868036844F0B00969
:108050001B68494664F04F0480E70F2C3FF66CAF75
:1080600064F04F048FE7013CE4B2E6E7013CE4B280
:10807000C6E7013CE4B2A6E7F8600020FA6B0020F6
:10808000F065002018680020086700202C4A2D4960
:1080900038B5D2E90035D2E902042B440344D2E9D1
:1080A000040523440344D2E906402B44126A0978AC
:1080B00023440344134429B1234A24481278825CA0
:1080C000032A24D0224A234812680068224DC3F5AF
:1080D00000531A44121817D4B2F5804FA8BF43F6C4
:1080E000FF722A601D4C2368934200D001B938BD4D
:1080F0001B49C2F3C713097802F07F02E020FFF7A3
:1081000099FE2B68236038BD00222A60EAE7154CEF
:10811000154A164894F90050127804781448521BF6
:10812000121B07EE902A90ED007AF8EEE77A67EEE0
:10813000877AFDEEE77A17EE902A1344C2E700BF74
:1081400024610020626C00204B6C0020BC61002088
:108150000C6C00204C6D0020B8610020FC600020F9
:1081600098610020506D0020606C0020A861002004
:10817000C06100207F499FED806AD1ED007A7F4A7F
:10818000DFED7F6AF8B57F4B7F4D93ED007A7F4C32
:1081900067EE867A2DED048BE7EE267A2B7892ED4A
:1081A000008AC1ED007A37EE088AB6EE009A38EE02
:1081B000678A04EB431368EE098ADE7EC2ED008A0B
:1081C0001AF0FAFB2B787249F0EEE87AB3EE047AF3
:1081D00004EB4312F4EEC77AF1EE10FA127ECCBF34
:1081E000012500250D70002A45D06A496A4D0F7897
:1081F00000225B012A60AFB3684A1268821A0B2A18
:1082000039D9674A92F800C0BCF1000F08D1B6EE28
:10821000007AF4EEC77AF1EE10FA6CDD01271770E0
:10822000DFF8A4C19CF800705FB39FED5E7A5E4FEB
:10823000F4EEC77AF1EE10FAC8BF38603F68C01B91
:10824000B0F5C87F22D900238CF800300B70137072
:10825000564B1B78022B0ED1BDEC048BBDE8F840C9
:10826000FFF714BFF4EEC97AF1EE10FA4B4A05DDC0
:10827000012310600B70BDEC048BF8BD1268821AEC
:10828000BDE74949012208608CF80020DFED487AFB
:10829000B4EEE78AF1EE10FA1FDAFFEE008A23440B
:1082A000DB7FBBB1032B48D0022B3ED0414BDFED2F
:1082B000426AD3ED007A07EE106A67EEA67AB8EE4E
:1082C000C77A67EE877A67EEA88AFDEEE88AC5ED81
:1082D000008ABDE7F1EE688AE8E7DFED387AB4EEB0
:1082E000E78AF1EE10FA96BFDFED357AF7EE008AF5
:1082F00068EEA78AD3E7DFF8D0C09CF800E0BEF1B3
:10830000000F92D19FED277AF4EEC77AF1EE10FAC2
:1083100008DC002F9CD0244B1B68C01AB0F5C87F26
:1083200091D895E7204B1860F3E7F5EEC08AF1EE9F
:1083300010FA15D9DFED238AB8E7F5EEC08ADFED34
:10834000217AF1EE10FA88BFF0EE678AFFEE007A2C
:10835000F4EEE78AF1EE10FAB8BFF0EE678AA5E70F
:10836000FFEE007AF4EEE78AF1EE10FAB2DAF7EEF9
:10837000008A9BE7D06900206666663FD4690020CA
:10838000CDCCCC3D246A00204B6C002098600020AE
:10839000486D0020CE6900204C6D0020D869002077
:1083A000CC6900203333B33EDC6900206C6C0020C4
:1083B0002506F0C1C06100200AD7233D2506F04103
:1083C0000A85883D00000000CD690020F0B43E4AD7
:1083D0003E4B147804EB440204EB820213449B7A74
:1083E00013B33B4B1B78012B1ED03A4E3A4BC4EBD8
:1083F000C402C2EBC202324493F800C092F8245087
:1084000092F825200927511B642301EBC10117FBBA
:108410000535BCF1030F05EB61014FEAC40010D133
:1084200017FB023529440CE02B4B2C4A1B781568AE
:10843000032B25D02A4B274E1968491B05EB6101F8
:10844000E000284B1B68001BC0EBC0008B4230448F
:1084500020D24278CB1A02FB03F202EB8202930095
:10846000491BB3FBF1F3DBB203FB03F3DB105B420D
:108470001D4A13601D4B1B78022B1ED0F0BC7047A9
:108480001B4B144E1A68511B05EB61011546E000A9
:108490002944D6E7591A437803EB830202EB8202A0
:1084A00003FB01F3B3EBC20F4FEAC201E0DD0E4B59
:1084B00019600E4B1B78022BE0D10E4B0022F0BC52
:1084C0001A60FFF7E3BD00BF4B6C0020086200207C
:1084D0000D61002004600020556C0020FC6100202C
:1084E000546E0020E86C00200C6C00206C6C0020A6
:1084F000586E0020B86100202DE9F843B4482422CA
:10850000002123F007FDB34B1B78002B44D0032B35
:1085100042D0AF4CA368002B44D1E568002D75D143
:108520006FF00106AC4BAD4A1B78D35C9A1E012A52
:1085300000F2BC80AA4F38684307C0F3800968D5B1
:108540000023DFF8B882A360032D00F0CF803868E5
:108550000207C0F3C00900F1B680A24D2A78002AB4
:1085600040F01C81A04B1868A04B1B78834200F0A0
:10857000EA80D4E90231D8F800200B445B429342F0
:1085800006DD012E40F2B78052420023C4E90223E7
:10859000BDE8F843FFF77ABD8D4CFFF793F8A36869
:1085A000002BBAD08C4B8D4A1B78D35C9A1E012AC3
:1085B00040F295808E4A1278012A00F087800225C9
:1085C0000026022AE4D113F0FB0F32D1894B8A4AEC
:1085D0001B78916882488B42006802DA470740F1B5
:1085E0001581022D4CD00021A160D26893424ADB54
:1085F000032D01D00023E360012EC9D9D4E9023153
:108600007E4A12680B449342C2DDBEE70126032571
:1086100088E7DFF8D08198F80020002A40F0B48085
:10862000714B1868714B1B78834269D0DFF8CC819D
:108630008AE7012B01D00A2BAAD1694B1A68D6050B
:1086400000F1FD80150700F1F7806B4B694ADB688C
:108650001278934240F30D8168486949D0ED007A61
:10866000D1ED036A9B1A07EE103AF8EEE77AB8EEFE
:10867000C77AE7EE667AFDEEE77AC4ED037A87E71C
:10868000D2689342B6DA0707B2D4032DB4D0D31A16
:108690005B4907EE903A91ED037AF8EEE77A67EEE0
:1086A000877AFDEEE77AC4ED037AA5E7504A12789F
:1086B000012A86D1514A12680023C4E90223BDE889
:1086C000F843FFF7E3BC0023E36052E7E368002BC5
:1086D0007FF45EAF494AA3601368E36058E7404FF8
:1086E000386810F4807663D1022525E73868C10523
:1086F0003FF53FAF2CE73B68DB053FF549AF43E76C
:108700003D4B3C4A9B6812789A425ADA3D4ADFED6B
:108710003E6AD2ED027A3A4ADFF8E08007EE103A7C
:10872000F8EE677AB8EEC77A77EEE67AD2ED026AAB
:1087300077EEC77A67EEA67AFDEEE77A17EE903A03
:108740005B42A36000E72C4B2A4ADB681278934215
:1087500032DD2C4ADFED2C6AD2ED037A284A07EE8F
:10876000103AF8EE677AB8EEC77A77EEE67AD2ED8D
:10877000036A77EEC77A67EEA67AFDEEE77A17EE20
:10878000903A5B42E360F4E640F004003860FEF7A4
:108790003DFC154B88F80090186043E740F0080056
:1087A0003860FEF733FC104B85F800901860DBE66C
:1087B000DFF848800026CAE6D8F800305B42E36064
:1087C000D7E6DFF83880D8F800305B42A360BBE61C
:1087D000246100206C6C00204B6C0020A461002000
:1087E000346C002018610020EC690020A861002092
:1087F000806E0020F5610020046E00202C6A0020AD
:10880000846E0020E06D002000004842022D3FF4FD
:1088100037AFC91A194F07EE901A97ED027AF8EEA2
:10882000E77A67EE877AFDEEE77AC4ED027ADCE656
:1088300002DB12077FF5ACAE0023E360A8E6104B25
:108840001049DB6809788B42F2DD1007F4D4032D60
:108850003FF49EAE5B1A094A07EE903A92ED037A16
:10886000F8EEE77A67EE877AFDEEE77AC4ED037AF1
:108870008EE6054B1B68E3608AE600BF846E00202D
:10888000046E0020F56100202C6A00202DE9F04FD5
:108890003C4C3D4883B02422002123F03BFB26784A
:1088A000002E6AD0032E68D0384BDFF8F8E01B6842
:1088B0003748384C384901930023DEF8002000681F
:1088C0002478D1F80080354DDFF8BCC0DFF8D890AF
:1088D0009A46012712E055F82310A1420BDA20FA3C
:1088E00003F107FA03FBC90722EA0B0203D522FAB8
:1088F00003F1C9070AD50133092B2DD022FA03F160
:10890000C907E8D420FA03F1C907F4D5012E03D032
:108910005CF823100029EED155F823108C4222DA9E
:1089200028FA03FB1BF0010F23D1091B07EE901A55
:108930001B4903F8097001EB830191ED007AF8EE11
:10894000E77A67EE877AFDEEE77A17EE901A4CF831
:1089500023100133092BD1D1CEF8002003B0BDE89C
:10896000F04FFFF793BB28FA03F1C90703F809A0FA
:10897000C1D501994CF82310BDE7FEF7A3FE267878
:1089800092E700BF6C6C0020246100202C6A00205C
:1089900048620020F5610020346C0020046E002045
:1089A000846E0020386C0020706C00202DE9F843A4
:1089B000294D2A4B2A7802EB42010B441B5CDBB1A8
:1089C00000EB80094FF03208254F08FB0293044664
:1089D000FE5C012E07EB030110D0052E27D0062EDA
:1089E0001DD1204991F90030033305DB1E48835C1B
:1089F000013B5BB283540B70BDE8F8834B78002BCE
:108A0000FAD10B79CA7889789020FFF713FA2A787F
:108A1000164B08FB02981E5517F80860DDE70A2E72
:108A200011D1134A137801331370BDE8F8830D494F
:108A300091F90030022BDFDC0B48835C01335BB221
:108A400083540B70D8E70B2ED6D1094A1378013B1B
:108A50001370BDE8F88300BF4B6C00204C6C002005
:108A60005C6B0020636C0020646C0020586C00205C
:108A7000616C0020114B12481B78124AC3EBC303F0
:108A8000C3EBC30318440121837A11708B4203D0D6
:108A9000022B0DD033B17047437B027BC17A80201B
:108AA000FFF7C8B9437B027BC17A9020FFF7C2B9B8
:108AB000427B017BC07AFDF76DBC00BF4B6C002090
:108AC000046000200A6C0020114B12481B78124AE7
:108AD000C3EBC303C3EBC30318440021837B1170B2
:108AE000012B03D0022B0DD033B17047437C027CA5
:108AF000C17B8020FFF79EB9437C027CC17B902024
:108B0000FFF798B9427C017CC07BFDF743BC00BFF6
:108B10004B6C0020046000200A6C0020A94B2DE95A
:108B2000F0471B8843F480735A1C1A4282B06DD000
:108B300000210A4613F0010F08BF11465B1002F135
:108B40000102F7D101F13E04E4B2462C28BF4624CD
:108B50003C3C9D4D9D4A2B78C3EBC303C3EBC30341
:108B600013449A7C032A3ED0DFF8B082D8F8003054
:108B7000974A9849984F91F800C0D2F800905168F0
:108B8000D7F800E09548964E04FB0C145FFA8EF27D
:108B900099450460327017DB924B0121002031703F
:108BA0000A4618702B789048396003EB430103EBB9
:108BB000810303445B7923B18C4C2378012B27D0AC
:108BC000227002B0BDE8F08709F10101994208DA8C
:108BD0008749BEF1010F097804BF022232700129D2
:108BE0002DD01146DEE7834A1278CAB9197DDA7CA6
:108BF000DFF8288242EAC112D8F8003005329A42E2
:108C0000B6DAFFF737FFD8F80030B1E70A24A0E75B
:108C1000012AD5D019F0D0FE774B32781860CFE713
:108C2000DFF8F881197DDA7CD8F8003042EAC11209
:108C30009A429DDDFFF748FFD8F8003098E76F496A
:108C4000087800283DD0A4EB090100FB01F1DFF812
:108C5000D0C101EB41008CFB00A98CFB01ACC0171B
:108C6000C917A0EBE910C1EBEC1121440444DFF873
:108C7000B4C16348CCF800109942046013DB9C42F5
:108C800021DB0222BEF1010F327028D0BEF1030FAA
:108C9000A7D119F091FE5B4B1B68C01A142852D85B
:108CA000327811467EE74F4B00210322BEF1010FBF
:108CB0001970327095D0BEF1030F92D172461146F1
:108CC00070E72146D3E7BEF1010F06D0BEF1030FD6
:108CD00087D1022ADDD0114664E7022A81D1414CB6
:108CE000019319F069FE94F800C0019BBCF1000FDC
:108CF00015D1454A4549D2F800E00860444A454943
:108D0000C2F800C00120C1F800C02070BEF1000F01
:108D100037D1022100230A462370327042E73B49D3
:108D2000394A09681268401A9042F2D2384A1168EA
:108D300031B3384A116813605B1A002BE9DD3A78C9
:108D4000327011462EE7274CD8F8008019F034FE17
:108D50002378D3B9304A2D49D2F800C008602C4A94
:108D60002C49136001200B602070BCF1000F22D051
:108D70000123C1F8008013603A783270114611E780
:108D800024490B6001201060D9E7204A224B126869
:108D90001B68801A98420ED21D4A13687BB11D4B86
:108DA0001A68C3F80080A8EB0208B8F5FA6FE3D0A0
:108DB000B8F1000FE0DB002323700222DDE7154944
:108DC000D6E700BF346C00204B6C0020046000200C
:108DD000FC610020A7610020006C002030620020B0
:108DE000556C0020306C002008620020F4610020E7
:108DF0000D6100200A6C00207C6E002020610020A4
:108E0000586E0020106C002088610020E06900206E
:108E1000C86C0020BC6C002014610020E86C0020AD
:108E20001F85EB51546E0020F8B519F0C5FD274C95
:108E3000274B22681968914209D02649264D1A60AD
:108E40000978264B28600120187059B1F8BD224BD3
:108E500020491B680978C31A8B42F7D31F4B197836
:108E60000029F3D01E491F4D0127104600260F7020
:108E70001E70FEF7CBF83146034638462B60FEF7EE
:108E80004BF82B68184F013313D02B683A789A426D
:108E90000FD0164B1B78022B0BD0154B22681A6093
:108EA00014482422314623F035F8134BC3E90066F9
:108EB0001E722B683B704FF0FF332B60FFF72EFEC6
:108EC00019F07AFD0D4B1860F8BD00BF346C00201E
:108ED000EC6100204C6E0020E4690020E86900206D
:108EE00018610020B06D0020A86100206C6C00208B
:108EF000386C002024610020706C0020106C002071
:108F000000F0F000C0282DE9F04101F00F0102F05F
:108F10007F0510D0D02830D12E4E3378012B48D188
:108F20002D4B1B880139002B44D0CBB20F2B24D8FA
:108F300063F02F042DE0274E3378012B1FD0013929
:108F4000CBB20F2B19D8DFF89C80D8F854201068CA
:108F5000026843F0C0071268394663F03F04904747
:108F6000D8F854301868036829461B689847337846
:108F700083B91A4B1B78022B0BD1BDE8F081164B3D
:108F80001B880139002BDBD0CBB20F2BF5D863F057
:108F90003F04E7B2124C636D1868036839461B69D9
:108FA0009847636D1868036829461B69BDE8F0415E
:108FB00018470139CBB20F2BDFD8DFF82880D8F85B
:108FC00054201068026843F0D0071268394663F0F5
:108FD0002F04C4E7F8600020FA6B00201868002016
:108FE000F0650020086700202DE9F041354D364935
:108FF0002B78C3EBC302C2EBC2020A440446927848
:10900000012A45D003EB4302304E03EB8203334485
:109010009B79DA070BD52E4A1778FFB12D4ADFF876
:10902000CC80D76AD8F80020BA4221D104BB9B0774
:1090300012D5274B1B787BB1264B274EDD6B33684F
:10904000AB4200D144B1254B254A19781278EBB2D6
:10905000A020FEF7EFFE3560BDE8F081214A1268DE
:10906000642ADBDCDFF88480D8F80020BA42DDD047
:109070001A4BFAB21978D020FFF742FF2B78C8F8C4
:10908000007003EB430203EB82031E44B379CEE787
:10909000DFF84080144ED8F80C203768BA424FEA07
:1090A000C30001D1002CADD0C31AC3EBC3030B44E2
:1090B000D2B259791879FDF76DF9D8F80C202B78D0
:1090C00032609FE74B6C00200460002008620020A3
:1090D000626C002048610020B46C00209861002080
:1090E000606C0020E86C0020A86C0020AC6C0020B4
:1090F0002DE9F04FA94DAA4C2B78AA4E03EB430261
:1091000003EB8202224431789279002A87B014BF9F
:109110004FF003084FF010085A0089B1A248C05C14
:10912000032800F02481A148DFF8BCC2A04F0078DA
:109130009CF900C03F78A0EB0C00874200F02C8126
:109140009C4F3878012802EB030003EB8000204499
:10915000407809D9002850D09748007800284CD191
:1091600031B907B0BDE8F08F0028F5D10029F8D05B
:109170002B785A001A4403EB8202397814440129EF
:10918000627800F0D480002A40F0D4808B4AD35C0F
:10919000032B00F0D9808A4B1B78032BE1D0894B3D
:1091A0001B78002BDDD0884B1A6840F2FF139A42DF
:1091B000D7D1864B7D4A1978127840238020FEF75C
:1091C00039FE2B78824A02EB4312D27D012A00F04D
:1091D0007F81804AC3EBC303C3EBC3031344002264
:1091E0009B7C3270022BBCD17B4B1B78002BB8D000
:1091F00007B0BDE8F04FFFF767BC1A4403EB8202EB
:1092000022445279002A40F0A5806C4AD25C032A9D
:1092100000F02C816A4A1278032A08D0694A127831
:109220002AB1694A106840F2FF12904298D0DFF8E4
:109230007CA19AF800200592002900F0E38003EB5E
:10924000430203EB8202224492F809C0BCF1000FF2
:1092500000F0788101220492DFF878815F4ADFF81C
:109260006CB103925E4A127822B15E4A1288002ADB
:1092700040F0FA80C3EBC302C2EBC20242449278D0
:10928000012A00F0ED8003EB430103EB810121444F
:109290005A008879002840F0E3804979012900F0DC
:1092A000DF80D018DFF808914F4999F8002091F835
:1092B00000C003EB80002044624490F808C0D2B2A2
:1092C0004FF0010E8AF8002086F800E0BCF1000F94
:1092D00040F0E280039B9BF800101B789020FEF783
:1092E000A9FD049B002B40F0CF8019F065FBDFF84F
:1092F00008A1CAF8000019F05FFB2B783B4ADAF8A6
:1093000000C0C2F800C0C3EBC303C3EBC30398445F
:10931000DFF8E8C098F81230354A99F80010CCF818
:109320000000022B117000F0A780317818E7002AA6
:109330003FF43FAF204A1278002A3FF43AAF1F4A69
:10934000D35C032B7FF427AF194B1B783C2B7FF4A6
:1093500022AF2EE700297FF458AF19F02DFB254BE3
:109360001B68C01A4045E0D32B7831784DE7DFF811
:1093700078C00E4F0E489CF900E03F780078DFF887
:1093800080C0A7EB0E07C01B00289CF80070B8BF78
:10939000404287427FF7D4AE064FEBE64B6C00208D
:1093A00008620020626C0020BC610020606C00201C
:1093B000A8610020556C0020986C0020A46100205A
:1093C0000D6100200C610020346C002098610020A9
:1093D00098600020046000200A6C002037620020A2
:1093E000F8600020FA6B0020506D00209C6C00207B
:1093F000B06C00207C6E00207C6C00205C6C002037
:1094000099610020DFF85883C3EBC302C2EBC202AC
:1094100042449278002A64D103EB430103EB8101BB
:1094200021445A004979002940F00781BF4903913E
:109430001A4403EB820222449279D10700F1C480DE
:10944000920700F19080DFF81C9309EB4312D27D64
:10945000012A00F027810022DFF80CB3049201E713
:109460000120FFF7C1FD2B785A001AE7B04A1278A5
:109470003C2A7FF4CFAE73E6AE4B1B78002B7FF413
:1094800054AFFFF7F7FA50E7059A9BF80010402316
:109490008020FEF7CFFC28E7C3EBC303C3EBC30375
:1094A00018F8033023B1437813B9FEF78FFFA249B0
:1094B000A24B1B7893B9A24B1B78022B02D0FFF76B
:1094C000E5F99D490B7899F800201A44D2B201E7DA
:1094D00019F072FA9B4A2B7810607AE6FFF70CF8C5
:1094E000EFE7994A994B10681B68DFF88092A0EB70
:1094F0008300D9F80030D9F8042020EAE070B0EBFE
:10950000830F4FEA830180F0F180084692004FF408
:1095100080630093002319F03DFA8D4B1B78012BDB
:10952000024600F02581022B00F0908189482B78BB
:1095300001784078401A02FB00F201EBA222C9F840
:109540000C2069E7DFF820B2059A9BF80010CDF8EF
:1095500010C040238020FEF76DFC744B0393DFF8AE
:1095600000822B787EE6784A784B10681B68DFF81B
:10957000FC91A0EB8300D9F83030D9F8342020EAF0
:10958000E070B0EB830F4FEA830180F0AA800846B9
:1095900092004FF480630093002319F0FBF96C4BA9
:1095A000DB78012B024600F0E980022B00F0F1800D
:1095B00068482B788179C079401A02FB00F201EBF0
:1095C000A222C9F83C203EE75F4A604B10681B6846
:1095D000DFF89891A0EB8300D9F82030D9F8242047
:1095E00020EAE070B0EB830F4FEA830180F08380C4
:1095F000084692004FF480630093002319F0CAF9E3
:10960000534B9B78012B024600F08A80022B00F01E
:10961000DF8050492B78087991F805C003EB4301AE
:10962000ACEB000C03EB810102FB0CF2214400EBDC
:10963000A220C9F82C008A7902E7434A434B1068FC
:109640001B68DFF82891A0EB8300D9F81030D9F817
:10965000142020EAE070B0EB830F4FEA830154D26C
:10966000084692004FF480630093002319F092F9AA
:10967000374B5A78012A03464CD0022A00F0C780A3
:1096800034492A488A78C9780390891A03FB01F380
:1096900002EBA323DAB2C9F81C3002702B787AB33C
:1096A0005A00C5E619F088F92B78264909EB4312D0
:1096B000D1F800C0527EC2EB4211A0EB0C0002EBCD
:1096C0008102B0EB420F5FD92349244AD1ED007AE1
:1096D000DFF894B0F1EE677AC2ED007A00220492CE
:1096E000C0E59200904228BF104652E79200904297
:1096F00028BF10460BE79200904228BF104679E73A
:10970000012103FA01F2017092E69200904228BF13
:109710001046A7E700FB00F203FB02F31B15AFE7BF
:1097200000FB00F302FB03F2121572E73762002020
:10973000A86100200A6C0020506D0020086C0020F9
:109740006C6C0020686A0020546D0020FC610020D1
:10975000046C0020B0610020FC6B0020B06E002083
:10976000046000209860002098610020486100207B
:1097700000FB00F302FB03F21215D7E600FB00F337
:1097800002FB03F2121513E70022DFF810B1049276
:1097900068E500283FF40CAF21F0B2FD41EC100B5E
:1097A00017F018FD3AA3D3E9002351EC100B21F078
:1097B00011FE22F007F907EE900A9FED377A67EE67
:1097C000A77A67EE877AFDEEE77A17EE902AEFE642
:1097D00000283FF41EAF21F093FD41EC100B17F071
:1097E000F9FC2BA3D3E9002351EC100B21F0F2FD7F
:1097F00022F0E8F807EE900A9FED277A67EEA77A45
:1098000067EE877AFDEEE77A17EE902A01E70028E7
:109810003FF436AF21F074FD41EC100B17F0DAFC89
:109820001BA3D3E9002351EC100B21F0D3FD22F050
:10983000C9F807EE900A9FED187A67EEA77A67EEEF
:10984000877AFDEEE77A17EE903A19E700283FF4A1
:109850006DAE21F055FD41EC100B17F0BBFC0CA3D5
:10986000D3E9002351EC100B21F0B4FD22F0AAF84B
:1098700007EE900A9FED087A67EEA77A67EE877A7F
:10988000FDEEE77A17EE902A50E600BFAFF30080B6
:10989000FE822B654715F73F0AD7234198610020C8
:1098A0002DE9F041C64CC74D22682B689B1A002B4E
:1098B000B8BF5B42012B82B024DDC34FC3483B7865
:1098C000C3EBC301C1EBC10101448978002968D110
:1098D000BF4E03EB430203EB82023244590052793C
:1098E000002A40F08D80194403EB810333449B79B7
:1098F000D80700F1BB80990724D40020FFF774FB40
:1099000023682B60B34B1A68D20708D4B249B34A14
:109910000968116001221A6002B0BDE8F081AF4C05
:10992000AD4D23682A689B1A002BB8BF5B42022BFF
:10993000F2DD01210020FDF7EFFA2B68236002B071
:10994000BDE8F081A64BDFF8A8821B682068D8F834
:109950003420A0EB8300D8F8303020EAE070B0EB80
:10996000830F4FEA830180F0C780084692004FF4CE
:1099700080630093002319F00DF89A4BDA78012ADE
:10998000034600F0C380022A00F0D88096498A7905
:10999000C879801A03FB00F302EBA323C8F83C301C
:1099A000ABE78F4BDFF848821868D8F80030A2EB9D
:1099B000800020EAE070B0EB830FD8F804204FEA73
:1099C000830180F09E80084692004FF480630093EC
:1099D000002318F0DFFF834B1B78012B024600F0B9
:1099E0009B80022B00F027817F483B7801784078EC
:1099F000401A02FB00F201EBA222C8F80C2067E734
:109A0000774BDFF8EC811B682068D8F81420A0EBB6
:109A10008300D8F8103020EAE070B0EB830F4FEAF3
:109A2000830164D2084692004FF4806300930023C0
:109A300018F0B0FF6B4B5A78012A034678D0022AFF
:109A400000F0DA806849DFF8ACC18A78C878801AFB
:109A500003FB00F302EBA323DAB2C8F81C308CF846
:109A600000203B78002A37D059003CE75C4BDFF8F8
:109A700080811B682068D8F82420A0EB8300D8F8E8
:109A8000203020EAE070B0EB830F4FEA830129D247
:109A9000084692004FF480630093002318F07AFF89
:109AA000504B9A78012A03463CD0022A65D03A7876
:109AB0004D4802EB42070179407902EB8702401AD8
:109AC000164403FB00F301EBA321B379C8F82C1073
:109AD00099077FF512AF35E7012203FA02F18CF8FE
:109AE000002000E79200904228BF1046D2E7920083
:109AF000904228BF104697E79200904228BF104638
:109B000035E79200904228BF10465EE700FB00F068
:109B100003FB00F31B1539E700FB00F002FB00F22A
:109B2000121561E700FB00F003FB00F31B15BEE715
:109B300000FB00F003FB00F31B1583E700283FF454
:109B400025AF21F0DDFB41EC100B17F043FB1AA30E
:109B5000D3E9002351EC100B21F03CFC21F032FF43
:109B600007EE900A9FED217A67EEA77A67EE877A73
:109B7000FDEEE77A17EE903A08E7002897D021F03B
:109B8000BFFB41EC100B17F025FB0BA3D3E900231F
:109B900051EC100B21F01EFC21F014FF07EE900A8F
:109BA0009FED127A67EEA77A67EE877AFDEEE77A85
:109BB00017EE903A7BE700BFFE822B654715F73F13
:109BC000546D0020B86C00204B6C00200460002015
:109BD0000862002028690020E86C0020F06900205D
:109BE000FC610020046C0020B06100200AD72341F2
:109BF000486100203762002000283FF423AF21F0A5
:109C00007FFB41EC100B17F0E5FA1BA3D3E900230F
:109C100051EC100B21F0DEFB21F0D4FE07EE900A90
:109C20009FED177A67EEA77A67EE877AFDEEE77AFF
:109C300017EE903A06E700283FF4D6AE21F060FB1D
:109C400041EC100B17F0C6FA0BA3D3E9002351EC3B
:109C5000100B21F0BFFB21F0B5FE07EE900A9FED3F
:109C6000087A67EEA77A67EE877AFDEEE77A17EE55
:109C7000902AB9E6AFF30080FE822B654715F73FC7
:109C80000AD72341036810B504460BB174309847D6
:109C900094F87530803B7F2B43D8DFE803F04942CE
:109CA0004242424242424242424242424242554281
:109CB000424242424242424242424242424259426D
:109CC00042424242424242424242424242425D4259
:109CD0004242424242424242424242424242614245
:109CE00042424242424242424242424242426B422B
:109CF00042424242424242424242424242426F4217
:109D000042424242424242424242424242428390A4
:109D100098A842424342ACB0B4B8BC42C040236DA4
:109D20001BB910BD636B002BFBD0BDE8104018477A
:109D3000A368002BF5D094F8772094F8761094F867
:109D40007400BDE810401847E368002BF3D1E8E742
:109D50002369002BEFD1E4E76369002BEBD1E0E747
:109D6000A369002BDDD094F8761094F87400BDE858
:109D700010401847E369002BF5D1D2E7226A002A88
:109D8000CFD094F8771094F8763094F87400C90125
:109D900001F47E5103F07F031943BDE81040A1F5A3
:109DA00000511047636A002BBBD0B4F876108029AD
:109DB00004F1780028BF8021BDE810401847A36A4D
:109DC000002BAED094F87600BDE810401847E26A48
:109DD000002AA6D094F8773094F87600DB0103F4DB
:109DE0007E5300F07F00BDE8104018431047236BFE
:109DF000002BE7D195E7A36B002B96D191E7236C5D
:109E0000002B92D18DE7E36B002B8ED189E7636C39
:109E1000002B8AD185E7A36C002B86D181E7E36C08
:109E2000002B82D17DE700BFF8B5044680260025CF
:109E30000DE094F80D31626D23F0010384F80D31CB
:109E4000106803681B699847C3B2FD2B07D1636D87
:109E500018680368DB6898470028EAD1F8BD626E8D
:109E6000002A75D194F9591094F8592084F85B3080
:109E7000002980F2848002F10C01C9B201297ED947
:109E8000FD2A7CD0EF2A94BF02F0F001114601F0C8
:109E9000CF07802F01D0D0296DD1000606D4012133
:109EA00084F85C3084F85B201346616603F10C0291
:109EB000D2B2012A67D9FD2B65D0EF2B94BF03F0F6
:109EC000F0011946A1F180027F2A5CD8DFE802F098
:109ED000CB5B5B5B5B5B5B5B5B5B5B5B5B5B5B5B62
:109EE000CB5B5B5B5B5B5B5B5B5B5B5B5B5B5B5B52
:109EF000CB5B5B5B5B5B5B5B5B5B5B5B5B5B5B5B42
:109F0000CB5B5B5B5B5B5B5B5B5B5B5B5B5B5B5B31
:109F1000E85B5B5B5B5B5B5B5B5B5B5B5B5B5B5B04
:109F2000E85B5B5B5B5B5B5B5B5B5B5B5B5B5B5BF4
:109F3000CB5B5B5B5B5B5B5B5B5B5B5B5B5B5B5B01
:109F4000ECE8CBE85B5BBEECBEBEBEBEBE5BBEBE9D
:109F5000010627D494F85B10F0294BD0F72949D09B
:109F6000A11881F85B30236E591E8A4280F0A380CD
:109F7000013262666BE701F0DF01C0298DD040B28B
:109F80000028C0F22E8194F90D01636840F00100B1
:109F900084F80D0103B19847002084F85900C4E902
:109FA0001800F8BDA3F1F0010F29D3D801A050F893
:109FB00021F000BF17A00200559F0200559F02002C
:109FC000559F0200559F0200559F0200559F0200B9
:109FD00017A00200FD9F0200FD9F0200FD9F0200EE
:109FE000FD9F0200FD9F0200559F0200FD9F0200A1
:109FF000FD9F0200A11881F87830B4E7002201200B
:10A00000A4F8762084F8742084F87530C4F8FC0035
:10A0100084F8F800F8BD94F87810F02901D0F729F9
:10A02000B1D1A5184FF4704185F878300132002382
:10A030000120A4F87620A4F8741084F85930C4E9FB
:10A040001833C4F8FC2084F8F800F8BD0023012080
:10A0500084F87430A4F87630C4E9183384F87510A5
:10A0600084F8F800F8BD032222660220626E824264
:10A07000FFF47EAF03F00F03013394F85C2084F803
:10A0800074300023012084F8762084F87730C4E906
:10A09000183384F87510C4F8FC0084F8F800F8BD93
:10A0A000022222660120E1E7266684F8595084F8EE
:10A0B00078107F20DAE794F85B10F02952D0F72966
:10A0C00050D00A063BD501F10C02D2B2012A36D992
:10A0D000FD2934D0EF2994BF01F0F0020A46802A0E
:10A0E00084F8752005D0902A03D0B02A01D0A02A88
:10A0F0005ED101F00F0094F85C5084F87650013086
:10A10000032B84F8740050D00025002084F8775089
:10A11000B02A4FF00105C4E91800C4F8FC3084F8F7
:10A12000F8503ED0B02A36D9E02A3AD002F0EF02F9
:10A13000C02A36D0002384F859300120F8BD94F8A5
:10A140005C0084F876000022032BA4F874202CD045
:10A150000121C4E9182284F87720C4F8FC3084F87F
:10A16000F810E7E7224B6367F0218022012394F87F
:10A17000F750C4F8FC2084F8F830204684F8F71033
:10A18000FFF780FDF722022384F8795084F87820C5
:10A1900063660020F8BDA02A03D002F0EF02802AF7
:10A1A000C8D184F859100120F8BD94F85D50ACE78F
:10A1B000D02A9ED0E02A9CD0C02A9AD094F85C5035
:10A1C00084F876500020032B84F87400EDD001252C
:10A1D000C4E9180084F87700C4F8FC3084F8F8501B
:10A1E000A0E703F10C02D2B2012A3FF666AECAE63E
:10A1F00000F08000036810B504460BB17430984736
:10A2000094F87530803B7F2B43D8DFE803F0494258
:10A21000424242424242424242424242424255420B
:10A2200042424242424242424242424242425942F7
:10A2300042424242424242424242424242425D42E3
:10A2400042424242424242424242424242426142CF
:10A2500042424242424242424242424242426B42B5
:10A2600042424242424242424242424242426F42A1
:10A27000424242424242424242424242424283902F
:10A2800098A842424342ACB0B4B8BC42C040236D2F
:10A290001BB910BD636B002BFBD0BDE81040184705
:10A2A000A368002BF5D094F8772094F8761094F8F2
:10A2B0007400BDE810401847E368002BF3D1E8E7CD
:10A2C0002369002BEFD1E4E76369002BEBD1E0E7D2
:10A2D000A369002BDDD094F8761094F87400BDE8E3
:10A2E00010401847E369002BF5D1D2E7226A002A13
:10A2F000CFD094F8771094F8763094F87400C901B0
:10A3000001F47E5103F07F031943BDE81040A1F52D
:10A3100000511047636A002BBBD0B4F87610802937
:10A3200004F1780028BF8021BDE810401847A36AD7
:10A33000002BAED094F87600BDE810401847E26AD2
:10A34000002AA6D094F8773094F87600DB0103F465
:10A350007E5300F07F00BDE8104018431047236B88
:10A36000002BE7D195E7A36B002B96D191E7236CE7
:10A37000002B92D18DE7E36B002B8ED189E7636CC4
:10A38000002B8AD185E7A36C002B86D181E7E36C93
:10A39000002B82D17DE700BFF8B50446802600255A
:10A3A0000DE094F80D31626D23F0010384F80D3156
:10A3B00010680368DB689847C3B2FD2B07D1636D53
:10A3C000186803685B6998470028EAD1F8BD626E97
:10A3D000002A75D194F9591094F8592084F85B300B
:10A3E000002980F2848002F10C01C9B201297ED9D2
:10A3F000FD2A7CD0EF2A94BF02F0F001114601F053
:10A40000CF07802F01D0D0296DD1000606D40121BD
:10A4100084F85C3084F85B201346616603F10C021B
:10A42000D2B2012A67D9FD2B65D0EF2B94BF03F080
:10A43000F0011946A1F180027F2A5CD8DFE802F022
:10A44000CB5B5B5B5B5B5B5B5B5B5B5B5B5B5B5BEC
:10A45000CB5B5B5B5B5B5B5B5B5B5B5B5B5B5B5BDC
:10A46000CB5B5B5B5B5B5B5B5B5B5B5B5B5B5B5BCC
:10A47000CB5B5B5B5B5B5B5B5B5B5B5B5B5B5B5BBC
:10A48000E85B5B5B5B5B5B5B5B5B5B5B5B5B5B5B8F
:10A49000E85B5B5B5B5B5B5B5B5B5B5B5B5B5B5B7F
:10A4A000CB5B5B5B5B5B5B5B5B5B5B5B5B5B5B5B8C
:10A4B000ECE8CBE85B5BBEECBEBEBEBEBE5BBEBE28
:10A4C000010627D494F85B10F0294BD0F72949D026
:10A4D000A11881F85B30236E591E8A4280F0A38058
:10A4E000013262666BE701F0DF01C0298DD040B216
:10A4F0000028C0F22E8194F90D01636840F001003C
:10A5000084F80D0103B19847002084F85900C4E98C
:10A510001800F8BDA3F1F0010F29D3D801A050F81D
:10A5200021F000BF87A50200C5A40200C5A4020057
:10A53000C5A40200C5A40200C5A40200C5A402006F
:10A5400087A502006DA502006DA502006DA50200A1
:10A550006DA502006DA50200C5A402006DA5020054
:10A560006DA50200A11881F87830B4E7002201201F
:10A57000A4F8762084F8742084F87530C4F8FC00C0
:10A5800084F8F800F8BD94F87810F02901D0F72984
:10A59000B1D1A5184FF4704185F87830013200230D
:10A5A0000120A4F87620A4F8741084F85930C4E986
:10A5B0001833C4F8FC2084F8F800F8BD002301200B
:10A5C00084F87430A4F87630C4E9183384F8751030
:10A5D00084F8F800F8BD032222660220626E8242EF
:10A5E000FFF47EAF03F00F03013394F85C2084F88E
:10A5F00074300023012084F8762084F87730C4E991
:10A60000183384F87510C4F8FC0084F8F800F8BD1D
:10A61000022222660120E1E7266684F8595084F878
:10A6200078107F20DAE794F85B10F02952D0F729F0
:10A6300050D00A063BD501F10C02D2B2012A36D91C
:10A64000FD2934D0EF2994BF01F0F0020A46802A98
:10A6500084F8752005D0902A03D0B02A01D0A02A12
:10A660005ED101F00F0094F85C5084F87650013010
:10A67000032B84F8740050D00025002084F8775014
:10A68000B02A4FF00105C4E91800C4F8FC3084F882
:10A69000F8503ED0B02A36D9E02A3AD002F0EF0284
:10A6A000C02A36D0002384F859300120F8BD94F830
:10A6B0005C0084F876000022032BA4F874202CD0D0
:10A6C0000121C4E9182284F87720C4F8FC3084F80A
:10A6D000F810E7E7224B6367F0218022012394F80A
:10A6E000F750C4F8FC2084F8F830204684F8F710BE
:10A6F000FFF780FDF722022384F8795084F8782050
:10A7000063660020F8BDA02A03D002F0EF02802A81
:10A71000C8D184F859100120F8BD94F85D50ACE719
:10A72000D02A9ED0E02A9CD0C02A9AD094F85C50BF
:10A7300084F876500020032B84F87400EDD00125B6
:10A74000C4E9180084F87700C4F8FC3084F8F850A5
:10A75000A0E703F10C02D2B2012A3FF666AECAE6C8
:10A7600000F0800090F87030DA0719D513F0FE0F72
:10A7700016D0F0B590F8755085F08002602A83B04D
:10A7800004460ED890F874208A4245D0002943D060
:10A790005B08012B45D0032B00F09C8003B0F0BD7B
:10A7A0007047A5F1F0030F2BF8D801A252F823F05F
:10A7B00053A8020081A80200A3A8020037A8020043
:10A7C0009DA702009DA70200F1A702009DA702001D
:10A7D000F1A702009DA70200F1A70200F1A7020065
:10A7E000F1A702009DA70200F1A70200F1A7020055
:10A7F00005F10803DBB2072BD0D8012202FA03F3DC
:10A8000013F0DD0FCAD0636D1868036829461B6911
:10A8100003B0BDE8F04018475B08012B01D0022BC4
:10A82000BCD1009294F8773094F8762029462046DF
:10A83000FBF784FDB2E7436D90F876501868036823
:10A84000F3211B699847636D186805F07F01036861
:10A85000DDE7B0F87630802B1F4628BF8027002B1D
:10A860009CD000F17706636D18683546036816F8CA
:10A87000011F1B69763D2D1B9847BD42F3D38DE721
:10A88000436D90F87650186894F8773002682D017F
:10A8900003F00F03126905F07005F1211D43904785
:10A8A000B1E7436D90F87720186894F87650036804
:10A8B000F2211B6945EAC2159847636D1868036861
:10A8C00005F07F011B699847636D1868C5F3C611D1
:10A8D00003689CE7009294F8773094F87620294634
:10A8E000FBF72CFD5AE700BFF0B58C4C94F858509C
:10A8F000102D83B006D98A4808F05AF8002841D1B3
:10A9000003B0F0BD2046FFF78FFA0028F3D094F88B
:10A910007530902B29D083F08003602B2BD97F4892
:10A92000FFF7B0F994F87030DA07E4D513F0FE0FB2
:10A93000E1D094F8751081F08002602A47D894F82D
:10A940007420954200F0D680002D00F0D3805B0883
:10A95000012B01D0032BCED1009294F8773094F8DC
:10A9600076206E48FBF7BEFCC5E794F8773013B944
:10A97000802384F8753094F874309D42CFD0002D38
:10A98000CDD0CFE7674808F087FA0028B8D0664CEA
:10A9900094F85850102DB3D82046FFF7FDFC00283E
:10A9A000AED094F87530902B00F0AE8083F0800329
:10A9B000602B04D894F87430AB4200D015B95A48D3
:10A9C000FFF718FC58482946FFF7CCFE98E7A1F19D
:10A9D000F0030F2B8FD801A252F823F0C7AA020070
:10A9E00099AA020063AA020043AA0200F7A8020083
:10A9F000F7A802001DAA0200F7A802001DAA020083
:10AA0000F7A802001DAA02001DAA02001DAA02004A
:10AA1000F7A802001DAA02001DAA020001F1080306
:10AA2000DBB2072B3FF667AF012202FA03F313F004
:10AA3000DD0F3FF460AF636D186803681B689847CB
:10AA400059E7636D94F8765018680368F3211B6822
:10AA50009847636D1868036805F07F011B68984785
:10AA600049E7636D94F87720186894F87650036886
:10AA7000F2211B6845EAC2159847636D18680368A0
:10AA800005F07F011B689847636D18680368C5F37C
:10AA9000C6111B6898472EE7636D94F876501868C6
:10AAA00094F8773002682D0103F00F031268F1214A
:10AAB00005F070051D439047636D186803682946CB
:10AAC0001B68984717E7B4F87630802B1F4628BFDD
:10AAD0008027002B3FF40FAF144E636D1868354686
:10AAE000036816F8011F1B68763D2D1B9847AF427F
:10AAF000F3D800E794F870305B08012B3FF42CAFDB
:10AB0000022B7FF4F8AE27E794F87730002B7FF420
:10AB100051AF802384F875304CE700BF08670020F0
:10AB2000CC6E0020B86A0020F06500207F6700200E
:10AB300010B5054B036004460EF086FE20461AF061
:10AB4000D5FA204610BD00BF18FB04002DE9F84FD0
:10AB5000DFF89C81584FDFF89C91DFF89CA1574C9F
:10AB6000574E584D404607F0B1FF3A4656494046C9
:10AB700021F008F94846802108F0ACFE3A465349D6
:10AB8000484621F0FFF80121504609F0B7FF204662
:10AB90000FF09EF93A464E49204621F0F3F84D4811
:10ABA00010F0ACF84C489FED4D0A002300240362DE
:10ABB00001224FF081434FF48061416003610275CF
:10ABC00080F824400E2110F0F3F9454B73654FF0E7
:10ABD000800BC3F8009021464FF6FF784FF0030931
:10ABE0005A4606F17800C6E90044C6E90244C6E9BF
:10ABF0000444C6E90644C6E90844C6E90A44C6E96D
:10AC00000C44C6E90E44C6E91044C6E91244C6E93C
:10AC10001844C6E91A883465A6F8584086F85A40A0
:10AC2000746786F8F84086F8709021F073F93A4618
:10AC30002C49C6F808413046C6E94044A6F80C4104
:10AC400021F0A0F8284B6B655A46214605F17800A3
:10AC5000C3F800A0C5E90044C5E90244C5E90444BD
:10AC6000C5E90644C5E90844C5E90A44C5E90C44F8
:10AC7000C5E90E44C5E91044C5E91244C5E91844C4
:10AC8000C5E91A882C65A5F8584085F85A4085F81A
:10AC900070906C6785F8F84021F03CF9C5E94044B4
:10ACA0003A462846C5F80841A5F80C410F49BDE8C9
:10ACB000F84F21F067B800BF00600020586D0020F9
:10ACC000F065002008670020E1FA0200ADFA0200FA
:10ACD000D1620200F46C0020306A00200AD7233CC5
:10ACE000EC6C0020C9620200F06C0020CD62020012
:10ACF000706A0020B86A00205C6E002070B50546BE
:10AD00001648502104460EF0A3FBC5F30721204648
:10AD10000EF03CFAE9B220460EF038FA20460EF06A
:10AD2000FFFB0122502120460EF052FB20460EF080
:10AD300041FA0B4DC6B245F0010500E0A84750218D
:10AD400020460EF085FB20460EF0EAFB03464FF44A
:10AD50004850002BF2D1304670BD00BF8C830020DC
:10AD600070F604002DE9F0411D4E1E4DDFF878808D
:10AD700028242046FFF7C2FF034604F10D0006F821
:10AD8000013BFFF7BBFF98F8003005F8010B23B932
:10AD900001342B2CEDD1BDE8F081E7B2A7F10A0216
:10ADA000D2B266210720FBF7F5FA16F8012C213202
:10ADB000D2B266210720FBF7EDFA15F9012C07F155
:10ADC0004701002A02F17F030F46D2B2C9B24FF009
:10ADD0000700BEBFDAB2F9B20720FBF7DBFAD7E70C
:10ADE000A4610020AC610020F86B0020000000008E
:10ADF0002DE9F04F2DED068B554C564B2578DFF89D
:10AE0000A0B1DFF8A0C15A5DDFF89CA15BF8253046
:10AE1000514F524E17F805B0DFF89091DFF890E1EE
:10AE200019F805901EF805E04D48DFF888814D4976
:10AE300018F80580495D85B0003A00935CF825302C
:10AE400001935AF825300293474BDFF86CA15F5D00
:10AE500010F805C005EB450306EB83060393434B4F
:10AE6000707A18BF01221A70009B414ACAF800305C
:10AE7000404B82F80090404A83F800E0019B136049
:10AE80003E4A029B1360DFF834A13D4B8AF80080F4
:10AE900083F800C0DFF828813A4BDFF8289188F862
:10AEA00000B089F800101F70039BDFF81CB101305F
:10AEB0004FEA830820F024FA23A3D3E9002320F0EB
:10AEC00089FA20F05FFD08EB0503DFF800812E4AC8
:10AED00018F80330107003EB430306EB430A2B4AC8
:10AEE00016F813302A499AF804009AF801608BF892
:10AEF00000309AF802300E701370013020F000FA22
:10AF000011A3D3E9002320F065FA20F013FD9AF88D
:10AF10000530204A204E1060581C20F0F1F90AA399
:10AF2000D3E9002320F056FA20F004FD735D1B499D
:10AF3000433BDAB2032A08605DD8DFF894A00AF533
:10AF40008077CAF1000548E09A9999999999E93F63
:10AF50004B6C00203462002010610020C86100208A
:10AF60009C610020F8610020A0610020786E002024
:10AF7000636C00206C6C0020406C00203862002064
:10AF800099610020986100204C6E00202061002013
:10AF9000A761002088610020A461002014610020C6
:10AFA0004C6200208C6100203C620020646C002018
:10AFB000BC610020AC61002048620020616C002070
:10AFC0000D610020F5610020AF61002008620020C3
:10AFD0001B6800202378F35C433B1B0203F57A6374
:10AFE00005EB0A001844FFF789FE0AF8010F5745E0
:10AFF000F0D1CF4B1F78CF4BCF48D04E00254FF428
:10B0000000521A60394640232A460560E020356028
:10B01000FCF710FF29462422C94820F07BFF227844
:10B02000C84902EB420302EB830343440D601879E5
:10B030004D600D72530020B1C3490878023818BF23
:10B040000120134402EB83039844C04B98F8076037
:10B05000BF49C04D1B780870002E14BF7F264026C4
:10B06000BD492E70002B40F05E81BC4B09781B68F7
:10B07000194499F800309FEDBA7ABA489FEDBA6A40
:10B080000678BA489FEDBA2A05689BF80070B9485F
:10B09000DFF814C3016007EE903AB74BF8EEE77A99
:10B0A00093ED055AD3ED065AD3ED071A77EE677A7A
:10B0B00093ED007AF8EE472A93ED017AB8EE473A1D
:10B0C00093ED027AF8EE473A93ED037AB8EE474AE9
:10B0D00093ED047AF8EE474A93ED087A06EE906A0B
:10B0E000B8EE477AB8EE455AF8EE655AF8EE611AAE
:10B0F000F8EEE66A72EEA72A33EE273A73EEA73A25
:10B1000034EE274A74EEA74A35EE275A75EEA75A51
:10B1100071EEA71A77EE277A07EE105AB5FBF6F50F
:10B12000B8EE477A62EEA62A23EE263A63EEA63AF6
:10B1300024EE264A64EEA64A25EE265A65EEA65A65
:10B1400061EEA61A67EEA67AC6EE229A01EB870197
:10B15000C2EBC203894F4160C3EBC3033B44884841
:10B160008849894F894EC6EE03AA86EE23AA86EE49
:10B17000049AC6EE248A86EE058A86EE250AC7EE74
:10B18000220A87EE031AC7EE232A87EE043AC7EE97
:10B19000243A87EE054AC2EE264A87EE255A86EE05
:10B1A000212AC6EE275AC7EE276A87EE216AC0ED2C
:10B1B000009AC0ED01AA80ED02AA80ED039AC0EDCD
:10B1C000048A80ED058A80ED060A80ED072AC0ED2D
:10B1D000085AC1ED000A81ED011AC1ED022A81ED84
:10B1E000033AC1ED043A81ED054A81ED065A81ED3D
:10B1F000076AC1ED086A93F815E0997D93F8069007
:10B2000093F80780987FCCF80050C7ED004A5D7E28
:10B2100093F81AC05F7F0EEBCE0E01EBC101C6E9B9
:10B2200004E105EBC5055A4935620CEBCC0C07EB84
:10B23000C70700EBC00009EBC90908EBC808C6F84E
:10B2400024C0376370635F7A187E93F808E04F700C
:10B25000C6E90098DE7DDF7E8E70C8701E7FD87FC5
:10B260004C4D4E714FEA421C887181F800E04A480B
:10B270000F7193F82070CF7115F80C60D97893F89E
:10B280002170017093F8221093F823304770817079
:10B29000C37005EB42121EB95378002B00F0868074
:10B2A0003E4805210EF0F8FD22784FEA421C05EBDE
:10B2B0000C023B48947F117F537F052C254628BF05
:10B2C0000525022DA3EB010338BF022501EB810107
:10B2D00003EB830393FBF4F3DBB29577CD185A3D70
:10B2E00001EB43025A3A4560022CA1F15A058260F3
:10B2F00005604FEA430211D91A440A445A3A032C12
:10B30000C2600BD001EB83025A3A042C02614FEA6F
:10B31000830203D013440B445A3B436105B0BDEC98
:10B32000068BBDE8F08F1F4B09781B681944A0E617
:10B3300098610020B86100200C6C00204C6D00204A
:10B3400024610020706C00206C6C0020786E00205E
:10B35000086C00203762002004620020E46C0020AA
:10B36000000048C29961002000FCFF4538620020BF
:10B3700000000046FC610020E06D00200460002019
:10B38000286E0020846E0020C061002048610020EB
:10B39000B061002098600020046C0020586D0020EF
:10B3A000806C0020406C00202C6A00209378002BD9
:10B3B0007FF476AF937E002B3FF479AF70E700BF48
:10B3C000B0F5804F00DB704770B50D460446FFF7BF
:10B3D00095FCA84200D170BD1348502106460EF0DE
:10B3E00037F8C4F3072130460DF0D0FEE1B2304605
:10B3F0000DF0CCFE0D4C294630460DF0C7FE304610
:10B400000EF08EF844F0010400E0A04750213046D1
:10B410000EF01EF830460EF083F803464FF4485005
:10B42000002BF2D170BD00BF8C83002070F60400A9
:10B430002DE9F04F7C4C7D4A2378DFF82C82D15CDB
:10B44000054683B02830FFF7BBFF2378784A05F123
:10B450003500D15CFFF7B4FF2378764A05F132005E
:10B46000D15CFFF7ADFF05F138070026237803EB29
:10B47000430203EB820343443846995D0136FFF7EC
:10B480009FFF0D2E07F10307F0D16B4F23786B4E12
:10B4900017F82310DFF8D4914FEA450B0BF24D104B
:10B4A000FFF78EFF237857F823100BF5A770C1F331
:10B4B0000721FFF785FF23780BF2531016F82310AE
:10B4C000FFF77EFF237856F823100BF5AA70C1F31F
:10B4D0000721FFF775FF2378594A05F25910D15C0F
:10B4E000FFF76EFF4FF032084FF47A772BB218FB5C
:10B4F0000577019300264FF0000A22780AEB8A01B3
:10B5000008FB02124A4407EB0A00915D0AF1010AA6
:10B51000FFF756FFBAF10A0FEFD10136052E07F1FA
:10B520000A07E8D1019B474F03EB4306FA364FF079
:10B530000008237803EB43033B4406EB080013F8B1
:10B54000081008F10108FFF73BFFB8F1030FF0D135
:10B55000019B3D4F03EB8306B60006F582764FF064
:10B560000008237803EB430307EB830306EB080093
:10B5700013F8081008F10108FFF722FFB8F10C0FCB
:10B58000EFD1324F2378324E17F823100BF21110FF
:10B59000FFF716FF237857F823100BF58970C1F3D6
:10B5A0000721FFF70DFF2B4A237805F23910D15CF4
:10B5B000FFF706FF284A237805F59E70D15CFFF758
:10B5C000FFFE264A237805F23F10D15CFFF7F8FE14
:10B5D000234A237805F5A170D15CFFF7F1FE05F24F
:10B5E0005F1800272378C3EBC303C3EBC3033344C3
:10B5F0004046D95D0137FFF7E3FE312F08F103081C
:10B60000F0D1184F05F271250026237807EB43137C
:10B610002846995D0136FFF7D3FE202E05F103057C
:10B62000F3D103B0BDE8F08F4B6C0020A461002083
:10B63000AC610020F86100204C6200203C620020D8
:10B64000346200204C6C0020C86100208C61002016
:10B6500004600020BC610020106100209C6100207B
:10B66000A061002098600020086200205C6B002030
:10B670002DE9F041052182B02248DFF8A080224F59
:10B680000EF00AFC062017F0A3F9FBF755F81F4B44
:10B690001F49204A20481B6809681268019303600B
:10B6A000C8F800103A6001AD40F2B77440F2BB76C2
:10B6B000204615F8011B0134FFF782FEB442F7D192
:10B6C000D8F80030019301AD40F2BF76204615F85E
:10B6D000011B0134FFF774FEB442F7D13B680193BC
:10B6E00001AD40F2C376204615F8011B0134FFF787
:10B6F00067FEB442F7D10321242002B0BDE8F04137
:10B70000FFF75EBE586D00202C6C0020CC6C002032
:10B71000D06C0020D46C00201C6C0020246C002015
:10B720002DE9F843794E337843B1DFF8009299F868
:10B7300001402CB1012B47D0022B29D0BDE8F88362
:10B7400001210A201AF0E8FE012389F8013017F0E0
:10B7500033F933786E4A012B10600ED120226D48E8
:10B76000214620F0D7FB6C4BFF22C3E90122C3E93D
:10B770000322C3E90522C3E90722684B1B78002B8B
:10B78000DCD06749644B0020FF2208601A60D5E7CF
:10B790005F4C17F011F92368C01A41F288339842C0
:10B7A0005ED83378012B5FD05C4A12781AB35A49BD
:10B7B0005B4A5C4800681568854200D210600A68E0
:10B7C00090424EDA08604CE0514C17F0F5F82368CF
:10B7D000C01A42F210739842E3D93378022BD8D0C2
:10B7E000012BABD117F0E8F82368C01A42F21073AE
:10B7F00098420AD83378022BA0D117F0DDF82268DE
:10B8000041F28833801A984298D9474FDFF8208157
:10B810001225012457F8041F2846C1F30721FFF71A
:10B82000CFFD681C3978FFF7CBFD58F8041F204680
:10B83000C9B20134FFF7C4FD0A2C05F10205E9D1B4
:10B840000025032125203570FFF7BAFD2946204643
:10B850001AF062FE89F80150BDE8F843FFF7C8BA54
:10B860003378012BC7D1BDE72D4A2E485168476870
:10B87000B942294938BF57604D68AF42B8BF4F60E1
:10B8800095688768BD428D6838BF9760AF42B8BF82
:10B890008F60D568C768BD42CD6838BFD760AF42FA
:10B8A000B8BFCF6015690769BD420D6938BF176120
:10B8B000AF42B8BF0F6155694769BD424D6938BF96
:10B8C0005761AF42B8BF4F6195698769BD428D69C5
:10B8D00038BF9761AF42B8BF8F61D569C769BD42B4
:10B8E00038BFD761CD69AF42B8BFCF61156A076A6B
:10B8F000AF420D6A88BF1762BD42084DC8BF0F62D4
:10B900002D78002D3FF46EAF54E700BFF26B00209E
:10B91000186A0020E46D0020BC6D00200C6100203E
:10B92000E06D0020046E0020DC6D00200467002024
:10B93000B86D00202DE9F0413C4D3D4C3D4F3E4E51
:10B9400000202870FFF774FD01202870FFF770FDBC
:10B9500002202870FFF76CFD384B30201978FFF774
:10B960002FFD21784FF41670FFF72AFD617840F221
:10B970005920FFF725FDA17840F25A20FFF720FD5E
:10B98000797840F2C570FFF71BFD397840F2C67038
:10B99000FFF716FD717840F2C970FFF711FD31789D
:10B9A00040F2CA70FFF70CFD03212C20FFF708FDC1
:10B9B000234B272443F001082046FFF79FF904F5A5
:10B9C000FA6705463846FFF799F9854224D01D48A5
:10B9D000502106460DF03CFDC7F3072130460DF01F
:10B9E000D5FBA4F13001C9B230460DF0CFFB29469A
:10B9F00030460DF0CBFB30460DF092FD00E0C04725
:10BA0000502130460DF024FD30460DF089FD0346EF
:10BA10004FF44850002BF2D1013440F2B7739C42EE
:10BA2000CAD1094B03225A70BDE8F0814B6C00204B
:10BA3000F86000201C610020F0610020096C0020EB
:10BA400070F604008C830020586B0020F8B52D4C54
:10BA5000054616F0B1FF21682B4B2C4A1B68411A92
:10BA6000A2FB012103EB9131216065B9C1F30721EC
:10BA700040F2C970FFF7A4FC217840F2CA70BDE81B
:10BA8000F840FFF79DBC2248224F054650210DF09B
:10BA9000DFFC072128460DF079FBC42128460DF074
:10BAA00075FB28460DF03CFD0122502128460DF083
:10BAB0008FFC28460DF07EFB47F00107C6B200E080
:10BAC000B847502128460DF0C3FC28460DF028FD4C
:10BAD00003464FF44850002BF2D1032E01D02168C9
