:020000022000DC
:1060000000000420DDBD04001DBE04001FBE04000E
:1060100021BE040023BE040025BE040000000000D1
:1060200000000000000000000000000059BD040056
:1060300029BE04000000000079BD04002DBE04004C
:1060400031C004002FBE04002FBE040089F30300FA
:106050002FBE04002FBE04001D9704002FBE0400B5
:106060002FBE04002FBE04002FBE04002FBE04006C
:106070002FBE04002FBE04002FBE04002FBE04005C
:106080002FBE0400A9BA04002FBE04002FBE0400D6
:106090002FBE04002FBE0400A56503002FBE040020
:1060A0002FBE04002FBE04002FBE04002FBE04002C
:1060B0002FBE04002FBE04000000000000000000FE
:1060C0002FBE04002FBE04002FBE040045C50400EF
:1060D0002FBE04002FBE04002FBE0400B58D0300A8
:1060E0002FBE04002FBE04002FBE040000000000DD
:1060F000000000002FBE040000000000BDC5040029
:10610000000000000000000000000000000000008F
:10611000000000000000000000000000000000007F
:10612000000000000000000000000000000000006F
:10613000000000000000000000000000000000005F
:10614000000000000000000000000000000000004F
:10615000000000000000000000000000000000003F
:10616000000000000000000000000000000000002F
:10617000000000000000000000000000000000001F
:10618000000000000000000000000000000000000F
:1061900000000000000000000000000000000000FF
:1061A00000000000000000000000000000000000EF
:1061B00000000000000000000000000000000000DF
:1061C00000000000000000000000000000000000CF
:1061D00000000000000000000000000000000000BF
:1061E00000000000000000000000000000000000AF
:1061F000000000000000000000000000000000009F
:10620000F1EE103A43F08073E1EE103A704700BFB0
:1062100010B5054C237833B9044B13B10448AFF3E0
:1062200000800123237010BD48670020000000009B
:10623000CCF9050008B5034B1BB103490348AFF384
:10624000008008BD000000004C670020CCF905006C
:10625000154B002B08BF134B9D46A3F5803A002138
:106260008B460F461348144A121A2CF077FD0F4B39
:10627000002B00D098470E4B002B00D098470020F1
:10628000002104000D000D48002802D00C48AFF397
:1062900000802CF0F9FC2000290025F0F7FD2CF0FF
:1062A000CDFC00BF0000080000000420000000003A
:1062B00000000000486700200CCC00200000000017
:1062C0000000000042DF7047704700BF704700BF0A
:1062D00010B5034B0360044619F0D8F8204610BDF2
:1062E00094CC05002DE9F0419DF81840013CE4B242
:1062F0000F2C21D80D4649B200291DDA1F46436DE7
:1063000006461868036821431B68C9B2904698473F
:10631000736D1868036808F07F011B6805F0EF05CE
:106320009847C02D08D0736D1868036807F07F0187
:106330001B68BDE8F0411847BDE8F0812DE9F04148
:106340009DF81840013CE4B20F2C21D80D4649B20B
:1063500000291DDA1F46436D06461868036821436D
:106360001B69C9B290469847736D1868036808F0B6
:106370007F011B6905F0EF059847C02D08D0736DAC
:106380001868036807F07F011B69BDE8F0411847F2
:10639000BDE8F0812DE9F041344B102805461C780A
:1063A00028BF1025012D38BF0125012C82B001F036
:1063B0007F0702F07F060ED0E4B92D4B07281C782A
:1063C00034D02C48009533463A46B021FFF78AFF77
:1063D000022C0CD004E0284B07281B6834D05BB19A
:1063E0002648009533463A46B021FFF7A7FF02B092
:1063F000BDE8F081072807D01E48009533463A468D
:10640000B021FFF76FFFEBE7652FF5D9DFF870805C
:1064100098F80030012B13D81648009533463A46B9
:10642000B021FFF75FFF98F8003009E0652FC8D969
:10643000DFF84C8098F80030012B0CD9022CD6D014
:1064400013F0FD0FD3D1CBE7652FC8D9002BDDD0DA
:106450000B4B1B78F4E70748009533463A46B021CA
:10646000FFF740FF022CDED1C1E700BF90610020A2
:106470009069002080680020208D00206467002043
:106480001D8D002030B50E4D83B00C4601904FF0AD
:10649000FF31286823F0EEFE019A68210720FFF7FC
:1064A00079FF224669210720FFF774FF002328683F
:1064B0001A46194603B0BDE8304023F0B3BA00BF16
:1064C0009C8F002038B51C4B1C4A1B78002414609C
:1064D00003B938BD1A4D4FF0FF31286823F0CAFECA
:1064E00048226A210720FFF755FF2246772107201F
:1064F000FFF750FF234622462146286823F092FAF0
:106500004FF0FF31286823F0B5FE49226A210720A9
:10651000FFF740FF224677210720FFF73BFF234686
:1065200022462868214623F07DFA064B1A78022A73
:1065300008BF1C7038BD00BF1C8D0020208D0020BE
:106540009C8F00201D8D002070B52DED028B05461F
:1065500088B00146364810F01DF800246946202214
:106560000646CDE90044CDE90344CDE90544029453
:1065700007940EF027F930460DF0F6FF07EE900A6B
:10658000B8EEE78AF7EE047A28EE278A294A2A4BE2
:106590001580FDEEC87A294DC3ED007A23F012F97B
:1065A000274B2849284A1B780C700121286011705C
:1065B00033B9264B02229A7008B0BDEC028B70BD35
:1065C000DFED237A234E28EE278A3068BCEEC88A96
:1065D0004FF0FF3118EE103A9DB223F04BFE4822E7
:1065E0006A210720FFF7D6FE05F07F0277210720FA
:1065F000FFF7D0FE234622462146306823F012FAE8
:1066000030684FF0FF3123F035FE49226A21072020
:10661000FFF7C0FEC5F3C71277210720FFF7BAFEC8
:10662000306823462246214623F0FCF9C1E700BF2B
:1066300038920020E4620020208D0020248C00206D
:106640001C8D0020298C0020288C0020148D002017
:106650000000C8429C8F002010B5012182B0044682
:106660001A2026F0F9FD01211A2026F079FE0520D6
:1066700023F0B4F84FF480730094ADF8043002AB0B
:1066800013E90600134818F09FFB00211A2026F09A
:1066900067FEAC210F4818F075FC53210D4818F027
:1066A00071FC00210B4818F06DFC002104460948DC
:1066B00018F068FC00EB0421B1F5A64F06D01022BB
:1066C000054822F0C5FF002002B010BD012002B035
:1066D00010BD00BF40AF0020BC9A002070B504463A
:1066E00042F21070FFF7B8FF7A497B4822F02CFE87
:1066F000257805B37949784822F0C6FD102229464D
:10670000754822F075FFAC21754818F03BFCE0217C
:10671000734818F037FC0021714818F033FC294603
:1067200003466F481D4618F02DFC00EB0520B0F520
:10673000604F40F0A9806A4DF021284618F022FCF5
:106740000021284618F01EFC0021284618F01AFCEB
:106750000021284618F016FC10F00106ECD16578EF
:10676000002D70D15E4DF021284618F00BFC002161
:10677000284618F007FC0021284618F003FC0021E9
:10678000284618F0FFFB10F00106ECD1A578002D8B
:106790007CD1534DF021284618F0F4FB0021284607
:1067A00018F0F0FB0021284618F0ECFB00212846E9
:1067B00018F0E8FB10F00106ECD1E478FCB149498F
:1067C000454822F061FD10222146434822F010FF87
:1067D000AC21434818F0D6FBA421414818F0D2FB65
:1067E00031463F4818F0CEFB214603463C481C4644
:1067F00018F0C8FB00EB0420B0F5244F44D1384D0D
:10680000F021284618F0BEFB0021284618F0BAFBFC
:106810000021284618F0B6FB0021284618F0B2FBEC
:1068200010F00104ECD12C4822F0DEFD2C4818F0C9
:106830002DFB21461A2026F093FD21461A2026F032
:106840000BFD012070BD2849234822F01DFD1022B8
:106850002946214822F0CCFEAC21214818F092FBB9
:10686000A0211F4818F08EFB31461D4818F08AFB06
:10687000294603461A481D4618F084FB00EB052004
:10688000B0F5204F3FF46EAF002070BD174912489D
:1068900022F0FAFC102229460F4822F0A9FEAC2172
:1068A0000F4818F06FFBA8210D4818F06BFB31461C
:1068B0000B4818F067FB2946034609481D4618F0A7
:1068C00061FB00EB0520B0F5284F3FF462AF0020DC
:1068D000DBE700BF245C0500BC9A0020345C0500A7
:1068E00040AF0020705C0500485C05005C5C050062
:1068F000F8B5044642F210700D46FFF7ADFE4F4961
:106900004F4822F021FD2678002E56D16678002EC1
:1069100073D1A6788EBBE678FEB15021494818F0B5
:1069200031FB0821474818F02DFB0021454818F09D
:1069300029FB0021434818F025FBEB784249044627
:106940001C403F4822F0A0FC3D482146102222F086
:106950004FFEA64201D00020F8BD394822F044FD88
:10696000384818F093FA00211A2026F0F9FC00218B
:106970001A2026F071FC0120F8BD5821314818F08A
:1069800001FB08212F4818F0FDFA00212D4818F0CE
:10699000F9FA00212B4818F0F5FAAB782B49074695
:1069A0001F40274822F070FC25483946102222F06B
:1069B0001FFEBE42AFD00020CEE75821214818F07C
:1069C000E1FA00211F4818F0DDFA00211D4818F0F7
:1069D000D9FA00211B4818F0D5FA2B781C49074634
:1069E0001F40174822F050FC15483946102222F06B
:1069F000FFFDBE428AD00020AEE75021114818F0BA
:106A0000C1FA00210F4818F0BDFA00210D4818F016
:106A1000B9FA00210B4818F0B5FA0E49C7B2084878
:106A200022F032FC39460648102222F0E1FD687857
:106A30000740BE423FF46DAF00208DE7845C050047
:106A4000BC9A002040AF0020C85C0500B85C05007F
:106A5000985C0500A85C050010B50A4CF0212046A2
:106A600018F090FA0021204618F08CFA00212046F8
:106A700018F088FA0021204618F084FAC307EDD4F4
:106A800010BD00BF40AF00202DE9F04F894685B012
:106A90005349544C80465448174622F0F5FB49466A
:106AA0001022514822F076FD22F08CFE2368C01A95
:106AB000B0F57A7F00F287804C48FFF7CDFD7B0868
:106AC000029345D0002508F10102494C01922B4662
:106AD0001E0A4021204618F815A05FFA85FB18F021
:106AE00051FA3146204618F04DFA5946204618F022
:106AF00049FA51460746204618F044FA034603EB8C
:106B00000723AB424FF0480120461AD1019B13F8EE
:106B10001530039318F036FA3146204618F032FA51
:106B20005946204618F02EFA039B06461946204681
:106B300018F028FA00EB0620A84205F10105ABB2D7
:106B400003D0002005B0BDE8F08F029A9A42BFD86A
:106B50004C21274818F016FA4FEA59054FEA5921F7
:106B6000234818F00FFAE9B2214818F00BFA002177
:106B700006461F4818F006FA1E4904461A4822F035
:106B800083FB10222946184822F062FD04EB0624FC
:106B90001949154822F078FB214613481022A4B267
:106BA00022F0F8FCA542CCD1FFF756FF104818F0B0
:106BB0006DF900211A2026F0D3FB1A20002126F0BF
:106BC0004BFB0120BEE722F0FDFD0C4B0C4A206080
:106BD0000C49C3F80026044822F056FB6CE700BFBE
:106BE000D85C05009C6A0020BC9A002040420F003F
:106BF00040AF0020F45C0500085D05000000014086
:106C00003546526EE85C0500014608B5044822F09E
:106C10000BFC40F2FF31012026F038F9FEE700BFFF
:106C2000BC9A0020014608B5044822F08DFB40F2D2
:106C3000FF31012026F02AF9FEE700BFBC9A0020B0
:106C400010B542F2107082B0FFF706FDAC211D486E
:106C500018F098F980211B4818F094F90021194880
:106C600018F090F900210446164818F08BF900EB53
:106C70000420B0F5004F22D1124CF021204618F02C
:106C800081F90021204618F07DF90021204618F0F6
:106C900079F90021204618F075F910F00101ECD1C6
:106CA0000848019118F0F2F801991A2026F058FBD3
:106CB00001991A2026F0D0FA012002B010BD024836
:106CC000FFF7B0FF40AF0020105D0500084C0949F8
:106CD00008B50546204622F005FB2946102220462D
:106CE00022F07EFC204622F07FFB0348FFF79AFF4C
:106CF000BC9A00202C5D0500405D05002DE9F047A1
:106D000080460C4617463AB1013A92B21846013213
:106D1000FF212CF023F8034604EB070C0022444625
:106D2000204610F8011B0A2900F053810D2900F0BC
:106D300050813A2940F0A4816578A5F13001C9B2AB
:106D400009290CD9A5F14101052940F25781A5F186
:106D50006101052900F28881A5F15701C9B2A57822
:106D6000A5F13000C6B2092E4FEA01100CD9A5F1E9
:106D70004101052940F23A81A5F16101052900F29E
:106D80007381A5F15706F6B2E578A5F13001C9B2D5
:106D900030440929C6B20CD9A5F14101052940F2B8
:106DA0002981A5F16101052900F25E81A5F1570154
:106DB000C9B22579A5F1300E5FFA8EFE0901BEF148
:106DC000090FC9B20ED9A5F1410EBEF1050F40F26F
:106DD0001981A5F1610EBEF1050F00F24581573D05
:106DE0005FFA85FE94F8059001EB0E05A9F13001DC
:106DF000EDB2C9B22E440929F6B2ADB20CD9A9F14F
:106E00004101052940F20281A9F16101052900F241
:106E10001981A9F15701C9B294F80690A9F1300E71
:106E20005FFA8EFE0901BEF1090FC9B20FD9A9F1AF
:106E3000410EBEF1050F40F2ED80A9F1610EBEF1E9
:106E4000050F00F2FF80A9F157095FFA89FE71442E
:106E5000C9B201EB0525ADB20E446545F6B280F22C
:106E6000ED80E579A5F13001C9B209290CD9A5F168
:106E70004101052940F2D680A5F16101052900F202
:106E8000F380A5F15701C9B2257AA5F130095FFA5F
:106E900089F90901B9F1090FC9B204F1090E40F2EB
:106EA0009A80A5F14109B9F1050F40F2B880A5F12A
:106EB0006109B9F1050F00F2D780573DEDB20E44DC
:106EC00055FA86F6F6B200284CD00B34002534E093
:106ED000A9F16101052900F2B580A9F15701C9B2F4
:106EE00014F8019CA9F1300A5FFA8AFA0901BAF193
:106EF000090FC9B20ED9A9F1410ABAF1050F2CD96F
:106F0000A9F1610ABAF1050F00F29C80A9F15709B5
:106F10005FFA89FA5144C9B202F1010999541FFA82
:106F200089F20E449742F6B2C0F09B800135E9B277
:106F3000884204F102040D4614D914F8029CA9F108
:106F40003001C9B20929A646CAD9A9F141010529CA
:106F5000BED8A9F13701C9B2C2E7A9F137095FFA72
:106F600089FAD7E79EF80040A4F13001C9B2092997
:106F70000AD9A4F14101052958D9A4F161010529D3
:106F800078D8A4F15701C9B29EF80140A4F13000AD
:106F9000C0B209010928C9B209D9A4F141000528E4
:106FA00048D9A4F16100052864D8573CE0B20E44EA
:106FB00050FA86F616F0FF0F68D19EF802100A29E3
:106FC0000EF103045FD1BA427FF4AAAE2046BDE8B9
:106FD000F0870446A4E64944C9B20E440129F6B23A
:106FE0007FF471AF00242046BDE8F087A5F1370695
:106FF000F6B2C9E6A5F13701C9B2DAE6A5F1370163
:10700000C9B2ACE6373D5FFA85FEEBE6A9F1370180
:10701000C9B201E7A9F1370E5FFA8EFE17E7373DD7
:10702000EDB24CE7A5F13701C9B22DE7A4F1370164
:10703000C9B2A9E7A4F13700C0B2B8E74446204678
:10704000BDE8F0871349144822F04CF94946102254
:10705000114822F0C5FA104822F0C6F90F48FFF790
:10706000E1FD0F48FFF7D0FD0A490B4822F03AF93D
:107070002946ECE70749084822F034F92146E6E7BB
:107080000848FFF7CFFD0848FFF7CCFD0748FFF79A
:10709000C9FD00BF2C5D0500BC9A0020405D0500C5
:1070A0005C5D0500505D05007C5D05006C5D0500C4
:1070B0002DE9F04F824683B0CD48CE4EFFF7CCFA93
:1070C000D14619F8011B0A2900F090810D2900F022
:1070D0008D813A2940F0ED819AF80100A0F130034A
:1070E000DBB2092B0CD9A0F14103052B40F2C4817E
:1070F000A0F16103052B00F2D281A0F15703DBB2AE
:107100009AF80200A0F130085FFA88F2092A4FEAE3
:1071100003180CD9A0F14103052B40F2A981A0F17D
:107120006103052B00F2BB81A0F15702D2B29AF89D
:107130000300A0F13003DBB29044092B5FFA88FB17
:107140000CD9A0F14103052B40F28E81A0F161031F
:10715000052B00F2A481A0F15703DBB29AF80400DA
:10716000A0F13007FAB21B01092ADFB20CD9A0F155
:107170004103052B40F27481A0F16103052B00F25D
:107180008E81A0F15702D2B29AF805001744A0F1FF
:107190003003FFB2DBB2BB44092B5FFA8BFBBAB200
:1071A0000CD9A0F14103052B40F25681A0F16103F7
:1071B000052B00F27481A0F15703DBB29AF80600A8
:1071C000A0F13007FFB21B01092FDBB20CD9A0F1EF
:1071D0004101052940F23C81A0F16101052900F23D
:1071E0005E81A0F15707FFB29AF807003B44DFB277
:1071F000A0F13003DBB2BB44092B07EB02275FFA97
:107200008BFBBFB20CD9A0F14103052B40F21C81CE
:10721000A0F16103052B00F24281A0F15703DBB21C
:107220009AF80800A0F13004E4B21B01092CDBB28B
:107230000AF1090940F2E880A0F14102052A40F272
:107240000081A0F16102052A00F229815738C0B2FD
:107250009B4450FA8BFB5FFA8BFBB8F1000F00F0F8
:1072600093800AF10B0A3D461DE02821304617F0B5
:1072700089FE690A304617F085FEC5F3470130469E
:1072800017F080FE0021304617F07CFEC3B2A34207
:107290004FD1C7F101032B44DBB2013543450AF15D
:1072A000020AADB270DA1AF8024CA4F13003DBB274
:1072B000092BD1460BD9A4F14103052B5DD9A4F1CB
:1072C0006103052B00F2DC80A4F15703DBB21AF84E
:1072D000012CA2F130011C01CBB2092BE4B20AD976
:1072E000A2F14103052B4CD9A2F16103052B00F259
:1072F000D880573AD3B21C44E4B2A34415F001033A
:107300005FFA8BFBB1D120213046019317F03AFE92
:10731000690A304617F036FEC5F34701304617F0CC
:1073200031FE019B3046194617F02CFEC3B2A34232
:10733000AFD03148019322F057F830492E4821F060
:10734000A3FF102229462C4822F082F92C492A4812
:1073500021F09AFF10222146274822F041F92949BD
:10736000254821F091FF019B23481946102222F065
:107370003FF9002003B0BDE8F08FA4F13703DBB282
:10738000A5E7373AD3B2B6E799F80000A0F1300389
:10739000DBB2092B0AD9A0F14103052B4DD9A0F18D
:1073A0006103052B7BD8A0F15703DBB299F80100EC
:1073B000A0F13001C9B21B010929DBB20AD9A0F141
:1073C0004102052A35D9A0F16102052A67D8A0F14A
:1073D0005701C9B29B4451FA8BF111F0FF0171D1F1
:1073E00099F802300A2B09F1030968D1CA4667E609
:1073F00040420F0040AF0020BC9A00208C5D050089
:10740000B05D0500C05D05001C44E4B2A344012C3E
:107410005FFA8BFB7FF421AF2E4817F037FD002178
:107420001A2025F09DFF1A20002125F015FF204687
:10743000A0E7A0F13701C9B2CCE7A0F13703DBB276
:10744000B4E73738C0B203E7A0F13703DBB2E7E6B1
:10745000A0F13707FFB2C7E6A0F13703DBB2ADE614
:10746000A0F13702D2B28FE6A0F13703DBB275E6A6
:10747000A0F13702D2B25AE6A0F13703DBB23FE601
:107480001549164821F02EFF21461022134822F0FC
:10749000A7F8124821F0A8FF1148FFF7C3FBFFF738
:1074A00015FC0D490D48019221F01CFF019A11466F
:1074B000EBE70A4821F044FF0A48FFF7B3FB0A480C
:1074C000FFF7B0FB0548102222F08AF80748FFF7C3
:1074D000A9FB00BF40AF00202C5D0500BC9A002036
:1074E000405D0500505D05007C5D0500C85D050040
:1074F0002DE9F04F40F2FF3185B0012025F0C6FCA8
:107500007249734821F0C0FE7248FFF7A5F80028C1
:1075100072D071496E4821F017FF42F21070FFF7E8
:107520009BF830216D4817F02DFD00216B4817F0B6
:1075300029FD0121694817F025FD0021674817F052
:1075400021FD30210502654817F01CFD002163482C
:1075500017F018FD0221614817F014FD00210446C0
:107560005E4817F00FFD05F47F4500EB04245B48EF
:1075700017F08CFC2C4300211A2025F0F1FEA4B258
:1075800000211A2025F068FE631E9BB24FF6FD72A3
:10759000934204D8524B1F683B88A34204D0002476
:1075A000204605B0BDE8F08FFFF74AFB0521B81C67
:1075B000FFF794F80028F2D0484817F067FC002144
:1075C0001A2025F0CDFE00211A2025F045FE0021CD
:1075D000012025F05BFC642022F000F940F2FF312D
:1075E000012025F053FC3949394821F04DFE394836
:1075F000FFF732F8814620B93A49354821F0A4FE18
:10760000CDE73549324821F09FFEB7F820A097F822
:10761000228007F123030293BAF1000F24D0DFF890
:10762000C8B003971FFA88F20BEB080647461C46C2
:1076300000259046A9B220465B4642460191FFF7DD
:107640005DFB019904464FB1274B4A4613F8010BE5
:10765000FF2818BF00229E42F8D17AB33D44AA45C4
:1076600001D9002CE6D1039F0298FFF721FD0028E5
:1076700095D007F10C0420460521FFF72FF80028CC
:107680008DD0204607F11601FFF732F90446002895
:1076900085D0042540F2FF31012025F0F7FBC820FA
:1076A00022F09CF80021012025F0F0FBC82022F0F8
:1076B00095F86B1E13F0FF05ECD171E74246584672
:1076C000FFF7E2F90028C9D169E700BFF85B0500C0
:1076D000BC9A0020A0860100145C050040AF002089
:1076E000746200201C5C0500AC6A00202DE9F043A8
:1076F000544C554F554E87B0204619F0E1FA544A84
:10770000A36A54493B600191534FE56A534C07CA41
:107710009B103B604FF48073ADF80830256003ADDB
:1077200085E80700029A4B49304617F04DFB0021CF
:10773000022025F015FE4A4B4FF4207043F0010360
:1077400098470021304617F01DFC00240134E4B2B4
:107750002146304617F016FC0C2C05F8010BF5D12C
:107760000121022025F0FCFD38483E4D3E4EDFF859
:10777000008117F08BFB9DF815109DF80DC09DF84A
:1077800016208B009F0007F4407747EA0C0703F4AC
:1077900040749DF80CC0354B44EA0C045F609DF8C2
:1077A0000EC01C608F019DF80F40090207F440775E
:1077B00047EA0C0701F44071900021439F609DF857
:1077C0001070D96084009DF8111000F440703843A7
:1077D00004F440749DF81270186144EA01009101AC
:1077E00001F440719DF81440586139439DF8170029
:1077F0009DF813709961120202F440723A4344EA10
:107800000020C3E907201C1F03F120074FF00009E7
:1078100054F8041F284619F05FFB98F80020EB6A23
:107820002360383512B932689B1A2360002BB8BF29
:10783000C4F80090BC4206F10406E9D107B0BDE8E7
:10784000F08300BFDC8B0020AC91002040AF002013
:107850001C5E050080841E0050900020C89000200F
:1078600080C70500448D0020389100205C910020E5
:10787000178D00202DE9F043C04DC14C297801EB54
:10788000C1032DED028B04EBC30014F8333083B039
:10789000CA007BB3BB4FDFEDBC8AD7ED007A9FED0A
:1078A000BB8AC379007A009077EEA87A0A4404EB89
:1078B000C20167EE887A8A794979FDEEE77A8342D8
:1078C00041F2883994BF8046064609FB02F217EE62
:1078D000900A09FB01F194BF1E46984621F060FF13
:1078E000B04280F2E280AA4F3B78B34240F08E80F3
:1078F0002978CA00501804EBC000437873B3A54F31
:10790000DFEDA18AD7ED007A9FEDA08AC37A007BD4
:10791000009077EEA87A0A4404EBC20167EE887AF9
:107920008A7A497AFDEEE77A834241F2883994BF38
:107930008046064609FB02F217EE900A09FB01F1A8
:1079400094BF1E46984621F02BFFB04280F28A80F9
:10795000914F3B78B3424BD12978CA00531804EBBE
:10796000C303987818B993F82030002B3BD08B4F85
:10797000DFED8B8AD7ED007A9FED848A501804EBF7
:10798000C00077EEA87A0A44C37B007C009004EB29
:10799000C20167EE887A8A7B497BFDEEE77A8342F3
:1079A00042F2107994BF8046064609FB02F217EEB8
:1079B000900A09FB01F194BF1E46984621F0F0FEA3
:1079C000B04231DA774FDFF8E0813B7888F8006029
:1079D000B34208D02B7803EBC30304EBC3039A78BC
:1079E000002A40F0858003B0BDEC028BBDE8F08337
:1079F0002B7803EBC30304EBC3033246597D987C19
:107A0000FEF7C8FC29783E70CA00A7E72B7803EB85
:107A1000C30304EBC3033246197D587CFEF7BAFC5E
:107A200029783E70CA0065E7D7ED007A2B7877EEAB
:107A3000A87A03EBC30304EBC30367EE887A9A7B4F
:107A4000597B187C0090FDEEE77ADB7B17EE900AFD
:107A500009FB02F209FB01F121F0A2FE404554DDD1
:107A60004646AFE7D7ED007A2B7877EEA87A03EB9E
:107A7000C30304EBC30367EE887A9A7A597A187BBA
:107A80000090FDEEE77ADB7A17EE900A09FB02F22E
:107A900009FB01F121F084FE404552DD3E4F3B7869
:107AA0004646B3423FF458AFA2E7D7ED007A2B78B1
:107AB00077EEA87A03EBC30304EBC30367EE887A7F
:107AC0009A795979187A0090FDEEE77ADB7917EE0A
:107AD000900A09FB02F209FB01F121F061FE404529
:107AE00064DD2B4F3B784646B3423FF401AF8DE750
:107AF000997DD87C3246FEF74DFC98F800303B70FB
:107B000003B0BDEC028BBDE8F083D7ED007A2B7893
:107B100077EEA88A03EBC30304EBC30328EE888A3D
:107B20009A7B597B187C0090FDEEC87ADB7B17EEC0
:107B3000900A09FB02F209FB01F121F031FEC6B205
:107B400040E7D7ED007A2B7877EEA88A03EBC303E2
:107B500004EBC30328EE888A9A7A597A187B00903E
:107B6000FDEEC87ADB7A17EE900A09FB02F209FBF8
:107B700001F121F015FEC6B2EAE600BFFC8F00203D
:107B8000B8600020449000200000B44200007A4415
:107B9000C08B0020C48F0020C18B0020188C0020D7
:107BA00000003443C28B002020920020D7ED007AE1
:107BB0002B7877EEA88A03EBC30304EBC30328EE0C
:107BC000888A9A795979187A0090FDEEC87ADB791B
:107BD00017EE900A09FB02F209FB01F121F0E0FD2A
:107BE000C6B280E6BC499FEDBD6AD1ED007ABC4BC0
:107BF000BC4A93ED007ADFEDBC6A2DE9F04F67EEE9
:107C0000867A2DED028BE7EE267AB84DB84C92EDD0
:107C1000008A2B78C1ED007A37EE088A03EBC303A4
:107C200038EE678AF6EE008A04EBC30368EE288A12
:107C300085B0C2ED008A93F8242093F81BB001921E
:107C400093F8252093F826300292039321F0BAFD91
:107C50002B78A84A03EBC301F0EEE87AB3EE047A7E
:107C600004EBC101F4EEC77AF1EE10FA0D7ECCBF41
:107C7000012600261670DA001DB991F82160002E49
:107C80007AD09D49DFF89882DFF898E2DFF898C251
:107C90009A4F0E784FF000094FF0000AC8F8009094
:107CA000C7F80090CEF80090CCF800A07EB9B6EEF0
:107CB000007AF4EEC77AF1EE10FA08DD904A01235B
:107CC00010600B7005B0BDEC028BBDE8F08FDFF8E3
:107CD0003092D9F80090A0EB0909B9F10B0FF1D956
:107CE000DFF848A29AF80090B9F1000F1ED0DFF833
:107CF000409299F80060002E47D09FED827A824E24
:107D0000F4EEC77AF1EE10FAC8BF30603668801B17
:107D1000B0F5C87F3ED9002389F800300B708AF88F
:107D2000003005B0BDEC028BBDE8F08FB6EE007AF6
:107D3000F4EEC77AF1EE10FA00F39980DFF8F091D3
:107D400099F80070002FD8D19FED6E7AF4EEC77AC3
:107D5000F1EE10FA01DD6C4B1860002EB2D06A4BC8
:107D60001B68C01AB0F5C87FACD9002389F8003071
:107D70000B708AF80030D4E791F82260002E80D191
:107D800091F8231000299DD07BE75F4E01213060E0
:107D900089F80010DFED5D7AB4EEE78AF1EE10FAB3
:107DA0004EDAD11804EBC101FFEE008AC97F002929
:107DB0005AD0032900F0FC80022900F03281052905
:107DC00000F00B81042900F07B81B0EE687A95B158
:107DD0004F499FED506AD1ED007A06EE90BA67EEFA
:107DE000867AF8EEE66A67EEA67A67EE877AFDEEA7
:107DF000E77AC8ED007AD11804EBC10191F82100AF
:107E0000002846D0DDED017A9FED4A7A91F82710DF
:107E1000F8EEE77A67EE877A99B3032900F03781A5
:107E2000022900F0F680052900F06A81042900F09B
:107E30009B8168EEA77AFDEEE77A17EE901A26E0AE
:107E4000DFED357AD118B4EEE78A04EBC101F1EE2B
:107E500010FA98BFDFED317AC97F94BF68EEA78A28
:107E6000F7EE008A0029A4D1B1EE687AAFE70126C7
:107E70008AF800603BE7F5EEC08AF1EE10FAC0F236
:107E8000CE8067EEE87AFDEEE77A17EE901A1B488F
:107E90000160D11804EBC10191F82200002856D0EE
:107EA000DDED027A9FED237A91F82810F8EEE77A5B
:107EB00067EE877A002946D0032900F0BA800229AC
:107EC00000F09680052900F03D81042900F05A81D8
:107ED00067EEA87A39E000BF508B00206666663FE7
:107EE000D08B0020548B0020CDCCCC3DFC8F0020CB
:107EF000B8600020B09000204E8B0020B49000208D
:107F0000588B00203333B33E5C8B00202506F0C134
:107F1000F06200200AD7233D2506F0410A85883DFE
:107F2000C0900020BC900020B89000204C8B002016
:107F30004D8B00200AD7233F00000000F5EEC08AD9
:107F4000F1EE10FA5ADB67EEE87ACCED007A1344D2
:107F500004EBC30494F82330002B3FF4B3AEDDED03
:107F6000037A1FED0C7A94F82930F8EEE77A67EE81
:107F7000877A63B967EEE88AFDEEE87A17EE903A01
:107F8000CEF8003005B0BDEC028BBDE8F08F032BBE
:107F900064D0022B35D0052B00F0C180042B00F0FB
:107FA000068168EEA77AFDEEE77A17EE903AE7E7EA
:107FB0005FED1F7AF5EEC08AF1EE10FA8CBFB0EEDD
:107FC000677AB0EE687AFFEE007AB4EEE77AF1EE07
:107FD00010FAB8BFB0EE677AF9E6F7EE007AF4EE81
:107FE000E78AF1EE10FA40F2B880BFEE007AEEE6D2
:107FF000F5EEC08AF1EE10FA40F2E7805FED327ADA
:10800000A3E7F5EEC08AF1EE10FA40F2E780002314
:10801000B6E7F5EEC08AF1EE10FA40F2EE800021EC
:1080200035E7F5EEC08AF1EE10FA5ED91FED3E7A23
:10803000CDE6F5EEC08A1FED407AF1EE10FA98BF5A
:10804000B0EE687AFFEE006AB4EEE67AF1EE10FA6E
:10805000B8BFB0EE667A67EE877A76E7F5EEC08A4B
:108060001FED4B7AF1EE10FA88BFF0EE478ABFEEB3
:10807000007AF4EEC78AF1EE10FAB8BFF0EE478A44
:1080800068EEA78AFDEEE87A17EE903A78E7F5EE0B
:10809000C08A1FED577AF1EE10FA98BFB0EE687AF9
:1080A000FFEE006AB4EEE67AF1EE10FAB8BFB0EE79
:1080B000667A67EE277AFDEEE77A17EE901AE6E623
:1080C000F7EE007AF4EEE78AF1EE10FA8CBFB0EE2C
:1080D000677AB0EE687AB5EEC07A5FED697AF1EE54
:1080E00010FAB8BFB0EE677A71E6FFEE007AF4EEF0
:1080F000E78AF1EE10FABFF6B7AEB7EE007A66E6A1
:10810000B7EE007AF4EEC78AF1EE10FA7FF6B3AE5E
:10811000F1EE677AFDEEE77A17EE901AB7E6F5EE24
:10812000C08A1FED7B7AF1EE10FA88BFF0EE478A25
:10813000BFEE007AF4EEC78AF1EE10FAB8BFF0EEA7
:10814000478A2EE7B7EE007AF4EEC78AF1EE10FA0E
:108150007FF6F4AEF1EE677AF7E6F5EEC08AF1EE5F
:1081600010FABFF681AE61E7B7EE007AF4EEC78A87
:10817000F1EE10FA98BFB0EE687A5FED916AB5EE55
:10818000C07A91E7B7EE007AF4EEC78AF1EE10FA02
:1081900098BFB0EE687AB5EEC07A5FED996AF1EEFD
:1081A00010FAB8BFB0EE667A67EE877ACDE6B7EE22
:1081B000007AF4EEC78AF1EE10FA88BFF0EE478A33
:1081C000F5EEC08A1FEDA47AB6E7BFEE007AF4EEB2
:1081D000C78AF1EE10FABFF6B6AEB6E6BFEE007A89
:1081E000F4EEC78AF1EE10FAFFF6DDAE67EEE87A3C
:1081F000FDEEE77A17EE903AC2E6BFEE007AF4EEB3
:10820000C78AF1EE10FABFF63CAE54E7F0B4CB4BA0
:10821000CB4D1A78CB482B68CB49002A62D1CB4A88
:1082200004680F681668E41BA64240F22B8143F0F5
:10823000010344684F685668E41BB442C0F03881BB
:10824000043CB44280F0768184688F689668E41BB1
:10825000B442C0F02A81043CA64240F26881C4685E
:10826000CF68D668E41BB442C0F01C81043CA6422F
:1082700040F25A8104690F691669E41BB442C0F0E8
:108280000E81043CA64240F24C8144694F69566914
:10829000E41BB442C0F00081043CA64240F23E819F
:1082A00084698F699669E41BB442C0F0F280043C93
:1082B000A64240F23081C469CF69D669E41BB4425A
:1082C000C0F0F980043CA64240F222810C6A006AA8
:1082D000116A021B8A4280F0CA8043F480732B60CB
:1082E000F0BC70470E6804689FED997A974AA41B0A
:1082F00007EE904AF8EE677A166867EE877AFDEE29
:10830000E77A17EE907AE41BB442C0F0B880043CE0
:10831000A64298BF23F001034F6844689FED8C7A12
:108320005668E41B07EE904AF8EE677A67EE877AA4
:10833000FDEEE77A17EE907AE41BB44280F0BE803F
:1083400043F002038F6884689FED817A9668E41B8E
:1083500007EE904AF8EE677A67EE877AFDEEE77AE5
:1083600017EE907AE41BB44280F0CC8043F0040313
:10837000CF68C4689FED767AD668E41B07EE904A12
:10838000F8EE677A67EE877AFDEEE77A17EE907A75
:10839000E41BB44280F0B08043F008030F69046925
:1083A0009FED6B7A1669E41B07EE904AF8EE677A48
:1083B00067EE877AFDEEE77A17EE907AE41BB44217
:1083C00080F0948043F010034F6944699FED607A18
:1083D0005669E41B07EE904AF8EE677A67EE877AF3
:1083E000FDEEE77A17EE907AE41BB44278D243F0C0
:1083F00020038F6984699FED567A9669E41B07EE26
:10840000904AF8EE677A67EE877AFDEEE77A17EE24
:10841000907AE41BB4425DD243F04003CF69C46953
:108420009FED4B7AD669E41B07EE904AF8EE677A27
:1084300067EE877AFDEEE77A17EE907AE41BB44296
:1084400042D243F08003006A0C6A116A9FED407AC1
:10845000021B07EE902AF8EE677A67EE877AFDEE48
:10846000E77A17EE900A121A8A42FFF436AF043AFE
:10847000914201D823F480732B60F0BC704743F025
:10848000010349E7043CB442FFF4D3AE23F00103F7
:10849000CFE643F040030EE743F0200300E743F04C
:1084A0001003F2E643F00803E4E643F00403D6E6E3
:1084B00043F00203C8E643F0800307E7043CA6420A
:1084C00098BF23F002033DE7043CA64298BF23F087
:1084D0008003B8E7043CA64298BF23F040039DE721
:1084E000043CA64298BF23F0200382E7043CA64246
:1084F00098BF23F0100367E7043CA64298BF23F01F
:1085000008034BE7043CA64298BF23F004032FE77F
:1085100023F08003DAE623F04003CCE623F02003C7
:10852000BEE623F01003B0E623F00803A2E623F032
:10853000040394E623F0020386E600BF178D0020B3
:10854000748F002070630020389100205C9100201F
:10855000CDCC4C3E70B4254B254A1B78D25C422AC8
:10856000C0F3470027D8234B1978022904462BD0A3
:10857000214800EB02202346005D002A32D11F4E25
:108580001F4D345D2C70012A12D11E4D1C4CEB5C2A
:108590002370032A01D13F2821D0032906D01A4B8A
:1085A0001A6840F2FF139A4208BF002070BC70475F
:1085B0000A2AEAD0EDE70F4B1978144B022908BFBD
:1085C00000F07F00185CE8E7A2F11703012BCFD879
:1085D000094C00F07F0304EB0220C05CD3E70020CD
:1085E00070BC7047042ACAD0CDE700BFFC8F0020C2
:1085F000D4620020A061002078AE0500345E050042
:10860000E891002078AD0500748F00209469002067
:1086100070B4204B204A1B78204C214D07CAC3EB75
:10862000C30604EB460485B02D78E47804AE06E971
:108630000700E5B91B4A11686FEA112101F0010139
:10864000194AC3EB031302EB830393F832201AB1E8
:1086500093F8372012070CD4124B1868C0F300208F
:10866000001BB0FA80F0400905B070BC70470221D1
:10867000E6E793F8390040EA4400C0B204AB00EBEF
:1086800040001844014411F80C0C0138C0B205B088
:1086900070BC7047FC8F0020285E050044630020FA
:1086A0006F630020748F0020046000208F4A90497F
:1086B0009078F8B556781378D57814790978002E23
:1086C000C3F10003DBB218BFFF23002818BFFF234C
:1086D00056798848002D18BFFF23002C18BFFF23B0
:1086E0009479D579127A002E01EBC10600EBC60011
:1086F00018BFFF23002C18BFFF23847E002D18BF56
:10870000FF23002A18BFFF23012C4FEAC1064FF0B8
:10871000000269D07848794C794D00782478C1EB13
:10872000011705EB870500EB400004EB800095F88E
:108730003150744C744F034405FB02332278DCB291
:10874000032A3C7035D0714B1878032815D00228C5
:1087500000D0F8BD6E4B5B5CA3F14302032A06D93F
:10876000182BF6D86B4A22FA03F3DB07F1D5FFF793
:108770004FFF00FB05403870F8BD654B13F801C092
:10878000BCF1010FE5D0BCF10A0FE2D0624A634BA5
:10879000711A02EB41021B68D27803F00103934285
:1087A000D7D12C44E4B2BCF1070F08BF053C3C70A4
:1087B000F8BD574B13F801C0BCF10F0F66D0BCF1E8
:1087C0000C0F55D0BCF10E0F69D0BCF1080F6ED163
:1087D000534B1B78492B59D94C4B18782C44E4B295
:1087E00003283C70B3D1D1E7827F002A92D04D4854
:1087F0004D4D90ED017AD5ED007AB8EEC77AF4EEE2
:10880000C77AF1EE10FA68D4012A2ED090ED027AE0
:10881000B8EEC77AF4EEC77AF1EE10FA5FD4022A06
:1088200023D090ED037AB8EEC77AF4EEC77AF1EE72
:1088300010FA56D4032A18D090ED047AB8EEC77A0D
:10884000F4EEC77AF1EE10FA45D4042A43D090ED45
:10885000057AB8EEC77AB4EEE77AF1EE10FA42DCA8
:10886000052A18BF00227FF455AF013AD2B251E772
:108870002B4B1B78392B09D93E2B14D12C44BCF13E
:10888000070FE4B211D1053CE4B23C701F4B1878DD
:1088900003283FF47BAF02287FF45BAF5AE7204BFD
:1088A0001B78452BF2D92C44E4B23C704BE71C4AB0
:1088B00012783E2AE2D1BCF1010F02D0BCF10A0FBE
:1088C000DCD1124A1278032A3FF443AF022A7FF424
:1088D00040AF5B5C46E70422C7E72246C5E70222B9
:1088E000C3E70322C1E70522BFE700BF5C8F00207A
:1088F000FC8F0020B8600020BC8F0020B58F0020C6
:1089000004600020A98F0020C4900020A0610020F6
:10891000D46200205100800144630020748F002045
:10892000D8620020DC8F0020C48F0020284B294A09
:108930001B78C3EB031302EB830393F83B30C3B103
:10894000254B9FED267AD3ED007AF4EEC77AF1EE4F
:1089500010FA0FD5224A1378022B2BD0BBEE047AE3
:10896000F4EEC77AF1EE10FA0CDC1E4B1B78032BE9
:108970001CD07047FBEE046AF4EEE67AF1EE10FAD2
:108980000BDD174A1378032B14D09FED147AF4EE05
:10899000C77AF1EE10FA16DA7047F4EEC77AF1EE04
:1089A00010FAE2DB0F4B1B78022BE0D10E4B0022BA
:1089B0001A7070470C4A11780029DAD10948012150
:1089C000037011707047074B1B78022BD1D1EDE774
:1089D000FC8F002004600020C48F0020000096C29D
:1089E000A98F0020718F00203C90002070B50546B3
:1089F0000C4620F0E7FE1A4A13783BB9194E1A4983
:108A000030601A4E0B60012133601170CDB9154BE7
:108A100017491B680968C31A8B420ED2124B19689A
:108A2000A1B1124B19681C60611AB1F5FA6F11D02F
:108A30009DB1012D0ED100290CDB00231370022003
:108A400070BD012DF9D1074B0A49E2E70749012220
:108A50000C601A60084B187870BD0029FADCECE74E
:108A6000728F0020608B00202C900020209000202E
:108A7000B8620020406200202C8D00202DE9F843D0
:108A8000AA4BAB4E1B78C3EB031206EB8202180114
:108A900092F82D20403A07EE902AF8EEE77A00F19E
:108AA000E7809FEDA47AF7EE000AE7EE870AC21A84
:108AB00006EB820292F82E20403A07EE902AF8EE5A
:108AC000E77A00F1E080DFED9B6AB7EE007AA7EE6F
:108AD000A67A994AC3EBC30102EB4102927A002ABB
:108AE00000F09D80954AC51A127806EB8505012A8B
:108AF00095F8241095F8277095F828E095F825C08A
:108B000095F8294095F82A8095F82C9000F0C980B6
:108B100009236422403CA8F14008B9F1000913FB85
:108B2000012113FB072713FB0E254FEA44044FEAEC
:108B3000480818BF4FF0010913FB0C22804E336820
:108B4000BB4234DC791A0129B8BF012107EE901A23
:108B5000FB1AB8EEE77A07EE903AF8EEE77AF7EE0E
:108B6000006A87EE870AB4EEE60AF1EE10FAF4EE38
:108B7000660A88BFB0EE660AF1EE10FA01D01EF068
:108B8000AFFB07EE904AF8EEE77A27EE800A6D4BCE
:108B90009FED6D7AD3ED007A6C4B67EE877A27EE06
:108BA000800ABDEEC00A83ED000ABDE8F883AB423F
:108BB00074DB521B012AB8BF012207EE902A5B1B0F
:108BC000F8EEE76A07EE903AF8EEE77A9FED606A12
:108BD00087EEA60AF7EE007AB4EEC60AF1EE10FAB6
:108BE000B4EE677AB8BFB0EE460AF1EE10FA03D0E1
:108BF000F0EE470A1EF074FBB9F1000F08D0F7EE53
:108C0000007AB4EEE70AF1EE10FA88BFB0EE670A18
:108C100007EE908AF8EEE77A27EE800AB7E74D4A2A
:108C20001278032A52D0454A4B4912780968012A22
:108C30003DD0C31A06EB8306092296F82B0096F85E
:108C40000180642312FB0032521A01EB42028B189E
:108C50006FF013045F1004FB08F41420B7EE007AE1
:108C6000F0EE470A08FB00F83D464FF0010965E7C2
:108C7000DFED3A6A9FED3A7A77EEA67AF5EE000AD2
:108C8000E7EE870A13E79FED357ADFED356A77EE79
:108C9000877AB5EE007AA7EEA67A1AE79FED2C0A3E
:108CA00075E72C4A1278032A2DD02B4A11682D4AD9
:108CB000C31A06EB8306126896F801806FF013045E
:108CC000531804FB08F45F100A20C7E7254A224C1A
:108CD000254924681268194D09682D78C31A06EBD6
:108CE0008306121B96F8018001EB6202012D01EB55
:108CF00002036FF013044FEA630704FB08F40CBF90
:108D00000A201420AAE7174A134B17491B68126858
:108D1000096895F80180D21A01EB620253186FF0CE
:108D200013045F1004FB08F40A2097E7FC8F00206F
:108D300004600020320C433D44630020A061002009
:108D400050900020F06200200AD7233C408D002084
:108D500000000000A98F0020346300200000804242
:108D60000000403CB0910020B49100202DE9F84F64
:108D7000B74BB84ADFEDB87AD2ED004A9FEDB75A4B
:108D80009FEDB77ADFF8F4829FEDB64A2DED048BA4
:108D9000D3ED009AB44BF4EEE79A93ED009AB34BFF
:108DA000F1EE10FAF4EEE74A8CBFF0EE675AF0EEFF
:108DB000695AF1EE10FA75EEA75A8CBFB0EE676AE9
:108DC000B0EE646AB4EEC59A76EE277AB0EE478AC2
:108DD000B1EE046AF1EE10FAA5EE868A1D78A44B76
:108DE0008CBFF0EE456AF0EE496AF0EE475A76EE37
:108DF000856AE7EE865A05EBC50708EBC707B0EEB4
:108E0000045AA6EE857A97F84560FDEEE57AD3ED33
:108E1000008A17EE902AFDEEC77ABDEEC88A17EEDB
:108E2000904A68EE848A4FEAC509002E76D0DFEDBD
:108E3000917A97F8313097F82CE097F82A1097F844
:108E40002D0097F82BB097F82E6097F82F70F4EE5E
:108E5000E74AF1EE10FA4FF0640CB8BF62464FF0EB
:108E6000190A403B07EE903A1AFB0ECC00F1D08174
:108E700009EB050308EBC303F8EEE77A93F8323009
:108E80009FED807AF7EE000A403BE7EE870A00F19B
:108E9000D48107EE903ADFED7B6AF8EEE77AB7EE21
:108EA000007AA7EEA67A09EB050308EBC303944505
:108EB00093F830A0F0EE477AC0F2D881AEEB010112
:108EC00001EB810101EB81010129B8BF0121ACEB6C
:108ED000020207EE901A07EE102AF7EE006AF8EE8B
:108EE000E77AB8EEC77AF4EE660AF1EE10FA87EE8A
:108EF000270A01D01EF0F4F9BAF1000F40F06982A0
:108F0000403E760007EE906AF8EEE77A67EEA87AC0
:108F100067EE807AFDEEE77A17EE906A09EB0500BE
:108F200008EBC00090F84630002B00F0E580DFED44
:108F3000517A90F835C090F83A3090F8332090F894
:108F4000361090F834E090F8377090F838A0F4EECE
:108F5000E79A18EE100AF1EE10FA4FF0640BB8BF62
:108F6000584608EE100A403B4FF0190007EE903AC1
:108F700010FB0CB000F1BA8109EB050308EBC30349
:108F8000F8EEE77A93F83B309FED3E7AF7EE000A71
:108F9000403BE7EE870A00F1BE8107EE903ADFED35
:108FA000396AF8EEE77AB7EE007AA7EEA67AF0EE25
:108FB000477A09EB050308EBC30393F839B018EEC1
:108FC000103A984260DA1922642312FB013318EE3A
:108FD000102A934200F39080AEEB010101EB810176
:108FE00001EB81010129B8BF0121D31A08EE103A23
:108FF00007EE101AB8EEC88AB8EEC77ADFED1E6A1F
:1090000088EE070AB7EE007AB4EEE60AF1EE10FA3F
:10901000F4EE477AB8BFB0EE660AF1EE10FA03D06C
:10902000F0EE670A1EF05CF9BBF1000F08D0F7EE16
:10903000007AB4EEE70AF1EE10FA88BFB0EE670AE4
:10904000AAF1400A4FEA4A0A07EE90AA49E000BF97
:10905000C48F0020449000200000B442000034433C
:109060000000C8420AD7233C188C0020FC8F002047
:10907000F06200200000B4C200000000B8600020D0
:10908000000034C3320C433DACEB020202EB82021F
:1090900002EB8202012AB8BF012207EE902AC31A0E
:1090A00008EE103AB8EEE77AF7EE007AB8EEC88A22
:1090B000F4EE670AF1EE10FA88EE070A01D01EF00E
:1090C0000FF9BBF1000F08D0F7EE007AB4EEE70A13
:1090D000F1EE10FA88BFB0EE670A403F7F0007EE5E
:1090E000907AF8EEE77A67EEA87A67EE807AFDEE7E
:1090F000E77A17EE903A1E4409EB050208EBC2022C
:1091000092F84730002B72D05FED237A92F843300B
:1091100092F83E1092F83CE092F83FC092F83D0081
:1091200092F8407092F841A0B4EEE79AF1EE10FA8E
:109130004FF06402B8BF1446403B07EE903A4FF040
:10914000190BF8EEE77A1BFB012256D41FED337A98
:10915000F7EE000AE7EE870A09EB050308EBC30305
:1091600093F84430403B07EE903AF8EEE77A00F18E
:1091700023811FED3C7AF7EE006AE7EE876A09EB80
:10918000050308EBC303944293F8425000F3D480E4
:10919000A1EB0E0101EB810101EB81010129B8BFB7
:1091A0000121131B07EE103A07EE901AF7EE006A42
:1091B000F8EEE77AB8EEC77AF4EE660AF1EE10FA46
:1091C00087EE270A01D01EF08BF8002D40F00B81AE
:1091D000403F7F0007EE907AF8EEE77A67EEA88AC4
:1091E00068EE808AFDEEE88A18EE903A1E44BDECE7
:1091F000048B824B1E60BDE8F88FDFED816A9FED26
:10920000817A77EEA67AF5EE000AE7EE870AA3E701
:1092100009EB050308EBC303F8EEE77ADFED786AA4
:1092200093F832309FED777A77EEA67AF5EE000A62
:10923000403BE7EE870A7FF52CAE07EE903A9FEDB4
:10924000707ADFED706AF8EEE77A09EB050377EEE6
:10925000877AB5EE007AA7EEA67A08EBC3039445A9
:1092600093F830A0F0EE477ABFF628AE19216423B8
:1092700011FB0033934200F3AA80ABEB000000EB3C
:10928000800000EB80000128B8BF0120D21A07EE51
:10929000100A06EE902AB8EEC77AF8EEE66A9FED5D
:1092A0005A6A86EE870AB7EE007AB4EEC60AF1EE85
:1092B00010FAF4EE477AB8BFB0EE460AF1EE10FAB3
:1092C00003D0F0EE670A1EF00BF8BAF1000F08D0D9
:1092D000F7EE007AB4EEE70AF1EE10FA88BFB0EECE
:1092E000670A403F7F0007EE907A0DE609EB050321
:1092F00008EBC303F8EEE77ADFED416A93F83B3001
:109300009FED407A77EEA67AF5EE000A403BE7EE55
:10931000870A7FF542AE07EE903A9FED397ADFED8E
:10932000396AF8EEE77A77EE877AB5EE007AA7EE3B
:10933000A67AF0EE477A3CE61923642213FB0C234D
:109340009C42FFF654AFA0EB0C0000EB800000EB5A
:1093500080000128B8BF012007EE900AE41AB8EE99
:10936000E77A07EE904AF8EEE77A9FED276A87EEF4
:10937000870AF7EE007AB4EEC60AF1EE10FAF4EEC0
:10938000676AB8BFB0EE460AF1EE10FA03D0F0EE0D
:10939000660A1DF0A5FF45B1F7EE007AB4EEE70AC4
:1093A000F1EE10FA88BFB0EE670AAAF1400A4FEA60
:1093B0004A0A07EE90AA0FE7DFED116A9FED117AD6
:1093C00077EEA67AF5EE006AE7EE876AD7E6002622
:1093D000A4E5F7EE007AB4EEE70AF1EE10FA88BFE2
:1093E000B0EE670A8CE5F7EE007AB4EEE70AF1EE2C
:1093F00010FA88BFB0EE670AEAE600BF7468002082
:10940000000080420000403C000000002DE9F04FC9
:10941000D94BDA4F1E78C6EB061307EB830385B0F2
:1094200093F8358093F8335093F8349004464046CF
:1094300028F08AFED24B002228F0F0FE29F09EF997
:10944000D04BDFF884E31A781EF804100291A24290
:1094500007EE900A4FEA061B00F01B81CA4A9FEDF7
:10946000CB7A52F82400CA4ACA4992F800C051F88F
:1094700024100391A1EB0C01C74A1C700CEB5101A5
:10948000323D01FB05F582FB053AED17C5EB2A13CA
:1094900001EB030AC14D09FB0AF982FB09A2AD5D8C
:1094A0004FEAE979C9EB62120192002D00F0A48025
:1094B000032D00F0A180019AA1EB0309A9EB020999
:1094C000814569DA0CF1030A824565DAF8EEE77A3C
:1094D0004FF0010AB4EEE77AF1EE10FA0EF804A0AC
:1094E00000F11C81B8F17F0F6AD0CDF808A04FF0D1
:1094F000000A002D00F0BF80032D00F0BC80029A0E
:10950000002A00F0E780DFF8A8E21EF804E0BEF1D0
:10951000000F58D1BAF1000F6BD1ABEB060E07EB81
:109520008E0E9EF838E0BEF1000F62D10DB1032D12
:109530005FD1082C00F0C981CB1A834240F38081AF
:109540009749019A51F824109FED966A9B1A5B1A6D
:10955000954AA3EB0C031278012BB8BF012307EE49
:10956000902A07EE103AF8EEE77AB8EEC77AA0EB49
:109570000C0067EE277A07EE100AF8EEC76A86EE4F
:10958000277A8A4A67EE267AFDEEE77A17EE903A56
:109590005B0042F824302CE0A9F10309814550DC3E
:1095A0004FF0000AF8EEE77AF4EEC77AF1EE10FA1F
:1095B00002DCB8F17F0F9CD1029A002A00F08A8069
:1095C0007B4B01221A55082C00F0AE80ABEB06064F
:1095D00007EB860797F83830002B40F09080754AEB
:1095E000724BD2ED007AFDEEE77A17EE902A43F83F
:1095F000242005B0BDE8F08FABEB060907EB890925
:1096000099F838A0BAF1000F7FF455AF082C3FF459
:1096100052AFA0EB01099944B9F1000F019AB8BF0C
:10962000C9F10009914580F288800CF10309814558
:10963000FFF64CAF8145B4BF4FF0000A4FF0010A6E
:10964000B0E7F8EEE77A4FF0000AB4EEE77AF1EE11
:1096500010FA0EF804A058D5DFF854E1082C0EF8E3
:1096600004A000F0B380DFF854E11EF80480B8F1E4
:10967000000F3FD151E7082C00F0BC80ABEB060E89
:1096800007EB8E0E9EF838E0BEF1000F7FF437AF87
:1096900092E73D49484A51F8240052F8241007EE59
:1096A000100A06EE901AB8EEC77AF8EEE66AF1EE06
:1096B000C75AB1EEE66A35EEC67AB5EEC07AF1EE7B
:1096C00010FA40F3B680F3EE0E6A27EE267A42F8DF
:1096D0002400C8E6DFF8D8E04FF00008082C0EF8A8
:1096E000048073D0DFF8D4E01EF80480B8F1000FD6
:1096F0003FF410AF4FF000080EF804800AE72F4B3C
:1097000001221A5505B0BDE8F08FB8F17F0F00F0C7
:10971000CB80CDF808A0002DADD0EDE6244B082C71
:1097200003F804A07FF452AF254B1B78022B7FF483
:109730004DAF244B01221A705BE7033291450CF1C7
:1097400003097FF777AF8145BFF674AFF8EEE77A8C
:109750000EF804A0B4EEE77AF1EE10FA40F1C480FE
:10976000DFF858E0DFF848901EF8048009F804A0FC
:10977000B8F1000FBED1D0E6FC8F002004600020BD
:109780000000F83F2D6300205C91002000C0794468
:109790002F630020706300201F85EB51EC620020D6
:1097A0003891002000FC7F45C962002050620020F3
:1097B000CC900020F06200206C8B00205C8F002099
:1097C000A06100206F630020688F0020DFF84CE16B
:1097D0009EF800E0BEF1020F1BD0DFF844E19EF8D6
:1097E0000880B8F1000F3FF495AE4FF000088EF8F6
:1097F00008808FE6DFF824E19EF800E0BEF1020F5A
:109800007FF43CAF029A002A77D1DFF818E18EF896
:109810000820DFF80CE1DFF810919EF808204FF0E7
:10982000000889F80080002A3FF474AE8EF80880A2
:1098300070E636EE656AB3EE0E7A26EE077A46E7F4
:1098400032499FED336A0A7806EE902A019A134452
:10985000039AD21A012A38BF012207EE902AF8EEA5
:10986000E66AF8EE677AC31A67EEA66A07EE903AE0
:1098700086EE267A274A284BF8EEE77AD2ED006A80
:1098800067EE277AFDEEE77A17EE902A520007EE90
:10989000902AF8EEE77A77EEA67AFDEEE77A17EEF1
:1098A000902A43F82420A4E6DFF878E0082C0EF88C
:1098B00004A08BD0DFF868E01EF80480B8F1000F38
:1098C0003FF42BAE4FF0000A14E7144D2D78022D13
:1098D0003FF48FAEABEB060607EB860797F83A50DE
:1098E000002D3FF486AE27E6B8F17F0F7FF411AF6D
:1098F000DFF830E00EF804A0DCE7DFF828E09EF89F
:1099000008E0BEF1000F3FF405AE12E7C962002087
:1099100000FC7F45F062002050620020A061002022
:109920005C8F0020CC9000206F6300202DE9F04F69
:10993000DFF85892874A99F80030874EDFF8508256
:10994000864FDFF850B2C3EB031302EB830385B0FD
:1099500093F8371093F8363043EA0113DAB2C3F3C1
:10996000C01300240392029314E07D4B1A78AA429C
:1099700001D1FF221A707B4D7B487C497C4A002331
:10998000082C45F8243023546354A3546BD001347D
:10999000092C6BD0336823FA04F2D207E5B2E4D481
:1099A0003A7858F824109142E5DDDBF80020002ACF
:1099B000E1D199F8002067486E49C2EB021200EB32
:1099C0008202012092F826A00A78A040924540EA3F
:1099D000030028BF9246FEF7BDFD674B674A99F822
:1099E00000101B7812F801C0C21A0192BCF1000FDE
:1099F0003FD01346624A1278022A1ED0002BBAD0FA
:109A00005345B8DCCAF1000A9A45B4DC5148C1EBB1
:109A1000011200EB82024FEA011E92F832A0BAF165
:109A2000000F48D092F83820002A3BD0019B023327
:109A3000ADD12846FFF7EAFCA9E7082C1FD1029A0E
:109A4000002A7CD1002B6CD0534503DCCAF1000AFC
:109A50005345DBDA434C44484449454A00232362DA
:109A600003720B721372474B00221A7005B0BDE8E7
:109A7000F08FCAF100039342B8BF1346BAE7002B38
:109A800040D0534503DCCAF1000A5345BEDA354DD8
:109A900035483649364A002345F824302354635468
:109AA000A35474E7019A023205D10398621E40FA6A
:109AB00002F2D207BDD4BCF1000F2DD1AEEB0102F2
:109AC000244901EB820292F83A200AB9082CCDD041
:109AD000387858F824102C4A091A07EE901A02EB2D
:109AE000840292ED007A1F4AF8EEE77A5B4267EE55
:109AF000877AFDEEE77A17EE901A03FB01F342F83E
:109B0000243044E71749184A41F82430A354174930
:109B1000174A6354A3543AE7BCF1030F7FF437AFFD
:109B2000CCE79E460F481049104A114BC0F820E080
:109B300081F808E082F808E083F808E093E73268EB
:109B4000D0053FF57FAF204605B0BDE8F04FFFF7E9
:109B50005DBC00BF04600020748F00202F630020D4
:109B60002D63002050620020CC9000205C8F0020EC
:109B7000688F0020C9620020D8620020EC620020BB
:109B8000A06100206F63002080910020FC8F0020E6
:109B90005C910020A89100202DE9F84F3D4C3E48F3
:109BA0002422002129F0DAF823785BB1032B09D0B5
:109BB0003A4A3B491278C2EB021201EB820292F858
:109BC000322012B1FFF7B2FE2378022B56D0354B6C
:109BD000DFF8E4C03448354C354AD3F80090DCF85F
:109BE000001000682478D2F800E02B4E314DDFF8E9
:109BF000CC80DFF8CCA00023012712E055F8232009
:109C0000A2420BDA20FA03F207FA03FBD20721EA99
:109C10000B0103D521FA03F2D2070AD50133092B30
:109C20002AD021FA03F2D207E8D420FA03F2D207AD
:109C3000F4D556F82320002AF0D155F823B05C451E
:109C40001EDA2EFA03F2D20721D4ABEB040207EEA0
:109C5000902A0AEB830292ED007A03F80870F8EE7E
:109C6000E77A67EE877AFDEEE77A17EE902A46F8F4
:109C700023200133092BD4D1CCF80010BDE8F88F94
:109C80002EFA03FB03F808205A46D207C6D546F839
:109C90002390C3E7C88F002050620020FC8F002073
:109CA00004600020D88B0020AC6300202F630020CC
:109CB000748F00205C910020788F0020CC8F0020D2
:109CC000EC9100202DE9F843AC4CAD482422002152
:109CD00029F044F823785BB1032B09D0A94AAA499B
:109CE0001278C2EB021201EB820292F8322012B11A
:109CF000FFF71CFE2378022B3ED0A14CA368002B5B
:109D00003CD0A04BA14A1B78D35C9A1E012A40F29A
:109D1000C9809F4A1278012A00F08A800225002615
:109D2000022A29D113F0FB0F00F08A80012B01D009
:109D30000A2B21D1974B1A68D60500F15E811507D1
:109D400000F15881944B954ADB681278934240F3B6
:109D5000738193489349D0ED007AD1ED036A9B1A41
:109D600007EE103AF8EEE77AB8EEC77AE7EE667AD1
:109D7000FDEEE77AC4ED037ABDE8F883E568002DCF
:109D800035D16FF001067F4B804A1B78D35C9A1E59
:109D9000012A42D87F4F38684307C0F380092CD589
:109DA0000023DFF8FC81A360032D77D03868020719
:109DB000C0F3C0091ED47C4D2A78002A40F0CE8022
:109DC0007A4B18687A4B1B78834200F0A180D4E963
:109DD0000231D8F800200B445B429342CCDD012EC7
:109DE00067D952420023C4E90223BDE8F883012663
:109DF0000325C8E70023E360E9E7DFF8AC8198F8C2
:109E00000020002A40F0A080684B1868684B1B783F
:109E1000834270D0DFF88881C6E75D4A1278012A54
:109E20007FF47EAF5E4A12680023C4E90223A3E7F1
:109E3000E368002BA0D15A4AA3601368E3609BE754
:109E4000564B55491A788B6852489A42006835DB60
:109E5000022D00F0EC800023A360CB689A4245DA23
:109E6000070743D4032D0DD09B1A4E4907EE903AB5
:109E700091ED037AF8EEE77A67EE877AFDEEE77AFE
:109E8000C4ED037A012E7FF677AFD4E90231444A5C
:109E900012680B4493427FF76FAFA3E73868C105A0
:109EA00095D484E73B4F386810F480761AD10225A8
:109EB00072E73B68DB053FF55FAF92E74707C7D422
:109EC000022D00F0B4809B1A364F07EE903A97EDC2
:109ED000027AF8EEE77A67EE877AFDEEE77AC4ED6C
:109EE000027ABAE7DFF8B88000265FE7032DC9D011
:109EF0000023E360C6E7284A284B92681B78934208
:109F00005CDBDFF89C80D8F800305B42A3604BE755
:109F1000214A224BD2681B789A4229DD2549264BDB
:109F2000C968DB680A449B1A07EE903A1D49F8EEAF
:109F3000677A91ED037A67EE877AFDEEE77A17EE9E
:109F4000903A5B42E36042E740F004003860FEF77D
:109F500001FB164B88F80090186057E740F00800A6
:109F60003860FEF7F7FA114B85F80090186029E782
:109F7000D8F800305B42E36029E700BFC88F0020BB
:109F800050620020FC8F002004600020D46200207A
:109F9000E8910020748F00205C9100202F63002046
:109FA000D88B0020EC91002044620020908B002090
:109FB000D862002038910020706300202049214B96
:109FC00089689B68DFF88C800A449B1A07EE903AF8
:109FD0001D49F8EE677A91ED027A67EE877AFDEE19
:109FE000E77A17EE903A5B42A360DDE602DB1207E8
:109FF0007FF5C2AE0023E360BEE6144B1449DB6874
:10A0000009788B42F2DD1007F4D4032D3FF4B4AE8F
:10A010005B1A0D4A07EE903A92ED037AF8EEE77A72
:10A0200067EE877AFDEEE77AC4ED037AA4E6CB68A3
:10A030009A42FFF615AF5BE7064B1B68E3609BE6B1
:10A040003891002070630020EC9100205C9100208A
:10A050002F630020D88B002070B52D4C2378E3B9F6
:10A060006378002B30D1A37803B970BD294E1FF05F
:10A07000A9FBB368C01AC728F7D9274D1FF0A2FB68
:10A08000AB78B0600226002B34D140F2FF310320C0
:10A0900022F0FCFE0123AB7070BD1E4E1FF092FB40
:10A0A0003368C01AC728DBD91B4D1FF08BFB2B78F8
:10A0B000306053BB40F2FF31082022F0E7FE01235D
:10A0C0002B706378002BCED0124E1FF07BFB736891
:10A0D000C01AC728C7D9104D1FF074FB6B78706089
:10A0E0003BB940F2FF310A2022F0D0FE01236B7011
:10A0F000B9E70126094B0021985D22F0C7FEA35D58
:10A100000022013BA355AA5570BD0026F2E700BF0F
:10A11000148D0020988B00207C68002078C70500F3
:10A120002DE9F8432C4D2D4F2D4C2E4EDFF8CC90C1
:10A130002DED068B9FED2C9ADFED2CAADFED2C8AFE
:10A140009FED2CAADFED2C9A05F1030815F8011BF1
:10A15000012381B3D4ED007A337037EEA87AF4EEA0
:10A16000C97AF1EE10FAB0EE470A2EDC84ED007ADF
:10A170001CF086FFB7EE008A30EE088A28EE0A8AC5
:10A18000FCEEC87A28EE298A17EE901A387822F069
:10A190007DFED4ED007A37EE888A84ED008AA845EA
:10A1A00007F1010704F1040406F10106CED1BDEC6C
:10A1B000068BBDE8F8833378002BF0D03878317007
:10A1C00022F064FEC4F80090E9E7B0EE6A8AC4F8B1
:10A1D00000900021DAE700BF2890002078C7050032
:10A1E00094610020A48B00200AD72F410AD7232F87
:10A1F0000AD7A33B00C0FF430A00A436B4C8964068
:10A200003F4B404A1B68126870B53F4D060104463B
:10A21000A3EB8200AB5920EAE07005EB0412B0EB2F
:10A22000830F526882B04FEA830159D208469200E8
:10A230004FF48063009300231FF0B2FA334A125D9B
:10A24000012A034651D0022A2CD0314ADFED316A6F
:10A2500012F8140002EB440207EE900A5278101A2A
:10A2600003FB00F3B8EEE77A07EE903AF8EEE77AF0
:10A27000294BA7EEA67A354403EB8403012CF0EEBC
:10A28000477ABCEEC77AC3ED007A17EE102A85ED47
:10A29000037A05D1214B12F0FF0214BF1A701C7013
:10A2A00002B070BD0028D0D027F04EFF41EC100B5B
:10A2B0001CF030FF10A3D3E9002351EC100B27F062
:10A2C000ADFF28F0A3FA07EE900A9FED157A67EE2E
:10A2D000A77A67EE877AFDEEE77A17EE903AB4E751
:10A2E0009200904228BF1046A2E700FB00F003FB5B
:10A2F00000F31B15A9E700BFFE822B654715F73F4A
:10A30000C89000203463002078620020308D002047
:10A31000DC6200200000803A8C8F00209B630020CC
:10A320000AD723412DE9F041DFF83C8006460F466D
:10A33000D8F800004FF0FF311D4614461FF09AFF79
:10A340003A4631460720FCF725F82A4621460720E1
:10A35000FCF720F80023D8F800001A46BDE8F041C9
:10A3600019461FF05FBB00BF9C8F0020F8B5044664
:10A370000E461FF027FA2E4B1B78002B36D00546D1
:10A38000E4B12C4F3B78002B31D12B4B2B4C186078
:10A3900001223A70BEB12178002945D01B68EB1A22
:10A3A000192B10D9264B19687322CBB27220C1F336
:10A3B000C711FFF7B7FF00233B7004E00EBB1D4F32
:10A3C0003B785BBB1D4C237883B11E4B1868281A61
:10A3D00019280BD91C4B19687622C1F3C7137420B6
:10A3E00001F07F01FFF79EFF00232370F8BDAEB19F
:10A3F000124C237883B9134A0F4B1060012222704C
:10A40000CCE70E4C0B4F23783A7853B90D49012312
:10A4100008602370002AE9D0074BBFE7064B074CC2
:10A42000BCE7002AD1D0F7E7064922700860B5E7FB
:10A430001C8D0020CC8A0020D08A0020CD8A0020EC
:10A44000748F0020D48A0020509000202DE9F04124
:10A45000904C10290D46247828BF1025012D38BFB7
:10A460000125012C82B000F0F00002F07F0703F01C
:10A470007F062ED0002C70D1874BA0281C785BD093
:10A480000FD8802847D0902808D1014600958348EE
:10A4900033463A46FBF726FF022C34D102B0BDE822
:10A4A000F081B02800F0A680E028F7D107EBC612B3
:10A4B000A2F5005212B202F5005601460095774807
:10A4C00002F07F02C6F3C713FBF70CFF022CE5D0A6
:10A4D00067E0734BA0281B6800F082800DD9B0287C
:10A4E00069D0E028DAD107EBC612A2F5005212B209
:10A4F000002B4BD002F5005653E0802800F0BE80C0
:10A500009028CBD18BB36748009533463A469021CB
:10A51000FBF714FFC2E701460095604833463A4610
:10A52000FBF7E0FE022CB9D05E48009533463A4670
:10A530008021FBF703FFB1E70146009557483346FA
:10A540003A46FBF7CFFE022CA8D05648009533467A
:10A550003A46A021FBF7F2FEA0E7A02842D00CD893
:10A56000802800F08E80902898D1014600954B48B5
:10A5700033463A46FBF7B6FEC5E7B02826D0E028BA
:10A580008CD107EBC612A2F5005212B202F50056AA
:10A590004248009502F07F02C6F3C713E021FBF7A3
:10A5A000A1FE40480095C6F3C71306F07F02E021E4
:10A5B000FBF7C4FE72E7072929D04BB13948009553
:10A5C00033463A46B021FBF7B9FE67E707292AD0A0
:10A5D00001460095314833463A46FBF783FEEDE7E6
:10A5E000002BB2D1014600952C4833463A46FBF782
:10A5F00079FEAAE707292BD02848009533463A462A
:10A60000B021FBF76FFE022C3FF448AFD6E7652F71
:10A61000D3D9DFF89480B3B198F8003013F0FD0F70
:10A620007FF43CAFCAE7652FD2D9DFF87C8098F879
:10A630000030012BF0D801460095184833463A46C1
:10A64000FBF750FEE8E798F80030012BF3D9E3E779
:10A65000652FD1D9DFF8508098F80030012B03D94D
:10A66000022C3FF41BAFD7E7014600950B48334659
:10A670003A46FBF737FE022CCED10FE7002B7FF4D2
:10A6800053AF01460095054833463A46FBF72AFE8C
:10A690004AE700BF90610020906900208068002098
:10A6A000208D0020646700201D8D00200000000028
:10A6B0002DE9F04F2DED068B9FB015AB0CAA03A929
:10A6C000D748DFF8E083D74FD74ED84DD84C15F098
:10A6D00099F9D84BDDED137A93ED001AD64BD74993
:10A6E000D74AC3ED007AD74BD2ED000AD1ED006A0C
:10A6F0009DED110A9DED127AD34AD449DB6882EDB3
:10A70000000ADDED081A9DED092ADDED0A2AD04A7E
:10A71000D04881ED007A30EE660A77EE600A37EEB7
:10A72000C11A1A9980ED000ADB01C8ED000A87ED15
:10A73000001AC6ED001A85ED002AC4ED002A11604A
:10A7400004D5C54B1A68D00700F11E8320F0A8FA83
:10A75000C24BC04AD8ED000A92ED000A97ED001AEC
:10A76000D6ED001A95ED002AD4ED002AA0FB0301D6
:10A77000830A43EA815307EE103AB94C9FEDB96A58
:10A78000D4ED0F7ADFEDB88ADFEDB86AB8EE477A1C
:10A79000204677EE677A84ED0E7A67EE867A84ED4E
:10A7A0000F7AF4EEE87AF1EE10FA98BFF0EE678ACD
:10A7B000F4EEE68AF1EE10FAB8BFF0EE668AB0EE7B
:10A7C000683AC4ED107A16F04BF994F82830002B53
:10A7D00000F0E382DFF8D0A2236BCAF80030DFF884
:10A7E000CCB2D4F82C90CBF80090A14BD4ED0D7ADC
:10A7F00093ED007A9F4B37EE877AC3ED007A17EE20
:10A80000100A17EE105A27F0B1FC7FA3D3E90023FA
:10A8100006460F4627F092FF002800F0A2827CA394
:10A82000D3E900233046394627F040FB27F0EEFFFE
:10A83000914B019305461860484627F097FC72A398
:10A84000D3E9002327F034FB27F0E0FF814627F00F
:10A850008DFC6DA3D3E9002306460F4627F06EFF5B
:10A8600048B16BA3D3E900233046394627F01EFBDD
:10A8700027F0CCFF8146DAF8000080F0004027F096
:10A8800075FC65A3D3E9002327F0C8FC27F0BEFFC1
:10A8900009EE900A89F00040CAED009A27F066FCA4
:10A8A0005DA3D3E9002327F0B9FC27F0AFFF09EE41
:10A8B000100A85F000408BED009A27F057FC56A354
:10A8C000D3E9002327F0AAFC27F0A0FF6B4B0199E6
:10A8D0001A680860D1070AEE100A694D40F13A8201
:10A8E00095ED008A674E684F96ED007AD7ED007AB5
:10A8F00039EEC77A7AEE677AB5EEC07AF1EE10FAE1
:10A90000F5EEC07A4CBF01220022F1EE10FA4CBFE6
:10A91000012300239A42B5EEC09A00F0B781F1EE10
:10A9200010FA40F3B781B0EEC99AD8F8000027F0CA
:10A930001DFC39A3D3E9002327F070FC804618EEF4
:10A94000900A894627F012FC02460B4640464946CB
:10A9500027F064FC804618EE100A894627F006FCB2
:10A9600002460B464046494627F0A2FA27F04EFF22
:10A9700008EE100AF5EEC09AF1EE10FAB5EEC08AB4
:10A980004CBF01220022F1EE10FA4CBF012300233C
:10A990009A4287ED00AAC6ED009A286000F0F18186
:10A9A000DFED3A7A68EE277A9FED397A394BB4EECB
:10A9B000C79AF1EE10FAADBF002238EE678AC3EDF8
:10A9C000007A1A60344E9FED355ADFED355A85ED29
:10A9D000008AA6F138030FCB86E80F0094ED116AC8
:10A9E00094ED127A94ED130AD4ED146A66EE077AA8
:10A9F00028EE058AE0EE267A8AED008A77EEA77ABD
:10AA000056E000BFAFF30080182D4454FB210940ED
:10AA1000182D4454FB211940F8C1631ADCA54C40A1
:10AA2000D8900020548F0020CC8B0020D08B0020A9
:10AA3000D48B0020588F002038900020488F0020B1
:10AA4000508F0020F0ED00E0309000203490002086
:10AA500078680020448F0020001000E040420F0082
:10AA60005C900020BD3786350AD7233C6F12833AAD
:10AA70001C920020288D002018920020A86A002037
:10AA8000BC8B0020B88B0020B48B0020CDCCCC3CFC
:10AA90000000AA42A88B0020A09000209A99993F1C
:10AAA00052B87E3F4C8F002044900020C48F00207D
:10AAB000F0EEE77AF4EEE57AF1EE10FA40F13F813C
:10AAC00027EE000A27EE077AA6EE660AA6EEA67A19
:10AAD000F0EE007AF7EE000AE7EE670A30EE000AC1
:10AAE0001CF0FCFB10EE100A27F040FBE2A3D3E9B8
:10AAF000002327F093FB27F089FE9FEDC57A07EE30
:10AB0000900AF4EEC77AF1EE10FA0CD99FEDC16A03
:10AB1000DFEDC16AB0EE677AB4EEE67AF1EE10FAD4
:10AB200077EEC67AF6D89FEDBD7AF4EEC77AF1EEED
:10AB300010FA0CDA9FEDB76ADFEDB96AB0EE677A0A
:10AB4000B4EEE67AF1EE10FA77EE867AF6DBB54AE5
:10AB5000B54BD2ED006A9FEDAE7AC3ED007A77EE89
:10AB6000A67AF4EEC77AF1EE10FA0CD99FEDA96A35
:10AB7000DFEDA96AB0EE677AB4EEE67AF1EE10FA8C
:10AB800077EEC67AF6D89FEDA57AF4EEC77AF1EEA5
:10AB900010FA0CDA9FED9F6ADFEDA16AB0EE677ADA
:10ABA000B4EEE67AF1EE10FA77EE867AF6DB9FEDF8
:10ABB0009F7A9F499F4B67EE877A0122C1ED007A09
:10ABC0001A709D4B9D4A1B7803EBC30302EBC30332
:10ABD00093F82030002B00F0AD80994C237873B1AE
:10ABE0000133DBB2052B237009D900210A2022F0A2
:10ABF0004DF90021032022F049F900232370914BE5
:10AC0000D3ED007AB6EE007AF4EEC77AF1EE10FAE0
:10AC100063DD8D4E8D4D96ED007AF4EEC77A0123FB
:10AC2000F1EE10FA2B7000F3D980B5EEC07AF1EE98
:10AC300010FA40F3D880DFED866A37EE667A86ED4B
:10AC4000007AB5EEC07AF1EE10FA40F2CC80F5EE63
:10AC5000C07AF1EE10FA6DD5DFED7E7AB4EEE77AC8
:10AC6000F1EE10FA00F2C680F7EE007A37EE277A9E
:10AC7000F2EE087A67EE277AFCEEE77ACDED017AFC
:10AC80009DF804304FEAC3085F003AE0F1EE10FA95
:10AC90007FF649AEDFED707AB0EEC99AB4EEE79A6E
:10ACA000F1EE10FABFF641AEB5EEC08AF1EE10FA41
:10ACB000F5EEC09A4CBF01220022F1EE10FA4CBF13
:10ACC000012300239A4287ED00AAC6ED009A7FF483
:10ACD00067AE624B00221A6074E6F5EEC07AF1EEC0
:10ACE00010FA27D5594D2B7823B3574E96ED007A9D
:10ACF000B5EEC07AF1EE10FAAEDA18274FF0600820
:10AD00000C23574A5749127809789020FFF79EFB89
:10AD100041460A2022F0BAF83946032022F0B6F85C
:10AD2000514A524B12681A600021012200233160FF
:10AD300022702B701FB0BDEC068BBDE8F08F3D4B31
:10AD40001B78002B7FF43DAF3949374A00230B6055
:10AD5000136036E70122B0EE698AC5ED009A1A60E9
:10AD6000C0E527A3D3E900233046394627F0C8FCC5
:10AD700078B125A3D3E900233046394627F098F867
:10AD800054E5DFED3B7A0FE65B689B0907EE103A6E
:10AD9000F3E4384B01931D604EE5204615F022FE8A
:10ADA000DFF8DCA094F82830226BCAF80020002BD2
:10ADB0007FF415AD204615F015FEDFF8C8B094F805
:10ADC0002830D4F82C90CBF80090002B7FF40DADF8
:10ADD000204615F007FEDBF8009006E5C6ED007A88
:10ADE000B0EE677A2DE700232B701FB0BDEC068B09
:10ADF000BDE8F08FFC274FF47C787E2381E700BF0D
:10AE0000182D4454FB2109C0182D4454FB2119402E
:10AE1000000034430000B44300000744000034C382
:10AE2000000007C41C8C0020248D00209A99993FB3
:10AE3000188C0020AC8B0020FC8F0020B860002014
:10AE4000A78B0020448F0020B08B0020AD8B00200A
:10AE50003333333FAE4719410000AA42A88B00208C
:10AE600020920020C8620020D88F0020F88F002098
:10AE70000000000018920020F8C1631ADCA54C40C5
:10AE800044900020C48F0020354A364938B5D2E9B5
:10AE90000035D2E902042B440344D2E904052344DB
:10AEA0000344D2E906402B44126A09782344034440
:10AEB000134429B12C4A2D481278825C032A27D0EA
:10AEC0002B4C2C4A2C4D12682C482D680068C3F579
:10AED00000531A442A44121817D4B2F5804FA8BF61
:10AEE00043F6FF722260264D2B68934200D001B9D1
:10AEF00038BD2449C2F3C713097802F07F02E0206D
:10AF0000FFF7A4FA23682B6038BD00222260EAE72D
:10AF10001D4C1E4A1E4894F90050127804781D48B2
:10AF2000521B121B07EE902A90ED007A1A4A104C21
:10AF30001078F8EEE77A67EE877AFDEEE77A17EE9B
:10AF4000905A2B44236020B1144D00202B601070C8
:10AF5000B7E712480268036013445B10B1E700BF13
:10AF600050620020BB8F0020FC8F0020EC6200208C
:10AF7000E8620020408D0020C0900020746800200E
:10AF800024630020C8620020C4900020B48F0020F9
:10AF9000D8620020F06200202E630020448B002045
:10AFA000F8B5364E364F3278C2EB021317F823400D
:10AFB000002C36D03349C2EBC20301EB4301D3006E
:10AFC0004978002953D0304D134405EBC3030024C6
:10AFD00093F8452072B3FDF7C9FE2C4B1B78022B6A
:10AFE0004FF0010432D02A4B1C78002C3BD0FEF7E6
:10AFF00069FEFCF7F7FD337803EBC30305EBC303EE
:10B000001A7E52B993F821203AB993F8222022B936
:10B0100093F823300BB9002C2FD0BDE8F840FFF790
:10B0200033BFD300184D134405EBC30393F84520F9
:10B03000002AD0D193F84620002ACCD193F847308B
:10B04000002BC8D1114B1B78022BCCD13378C3EB2A
:10B05000031307EB830797F83230002BC9D00C4B52
:10B060001C78002CC3D1FEF797FD0124C1E7FDF742
:10B0700005FD32780124D300D4E7F8BDFC8F002011
:10B080000460002044630020B8600020C88F0020C6
:10B09000348D00202DE9F0473D4E3E4A337803EBD6
:10B0A00043010A44125CEAB100EB80094FF0320818
:10B0B000394F08FB03920446BD5C012D07EB0201EA
:10B0C0004FEA800A1CD0052D0ED0062D2CD1334915
:10B0D00091F90020033205DB3148C25C013A52B2DB
:10B0E000C2540A70BDE8F0872C4991F90020022A69
:10B0F000F8DC2B48C25C013252B2C2540A70F1E74C
:10B100004A780AB3012AEDD154444FF0320A0AFBBF
:10B1100003433B441A79D9789878FBF73BF93378A5
:10B120000AFB03443D5DCEE70A2D05D11D4A137885
:10B1300001331370BDE8F0870B2D18D1194A13782D
:10B14000013B1370BDE8F0870B79CA7889789020AD
:10B15000FFF77CF93378144A08FB0398155517F864
:10B160000850012DB844AED198F80120CAE7102D3F
:10B17000B8D10E4B0E4A1B78012B05D00D4801218A
:10B1800003701170BDE8F08711780029AAD0F5E7A7
:10B19000FC8F0020A08F0020A8610020BC8F002021
:10B1A000C08F0020B58F0020AC8F0020A98F002019
:10B1B0003C900020718F0020104B11481B78114AE1
:10B1C000C3EB031300EB83000121837A11708B42E0
:10B1D00003D0022B0DD033B17047437B027BC17A81
:10B1E0008020FFF733B9437B027BC17A9020FFF7C1
:10B1F0002DB9427B017BC07AFBF7CCB8FC8F0020D5
:10B20000046000203C8D0020104B11481B78114A2F
:10B21000C3EB031300EB83000021837B1170012B30
:10B2200003D0022B0DD033B17047437C027CC17B2D
:10B230008020FFF70BB9437C027CC17B9020FFF795
:10B2400005B9427C017CC07BFBF7A4B8FC8F0020D1
:10B25000046000203C8D0020824B1B8843F48073E7
:10B260005A1C1A422DE9F04700F0A98000210A4635
:10B2700013F0010F08BF11465B1002F10102F7D174
:10B2800001F13E04E4B2462C28BF46243C3C764EF5
:10B29000764A3378C3EB031302EB83039A7C032AC9
:10B2A00079D0DFF80C82D8F80010714B714A724FD8
:10B2B00092F800C0D3F800905A68D7F800E06F48C1
:10B2C0006F4D04FB0C245FFA8EF3894504602B70EC
:10B2D00015DB6C4A0120002128700346117032787A
:10B2E00069493860C2EBC20201EB4202527922B1D5
:10B2F000664C2278012A64D02370BDE8F08709F1FA
:10B3000001028A420BDB624A1278002A00F0818037
:10B31000012B7ED05F4B1B782B701846DFE75E4A0F
:10B32000BEF1010F127804BF02232B70012AEAD16B
:10B330005A4A1078002875D0A4EB090200FB02F2EB
:10B34000DFF870C102EB42008CFB00A98CFB02AC61
:10B35000C017D217A0EBE910C2EBEC122244044450
:10B360004F48DFF8549102608A42C9F8004040DB40
:10B370008C4259DB0223BEF1010F2B7062D0BEF16B
:10B38000030F48D11EF01EFA464B1B68C01A142842
:10B390005ED82B78B7E7444A1278D2B91A7DDFF825
:10B3A0001081DB7CD8F8001043EAC21305338B42CE
:10B3B000BFF67BAFFFF700FFD8F8001075E70A244F
:10B3C00065E7012B98D01EF0FDF9384A2B78106004
:10B3D00092E7DFF8DC801A7DDB7CD8F8001043EAC6
:10B3E000C2138B427FF761AFFFF70EFFD8F8001052
:10B3F0005BE7244A00210323BEF1010F11702B707B
:10B4000009D0BEF1030F06D1214B1B78002B81D14F
:10B410007346184663E71E4A1278002A7FF47AAF13
:10B4200018465CE722469BE7BEF1010F07D0BEF14C
:10B43000030F7FF468AF022B7FF465AFA2E7022B06
:10B440007FF461AF0020FDF7D1FA034628705AE778
:10B45000D9F80020D8F800100120FDF7C7FA0346FC
:10B46000287050E7748F0020FC8F002004600020BB
:10B4700034630020D76200202C8D002094630020CC
:10B48000A98F0020728F0020446300202C630020CD
:10B490003C900020718F0020A06100204C620020B1
:10B4A000B09100203C8F00203C8D0020E4910020D2
:10B4B000509000201F85EB51B49100202DE9F843F6
:10B4C0001EF080F9944D954A2B6811689942044604
:10B4D00000F0A080DFF88482914F924E98F800101F
:10B4E0001360012238603270002942D18E4B1960FE
:10B4F0008E4B8F4F4FF00108002483F8008034708A
:10B500001EF060F98B4B024628681A60FDF722F89E
:10B510002146034640463B70FEF728FF3E787F2ECB
:10B5200076D0854F3B78B34272D0844B1B78022B88
:10B530000BD0834B2A681A6082482422214627F0C8
:10B540000DFC814BC3E900441C72804B804A1B7880
:10B550003E70C3EB031302EB830393F8322022B156
:10B5600093F838300BB1FFF71BFDBDE8F843FFF748
:10B5700073BE99461EF026F9764A774B1278196801
:10B5800028688A4203DAC10758BF49F0010959689F
:10B590008A4203DA810758BF49F0020999688A4252
:10B5A00003DA410758BF49F00409D9688A4203DA2F
:10B5B000010758BF49F0080919698A4203DAC10630
:10B5C00058BF49F0100959698A4203DA810658BF09
:10B5D00049F0200999698A4203DA410658BF49F0C7
:10B5E0004009D9698A4203DA010658BF49F0800947
:10B5F0001B6A9A4203DAC30558BF49F4807948456B
:10B600001BD1494B327800211960002A7FF470AFBA
:10B61000BDE8F883DFF81091414FD9F80030386861
:10B62000241A002B72D09C4219D33E4E327800234C
:10B63000C9F80030002AEBD05AE7FCF78BFF03462D
:10B6400048469946FCF786FF7F28DAD08145D8D056
:10B65000DFF8D49098F80030C9F80030DFE72E68A2
:10B660001EF0B0F83B4A3C4B1278196828688A42B1
:10B6700003DAC70758BF46F001065968914203DD57
:10B68000810758BF46F0020699688A4203DA4707E5
:10B6900058BF46F00406D9688A4203DA010758BF4A
:10B6A00046F0080619698A4203DAC70658BF46F011
:10B6B000100659698A4203DA810658BF46F020060F
:10B6C00099698A4203DA470658BF46F04006D969AD
:10B6D0008A4203DA010658BF46F080061B6A9A4286
:10B6E00003DAC30558BF46F48076B0429DD0FCF71C
:10B6F00031FF034630461E46FCF72CFF7F2894D0CE
:10B70000864292D0D9F800309C4281D3054E3278DF
:10B71000002A3FF47DAFEBE6748F00201C6300200D
:10B72000648B0020688B0020A891002044620020D8
:10B730006E6300203C8F0020D8620020C88F00205C
:10B74000788F002050620020CC8F0020FC8F0020DA
:10B75000046000202F6300205C910020A491002051
:10B76000102928BF1021012900F0F00038BF012165
:10B77000C0282DE9F04102F07F0535D0D0280BD14B
:10B78000234E3378012B09D1224B1B6833B1013989
:10B7900061F02F04E4B218E0BDE8F0811E4F7B6D2C
:10B7A0000139186861F02F040368E4B21B68214670
:10B7B00098477B6D1868036829461B68984733785B
:10B7C0001BB9164B1B78022BE6D0154E736D18680B
:10B7D000036821461B699847736D186803682946FA
:10B7E0001B69BDE8F0411847094E3378012B07D19A
:10B7F000084B1B6823B1013961F03F04E4B2E4E770
:10B80000054F7B6D0139186861F03F04CCE700BF3C
:10B8100090610020208D0020806800209069002029
:10B82000646700202DE9F04F704F714E3C78C4EBF7
:10B83000041306EB830385B09A78012A804600F052
:10B84000A280DFF8E491C4EBC40309EB430393F84F
:10B8500006A01AF0010F52D0664B93ED020AB5EE26
:10B86000C00AF1EE10FA04DD634BD3ED007A30EE3E
:10B87000270A9FED627ADFED627AB4EEC70AF1EE35
:10B8800010FA88BFB0EE470AB4EEE70AF1EE10FAFC
:10B89000B8BFB0EE670A03A8CDED037A1BF0BEFB7C
:10B8A000584BF0EE407AFEEEEC7A1B78CDED017A43
:10B8B000002B45D0DDED037ADFF870B1FDEEE77ABD
:10B8C000DBF8003017EE905A85F30705AB42C4EB66
:10B8D000041443D006EB840494F82F20002A73D17B
:10B8E000494C2178EAB2D020FFF73AFF3B78CBF8F9
:10B8F0000050C3EBC30309EB430999F806A01AF003
:10B90000020F1AD03F4B1B78BBB1404BDC6B002CB5
:10B9100060D123463E4D1C442B6884F307049C42AF
:10B9200002D1B8F1000F08D0374B3A4A1978127893
:10B93000E3B2A020FEF78AFD2C6005B0BDE8F08FD1
:10B94000354A1268642AB5DCDFF8E0B001931D4681
:10B95000DBF80030AB42C4EB0414BBD106EB840629
:10B9600096F82F30002B38D02C4E019A3368934232
:10B9700037D0254C9DF8042020785721FAF70AFD8E
:10B98000019B3360ADE7214AD5682301CDB92A4632
:10B99000DFF89C901544D9F8002085F30705AA42EA
:10B9A00003D1B8F1000F3FF44CAF1C1B06EB84042D
:10B9B000EAB261792079FAF7EDFC3C78C9F80050D9
:10B9C0003FE7174A1268E3E7EB1A0F331E2B87D8BD
:10B9D000124ECEE7134B1B689CE7B8F1000F8ED0D8
:10B9E0007EE7B8F1000FC4D189E700BFFC8F0020CB
:10B9F000046000208C8F0020B89000200000FE42E0
:10BA000000000000BB8F0020C86200207862002088
:10BA100018900020B48F002050900020109000203B
:10BA2000B4900020BC900020446300200C900020C3
:10BA3000089000202DE9F04FBE4DBF4C2B78BF4E33
:10BA4000C3EBC30204EB420230789279002A83B040
:10BA500014BF4FF003094FF01009DA0000283BD063
:10BA6000B749DFF8FCC2C95CB64F0329B64909786B
:10BA700000F0E8809CF900E097F800C0A1EB0E010F
:10BA80008C4502D0BCF1000F2AD1DFF8008398F872
:10BA90000030012B00F0A1803A78002A00F0AB8042
:10BAA0002B78C3EBC30104EB41046178002940F01B
:10BAB0009D80A649CB5C032B00F08A81A44B1B78A8
:10BAC000032B06D0A34B1A6840F2FF139A4200F0F2
:10BAD000928003B0BDE8F08F9A4F39780029F8D0F2
