:020000022000DC
:10600000000004201DA703005DA703005FA7030095
:1060100061A7030063A7030065A703000000000059
:1060200000000000000000000000000099A603002E
:1060300069A7030000000000B9A603006DA70300D4
:1060400071A903006FA703006FA703006FA70300E8
:106050006FA703006FA70300A58003006FA70300CD
:106060006FA703006FA703006FA703006FA70300CC
:106070006FA703006FA703006FA703006FA70300BC
:106080006FA70300E9A303006FA703006FA7030036
:106090006FA703006FA703003D9F02006FA70300D7
:1060A0006FA703006FA703006FA703006FA703008C
:1060B0006FA703006FA703000000000000000000AE
:1060C0006FA703006FA703006FA7030001AC0300D5
:1060D0006FA703006FA703006FA7030039C3020077
:1060E0006FA703006FA703006FA703000000000065
:1060F000000000006FA703000000000079AC03005F
:10610000000000000000000000000000000000008F
:10611000000000000000000000000000000000007F
:10612000000000000000000000000000000000006F
:10613000000000000000000000000000000000005F
:10614000000000000000000000000000000000004F
:10615000000000000000000000000000000000003F
:10616000000000000000000000000000000000002F
:10617000000000000000000000000000000000001F
:10618000000000000000000000000000000000000F
:1061900000000000000000000000000000000000FF
:1061A00000000000000000000000000000000000EF
:1061B00000000000000000000000000000000000DF
:1061C00000000000000000000000000000000000CF
:1061D00000000000000000000000000000000000BF
:1061E00000000000000000000000000000000000AF
:1061F000000000000000000000000000000000009F
:10620000F1EE103A43F08073E1EE103A704700BFB0
:1062100010B5054C237833B9044B13B10448AFF3E0
:1062200000800123237010BDAC630020000000003B
:10623000B468040008B5034B1BB103490348AFF32E
:10624000008008BD00000000B0630020B4680400B6
:10625000154B002B08BF134B9D46A3F5803A002138
:106260008B460F461348144A121A1AF011FA0F4BB4
:10627000002B00D098470E4B002B00D098470020F1
:10628000002104000D000D48002802D00C48AFF397
:1062900000801AF093F92000290014F097FA1AF000
:1062A00067F900BF000008000000042000000000A3
:1062B00000000000AC630020989E00200000000059
:1062C00000000000704700BF10B5074C82B00B46BD
:1062D000009206490246204611F0B6FE204602B062
:1062E000BDE8104011F090BE606E0020483B0400F5
:1062F00010B5074C82B00B46009206490246204674
:1063000011F0A2FE204602B0BDE8104011F07CBEA4
:10631000606E00207C3B0400F0B5002183B03C4F50
:106320003C4D3D4C032015F0A1F90121032015F04F
:1063300019F93846042103F07DFB0022384601217B
:1063400003F0A8FB3846042103F04EFD3846012136
:1063500003F098FD28463149132203F047FE13222B
:106360002F49284603F03EFE284603F079FE636D70
:1063700047F61221186804F0B1FD00220023002521
:10638000C4E918234FF6FF724FF6FF73C4E91A23CE
:10639000A4F8585084F85A5011F0C6FE07F5C866A4
:1063A0000323204AC4F8000184F8703006211E4BF4
:1063B000A3603046E26084F8F8506567C4F8FC508A
:1063C00000F098FE304600F07DFE1849304600F09F
:1063D00035FE07F2846000F047FE3046012100F0F0
:1063E000BDFEF4223046202100F0B4FE30461E21CE
:1063F00000F0AEFE2946304600F01EFF0C49009525
:1064000001234FF480620B4814F09AFD03B0F0BDF5
:10641000DC650020D8640020C8630020B03B040085
:10642000C43B0400C9620200F16202002065002042
:10643000196E0200BC9700202DE9F041264803F0B8
:106440004BFD08B9BDE8F081244803F0B9FF0028EE
:10645000F8D0234D2B68002B3AD14FF03F08214C48
:10646000214F626DFE5C1068036890211B6998479C
:10647000636D1868036806F07F0631461B6998470C
:10648000636D186803687F211B699847636D17F86F
:1064900008601868036880211B699847636D186855
:1064A000036806F07F0631461B699847636D1868DC
:1064B000036800211B6998472B6801333F2B88BF75
:1064C00000232B604FF48F70BDE8F04111F038BE0F
:1064D00003F1FF38C3E700BFDC6500202065002022
:1064E000C0650020C8630020046000202DE9F04151
:1064F000E0299DF818500C46064623D8013DEDB220
:106500000F2D21D849B200291EDA1F46436D1868A5
:10651000036829431B69C9B290469847736D186890
:10652000036808F07F011B6904F0EF049847C02C52
:106530000AD0736D1868036807F07F011B69BDE816
:10654000F0411847F72901D8BDE8F0810834E4B2DA
:10655000012303FA04F414F0DD0FF5D0436D18683D
:106560000368BDE8F0411B69184700BF036810B518
:1065700004460BB17430984794F87530803B7F2BFC
:1065800043D8DFE803F0494242424242424242429B
:1065900042424242424255424242424242424242C8
:1065A00042424242424259424242424242424242B4
:1065B0004242424242425D424242424242424242A0
:1065C000424242424242614242424242424242428C
:1065D0004242424242426B42424242424242424272
:1065E0004242424242426F4242424242424242425E
:1065F000424242424242839098A842424342ACB057
:10660000B4B8BC42C040236D1BB910BD636B002BF6
:10661000FBD0BDE810401847A368002BF5D094F8D4
:10662000772094F8761094F87400BDE8104018476D
:10663000E368002BF3D1E8E72369002BEFD1E4E70F
:106640006369002BEBD1E0E7A369002BDDD094F860
:10665000761094F87400BDE810401847E369002BE9
:10666000F5D1D2E7226A002ACFD094F8771094F8B7
:10667000763094F87400C90101F47E5103F07F0371
:106680001943BDE81040A1F500511047636A002B83
:10669000BBD0B4F87610802904F1780028BF80219F
:1066A000BDE810401847A36A002BAED094F87600DE
:1066B000BDE810401847E26A002AA6D094F8773067
:1066C00094F87600DB0103F47E5300F07F00BDE810
:1066D000104018431047236B002BE7D195E7A36BBD
:1066E000002B96D191E7236C002B92D18DE7E36BC1
:1066F000002B8ED189E7636C002B8AD185E7A36CD0
:10670000002B86D181E7E36C002B82D17DE700BFAF
:1067100038B5436D0446186803685B6998470028DC
:1067200045D094F80D31626D23F0010384F80D31EA
:1067300010680368DB689847C3B2FD2B37D0626EE0
:10674000BABB94F9591094F8592084F85B300029A9
:1067500018DA02F10C01C9B2012913D9FD2A11D0AE
:10676000EF2A94BF02F0F001114601F0CF05802D11
:1067700000F09C80D02900F0998001F0DF01C02951
:1067800000F0948040B20028C0F2788294F90D01A4
:10679000636840F0010084F80D0103B198470020C0
:1067A00084F85900C4E9180038BD0132626600203F
:1067B00038BD010653D494F85B10F02900F096819F
:1067C000F72900F09381A11881F85B30216E4B1EF0
:1067D0009A42EAD394F85B30F02B00F09881F72BC3
:1067E00000F095811A0640F1FE81F42B00F0FB8148
:1067F000F52B00F02682FD2B00F0F581EF2B94BFE6
:1068000003F0F0021A46802A84F8752006D0902AF8
:1068100004D0B02A02D0A02A40F0278203F00F0053
:1068200094F85C5084F876500130032984F87400A1
:1068300000F00482002100200125B02AC4E91800DC
:1068400084F8771084F8F85005D0B02A40F2E3813C
:10685000E02A40F0DA8184F85930012038BDA3F1F4
:10686000F0010F29A7D801A050F821F0416B0200D8
:10687000B7670200B7670200B7670200B767020098
:10688000B7670200B7670200416B0200F56A0200B9
:10689000F56A0200F56A0200F56A0200F56A020074
:1068A000B7670200F56A0200F56A0200000606D426
:1068B000012184F85C3084F85B201346616603F1A3
:1068C0000C02D2B2012A7FF661AFFD2B3FF45EAF1E
:1068D000EF2B94BF03F0F0011946A1F180027F2A4B
:1068E0003FF654AF01A050F822F000BF936B0200B6
:1068F0008D6702008D6702008D6702008D670200C0
:106900008D6702008D6702008D6702008D670200AF
:106910008D6702008D6702008D6702008D6702009F
:106920008D6702008D6702008D670200936B020085
:106930008D6702008D6702008D6702008D6702007F
:106940008D6702008D6702008D6702008D6702006F
:106950008D6702008D6702008D6702008D6702005F
:106960008D6702008D6702008D670200936B020045
:106970008D6702008D6702008D6702008D6702003F
:106980008D6702008D6702008D6702008D6702002F
:106990008D6702008D6702008D6702008D6702001F
:1069A0008D6702008D6702008D670200936B020005
:1069B0008D6702008D6702008D6702008D670200FF
:1069C0008D6702008D6702008D6702008D670200EF
:1069D0008D6702008D6702008D6702008D670200DF
:1069E0008D6702008D6702008D670200CD6B02008B
:1069F0008D6702008D6702008D6702008D670200BF
:106A00008D6702008D6702008D6702008D670200AE
:106A10008D6702008D6702008D6702008D6702009E
:106A20008D6702008D6702008D670200CD6B02004A
:106A30008D6702008D6702008D6702008D6702007E
:106A40008D6702008D6702008D6702008D6702006E
:106A50008D6702008D6702008D6702008D6702005E
:106A60008D6702008D6702008D670200936B020044
:106A70008D6702008D6702008D6702008D6702003E
:106A80008D6702008D6702008D6702008D6702002E
:106A90008D6702008D6702008D6702008D6702001E
:106AA0008D6702008D6702008D670200D56B0200C2
:106AB000CD6B0200936B0200CD6B02008D6702006C
:106AC0008D670200796B0200D56B0200796B0200C2
:106AD000796B0200796B0200796B0200796B02001E
:106AE0008D670200796B0200796B0200A11881F8B2
:106AF00078306BE600220120A4F8762084F8742018
:106B000084F87530C4F8FC0084F8F80038BD5F4B99
:106B10006367F0218022012394F8F750C4F8FC2029
:106B200084F8F830204684F8F710FFF71FFDF722AD
:106B3000022384F8795084F878206366002038BDF9
:106B400094F87810F02902D0F7297FF41FAEA51829
:106B50004FF4704185F87830013200230120A4F809
:106B60007620A4F8741084F85930C4E91833C4F8B6
:106B7000FC2084F8F80038BD0023012084F874302C
:106B8000A4F87630C4E9183384F8751084F8F80056
:106B900038BD032222660220626E8242FFF405AEF7
:106BA00003F00F03013394F85C2084F87430002361
:106BB000012084F8762084F87730C4E9183384F80B
:106BC0007510C4F8FC0084F8F80038BD0222226673
:106BD0000120E1E780200022206684F8781084F804
:106BE00059207F20D8E794F85C2084F87620002391
:106BF0000329A4F8743017D0C4E91833012284F8AB
:106C0000773084F8F820002325E602F0EF02C02A4E
:106C10003FF421AEF7E7A02A3FF41DAE02F0EF02E9
:106C2000802A3FF418AEEEE794F85D106366012207
:106C3000236684F8771084F8F820E4E794F85D1070
:106C4000F9E5002284F8752094F85C5084F87650B9
:106C50000020032984F87400F0D00121C4E9180051
:106C600084F8770084F8F810EFE5D02A3FF4D6AD29
:106C7000E02A3FF4D3ADC02AE6D1CFE503F10C0200
:106C8000D2B2012A3FF624AE80E500BF00F08000BA
:106C900090F87030DA0719D513F0FE0F16D0F0B562
:106CA00090F8755085F08002602A83B004460ED8B3
:106CB00090F874208A4245D0002943D05B08012B0C
:106CC00047D0032B00F09E8003B0F0BD7047A5F1C4
:106CD000F0030F2BF8D801A252F823F0836D0200C5
:106CE000B16D0200D36D0200676D0200C96C020035
:106CF000C96C02001D6D0200C96C02001D6D02000E
:106D0000C96C02001D6D02001D6D02001D6D0200A8
:106D1000C96C02001D6D02001D6D020005F1080323
:106D2000DBB2072BD0D8012202FA03F313F0DD0FF8
:106D3000CAD0636D1868036829461B6903B0BDE8B3
:106D4000F0401847C3F346037F3303F07F03012B62
:106D5000BAD8009294F8773094F8762029462046E5
:106D6000FFF7C4FBB0E7436D90F8765018680368EE
:106D7000F3211B699847636D186805F07F0103686C
:106D8000DBE7B0F87630802B1F4628BF8027002B2A
:106D90009AD000F17706636D18683546036816F8D7
:106DA000011F1B69763D2D1B9847AF42F3D88BE737
:106DB000436D90F87650186894F8773002682D018A
:106DC00003F00F03126905F07005F1211D43904790
:106DD000AFE7436D90F87720186894F87650036811
:106DE000F2211B6945EAC2159847636D186803686C
:106DF00005F07F011B699847636D1868C5F3C611DC
:106E000003689AE7009294F8773094F87620294640
:106E1000FFF76CFB58E700BF38B5184803F05CF883
:106E200000B938BD164803F0CBFA0028F9D0154C4C
:106E300094F85850102DF4D82046FFF769FC00282C
:106E4000EFD094F87530902B0BD083F08003602B3B
:106E50000DD90C48FFF78AFB0A482946FFF718FFAF
:106E600038BD94F8773013B9802384F8753094F8DE
:106E700074309D42EDD0002DEBD0EDE7DC650020B5
:106E800020650020C86300202DE9F04D2B4DDFF870
:106E9000C8802B4E2B4C284603F0ACF842462A49BA
:106EA000284619F02DFB3046802103F0AFFF424603
:106EB0002649304619F024FB254B63650025002741
:106EC00029464FF6FF7A4FF6FF7B4FF0030C04F193
:106ED00078001E6080220026C4E91AABC4E900676E
:106EE000C4E90267C4E90467C4E90667C4E908673E
:106EF000C4E90A67C4E90C67C4E90E67C4E910670E
:106F0000C4E91267C4E9186784F870C02565A4F85D
:106F1000585084F85A50656784F8F85019F0B8FB57
:106F2000C4E9406742462046C4F80851A4F80C5111
:106F30000849BDE8F04D19F0E3BA00BFD86400205D
:106F400020650020C8630020916F02005D6F020081
:106F5000C4650020C5620200006000200A4B03F1F6
:106F6000280210B5044682610360803014F04EF9A7
:106F700004F1280000F0C4FA2046044B40F8083B16
:106F800002F076FA204610BD003D0400143C0400D7
:106F900010B5044B044640F8083B02F069FA20465D
:106FA00010BD00BF143C040072DF704773DF7047F0
:106FB00074DF704777DF704738B5054608460C46E2
:106FC00002F084FA102803D080280ED0012038BDAA
:106FD000EB7FA2881B2B0EDCE9180320E8544870D5
:106FE0004A80EB7F0433EB77F0E7A368002BEDD00A
:106FF000E97F0D2901DD002038BD6A181120685491
:107000000721517058681C689968DB68C2F80E3017
:10701000C2F80600C2F80240C2F80A10EB7F123331
:10702000EB77012038BD00BF10B500210446C177C1
:107030001F2219F02DFB204610BD00BF30B5D1E94D
:10704000042485B0CD68074B00936946CDE902243E
:107050000195FFF7B1FF0446684602F009FA2046A1
:1070600005B030BD2C3C0400F0B589B006462022A6
:107070001348694602F0A4FEF37FC2181D2A0CDDF6
:10708000C3F11D04E4B2E2181D2A4FF00005D8BF79
:10709000082705DD284609B0F0BD0446012509276B
:1070A000F218601CF05469465770901C224619F083
:1070B000C7FAF27F023214442846F47709B0F0BDD3
:1070C000DC65002010B50446094802F0D7FEE37FD6
:1070D0001C2B01DD002010BDE2180221E1540A231F
:1070E00090705370E37F0333E377012010BD00BF3E
:1070F000DC650020C27F1C2A01DD0020704710B42F
:1071000003469C18022098540120A1706070DA7F19
:107110000332DA775DF8044B704700BF10B51F22C9
:107120000446002119F0B4FA064B0749074A2362C6
:107130000023E377C4E90C12C4E90E33E36223644D
:10714000204610BDFF0101002000F40020001E00B9
:10715000C1867047018681864286704780F822107A
:10716000704700BFF0B502EB820389B0154603EB10
:10717000830390F821209B0004460020CDE90410F1
:10718000ADF81430931E0290CDE906000E46039030
:107190008DF80820092B09D8DFE803F00505080859
:1071A00008050805080504F12403039394F8233027
:1071B000002B38D11E4F1F49FA7F94F81FC08A81D7
:1071C00004F1200002AA8F600C60A7F28467A1F886
:1071D00004C0FFF7E9FE10B1002009B0F0BD94F83B
:1071E00020100191384602F049FE01990246012023
:1071F000FFF7E0FE0028EFD194F820000121FFF70F
:10720000D5FE0028E8D1384602F0A8FE628FA68697
:10721000AA424FF0010094BF921A521B628784F871
:10722000230009B0F0BD94F82000FFF7C1FEC1E7CC
:10723000606C0020C8650020F0B5002361F30F03E7
:10724000044661F31F4389B08363FA21314802F099
:107250001DFEE58E94F82110278E049705EB85031B
:1072600003EB830300229B000592ADF814308B1EC4
:107270000292CDE9062203928DF80810092B09D855
:10728000DFE803F00505080808050805080504F10E
:107290002403039394F82330002B36D11E4E1F494C
:1072A000F27FE37F8A8104F1200002AA8E600C60E5
:1072B000A6F284668B80FFF777FE10B1002009B03C
:1072C000F0BD94F820100191304602F0D7FD0199ED
:1072D00002460120FFF76EFE0028EFD194F820004F
:1072E0000121FFF763FE0028E8D1304602F036FEA8
:1072F000638FA7869D424FF0010094BF5B1BDB1A92
:10730000638784F8230009B0F0BD94F82000FFF7EC
:107310004FFEC3E7DC650020606C0020C8650020DC
:1073200030B50B888D88112B85B0044605D0262BEF
:1073300033D0102B25D005B030BDC36AEB40DB073E
:10734000F9D52E4801F056F90028F4D1E36A94F8F3
:107350002310012202FA05F523EA0503E36200295E
:10736000E9D194F82230002BE5D0238F234863879E
:10737000FA2102F08BFDE28E218E2046FFF7F2FE0D
:10738000D9E7CB7B012BD6D1C26A03FA05F51543A9
:107390000023C56280F82330CDE70B7A012BCAD1D8
:1073A000002380F823304FF4FA71144802F06EFD88
:1073B000238F5BB1658F95B1236C0BB19847658FB7
:1073C000618E2A462046FFF7CDFEB4E7236C03B159
:1073D0009847618E00222046FFF7C4FEABE70748BE
:1073E00002F0D0FDE26B002AA5D0009503AB294640
:1073F0002846039513F0A0FE9DE700BFDC65002042
:1074000075DF704710B44FF010144FF4480100229C
:10741000C0E90041C0E902225DF8044B704700BF9B
:10742000014800F0E9BE00BFD46C0020F8B500258B
:107430000D4F2E4601E0142D14D0A9B2384602F0AB
:1074400075FD013504460028F5D000F083FD0028C5
:10745000F1D0204600F088FD022804BF0136F6B2C4
:10746000142DEAD13046F8BDDC65002070B58E8859
:107470001B480C4694B0314602F058FD23881A2B65
:1074800005D01F2B1CD0102B0FD014B070BD05469B
:1074900000F062FD0028F8D0284600F05FFD0028CB
:1074A000F3D1284600F0C0FDEFE7694600F0A4FDE7
:1074B0000028EAD06A4631460A4801F039FCE4E780
:1074C00054F8080F61686B4603C33046BDF80030BE
:1074D000ADF802306946FFF793FF14B070BD00BFEE
:1074E000DC650020FC650020AADF7047ABDF704739
:1074F000ACDF7047ADDF7047AEDF7047B0DF70477D
:1075000010B5044B044640F8043B01F0B1FF20469F
:1075100010BD00BFE43B040010B5054B044640F825
:10752000043B01F0A5FF204613F092F9204610BD60
:10753000E43B040070B57B4B04461B68836196B046
:10754000043001F0D3FF94F82E30A06913F032021A
:1075500008BF84F82F2013F00C0308BF84F83030E4
:107560000DF10102694601F079FF94F82F209DF892
:10757000010015070DD09DF8001002F00F0301F077
:107580000F059D424FEA12126DD243EA021284F8AF
:107590002F2094F8303019070BD003F00F0100F0C2
:1075A0000F058D424FEA131369D241EA031384F8A1
:1075B000303094F82E1011F0300340F096800FAD6B
:1075C0000F93C5E90133C5E903338DF83C10AB6176
:1075D0000021ADF809109DF80A10206A14930123C8
:1075E00063F342018DF808208DF80A1008B1037882
:1075F00073BB94F8263013B104F12603129394F868
:1076000031200023D2070893079358BFE38AADF8CF
:107610001C3004F1080004F12F01CDE9050154BF2D
:107620001846E08AADF82000294604F13203E569E6
:10763000099505AA0020FFF757FF054628B994F8D9
:10764000253043BB237D002B64D0284616B070BD87
:10765000109019F008FF02AB80B2ADF84400ADF80D
:1076600046001393C5E74FEA111101D191428CD323
:107670000A462B4643EA021284F82F2089E74FEA94
:10768000101001D1984290D30346294641EA0313D2
:1076900084F830308DE7ADF80D009DF80E2094F899
:1076A0002F600C90012363F3420242F608118DF81B
:1076B0000E208DF8123004AA0223ADF8101003A991
:1076C0000D90ADF83030ADF834300A9204F1240357
:1076D0000B910DF102020AA98DF80C600E93FFF7D1
:1076E00005FF0028AED00546AFE70F4B8DF805200B
:1076F0000FAD1B788DF80430022000230F938DF816
:107700000600C5E90133C5E90333AB618DF83C10D0
:1077100001AB5DE72146054800F02EFF284616B074
:1077200070BD00BFD8650020D83B04001C6A002053
:107730002DE9F0410B888E88502B8AB00C46054607
:1077400009D0512B04D18B79012B19D0022B26D0D3
:107750000AB0BDE8F081CB88428E9A4235D0EA8EDD
:107760009A42F5D16B6D002BF2D095F84420648AD3
:10777000920700F18A802246294630469847E7E77B
:10778000836C002BE4D090F84420520701F10807E5
:107790006CD43A46294630469847A379D6E7A27B6F
:1077A000042A46D0062A20D0012AD1D1EB6C002B26
:1077B000CED095F84420170704F1080400F1A58005
:1077C0002246294630469847C2E7076D002FC6D0AB
:1077D00090F84430D90768D404F11208238A42464D
:1077E00029463046B847E388B9E7EA6B002AAFD0AC
:1077F000002202A93046CDE90222CDE90422ADF8EB
:107800000C208DF80830FFF779FE2C6D54B195F8F7
:107810004430D80700F19280B5F84230EA6B304628
:107820002946A047E86B10F0C1FC0023C5E90F33DF
:107830008EE7E86B002878D0B5F84010278A628A76
:1078400007EB020C00234FF0020E8C45CDE9063306
:10785000CDE908338DF818E039DD40F20913ADF8B1
:107860001C3006A93046FFF749FE71E703211A468E
:10787000009106AB08213846CDE90665089713F05C
:107880005BFC002889D1AB6C83E7032000211A46FA
:10789000009006AB0846CDE90665089413F04CFC51
:1078A00000287FF455AF6B6D65E7218A069604F1D9
:1078B0001208042300933A46404606ABCDE90881FE
:1078C000079513F039FC00288DD12F6D86E79DF8C0
:1078D0001EC0ADF81C3004F114014CF00103384413
:1078E000ADF822208DF81E300991ADF8207018F007
:1078F000A7FE238A618AB5F842200B449BB29342CB
:1079000038BF1346A5F84230ABE703211A46009171
:1079100006AB0E212046CDE90665089413F00CFC59
:1079200000287FF415AFEB6C4AE74FF4806010F04D
:1079300023FC4FF48061C5E90F017FE7E86BB5F8E0
:107940004210069604230093224606ABCDE9075069
:10795000099113F0F1FB00287FF464AF2C6D5BE715
:107960002DE9F04F0F464FF6FF718F4289B0064662
:1079700015461C4626D0F18A96F82E308C4228BF38
:107980000C46DB0615D40DF1100B8C4228BF0C46BB
:107990004FF00008718EADF810405A464FF6FF7058
:1079A0000595ADF81280FFF7A3FD404609B0BDE88C
:1079B000F08F3948394602F0A1FA08B1F18E31B999
:1079C000F18AE0E7344802F0A5FA0746D3E7002041
:1079D00002230DF1100BADF81200ADF810305A462D
:1079E0000DF10E0338460593FFF784FD43F2014382
:1079F00098424FD000284AD19DF80E8008F0010827
:107A0000B8F1000F46D02448394602F08FFA82467A
:107A1000A0B300F0ABFA033883B2002CC5D0CDF888
:107A200004804FF00009984605E0BDF80E30E41AD6
:107A3000A4B21D4444B3504600F0ACFAA04503463E
:107A40004246594628BF22463846BBB1ADF80E2003
:107A50004FF00102738E8DF812200DF10E02CDE968
:107A60000625CDF813908DF81790ADF81030FFF77C
:107A700043FD0028D9D0504600F096FA4FF0000898
:107A8000404609B0BDE8F08FDDF804808DE700F0D6
:107A90000108B5E7F18A78E7DC65002010B5154BE1
:107AA000044640F8043B01F0EBFC134A0023127833
:107AB00084F8443014200321A384C4F82630C4F889
:107AC0002A3084F82E30E082C4E90F33C4E912333F
:107AD000C4E9143384F831102375A3612362E36190
:107AE00063866363238784F82F2084F83020204640
:107AF00010BD00BFE43B0400D83B040070B44E68E6
:107B0000164A86600260D1E90262154B154D1C7859
:107B100045600261142500220321C0E90F22C0E95B
:107B20001222C0E91422C660C58280F8311080F8A4
:107B300044200275826102628284C0F82620C0F867
:107B40002A2080F82E20C26142864263028780F894
:107B50002F4080F8304070BC704700BFE43B040009
:107B6000D83B04002C3C040010B4D1E90142CB689E
:107B70000361C0E902425DF8044B704780697047B9
:107B800001230375704700BF80F82E10704700BFB7
:107B900041B190F83130C182002262F3000380F8D5
:107BA0003130704790F83130012262F3000380F8E1
:107BB0003130704780F82F1080F83020704700BFB8
:107BC00090F84430016562F3000380F84430704758
:107BD00051F8322F026049684160704730B5C48A5D
:107BE00083B0944223460D4628BF1346418E01952B
:107BF00000246A464FF6FF70ADF80030ADF8024041
:107C0000FFF776FC18B9BDF8000003B030BD204680
:107C100003B030BD30B5044685B0194802F07AF99A
:107C200094F82E3013F0100302D1184605B030BD81
:107C300005460146124802F061F90028F6D0E18EAF
:107C400011B9084605B030BD0DF1060328460024E1
:107C5000022502AA0393ADF80A40ADF80850FFF7D9
:107C600049FC43F20143984205D030B99DF80630F3
:107C700003F00100DAE72046D8E700F00100D5E77D
:107C8000DC65002010B490F82E4014F0100407D0EA
:107C900013465DF8044B0A464FF6FF71FFF760BECE
:107CA00020465DF8044B7047A1DF7047A3DF7047A3
:107CB000A4DF704700238383704700BF006A00F091
:107CC000E3B800BF808B70472DE9F0410B88CE8868
:107CD000382B86B00C46054606D0392B66D0362B9D
:107CE00043D006B0BDE8F08100F12407002E36D164
:107CF0000A8A3846314603F08BF994F80C80B8F1C3
:107D0000010F2CD0B8F1040FEBD1286A00F0BCF8B9
:107D100001465C4802F00AF900F028F92A8E05387D
:107D200083B2934228BF1346002B00F09A80218A29
:107D3000E289286AAC8B8DF80D600A44E96A0591E6
:107D40008DF80C80ADF81230ADF81020ADF80E4073
:107D500000F09AF803A9FFF7A9FF0028C1D0384620
:107D600003F06EF906B0BDE8F081006A00F08CF80F
:107D70000146444802F0DAF800F0F8F807466EBB16
:107D800005F12406E289304604F1100103F040F9C0
:107D90002B8E2BB1F81EE38980B20138834255DA6D
:107DA000304603F04DF906B0BDE8F0810B7B012BA6
:107DB0001AD0022B95D1836B002B92D090F83C20E7
:107DC0008F8892071FD401F11006E28931462846B8
:107DD000984761893846FFF76BFF82E705F1240772
:107DE000384603F02DF9BDE7436B002B3FF479AF24
:107DF00090F83C20D10717D404F11006E2893146EF
:107E0000284698476DE7C989039004F110060320BE
:107E10001A46009003AB3046CDE9046113F08CF9AB
:107E20000028D6D1AB6BD0E7E189039004F11006AE
:107E300003201A46009003AB3046CDE9046113F0ED
:107E40007BF900287FF44DAF6B6BD7E7286A00F011
:107E50001BF86A8EA98B92B2FFF726FF00289FD1EC
:107E60003FE7AA8B286AADF80E2040F20511ADF865
:107E70000C10CDE9043300F007F803A9FFF716FF53
:107E80006DE700BFDC650020808870478FDF70479A
:107E900090DF7047B1DF7047B5DF704710B5074B13
:107EA00003600446806A11F00DF8E06A11F00AF8E8
:107EB000206B08B111F006F8204610BDFC3B040011
:107EC00010B5094B03600446806A10F0FBFFE06ABE
:107ED00010F0F8FF206B08B110F0F4FF204612F00C
:107EE000B7FC204610BD00BFFC3B040070B5044643
:107EF0000D4692E80300A5800E0CA061A183144DED
:107F0000A67717201B2156892560E0809589D089A6
:107F1000E181D1796581012222752274A081617489
:107F20001846194626819DF8105010F0E9F92946A7
:107F3000A062284610F0E4F94FF4885100234FF670
:107F4000FF72E182E062628223636375204670BD46
:107F5000FC3B0400007D7047407D7047C07D1138B8
:107F600018BF0120704700BF407C7047C088704731
:107F7000008970474B7D10B44BB11F310C688A8863
:107F80008B79046082805DF8044B837170471831EF
:107F9000F4E700BF08B56621806A10F00BFE0038D8
:107FA00018BF012008BD00BF08B500231A461946B6
:107FB000806A10F0D7F9003818BF012008BD00BF53
:107FC000818800F11F02407C03F080B838B50A4672
:107FD00005460C468188407C03F064F82146012068
:107FE00051F8483FC5F81F308B888A7985F82520DD
:107FF000A5F82330687538BD38B50A4604460D46E5
:1080000000F11801407C03F097F8607550B12946E3
:1080100051F8483FC4F81F308B888A7984F82520AE
:10802000A4F8233038BD00BF10B5447D24B100F161
:108030001F01407C03F05EF8204610BD70B50B8830
:10804000113B82B00C460546462B2BD8DFE803F0E7
:10805000383B2A2A2A2A2A2A2A422A2A2A2A2A2A49
:1080600050585E642A2A2A2A2A2A2A2A2A2A2A2AAE
:108070002A2A2A2A2A2A2A2A2A672A942A2A2A2AB9
:108080002A2A2A2A2A2A2A2A2A2A2A2A2A2A2A2A50
:108090002A246A2A752C84000023A8881A461946C7
:1080A000FFF7F8FE02B070BD8B79002BFAD1006BA0
:1080B000AB750028F6D01A46194610F053F9F1E7CF
:1080C00000230375EEE74B8903818B894381CB89BC
:1080D0008381E7E70B7AC375112BE3D0818800F128
:1080E0001F02407C03F0E0F803460028DAD1D4E711
:1080F000002301A98088ADF80430FFF7C7FED1E75F
:108100000B7A002BCED14B7A0374CBE700221146B9
:108110008088FFF7BDFEC5E70B89C381C2E74B89A5
:10812000C380BFE7006B0123AB750028BAD00023E2
:108130001A46194610F016F9B4E7417C164801F0CA
:10814000EDFEE3880146994228BF194689B2A88806
:10815000E980FFF7A1FEA5E78B79002BA2D00026CE
:1081600000231A461946A86A10F0FCF80136A279D5
:10817000F3B29A42F4D895E78B7A002B92D000267E
:1081800000231A461946E86A10F0ECF80136A27A84
:10819000F3B29A42F4D885E7DC65002070B58AB066
:1081A00086880B4606A84FF42851144605934FF6CF
:1081B000FF7501F06FF90120CDE90105059B0094E1
:1081C000314606AA044800F073F8044606A801F0F8
:1081D0004FF920460AB070BD1C6A002010B5044655
:1081E000043002F0B1FE034B2360002323752046C8
:1081F00010BD00BF0100FFFF017D01B1704710B548
:108200000446043002F0AAFE0123237510BD00BF0E
:10821000007D70470B88322B10B504D0332B1ED055
:10822000302B0FD010BD4A8932B100230133DBB2AD
:108230009342FBDBCB881BB3041D2046BDE81040F6
:1082400002F0FEBECB88041D002BF6D14B89002B1B
:10825000F3D00A3120460A2202F0DAFEEDE7CB889D
:10826000002BE9D14A89002AE6D002EB42025200F3
:10827000041D023292B20A31204602F0C9FEDCE748
:1082800002EB8202F3E700BFA0DF704710B504469F
:1082900000F5F87002F058FE2046F822002118F090
:1082A000F7F9F822A018002118F0F2F9204610BDC5
:1082B0002DE9F04782B00546BDF82C60BDF830408E
:1082C0002048ADF80460BDF828A0ADF806409046FF
:1082D00099460F4601F02AFE05F5F875064603E0BB
:1082E000FFF746FE0FF02CFF284602F08FFE0446F3
:1082F0003046002CF4D10121284602F02FFE5246D0
:108300004946284602F046FE08F10401384601AA13
:10831000FFF7BAFF30B1284602F02AFE204602B02D
:10832000BDE8F0874FF4FA71284602F039FE20EAE2
:10833000E074284602F01CFEA4B2204602B0BDE85C
:10834000F08700BFDC6500202DE9F04F8F880D8895
:1083500085B0884604463946864801F0E7FDA5F118
:108360001003012B814640F2908094F854203AB3D8
:10837000002633461633502D54F823A069D0512DD2
:108380001AD198F80630B8F808B0022B53D0BBF1D8
:10839000000F11D051466846FFF71AFCBDF80030B7
:1083A0005B4559D0514602A8FFF712FCBDF80C30CE
:1083B0005B4551D094F854200136F3B29342D9D39F
:1083C00094F84C31002B00F0D18004F5A6790026FA
:1083D00004E094F84C310136B34220DD59F8040F23
:1083E000FFF76CFCB842F4D1382D03D0392D01D001
:1083F000362DEED1B8F80AA0BAF1000FE9D0D9F8BD
:1084000000B05846FFF75EFC5045E2D15846414661
:10841000FFF75AFC94F84C310136B342DEDC112DE3
:1084200055D0352D04D1B8F80A30002B40F08F809C
:1084300005B0BDE8F08F98F80E30062BA7D1DAF81A
:1084400000305046DB68414698474846FFF786FDB6
:10845000B0E7B8F806B09AE7DAF800305046DB68C3
:10846000414698474846FFF779FD0028A2D0502D95
:10847000A0D1514602A8FFF7ABFBBDF80C305B451D
:1084800098D14846FFF79CFD94E72378002B3FF4F2
:108490006CAF0026112D33460CD004EB8303394614
:1084A000586803685B68984701362278F3B29A42AD
:1084B000F3D85AE704EB83033946586803681B680E
:1084C000984701362278F3B29A42F3D84DE7D3B1F8
:1084D0000026334605E094F84C210136F3B29A4267
:1084E00011D904EB8305D5F85001FFF7E7FBB8423B
:1084F000F1D1D5F85001FFF7DDFB013694F84C219E
:10850000F3B29A42EDD894F8F820002A90D00025D2
:108510002B4604EB8303D3F8FC008388BB420AD0CC
:108520000135EBB2934283D204EB8303D3F8FC0012
:108530008388BB42F4D103681B689847013594F8DF
:10854000F820EBB29342E4D305B0BDE8F08F04F518
:10855000F874B8F80C20204608F1100102F058FD1C
:10856000204605B0BDE8F04F02F06ABD112D7FF442
:1085700058AFC8E7DC65002090F85420272A0CD8B3
:1085800010B4034602F11604013280F8542043F877
:10859000241001205DF8044B70470020704700BF95
:1085A0000378132B06D800EB8302013303700120FC
:1085B000516070470020704778DF70477ADF70475E
:1085C000054A034692E80300002283E80300C3E95A
:1085D00002221846704700BF043C040008B5FFF7AC
:1085E000EDFF08B1002008BDFFF7E6FFB0FA80F00C
:1085F000400908BDF8B500250D4F2E4601E0142DA9
:1086000014D0A9B2384601F091FC01350446002887
:10861000F5D0FFF79FFC0028F1D02046FFF7A4FC1F
:10862000012804BF0136F6B2142DEAD13046F8BD58
:10863000DC65002008B501804280FFF7BFFFB0FA7B
:1086400080F0400908BD00BF704700BF8ADF704757
:1086500030B40D4CC4621F25002250248584A0250F
:10866000C0E91122C0E90F22A0F84650A0F8484006
:10867000006230BC8262028680F838204263C264A5
:10868000A0F85020704700BF000180002DE9F04F96
:1086900010468DB016460C4600F018FFC5B2102DDE
:1086A0004FD0B66807220623A16994F81C90019167
:1086B0008DF80D208DF80C30ED080DF10C080DF142
:1086C0000E0A0027B9F1010F0A97CDE90477CDE929
:1086D0000677CDE90877CDF82B700ED998F8000011
:1086E00001994B464A7882420FD00A78D4432344FA
:1086F000013213F0FF031144F4D108F10108C2451F
:10870000E0D100200DB0BDE8F08F11F8024B013C24
:10871000E4B2224604A817F093FF0DF1100B1CB928
:10872000EBE714F0FF04E8D058462A46314617F02C
:1087300079FF641BAB440028F3D101200DB0BDE8E4
:10874000F08F043603220223AEE700BF2DE9F04389
:108750000B888E88103B87B00D4604460D2B2CD815
:10876000DFE803F077072B2B2B2B2B2B2B2B2B84CA
:108770002B2E836AF340DB071FD55648FEF756FEC3
:10878000D8B9A36A94F82C20012505FA06F623EA45
:108790000606A6628AB994F82D3073B11F232462AD
:1087A000A38404F1200104F14400FFF74FFF20B936
:1087B000494801F0D3FB84F82C5007B0BDE8F083A2
:1087C00090F92E2091F91B309A423ADC90F838301B
:1087D00001F108080BB3DFF80491002602E0D6B2DD
:1087E000B34218D9636BCDF8089003EB061302AAC5
:1087F00059680391D3E902734146204605930497D3
:10880000FFF744FF074602A800F032FE94F8383024
:10881000721C002FE3D09E4213D094F82F30002B0F
:1088200049D095F82430012B0BD9296A4A78FF2AC0
:1088300030D00A78D0430344013213F0FF031144CF
:10884000F4D104F120010020FFF700FF07B0BDE8DC
:10885000F083CB7B022BB0D1836A012202FA06F6A9
:1088600033430022836280F82C20A6E70B7A012B89
:10887000A3D1002580F82C50174801F083FB226C0F
:10888000002A9AD0009502AB29462846029512F09C
:1088900053FC92E711F8025B6A1ED2B2022A28BF8B
:1088A000022202A817F0CCFE012DCAD0228EBDF8FC
:1088B00008309A42C5D1E26B002A3FF47EAF012313
:1088C0000093404602AB2421CDF8088012F034FC1E
:1088D00073E700BFEC650020DC6500202C3C040041
:1088E00046DF70477FDF704780DF704781DF70476A
:1088F00085DF704786DF704738B51C460D46034656
:10890000114628462246984734B10146002228469F
:10891000BDE83840FFF7E8BF38BD00BF10B50C46D2
:1089200082B003466946204698476A4620460121A0
:10893000FFF7DAFF02B010BD10B50446083002F0B0
:10894000DDFE074B2360032200232271C4F810349C
:10895000C4F81434C4F81834C4F81C34204610BDCC
:108960003507100330B50446ADF55F7D00F108050D
:108970008F4802F057FE0821284602F0C3FE6846E1
:1089800002F0CAFE6846082102F0CAFE694628467F
:1089900002F068FE04F54F714122684602F0CEFEF7
:1089A000684602F0C7FE94F85C0394F85B2394F8E1
:1089B0003D1394F83E3384F83D0384F83E2394F845
:1089C0005A0394F8592394F83F5384F85C1384F8BD
:1089D0005B3394F8401394F8413384F83F0384F8F0
:1089E000402394F8580394F8572384F85A5384F892
:1089F000591394F8425394F8431384F8410384F8CC
:108A0000583394F8560394F8443384F8422394F886
:108A1000552384F8575384F8430384F8442384F897
:108A2000553384F8561394F8451394F8540394F886
:108A3000532394F8463384F8450384F8462394F886
:108A4000520394F8512394F8475384F8541384F84C
:108A5000533394F8481394F8493384F8470384F85F
:108A6000482394F8500394F84F2384F8525384F821
:108A7000511394F84A5394F84B1384F8490384F83B
:108A8000503394F84E0394F84C3384F84A2394F806
:108A90004D2384F84F5384F84B0384F84C2384F817
:108AA0004D3384F84E1394F85D1394F87C0394F8D6
:108AB0007B2394F85E3384F85D0384F85E2394F896
:108AC0007A0394F8792394F85F5384F87C1384F83C
:108AD0007B3394F8601394F8613384F85F0384F86F
:108AE000602394F8780394F8772384F87A5384F811
:108AF000791394F8625394F8631384F8610384F84B
:108B0000783394F8760394F8643384F8622394F805
:108B1000752384F8775384F8630384F8642384F816
:108B2000753384F8761394F8651394F8740394F805
:108B3000732394F8663384F8650384F8662394F805
:108B4000720394F8712394F8675384F8741384F8CB
:108B5000733394F8681394F8693384F8670384F8DE
:108B6000682394F8700394F86F2384F8725384F8A0
:108B7000711394F86A5394F86B1384F8690384F8BA
:108B8000703394F86E0394F86C3384F86A2394F885
:108B90006D2384F86B03012084F86F5384F86E13FF
:108BA00084F86C2384F86D330DF55F7D30BD00BF14
:108BB000746D00200B7803F0FE03042B01D000201D
:108BC000704770B515468CB00C462022002104A8D1
:108BD00017F05EFD28686968AA68EB686D460FC5E6
:108BE0009DF800109DF80F209DF801609DF80E5033
:108BF0009DF802008DF80F1023469DF80D108DF89A
:108C000000209DF803208DF80E608DF801509DF82E
:108C10000C609DF804508DF80D008DF802109DF841
:108C20000B009DF805108DF80C209DF80A208DF89A
:108C300003608DF80B508DF804008DF805208DF839
:108C40000A109DF8061033F8042FADF810209B7819
:108C50009DF809209DF81D009DF810609DF81F509B
:108C60008DF809108DF806209DF811109DF81E2032
:108C70008DF81D309DF807308DF812008DF81F60BB
:108C80009DF808009DF813608DF810508DF81E10A7
:108C90009DF81C509DF814108DF811208DF80830A7
:108CA0009DF81B209DF81A308DF807008DF81C6088
:108CB0008DF813509DF815608DF81B108DF8142059
:108CC00068468DF815309DF819109DF817209DF80D
:108CD00018309DF816508DF818208DF816108DF864
:108CE00017308DF81A608DF81950FFF7F9FD62788A
:108CF0009DF82F309DF82E009DF82D108DF8210045
:108D00009A428DF8221004F1010404D0012080F071
:108D100001000CB070BD6278C3B29A4204F1010444
:108D2000F4D16278CBB29A42F0D10020EFE700BFD5
:108D300008B5137CDB0758BF1C32084602F112014C
:108D4000FFF7D6FDB0FA80F0400908BDF0B58F8876
:108D50000E46ADF56B7D04463946464801F0E6F80F
:108D60003388133B0546072B2FD8DFE813F03E006E
:108D70005F006D002E002803870008003100337A61
:108D8000B3B9737B9B070ED4294602A8FFF7F2F80C
:108D90000299BDF80C209DF80E3084F80C34C4F80C
:108DA0000614A4F80A24284604F2BE31FFF70EF98F
:108DB000D4F818244AB1307A0D9002230021009390
:108DC00008460CAB0C9712F0B7F90DF56B7DF0BDB2
:108DD000D4F81C24002AF8D001230021009308466F
:108DE0000CAB0C9712F0A8F9EFE704F2BE3304F2D3
:108DF000DA320C9304F2F63300251092119304F248
:108E00003D3204F27E330F921393CDE90D55129546
:108E1000FFF7AAF801280CBF22462A460CAB2946C8
:108E20003846FFF75FFD0DF56B7DF0BD0CA9FFF730
:108E3000E3F80346002800F0D2820CA9384600234C
:108E40001AAAFFF757FDC0E7D4F810140029BCD0C8
:108E5000B37B094A03F001030F930423CDE90C17F8
:108E600006F10800009306210CAB0E9012F064F995
:108E7000ABE700BFDC650020F988020094F87E3380
:108E800094F89D2394F87FC394F89C6394F88053DE
:108E900094F89B0384F89D33042194F89A3384F862
:108EA0007D1384F87E2394F8811394F8822384F848
:108EB0009CC384F87F6394F899C394F8836384F81F
:108EC0009B5384F8800394F8985394F8840384F8AF
:108ED0009A1384F8813394F8971394F8853384F8BF
:108EE000992394F8962384F882C384F8986384F8CD
:108EF000835384F8970384F8841384F8852384F8D3
:108F0000963394F8862394F8953394F887C394F8AD
:108F1000946394F8885394F8930394F8891384F82D
:108F2000952384F8863394F8922394F88A3384F84E
:108F300094C384F8876394F891C394F88B6384F89E
:108F4000935384F8880394F8905394F88C0384F82E
:108F5000921384F8892394F88F1394F88D2384F85E
:108F6000913394F88E3384F88AC384F8906384F83C
:108F70008B5384F88F0384F88C1384F88D3384F832
:108F80008E2394F89E2394F8BD3394F89FC394F8ED
:108F9000BC6394F8A05394F8BB0394F8A11384F82D
:108FA000BD2384F89E3394F8BA2394F8A23384F84E
:108FB000BCC384F89F6394F8B9C394F8A36384F89E
:108FC000BB5384F8A00394F8B85394F8A40384F82E
:108FD000BA1384F8A12394F8B71394F8A52384F85E
:108FE000B93394F8B63384F8A2C384F8B86384F82C
:108FF000A35384F8A41384F8B62384F8A53384F823
:10900000B70394F8A60394F8B51394F8A72394F83B
:10901000B43394F8A86394F8B35384F8B50384F890
:10902000A61394F8A90394F8B21384F8B42384F82F
:10903000A73394F8AA2394F8B13384F8B36384F87F
:10904000A85394F8AB6394F8B05384F8B20384F84F
:10905000A91394F8AC0394F8AF1384F8B12384F8FF
:10906000AA3394F8AD2394F8AE3384F8AD3384F882
:10907000AE2384F8B06384F8AB5384F8AF0384F86C
:10908000AC130CA802F048FB0CA8082102F048FB26
:1090900004F27D310CA8412202F062FB0CA904AA63
:1090A000202304F1080002F00BFB0CA802F042FBA5
:1090B0009DF810109DF82F009DF811309DF82E207E
:1090C0009DF812609DF82D508DF810008DF82F102E
:1090D0009DF813009DF82C108DF811208DF82E307E
:1090E0009DF814209DF82B308DF812508DF82D60CE
:1090F0009DF815509DF82A608DF813108DF82C00FE
:109100009DF816109DF829008DF814308DF82B204D
:109110009DF817309DF828208DF815608DF82A509D
:109120008DF816008DF817208DF828308DF829104D
:109130009DF818109DF827009DF819309DF82620FD
:109140009DF81A609DF825508DF818008DF82710AD
:109150009DF81B009DF824108DF819208DF82630FD
:109160009DF81C209DF823308DF81A508DF825604D
:109170009DF81D509DF822608DF81B108DF824007D
:109180009DF81E109DF821008DF81C308DF82320CD
:109190009DF81F309DF820208DF81D608DF822501D
:1091A0008DF821108DF81F208DF820308DF81E00CD
:1091B00094F87E0394F89D1394F87F2394F89C33DD
:1091C00094F8806394F89B5384F89D0384F87E138D
:1091D00094F8810394F89A1384F89C2384F87F33DD
:1091E00094F8822394F8993384F89B6384F880532D
:1091F00094F8836394F8985384F89A0384F881135D
:1092000094F8840394F8971384F8992384F88233AC
:1092100094F8852394F8963384F8986384F88353FC
:1092200084F8841384F8962384F8853384F89703AC
:1092300094F8860394F8951394F8872394F894335C
:1092400094F8886394F8935384F8950384F886130C
:1092500094F8890394F8921384F8942384F887335C
:1092600094F88A2394F8913384F8936384F88853AC
:1092700094F88B6394F8905384F8920384F88913DC
:1092800094F88C0394F88F1384F8912384F88A332C
:1092900094F88D2394F88E3384F8906384F88B537C
:1092A00084F88C1384F88E2384F88D3384F88F032C
:1092B00094F89E0394F8BD1394F89F2394F8BC335C
:1092C00094F8A06394F8BB5384F8BD0384F89E130C
:1092D00094F8A10394F8BA1384F8BC2384F89F335C
:1092E00094F8A22394F8B93384F8BB6384F8A053AC
:1092F00094F8A36394F8B85384F8BA0384F8A113DC
:1093000094F8A40394F8B71384F8B92384F8A2332B
:1093100094F8A52394F8B63384F8B86384F8B703B7
:1093200084F8A41384F8B62384F8A53384F8A353EF
:1093300094F8A65394F8A72394F8B43394F8B5039B
:1093400094F8A81394F8B36384F8B55384F8B4235D
:1093500094F8A95394F8AA2384F8A73394F8B13366
:1093600094F8B0C384F8A60384F8B31394F8B20356
:1093700094F8AB1384F8A86384F8B25394F8AC6300
:1093800094F8AF5384F8B12384F8AA3394F8AD234A
:1093900094F8AE3384F8A90384F8B013384604A9CE
:1093A00084F8ABC384F8AF6384F8AC5384F8AE237D
:1093B00084F8AD33FFF79AFA0DF56B7DF0BDD4F864
:1093C0001424002A3FF401AD0223002100930C92E3
:1093D0000CAB064A0D97084611F0AEFEF5E4384690
:1093E0001A461946FFF786FAEFE400BF1D8902000E
:1093F000A8DF7047704700BF30B5044683B008301F
:1094000000F074F804F10C010DF106020120FFF7E1
:10941000EFFF054628B9044B04481C602146FFF7BE
:10942000BFF8284603B030BDD86500201C6A002074
:1094300030B44C68C460D1E90241054A054D026070
:10944000054A8560C0E90441426030BC704700BFF6
:10945000143C04002C3C04000000111183790B70B3
:10946000C3791370704700BF62DF704763DF7047D6
:10947000704700BF10B5044611F0EAF9204610BD50
:10948000034A02600022C0E9022282718280704792
:109490002C3C040010B4054C8180002201210460A2
:1094A000C0E902225DF8044B817170472C3C040036
:1094B000002210B4044C046081605DF8044B82719A
:1094C0008280C260704700BF2C3C04008379012B6E
:1094D0000AD0826832B9C26822B9012B8CBF8020C1
:1094E0000020704780207047102070472DE9F0471A
:1094F000857982B0002D47D1C7680646002F47D036
:1095000010200EF039FE8246384617F0ACFF441E9C
:1095100030B3DFF88490A84604E00134023C1FD445
:10952000102D1DD017F804C0BCF12D0F07EB04025D
:10953000F3D099F80030ADF805808DF8043012F8BA
:10954000013C8DF804301022002101A88DF805C0DF
:1095500018F044F86B1C023C0AF80500DDB2DFD5B8
:10956000C6F808A0BAF1000F0ED0B11D5046FFF7A3
:109570007BFFB168321D1020FFF778FFB0FA80F052
:10958000400902B0BDE8F087012002B0BDE8F087D5
:10959000D0F808A0E6E700BF203C04004DDF70478C
:1095A0004EDF70474FDF704750DF70474BDF70472B
:1095B00010DF70477CDF70477DDF704760DF7047EA
:1095C00069DF704761DF704766DF704767DF7047AC
:1095D000704700BF032012F067B800BF30B5224CBF
:1095E000224D83B0D4F830074FF0FF310FF0E2FA8C
:1095F0000028F7D0C5B101A8FFF7D8FF0528F1D0A2
:109600000028F8D1019B032B1BD8012BF3D9184656
:109610000EF09AFCEFE70A2B04D0092B21D00B2B7C
:1096200002D1012008F0BCF801A8FFF7BFFF052810
:10963000D8D00028F8D1019BA3F10902022AF3D85F
:10964000E9E7A3F10902022AD5D80A2B04D0092B95
:1096500005D00B2BCFD1012008F0A2F8CBE70220D8
:10966000FAE70220DEE700BFDC650020497F030047
:109670002DE9F04F2DED028B4FF4FA7089B00EF00A
:109680007BFDB24E00F1080308EE103A054606F5E0
:10969000F16706F5C86AD6F82C074FF0FF310FF0D6
:1096A00089FA0028F7D04FF4FA730DF11601284615
:1096B000ADF81630FFF786FF10B10528F3D1EAE7C1
:1096C000B5F80490B9F1130F00F2398106EB890364
:1096D000D3F83C473CB129462046FEF7AFFC9C48F6
:1096E0002946FFF733FB2B88013B1B2B5AD8DFE8B9
:1096F00013F016015900590059005900590059003A
:109700005900590059005900590059005900590091
:10971000B4001C0059005900590059005900590063
:109720005900590059005900A200DFF838824FF063
:10973000000B58F8040F30B1FEF70CFC18B10BF118
:10974000010B5FFA8BFBB845F3D1BBF1000F06D1DB
:1097500096F838371BB15946032011F087FF204691
:10976000FEF702FC012800F0EC80F26962B10223EE
:10977000002195F808C00093084606ABCDF8189074
:10978000CDF81CC011F0D8FC09F5E77806EB88038A
:10979000586810B103685B68984706EB8808002397
:1097A000C8F8043029465046FDF7BAFD69482946F5
:1097B000FEF7CCFFB6F83A374B452B8800F0B48063
:1097C000102B1ED02CB32046FEF7CEFB012803D170
:1097D0005E482946FEF738FF2046FEF7C5FB022803
:1097E0001BD05D48FEF714FD00BB5C482946FEF720
:1097F000ABFDD6F89037002B3FF455AF284698477D
:1098000051E7EB7B012BDDD1AB88A6F83A37002C72
:10981000D9D14E482946FEF717FF51482946FDF792
:1098200025FE4D48FEF7F4FC0028DED04A482946C4
:10983000FEF7F0FCD9E7D6F88C27002AB2D0022335
:10984000002195F908C00093084606ABCDF81890A2
:10985000CDF81CC011F070FCA4E74FF00008D6F85A
:109860003407CDF800804346424603213D4C10F0BA
:1098700027FD54F8040F30B1FEF76CFB18B108F166
:1098800001085FFA88F8BC42F3D196F838376BB11B
:10989000B8F1000118BF0121032011F0E7FE96F88E
:1098A00038371BB10121032011F0E0FE09F5E778FC
:1098B00006EB8804606820B103685B689847002362
:1098C0006360EB7B012B0BBF96F81A3796F82037B5
:1098D00096F81B4796F821470393342010F0B6FF03
:1098E00006EB8808039B009418EE102A04464946AC
:1098F000FEF7FCFA2046C8F80440FEF735FB0128C5
:1099000032D0B269002A3FF44DAF01230021009309
:10991000084606ABCDF8189011F00EFC42E7002186
:109920004846FFF751FE3DE7102B3FF46AAF112B7D
:109930007FF448AF4FF6FF73A6F83A3742E7044684
:10994000D1E6F268002A7FF412AF1DE7DC65002043
:10995000FC650020806C0020D46C00201C6A002074
:10996000EC650020146D0020B268002A3FF41AAFA5
:109970000021009006AB0846CDF8189011F0DCFBF2
:1099800010E700BF38B50446FEF71AFE04F11000D8
:10999000FDF738FD04F12000FEF7CEFF04F58860E6
:1099A000FEF774FC04F5C860FDF7B8FB04F28460B0
:1099B000FDF73AFB04F2A460FEF74AFE04F5DF600F
:1099C000FEF70CFC4FF480530025C4F810371648FE
:1099D0001649174AC4F8140740F20113C4F81817BF
:1099E000C4F81C27A4F82037A4F8225704F23C70CE
:1099F0002946502216F04CFE01224FF6FF73A4F8C0
:109A0000245784F82657C4F82C57C4F83057C4F8A4
:109A10003457C4F89057C4F88C5784F83827A4F802
:109A20003A37204638BD00BF010A17000300010184
:109A30001700030004290BD8DFE801F00B130B1B00
:109A40000300104BC0F8163740F20313A0F81A3782
:109A500070470D4BC0F8163740F20113A0F81A37C3
:109A600070470A4BC0F8163740F20113A0F81A37B6
:109A70007047074BC0F816374FF48173A0F81A37B8
:109A8000704700BFF70064001700030017000200D2
:109A900080000600F0B5BF4E80F824178DB080F826
:109AA0002527044610F050FF10F056FF10F014FF69
:109AB0003369B949039303A8FFF77AFD18B100256C
:109AC00028460DB0F0BD0120FFF76AFD0120FFF729
:109AD00065FD0120FFF766FD09A8FFF765FD099BFD
:109AE0009B0705D5AD4BD3F80435002B00F0FE8065
:109AF0000023AB4A94F81557049209A90120CDE937
:109B000009330B938DF82450FFF75AFD0028D6D166
:109B100094F825370B90CDE90900181E18BF0120D5
:109B200094F824578DF82700049A8DF8263009A957
:109B300040208DF82550FFF743FD0028BFD194F851
:109B400014170990034661F30003CDE90A00049A53
:109B50008DF8243009A9A020FFF732FD0028AED1EE
:109B6000D4F810370A900B90049A099309A9A12000
:109B7000FFF726FD0028A2D194F82437002B40F0EF
:109B8000B98094F82537002B48D00023B4F81C770F
:109B9000049A0993022509A92320CDE90A338DF8F7
:109BA0002450ADF82670FFF70BFD002887D1CDE9D2
:109BB000090094F82577B4F81E370B90049A8DF8B5
:109BC000245009A920208DF82670ADF82830FFF721
:109BD000F7FC00287FF473AF0990CDE90A0094F8F0
:109BE0002037049A8DF8245009A922208DF82630B8
:109BF000FFF7E6FC00287FF462AFCDE9090094F896
:109C000021370B90049A8DF8245009A921208DF852
:109C10002630FFF7D5FC00287FF451AF04A8FFF7EA
:109C2000CDFC00287FF44BAFCDE9070040F00103E5
:109C300007A902208DF81C30FFF7C8FC00287FF42C
:109C40003EAF2046FEF7CAFC054600283FF437AF7A
:109C500004F12000FEF786FE337D52498DF808306E
:109C60001A2202A8FFF7A6FC00287FF428AF94F878
:109C70002537002B40F088800322002101200EF0C0
:109C8000FDFAC4F82C0700283FF419AF05AB0326F2
:109C9000CDE900634449454800234FF4A0620FF02A
:109CA000AFFA3246002101200EF0E8FAC4F830077E
:109CB00000283FF404AF06ABCDE900633C493D48C2
:109CC0000023C8220FF09CFA3B4B4FF480021A602D
:109CD0003A4B00930023184601224FF4807110F094
:109CE00099FAC4F8340701F0B7F9E9E6022007F061
:109CF00057FDFDE60990CDE90A00B4F81637049A3D
:109D0000ADF82630012509A923208DF82450FFF74E
:109D100057FC00287FF4D3AECDE9090094F82477EE
:109D2000B4F818370B90049A8DF8245009A9202014
:109D30008DF82670ADF82830FFF742FC00287FF43C
:109D4000BEAE0990CDE90A0094F81A37049A8DF84E
:109D5000245009A922208DF82630FFF731FC002875
:109D60007FF4ADAECDE9090094F81B370B90049A4F
:109D70008DF8245009A921208DF82630FFF720FC0A
:109D800000283FF4FEAE9AE604F11000FDF748FB10
:109D900072E700BF943C0400D195020000700240BD
:109DA00000600020703C04008C3C040071960200AE
:109DB000903C0400DD95020000E100E0D595020032
:109DC00000B583B008460DF10601ADF80620FFF797
:109DD000F3FB20B99DF8060003B05DF804FB0020FA
:109DE00003B05DF804FB00BF70B4234B0E4605467C
:109DF0000FCB85B06C4607C49DF900202380B2428A
:109E000034D09DF90130B34230D09DF90230B342D5
:109E10002CD09DF90330B34228D09DF90430B342D1
:109E200024D09DF90530B34220D0FEB19DF9073012
:109E3000B3421BD09DF90830B34217D09DF90930C9
:109E4000B34213D09DF90A30B3420FD09DF90B30C5
:109E5000B3420BD09DF90C30B34207D09DF90D30C1
:109E6000B34203D0002005B070BC7047012085F8D4
:109E7000266705B070BC7047AC3C040090F926071B
:109E8000704700BF80F83817704700BF70B50446B0
:109E900082B0D0F834070D4610F03EFA4FF47A72D3
:109EA00006460023A90DA80216F09AF900230246DF
:109EB0000421D4F83407009310F002FA0EB102B076
:109EC00070BD0096D4F8340733463246032110F0B3
:109ED000F7F902B070BD00BF70B500F5E76400F59A
:109EE000F165002654F8040F20B1FEF733F808B1ED
:109EF0000136F6B2AC42F5D1304670BD132906D812
:109F000000EB8101D1F83C0708B1FEF723B800202F
:109F1000704700BFB0F83A07704700BF01290CBF77
:109F2000B0F81607B0F81C07704700BF13299ABF96
:109F300000EB8101D1F83C070020704710B5064CBA
:109F40000021D4F830070EF0A9FCD4F82C0700212A
:109F5000BDE810400EF0A2BCDC65002090F8383758
:109F600003B9704710B582B0D0F834470FF038FB12
:109F70000023024600932046012110F0A1F902B00F
:109F800010BD00BFF0B583B0002405462346D0F8CD
:109F9000340700942246032110F092F905F5E76694
:109FA00005F5F16756F8040F20B1FDF7D3FF08B1AE
:109FB0000134E4B2BE42F5D195F8383743B1211EE1
:109FC00018BF0121032003B0BDE8F04011F04EBBE3
:109FD00003B0F0BD0148FFF7D5BC00BFDC65002031
:109FE00000207047C16180F83D207047016380F810
:109FF0004220704770B584B0044641F60A016846B5
:10A00000FFF748FA69462046FFF712FA6846FFF75D
:10A010002FFA20460E4B40F8183B2422002116F060
:10A0200037FB0C4E0C480D4AE06200232364E363C7
:10A0300084F844301A25052113232046E66184F86C
:10A040003D5084F84110226384F8423004B070BD62
:10A05000CC3C0400703C0400BC3C0400B03B040059
:10A060002DE9F0479AB00646FFF7C6F9804600286A
:10A0700046D1336A002B4ED0736A002B56D0C6F5FA
:10A08000275909F1270906F1140406F1380706F1EA
:10A090003C0554F8043F04A873B3FDF7FFFC2268A5
:10A0A000B36B09EB05019A4289B2684608BF42F6D4
:10A0B0005021FFF7EFF9694604A8FDF755FD684602
:10A0C000FFF7D6F904A8FDF75BFD022104A8FDF710
:10A0D0005BFD297804A8FDF75BFD04A8FDF72AFACB
:10A0E000824604A8BAF1000F0ED12A782168FDF744
:10A0F00075FD04A8FDF704FABC4205F10105C8D1BD
:10A1000040461AB0BDE8F087FDF7FAF9D046404660
:10A110001AB0BDE8F08711F0A5F9044617F0A3F9CD
:10A12000736A346286F83E00002BA8D111F05AF908
:10A13000044617F098F9746286F83F009FE700BF65
:10A14000B0F88C0080B2704700B583B080300DF15C
:10A15000070111F0FFF820B19DF8070003B05DF88A
:10A1600004FB4FF0FF30F9E700B583B080300DF10C
:10A170000702002111F01AF920B19DF8070003B081
:10A180005DF804FB4FF0FF30F9E700BF803011F0BD
:10A1900081B800BFB0F8740080B27047683011F029
:10A1A00079B800BF00B583B068300DF10702002117
:10A1B00011F0FCF820B19DF8070003B05DF804FB36
:10A1C0004FF0FF30F9E700BF00B583B068300DF104
:10A1D000070111F0BFF820B19DF8070003B05DF84A
:10A1E00004FB4FF0FF30F9E72DE9F043F729704FFA
:10A1F00083B0054675D03C786E4E315533780134C6
:10A20000E4B2F32B3C705ED8F12B5CD003F140023A
:10A21000D2B21F2A5ED9F32B5CD083F080023F2A92
:10A2200025D903F12002D2B20F2A20D9F22B1ED059
:10A23000032C18D11B067FD40DF076FF3188B4783B
:10A24000ADF80110C0F3C51060F07F03042205F1E2
:10A25000280069468DF800308DF80340FDF712FDA7
:10A26000002333703B70012003B0BDE8F083032C62
:10A27000F9D12835E8460DF102090DF055FFC0F37C
:10A28000C51242F4004343F0800300F07F0243EA2A
:10A2900002234849224648464FF00009CDF8009075
:10A2A00088F80490ADF8003016F0CAF9A21C4146B7
:10A2B0002846FDF7E7FC012086F8009087F800901B
:10A2C00003B0BDE8F083012CD3D003F14002D2B239
:10A2D0001F2AA0D8022CCCD083F080023F2AA0D81D
:10A2E000C5E73C78F4B1334E96F90030002B3EDBE5
:10A2F0000DF01AFFC0F3C51060F07F03002000903E
:10A300002246314628350DF10100E8468DF800302F
:10A3100016F096F9621C28464146FDF7B3FC0DF194
:10A32000020904E0234E2835E8460DF10209012414
:10A33000F7233C703370A0E70DF0F6FEC0F3C512B2
:10A3400042F400433188B478ADF8021000F07F0287
:10A3500043F0800343EA022305F128000522694601
:10A36000ADF800308DF80440FDF78CFC78E70DF077
:10A37000DBFEC0F3C512E84642F40043002100F0C2
:10A380007F000DF1020943F0800343EA002388F8BF
:10A39000041000912246314628354846ADF8003079
:10A3A00016F04EF9A21C41462846FDF76BFCBEE7AD
:10A3B000736D0020706D0020A0F11800FFF714BF2E
:10A3C0002830FDF727BC00BF036810B504460BB169
:10A3D0007430984794F87530803B7F2B43D8DFE882
:10A3E00003F04942424242424242424242424242D7
:10A3F000424255424242424242424242424242422A
:10A400004242594242424242424242424242424215
:10A4100042425D4242424242424242424242424201
:10A4200042426142424242424242424242424242ED
:10A4300042426B42424242424242424242424242D3
:10A4400042426F42424242424242424242424242BF
:10A450004242839098A842424342ACB0B4B8BC4256
:10A46000C040236D1BB910BD636B002BFBD0BDE852
:10A4700010401847A368002BF5D094F8772094F883
:10A48000761094F87400BDE810401847E368002B7C
:10A49000F3D1E8E72369002BEFD1E4E76369002BF0
:10A4A000EBD1E0E7A369002BDDD094F8761094F8A7
:10A4B0007400BDE810401847E369002BF5D1D2E7DE
:10A4C000226A002ACFD094F8771094F8763094F866
:10A4D0007400C90101F47E5103F07F031943BDE804
:10A4E0001040A1F500511047636A002BBBD0B4F8AF
:10A4F0007610802904F1780028BF8021BDE8104043
:10A500001847A36A002BAED094F87600BDE810403F
:10A510001847E26A002AA6D094F8773094F87600BB
:10A52000DB0103F47E5300F07F00BDE810401843C8
:10A530001047236B002BE7D195E7A36B002B96D137
:10A5400091E7236C002B92D18DE7E36B002B8ED12A
:10A5500089E7636C002B8AD185E7A36C002B86D139
:10A5600081E7E36C002B82D17DE700BF30B5044664
:10A57000406D714A03685B69934283B040F0B280DA
:10A58000B0F88C0080B2002853D094F80D31606D83
:10A590006A4A23F0010384F80D310368DB689342B3
:10A5A00040F0EE8180300DF1070110F0D3FE00285D
:10A5B00000F0ED819DF807301846FD2B39D0626E12
:10A5C000002A39D194F9591094F8592084F85B3055
:10A5D000002918DA02F10C01C9B2012913D9FD2AA8
:10A5E00011D0EF2A94BF02F0F001114601F0CF051F
:10A5F000802D00F0A580D02900F0A28001F0DF01BD
:10A60000C02900F09D805AB2002AC0F28D8294F9D0
:10A610000D01636840F0010084F80D0103B1984713
:10A620000020C4E9180084F8590003B030BD01329D
:10A630006266002003B030BD010655D494F85B106B
:10A64000F02900F0A081F72900F09D81A11881F880
:10A650005B30216E4B1E9A42E9D394F85B30F02BAD
:10A6600000F0A781F72B00F0A4811A0640F10D82BB
:10A67000F42B00F00A82F52B00F03982FD2B00F05C
:10A680000482EF2B94BF03F0F0021A46802A84F86C
:10A69000752006D0902A04D0B02A02D0A02A40F01B
:10A6A0003A8203F00F0094F85C5084F87650013041
:10A6B000032984F8740000F0138200210020012592
:10A6C000B02AC4E9180084F8771084F8F85005D04F
:10A6D000B02A40F2F281E02A40F0E98184F8593052
:10A6E0000120A7E798474EE7C0B2F0380F28A5D859
:10A6F00001A151F820F000BFE5A902003DA602002B
:10A700003DA602003DA602003DA602003DA60200B5
:10A710003DA60200E5A9020099A9020099A902003C
:10A7200099A9020099A9020099A902003DA6020078
:10A7300099A9020099A9020041A1020049A10200C1
:10A74000000606D4012184F85C3084F85B201346AF
:10A75000616603F10C02D2B2012A7FF658AFFD2BDD
:10A760003FF455AFEF2B94BF03F0F0011946A1F170
:10A7700080027F2A3FF64BAF01A050F822F000BFC5
:10A7800037AA02000FA602000FA602000FA60200C1
:10A790000FA602000FA602000FA602000FA60200DD
:10A7A0000FA602000FA602000FA602000FA60200CD
:10A7B0000FA602000FA602000FA602000FA60200BD
:10A7C00037AA02000FA602000FA602000FA6020081
:10A7D0000FA602000FA602000FA602000FA602009D
:10A7E0000FA602000FA602000FA602000FA602008D
:10A7F0000FA602000FA602000FA602000FA602007D
:10A8000037AA02000FA602000FA602000FA6020040
:10A810000FA602000FA602000FA602000FA602005C
:10A820000FA602000FA602000FA602000FA602004C
:10A830000FA602000FA602000FA602000FA602003C
:10A8400037AA02000FA602000FA602000FA6020000
:10A850000FA602000FA602000FA602000FA602001C
:10A860000FA602000FA602000FA602000FA602000C
:10A870000FA602000FA602000FA602000FA60200FC
:10A8800071AA02000FA602000FA602000FA6020086
:10A890000FA602000FA602000FA602000FA60200DC
:10A8A0000FA602000FA602000FA602000FA60200CC
:10A8B0000FA602000FA602000FA602000FA60200BC
:10A8C00071AA02000FA602000FA602000FA6020046
:10A8D0000FA602000FA602000FA602000FA602009C
:10A8E0000FA602000FA602000FA602000FA602008C
:10A8F0000FA602000FA602000FA602000FA602007C
:10A9000037AA02000FA602000FA602000FA602003F
:10A910000FA602000FA602000FA602000FA602005B
:10A920000FA602000FA602000FA602000FA602004B
:10A930000FA602000FA602000FA602000FA602003B
:10A9400079AA020071AA020037AA020071AA0200C5
:10A950000FA602000FA602001DAA020079AA02009B
:10A960001DAA02001DAA02001DAA02001DAA0200C3
:10A970001DAA02000FA602001DAA02001DAA0200C5
:10A980009847C3B219E6A11881F8783061E6636E82
:10A99000002B00F0A880FF230022012084F87530EE
:10A9A000A4F8762084F87420C4F8FC0084F8F80039
:10A9B00040E6614B636780220123F02194F8F75051
:10A9C000C4F8FC2084F8F830204684F8F710FFF72C
:10A9D000FBFCF722022384F8795084F87820636620
:10A9E000002027E694F87810F02902D0F7297FF4A8
:10A9F0000EAEA5184FF4704185F87830013200236F
:10AA00000120C4E91833A4F87620C4F8FC20A4F887
:10AA1000741084F8F80084F859300BE60023012004
:10AA2000C4E9183384F8751084F87430A4F87630CB
:10AA300084F8F800FEE5032222660220626E82425C
:10AA4000FFF4F5AD03F00F030133012094F85C200F
:10AA500084F874300023C4E9183384F8751084F83E
:10AA6000762084F87730C4F8FC0084F8F800E1E53B
:10AA7000022222660120E1E780200022206684F87D
:10AA8000781084F859207F20D8E794F85C2084F867
:10AA9000762000230329A4F8743017D0C4E91833B2
:10AAA000012284F8773084F8F820002316E602F0BB
:10AAB000EF02C02A3FF412AEF7E7A02A3FF40EAE31
:10AAC00002F0EF02802A3FF409AEEEE794F85D1041
:10AAD00063660122236684F8771084F8F820E4E79F
:10AAE00094F85D10EAE5FF234FF0FF306AE500229D
:10AAF00084F8752094F85C5084F87650002003297F
:10AB000084F87400ECD00121C4E9180084F87700BF
:10AB100084F8F810DCE5D02A3FF4C3ADE02A3FF416
:10AB2000C0ADC02AE6D1BCE503F10C02D2B2012AC5
:10AB30003FF618AE6BE500BF00F080002DE9F04154
:10AB4000E0299DF818500C46064620D8013DEDB28C
:10AB50000F2D1ED849B200291BDA406D1F4603682D
:10AB600029431B69C9B290469847706D036808F085
:10AB70007F011B6904F0EF049847C02C09D0706D69
:10AB8000036807F07F011B69BDE8F0411847F7290A
:10AB900001D8BDE8F0810834E4B2012303FA04F4DB
:10ABA00014F0DD0FF5D0406D0368BDE8F0411B697E
:10ABB000184700BF90F87030DA0719D513F0FE0F70
:10ABC00016D0F0B590F8755085F08002602A83B0F9
:10ABD00004460ED890F874208A4244D0002942D00E
:10ABE0005B08012B46D0032B00F0968003B0F0BD2C
:10ABF0007047A5F1F0030F2BF8D801A252F823F00B
:10AC0000A1AC0200CDAC0200EDAC020089AC0200A8
:10AC1000EDAB0200EDAB020041AC0200EDAB020077
:10AC200041AC0200EDAB020041AC020041AC0200BD
:10AC300041AC0200EDAB020041AC020041AC0200AD
:10AC400005F10803DBB2072BD0D8012202FA03F387
:10AC500013F0DD0FCAD0606D036829461B6903B08D
:10AC6000BDE8F0401847C3F346037F3303F07F038A
:10AC7000012BBBD8009294F8773094F876202946BF
:10AC80002046FFF75BFFB1E7406D94F8765003680C
:10AC9000F3211B699847606D05F07F010368DDE7CC
:10ACA000B0F87630802B1F4628BF8027002B9DD020
:10ACB00000F17706606D3546036816F8011F1B69C1
:10ACC000763D2D1B9847AF42F4D88FE7406D94F83E
:10ACD000765094F8773002682D0103F00F03126963
:10ACE00005F07005F1211D439047B4E7406D94F8DD
:10ACF0007720036894F876501B69F22145EAC21563
:10AD00009847606D036805F07F011B699847606D87
:10AD1000C5F3C6110368A1E7009294F8773094F860
:10AD200076202946FFF70AFF60E700BF013B2DE9C7
:10AD3000F0419CB206468846DCB1551C00F1800704
:10AD400008E02946013C01223846A4B28D1810F0D3
:10AD5000B3FA74B195F90030002BF2DA95F90130AD
:10AD6000621E002B144605F10101B4BF94B294B2E7
:10AD7000E8E7D6F898300BB140469847D6F89C40A3
:10AD80001CB194F85850102D01D9BDE8F0818027EE
:10AD90002046FFF7EBFB0028F7D094F87530902B96
:10ADA00012D083F08003602B13D92046FFF70CFBF1
:10ADB00029462046FFF7FEFED6F89C4094F85850EE
:10ADC000102DE5D9BDE8F08194F877300BB984F8FF
:10ADD000757094F874309D42E7D0002DE5D0294677
:10ADE0002046FFF7E7FED0E7022B00D8704770B58A
:10ADF0001C46054616460846FCF7C0FE234632466A
:10AE00002946BDE87040FFF791BF00BF30B587B05D
:10AE100004460A4602A816490192FEF749FB02A918
:10AE20002046FEF705FB02A8FEF722FB114B124954
:10AE30004FF47A7503F10800256230330025C4E928
:10AE40000635206002A8FEF733FB02A904F12800B2
:10AE5000FCF754FE02A8FEF70BFB019A04F18000F8
:10AE6000012110F0F7F92046C4E9265507B030BD9E
:10AE7000E83C0400F83C0400D83C040030B504462B
:10AE800083B0803010F0F8F92046FEF7B5FA054699
:10AE900010B1284603B030BD04F128001E210190F6
:10AEA000FCF772FE212211460198FCF783FE0198FF
:10AEB00008490122FCF784FE0198FCF73BFB05469C
:10AEC0000028E6D10C2209210348FDF7B3FB2846F0
:10AED00003B030BDE9AD0200DC6500200368174A0D
:10AEE0009B68934228D110B5044682B0803010F0A0
:10AEF000C3F92046FEF780FA08B102B010BD04F194
:10AF000028001E210190FCF73FFE212211460198E6
:10AF1000FCF750FE01980A490122FCF751FE019806
:10AF2000FCF708FB0028E8D106480C22092102B0F2
:10AF3000BDE81040FDF77EBB184700BF7DAE0200A4
:10AF4000E9AD0200DC650020002201214270C0E969
:10AF500001220170C2818281704700BF10B5044692
:10AF6000017001B110BD0A200DF0CAF9606010BD7A
:10AF7000037810B5044643B1002301226370C4E98D
:10AF80000133E381A381227010BD40680DF09AFF68
:10AF9000F2E700BF002381608281C381704700BF58
:10AFA000037870B504460D46B3B946680123637053
:10AFB0004FF47A720023A802A90D15F011F9014689
:10AFC00030460DF0F7FD98B9237800264FF0FF3595
:10AFD0006670A3B9284670BD0322002101200DF040
:10AFE0004DF9064660600028E0D14FF0FF35F1E7EB
:10AFF000E58923780026ADB26670002BEAD0606840
:10B000000DF060FF6660284670BD00BF4078704755
:10B0100038B504468089824228BF0246154619B1D8
:10B02000A06815F00DFBA089E389A26815FA83F3E7
:10B03000401B9BB22A44A081E381A260284638BD10
:10B04000406820B100231A4619460DF08BB97047AD
:10B05000B1DF7047B2DF704708B50F480CF0E0FD74
:10B060000E490D4807F0B0F828B10D490A4807F01D
:10B07000ABF850B108BD0949074807F0C1F80849C5
:10B08000054807F0A1F80028F4D1BDE808400449BC
:10B09000014807F0B5B800BFF8820020443D040025
:10B0A000583D040070B586B00E46032300210546C6
:10B0B00014460093044A0496084603AB039505948E
:10B0C00010F03AF806B070BD91B3020070B586B0CA
:10B0D0000323144606460D460093104603AB044A6C
:10B0E00005940721CDE9036510F026F806B070BD80
:10B0F000C1B4020030B50A4691B089795379039101
:10B1000011790293D378094D094C019100939378FA
:10B11000527801280CBF2946214604A816F04EF9A2
:10B1200004A9044807F0C4F811B030BD6C3D040018
:10B130009C3D0400F88200202DE9F043D1B00B784B
:10B14000032B04AF0D460446904668D95A08022ADC
:10B150005ED14F4A4F49504BDFF84891012818BF44
:10B1600011460022381D07F087FA4B4907F16800A5
:10B1700007F0ACF907F1CC0611E00246414607F1B1
:10B18000680007F0A3FA08F1380229464846FDF79F
:10B1900011FD044678BB07F1680007F00DFB0022A3
:10B1A000391D304607F03AFB07F1D0000DC8D7F83B
:10B1B000DC10D7F8E4407B67D7F8E83097F8E0C0B8
:10B1C000F8663A67B967412207F1EC0107F1880098
:10B1D000C7E9204387F87CC015F032FA07F1680010
:10B1E00007F016FB044607F1680044B107F00EF9BA
:10B1F0005028D0D1C1E707F1680007F0DDFA381D0B
:10B2000007F0DAFA204607F59A77BD46BDE8F083E5
:10B210000024204607F59A77BD46BDE8F083E9464D
:10B220008CB08979AB786A78039169790291297930
:10B2300001911A4E1A49E878009004AD012C08BF1C
:10B240003146284607F1CC0616F0B8F812493046C8
:10B2500007F03CF929463046002207F0F1F9044690
:10B2600050B90024304607F0A7FA2046CD4607F52E
:10B270009A77BD46BDE8F083304607F0C7F8021E56
:10B28000EFDD92B24146304607F020FAEAE700BF10
:10B29000583D0400443D0400F88200206C3D040049
:10B2A0009C3D0400FC650020F0B5ADB09579937825
:10B2B000344E1446527803956579029594F804C08B
:10B2C000CDF804C0304DE478009404AF0C4601285A
:10B2D0000CBF3146294607F10C0016F06FF82B4BD6
:10B2E00007F10C0107F13C00002207F0C5F907F156
:10B2F0003C0007F08DFA40B9002407F13C0007F04C
:10B300005BFA2046A437BD46F0BD07F13C0007F0CC
:10B310007DF8051E08DD07F13C0007F015FA291835
:10B3200007F13C0007F0F2F907F13C0007F06EF876
:10B33000051E08DD07F13C0007F006FA291807F1A1
:10B340003C0007F0E3F907F13C0007F05FF8002844
:10B35000D2DDC31D23F007036D46ADEB030D82B2B2
:10B3600004A907F13C00C7E9001207F0AFF9204635
:10B37000D7E900120323FFF76BFEB0FA80F46409EB
:10B38000AD46BAE76C3D04009C3D0400F882002005
:10B39000F0B5B5B092F84E5092F84A30434E14468C
:10B3A00092F84920039594F84D50029594F84C502A
:10B3B000019594F84B5000950D463D4904AF012886
:10B3C00018BF314607F12C0015F0F8FF394807F196
:10B3D0002C0106F0F9FE6E4600284AD1354B07F1E4
:10B3E0002C0107F15C00012207F046F907F15C002F
:10B3F00007F00EFA18B9C437B546BD46F0BD502166
:10B4000007F15C0007F030F85022214607F15C009C
:10B4100006F068FF0023294627487B61C7E903330C
:10B42000C7E90633C7E90833BB62FEF77FFD07F1C2
:10B430000C012022FCF7B2FE3B7B03B307F10C00AA
:10B4400016F011F8013082B2C1B207F15C007A60E7
:10B4500007F00AF87A6807F10C0107F15C0006F0C2
:10B4600041FF07F15C0007F0A7F9C437B546BD46B8
:10B47000F0BD07F12C010F4806F01AFFAEE794F873
:10B48000491094F84D3094F84E20039194F84A10E6
:10B49000029194F84B10019194F84C10009107F12F
:10B4A0000C00064915F08AFFC8E700BF9C3D040068
:10B4B0006C3D0400F8820020DC650020CC3D0400D7
:10B4C0002DE9F043ADB00C4604AF0021032306463E
:10B4D0001546204607F10A027981FFF7BBFD7B89FB
:10B4E000E84623B9A437C546BD46BDE8F083073317
:10B4F000DB08A8EBC3039D460DF11009204607F1B8
:10B500000A0249460323FFF7A5FD04460028E9D1B6
:10B51000A979AB786A7803916979029129790191C7
:10B520003D483E49ED780095012E08BF014607F1E0
:10B530000C0015F043FF3A4B07F10C0107F13C00FA
:10B54000012207F099F807F13C0007F061F90028A3
:10B55000C8D0214607F13C0007F0D8F807F13C00BD
:10B5600006F054FF041E08DD07F13C0007F0ECF87C
:10B57000211807F13C0007F0C9F807F13C0006F07C
:10B5800045FF041E08DD07F13C0007F0DDF8211837
:10B5900007F13C0007F0BAF807F13C0006F036FF6F
:10B5A0007C8980B2A04213D0E1B207F13C0006F0E2
:10B5B0005BFF2246494607F13C0006F093FE07F187
:10B5C0003C0007F0F9F8A437C546BD46BDE8F08356
:10B5D000E31D6D46DB08A5EBC3039D4604A9224687
:10B5E00007F13C00796007F071F879687A8948467C
:10B5F00015F018F808B9AD46E1E707F13C0007F08F
:10B60000BFF87B89DB43191807F13C0007F07EF88F
:10B61000AD467C89C8E700BF6C3D04009C3D04003A
:10B62000F882002038B590F8E8500DB1284638BDB2
:10B63000012380F8E830044611F01EFE0028F5D101
:10B640002046BDE8384000F0ADB800BF10B5044C4E
:10B65000204600F0A3F8002384F8E83010BD00BFB6
:10B66000746D002003680A689A4201D00020704778
:10B6700070B5044684B04FF453700D460CF07CFD59
:10B680000646B0B10C4800F0ABF823460435002163
:10B6900053F8042B0095CDE90161084911F086FCAF
:10B6A000044630460CF082FDB4FA84F0400904B040
:10B6B00070BD002004B070BD746D002089BD030012
:10B6C000F0B585B006464FF453700D461746039308
:10B6D0000CF052FD78B1044600903A46281D311D09
:10B6E00003AB11F0E1FC054620460CF05FFD15B9F7
:10B6F000039805B0F0BD002005B0F0BD0022026047
:10B70000704700BF10B50446084611F03FFD2060A9
:10B71000003818BF012010BD00220260704700BF32
:10B7200010B50446084611F031FD2060003818BFFE
:10B73000012010BD00230360704700BF00B583B037
:10B740000430019201AB0A46042111F0A9FB18B99B
:10B75000019803B05DF804FB002003B05DF804FB22
:10B76000F0B5044683B04FF463700E4617460CF0F4
:10B7700003FD054678B1019054F8040B00943A4655
:10B780003146012311F0C8FA044628460CF00EFD9C
:10B79000B4FA84F0400903B0F0BD00BF002280F885
:10B7A000E420704770B590F8E4400CB1204670BDBD
:10B7B000012380F8E43005464FF4BF500CF0DCFC68
:10B7C00006460028F2D03146284610F0C9FC04464F
:10B7D000B4FA84F4304664090CF0E8FC204670BDED
:10B7E000704700BF0146014800F022BB7C6E00207C
:10B7F00038B5064B1D783DB100242046013400F0D9
:10B8000099FEE0B28542F9D838BD00BF786E0020BD
:10B81000407DFF280AD010B500F026FE044608B18E
:10B82000204610BD0FF0A8FB204610BD0020704739
:10B83000407DFF280ED000B583B00DF1070100F068
:10B840006FFE20B19DF8070003B05DF804FB4FF0D8
:10B85000FF30F9E74FF0FF30704700BF407DFF2811
:10B860000FD000B583B001220DF1070100F008FEF2
:10B8700020B19DF8070003B05DF804FB4FF0FF30E6
:10B88000F9E74FF0FF307047407DFF2801D000F00E
:10B8900051BE7047407DFF2801D000F0B9BE0020A6
:10B8A000704700BFF8B50646407DFF281CD01746FC
:10B8B0005AB10D46144600F0B3FD2946224680B128
:10B8C000707D00F081FE241A01D13846F8BD054490
:10B8D0000FF052FB707D00F0A3FD294622460028A0
:10B8E000EED13F1B3846F1E70020F8BD002A00F0FA
:10B8F00097802DE9F0434B4991F81C9191F81D7107
:10B9000091F81E8193B01D46064608F1010309F126
:10B9100002001446BA1C81F81C0181F81D2181F82F
:10B920001E3101A84222002114F0B2FE412D73D92C
:10B93000327D8DF814207A1C204662F07F0440F698
:10B940000832ADF8042040F2094540F20122ADF87A
:10B950000C50ADF810202425334A8DF8165006926D
:10B9600009F1010304220125DBB28DF81C508DF88A
:10B970001F208DF8302040F2022640F2075240F29C
:10B9800024658DF81E308DF827308DF83130ADF8F4
:10B9900008600223ADF82450ADF82820ADF8382017
:10B9A000224E8DF80730032508228DF812308DF8CD
:10B9B00033308DF83B30089605238DF82B508DF8E9
:10B9C0002C2067F07F0740F601160A2540228DF8EB
:10B9D0001530ADF82E608DF8345001A98DF8069021
:10B9E0008DF80E908DF826908DF83A808DF82A709B
:10B9F00007268DF83C2044F2020542228DF84030A3
:10BA00008DF841408DF83F60ADF8425014F018FEBB
:10BA1000422013B0BDE8F083002013B0BDE8F083EE
:10BA2000422070477C6E0020200105242402060578
:10BA300070B50368184A5B6882B093428DF80710AE
:10BA400021D10546407DFF2823D000F0E9FC0DF10F
:10BA5000070601243146224688B1687D00F0B4FD16
:10BA6000241A02D1012002B070BD06440FF084FAFE
:10BA7000687D00F0D5FC314622460028EDD1C4F1A6
:10BA8000010002B070BD01220DF10701984702B01C
:10BA900070BD002002B070BDA5B80200002A00F001
:10BAA00097802DE9F0434B4991F81C9191F81D7155
:10BAB00091F81E8193B01D46064608F1010309F175
:10BAC00002001446BA1C81F81C0181F81D2181F87E
:10BAD0001E3101A84222002114F0DAFD412D73D954
