:020000022000DC
:1060000000000420F16404003165040033650400DD
:1060100035650400376504003965040000000000A0
:106020000000000000000000000000006D6404009B
:106030003D650400000000008D640400416504001B
:10604000456704004365040043650400D1A70300CD
:106050004365040043650400313E040043650400C9
:106060004365040043650400436504004365040080
:106070004365040043650400436504004365040070
:1060800043650400BD6104004365040043650400EA
:106090004365040043650400D536030043650400EE
:1060A0004365040043650400436504004365040040
:1060B0004365040043650400000000000000000088
:1060C000436504004365040043650400596C040003
:1060D000436504004365040043650400B15D0300AB
:1060E00043650400436504004365040000000000AC
:1060F000000000004365040000000000D16C0400B3
:10610000000000000000000000000000000000008F
:10611000000000000000000000000000000000007F
:10612000000000000000000000000000000000006F
:10613000000000000000000000000000000000005F
:10614000000000000000000000000000000000004F
:10615000000000000000000000000000000000003F
:10616000000000000000000000000000000000002F
:10617000000000000000000000000000000000001F
:10618000000000000000000000000000000000000F
:1061900000000000000000000000000000000000FF
:1061A00000000000000000000000000000000000EF
:1061B00000000000000000000000000000000000DF
:1061C00000000000000000000000000000000000CF
:1061D00000000000000000000000000000000000BF
:1061E00000000000000000000000000000000000AF
:1061F000000000000000000000000000000000009F
:10620000F1EE103A43F08073E1EE103A704700BFB0
:1062100010B5054C237833B9044B13B10448AFF3E0
:1062200000800123237010BD98660020000000004C
:106230006C9F050008B5034B1BB103490348AFF33E
:10624000008008BD000000009C6600206C9F0500D7
:10625000154B002B08BF134B9D46A3F5803A002138
:106260008B460F461348144A121A27F001F90F4BB8
:10627000002B00D098470E4B002B00D098470020F1
:10628000002104000D000D48002802D00C48AFF397
:10629000008027F083F82000290020F081F927F002
:1062A00057F800BF000008000000042000000000B4
:1062B0000000000098660020ACC300200000000031
:1062C0000000000042DF7047704700BF704700BF0A
:1062D00010B5034B0360044614F0FCFA204610BDD1
:1062E000447205002DE9F0419DF81840013CE4B2EC
:1062F0000F2C21D80D4649B200291DDA1F46436DE7
:1063000006461868036821431B68C9B2904698473F
:10631000736D1868036808F07F011B6805F0EF05CE
:106320009847C02D08D0736D1868036807F07F0187
:106330001B68BDE8F0411847BDE8F0812DE9F04148
:106340009DF81840013CE4B20F2C21D80D4649B20B
:1063500000291DDA1F46436D06461868036821436D
:106360001B69C9B290469847736D1868036808F0B6
:106370007F011B6905F0EF059847C02D08D0736DAC
:106380001868036807F07F011B69BDE8F0411847F2
:10639000BDE8F0812DE9F0472F4F3B78012B00F04D
:1063A0000F0601F07F0502F07F0421D12B4B1B88E3
:1063B000F3B1072E48D0701EC3B20F2B42D863F042
:1063C0004F085FFA88F9264E736D186803684946CE
:1063D0001B699847736D1868036829461B699847BD
:1063E000736D1868036821461B69BDE8F0471847BC
:1063F000731EDBB20F2B25D8DFF86CA0DAF854201F
:106400001068026843F0B0091268494663F04F080B
:106410009047DAF854301868036829461B68984793
:10642000DAF854301868036821461B6898473B78AF
:10643000002BC8D10B4B1B78022BC2D1072E01D1E8
:10644000652DC0D8BDE8F087652D02D86FF04908EA
:10645000B7E70623D0E700BFF86000202A8C0020B1
:10646000B4660020DC680020CC67002030B501460F
:1064700089B02548254D0DF025F9002320226946D5
:106480000446CDE90033CDE90333CDE9053302936A
:1064900007930BF037FA20460BF01EF926F0DEF9D1
:1064A0001B4B002226F044FA26F01AFD194B2880D7
:1064B0001B7823B9184B02229A7009B030BD4822CC
:1064C0006A210720FFF766FF2A7802EB820202EBBF
:1064D0008202920002F07C0277210720FFF75AFF28
:1064E00049226A210720FFF755FF2B88642202FB0F
:1064F00003F2C2F3C71277210720FFF74BFF064BC9
:1065000002229A7009B030BDF48E00202A8C00203F
:106510000000E43F288C0020208C00200E4B0F4A06
:106520001B7810B50024148003B910BD48226A21DD
:106530000720FFF72FFF224677210720FFF72AFFCA
:1065400049226A210720FFF725FF22467721BDE86F
:1065500010400720FFF71EBF288C00202A8C002047
:1065600010B5012182B004461A2021F0FFF9012163
:106570001A2021F07FFA05201DF0BAFC4FF4807339
:106580000094ADF8043002AB13E90600134813F091
:1065900081FE00211A2021F06DFAAC210F4813F082
:1065A00015FF53210D4813F011FF00210B4813F084
:1065B0000DFF00210446094813F008FF00EB0421F9
:1065C000B1F5A64F06D0102205481DF0CBFB0020E8
:1065D00002B010BD012002B010BD00BF88A4002091
:1065E0007897002070B5044642F21070FFF7B8FFAC
:1065F0007A497B481DF032FA257805B37949784805
:106600001DF0CCF91022294675481DF07BFBAC210A
:10661000754813F0DBFEE021734813F0D7FE00212C
:10662000714813F0D3FE294603466F481D4613F008
:10663000CDFE00EB0520B0F5604F40F0A9806A4D1B
:10664000F021284613F0C2FE0021284613F0BEFEBA
:106650000021284613F0BAFE0021284613F0B6FEAA
:1066600010F00106ECD16578002D70D15E4DF0215F
:10667000284613F0ABFE0021284613F0A7FE0021A8
:10668000284613F0A3FE0021284613F09FFE10F0C9
:106690000106ECD1A578002D7CD1534DF021284680
:1066A00013F094FE0021284613F090FE00212846A6
:1066B00013F08CFE0021284613F088FE10F001062E
:1066C000ECD1E478FCB1494945481DF067F9102246
:1066D000214643481DF016FBAC21434813F076FEDB
:1066E000A421414813F072FE31463F4813F06EFE7C
:1066F000214603463C481C4613F068FE00EB04208C
:10670000B0F5244F44D1384DF021284613F05EFEF9
:106710000021284613F05AFE0021284613F056FEA9
:106720000021284613F052FE10F00104ECD12C4851
:106730001DF0E4F92C4813F00FFE21461A2021F039
:1067400099F921461A2021F011F9012070BD28493C
:1067500023481DF023F91022294621481DF0D2FAC2
:10676000AC21214813F032FEA0211F4813F02EFE69
:1067700031461D4813F02AFE294603461A481D4695
:1067800013F024FE00EB0520B0F5204F3FF46EAF70
:10679000002070BD174912481DF000F9102229464B
:1067A0000F481DF0AFFAAC210F4813F00FFEA821DF
:1067B0000D4813F00BFE31460B4813F007FE294637
:1067C000034609481D4613F001FE00EB0520B0F515
:1067D000284F3FF462AF0020DBE700BF3403050021
:1067E000789700204403050088A40020800305005A
:1067F000580305006C030500F8B5044642F210701A
:106800000D46FFF7ADFE4F494F481DF027F926789A
:10681000002E56D16678002E73D1A6788EBBE6780E
:10682000FEB15021494813F0D1FD0821474813F02B
:10683000CDFD0021454813F0C9FD0021434813F068
:10684000C5FDEB78424904461C403F481DF0A6F8C0
:106850003D48214610221DF055FAA64201D00020E5
:10686000F8BD39481DF04AF9384813F075FD00218C
:106870001A2021F0FFF800211A2021F077F80120DA
:10688000F8BD5821314813F0A1FD08212F4813F01D
:106890009DFD00212D4813F099FD00212B4813F098
:1068A00095FDAB782B4907461F4027481DF076F829
:1068B0002548394610221DF025FABE42AFD00020EF
:1068C000CEE75821214813F081FD00211F4813F025
:1068D0007DFD00211D4813F079FD00211B4813F0B8
:1068E00075FD2B781C4907461F4017481DF056F8C8
:1068F0001548394610221DF005FABE428AD0002004
:10690000AEE75021114813F061FD00210F4813F04C
:106910005DFD00210D4813F059FD00210B4813F0D7
:1069200055FD0E49C7B208481DF038F839460648EB
:1069300010221DF0E7F968780740BE423FF46DAFC2
:1069400000208DE7940305007897002088A400209C
:10695000D8030500C8030500A8030500B803050017
:106960002DE9F04F894685B05C495D4C80465D4815
:1069700017461DF013F8494610225A481DF094F9A5
:106980001DF0AAFA2368C01AB0F57A7F00F2998048
:106990005548FFF7E5FD7B08029345D0002508F137
:1069A0000102524C01922B461E0A4021204618F843
:1069B00015A05FFA85FB13F009FD3146204613F060
:1069C00005FD5946204613F001FD51460746204675
:1069D00013F0FCFC034603EB0723AB424FF04801E6
:1069E00020461AD1019B13F81530039313F0EEFCE7
:1069F0003146204613F0EAFC5946204613F0E6FCE7
:106A0000039B06461946204613F0E0FC00EB0620E7
:106A1000A84205F10105ABB203D0002005B0BDE8E6
:106A2000F08F029A9342BFD34C21304813F0CEFC32
:106A30004FEA59054FEA59212C4813F0C7FCE9B237
:106A40002A4813F0C3FC00210646284813F0BEFC78
:106A50002749044623481CF0A1FF1022294621485B
:106A60001DF080F904EB062422491E481CF096FF15
:106A700021461C481022A4B21DF016F9A542CCD123
:106A80001A4DF021284613F0A1FC0021284613F0EE
:106A90009DFC0021284613F099FC0021284613F0A4
:106AA00095FC10F00104ECD1104813F055FC214680
:106AB0001A2020F0DFFF1A20214620F057FF012086
:106AC000ACE71DF009FA0C4B0C4A20600C49C3F8E6
:106AD000002604481CF062FF5AE700BFE8030500E7
:106AE000E86900207897002040420F0088A4002029
:106AF0000404050018040500000001403546526EEC
:106B0000F8030500014608B503481DF017F80121F8
:106B1000084620F0AFFFFEE778970020014608B551
:106B200003481CF09BFF0121084620F0A3FFFEE76D
:106B30007897002010B542F2107082B0FFF710FD78
:106B4000AC211D4813F042FC80211B4813F03EFC91
:106B50000021194813F03AFC00210446164813F0AE
:106B600035FC00EB0420B0F5004F22D1124CF0218F
:106B7000204613F02BFC0021204613F027FC0021B7
:106B8000204613F023FC0021204613F01FFC10F0D8
:106B90000101ECD10848019113F0DEFB01991A20A4
:106BA00020F068FF01991A2020F0E0FE012002B0D9
:106BB00010BD0248FFF7B2FF88A4002020040500A2
:106BC000084C094908B5054620461CF015FF294622
:106BD000102220461DF08EF820461CF08FFF03483F
:106BE000FFF79CFF789700203C0405005004050047
:106BF0002DE9F04780460C4617463AB1013A92B269
:106C000018460132FF2126F033FC034604EB070C43
:106C100000224446204610F8011B0A2900F0538147
:106C20000D2900F050813A2940F0A4816578A5F142
:106C30003001C9B209290CD9A5F14101052940F259
:106C40005781A5F16101052900F28881A5F157015D
:106C5000C9B2A578A5F13000C6B2092E4FEA0110DD
:106C60000CD9A5F14101052940F23A81A5F1610154
:106C7000052900F27381A5F15706F6B2E578A5F172
:106C80003001C9B230440929C6B20CD9A5F141017D
:106C9000052940F22981A5F16101052900F25E81F3
:106CA000A5F15701C9B22579A5F1300E5FFA8EFE24
:106CB0000901BEF1090FC9B20ED9A5F1410EBEF10D
:106CC000050F40F21981A5F1610EBEF1050F00F22A
:106CD0004581573D5FFA85FE94F8059001EB0E055E
:106CE000A9F13001EDB2C9B22E440929F6B2ADB214
:106CF0000CD9A9F14101052940F20281A9F16101F4
:106D0000052900F21981A9F15701C9B294F806903A
:106D1000A9F1300E5FFA8EFE0901BEF1090FC9B26A
:106D20000FD9A9F1410EBEF1050F40F2ED80A9F196
:106D3000610EBEF1050F00F2FF80A9F157095FFA5D
:106D400089FE7144C9B201EB0525ADB20E4465451B
:106D5000F6B280F2ED80E579A5F13001C9B20929DA
:106D60000CD9A5F14101052940F2D680A5F16101B8
:106D7000052900F2F380A5F15701C9B2257AA5F1E2
:106D800030095FFA89F90901B9F1090FC9B204F1B3
:106D9000090E40F29A80A5F14109B9F1050F40F2C0
:106DA000B880A5F16109B9F1050F00F2D780573D10
:106DB000EDB20E4455FA86F6F6B200284CD00B34EC
:106DC000002534E0A9F16101052900F2B580A9F19F
:106DD0005701C9B214F8019CA9F1300A5FFA8AFA86
:106DE0000901BAF1090FC9B20ED9A9F1410ABAF1E4
:106DF000050F2CD9A9F1610ABAF1050F00F29C80A8
:106E0000A9F157095FFA89FA5144C9B202F101099F
:106E100099541FFA89F20E449742F6B2C0F09B8053
:106E20000135E9B2884204F102040D4614D914F880
:106E3000029CA9F13001C9B20929A646CAD9A9F113
:106E400041010529BED8A9F13701C9B2C2E7A9F1AC
:106E500037095FFA89FAD7E79EF80040A4F13001BC
:106E6000C9B209290AD9A4F14101052958D9A4F1C7
:106E70006101052978D8A4F15701C9B29EF80140F3
:106E8000A4F13000C0B209010928C9B209D9A4F19E
:106E90004100052848D9A4F16100052864D8573C71
:106EA000E0B20E4450FA86F616F0FF0F68D19EF855
:106EB00002100A290EF103045FD1BA427FF4AAAE90
:106EC0002046BDE8F0870446A4E64944C9B20E4412
:106ED0000129F6B27FF471AF00242046BDE8F087A7
:106EE000A5F13706F6B2C9E6A5F13701C9B2DAE66F
:106EF000A5F13701C9B2ACE6373D5FFA85FEEBE696
:106F0000A9F13701C9B201E7A9F1370E5FFA8EFE88
:106F100017E7373DEDB24CE7A5F13701C9B22DE7D0
:106F2000A4F13701C9B2A9E7A4F13700C0B2B8E7AC
:106F300044462046BDE8F087134914481CF05CFD28
:106F40004946102211481CF0D5FE10481CF0D6FD11
:106F50000F48FFF7E3FD0F48FFF7D4FD0A490B4840
:106F60001CF04AFD2946ECE7074908481CF044FD9F
:106F70002146E6E70848FFF7D1FD0848FFF7CEFDB8
:106F80000748FFF7CBFD00BF3C04050078970020C1
:106F9000500405006C040500600405008C04050025
:106FA0007C0405002DE9F04F824683B0CD48CE4EDB
:106FB000FFF7D6FAD14619F8011B0A2900F0908193
:106FC0000D2900F08D813A2940F0ED819AF80100F9
:106FD000A0F13003DBB2092B0CD9A0F14103052B42
:106FE00040F2C481A0F16103052B00F2D281A0F12F
:106FF0005703DBB29AF80200A0F130085FFA88F27A
:10700000092A4FEA03180CD9A0F14103052B40F2DD
:10701000A981A0F16103052B00F2BB81A0F1570209
:10702000D2B29AF80300A0F13003DBB29044092BEE
:107030005FFA88FB0CD9A0F14103052B40F28E8149
:10704000A0F16103052B00F2A481A0F15703DBB28C
:107050009AF80400A0F13007FAB21B01092ADFB246
:107060000CD9A0F14103052B40F27481A0F161031A
:10707000052B00F28E81A0F15702D2B29AF80500DA
:107080001744A0F13003FFB2DBB2BB44092B5FFA17
:107090008BFBBAB20CD9A0F14103052B40F256810B
:1070A000A0F16103052B00F27481A0F15703DBB25C
:1070B0009AF80600A0F13007FFB21B01092FDBB2DE
:1070C0000CD9A0F14101052940F23C81A0F16101F8
:1070D000052900F25E81A0F15707FFB29AF8070078
:1070E0003B44DFB2A0F13003DBB2BB44092B07EB1A
:1070F00002275FFA8BFBBFB20CD9A0F14103052B2D
:1071000040F21C81A0F16103052B00F24281A0F145
:107110005703DBB29AF80800A0F13004E4B21B0177
:10712000092CDBB20AF1090940F2E880A0F1410222
:10713000052A40F20081A0F16102052A00F22981AE
:107140005738C0B29B4450FA8BFB5FFA8BFBB8F107
:10715000000F00F093800AF10B0A3D461DE0282144
:10716000304613F033F9690A304613F02FF9C5F3AE
:107170004701304613F02AF90021304613F026F972
:10718000C3B2A3424FD1C7F101032B44DBB2013597
:1071900043450AF1020AADB270DA1AF8024CA4F1C2
:1071A0003003DBB2092BD1460BD9A4F14103052BE7
:1071B0005DD9A4F16103052B00F2DC80A4F1570333
:1071C000DBB21AF8012CA2F130011C01CBB2092B61
:1071D000E4B20AD9A2F14103052B4CD9A2F1610313
:1071E000052B00F2D880573AD3B21C44E4B2A34432
:1071F00015F001035FFA8BFBB1D1202130460193DA
:1072000013F0E4F8690A304613F0E0F8C5F34701DB
:10721000304613F0DBF8019B3046194613F0D6F8E0
:10722000C3B2A342AFD0314801931CF067FC304990
:107230002E481CF0B3FB102229462C481CF092FD6E
:107240002C492A481CF0AAFB1022214627481CF092
:1072500051FD294925481CF0A1FB019B23481946F3
:1072600010221CF04FFD002003B0BDE8F08FA4F108
:107270003703DBB2A5E7373AD3B2B6E799F8000097
:10728000A0F13003DBB2092B0AD9A0F14103052B91
:107290004DD9A0F16103052B7BD8A0F15703DBB2D8
:1072A00099F80100A0F13001C9B21B010929DBB234
:1072B0000AD9A0F14102052A35D9A0F16102052AB7
:1072C00067D8A0F15701C9B29B4451FA8BF111F074
:1072D000FF0171D199F802300A2B09F1030968D135
:1072E000CA4667E640420F0088A400207897002035
:1072F0009C040500C0040500D00405001C44E4B251
:10730000A344012C5FFA8BFB7FF421AF2E4813F0CE
:1073100023F800211A2020F0ADFB1A20002120F0D4
:1073200025FB2046A0E7A0F13701C9B2CCE7A0F1C8
:107330003703DBB2B4E73738C0B203E7A0F1370355
:10734000DBB2E7E6A0F13707FFB2C7E6A0F13703EB
:10735000DBB2ADE6A0F13702D2B28FE6A0F137037F
:10736000DBB275E6A0F13702D2B25AE6A0F13703DC
:10737000DBB23FE6154916481CF03EFB21461022C1
:1073800013481CF0B7FC12481CF0B8FB1148FFF77B
:10739000C5FBFFF715FC0D490D4801921CF02CFBB5
:1073A000019A1146EBE70A481CF054FB0A48FFF724
:1073B000B5FB0A48FFF7B2FB054810221CF09AFC07
:1073C0000748FFF7ABFB00BF88A400203C04050082
:1073D0007897002050040500600405008C04050027
:1073E000D80405002DE9F04F012185B0084620F0B2
:1073F00041FB714971481CF0D1FA7148FFF7B0F8B0
:10740000002871D06F496D481CF028FB42F21070C3
:10741000FFF7A6F830216C4812F0D8FF00216A4827
:1074200012F0D4FF0121684812F0D0FF0021664815
:1074300012F0CCFF30210502634812F0C7FF002193
:10744000614812F0C3FF02215F4812F0BFFF002124
:1074500004465D4812F0BAFF05F47F4500EB0424B2
:10746000594812F079FF2C4300211A2020F002FB2A
:10747000A4B200211A2020F079FA631E9BB24FF6C5
:10748000FD72934204D8514B1F683B88A34204D03D
:107490000024204605B0BDE8F08FFFF74BFB052127
:1074A000B81CFFF79FF80028F2D0474812F054FFAD
:1074B00000211A2020F0DEFA00211A2020F056FACE
:1074C0000021012020F0D6FA64201CF011FD0121DA
:1074D000084620F0CFFA384938481CF05FFA38489F
:1074E000FFF73EF8814620B9394934481CF0B6FA16
:1074F000CEE7344931481CF0B1FAB7F820A097F82C
:10750000228007F123030293BAF1000F24D0DFF8A1
:10751000C4B003971FFA88F20BEB080647461C46D7
:1075200000259046A9B220465B4642460191FFF7EE
:107530005FFB019904464FB1264B4A4613F8010BF5
:10754000FF2818BF00229E42F8D172B33D44AA45DD
:1075500001D9002CE6D1039F0298FFF723FD0028F4
:1075600096D007F10C0420460521FFF73BF80028D0
:107570008ED0204607F11601FFF73EF90446002899
:1075800086D004250121084620F074FAC8201CF09A
:10759000AFFC0021012020F06DFAC8201CF0A8FCEF
:1075A0006B1E13F0FF05EDD173E742465846FFF717
:1075B000D7F90028CAD16BE70803050078970020A7
:1075C000A08601002403050088A40020E0610020BB
:1075D0002C030500F86900202DE9F04F704C714F25
:1075E000714E87B0204614F057FD704AA36A704967
:1075F0003B6001916F4FE56A6F4C07CA9B103B607F
:107600004FF48073ADF80830256003AD85E80700BE
:10761000029A6749304612F03DFE0021022020F018
:1076200029FA664B4FF4207043F00103984700217C
:10763000304612F0CBFE00240134E4B2214630463D
:1076400012F0C4FE0C2C05F8010BF5D1012102202B
:1076500020F010FA544812F07FFE9DF816209DF895
:10766000155057499DF811E09DF80E809DF80CB01B
:1076700091F800A09DF80D609DF80F709DF8109096
:10768000504B94004FEA840C0CF4407CA9004CEA67
:107690000E0C4FEA851E88000EF4407E01F4407106
:1076A00041EA0B0B4EEA080E29029DF81280C3F83E
:1076B00000B0950100F4407001F4407105F440758C
:1076C0003043394345EA08059DF813609DF814805E
:1076D0009DF817705860120204F4407402F440726E
:1076E00044EA0904324348EA0728C3E9044CC3E9E1
:1076F00002E1C3E90652C3F82080BAF1000F4BD172
:10770000DFF8C490D9E90067C01BD9F80870BBEB5B
:10771000060648BF5646AEEB07070028B8BF5046DE
:10772000002FC3E90060B8BF00209F60B8BF986019
:10773000D9F80C00091A0029D960BCBF0021D96012
:10774000D9F81010641A002CB8BF00211C61B8BF12
:107750001961D9F81410ACEB010100295961BCBFC3
:1077600000215961D9F818106D1A002DB8BF0021F9
:107770009D61B8BF9961D9F81C10521A002ADA61CC
:10778000BCBF0022DA61D9F82020A8EB0202002A4F
:107790001A62BCBF00221A6207B0BDE8F08F00BFBA
:1077A000F88A0020688E002088A400202C0505009F
:1077B00080841E00208D00208C8D0020906D05009F
:1077C000238C0020188E0020F48D00200000000083
:1077D0002DE9F04F2DED068B9DB013AB0AAA01A940
:1077E000CB48DFF89C93DFF89C83CA4FCA4ECB4D41
:1077F000CB4C13F031FBCB4BDDED117A93ED001A3E
:10780000C94BCA49CA4AC3ED007ACA4BD2ED000A35
:10781000D1ED006A9DED0F0A9DED107AC64AC74969
:10782000DB6882ED000ADDED061A9DED072ADDED2D
:10783000082AC34A81ED007A30EE660A77EE600AC4
:1078400037EEC11A189989ED000ADB01C8ED000A6C
:1078500087ED001AC6ED001A85ED002AC4ED002A56
:10786000116004D5B74B1A68D00700F1BD811DF037
:10787000A1FDB54B99ED000AD8ED000A97ED001A6D
:10788000D6ED001A95ED002AD4ED002AA0FB0301E5
:10789000830A43EA815307EE103AAC4C9FEDAC6A81
:1078A000D4ED0F7ADFEDAB8ADFEDAB6AB8EE477A45
:1078B000204677EE677A84ED0E7A67EE867A84ED5D
:1078C0000F7AF4EEE87AF1EE10FA98BFF0EE678ADC
:1078D000F4EEE68AF1EE10FAB8BFF0EE668AB0EE8A
:1078E000683AC4ED107A14F0A5FA94F82830002B09
:1078F00000F09381994D236B2B60DFF88CA2D4F8B4
:107900002C90CAF80090964BD4ED0D7A93ED007A46
:10791000944B37EE877AC3ED007A17EE100A17EE14
:10792000104A24F0ADFF74A3D3E9002306460F46A6
:1079300025F08EFA002800F05C8171A3D3E90023C2
:107940003046394624F03CFE25F0EAFADFF83CB236
:107950000446CBF80000484624F092FF66A3D3E922
:10796000002324F02FFE25F0DBFA814624F088FF67
:1079700061A3D3E9002306460F4625F069FA48B112
:107980005FA3D3E900233046394624F019FE25F0E1
:10799000C7FA8146286880F0004024F071FF5AA39E
:1079A000D3E9002324F0C4FF25F0BAFA09EE900AC7
:1079B00089F00040C5ED009A24F062FF52A3D3E99C
:1079C000002324F0B5FF25F0ABFA09EE100A84F08D
:1079D00000408AED009A24F053FF4BA3D3E9002323
:1079E00024F0A6FF25F09CFA5F4B604C1A68CBF898
:1079F0000000D1070AEE100A40F1088194ED008AD8
:107A00005B4E5C4F96ED007AD7ED007A39EEC77A7F
:107A10007AEE677AB5EEC07AF1EE10FAF5EEC07A3A
:107A20004CBF01220022F1EE10FA4CBF01230023CB
:107A30009A42B5EEC09A00F0AD80F1EE10FA40F334
:107A4000AD80B0EEC99AD8F8000024F019FF2EA33B
:107A5000D3E9002324F06CFF804618EE900A894693
:107A600024F00EFF02460B464046494624F060FFD4
:107A7000804618EE100A894624F002FF02460B46A3
:107A80004046494624F09EFD25F04AFA08EE100AC9
:107A9000F5EEC09AF1EE10FAB5EEC08A4CBF0122A5
:107AA0000022F1EE10FA4CBF012300239A4287ED29
:107AB00000AAC6ED009A206000F09380DFED2E7AD8
:107AC00068EE277A9FED327A2C4BB4EEC79AF1EE2E
:107AD00010FAADBF002238EE678AC3ED007A1A6053
:107AE00084ED008A85ED008A1DB0BDEC068BBDE8F3
:107AF000F08F00BFAFF30080182D4454FB210940E4
:107B0000182D4454FB211940F8C1631ADCA54C40E0
:107B1000908D0020588C0020E88A0020EC8A0020FC
:107B2000F08A00205C8C00200C8D00204C8C002002
:107B3000548C0020F0ED00E0048D0020088D002022
:107B4000C4670020001000E040420F002C8D002090
:107B5000BD3786350AD7233C6F12833A148D002037
:107B6000D88E00202C8C0020F4690020D88A0020B8
:107B7000D48A0020D08A0020CDCCCC3CCC8A0020F6
:107B8000488C0020508C0020A08C0020D48E002037
:107B90000000AA42F1EE10FA7FF653AF5FED047ACF
:107BA000B0EEC99AB4EEE79AF1EE10FABFF64BAF19
:107BB000B5EEC08AF1EE10FAF5EEC09A4CBF012284
:107BC0000022F1EE10FA4CBF012300239A4287ED08
:107BD00000AAC6ED009A7FF471AF2B4B00221A6009
:107BE0007EE7DFED2A7A6DE75B689B0907EE103AC6
:107BF00053E621A3D3E900233046394625F00AF99C
:107C000050BBDFF890B0CBF80040A4E60122B0EE04
:107C1000698AC4ED009A1A60F2E6204614F0CCF8A6
:107C20001B4D94F82830226B2A60002B7FF465AE40
:107C3000204614F0C1F8DFF860A094F82830D4F89A
:107C40002C90CAF80090002B7FF45DAE204614F013
:107C5000B3F8DAF8009056E609A3D3E900233046DA
:107C6000394624F0AFFC25F05BF9DFF828B0044674
:107C7000CBF800006FE600BF182D4454FB2109C06B
:107C8000182D4454FB211940CC8A0020000000002C
:107C9000148D0020D48E0020A08C00202DE9F0430C
:107CA000B84DB94C2B785A012DED028B04EB4311E2
:107CB000A35C83B06BB3B54FDFEDB58AD7ED007A27
:107CC0009FEDB48ACB79097A009177EEA87A2244A5
:107CD00067EE887A8B4294BF88460E4692F806C0BB
:107CE0005179FDEEE77A41F2883917EE900A09FBE7
:107CF0000CF209FB01F194BF1E4698461CF0DAF81D
:107D0000B04280F28B80A44F3B78B3422B787BD17A
:107D10005A01A1184B7863B3A04FDFED9D8AD7EDD0
:107D2000007A9FED9C8ACB7A097B009177EEA87A46
:107D3000224467EE887A8B4294BF88460E4692F8BA
:107D40000AC0517AFDEEE77A41F2883917EE900ABF
:107D500009FB0CF209FB01F194BF1E4698461CF08A
:107D6000A9F8B0427CDA8E4F3B78B3422B7841D1F0
:107D70005A01A1188B7853B38A4FDFED8B8AD7ED68
:107D8000007A9FED848ACB7B097C009177EEA87AFC
:107D9000224467EE887A8B4294BF88460E4692F85A
:107DA0000EC0517BFDEEE77A42F2107917EE900A91
:107DB00009FB0CF209FB01F194BF1E4698461CF02A
:107DC00079F8B0426EDA794F3B78B34204D103B010
:107DD000BDEC028BBDE8F0832B7804EB43133246F5
:107DE000997DD87CFEF7D6FA3E7003B0BDEC028BCD
:107DF000BDE8F08304EB43133246597D987CFEF7CF
:107E0000C9FA2B783E70B3E704EB43133246197D71
:107E1000587CFEF7BFFA2B783E7079E7D7ED007AF1
:107E20002B7877EEA87A04EB431367EE887A9A7979
:107E30005979187A0090FDEEE77ADB7917EE900A0F
:107E400009FB02F209FB01F11CF034F840454ADD60
:107E5000514F3B784646B3422B783FF459AFD3E7B6
:107E6000D7ED007A2B7877EEA87A04EB431367EE10
:107E7000887A9A7A597A187B0090FDEEE77ADB7A55
:107E800017EE900A09FB02F209FB01F11CF012F84F
:107E9000404542DD424F3B784646B3422B783FF4A3
:107EA00067AFA7E7D7ED007A2B7877EEA87A04EBD7
:107EB000431367EE887A9A7B597B187C0090FDEE1D
:107EC000E77ADB7B17EE900A09FB02F209FB01F16E
:107ED0001BF0F0FF40453ADD344F3B784646B34255
:107EE0003FF475AF78E7D7ED007A2B7877EEA88A64
:107EF00004EB431328EE888A9A795979187A00900E
:107F0000FDEEC87ADB7917EE900A09FB02F209FB55
:107F100001F11BF0CFFFC6B2F5E6D7ED007A2B7862
:107F200077EEA88A04EB431328EE888A9A7A597A66
:107F3000187B0090FDEEC87ADB7A17EE900A09FBF9
:107F400002F209FB01F11BF0B5FFC6B20BE7D7ED5A
:107F5000007A2B7877EEA88A04EB431328EE888A00
:107F60009A7B597B187C0090FDEEC87ADB7B17EE7C
:107F7000900A09FB02F209FB01F11BF09BFFC6B25C
:107F800021E700BF7B8C002098600020148D00202A
:107F90000000B44200007A44DC8A0020A08C00205B
:107FA000DD8A0020D48E002000003443DE8A0020C9
:107FB000F8B5474D2C681BF08FFF464B464A1B789F
:107FC00010682968984203DDCF0758BF44F00104C8
:107FD0005068984203DD8E0758BF44F00204906851
:107FE000834203DA4D0758BF44F00404D06883424B
:107FF00003DA080758BF44F008041069834203DA23
:10800000CF0658BF44F010045069834203DA8E064D
:1080100058BF44F020049069834203DA4D0658BFEC
:1080200044F04004D069834203DA080658BF44F0A4
:108030008004126A934203DACB0558BF44F480747B
:10804000A14201D10020F8BD244B254A1B78D35C06
:10805000422B4FEA510126D8224DC9B205EB03222B
:1080600013F0FB0F565C4FEA032C23F0040721D1D9
:108070001D481E4A405C1070012B02D11C48415C17
:108080001170C4F347046544285DD7B91649174AEF
:10809000095D1170012B02D1154B1B5D1370801B04
:1080A00018BF0120F8BD134BC9B2C4F347045E5C8E
:1080B000185DF4E7012B01D10C4ADFE70A2BFBD056
:1080C000DFE7012B01D1094AE6E70A2BFBD0E6E7FF
:1080D000648C00208D620020188E00207B8C002094
:1080E000406200207C55050038050500A88E002060
:1080F0007C540500E0680020F8B504460E461BF0ED
:10810000EBFE334B1B78002B40D0054604B3314FB8
:108110003B78002B3BD1304B304C186001223A7039
:10812000E6B1217800294FD01B68EB1A192B15D91D
:108130002B4E32687221C2F3C7120720FEF72AF9CC
:10814000327873210720FEF725F900233B7005E004
:108150003EBB204F3B78002B30D1204C2378ABB175
:10816000204B1868281A192810D91F4D2A68742125
:1081700002F07F020720FEF70DF92A687621C2F38C
:10818000C7120720FEF706F900232370F8BDAEB131
:10819000124C237883B9134A0F4B106001222270CE
:1081A000C2E70E4C0B4F23783A7853B90D4901239F
:1081B00008602370002AE9D0074BB5E7064B074C4F
:1081C000B2E7002ACCD0F7E7064922700860ABE797
:1081D000288C0020188A00201C8A0020198A002080
:1081E000648C0020208A0020208D002030B46B4B4E
:1081F0006B4A197802EB41120023907E01285CD073
:108200006848694A0578694C1278247868482B4494
:1082100003EB430302EB8303DBB2032C037036D082
:10822000644A1278032A1AD0022A01D030BC70475F
:10823000614A525C12F0FB0F40F092805F4A604D41
:1082400001EB410401EB840111442A68C978C2F3AF
:1082500000228A42EAD10C33037030BC7047564A80
:10826000545C012CE2D00A2CE0D0544A01EB4105C9
:1082700001EB8501524D11442A68C97802F00102D0
:108280008A42D3D1072CE6D107330370CEE74A4A9E
:10829000545C0F2C5CD04B4A0C2C127864D00E2C02
:1082A00068D0082C4DD1492A52D9424A12780C3351
:1082B000DBB2032A0370B7D1D7E7937F002B9FD09F
:1082C000414A424C92ED017AD4ED007AB8EEC77A79
:1082D000F4EEC77AF1EE10FA57D4012B2ED092EDBE
:1082E000027AB8EEC77AF4EEC77AF1EE10FA4ED4FD
:1082F000022B23D092ED037AB8EEC77AF4EEC77A58
:10830000F1EE10FA45D4032B18D092ED047AB8EEB2
:10831000C77AF4EEC77AF1EE10FA34D4042B32D0D7
:1083200092ED057AB8EEC77AB4EEE77AF1EE10FA7C
:1083300031DC052B18BF00237FF462AF013BDBB2B9
:108340005EE73E2A19D0072C10D10733DBB2037049
:10835000184A1278032A88D0022A7FF467AF67E7A9
:10836000062A7FF463AF69E7392AF1D90C33DBB20F
:10837000037055E7452AF9D8EAE7012C3FF456AFD8
:108380000A2CE0D152E70423D8E70346D6E70223BC
:10839000D4E70323D2E70523D0E700BF7B8C00207E
:1083A00098600020988C0020918C0020858C002003
:1083B000888D00200D61002040620020A062002016
:1083C000648C002044620020B88C0020A08C002027
:1083D0002DE9F04F4C4B4D4D1F784D4B4D481B78C0
:1083E0004D494E4A4E4CDFF850A1D5F800E00078D8
:1083F000D2F8009024789AF800804A4A4A4D85B015
:108400000293C7EBC703C3EBC303CB180393CDF8A9
:1084100000E001900023BE4605E0002145F823104E
:108420000133092B5DD052F8041FA142F5DD0098FD
:108430000028F2D13D4F039E17F80EC096F8266033
:10844000019F0120BE4200FA03F040EA090028BF64
:108450003E46BCF1420F4FEA500047D8DFF8DCB08F
:10846000C0B20BEB0C2B1CF0FB0F1BF800B043D180
:10847000DFF8CC80BCF1010F18F8008003D1DFF8E1
:10848000C4C01CF800802A48029F10F80E00ABEB15
:10849000070B18B970428345B8BF8346BBF1000F84
:1084A000BBD029FA03F0C007B7D4B345B5DC764298
:1084B0005E45B2DC091B07EE901A1E4901EB8300F2
:1084C000F8EEE77A90ED007A67EE877ACBF1000B51
:1084D000FDEEE77A17EE901A0BFB01F145F8231039
:1084E0009EE78AF8008005B0BDE8F08FDFF858C03D
:1084F000C0B21CF800B0C6E7BCF1010FBFD0BCF1A0
:108500000A0FBCD0BFE700BF7B8C0020648E002028
:10851000446200203562002004600020648C00204A
:108520008D620020148E0020BC610020406200207B
:10853000546200203C8E0020A88E00207C5505004F
:10854000380505007C540500E068002070B52A4C11
:108550002378CBB963786BBBA37803B970BD274E82
:108560001BF0BAFCB368C01AC728F7D9244D1BF01A
:10857000B3FCAB78B06002268BBB012103201FF057
:1085800079FA0123AB7070BD1C4E1BF0A5FC33685B
:10859000C01AC728DED91A4D1BF09EFC2B7830601C
:1085A00043BB012108201FF065FA01232B7063787B
:1085B000002BD1D0114E1BF08FFC7368C01AC72856
:1085C000CAD90F4D1BF088FC6B78706033B901215C
:1085D0000A201FF04FFA01236B70BDE70126094BFB
:1085E0000021985D1FF046FAA35D0022013BA355D0
:1085F000AA5570BD0026F2E7208C0020BC8A00201E
:10860000C86700207C6D05002DE9F8432C4D2D4FE7
:108610002D4C2E4EDFF8CC902DED068B9FED2C9A35
:10862000DFED2CAADFED2C8A9FED2CAADFED2C9A32
:1086300005F1030815F8011B012381B3D4ED007A7D
:10864000337037EEA87AF4EEC97AF1EE10FAB0EE94
:10865000470A2EDC84ED007A19F0BAFDB7EE008AE5
:1086600030EE088A28EE0A8AFCEEC87A28EE298ABB
:1086700017EE901A38781EF093FFD4ED007A37EE9B
:10868000888A84ED008AA84507F1010704F10404F3
:1086900006F10106CED1BDEC068BBDE8F883337838
:1086A000002BF0D0387831701EF07AFFC4F80090BB
:1086B000E9E7B0EE6A8AC4F800900021DAE700BF6B
:1086C000FC8C00207C6D050000610020C88A002021
:1086D0000AD72F410AD7232F0AD7A33B00C0FF4355
:1086E0000A00A436B4C8964000F0F000A0282DE996
:1086F000F04701F00F0402F07F0603F07F0500F061
:10870000088133D9B02845D0E02877D19D4F3B78F8
:1087100006EBC515A5F50055012B2DB270D19A4B6E
:108720001B8805F50051013CE4B2C1F3C71605F002
:108730007F05002B6CD00F2C60D864F01F045FFA0B
:1087400084F8924C636D1868036841461B6998472A
:10875000636D1868036829461B699847636D18683C
:10876000036831461B69BDE8F0471847802800F0D0
:10877000B280902842D1834F3B78012B6FD1824B3E
:108780001B88013CE4B2002B6BD00F2C36D864F070
:108790006F0489E07B4F3B78012B04D17A4B1B8817
:1087A000002B40F0D580631EDBB20F2B26D8DFF8FC
:1087B000E4A1DAF854201068026843F0B0091268A6
:1087C000494663F04F089047DAF854301868036858
:1087D00031461B689847DAF8543018680368294610
:1087E0001B6898473B78002B60D1694B1B78022BA4
:1087F00040F0B780072C01D1652E57D8BDE8F0872F
:1088000005F50051013CE4B2C1F3C71605F07F0540
:108810000F2CF3D8DFF87C91D9F85430186803682E
:1088200044F0E0081B6841469847D9F8543018686E
:10883000036829461B689847D9F8543018680368BC
:1088400031461B6898473B7864F01F04002B7FF487
:1088500078AF4F4B1B78022B7FF471AFCEE7013C12
:10886000E4B20F2CCAD8DFF82C81D8F8543018683D
:10887000036844F090091B68494664F06F04984708
:10888000D8F854301868036831461B689847D8F800
:1088900054301868036829461B6898473B782BB901
:1088A0003B4B1B78022BA9D05FFA84F9374C636DE0
:1088B0001868036849461B699847636D1868036820
:1088C00031461B699847636D1868036829461B6920
:1088D000BDE8F04718472B4F3B78012B47D12A4B77
:1088E0001B88013CE4B273B90F2C87D8DFF8A48051
:1088F000D8F854301868036844F080091B6849466A
:1089000064F07F04BBE70F2C3FF678AF64F07F0480
:10891000CAE71C4F3B78012B26D11B4B1B88013C1F
:10892000E4B27BB90F2C3FF669AFDFF86880D8F866
:1089300054301868036844F0A0091B68494664F085
:108940005F049CE70F2C3FF659AF64F05F04ABE780
:10895000072C0FD0013CE3B20F2B3FF64FAF63F073
:108960004F085FFA88F9A1E7013CE4B2DAE7013C7D
:10897000E4B2B9E7652E02D86FF04908F1E70623A3
:1089800015E700BFF86000202A8C0020B4660020A4
:10899000DC680020CC6700202C4A2D4938B5D2E98C
:1089A0000035D2E902042B440344D2E904052344F0
:1089B0000344D2E906402B44126A09782344034455
:1089C000134429B1234A24481278825C032A24D014
:1089D000224A234812680068224DC3F500531A4406
:1089E000121817D4B2F5804FA8BF43F6FF722A6061
:1089F0001D4C2368934200D001B938BD1B49C2F316
:108A0000C713097802F07F02E020FFF76DFE2B68A4
:108A1000236038BD00222A60EAE7154C154A164843
:108A200094F90050127804781448521B121B07EE78
:108A3000902A90ED007AF8EEE77A67EE877AFDEEFD
:108A4000E77A17EE902A1344C2E700BFBC6100200A
:108A5000978C00207B8C0020546200203C8C0020EE
:108A6000848D002050620020FC60002034620020D1
:108A7000888D0020908C00204462002058620020E5
:108A80007F499FED806AD1ED007A7F4ADFED7F6AF2
:108A9000F8B57F4B7F4D93ED007A7F4C67EE867A79
:108AA0002DED048BE7EE267A2B7892ED008AC1ED4E
:108AB000007A37EE088AB6EE009A38EE678A04EB41
:108AC000431368EE098ADE7EC2ED008A1BF004FAC9
:108AD0002B787249F0EEE87AB3EE047A04EB431295
:108AE000F4EEC77AF1EE10FA127ECCBF0125002514
:108AF0000D70002A45D06A496A4D0F7800225B014B
:108B00002A60AFB3684A1268821A0B2A39D9674AB9
:108B100092F800C0BCF1000F08D1B6EE007AF4EE76
:108B2000C77AF1EE10FA6CDD01271770DFF8A4C1E7
:108B30009CF800705FB39FED5E7A5E4FF4EEC77AEB
:108B4000F1EE10FAC8BF38603F68C01BB0F5C87FAF
:108B500022D900238CF800300B701370564B1B7811
:108B6000022B0ED1BDEC048BBDE8F840FFF714BF1B
:108B7000F4EEC97AF1EE10FA4B4A05DD01231060DC
:108B80000B70BDEC048BF8BD1268821ABDE7494931
:108B9000012208608CF80020DFED487AB4EEE78A05
:108BA000F1EE10FA1FDAFFEE008A2344DB7FBBB13F
:108BB000032B48D0022B3ED0414BDFED426AD3ED70
:108BC000007A07EE106A67EEA67AB8EEC77A67EE0B
:108BD000877A67EEA88AFDEEE88AC5ED008ABDE7D0
:108BE000F1EE688AE8E7DFED387AB4EEE78AF1EE75
:108BF00010FA96BFDFED357AF7EE008A68EEA78AA5
:108C0000D3E7DFF8D0C09CF800E0BEF1000F92D1AE
:108C10009FED277AF4EEC77AF1EE10FA08DC002F08
:108C20009CD0244B1B68C01AB0F5C87F91D895E73B
:108C3000204B1860F3E7F5EEC08AF1EE10FA15D973
:108C4000DFED238AB8E7F5EEC08ADFED217AF1EE99
:108C500010FA88BFF0EE678AFFEE007AF4EEE78A3A
:108C6000F1EE10FAB8BFF0EE678AA5E7FFEE007AE2
:108C7000F4EEE78AF1EE10FAB2DAF7EE008A9BE73B
:108C8000988A00206666663F9C8A0020CDCCCC3D49
:108C9000EC8A00207B8C002098600020808D0020D2
:108CA000968A0020848D0020A08A0020948A0020CB
:108CB0003333B33EA48A0020A48C00202506F0C1E3
:108CC000586200200AD7233D2506F0410A85883DD9
:108CD00000000000958A0020F0B43E4A3E4B147814
:108CE00004EB440204EB820213449B7A13B33B4B24
:108CF0001B78012B1ED03A4E3A4BC4EBC402C2EB98
:108D0000C202324493F800C092F8245092F8252011
:108D10000927511B642301EBC10117FB0535BCF189
:108D2000030F05EB61014FEAC40010D117FB0235B8
:108D300029440CE02B4B2C4A1B781568032B25D0BB
:108D40002A4B274E1968491B05EB6101E000284BAF
:108D50001B68001BC0EBC0008B42304420D242781D
:108D6000CB1A02FB03F202EB82029300491BB3FB16
:108D7000F1F3DBB203FB03F3DB105B421D4A13602C
:108D80001D4B1B78022B1ED0F0BC70471B4B144EA2
:108D90001A68511B05EB61011546E0002944D6E72E
:108DA000591A437803EB830202EB820203FB01F3BF
:108DB000B3EBC20F4FEAC201E0DD0E4B19600E4B60
:108DC0001B78022BE0D10E4B0022F0BC1A60FFF79B
:108DD000E3BD00BF7B8C0020A06200200D6100205D
:108DE00004600020858C0020946200206C8E00209E
:108DF000208D00203C8C0020A48C0020708E002050
:108E0000506200202DE9F04FB64883B024220021A3
:108E100024F02EFBB44B1B7853B1032B08D0B14B7D
:108E2000986858B9DA68002A44D00125032207E07F
:108E3000FFF7CEFAAB4B98680028F3D0002502224A
:108E4000AA49AB4C0978615C8C1E012C3FD9A94C16
:108E50002478012C31D0022C27D111F0FB0F40F0E7
:108E60008680A549A54809788468A54EA142366840
:108E700002DA770740F12381022A00F09F80002464
:108E80009C60C0688142C0F29D80032A01D000220C
:108E9000DA60012D09D9D3E902209A490968024410
:108EA0008A4202DD0022C3E9021203B0BDE8F04F9E
:108EB000FFF772BD6FF00105C2E700284ED0DA68F7
:108EC000002AF2D18F499A600A68DA60EDE78D488E
:108ED000DFF824920768DFF82882DFF83CE2DFF849
:108EE0003CC2DFF83CA299F800B0D8F800009EF828
:108EF0000040DCF800609AF800A00197022AC7F150
:108F000000097AD0470722D500279F60032A71D035
:108F100007076CD4002C40F0B880B24574D0002410
:108F2000D3E902210A440199C8F800005242914253
:108F30008EF80040CCF80060B7DA012D60D900222D
:108F4000C3E9029203B0BDE8F04FFFF725BD002C46
:108F500040F0A480B24577D00024D7E7694AD860B2
:108F600012689A6003B0BDE8F04FFFF715BD012904
:108F700001D00A2999D162490868C50500F1D98054
:108F8000040700F1D3805D4A5B49D26809788A42C0
:108F900040F3E9805B4C5C48D4ED007AD0ED036A85
:108FA000521A07EE102AF8EEE77AB8EEC77AE7EE23
:108FB000667AFDEEE77AC3ED037A76E7C068814210
:108FC000BFF665AF36073FF560AF032A3FF461AFE8
:108FD000411A4D4A07EE901A92ED037AF8EEE77ABD
:108FE00067EE877AFDEEE77AC3ED037A51E7002258
:108FF000DA6095E7C20593D48AE7C70582D587E78B
:10900000C2053FF552AF9AE73C4AD2685A4552DD55
:109010003E49DFED3F6AD1ED037A3B4907EE102A66
:10902000F8EE677AB8EEC77A77EEE67AD1ED036AA2
:1090300077EEC77A002467EEA67AFDEEE77A17EEA0
:10904000902A5242DA606BE72C4CA468A34527466D
:109050002DDA2E4CDFED2E6AD4ED027A2A4C07EE83
:10906000107AF8EE677AB8EEC77A77EEE67AD4ED42
:10907000026A77EEC77A002467EEA67AFDEEE77AF9
:1090800017EE907A7F429F6040E7224A40F0080046
:10909000C0F3470402EB01210E5D3EE71D4C40F09A
:1090A0000400C0F3470604EB0124A65D52E7C3F8B1
:1090B000089000242AE7C3F80C90002430E7022A25
:1090C0003FF47CAF641A104F07EE904A97ED027A96
:1090D000F8EEE77A67EE877AFDEEE77AC3ED027A7B
:1090E000CFE600BFBC610020A48C00207B8C002058
:1090F00040620020A88E00208D620020188E002083
:10910000648C0020F48A0020AC8E0020C86200200D
:10911000000048427C550500B0610020B48A002060
:109120004462002002DB02077FF5BFAE0022DA6056
:10913000BBE60F490F4CC9682478A142F2DD000755
:10914000F4D4032A3FF4B1AE091B0B4A07EE901A80
:1091500092ED037AF8EEE77A67EE877AFDEEE77A2A
:10916000C3ED037AA1E6054A1268DA609DE600BF06
:10917000188E00208D620020AC8E0020F48A002022
:109180002DE9F04F3C4C3D4883B02422002124F0CF
:109190006FF92678002E6AD0032E68D0384BDFF89E
:1091A000F8E01B683748384C384901930023DEF853
:1091B000002000682478D1F80080354DDFF8BCC06D
:1091C000DFF8D8909A46012712E055F82310A14203
:1091D0000BDA20FA03F107FA03FBC90722EA0B02B4
:1091E00003D522FA03F1C9070AD50133092B2DD083
:1091F00022FA03F1C907E8D420FA03F1C907F4D52C
:10920000012E03D05CF823100029EED155F823106D
:109210008C4222DA28FA03FB1BF0010F23D1091B31
:1092200007EE901A1B4903F8097001EB830191EDD9
:10923000007AF8EEE77A67EE877AFDEEE77A17EEC6
:10924000901A4CF823100133092BD1D1CEF800200D
:1092500003B0BDE8F04FFFF79FBB28FA03F1C90741
:1092600003F809A0C1D501994CF82310BDE7FFF719
:10927000AFF8267892E700BFA48C0020BC610020E4
:10928000F48A0020046300208D620020648C00209A
:10929000188E0020AC8E0020688C0020A88C002046
:1092A0002DE9F843294D2A4B2A7802EB42010B4461
:1092B0001B5CDBB100EB80094FF03208254F08FB47
:1092C00002930446FE5C012E07EB030110D0052E2D
:1092D00027D0062E1DD1204991F90030033305DB3C
:1092E0001E48835C013B5BB283540B70BDE8F8837E
:1092F0004B78002BFAD10B79CA7889789020FFF748
:10930000F3F92A78164B08FB02981E5517F80860E7
:10931000DDE70A2E11D1134A137801331370BDE82B
:10932000F8830D4991F90030022BDFDC0B48835C98
:1093300001335BB283540B70D8E70B2ED6D1094AA8
:109340001378013B1370BDE8F88300BF7B8C0020CD
:109350007C8C002014610020988C00209C8C0020C4
:10936000888C0020918C0020114B12481B78124AE7
:10937000C3EBC303C3EBC30318440121837A117009
:109380008B4203D0022B0DD033B17047437B027B5D
:10939000C17A8020FFF7A8B9437B027BC17A902075
:1093A000FFF7A2B9427B017BC07AFCF7F3BF00BF95
:1093B0007B8C0020046000203A8C0020114B124866
:1093C0001B78124AC3EBC303C3EBC3031844002149
:1093D000837B1170012B03D0022B0DD033B170476A
:1093E000437C027CC17B8020FFF77EB9437C027CFA
:1093F000C17B9020FFF778B9427C017CC07BFCF7F1
:10940000C9BF00BF7B8C0020046000203A8C002084
:10941000A94B2DE9F0471B8843F480735A1C1A426C
:1094200082B06DD000210A4613F0010F08BF11462B
:109430005B1002F10102F7D101F13E04E4B2462CC7
:1094400028BF46243C3C9D4D9D4A2B78C3EBC3036B
:10945000C3EBC30313449A7C032A3ED0DFF8B082E7
:10946000D8F80030974A9849984F91F800C0D2F840
:1094700000905168D7F800E09548964E04FB0C1414
:109480005FFA8EF299450460327017DB924B01212E
:10949000002031700A4618702B789048396003EB31
:1094A000430103EB810303445B7923B18C4C2378A4
:1094B000012B27D0227002B0BDE8F08709F101012D
:1094C000994208DA8749BEF1010F097804BF0222E8
:1094D000327001292DD01146DEE7834A1278CAB9CD
:1094E000197DDA7CDFF8288242EAC112D8F8003010
:1094F00005329A42B6DAFFF737FFD8F80030B1E705
:109500000A24A0E7012AD5D01AF0E6FC774B32787E
:109510001860CFE7DFF8F881197DDA7CD8F80030E1
:1095200042EAC1129A429DDDFFF748FFD8F80030A9
:1095300098E76F49087800283DD0A4EB090100FBAB
:1095400001F1DFF8D0C101EB41008CFB00A98CFBDD
:1095500001ACC017C917A0EBE910C1EBEC11214415
:109560000444DFF8B4C16348CCF8001099420460A9
:1095700013DB9C4221DB0222BEF1010F327028D0A6
:10958000BEF1030FA7D11AF0A7FC5B4B1B68C01AF2
:10959000142852D8327811467EE74F4B002103221F
:1095A000BEF1010F1970327095D0BEF1030F92D148
:1095B0007246114670E72146D3E7BEF1010F06D08F
:1095C000BEF1030F87D1022ADDD0114664E7022ADB
:1095D00081D1414C01931AF07FFC94F800C0019BAB
:1095E000BCF1000F15D1454A4549D2F800E00860AA
:1095F000444A4549C2F800C00120C1F800C02070AB
:10960000BEF1000F37D1022100230A4623703270C9
:1096100042E73B49394A09681268401A9042F2D23F
:10962000384A116831B3384A116813605B1A002B4D
:10963000E9DD3A78327011462EE7274CD8F80080E1
:109640001AF04AFC2378D3B9304A2D49D2F800C029
:1096500008602C4A2C49136001200B602070BCF17B
:10966000000F22D00123C1F8008013603A783270D5
:10967000114611E724490B6001201060D9E7204A08
:10968000224B12681B68801A98420ED21D4A13683A
:109690007BB11D4B1A68C3F80080A8EB0208B8F52F
:1096A000FA6FE3D0B8F1000FE0DB00232370022251
:1096B000DDE71549D6E700BF648C00207B8C0020D5
:1096C000046000209462002043620020308C00205F
:1096D000EC620020858C0020608C0020A0620020BD
:1096E0008C6200200D6100203A8C0020A48E0020A6
:1096F000B8610020708E0020408C00202462002081
:10970000A88A0020008D0020F48C0020AC6100208D
:10971000208D00201F85EB516C8E00202DE9F84F25
:109720001AF0DAFB984E994A336811689942044658
:1097300000F09E80DFF8A882954F964D98F80010B3
:109740001360012238602A70002940D1924B1960C1
:10975000924B93491B78934ACC5C3368012111707A
:10976000422C4FF0000223FA01F32A7040F2D0801D
:109770008D4ADBB2D25C8D4C8D4D226000210120E0
:10978000FEF7BAFC2368013314D023682A789A4282
:1097900010D0884B1B78022B0CD0874B32681A6094
:1097A00086482422002123F063FE854B0022C3E972
:1097B00000221A7223682B704FF0FF332360FFF7EB
:1097C00027FE1AF089FB7F4B1860BDE8F88F994699
:1097D0001AF082FB7C4B7D4A1B781068316883420B
:1097E00003DAC80758BF49F001095068834203DA19
:1097F000880758BF49F002099068834203DA480796
:1098000058BF49F00409D068834203DA080758BFFB
:1098100049F008091069834203DAC80658BF49F0C5
:1098200010095069834203DA880658BF49F02009BD
:109830009069834203DA480658BF49F04009D0696D
:10984000834203DA080658BF49F08009126A93423E
:1098500003DACB0558BF49F48079494519D14E4BFD
:109860002A7800211960002A7FF472AFBDE8F88FD2
:10987000DFF82491464FD9F800303868241A002BBD
:1098800061D09C4257D3434D00232A78C9F8003059
:10989000E9E7424B424A1B78D25C422A4FEA510127
:1098A00054D84B4BC9B203EB022012F0FB0F10F857
:1098B00001C04FEA022A22F0040E57D1DFF818B196
:1098C00044481BF801B080F800B0012A04D1DFF849
:1098D0000CB11BF801100170C9F34709534413F888
:1098E0000930BEF1000F3AD13B493A4811F809104E
:1098F0000170012A03D1394A12F809200270634528
:10990000ADD0DFF8949098F80030C9F80030B4E793
:109910002F4ADBB202EB042214F0FB0FD25C2CD1F5
:109920002D492C48C95C0170012C7FF424AF2B49D0
:10993000CB5C03701FE7FEF73BFB0028A3D0D9F8F0
:1099400000309C4292D3134D2A788CE7164BC9B253
:10995000C9F3470913F801C013F80930CFE7012A0A
:1099600001D11C48C7E70A2AFBD0C8E7012A01D168
:109970001848ACE70A2AFBD0AEE7012C01D1154804
:10998000D5E70A2CFBD0F6E6648C00208462002028
:10999000AC8A0020B08A0020648E00207B8C0020DE
:1099A00040620020B0610020E0680020E88D0020C7
:1099B00044620020A48C0020688C0020BC61002040
:1099C000A88C0020408C00208D620020188E002082
:1099D0007C550500A88E0020380505007C54050044
:1099E000608E002000F0F000C0282DE9F04101F069
:1099F0000F0102F07F0510D0D02830D12E4E3378E1
:109A0000012B48D12D4B1B880139002B44D0CBB200
:109A10000F2B24D863F02F042DE0274E3378012B31
:109A20001FD00139CBB20F2B19D8DFF89C80D8F8A2
:109A300054201068026843F0C0071268394663F08A
:109A40003F049047D8F854301868036829461B68CB
:109A50009847337883B91A4B1B78022B0BD1BDE89A
:109A6000F081164B1B880139002BDBD0CBB20F2BBA
:109A7000F5D863F03F04E7B2124C636D18680368D1
:109A800039461B699847636D1868036829461B6946
:109A9000BDE8F04118470139CBB20F2BDFD8DFF812
:109AA0002880D8F854201068026843F0D007126864
:109AB000394663F02F04C4E7F86000202A8C0020A8
:109AC000DC680020B4660020CC6700202DE9F0415E
:109AD000354D36492B78C3EBC302C2EBC2020A44B0
:109AE00004469278012A45D003EB4302304E03EB43
:109AF000820333449B79DA070BD52E4A1778FFB1DE
:109B00002D4ADFF8CC80D76AD8F80020BA4221D19C
:109B100004BB9B0712D5274B1B787BB1264B274EE6
:109B2000DD6B3368AB4200D144B1254B254A19782F
:109B30001278EBB2A020FEF7D7FD3560BDE8F081CA
:109B4000214A1268642ADBDCDFF88480D8F8002020
:109B5000BA42DDD01A4BFAB21978D020FFF742FF93
:109B60002B78C8F8007003EB430203EB82031E441A
:109B7000B379CEE7DFF84080144ED8F80C20376870
:109B8000BA424FEAC30001D1002CADD0C31AC3EBD7
:109B9000C3030B44D2B259791879FCF7FBFBD8F810
:109BA0000C202B7832609FE77B8C00200460002023
:109BB000A0620020978C0020E4610020EC8C002043
:109BC00034620020908C0020208D0020E08C00204A
:109BD000E48C0020000000002DE9F04FA44DA54CBE
:109BE0002B78A54E03EB430203EB8202224431782B
:109BF0009279002A85B014BF4FF003084FF0100887
:109C00005A0089B19D48C05C032800F01A819C4825
:109C1000DFF8A4C29B4F00789CF900C03F78A0EB0E
:109C20000C00874200F02281974F3878012802EB20
:109C3000030003EB80002044407809D9002850D06D
:109C40009248007800284CD131B905B0BDE8F08FBA
:109C50000028F5D10029F8D02B785A001A4403EBDC
:109C60008202397814440129627800F0CA80002AFF
:109C700040F0CA80864AD35C032B00F0CF80854B2E
:109C80001B78032BE1D0844B1B78002BDDD0834B5A
:109C90001A6840F2FF139A42D7D1814B784A19785B
:109CA000127840238020FEF71FFD2B787D4A02EBBF
:109CB0004312D27D012A00F076817B4AC3EBC303B5
:109CC000C3EBC303134400229B7C3270022BBCD134
:109CD000764B1B78002BB8D005B0BDE8F04FFFF7EE
:109CE0006DBB1A4403EB820222445279002A40F0F1
:109CF0009B80674AD25C032A00F03481654A12785F
:109D0000032A08D0644A12782AB1644A106840F2E3
:109D1000FF12904298D0DFF868A19AF800B00029AD
:109D200000F0D88003EB430203EB8202224492F856
:109D300009C0BCF1000F00F042810122DFF8688108
:109D400003925B4A127822B15A4A1288002A40F0E4
:109D50000781C3EBC302C2EBC20242449278012ADC
:109D600000F0FA8003EB430103EB810121445A0028
:109D70008879002840F0F0804979012900F0EC80D2
:109D8000DFF800914C4999F8000091F800C01A449E
:109D900003EB82022244844492F808E08AF800C06F
:109DA0004FF0010C86F800C0BEF1000F40F0BC80FF
:109DB000002840F0ED80039B002B40F0E1801AF07A
:109DC0008BF8DFF804A1CAF800001AF085F82B78A8
:109DD0003A4ADAF800C0C2F800C0C3EBC303C3EBD1
:109DE000C3039844DFF8E4C098F81230344A99F875
:109DF0000010CCF80000022B117000F0B98031780F
:109E000022E7002A3FF449AF204A1278002A3FF4A3
:109E100044AF1F4AD35C032B7FF431AF194B1B783F
:109E20003F2B7FF42CAF38E700297FF462AF1AF0A4
:109E300053F8244B1B68C01A4045E0D32B78317887
:109E400057E7DFF874C00E4F0E489CF900E03F78EA
:109E50000078DFF87CC0A7EB0E07C01B00289CF839
:109E60000070B8BF404287427FF7DEAE064FF5E68E
:109E70007B8C0020A0620020978C00205462002080
:109E8000908C002044620020858C0020D08C002023
:109E9000406200200D6100200C610020648C0020D5
:109EA0003462002098600020046000203A8C00207A
:109EB000F86000202A8C0020888D0020D48C00209F
:109EC000E88C0020A48E0020B48C00208C8C002014
:109ED00035620020DFF88483C3EBC302C2EBC20209
:109EE00042449278002A40F0178103EB430103EBD0
:109EF000810121445A004979002940F0D7801A4451
:109F000003EB820222449279D10700F196809207F6
:109F100062D4DFF84C9309EB4312D27D012A00F0A2
:109F20002A81002203920CE7C3EBC303C3EBC303F4
:109F300018F8033023B1537813B9FEF7CDFEB949B1
:109F4000B94B1B78002B34D1B84B1B78022B40F057
:109F50004A8199F800002BE70120FFF7B7FD2B7825
:109F60005A000DE7B24A12783F2A7FF4C7AE6BE67B
:109F7000B04B1B78002B7FF442AFFFF7F5F93EE7BB
:109F8000AD4B5A46197880204023FEF7ADFB16E70B
:109F90000A78AA4BA8491B7809780244D2B29020CB
:109FA000FEF7A2FB07E719F097FFA54A2B78106090
:109FB00083E6FEF727FF99F800009A49F8E69E4BE2
:109FC000CDF80CC01978DFF8948240235A468020DF
:109FD000FEF78AFB2B78B4E69A4A9B4B10681B6805
:109FE000DFF88092A0EB8300D9F83030D9F8342024
:109FF00020EAE070B0EB830F4FEA830180F0DA8053
:10A00000084692004FF480630093002319F052FF3A
:10A010008E4BDB78012B024600F0F780022B00F01C
:10A0200061818B482B788179C079401A02FB00F25C
:10A0300001EBA222C9F83C206BE7824A824B1068F0
:10A040001B68DFF82092A0EB8300D9F82030D9F804
:10A05000242020EAE070B0EB830F4FEA830180F008
:10A06000AE80084692004FF480630093002319F0FD
:10A0700021FF764B9B78012B024600F0CC80022B0F
:10A0800000F04F8172492B78087991F805C003EBF5
:10A090004301ACEB000C03EB810102FB0CF2214409
:10A0A00000EBA220C9F82C008A7930E7654A664B9C
:10A0B00010681B68DFF8AC91A0EB8300D9F8103072
:10A0C000D9F8142020EAE070B0EB830F4FEA830147
:10A0D0007FD2084692004FF480630093002319F06A
:10A0E000E9FE5A4B5A78012A034600F08880022A7A
:10A0F00000F0D980564851498278C078801A03FB15
:10A1000000F302EBA323DAB2C9F81C300A702B78F3
:10A11000002A59D05A00F2E64A4A4B4B10681B6895
:10A12000DFF84091A0EB8300D9F80030D9F8042083
:10A1300020EAE070B0EB830F4FEA83014ED208466D
:10A1400092004FF480630093002319F0B3FE3F4B5D
:10A150001B78012B02464CD0022B00F085803C4836
:10A160002B7801784078401A02FB00F201EBA22222
:10A17000C9F80C20B9E619F0AFFE2B78304A09EB8C
:10A180004319D2F800C099F81920C2EB4211A0EB94
:10A190000C0002EB8102B0EB420F7FF6C2AE2D49FC
:10A1A0002D4AD1ED007AF1EE677AC2ED007A0022F5
:10A1B0000392C6E59200904228BF104622E7920023
:10A1C000904228BF10464EE7012003FA00F20870C3
:10A1D00095E69200904228BF10467CE7920090429C
:10A1E00028BF1046ADE7FEF7CBFF99F800000D49F8
:10A1F000DEE500FB00F302FB03F21215AFE700FB04
:10A2000000F203FB02F31B1574E700FB00F302FBF3
:10A2100003F2121505E700FB00F302FB03F212152F
:10A2200030E700BF888D0020388C0020A48C0020EF
:10A23000446200203A8C002034620020F362002047
:10A24000308B00208C8D002094620020348C002004
:10A25000486200202C8C0020D88E00200460002052
:10A2600098600020E461002000283FF478AF22F0DD
:10A27000F5FA41EC100B17F0F5FF39A3D3E90023F1
:10A2800051EC100B22F054FB22F04AFE07EE900A2C
:10A290009FED357A67EEA77A67EE877AFDEEE77A6B
:10A2A00017EE902A5BE700283FF424AF22F0D6FA9D
:10A2B00041EC100B17F0D6FF29A3D3E9002351EC92
:10A2C000100B22F035FB22F02BFE07EE900A9FEDDB
:10A2D000267A67EEA77A67EE877AFDEEE77A17EEC1
:10A2E000903A07E700283FF49CAE22F0B7FA41EC21
:10A2F000100B17F0B7FF1AA3D3E9002351EC100B92
:10A3000022F016FB22F00CFE07EE900A9FED167A63
:10A3100067EEA77A67EE877AFDEEE77A17EE902A66
:10A320007FE600283FF4AEAE22F098FA41EC100B25
:10A3300017F098FF0AA3D3E9002351EC100B22F089
:10A34000F7FA22F0EDFD07EE900A9FED077A67EE2F
:10A35000A77A67EE877AFDEEE77A17EE902A91E604
:10A36000FE822B654715F73F0AD723410000000006
:10A370002DE9F041C64CC74D22682B689B1A002B73
:10A38000B8BF5B42012B82B024DDC34FC3483B788A
:10A39000C3EBC301C1EBC10101448978002968D135
:10A3A000BF4E03EB430203EB820232445900527961
:10A3B000002A40F08D80194403EB810333449B79DC
:10A3C000D80700F1BB80990724D40020FFF77EFB5B
:10A3D00023682B60B34B1A68D20708D4B249B34A3A
:10A3E0000968116001221A6002B0BDE8F081AF4C2B
:10A3F000AD4D23682A689B1A002BB8BF5B42022B25
:10A40000F2DD01210020FDF777FE2B68236002B00A
:10A41000BDE8F081A64BDFF8A8821B682068D8F859
:10A420003420A0EB8300D8F8303020EAE070B0EBA5
:10A43000830F4FEA830180F0C780084692004FF4F3
:10A4400080630093002319F035FD9A4BDA78012AD6
:10A45000034600F0C380022A00F0D88096498A792A
:10A46000C879801A03FB00F302EBA323C8F83C3041
:10A47000ABE78F4BDFF848821868D8F80030A2EBC2
:10A48000800020EAE070B0EB830FD8F804204FEA98
:10A49000830180F09E80084692004FF48063009311
:10A4A000002319F007FD834B1B78012B024600F0B7
:10A4B0009B80022B00F027817F483B780178407811
:10A4C000401A02FB00F201EBA222C8F80C2067E759
:10A4D000774BDFF8EC811B682068D8F81420A0EBDC
:10A4E0008300D8F8103020EAE070B0EB830F4FEA19
:10A4F000830164D2084692004FF4806300930023E6
:10A5000019F0D8FC6B4B5A78012A034678D0022AFE
:10A5100000F0DA806849DFF8ACC18A78C878801A20
:10A5200003FB00F302EBA323DAB2C8F81C308CF86B
:10A5300000203B78002A37D059003CE75C4BDFF81D
:10A5400080811B682068D8F82420A0EB8300D8F80D
:10A55000203020EAE070B0EB830F4FEA830129D26C
:10A56000084692004FF480630093002319F0A2FC88
:10A57000504B9A78012A03463CD0022A65D03A789B
:10A580004D4802EB42070179407902EB8702401AFD
:10A59000164403FB00F301EBA321B379C8F82C1098
:10A5A00099077FF512AF35E7012203FA02F18CF823
:10A5B000002000E79200904228BF1046D2E79200A8
:10A5C000904228BF104697E79200904228BF10465D
:10A5D00035E79200904228BF10465EE700FB00F08E
:10A5E00003FB00F31B1539E700FB00F002FB00F250
:10A5F000121561E700FB00F003FB00F31B15BEE73B
:10A6000000FB00F003FB00F31B1583E700283FF479
:10A6100025AF22F023F941EC100B17F023FE1AA30B
:10A62000D3E9002351EC100B22F082F922F078FCE0
:10A6300007EE900A9FED217A67EEA77A67EE877A98
:10A64000FDEEE77A17EE903A08E7002897D022F05F
:10A6500005F941EC100B17F005FE0BA3D3E900231D
:10A6600051EC100B22F064F922F05AFC07EE900A2C
:10A670009FED127A67EEA77A67EE877AFDEEE77AAA
:10A6800017EE903A7BE700BFFE822B654715F73F38
:10A690008C8D0020F08C00207B8C0020046000203A
:10A6A000A0620020F0690020208D0020B88A0020E0
:10A6B00094620020348C0020486200200AD7234195
:10A6C000E4610020F362002000283FF423AF22F071
:10A6D000C5F841EC100B17F0C5FD1BA3D3E900230F
:10A6E00051EC100B22F024F922F01AFC07EE900A2C
:10A6F0009FED177A67EEA77A67EE877AFDEEE77A25
:10A7000017EE903A06E700283FF4D6AE22F0A6F8FE
:10A7100041EC100B17F0A6FD0BA3D3E9002351EC7D
:10A72000100B22F005F922F0FBFB07EE900A9FEDDB
:10A73000087A67EEA77A67EE877AFDEEE77A17EE7A
:10A74000902AB9E6AFF30080FE822B654715F73FEC
:10A750000AD72341036810B504460BB174309847FB
:10A7600094F87530803B7F2B43D8DFE803F04942F3
:10A7700042424242424242424242424242425542A6
:10A780004242424242424242424242424242594292
:10A7900042424242424242424242424242425D427E
:10A7A000424242424242424242424242424261426A
:10A7B00042424242424242424242424242426B4250
:10A7C00042424242424242424242424242426F423C
:10A7D00042424242424242424242424242428390CA
:10A7E00098A842424342ACB0B4B8BC42C040236DCA
:10A7F0001BB910BD636B002BFBD0BDE810401847A0
:10A80000A368002BF5D094F8772094F8761094F88C
:10A810007400BDE810401847E368002BF3D1E8E767
:10A820002369002BEFD1E4E76369002BEBD1E0E76C
:10A83000A369002BDDD094F8761094F87400BDE87D
:10A8400010401847E369002BF5D1D2E7226A002AAD
:10A85000CFD094F8771094F8763094F87400C9014A
:10A8600001F47E5103F07F031943BDE81040A1F5C8
:10A8700000511047636A002BBBD0B4F876108029D2
:10A8800004F1780028BF8021BDE810401847A36A72
:10A89000002BAED094F87600BDE810401847E26A6D
:10A8A000002AA6D094F8773094F87600DB0103F400
:10A8B0007E5300F07F00BDE8104018431047236B23
:10A8C000002BE7D195E7A36B002B96D191E7236C82
:10A8D000002B92D18DE7E36B002B8ED189E7636C5F
:10A8E000002B8AD185E7A36C002B86D181E7E36C2E
:10A8F000002B82D17DE700BFF8B5044680260025F5
:10A900000DE094F80D31626D23F0010384F80D31F0
:10A91000106803681B699847C3B2FD2B07D1636DAC
:10A9200018680368DB6898470028EAD1F8BD626EB2
:10A93000002A75D194F9591094F8592084F85B30A5
:10A94000002980F2848002F10C01C9B201297ED96C
:10A95000FD2A7CD0EF2A94BF02F0F001114601F0ED
:10A96000CF07802F01D0D0296DD1000606D4012158
:10A9700084F85C3084F85B201346616603F10C02B6
:10A98000D2B2012A67D9FD2B65D0EF2B94BF03F01B
:10A99000F0011946A1F180027F2A5CD8DFE802F0BD
:10A9A000CB5B5B5B5B5B5B5B5B5B5B5B5B5B5B5B87
:10A9B000CB5B5B5B5B5B5B5B5B5B5B5B5B5B5B5B77
:10A9C000CB5B5B5B5B5B5B5B5B5B5B5B5B5B5B5B67
:10A9D000CB5B5B5B5B5B5B5B5B5B5B5B5B5B5B5B57
:10A9E000E85B5B5B5B5B5B5B5B5B5B5B5B5B5B5B2A
:10A9F000E85B5B5B5B5B5B5B5B5B5B5B5B5B5B5B1A
:10AA0000CB5B5B5B5B5B5B5B5B5B5B5B5B5B5B5B26
:10AA1000ECE8CBE85B5BBEECBEBEBEBEBE5BBEBEC2
:10AA2000010627D494F85B10F0294BD0F72949D0C0
:10AA3000A11881F85B30236E591E8A4280F0A380F2
:10AA4000013262666BE701F0DF01C0298DD040B2B0
:10AA50000028C0F22E8194F90D01636840F00100D6
:10AA600084F80D0103B19847002084F85900C4E927
:10AA70001800F8BDA3F1F0010F29D3D801A050F8B8
:10AA800021F000BFE7AA020025AA020025AA0200C1
:10AA900025AA020025AA020025AA020025AA020072
:10AAA000E7AA0200CDAA0200CDAA0200CDAA0200A8
:10AAB000CDAA0200CDAA020025AA0200CDAA02005A
:10AAC000CDAA0200A11881F87830B4E70022012055
:10AAD000A4F8762084F8742084F87530C4F8FC005B
:10AAE00084F8F800F8BD94F87810F02901D0F7291F
:10AAF000B1D1A5184FF4704185F8783001320023A8
:10AB00000120A4F87620A4F8741084F85930C4E920
:10AB10001833C4F8FC2084F8F800F8BD00230120A5
:10AB200084F87430A4F87630C4E9183384F87510CA
:10AB300084F8F800F8BD032222660220626E824289
:10AB4000FFF47EAF03F00F03013394F85C2084F828
:10AB500074300023012084F8762084F87730C4E92B
:10AB6000183384F87510C4F8FC0084F8F800F8BDB8
:10AB7000022222660120E1E7266684F8595084F813
:10AB800078107F20DAE794F85B10F02952D0F7298B
:10AB900050D00A063BD501F10C02D2B2012A36D9B7
:10ABA000FD2934D0EF2994BF01F0F0020A46802A33
:10ABB00084F8752005D0902A03D0B02A01D0A02AAD
:10ABC0005ED101F00F0094F85C5084F876500130AB
:10ABD000032B84F8740050D00025002084F87750AF
:10ABE000B02A4FF00105C4E91800C4F8FC3084F81D
:10ABF000F8503ED0B02A36D9E02A3AD002F0EF021F
:10AC0000C02A36D0002384F859300120F8BD94F8CA
:10AC10005C0084F876000022032BA4F874202CD06A
:10AC20000121C4E9182284F87720C4F8FC3084F8A4
:10AC3000F810E7E7224B6367F0218022012394F8A4
:10AC4000F750C4F8FC2084F8F830204684F8F71058
:10AC5000FFF780FDF722022384F8795084F87820EA
:10AC600063660020F8BDA02A03D002F0EF02802A1C
:10AC7000C8D184F859100120F8BD94F85D50ACE7B4
:10AC8000D02A9ED0E02A9CD0C02A9AD094F85C505A
:10AC900084F876500020032B84F87400EDD0012551
:10ACA000C4E9180084F87700C4F8FC3084F8F85040
:10ACB000A0E703F10C02D2B2012A3FF666AECAE663
:10ACC00000F08000036810B504460BB1743098475B
:10ACD00094F87530803B7F2B43D8DFE803F049427E
:10ACE0004242424242424242424242424242554231
:10ACF000424242424242424242424242424259421D
:10AD000042424242424242424242424242425D4208
:10AD100042424242424242424242424242426142F4
:10AD200042424242424242424242424242426B42DA
:10AD300042424242424242424242424242426F42C6
:10AD40004242424242424242424242424242839054
:10AD500098A842424342ACB0B4B8BC42C040236D54
:10AD60001BB910BD636B002BFBD0BDE8104018472A
:10AD7000A368002BF5D094F8772094F8761094F817
:10AD80007400BDE810401847E368002BF3D1E8E7F2
:10AD90002369002BEFD1E4E76369002BEBD1E0E7F7
:10ADA000A369002BDDD094F8761094F87400BDE808
:10ADB00010401847E369002BF5D1D2E7226A002A38
:10ADC000CFD094F8771094F8763094F87400C901D5
:10ADD00001F47E5103F07F031943BDE81040A1F553
:10ADE00000511047636A002BBBD0B4F8761080295D
:10ADF00004F1780028BF8021BDE810401847A36AFD
:10AE0000002BAED094F87600BDE810401847E26AF7
:10AE1000002AA6D094F8773094F87600DB0103F48A
:10AE20007E5300F07F00BDE8104018431047236BAD
:10AE3000002BE7D195E7A36B002B96D191E7236C0C
:10AE4000002B92D18DE7E36B002B8ED189E7636CE9
:10AE5000002B8AD185E7A36C002B86D181E7E36CB8
:10AE6000002B82D17DE700BFF8B50446802600257F
:10AE70000DE094F80D31626D23F0010384F80D317B
:10AE800010680368DB689847C3B2FD2B07D1636D78
:10AE9000186803685B6998470028EAD1F8BD626EBC
:10AEA000002A75D194F9591094F8592084F85B3030
:10AEB000002980F2848002F10C01C9B201297ED9F7
:10AEC000FD2A7CD0EF2A94BF02F0F001114601F078
:10AED000CF07802F01D0D0296DD1000606D40121E3
:10AEE00084F85C3084F85B201346616603F10C0241
:10AEF000D2B2012A67D9FD2B65D0EF2B94BF03F0A6
:10AF0000F0011946A1F180027F2A5CD8DFE802F047
:10AF1000CB5B5B5B5B5B5B5B5B5B5B5B5B5B5B5B11
:10AF2000CB5B5B5B5B5B5B5B5B5B5B5B5B5B5B5B01
:10AF3000CB5B5B5B5B5B5B5B5B5B5B5B5B5B5B5BF1
:10AF4000CB5B5B5B5B5B5B5B5B5B5B5B5B5B5B5BE1
:10AF5000E85B5B5B5B5B5B5B5B5B5B5B5B5B5B5BB4
:10AF6000E85B5B5B5B5B5B5B5B5B5B5B5B5B5B5BA4
:10AF7000CB5B5B5B5B5B5B5B5B5B5B5B5B5B5B5BB1
:10AF8000ECE8CBE85B5BBEECBEBEBEBEBE5BBEBE4D
:10AF9000010627D494F85B10F0294BD0F72949D04B
:10AFA000A11881F85B30236E591E8A4280F0A3807D
:10AFB000013262666BE701F0DF01C0298DD040B23B
:10AFC0000028C0F22E8194F90D01636840F0010061
:10AFD00084F80D0103B19847002084F85900C4E9B2
:10AFE0001800F8BDA3F1F0010F29D3D801A050F843
:10AFF00021F000BF57B0020095AF020095AF0200EC
:10B0000095AF020095AF020095AF020095AF020028
:10B0100057B002003DB002003DB002003DB002005A
:10B020003DB002003DB0020095AF02003DB002000D
:10B030003DB00200A11881F87830B4E70022012069
:10B04000A4F8762084F8742084F87530C4F8FC00E5
:10B0500084F8F800F8BD94F87810F02901D0F729A9
:10B06000B1D1A5184FF4704185F878300132002332
:10B070000120A4F87620A4F8741084F85930C4E9AB
:10B080001833C4F8FC2084F8F800F8BD0023012030
:10B0900084F87430A4F87630C4E9183384F8751055
:10B0A00084F8F800F8BD032222660220626E824214
:10B0B000FFF47EAF03F00F03013394F85C2084F8B3
:10B0C00074300023012084F8762084F87730C4E9B6
:10B0D000183384F87510C4F8FC0084F8F800F8BD43
:10B0E000022222660120E1E7266684F8595084F89E
:10B0F00078107F20DAE794F85B10F02952D0F72916
:10B1000050D00A063BD501F10C02D2B2012A36D941
:10B11000FD2934D0EF2994BF01F0F0020A46802ABD
:10B1200084F8752005D0902A03D0B02A01D0A02A37
:10B130005ED101F00F0094F85C5084F87650013035
:10B14000032B84F8740050D00025002084F8775039
:10B15000B02A4FF00105C4E91800C4F8FC3084F8A7
:10B16000F8503ED0B02A36D9E02A3AD002F0EF02A9
:10B17000C02A36D0002384F859300120F8BD94F855
:10B180005C0084F876000022032BA4F874202CD0F5
:10B190000121C4E9182284F87720C4F8FC3084F82F
:10B1A000F810E7E7224B6367F0218022012394F82F
:10B1B000F750C4F8FC2084F8F830204684F8F710E3
:10B1C000FFF780FDF722022384F8795084F8782075
:10B1D00063660020F8BDA02A03D002F0EF02802AA7
:10B1E000C8D184F859100120F8BD94F85D50ACE73F
:10B1F000D02A9ED0E02A9CD0C02A9AD094F85C50E5
:10B2000084F876500020032B84F87400EDD00125DB
:10B21000C4E9180084F87700C4F8FC3084F8F850CA
:10B22000A0E703F10C02D2B2012A3FF666AECAE6ED
:10B2300000F0800090F87030DA0719D513F0FE0F97
:10B2400016D0F0B590F8755085F08002602A83B072
:10B2500004460ED890F874208A4245D0002943D085
:10B260005B08012B45D0032B00F09C8003B0F0BDA0
:10B270007047A5F1F0030F2BF8D801A252F823F084
:10B2800023B3020051B3020073B3020007B30200FC
:10B290006DB202006DB20200C1B202006DB20200D6
:10B2A000C1B202006DB20200C1B20200C1B202001E
:10B2B000C1B202006DB20200C1B20200C1B202000E
:10B2C00005F10803DBB2072BD0D8012202FA03F301
:10B2D00013F0DD0FCAD0636D1868036829461B6937
:10B2E00003B0BDE8F04018475B08012B01D0022BEA
:10B2F000BCD1009294F8773094F876202946204605
:10B30000FBF71CF8B2E7436D90F8765018680368B5
:10B31000F3211B699847636D186805F07F01036886
:10B32000DDE7B0F87630802B1F4628BF8027002B42
:10B330009CD000F17706636D18683546036816F8EF
:10B34000011F1B69763D2D1B9847BD42F3D38DE746
:10B35000436D90F87650186894F8773002682D01A4
:10B3600003F00F03126905F07005F1211D439047AA
:10B37000B1E7436D90F87720186894F87650036829
:10B38000F2211B6945EAC2159847636D1868036886
:10B3900005F07F011B699847636D1868C5F3C611F6
:10B3A00003689CE7009294F8773094F87620294659
:10B3B000FAF7C4FF5AE700BFF0B58C4C94F8585028
:10B3C000102D83B006D98A4808F052F9002841D1DF
:10B3D00003B0F0BD2046FFF78FFA0028F3D094F8B1
:10B3E0007530902B29D083F08003602B2BD97F48B8
:10B3F000FFF7B0F994F87030DA07E4D513F0FE0FD8
:10B40000E1D094F8751081F08002602A47D894F852
:10B410007420954200F0D680002D00F0D3805B08A8
:10B42000012B01D0032BCED1009294F8773094F801
:10B4300076206E48FAF756FFC5E794F8773013B9CF
:10B44000802384F8753094F874309D42CFD0002D5D
:10B45000CDD0CFE7674808F07FFB0028B8D0664C16
:10B4600094F85850102DB3D82046FFF7FDFC002863
:10B47000AED094F87530902B00F0AE8083F080034E
:10B48000602B04D894F87430AB4200D015B95A48F8
:10B49000FFF718FC58482946FFF7CCFE98E7A1F1C2
:10B4A000F0030F2B8FD801A252F823F097B50200BA
:10B4B00069B5020033B5020013B50200C7B302003C
:10B4C000C7B30200EDB40200C7B30200EDB402003E
:10B4D000C7B30200EDB40200EDB40200EDB4020007
:10B4E000C7B30200EDB40200EDB4020001F108039D
:10B4F000DBB2072B3FF667AF012202FA03F313F02A
:10B50000DD0F3FF460AF636D186803681B689847F0
:10B5100059E7636D94F8765018680368F3211B6847
:10B520009847636D1868036805F07F011B689847AA
:10B5300049E7636D94F87720186894F876500368AB
:10B54000F2211B6845EAC2159847636D18680368C5
:10B5500005F07F011B689847636D18680368C5F3A1
:10B56000C6111B6898472EE7636D94F876501868EB
:10B5700094F8773002682D0103F00F031268F1216F
:10B5800005F070051D439047636D186803682946F0
:10B590001B68984717E7B4F87630802B1F4628BF02
:10B5A0008027002B3FF40FAF144E636D18683546AB
:10B5B000036816F8011F1B68763D2D1B9847AF42A4
:10B5C000F3D800E794F870305B08012B3FF42CAF00
:10B5D000022B7FF4F8AE27E794F87730002B7FF446
:10B5E00051AF802384F875304CE700BFCC67002052
:10B5F000F48E0020808B0020B46600204368002079
:10B6000010B5054B036004460FF064F920461BF0AB
:10B6100009F8204610BD00BF447205002DE9F84F1F
:10B62000DFF89C81584FDFF89C91DFF89CA1574CC4
:10B63000574E584D404608F0A9F83A4656494046FC
:10B6400021F04EFE4846802108F0A4FF3A465349B7
:10B65000484621F045FE012150460AF005F92046F2
:10B660000FF07CFC3A464E49204621F039FE4D4809
:10B6700010F08AFB4C489FED4D0A00230024036222
:10B6800001224FF081434FF48061416003610275F4
:10B6900080F824400F2110F0D1FC454B73654FF02A
:10B6A000800BC3F8009021464FF6FF784FF0030956
:10B6B0005A4606F17800C6E90044C6E90244C6E9E4
:10B6C0000444C6E90644C6E90844C6E90A44C6E992
:10B6D0000C44C6E90E44C6E91044C6E91244C6E962
:10B6E0001844C6E91A883465A6F8584086F85A40C6
:10B6F000746786F8F84086F8709021F0B9FE3A46F3
:10B700002C49C6F808413046C6E94044A6F80C4129
:10B7100021F0E6FD284B6B655A46214605F178007D
:10B72000C3F800A0C5E90044C5E90244C5E90444E2
:10B73000C5E90644C5E90844C5E90A44C5E90C441D
:10B74000C5E90E44C5E91044C5E91244C5E91844E9
:10B75000C5E91A882C65A5F8584085F85A4085F83F
:10B7600070906C6785F8F84021F082FEC5E940448E
:10B770003A462846C5F80841A5F80C410F49BDE8EE
:10B78000F84F21F0ADBD00BF00600020908D00207B
:10B79000B4660020CC67002005070300D106030033
:10B7A000D16202002C8D0020F88A00200AD7233CA9
:10B7B000248D0020C9620200288D0020CD62020085
:10B7C000388B0020808B0020748E002070B50546D9
:10B7D0001648502104460EF08FFFC5F3072120467E
:10B7E0000EF028FEE9B220460EF024FE20460EF0B0
:10B7F000EBFF0122502120460EF03EFF20460EF0C6
:10B800002DFE0B4DC6B245F0010500E0A8475021C2
:10B8100020460EF071FF20460EF0D6FF03464FF48F
:10B820004850002BF2D1304670BD00BF9CA40020D0
:10B83000906D05002DE9F0411D4E1E4DDFF878801A
:10B8400028242046FFF7C2FF034604F10D0006F846
:10B85000013BFFF7BBFF98F8003005F8010B23B957
:10B8600001342B2CEDD1BDE8F081E7B2A7F10A023B
:10B87000D2B266210720FAF78DFD16F8012C21328D
:10B88000D2B266210720FAF785FD15F9012C07F1E0
:10B890004701002A02F17F030F46D2B2C9B24FF02E
:10B8A0000700BEBFDAB2F9B20720FAF773FDD7E797
:10B8B00040620020948C0020288C002000000000B2
:10B8C0002DE9F04F2DED068B554C564B2578DFF8C2
:10B8D000A0B1DFF8A0C15A5DDFF89CA15BF825306C
:10B8E000514F524E17F805B0DFF89091DFF890E114
:10B8F00019F805901EF805E04D48DFF888814D499C
:10B9000018F80580495D85B0003A00935CF8253051
:10B9100001935AF825300293474BDFF86CA15F5D25
:10B9200010F805C005EB450306EB83060393434B74
:10B93000707A18BF01221A70009B414ACAF8003081
:10B94000404B82F80090404A83F800E0019B13606E
:10B950003E4A029B1360DFF834A13D4B8AF8008019
:10B9600083F800C0DFF828813A4BDFF8289188F887
:10B9700000B089F800101F70039BDFF81CB1013084
:10B980004FEA830820F06AFF23A3D3E9002320F0C5
:10B99000CFFF21F0A5FA08EB0503DFF800812E4A5E
:10B9A00018F80330107003EB430306EB430A2B4AED
:10B9B00016F813302A499AF804009AF801608BF8B7
:10B9C00000309AF802300E701370013020F046FFFC
:10B9D00011A3D3E9002320F0ABFF21F059FA9AF824
:10B9E0000530204A204E1060581C20F037FF0AA373
:10B9F000D3E9002320F09CFF21F04AFA735D1B4934
:10BA0000433BDAB2032A08605DD8DFF894A00AF558
:10BA10008077CAF1000548E09A9999999999E93F88
:10BA20007B8C0020F062002010610020606200200A
:10BA300038620020906200203C620020A08E00202E
:10BA4000988C0020A48C0020708C0020F4620020D0
:10BA50003562002034620020608E0020B861002032
:10BA6000436200202462002040620020AC6100207C
:10BA70000863002028620020F86200209C8C0020CF
:10BA800054620020948C002004630020918C0020DC
:10BA90000D6100208D62002045620020A062002020
:10BAA000DF6800202378F35C433B1B0203F57A63D5
:10BAB00005EB0A001844FFF789FE0AF8010F574505
:10BAC000F0D1CF4B1F78CF4BCF48D04E00254FF44D
:10BAD00000521A60394640232A460560E02035604E
