:020000022000DC
:10600000000004208D8F0400CD8F0400CF8F04008A
:10601000D18F0400D38F0400D58F0400000000004E
:10602000000000000000000000000000098F0400D4
:10603000D98F040000000000298F0400DD8F0400C8
:10604000E1910400DF8F0400DF8F0400D1C703005B
:10605000DF8F0400DF8F0400CD680400DF8F0400B1
:10606000DF8F0400DF8F0400DF8F0400DF8F040068
:10607000DF8F0400DF8F0400DF8F0400DF8F040058
:10608000DF8F0400598C0400DF8F0400DF8F0400D1
:10609000DF8F0400DF8F0400C5560300DF8F04008C
:1060A000DF8F0400DF8F0400DF8F0400DF8F040028
:1060B000DF8F0400DF8F04000000000000000000FC
:1060C000DF8F0400DF8F0400DF8F0400F5960400EB
:1060D000DF8F0400DF8F0400DF8F0400B17D030039
:1060E000DF8F0400DF8F0400DF8F0400000000005A
:1060F00000000000DF8F0400000000006D97040026
:10610000000000000000000000000000000000008F
:10611000000000000000000000000000000000007F
:10612000000000000000000000000000000000006F
:10613000000000000000000000000000000000005F
:10614000000000000000000000000000000000004F
:10615000000000000000000000000000000000003F
:10616000000000000000000000000000000000002F
:10617000000000000000000000000000000000001F
:10618000000000000000000000000000000000000F
:1061900000000000000000000000000000000000FF
:1061A00000000000000000000000000000000000EF
:1061B00000000000000000000000000000000000DF
:1061C00000000000000000000000000000000000CF
:1061D00000000000000000000000000000000000BF
:1061E00000000000000000000000000000000000AF
:1061F000000000000000000000000000000000009F
:10620000F1EE103A43F08073E1EE103A704700BFB0
:1062100010B5054C237833B9044B13B10448AFF3E0
:1062200000800123237010BD1C67002000000000C7
:106230001CCA050008B5034B1BB103490348AFF363
:10624000008008BD00000000206700201CCA050077
:10625000154B002B08BF134B9D46A3F5803A002138
:106260008B460F461348144A121A29F04FFE0F4B63
:10627000002B00D098470E4B002B00D098470020F1
:10628000002104000D000D48002802D00C48AFF397
:10629000008029F0D1FD2000290022F0CFFE29F056
:1062A000A5FD00BF00000800000004200000000061
:1062B000000000001C67002074C4002000000000E3
:1062C0000000000042DF7047704700BF704700BF0A
:1062D00010B5034B0360044616F0FCFA204610BDCF
:1062E000E49C05002DE9F0419DF81840013CE4B222
:1062F0000F2C21D80D4649B200291DDA1F46436DE7
:1063000006461868036821431B68C9B2904698473F
:10631000736D1868036808F07F011B6805F0EF05CE
:106320009847C02D08D0736D1868036807F07F0187
:106330001B68BDE8F0411847BDE8F0812DE9F04148
:106340009DF81840013CE4B20F2C21D80D4649B20B
:1063500000291DDA1F46436D06461868036821436D
:106360001B69C9B290469847736D1868036808F0B6
:106370007F011B6905F0EF059847C02D08D0736DAC
:106380001868036807F07F011B69BDE8F0411847F2
:10639000BDE8F0812DE9F041344B102805461C780A
:1063A00028BF1025012D38BF0125012C82B001F036
:1063B0007F0702F07F060ED0E4B92D4B07281C782A
:1063C00034D02C48009533463A46B021FFF78AFF77
:1063D000022C0CD004E0284B07281B6834D05BB19A
:1063E0002648009533463A46B021FFF7A7FF02B092
:1063F000BDE8F081072807D01E48009533463A468D
:10640000B021FFF76FFFEBE7652FF5D9DFF870805C
:1064100098F80030012B13D81648009533463A46B9
:10642000B021FFF75FFF98F8003009E0652FC8D969
:10643000DFF84C8098F80030012B0CD9022CD6D014
:1064400013F0FD0FD3D1CBE7652FC8D9002BDDD0DA
:106450000B4B1B78F4E70748009533463A46B021CA
:10646000FFF740FF022CDED1C1E700BF70610020C2
:106470006469002054680020BC8C0020386700202C
:10648000B98C002030B50E4D83B00C4601904FF012
:10649000FF31286820F0C6FF019A68210720FFF726
:1064A00079FF224669210720FFF774FF002328683F
:1064B0001A46194603B0BDE8304020F08BBB00BF40
:1064C000288D002038B51C4B1C4A1B780024146012
:1064D00003B938BD1A4D4FF0FF31286820F0A2FFF4
:1064E00048226A210720FFF755FF2246772107201F
:1064F000FFF750FF234622462146286820F06AFB1A
:106500004FF0FF31286820F08DFF49226A210720D3
:10651000FFF740FF224677210720FFF73BFF234686
:1065200022462868214620F055FB064B1A78022A9D
:1065300008BF1C7038BD00BFB88C0020BC8C002088
:10654000288D0020B98C002070B5014688B03448F1
:106550000FF0B0F80023044620226946CDE900334D
:10656000CDE90333CDE90533029307930DF0C2F96A
:1065700020460DF0A9F828F0BFFE2A4B002228F093
:1065800025FF29F0D3F9284B0628CCBF274D274DEE
:106590001B78CCBF044607242C6023B9244B02226D
:1065A0009A7008B070BD234E4FF0FF31306804EB95
:1065B000840420F037FF04EB840448226A2107207A
:1065C000FFF7E8FEA20002F07C0277210720FFF728
:1065D000E1FE00231A461946306820F0FBFA2B68CA
:1065E0003068642404FB03F44FF0FF3120F01AFFFD
:1065F000C4F3C71449226A210720FFF7CBFE2246C5
:1066000077210720FFF7C6FE00231A461946306897
:1066100020F0E0FA064B02229A7008B070BD00BF6D
:10662000BC8F00200000E43FB88C0020BC8C002010
:10663000B08C0020288D002010B5012182B00446C6
:106640001A2023F0E1FE01211A2023F061FF05202A
:1066500020F09CF94FF480730094ADF8043002AB45
:1066600013E90600134815F015FE00211A2023F047
:106670004FFFAC210F4815F0A9FE53210D4815F02E
:10668000A5FE00210B4815F0A1FE00210446094893
:1066900015F09CFE00EB0421B1F5A64F06D01022A8
:1066A000054820F0ADF8002002B010BD012002B076
:1066B00010BD00BF50A500204098002070B50446D2
:1066C00042F21070FFF7B8FF7A497B481FF014FFC1
:1066D000257805B3794978481FF0AEFE1022294687
:1066E000754820F05DF8AC21754815F06FFEE0218B
:1066F000734815F06BFE0021714815F067FE2946BE
:1067000003466F481D4615F061FE00EB0520B0F50D
:10671000604F40F0A9806A4DF021284615F056FEE2
:106720000021284615F052FE0021284615F04EFEA5
:106730000021284615F04AFE10F00106ECD16578DC
:10674000002D70D15E4DF021284615F03FFE00214E
:10675000284615F03BFE0021284615F037FE0021A3
:10676000284615F033FE10F00106ECD1A578002D77
:106770007CD1534DF021284615F028FE00212846F3
:1067800015F024FE0021284615F020FE00212846A1
:1067900015F01CFE10F00106ECD1E478FCB149497B
:1067A00045481FF049FE1022214643481FF0F8FFDC
:1067B000AC21434815F00AFEA421414815F006FE1D
:1067C00031463F4815F002FE214603463C481C4630
:1067D00015F0FCFD00EB0420B0F5244F44D1384DFA
:1067E000F021284615F0F2FD0021284615F0EEFDB7
:1067F0000021284615F0EAFD0021284615F0E6FDA7
:1068000010F00104ECD12C481FF0C6FE2C4815F006
:10681000A3FD21461A2023F07BFE21461A2023F0F7
:10682000F3FD012070BD284923481FF005FE10220A
:10683000294621481FF0B4FFAC21214815F0C6FDC0
:10684000A0211F4815F0C2FD31461D4815F0BEFDC0
:10685000294603461A481D4615F0B8FD00EB0520F1
:10686000B0F5204F3FF46EAF002070BD17491248BD
:106870001FF0E2FD102229460F481FF091FFAC21C6
:106880000F4815F0A3FDA8210D4815F09FFD3146D6
:106890000B4815F09BFD2946034609481D4615F097
:1068A00095FD00EB0520B0F5284F3FF462AF0020C6
:1068B000DBE700BFD42D050040980020E42D050043
:1068C00050A50020202E0500F82D05000C2E0500F7
:1068D000F8B5044642F210700D46FFF7ADFE4F4981
:1068E0004F481FF009FE2678002E56D16678002EFC
:1068F00073D1A6788EBBE678FEB15021494815F0D9
:1069000065FD0821474815F061FD0021454815F057
:106910005DFD0021434815F059FDEB7842490446DE
:106920001C403F481FF088FD3D48214610221FF0C3
:1069300037FFA64201D00020F8BD39481FF02CFED9
:10694000384815F009FD00211A2023F0E1FD00214F
:106950001A2023F059FD0120F8BD5821314815F0C7
:1069600035FD08212F4815F031FD00212D4815F087
:106970002DFD00212B4815F029FDAB782B4907464A
:106980001F4027481FF058FD2548394610221FF0A8
:1069900007FFBE42AFD00020CEE75821214815F0B6
:1069A00015FD00211F4815F011FD00211D4815F0AF
:1069B0000DFD00211B4815F009FD2B781C490746E9
:1069C0001F4017481FF038FD1548394610221FF0A8
:1069D000E7FEBE428AD00020AEE75021114815F0F4
:1069E000F5FC00210F4815F0F1FC00210D4815F0D1
:1069F000EDFC00210B4815F0E9FC0E49C7B2084830
:106A00001FF01AFD3946064810221FF0C9FE6878AB
:106A10000740BE423FF46DAF00208DE7342E0500E5
:106A20004098002050A50020782E0500682E050013
:106A3000482E0500582E050010B50A4CF0212046BE
:106A400015F0C4FC0021204615F0C0FC00212046B2
:106A500015F0BCFC0021204615F0B8FCC307EDD4AE
:106A600010BD00BF50A500202DE9F04F894685B02C
:106A70005349544C8046544817461FF0DDFC4946A4
:106A8000102251481FF05EFE1FF074FF2368C01AE9
:106A9000B0F57A7F00F287804C48FFF7CDFD7B0888
:106AA000029345D0002508F10102494C01922B4682
:106AB0001E0A4021204618F815A05FFA85FB15F044
:106AC00085FC3146204615F081FC5946204615F0DC
:106AD0007DFC51460746204615F078FC034603EB43
:106AE0000723AB424FF0480120461AD1019B13F80F
:106AF0001530039315F06AFC3146204615F066FC0C
:106B00005946204615F062FC039B0646194620466E
:106B100015F05CFC00EB0620A84205F10105ABB2C4
:106B200003D0002005B0BDE8F08F029A9A42BFD88A
:106B30004C21274815F04AFC4FEA59054FEA5921E4
:106B4000234815F043FCE9B2214815F03FFC002131
:106B500006461F4815F03AFC1E4904461A481FF025
:106B60006BFC1022294618481FF04AFE04EB06244D
:106B7000194915481FF060FC214613481022A4B2A1
:106B80001FF0E0FDA542CCD1FFF756FF104815F0ED
:106B9000E3FB00211A2023F0BBFC1A20002123F084
:106BA00033FC0120BEE71FF0E5FE0C4B0C4A2060D1
:106BB0000C49C3F8002604481FF03EFC6CE700BFF8
:106BC000882E0500706A00204098002040420F0087
:106BD00050A50020A42E0500B82E0500000001409D
:106BE0003546526E982E0500014608B504481FF040
:106BF000F3FC40F2FF31012023F020FAFEE700BF52
:106C000040980020014608B504481FF075FC40F28A
:106C1000FF31012023F012FAFEE700BF4098002068
:106C200010B542F2107082B0FFF706FDAC211D488E
:106C300015F0CCFB80211B4815F0C8FB002119483A
:106C400015F0C4FB00210446164815F0BFFB00EB0D
:106C50000420B0F5004F22D1124CF021204615F04F
:106C6000B5FB0021204615F0B1FB0021204615F0B0
:106C7000ADFB0021204615F0A9FB10F00101ECD17D
:106C80000848019115F068FB01991A2023F040FC97
:106C900001991A2023F0B8FB012002B010BD024870
:106CA000FFF7B0FF50A50020C02E0500084C094991
:106CB00008B5054620461FF0EDFB29461022204668
:106CC0001FF066FD20461FF067FC0348FFF79AFFA0
:106CD00040980020DC2E0500F02E05002DE9F0473D
:106CE00080460C4617463AB1013A92B21846013234
:106CF000FF2129F00BF9034604EB070C0022444660
:106D0000204610F8011B0A2900F053810D2900F0DC
:106D100050813A2940F0A4816578A5F13001C9B2CB
:106D200009290CD9A5F14101052940F25781A5F1A6
:106D30006101052900F28881A5F15701C9B2A57842
:106D4000A5F13000C6B2092E4FEA01100CD9A5F109
:106D50004101052940F23A81A5F16101052900F2BE
:106D60007381A5F15706F6B2E578A5F13001C9B2F5
:106D700030440929C6B20CD9A5F14101052940F2D8
:106D80002981A5F16101052900F25E81A5F1570174
:106D9000C9B22579A5F1300E5FFA8EFE0901BEF168
:106DA000090FC9B20ED9A5F1410EBEF1050F40F28F
:106DB0001981A5F1610EBEF1050F00F24581573D25
:106DC0005FFA85FE94F8059001EB0E05A9F13001FC
:106DD000EDB2C9B22E440929F6B2ADB20CD9A9F16F
:106DE0004101052940F20281A9F16101052900F262
:106DF0001981A9F15701C9B294F80690A9F1300E92
:106E00005FFA8EFE0901BEF1090FC9B20FD9A9F1CF
:106E1000410EBEF1050F40F2ED80A9F1610EBEF109
:106E2000050F00F2FF80A9F157095FFA89FE71444E
:106E3000C9B201EB0525ADB20E446545F6B280F24C
:106E4000ED80E579A5F13001C9B209290CD9A5F188
:106E50004101052940F2D680A5F16101052900F222
:106E6000F380A5F15701C9B2257AA5F130095FFA7F
:106E700089F90901B9F1090FC9B204F1090E40F20B
:106E80009A80A5F14109B9F1050F40F2B880A5F14A
:106E90006109B9F1050F00F2D780573DEDB20E44FC
:106EA00055FA86F6F6B200284CD00B34002534E0B3
:106EB000A9F16101052900F2B580A9F15701C9B214
:106EC00014F8019CA9F1300A5FFA8AFA0901BAF1B3
:106ED000090FC9B20ED9A9F1410ABAF1050F2CD98F
:106EE000A9F1610ABAF1050F00F29C80A9F15709D6
:106EF0005FFA89FA5144C9B202F1010999541FFAA3
:106F000089F20E449742F6B2C0F09B800135E9B297
:106F1000884204F102040D4614D914F8029CA9F128
:106F20003001C9B20929A646CAD9A9F141010529EA
:106F3000BED8A9F13701C9B2C2E7A9F137095FFA92
:106F400089FAD7E79EF80040A4F13001C9B20929B7
:106F50000AD9A4F14101052958D9A4F161010529F3
:106F600078D8A4F15701C9B29EF80140A4F13000CD
:106F7000C0B209010928C9B209D9A4F14100052804
:106F800048D9A4F16100052864D8573CE0B20E440A
:106F900050FA86F616F0FF0F68D19EF802100A2903
:106FA0000EF103045FD1BA427FF4AAAE2046BDE8D9
:106FB000F0870446A4E64944C9B20E440129F6B25A
:106FC0007FF471AF00242046BDE8F087A5F13706B5
:106FD000F6B2C9E6A5F13701C9B2DAE6A5F1370183
:106FE000C9B2ACE6373D5FFA85FEEBE6A9F13701A1
:106FF000C9B201E7A9F1370E5FFA8EFE17E7373DF8
:10700000EDB24CE7A5F13701C9B22DE7A4F1370184
:10701000C9B2A9E7A4F13700C0B2B8E74446204698
:10702000BDE8F087134914481FF034FA494610228E
:1070300011481FF0ADFB10481FF0AEFA0F48FFF7E4
:10704000E1FD0F48FFF7D0FD0A490B481FF022FA77
:107050002946ECE7074908481FF01CFA2146E6E7F5
:107060000848FFF7CFFD0848FFF7CCFD0748FFF7BA
:10707000C9FD00BFDC2E050040980020F02E050061
:107080000C2F0500002F05002C2F05001C2F0500DC
:107090002DE9F04F824683B0CD48CE4EFFF7CCFAB3
:1070A000D14619F8011B0A2900F090810D2900F042
:1070B0008D813A2940F0ED819AF80100A0F130036A
:1070C000DBB2092B0CD9A0F14103052B40F2C4819E
:1070D000A0F16103052B00F2D281A0F15703DBB2CE
:1070E0009AF80200A0F130085FFA88F2092A4FEA04
:1070F00003180CD9A0F14103052B40F2A981A0F19E
:107100006103052B00F2BB81A0F15702D2B29AF8BD
:107110000300A0F13003DBB29044092B5FFA88FB37
:107120000CD9A0F14103052B40F28E81A0F161033F
:10713000052B00F2A481A0F15703DBB29AF80400FA
:10714000A0F13007FAB21B01092ADFB20CD9A0F175
:107150004103052B40F27481A0F16103052B00F27D
:107160008E81A0F15702D2B29AF805001744A0F11F
:107170003003FFB2DBB2BB44092B5FFA8BFBBAB220
:107180000CD9A0F14103052B40F25681A0F1610317
:10719000052B00F27481A0F15703DBB29AF80600C8
:1071A000A0F13007FFB21B01092FDBB20CD9A0F10F
:1071B0004101052940F23C81A0F16101052900F25D
:1071C0005E81A0F15707FFB29AF807003B44DFB297
:1071D000A0F13003DBB2BB44092B07EB02275FFAB7
:1071E0008BFBBFB20CD9A0F14103052B40F21C81EF
:1071F000A0F16103052B00F24281A0F15703DBB23D
:107200009AF80800A0F13004E4B21B01092CDBB2AB
:107210000AF1090940F2E880A0F14102052A40F292
:107220000081A0F16102052A00F229815738C0B21D
:107230009B4450FA8BFB5FFA8BFBB8F1000F00F018
:1072400093800AF10B0A3D461DE02821304615F0D7
:10725000BDF8690A304615F0B9F8C5F34701304664
:1072600015F0B4F80021304615F0B0F8C3B2A342CF
:107270004FD1C7F101032B44DBB2013543450AF17D
:10728000020AADB270DA1AF8024CA4F13003DBB294
:10729000092BD1460BD9A4F14103052B5DD9A4F1EB
:1072A0006103052B00F2DC80A4F15703DBB21AF86E
:1072B000012CA2F130011C01CBB2092BE4B20AD996
:1072C000A2F14103052B4CD9A2F16103052B00F279
:1072D000D880573AD3B21C44E4B2A34415F001035A
:1072E0005FFA8BFBB1D120213046019315F06EF887
:1072F000690A304615F06AF8C5F34701304615F0C3
:1073000065F8019B3046194615F060F8C3B2A342F8
:10731000AFD0314801931FF03FF930492E481FF09C
:107320008BF8102229462C481FF06AFA2C492A486B
:107330001FF082F81022214627481FF029FA294918
:1073400025481FF079F8019B2348194610221FF0A9
:1073500027FA002003B0BDE8F08FA4F13703DBB2B9
:10736000A5E7373AD3B2B6E799F80000A0F13003A9
:10737000DBB2092B0AD9A0F14103052B4DD9A0F1AD
:107380006103052B7BD8A0F15703DBB299F801000C
:10739000A0F13001C9B21B010929DBB20AD9A0F161
:1073A0004102052A35D9A0F16102052A67D8A0F16A
:1073B0005701C9B29B4451FA8BF111F0FF0171D111
:1073C00099F802300A2B09F1030968D1CA4667E629
:1073D00040420F0050A50020409800203C2F05009F
:1073E000602F0500702F05001C44E4B2A344012C5B
:1073F0005FFA8BFB7FF421AF2E4814F0ADFF002124
:107400001A2023F085F81A20002122F0FDFF2046E3
:10741000A0E7A0F13701C9B2CCE7A0F13703DBB296
:10742000B4E73738C0B203E7A0F13703DBB2E7E6D1
:10743000A0F13707FFB2C7E6A0F13703DBB2ADE634
:10744000A0F13702D2B28FE6A0F13703DBB275E6C6
:10745000A0F13702D2B25AE6A0F13703DBB23FE621
:10746000154916481FF016F82146102213481FF040
:107470008FF912481FF090F81148FFF7C3FBFFF790
:1074800015FC0D490D4801921FF004F8019A1146B0
:10749000EBE70A481FF02CF80A48FFF7B3FB0A484D
:1074A000FFF7B0FB054810221FF072F90748FFF7FD
:1074B000A9FB00BF50A50020DC2E0500409800204D
:1074C000F02E0500002F05002C2F0500782F050059
:1074D0002DE9F04F40F2FF3185B0012022F0AEFDE2
:1074E000724973481EF0A8FF7248FFF7A5F80028FC
:1074F00072D071496E481EF0FFFF42F21070FFF724
:107500009BF830216D4814F061FF00216B4814F0A6
:107510005DFF0121694814F059FF0021674814F00C
:1075200055FF30210502654814F050FF00216348E3
:1075300014F04CFF0221614814F048FF002104467A
:107540005E4814F043FF05F47F4500EB04245B48DC
:1075500014F002FF2C4300211A2022F0D9FFA4B21C
:1075600000211A2022F050FF631E9BB24FF6FD72DD
:10757000934204D8524B1F683B88A34204D0002496
:10758000204605B0BDE8F08FFFF74AFB0521B81C87
:10759000FFF794F80028F2D0484814F0DDFE0021EF
:1075A0001A2022F0B5FF00211A2022F02DFF002121
:1075B000012022F043FD64201FF0E8F940F2FF3182
:1075C000012022F03BFD394939481EF035FF39488A
:1075D000FFF732F8814620B93A4935481EF08CFF52
:1075E000CDE7354932481EF087FFB7F820A097F85D
:1075F000228007F123030293BAF1000F24D0DFF8B1
:10760000C8B003971FFA88F20BEB080647461C46E2
:1076100000259046A9B220465B4642460191FFF7FD
:107620005DFB019904464FB1274B4A4613F8010B05
:10763000FF2818BF00229E42F8D17AB33D44AA45E4
:1076400001D9002CE6D1039F0298FFF721FD002805
:1076500095D007F10C0420460521FFF72FF80028EC
:107660008DD0204607F11601FFF732F904460028B5
:1076700085D0042540F2FF31012022F0DFFCC82034
:107680001FF084F90021012022F0D8FCC8201FF04F
:107690007DF96B1E13F0FF05ECD171E742465846A9
:1076A000FFF7E2F90028C9D169E700BFA82D05005E
:1076B00040980020A0860100C42D050050A50020A0
:1076C00058620020CC2D0500806A00202DE9F04F83
:1076D000704C714F714E87B0204616F0DDFC704A39
:1076E000A36A70493B6001916F4FE56A6F4C07CA0E
:1076F0009B103B604FF48073ADF80830256003ADFC
:1077000085E80700029A6749304614F0C3FD00215E
:10771000022022F0FDFE664B4FF4207043F001037F
:1077200098470021304614F051FE00240134E4B2A1
:107730002146304614F04AFE0C2C05F8010BF5D119
:107740000121022022F0E4FE544814F005FE9DF8C9
:1077500016209DF8155057499DF811E09DF80E80B0
:107760009DF80CB091F800A09DF80D609DF80F7089
:107770009DF81090504B94004FEA840C0CF4407C20
:10778000A9004CEA0E0C4FEA851E88000EF4407EDC
:1077900001F4407141EA0B0B4EEA080E29029DF8F4
:1077A0001280C3F800B0950100F4407001F44071FC
:1077B00005F440753043394345EA08059DF81360E8
:1077C0009DF814809DF817705860120204F44074FC
:1077D00002F4407244EA0904324348EA0728C3E944
:1077E000044CC3E902E1C3E90652C3F82080BAF1B0
:1077F000000F4BD1DFF8C490D9E90067C01BD9F85E
:107800000870BBEB060648BF5646AEEB07070028DC
:10781000B8BF5046002FC3E90060B8BF00209F608A
:10782000B8BF9860D9F80C00091A0029D960BCBF0C
:107830000021D960D9F81010641A002CB8BF0021BB
:107840001C61B8BF1961D9F81410ACEB0101002913
:107850005961BCBF00215961D9F818106D1A002D6B
:10786000B8BF00219D61B8BF9961D9F81C10521AA8
:10787000002ADA61BCBF0022DA61D9F82020A8EB27
:107880000202002A1A62BCBF00221A6207B0BDE8D9
:10789000F08F00BF888B0020288F002050A500208B
:1078A000CC2F050080841E00D88D0020508E002033
:1078B00030980500B38C0020D88E0020B48E0020B4
:1078C0002DE9F043C04DC14C297801EBC1032DEDEA
:1078D000028B04EBC30014F8333083B0CA007BB3CF
:1078E000BB4FDFEDBC8AD7ED007A9FEDBB8AC37931
:1078F000007A009077EEA87A0A4404EBC20167EEA2
:10790000887A8A794979FDEEE77A834241F28839AB
:1079100094BF8046064609FB02F217EE900A09FB67
:1079200001F194BF1E4698461FF012F8B04280F253
:10793000E280AA4F3B78B34240F08E802978CA009B
:10794000501804EBC000437873B3A54FDFEDA18A54
:10795000D7ED007A9FEDA08AC37A007B009077EE86
:10796000A87A0A4404EBC20167EE887A8A7A497AD7
:10797000FDEEE77A834241F2883994BF804606469D
:1079800009FB02F217EE900A09FB01F194BF1E46B3
:1079900098461EF0DDFFB04280F28A80914F3B781E
:1079A000B3424BD12978CA00531804EBC30398782B
:1079B00018B993F82030002B3BD08B4FDFED8B8A2A
:1079C000D7ED007A9FED848A501804EBC00077EE63
:1079D000A87A0A44C37B007C009004EBC20167EEE6
:1079E000887A8A7B497BFDEEE77A834242F21079FE
:1079F00094BF8046064609FB02F217EE900A09FB87
:107A000001F194BF1E4698461EF0A2FFB04231DA43
:107A1000774FDFF8E0813B7888F80060B34208D008
:107A20002B7803EBC30304EBC3039A78002A40F0DE
:107A3000858003B0BDEC028BBDE8F0832B7803EBAF
:107A4000C30304EBC3033246597D987CFEF7A2FCC6
:107A500029783E70CA00A7E72B7803EBC30304EB39
:107A6000C3033246197D587CFEF794FC29783E709A
:107A7000CA0065E7D7ED007A2B7877EEA87A03EB9A
:107A8000C30304EBC30367EE887A9A7B597B187CA7
:107A90000090FDEEE77ADB7B17EE900A09FB02F21D
:107AA00009FB01F11EF054FF404554DD4646AFE7A7
:107AB000D7ED007A2B7877EEA87A03EBC30304EBBB
:107AC000C30367EE887A9A7A597A187B0090FDEEA4
:107AD000E77ADB7A17EE900A09FB02F209FB01F163
:107AE0001EF036FF404552DD3E4F3B784646B342DE
:107AF0003FF458AFA2E7D7ED007A2B7877EEA87A5B
:107B000003EBC30304EBC30367EE887A9A795979D0
:107B1000187A0090FDEEE77ADB7917EE900A09FB00
:107B200002F209FB01F11EF013FF404564DD2B4F0B
:107B30003B784646B3423FF401AF8DE7997DD87C50
:107B40003246FEF727FC98F800303B7003B0BDECDE
:107B5000028BBDE8F083D7ED007A2B7877EEA88A08
:107B600003EBC30304EBC30328EE888A9A7B597B9B
:107B7000187C0090FDEEC87ADB7B17EE900A09FBBB
:107B800002F209FB01F11EF0E3FEC6B240E7D7EDB9
:107B9000007A2B7877EEA88A03EBC30304EBC303C8
:107BA00028EE888A9A7A597A187B0090FDEEC87A76
:107BB000DB7A17EE900A09FB02F209FB01F11EF0D5
:107BC000C7FEC6B2EAE600BF2C8D002098600020F8
:107BD000CC8D00200000B44200007A446C8B002061
:107BE000548D00206D8B0020988F002000003443BE
:107BF0006E8B0020A08F0020D7ED007A2B7877EED7
:107C0000A88A03EBC30304EBC30328EE888A9A799E
:107C10005979187A0090FDEEC87ADB7917EE900A50
:107C200009FB02F209FB01F11EF092FEC6B280E6EA
:107C3000F0B4CB4BCB4D1A78CB482B68CB49002AFC
:107C400062D1CB4A04680F681668E41BA64240F272
:107C50002B8143F0010344684F685668E41BB4422B
:107C6000C0F03881043CB44280F0768184688F682B
:107C70009668E41BB442C0F02A81043CA64240F25C
:107C80006881C468CF68D668E41BB442C0F01C8128
:107C9000043CA64240F25A8104690F691669E41B4C
:107CA000B442C0F00E81043CA64240F24C814469CB
:107CB0004F695669E41BB442C0F00081043CA642FF
:107CC00040F23E8184698F699669E41BB442C0F03A
:107CD000F280043CA64240F23081C469CF69D66983
:107CE000E41BB442C0F0F980043CA64240F2228179
:107CF0000C6A006A116A021B8A4280F0CA8043F44F
:107D000080732B60F0BC70470E6804689FED997A11
:107D1000974AA41B07EE904AF8EE677A166867EE5A
:107D2000877AFDEEE77A17EE907AE41BB442C0F052
:107D3000B880043CA64298BF23F001034F68446812
:107D40009FED8C7A5668E41B07EE904AF8EE677A4E
:107D500067EE877AFDEEE77A17EE907AE41BB4427D
:107D600080F0BE8043F002038F6884689FED817AC3
:107D70009668E41B07EE904AF8EE677A67EE877A1A
:107D8000FDEEE77A17EE907AE41BB44280F0CC80E7
:107D900043F00403CF68C4689FED767AD668E41B8D
:107DA00007EE904AF8EE677A67EE877AFDEEE77A9B
:107DB00017EE907AE41BB44280F0B08043F00803E1
:107DC0000F6904699FED6B7A1669E41B07EE904A10
:107DD000F8EE677A67EE877AFDEEE77A17EE907A2B
:107DE000E41BB44280F0948043F010034F6944696F
:107DF0009FED607A5669E41B07EE904AF8EE677AC9
:107E000067EE877AFDEEE77A17EE907AE41BB442CC
:107E100078D243F020038F6984699FED567A966982
:107E2000E41B07EE904AF8EE677A67EE877AFDEE7C
:107E3000E77A17EE907AE41BB4425DD243F0400338
:107E4000CF69C4699FED4B7AD669E41B07EE904A6F
:107E5000F8EE677A67EE877AFDEEE77A17EE907AAA
:107E6000E41BB44242D243F08003006A0C6A116AF8
:107E70009FED407A021B07EE902AF8EE677A67EED4
:107E8000877AFDEEE77A17EE900A121A8A42FFF41B
:107E900036AF043A914201D823F480732B60F0BCD2
:107EA000704743F0010349E7043CB442FFF4D3AE0A
:107EB00023F00103CFE643F040030EE743F0200335
:107EC00000E743F01003F2E643F00803E4E643F072
:107ED0000403D6E643F00203C8E643F0800307E755
:107EE000043CA64298BF23F002033DE7043CA642AF
:107EF00098BF23F08003B8E7043CA64298BF23F064
:107F000040039DE7043CA64298BF23F0200382E78C
:107F1000043CA64298BF23F0100367E7043CA64246
:107F200098BF23F008034BE7043CA64298BF23F018
:107F300004032FE723F08003DAE623F04003CCE6C6
:107F400023F02003BEE623F01003B0E623F008037D
:107F5000A2E623F0040394E623F0020386E600BFC2
:107F6000B38C0020008D00204C630020B48E0020D4
:107F7000D88E0020CDCC4C3E10B41D4B1D4A1B7832
:107F8000D25C422A4FEA500022D81B49C3B201EB0F
:107F9000022112F0FB0FC85C22D1184C1849E45C96
:107FA0000C70012A02D1174CE35C0B70032A01D13B
:107FB0003F2811D0144B1B78032B06D0134B1A68A3
:107FC00040F2FF139A4208BF00205DF8044B70474F
:107FD0000F4BC0B2185CEDE700205DF8044B704712
:107FE000012A01D10649DEE70A2AFBD0DEE700BFFD
:107FF0002C8D0020B86200201C800500D82F0500C1
:10800000688F00201C7F050084610020008D002007
:108010006869002070B46B4B6B4A197801EBC1039F
:1080200002EBC302CC00907E01284FF0000358D031
:108030006648674A00781278664D034403EB4303B1
:1080400002EB83032A786448DBB2032A037032D040
:10805000624A1278032A18D0022A01D070BC7047F5
:108060005F4A525C12F0FB0F40F08E805D4A5E4D1D
:10807000611A02EB41012A68C978C2F300228A42E0
:10808000ECD10C33037070BC7047554A555C012D20
:10809000E4D00A2DE2D0534A534E611A02EB41015B
:1080A0003268C97802F001028A42D7D1072DE8D19F
:1080B00007330370D2E74A4A555C0F2D5CD04B4A18
:1080C0000C2D127864D00E2D68D0082D4DD1492A80
:1080D00052D9424A12780C33DBB2032A0370BBD167
:1080E000D9E7937F002BA3D0414A424D92ED017A0C
:1080F000D5ED007AB8EEC77AF4EEC77AF1EE10FA51
:1081000057D4012B2ED092ED027AB8EEC77AF4EE56
:10811000C77AF1EE10FA4ED4022B23D092ED037AF7
:10812000B8EEC77AF4EEC77AF1EE10FA45D4032B15
:1081300018D092ED047AB8EEC77AF4EEC77AF1EE71
:1081400010FA34D4042B32D092ED057AB8EEC77A07
:10815000B4EEE77AF1EE10FA31DC052B18BF0023FC
:108160007FF466AF013BDBB262E73E2A19D0072DF0
:1081700010D10733DBB20370184A1278032A8AD071
:10818000022A7FF46BAF6BE7062A7FF467AF6DE7D7
:10819000392AF1D90C33DBB2037059E7452AF9D8F3
:1081A000EAE7012D3FF45AAF0A2DE0D156E7042348
:1081B000D8E70346D6E70223D4E70323D2E7052313
:1081C000D0E700BF2C8D0020986000204C8D00204F
:1081D000458D0020398D00204C8E002084610020C8
:1081E000B862002020630020008D0020BC620020C7
:1081F0006C8D0020548D002070B505460C461EF095
:10820000B9FB1A4A13783BB9194E1A4930601A4E15
:108210000B60012133601170CDB9154B17491B68F4
:108220000968C31A8B420ED2124B1968A1B1124BC6
:1082300019681C60611AB1F5FA6F11D09DB1012D5A
:108240000ED100290CDB00231370022070BD012D1C
:10825000F9D1074B0A49E2E7074901220C601A608D
:10826000084B187870BD0029FADCECE7FC8C002084
:10827000308B0020B88D0020AC8D00209C62002047
:1082800024620020C48C00202DE9F84F324D334E7B
:10829000334FDFF8E490DFF8E4A0002405E000238A
:1082A00047F824300134092C53D0337855F8042F83
:1082B0009A42F4DDD9F80030002BF0D19AF8002072
:1082C00028492948DFF8B88090F800C0D8F8003075
:1082D000C2EBC202C2EBC2020A44012092F826B0ED
:1082E000A0401843E34528BFE346FFF745FE1F4A79
:1082F0001F499AF800301278CB5C801A23B9CBF171
:1083000000039842B8BF18460028C8D0D8F80030FB
:10831000E340DB07C3D45845C1DCCBF1000B8345F8
:10832000BDDC31782A68134B521A07EE902A03EB12
:10833000840393ED007AF8EEE77A404267EE877A9D
:10834000FDEEE77A17EE903A00FB03F347F824308E
:10835000A8E7BDE8F88F00BFD48E00200963002095
:108360003462002004600020AD620020BC62002066
:10837000CC620020FC8E0020248F00202C8D002059
:10838000008D002070B52D4C2378E3B96378002B65
:1083900030D1A37803B970BD294E1EF0EBFAB36853
:1083A000C01AC728F7D9274D1EF0E4FAAB78B060A1
:1083B0000226002B34D140F2FF31032021F03EFE93
:1083C0000123AB7070BD1E4E1EF0D4FA3368C01A84
:1083D000C728DBD91B4D1EF0CDFA2B78306053BB7C
:1083E00040F2FF31082021F029FE01232B70637831
:1083F000002BCED0124E1EF0BDFA7368C01AC728EB
:10840000C7D9104D1EF0B6FA6B7870603BB940F2D8
:10841000FF310A2021F012FE01236B70B9E701261B
:10842000094B0021985D21F009FEA35D0022013B6C
:10843000A355AA5570BD0026F2E700BFB08C0020FE
:10844000448B0020506800201C9805002DE9F8435B
:108450002C4D2D4F2D4C2E4EDFF8CC902DED068B54
:108460009FED2C9ADFED2CAADFED2C8A9FED2CAA34
:10847000DFED2C9A05F1030815F8011B012381B3E8
:10848000D4ED007A337037EEA87AF4EEC97AF1EEC3
:1084900010FAB0EE470A2EDC84ED007A1BF0CAFE1B
:1084A000B7EE008A30EE088A28EE0A8AFCEEC87A17
:1084B00028EE298A17EE901A387821F0BFFDD4ED06
:1084C000007A37EE888A84ED008AA84507F1010713
:1084D00004F1040406F10106CED1BDEC068BBDE823
:1084E000F8833378002BF0D03878317021F0A6FD76
:1084F000C4F80090E9E7B0EE6A8AC4F80090002161
:10850000DAE700BFB48D00201C98050078610020D8
:10851000508B00200AD72F410AD7232F0AD7A33B1D
:1085200000C0FF430A00A436B4C896400000000013
:108530003F4B404A1B68126870B53F4D0601044628
:10854000A3EB8200AB5920EAE07005EB0412B0EB1C
:10855000830F526882B04FEA830159D208469200D5
:108560004FF48063009300231EF0F2F9334A125D4A
:10857000012A034651D0022A2CD0314ADFED316A5C
:1085800012F8140002EB440207EE900A5278101A17
:1085900003FB00F3B8EEE77A07EE903AF8EEE77ADD
:1085A000294BA7EEA67A354403EB8403012CF0EEA9
:1085B000477ABCEEC77AC3ED007A17EE102A85ED34
:1085C000037A05D1214B12F0FF0214BF1A701C7000
:1085D00002B070BD0028D0D026F08EFE41EC100B0A
:1085E0001BF072FE10A3D3E9002351EC100B26F010
:1085F000EDFE27F0E3F907EE900A9FED157A67EE9E
:10860000A77A67EE877AFDEEE77A17EE903AB4E73D
:108610009200904228BF1046A2E700FB00F003FB47
:1086200000F31B15A9E700BFFE822B654715F73F36
:10863000508E0020106300205C620020C88C002057
:10864000C06200200000803A188D0020776300206F
:108650000AD723412DE9F041DFF83C8006460F465A
:10866000D8F800004FF0FF311D4614461EF0DAFE28
:108670003A4631460720FDF78DFE2A46214607205F
:10868000FDF788FE0023D8F800001A46BDE8F04147
:1086900019461EF09FBA00BF288D0020F8B5044689
:1086A0000E461EF067F92E4B1B78002B36D0054680
:1086B000E4B12C4F3B78002B31D12B4B2B4C186065
:1086C00001223A70BEB12178002945D01B68EB1A0F
:1086D000192B10D9264B19687322CBB27220C1F323
:1086E000C711FFF7B7FF00233B7004E00EBB1D4F1F
:1086F0003B785BBB1D4C237883B11E4B1868281A4E
:1087000019280BD91C4B19687622C1F3C7137420A2
:1087100001F07F01FFF79EFF00232370F8BDAEB18B
:10872000124C237883B9134A0F4B10600122227038
:10873000CCE70E4C0B4F23783A7853B90D490123FF
:1087400008602370002AE9D0074BBFE7064B074CAF
:10875000BCE7002AD1D0F7E7064922700860B5E7E8
:10876000B88C0020A08A0020A48A0020A18A0020C2
:10877000008D0020A88A0020D88D00202DE9F0412E
:10878000904C10290D46247828BF1025012D38BFA4
:108790000125012C82B000F0F00002F07F0703F009
:1087A0007F062ED0002C70D1874BA0281C785BD080
:1087B0000FD8802847D0902808D1014600958348DB
:1087C00033463A46FDF78EFD022C34D102B0BDE8A7
:1087D000F081B02800F0A680E028F7D107EBC612A0
:1087E000A2F5005212B202F50056014600957748F4
:1087F00002F07F02C6F3C713FDF774FD022CE5D02B
:1088000067E0734BA0281B6800F082800DD9B02868
:1088100069D0E028DAD107EBC612A2F5005212B2F5
:10882000002B4BD002F5005653E0802800F0BE80AC
:108830009028CBD18BB36748009533463A469021B8
:10884000FDF77CFDC2E701460095604833463A4695
:10885000FDF748FD022CB9D05E48009533463A46F4
:108860008021FDF76BFDB1E701460095574833467F
:108870003A46FDF737FD022CA8D0564800953346FE
:108880003A46A021FDF75AFDA0E7A02842D00CD817
:10889000802800F08E80902898D1014600954B48A2
:1088A00033463A46FDF71EFDC5E7B02826D0E0283E
:1088B0008CD107EBC612A2F5005212B202F5005697
:1088C0004248009502F07F02C6F3C713E021FDF78E
:1088D00009FD40480095C6F3C71306F07F02E0216A
:1088E000FDF72CFD72E7072929D04BB139480095D7
:1088F00033463A46B021FDF721FD67E707292AD024
:1089000001460095314833463A46FDF7EBFCEDE76A
:10891000002BB2D1014600952C4833463A46FDF76C
:10892000E1FCAAE707292BD02848009533463A46B0
:10893000B021FDF7D7FC022C3FF448AFD6E7652FF6
:10894000D3D9DFF89480B3B198F8003013F0FD0F5D
:108950007FF43CAFCAE7652FD2D9DFF87C8098F866
:108960000030012BF0D801460095184833463A46AE
:10897000FDF7B8FCE8E798F80030012BF3D9E3E7FE
:10898000652FD1D9DFF8508098F80030012B03D93A
:10899000022C3FF41BAFD7E7014600950B48334646
:1089A0003A46FDF79FFC022CCED10FE7002B7FF457
:1089B00053AF01460095054833463A46FDF792FC11
:1089C0004AE700BF706100206469002054680020FD
:1089D000BC8C002038670020B98C0020000000000B
:1089E0002DE9F04F2DED068B9FB015AB0CAA03A916
:1089F000CF48DFF8C0B3DFF8C083CE4FCE4ECF4DA7
:108A0000CF4C14F029FACF4BDDED137A93ED001A19
:108A1000CD4BCE49CE4AC3ED007ACE4BD2ED000A03
:108A2000D1ED006A9DED110A9DED127ACA4ACB493B
:108A3000DB6882ED000ADDED081A9DED092ADDED07
:108A40000A2AC74A81ED007A30EE660A77EE600A9C
:108A500037EEC11A1A998BED000ADB01C8ED000A46
:108A600087ED001AC6ED001A85ED002AC4ED002A34
:108A7000116004D5BB4B1A68D00700F152821FF079
:108A8000E7F9B94B9BED000AD8ED000A97ED001A03
:108A9000D6ED001A95ED002AD4ED002AA0FB0301C3
:108AA000830A43EA815307EE103AB04C9FEDB06A57
:108AB000D4ED0F7ADFEDAF8ADFEDAF6AB8EE477A1B
:108AC000204677EE677A84ED0E7A67EE867A84ED3B
:108AD0000F7AF4EEE87AF1EE10FA98BFF0EE678ABA
:108AE000F4EEE68AF1EE10FAB8BFF0EE668AB0EE68
:108AF000683AC4ED107A15F09DF994F82830002BEF
:108B000000F027829D4D236B2B60DFF8B0A2D4F8D4
:108B10002C90CAF800909A4BD4ED0D7A93ED007A20
:108B2000984B37EE877AC3ED007A17EE100A17EEEE
:108B3000104A26F0F3FB78A3D3E9002306460F463C
:108B400026F0D4FE002800F0F18175A3D3E90023BC
:108B50003046394626F082FA26F030FF8A4B0193E0
:108B600004461860484626F0D9FB6BA3D3E90023DE
:108B700026F076FA26F022FF814626F0CFFB66A388
:108B8000D3E9002306460F4626F0B0FE48B164A3A1
:108B9000D3E900233046394626F060FA26F00EFF6E
:108BA0008146286880F0004026F0B8FB5EA3D3E938
:108BB000002326F00BFC26F001FF09EE900A89F055
:108BC0000040C5ED009A26F0A9FB57A3D3E9002386
:108BD00026F0FCFB26F0F2FE09EE100A84F00040BD
:108BE0008AED009A26F09AFB4FA3D3E9002326F0E2
:108BF000EDFB26F0E3FE654B01991A680860D1078A
:108C00000AEE100A624C40F19D8194ED008A614E9B
:108C1000614F96ED007AD7ED007A39EEC77A7AEE99
:108C2000677AB5EEC07AF1EE10FAF5EEC07A4CBF75
:108C300001220022F1EE10FA4CBF012300239A42D8
:108C4000B5EEC09A00F01181F1EE10FA40F31181F7
:108C5000B0EEC99AD8F8000026F060FB32A3D3E941
:108C6000002326F0B3FB804618EE900A894626F0D2
:108C700055FB02460B464046494626F0A7FB804678
:108C800018EE100A894626F049FB02460B4640467C
:108C9000494626F0E5F926F091FE08EE100AF5EEB9
:108CA000C09AF1EE10FAB5EEC08A4CBF0122002244
:108CB000F1EE10FA4CBF012300239A4287ED00AA7F
:108CC000C6ED009A206000F02981DFED347A68EE6D
:108CD000277A9FED337A334BB4EEC79AF1EE10FA50
:108CE000ADBF002238EE678AC3ED007A1A602E4BC2
:108CF0002E4A1B7884ED008A03EBC30302EBC30307
:108D000085ED008A93F82030002B00F00281284C7A
:108D10002378002B63D053E0182D4454FB210940E5
:108D2000182D4454FB211940F8C1631ADCA54C40AE
:108D3000548E0020F48C0020788B00207C8B002047
:108D4000808B0020F88C0020C48D0020E88C00204F
:108D5000F08C0020F0ED00E0BC8D0020C08D0020E4
:108D60004C680020001000E040420F00E48D00201D
:108D7000BD3786350AD7233C6F12833ACC8D00204D
:108D80009C8F0020C08C0020988F00207C6A0020DF
:108D9000688B0020648B0020608B0020CDCCCC3C05
:108DA0000000AA42548B00202C8D002098600020E7
:108DB000538B0020E48C0020EC8C0020548D00208C
:108DC0000133DBB2052B237009D900210A2021F0E1
:108DD00035F90021032021F031F900232370DBED68
:108DE000007AB6EE007AF4EEC77AF1EE10FA63DD9F
:108DF000794E7A4D96ED007AF4EEC77A0123F1EEC2
:108E000010FA2B7000F3CC80B5EEC07AF1EE10FAB8
:108E100040F3CB80DFED726A37EE667A86ED007A3A
:108E2000B5EEC07AF1EE10FA40F2BF80F5EEC07AEE
:108E3000F1EE10FA6DD5DFED6B7AB4EEE77AF1EE74
:108E400010FA00F2B980F7EE007A37EE277AF2EEE8
:108E5000087A27EE277AFCEEC77ACDED017A9DF8E5
:108E600004304FEAC3085F003AE0F1EE10FA7FF6F3
:108E7000EFAEDFED5D7AB0EEC99AB4EEE79AF1EEAF
:108E800010FABFF6E7AEB5EEC08AF1EE10FAF5EED5
:108E9000C09A4CBF01220022F1EE10FA4CBF012310
:108EA00000239A4287ED00AAC6ED009A7FF40DAF29
:108EB0004E4B00221A601AE7F5EEC07AF1EE10FA76
:108EC00027D5464D2B7823B3434E96ED007AB5EE69
:108ED000C07AF1EE10FAAEDA18274FF060080C23D2
:108EE000434A4449127809789020FFF747FC4146ED
:108EF0000A2021F0A3F83946032021F09FF83E4ACA
:108F00003E4B12681A60002101220023316022705A
:108F10002B701FB0BDEC068BBDE8F08FDFED387A0B
:108F2000D7E65B689B0907EE103ABEE526A3D3E9B6
:108F300000233046394626F0BBFC48BB314B019339
:108F40001C600FE60122B0EE698AC4ED009A1A6037
:108F50005DE6204614F030FF2B4D94F82830226B4C
:108F60002A60002B7FF4D1AD204614F025FFDFF8F6
:108F70009CA094F82830D4F82C90CAF80090002BCC
:108F80007FF4C9AD204614F017FFDAF80090C2E56F
:108F90000FA3D3E900233046394626F061F8DBE51C
:108FA000C6ED007AB0EE677A3AE700232B701FB067
:108FB000BDEC068BBDE8F08FFC274FF47C787E2358
:108FC0008EE700BFAFF30080182D4454FB2109C089
:108FD000182D4454FB2119405C8B0020588B002035
:108FE0003333333FAE4719410000AA42548B00206F
:108FF000A08F0020AC620020688D0020888D0020AA
:1090000000000000988F0020CC8D0020548D00209F
:109010002D4A2E4938B5D2E90053D2E902042B4437
:109020000344D2E9040523440344D2E906402B4417
:10903000126A097823440344134429B1244A254879
:109040001278825C032A27D0234A244C12682448D1
:1090500024680068234DC3F500531A4422441218B3
:1090600017D4B2F5804FA8BF43F6FF722A601E4C9A
:109070002368934200D001B938BD1C49C2F3C7131D
:10908000097802F07F02E020FFF778FB2B6823606D
:1090900038BD00222A60EAE7154C164A164894F9B2
:1090A0000050127804781548521B121B07EE902AC4
:1090B00090ED007AF8EEE77A67EE877AFDEEE77AD0
:1090C00017EE902A1344BFE7346200204B8D002036
:1090D0002C8D0020CC620020D88C0020488E0020EF
:1090E00048680020C862002074610020AC62002043
:1090F0004C8E0020448D0020BC620020D0620020F5
:10910000CE499FEDCF6AD1ED007ACE4BCE4A93ED9A
:10911000007ADFEDCE6A2DE9F04F67EE867A2DED0D
:10912000028BE7EE267ACA4DCA4C92ED008A2B7864
:10913000C1ED007A37EE088A03EBC30338EE678A85
:10914000F6EE008A04EBC30368EE288A85B0C2ED10
:10915000008A93F8242093F81BB0019293F82520FD
:1091600093F82630029203931DF004FC2B78BA4A40
:1091700003EBC301F0EEE87AB3EE047A04EBC1012D
:10918000F4EEC77AF1EE10FA0D7ECCBF0126002670
:109190001670DA001DB991F82160002E7AD0AF491F
:1091A000DFF8E882DFF8E8E2DFF8E8C2AC4F0E78DB
:1091B0004FF000094FF0000AC8F80090C7F800907F
:1091C000CEF80090CCF800A07EB9B6EE007AF4EEAE
:1091D000C77AF1EE10FA08DDA24A012310600B7085
:1091E00005B0BDEC028BBDE8F08FDFF87892D9F8BE
:1091F0000090A0EB0909B9F10B0FF1D9DFF898A2A3
:109200009AF80090B9F1000F24D0DFF8909299F805
:109210000060002E47D09FED947A944EF4EEC77A0A
:10922000F1EE10FAC8BF30603668801BB0F5C87F19
:109230003ED9002389F800300B708AF800308C4B3F
:109240001B78022BCCD105B0BDEC028BBDE8F04FF2
:10925000FFF7DEBEB6EE007AF4EEC77AF1EE10FA52
:1092600000F39380DFF8349299F80070002FD2D188
:109270009FED7D7AF4EEC77AF1EE10FA01DD7B4BBB
:109280001860002EDBD0794B1B68C01AB0F5C87F80
:10929000CFD8D4E791F82260002E80D191F8231026
:1092A00000299DD07BE7714E0121306089F80010C4
:1092B000DFED707AB4EEE78AF1EE10FA4EDAD118EB
:1092C00004EBC101FFEE008AC97F00295AD00329AF
:1092D00000F0F980022900F02F81052900F00881B3
:1092E000042900F07881B0EE687A95B162499FED6B
:1092F000636AD1ED007A06EE90BA67EE867AF8EEF0
:10930000E66A67EEA67A67EE877AFDEEE77AC8ED41
:10931000007AD11804EBC10191F82100002846D051
:10932000DDED017A9FED567A91F82710F8EEE77A95
:1093300067EE877A99B3032900F03481022900F09F
:10934000F380052900F06781042900F0988168EE18
:10935000A77AFDEEE77A17EE901A26E0DFED497A5C
:10936000D118B4EEE78A04EBC101F1EE10FA98BF10
:10937000DFED457AC97F94BF68EEA78AF7EE008AD1
:109380000029A4D1B1EE687AAFE701268AF800601F
:109390003BE7F5EEC08AF1EE10FAC0F2CB8067EE43
:1093A000E87AFDEEE77A17EE901A2D480160D118A1
:1093B00004EBC10191F8220018B3DDED027A9FEDB4
:1093C000307A91F82810F8EEE77A67EE877AA1B143
:1093D000032900F0B980022900F09580052900F0EA
:1093E0003C81042900F0598167EEA87A07E0F5EE88
:1093F000C08AF1EE10FAC0F28C8067EEE87ACCED0C
:10940000007A134404EBC30494F82330002B3FF498
:1094100016AFDDED037A9FED1A7A94F82930F8EE55
:10942000E77A67EE877A002B3CD167EEE88AFDEE9B
:10943000E87A17EE903ACEF8003000E7208B002053
:109440006666663F7C8B0020248B0020CDCCCC3D13
:109450002C8D002098600020388E00201E8B00206C
:109460003C8E0020288B00203333B33E2C8B002011
:10947000588D00202506F0C1D06200200AD7233D78
:109480000AD7233F2506F0410A85883D488E0020F3
:10949000448E0020408E00201C8B00201D8B00205D
:1094A00000000000032B64D0022B35D0052B00F008
:1094B000C180042B00F0068168EEA77AFDEEE77A02
:1094C00017EE903AB7E75FED0A7AF5EEC08AF1EE53
:1094D00010FA8CBFB0EE677AB0EE687AFFEE007AD1
:1094E000B4EEE77AF1EE10FAB8BFB0EE677AFCE6B8
:1094F000F7EE007AF4EEE78AF1EE10FA40F2B88067
:10950000BFEE007AF1E6F5EEC08AF1EE10FA40F215
:10951000E7805FED1D7A72E7F5EEC08AF1EE10FA92
:1095200040F2E780002386E7F5EEC08AF1EE10FAFC
:1095300040F2EE80002138E7F5EEC08AF1EE10FA35
:109540005ED91FED297AD0E6F5EEC08A1FED2C7AA0
:10955000F1EE10FA98BFB0EE687AFFEE006AB4EE52
:10956000E67AF1EE10FAB8BFB0EE667A67EE877A67
:1095700045E7F5EEC08A1FED367AF1EE10FA88BFA6
:10958000F0EE478ABFEE007AF4EEC78AF1EE10FAE9
:10959000B8BFF0EE478A68EEA78AFDEEE87A17EECC
:1095A000903A48E7F5EEC08A1FED437AF1EE10FAE3
:1095B00098BFB0EE687AFFEE006AB4EEE67AF1EE9C
:1095C00010FAB8BFB0EE667A67EE277AFDEEE77A5A
:1095D00017EE901AE9E6F7EE007AF4EEE78AF1EE7C
:1095E00010FA8CBFB0EE677AB0EE687AB5EEC07A4A
:1095F0005FED557AF1EE10FAB8BFB0EE677A74E617
:10960000FFEE007AF4EEE78AF1EE10FABFF6BAAE9A
:10961000B7EE007A69E6B7EE007AF4EEC78AF1EEAB
:1096200010FA7FF6B6AEF1EE677AFDEEE77A17EE46
:10963000901ABAE6F5EEC08A1FED677AF1EE10FADD
:1096400088BFF0EE478ABFEE007AF4EEC78AF1EEEB
:1096500010FAB8BFF0EE478A2EE7B7EE007AF4EEC4
:10966000C78AF1EE10FA7FF6C2AEF1EE677AC6E66F
:10967000F5EEC08AF1EE10FABFF684AE61E7B7EE00
:10968000007AF4EEC78AF1EE10FA98BFB0EE687A6D
:109690005FED7D6AB5EEC07A91E7B7EE007AF4EE41
:1096A000C78AF1EE10FA98BFB0EE687AB5EEC07ACC
:1096B0005FED856AF1EE10FAB8BFB0EE667A67EE3C
:1096C000877A9CE6B7EE007AF4EEC78AF1EE10FADC
:1096D00088BFF0EE478AF5EEC08A1FED8F7AB6E7B5
:1096E000BFEE007AF4EEC78AF1EE10FABFF685AE4F
:1096F00085E6BFEE007AF4EEC78AF1EE10FAFFF6C7
:10970000DDAE67EEE87AFDEEE77A17EE903A92E684
:10971000BFEE007AF4EEC78AF1EE10FABFF63FAE64
:1097200054E700BF2DE9F843BD4BBE4A1D78C5EB99
:10973000C503C3EBC3031344EE0093F82D30403B45
:1097400007EE903AF8EEE77A00F1F1809FEDB67AF5
:10975000F7EE000AE7EE870A731BC3EBC30313445B
:1097600093F82E30403B07EE903AF8EEE77A00F19E
:10977000E980DFEDAD6AB7EE007AA7EEA67AAB49D5
:10978000731B01EB4301897A002900F0A680A849E8
:10979000C3EBC30391F800E0D018BEF1010F90F8BD
:1097A000241090F8273090F828C090F8259090F871
:1097B000294090F82A7090F82C8000F0EA804FF051
:1097C000090E6422403C403FB8F100081EFB012115
:1097D0001EFB03201EFB0C2C4FEA44044FEA4707F4
:1097E00018BF4FF001081EFB0922924B1B688342F1
:1097F00038DC411A0129B8BF012107EE901AC31ABB
:10980000B8EEE77A07EE903AF8EEE77AF7EE006AFC
:1098100087EE870AB4EEE60AF1EE10FAF4EE660A75
:1098200088BFB0EE660AF1EE10FA01D01AF032FEEF
:1098300007EE904AF8EEE77A27EE800A7E4B9FED1E
:109840007F7AD3ED007A7E4B7E4A1B7867EE877A6B
:10985000022B27EE800ABDEEC00A82ED000A7CD002
:10986000BDE8F8836345C0F29180A2EB0C02012AA7
:10987000B8BF012207EE902AA3EB0C03F8EEE76ACB
:1098800007EE903AF8EEE77A9FED6F6A87EEA60A48
:10989000F7EE007AB4EEC60AF1EE10FAB4EE677A8B
:1098A000B8BFB0EE460AF1EE10FA03D0F0EE470A68
:1098B0001AF0F0FDB8F1000F08D0F7EE007AB4EE20
:1098C000E70AF1EE10FA88BFB0EE670A07EE907A69
:1098D000F8EEE77A27EE800AB0E75C4909780329B9
:1098E0006DD053485A4900780968012857D0C3EB16
:1098F000C30313444FF0640993F82BE093F801C0BD
:10990000092212FB0E92521A01EB42028B186FF0E1
:109910001304581004FB0CF41427B7EE007A0CFB68
:1099200007F7F0EE470A84464FF001085DE7DFEDE8
:10993000496A9FED497A77EEA67AF5EE000AE7EEDE
:10994000870A09E79FED437ADFED436A77EE877A6E
:10995000B5EE007AA7EEA67A11E7404B354403EB4B
:10996000C50595F84530002B7FF47AAF95F8463061
:10997000002B7FF475AF95F84730002B7FF470AF64
:10998000374A1360BDE8F843FFF742BB9FED2E0A4C
:1099900054E72E4B1B78032B2ED02D4B19683148E2
:1099A000731BC3EBC3031344026893F801C06FF049
:1099B0001304531804FB0CF458100A27ADE724488D
:1099C000284C294907682468194809680078C3EBBE
:1099D000C3031344E21B93F801C001EB62020128A8
:1099E00001EB02036FF013044FEA630004FB0CF475
:1099F0000CBF0A27142790E71A4A154B1A491B680F
:109A00001268096890F801C0D21A01EB620253187B
:109A10006FF01304581004FB0CF40A277DE700BF15
:109A20002C8D002004600020320C433D2063002078
:109A300084610020D88D0020D06200200AD7233C0A
:109A4000588D0020D88C002000000000398D0020A7
:109A500010630020000080420000403C986000201D
:109A6000C86200202C8F0020308F00202DE9F84F95
:109A7000B74BB84ADFEDB87AD2ED004A9FEDB75A3E
:109A80009FEDB77ADFF8F4829FEDB64A2DED048B97
:109A9000D3ED009AB44BF4EEE79A93ED009AB34BF2
:109AA000F1EE10FAF4EEE74A8CBFF0EE675AF0EEF2
:109AB000695AF1EE10FA75EEA75A8CBFB0EE676ADC
:109AC000B0EE646AB4EEC59A76EE277AB0EE478AB5
:109AD000B1EE046AF1EE10FAA5EE868A1D78A44B69
:109AE0008CBFF0EE456AF0EE496AF0EE475A76EE2A
:109AF000856AE7EE865A05EBC50708EBC707B0EEA7
:109B0000045AA6EE857A97F84560FDEEE57AD3ED26
:109B1000008A17EE902AFDEEC77ABDEEC88A17EECE
:109B2000904A68EE848A4FEAC509002E76D0DFEDB0
:109B3000917A97F8313097F82CE097F82A1097F837
:109B40002D0097F82BB097F82E6097F82F70F4EE51
:109B5000E74AF1EE10FA4FF0640CB8BF62464FF0DE
:109B6000190A403B07EE903A1AFB0ECC00F1D58162
:109B700009EB050308EBC303F8EEE77A93F83230FC
:109B80009FED807AF7EE000A403BE7EE870A00F18E
:109B9000D98107EE903ADFED7B6AF8EEE77AB7EE0F
:109BA000007AA7EEA67A09EB050308EBC3039445F8
:109BB00093F830A0F0EE477AC0F2DD81AEEB010100
:109BC00001EB810101EB81010129B8BF0121ACEB5F
:109BD000020207EE901A07EE102AF7EE006AF8EE7E
:109BE000E77AB8EEC77AF4EE660AF1EE10FA87EE7D
:109BF000270A01D01AF04EFCBAF1000F40F077822C
:109C0000403E760007EE906AF8EEE77A67EEA87AB3
:109C100067EE807AFDEEE77A17EE906A09EB0500B1
:109C200008EBC00090F84630002B00F0E580DFED37
:109C3000517A90F835C090F83A3090F8332090F887
:109C4000361090F834E090F8377090F838A0F4EEC1
:109C5000E79A18EE100AF1EE10FA4FF0640BB8BF55
:109C6000584608EE100A403B4FF0190007EE903AB4
:109C700010FB0CB000F1BF8109EB050308EBC30337
:109C8000F8EEE77A93F83B309FED3E7AF7EE000A64
:109C9000403BE7EE870A00F1C38107EE903ADFED23
:109CA000396AF8EEE77AB7EE007AA7EEA67AF0EE18
:109CB000477A09EB050308EBC30393F839B018EEB4
:109CC000103A984260DA1922642312FB013318EE2D
:109CD000102A934200F39080AEEB010101EB810169
:109CE00001EB81010129B8BF0121D31A08EE103A16
:109CF00007EE101AB8EEC88AB8EEC77ADFED1E6A12
:109D000088EE070AB7EE007AB4EEE60AF1EE10FA32
:109D1000F4EE477AB8BFB0EE660AF1EE10FA03D05F
:109D2000F0EE670A1AF0B6FBBBF1000F08D0F7EEB1
:109D3000007AB4EEE70AF1EE10FA88BFB0EE670AD7
:109D4000AAF1400A4FEA4A0A07EE90AA49E000BF8A
:109D5000548D0020CC8D00200000B442000034431C
:109D60000000C8420AD7233C988F00202C8D002089
:109D7000D06200200000B4C2000000009860002003
:109D8000000034C3320C433DACEB020202EB820212
:109D900002EB8202012AB8BF012207EE902AC31A01
:109DA00008EE103AB8EEE77AF7EE007AB8EEC88A15
:109DB000F4EE670AF1EE10FA88EE070A01D01AF005
:109DC00069FBBBF1000F08D0F7EE007AB4EEE70AAA
:109DD000F1EE10FA88BFB0EE670A403F7F0007EE51
:109DE000907AF8EEE77A67EEA87A67EE807AFDEE71
:109DF000E77A17EE903A1E4409EB050208EBC2021F
:109E000092F84730002B72D05FED237A92F84330FE
:109E100092F83E1092F83CE092F83FC092F83D0074
:109E200092F8407092F841A0B4EEE79AF1EE10FA81
:109E30004FF06402B8BF1446403B07EE903A4FF033
:109E4000190BF8EEE77A1BFB01225BD41FED337A86
:109E5000F7EE000AE7EE870A09EB050308EBC303F8
:109E600093F84430403B07EE903AF8EEE77A00F181
:109E700028811FED3C7AF7EE006AE7EE876A09EB6E
:109E8000050308EBC303944293F8425000F3D980D2
:109E9000A1EB0E0101EB810101EB81010129B8BFAA
:109EA0000121131B07EE103A07EE901AF7EE006A35
:109EB000F8EEE77AB8EEC77AF4EE660AF1EE10FA39
:109EC00087EE270A01D01AF0E5FA002D40F019813B
:109ED000403F7F0007EE907AF8EEE77A67EEA88AB7
:109EE00068EE808AFDEEE88A18EE903A1E448A4BAE
:109EF0008A4A1B781660022B00F0EE80BDEC048BC2
:109F0000BDE8F88FDFED866A9FED867A77EEA67A58
:109F1000F5EE000AE7EE870A9EE709EB050308EB7A
:109F2000C303F8EEE77ADFED7E6A93F832309FEDF7
:109F30007D7A77EEA67AF5EE000A403BE7EE870AD7
:109F40007FF527AE07EE903A9FED757ADFED756AE3
:109F5000F8EEE77A09EB050377EE877AB5EE007A3B
:109F6000A7EEA67A08EBC303944593F830A0F0EE71
:109F7000477ABFF623AE1921642311FB00339342C5
:109F800000F3B380ABEB000000EB800000EB80003F
:109F90000128B8BF0120D21A07EE100A06EE902A57
:109FA000B8EEC77AF8EEE66A9FED5F6A86EE870A3A
:109FB000B7EE007AB4EEC60AF1EE10FAF4EE477A84
:109FC000B8BFB0EE460AF1EE10FA03D0F0EE670A21
:109FD0001AF060FABAF1000F08D0F7EE007AB4EE8A
:109FE000E70AF1EE10FA88BFB0EE670A403F7F0043
:109FF00007EE907A08E609EB050308EBC303F8EED9
:10A00000E77ADFED476A93F83B309FED467A77EECB
:10A01000A67AF5EE000A403BE7EE870A7FF53DAEF3
:10A0200007EE903A9FED3E7ADFED3E6AF8EEE77A72
:10A0300077EE877AB5EE007AA7EEA67AF0EE477A49
:10A0400037E61923642213FB0C239C42FFF64FAF23
:10A05000A0EB0C0000EB800000EB80000128B8BFF3
:10A06000012007EE900AE41AB8EEE77A07EE904A6C
:10A07000F8EEE77A9FED2C6A87EE870AF7EE007A12
:10A08000B4EEC60AF1EE10FAF4EE676AB8BFB0EEAD
:10A09000460AF1EE10FA03D0F0EE660A1AF0FAF969
:10A0A00045B1F7EE007AB4EEE70AF1EE10FA88BF98
:10A0B000B0EE670AAAF1400A4FEA4A0A07EE90AAF0
:10A0C0000AE7DFED176A9FED177A77EEA67AF5EECD
:10A0D000006AE7EE876AD2E6BDEC048B134B0022E0
:10A0E0001A60BDE8F84FFEF793BF002696E5F7EE3D
:10A0F000007AB4EEE70AF1EE10FA88BFB0EE670A14
:10A100007EE5F7EE007AB4EEE70AF1EE10FA88BFCA
:10A11000B0EE670ADCE600BF588D002048680020DA
:10A12000000080420000403C00000000C8620020A7
:10A130002DE9F843AF482422002125F0E7FEAE4B7D
:10A140001B78002B44D0032B42D0AA4CA368002BD1
:10A1500044D1E568002D75D16FF00106A74BA84AE0
:10A160001B78D35C9A1E012A00F2BC80A54F386888
:10A170004307C0F3800968D50023DFF8A482A360F9
:10A18000032D00F0CF8038680207C0F3C00900F14A
:10A19000B6809D4D2A78002A40F012819B4B1868AA
:10A1A0009B4B1B78834200F0E580D4E90231D8F85C
:10A1B00000200B445B42934206DD012E40F2B78043
:10A1C00052420023C4E90223BDE8F843FEF720BF52
:10A1D000884CFEF759F8A368002BBAD0874B884A01
:10A1E0001B78D35C9A1E012A40F29580894A127826
:10A1F000012A00F0878002250026022AE4D113F00C
:10A20000FB0F32D1844B854A1B7891687D488B4285
:10A21000006802DA470740F10B81022D4CD0002183
:10A22000A160D26893424ADB032D01D00023E36092
:10A23000012EC9D9D4E90231794A12680B449342FC
:10A24000C2DDBEE70126032588E7DFF8BC8198F868
:10A250000020002A40F0AA806C4B18686C4B1B78D9
:10A26000834269D0DFF8B8818AE7012B01D00A2B3D
:10A27000AAD1644B1A68D60500F1F380150700F1E6
:10A28000ED80664B644ADB681278934240F30381A9
:10A2900063486449D0ED007AD1ED036A9B1A07EE5A
:10A2A000103AF8EEE77AB8EEC77AE7EE667AFDEE96
:10A2B000E77AC4ED037A87E7D2689342B6DA0707F4
:10A2C000B2D4032DB4D0D31A564907EE903A91ED8B
:10A2D000037AF8EEE77A67EE877AFDEEE77AC4ED67
:10A2E000037AA5E74B4A1278012A86D14C4A1268B4
:10A2F0000023C4E90223BDE8F843FEF789BE00232A
:10A30000E36052E7E368002B7FF45EAF444AA3604A
:10A310001368E36058E73B4F386810F4807659D1F2
:10A32000022525E73868C1053FF53FAF2CE73B68BC
:10A33000DB053FF549AF43E7384A374B92681B7856
:10A34000934250DA3849394B89689B68DFF8D080EE
:10A350000A449B1A07EE903A3249F8EE677A91ED7B
:10A36000027A67EE877AFDEEE77A17EE903A5B4263
:10A37000A36005E7294A284BD2681B789A422DDD55
:10A3800029492A4BC968DB680A449B1A07EE903AB0
:10A390002449F8EE677A91ED037A67EE877AFDEE4D
:10A3A000E77A17EE903A5B42E360FEE640F0040085
:10A3B0003860FDF7E1FD154B88F8009018604DE717
:10A3C00040F008003860FDF7D7FD104B85F800908D
:10A3D0001860E5E6DFF848800026D4E6D8F80030BB
:10A3E0005B42E360E1E6DFF83880D8F800305B429A
:10A3F000A360C5E634620020588D00202C8D00201B
:10A40000B8620020008D0020286200203C8B0020D4
:10A41000BC620020688F002009630020D88E0020D5
:10A42000848B00206C8F0020B48E00204C630020B1
:10A43000022D3FF441AFC91A194F07EE901A97ED5C
:10A44000027AF8EEE77A67EE877AFDEEE77AC4EDF6
:10A45000027AE6E602DB12077FF5B6AE0023E36080
:10A46000B2E6104B1049DB6809788B42F2DD100729
:10A47000F4D4032D3FF4A8AE5B1A094A07EE903AD4
:10A4800092ED037AF8EEE77A67EE877AFDEEE77AE7
:10A49000C4ED037A98E6054B1B68E36094E600BFC1
:10A4A0006C8F0020D88E002009630020848B002050
:10A4B0002DE9F04F3C4C3D4883B02422002125F08B
:10A4C00025FD2678002E6AD0032E68D0384BDFF8A1
:10A4D000F8E01B683748384C384901930023DEF810
:10A4E000002000682478D1F80080354DDFF8BCC02A
:10A4F000DFF8D8909A46012712E055F82310A142C0
:10A500000BDA20FA03F107FA03FBC90722EA0B0270
:10A5100003D522FA03F1C9070AD50133092B2DD03F
:10A5200022FA03F1C907E8D420FA03F1C907F4D5E8
:10A53000012E03D05CF823100029EED155F823102A
:10A540008C4222DA28FA03FB1BF0010F23D1091BEE
:10A5500007EE901A1B4903F8097001EB830191ED96
:10A56000007AF8EEE77A67EE877AFDEEE77A17EE83
:10A57000901A4CF823100133092BD1D1CEF80020CA
:10A5800003B0BDE8F04FFEF743BD28FA03F1C90759
:10A5900003F809A0C1D501994CF82310BDE7FDF7D8
:10A5A00073FE267892E700BF588D002034620020A9
:10A5B000848B00208863002009630020008D002028
:10A5C000D88E00206C8F0020048D00205C8D002030
:10A5D00038B51A4C1A4D2378C3EBC302C2EBC20044
:10A5E000D900285C20B1174800EB4202527802B330
:10A5F000154A0B4402EBC30393F8452012B993F8B4
:10A6000046206AB1FFF732FA104B1B781BB1BDE848
:10A610003840FFF78DBD0E4B1B78022B05D138BD9E
:10A6200093F84730002BEFD0ECE7BDE83840FFF758
:10A630003FBFFFF777F82378D900D9E72C8D0020AA
:10A64000046000202063002098600020CC8C002053
:10A65000588D00202DE9F047354E364A337803EB0C
:10A6600043010A44125CEAB100EB80094FF0320862
:10A67000314F08FB03920446BD5C012D07EB02013C
:10A680004FEA800A1CD0052D0ED0062D2CD12B4967
:10A6900091F90020033205DB2948C25C013A52B22D
:10A6A000C2540A70BDE8F087244991F90020022ABB
:10A6B000F8DC2348C25C013252B2C2540A70F1E79E
:10A6C0004A780AB3012AEDD154444FF0320A0AFB0A
:10A6D00003433B441A79D9789878FBF75BFE3378CB
:10A6E0000AFB03443D5DCEE70A2D05D1154A1378D8
:10A6F00001331370BDE8F0870B2DD3D1114A1378C5
:10A70000013B1370BDE8F0870B79CA7889789020F7
:10A71000FEF734F833780C4A08FB0398155517F800
:10A720000850012DB844AED198F80120CAE700BF07
:10A730002C8D0020308D00208C6100204C8D00205D
:10A74000508D0020458D00203C8D0020114B12487B
:10A750001B78124AC3EBC303C3EBC30318440121A4
:10A76000837A11708B4203D0022B0DD033B1704726
:10A77000437B027BC17A8020FEF700B8437B027BDB
:10A78000C17A9020FDF7FABF427B017BC07AFBF7CC
:10A7900001BE00BF2C8D002004600020D48C00205E
:10A7A000114B12481B78124AC3EBC303C3EBC3031C
:10A7B00018440021837B1170012B03D0022B0DD094
:10A7C00033B17047437C027CC17B8020FDF7D6BF4C
:10A7D000437C027CC17B9020FDF7D0BF427C017C92
:10A7E000C07BFBF7D7BD00BF2C8D0020046000208C
:10A7F000D48C0020914B2DE9F0471B8843F48073E3
:10A800005A1C1A4282B06CD000210A4613F0010F84
:10A8100008BF11465B1002F10102F7D101F13E04BD
:10A82000E4B2462C28BF46243C3C854D854A2B7813
:10A83000C3EBC303C3EBC30313449A7C032A3DD089
:10A84000DFF84C82D8F800307F4A8049804F91F879
:10A8500000C0D2F800905168D7F800E07D487E4EE5
:10A8600004FB0C145FFA8EF299450460327016DB1B
:10A870007A4B0121002031700A4618702B787848F5
:10A880003960C3EBC30300EB43035B7923B1754C21
:10A890002378012B27D0227002B0BDE8F08709F1A0
:10A8A0000101994208DA7049BEF1010F097804BF2D
:10A8B0000222327001292DD01146DFE76B4A12784F
:10A8C000CAB9197DDA7CDFF8C88142EAC112D8F82A
:10A8D000003005329A42B7DAFFF738FFD8F8003077
:10A8E000B2E70A24A1E7012AD5D01CF043F8604B57
:10A8F00032781860CFE7DFF89881197DDA7CD8F8D4
:10A90000003042EAC1129A429EDDFFF749FFD8F8B3
:10A91000003099E75749087800283DD0A4EB090199
:10A9200000FB01F1DFF86CC101EB41008CFB00A9D9
:10A930008CFB01ACC017C917A0EBE910C1EBEC11FF
:10A94000214404444C48DFF8509101609942C9F811
:10A95000004013DB9C4221DB0222BEF1010F32706A
:10A9600028D0BEF1030FA7D11CF004F8434B1B689D
:10A97000C01A142852D8327811467FE7374B00218D
:10A980000322BEF1010F1970327095D0BEF1030F92
:10A9900092D17246114671E72146D3E7BEF1010F0D
:10A9A00006D0BEF1030F87D1022ADDD0114665E73C
:10A9B000022A81D1294C01931BF0DCFF94F800C0DE
:10A9C000019BBCF1000F15D12D4A2E49D2F800E0B1
:10A9D00008602D4A2D49C2F800C00120C1F800C00E
:10A9E0002070BEF1000F25D1022100230A462370FA
:10A9F000327043E72349224A09681268401A90429C
:10AA0000F2D2214A1168A1B1204A116813605B1A81
:10AA1000002BE9DD3A78327011462FE7D9F8002093
:10AA2000D8F800100120FDF7E7FB02463070014620
:10AA300024E716490B6001201060EBE7008D002031
:10AA40002C8D00200460002010630020BB620020D9
:10AA5000C48C002070630020398D0020FC8C002005
:10AA6000206300200863002084610020D48C002033
:10AA7000648F0020306200202C8F0020DC8C0020AE
:10AA80009C620020308B0020B88D0020AC8D00200F
:10AA9000D88D00201F85EB51308F00202DE9F84321
:10AAA0001BF068FF8D4D8E4A2B6811689942044651
:10AAB00000F09180DFF860828A4F8B4E98F800108A
:10AAC0001360012238603270002933D1874B19603E
:10AAD000874B884F4FF00108002483F800803470C2
:10AAE0001BF048FF844B024628681A60FDF744FAC1
:10AAF0002146034640463B70FDF7D0FD3E787F2E51
:10AB000067D07E4F3B78B34263D07D4B1B78022BDE
:10AB10000BD07C4B2A681A607B482422214625F002
:10AB2000F5F97A4BC3E900441C723E70BDE8F84366
:10AB3000FFF760BE99461BF01DFF754A754B1278F2
:10AB4000196828688A4203DAC10758BF49F0010929
:10AB500059688A4203DA810758BF49F002099968A7
:10AB60008A4203DA410758BF49F00409D9688A428A
:10AB700003DA010758BF49F0080919698A4203DA64
:10AB8000C10658BF49F0100959698A4203DA8106A3
:10AB900058BF49F0200999698A4203DA410658BF33
:10ABA00049F04009D9698A4203DA010658BF49F0E1
:10ABB00080091B6A9A4203DAC30558BF49F48079B9
:10ABC00048451BD1494B327800211960002A7FF497
:10ABD0007FAFBDE8F883DFF81491424FD9F8003019
:10ABE0003868241A002B72D09C4219D33E4E32781A
:10ABF0000023C9F80030002AEBD069E7FDF7BCF963
:10AC0000034648469946FDF7B7F97F28DAD08145D3
:10AC1000D8D0DFF8D89098F80030C9F80030DFE7D6
:10AC20002E681BF0A7FE3A4A3A4B1278196828683A
:10AC30008A4203DAC70758BF46F0010659689142B5
:10AC400003DD810758BF46F0020699688A4203DA9D
:10AC5000470758BF46F00406D9688A4203DA01075D
:10AC600058BF46F0080619698A4203DAC70658BF7A
:10AC700046F0100659698A4203DA810658BF46F049
:10AC8000200699698A4203DA470658BF46F0400613
:10AC9000D9698A4203DA010658BF46F080061B6A6A
:10ACA0009A4203DAC30558BF46F48076B0429DD07D
:10ACB000FDF762F9034630461E46FDF75DF97F2831
:10ACC00094D0864292D0D9F800309C4281D3064E6F
:10ACD0003278002A3FF47DAFFAE600BF008D0020F5
:10ACE000FC620020348B0020388B0020248F002051
:10ACF000286200204A630020DC8C0020BC62002017
:10AD0000588D0020048D0020346200205C8D0020CE
:10AD100009630020D88E0020208F0020102928BF32
:10AD20001021012900F0F00038BF0121C0282DE9D1
:10AD3000F04102F07F0535D0D0280BD1234E337877
:10AD4000012B09D1224B1B6833B1013961F02F046B
:10AD5000E4B218E0BDE8F0811E4F7B6D0139186840
:10AD600061F02F040368E4B21B68214698477B6DAD
:10AD70001868036829461B68984733781BB9164B37
:10AD80001B78022BE6D0154E736D186803682146B8
:10AD90001B699847736D1868036829461B69BDE8ED
:10ADA000F0411847094E3378012B07D1084B1B6837
:10ADB00023B1013961F03F04E4B2E4E7054F7B6D54
:10ADC0000139186861F03F04CCE700BF70610020D2
:10ADD000BC8C002054680020646900203867002083
:10ADE0002DE9F04F664E674D3778C7EBC703C3EBCD
:10ADF000C3032B4485B09B78012B80464FEAC704E0
:10AE000026D0DFF8B891E31B09EB43039B79DA07FF
:10AE10003DD49B0719D55C4B1B78B3B15B4A5C4BA7
:10AE2000D46B1B685B4D1C442B6884F307049C4265
:10AE300002D1B8F1000F08D0574B584A1978127850
:10AE4000E3B2A020FDF79AFC2C6005B0BDE8F08FBE
:10AE50004E4A534BD2681B68DFF864A102EB03092A
:10AE6000DAF8003089F307094B4501D10028C8D032
:10AE7000E41BC4EBC4042C445FFA89F261792079A5
:10AE8000FBF788FA3778CAF80090FC00B9E7454A22
:10AE90004549D2ED006A91ED020A9FED447ADFED5B
:10AEA000447A009330EE260A03A8B4EEC70AF1EE06
:10AEB00010FA88BFB0EE470AB4EEE70AF1EE10FAD6
:10AEC000B8BFB0EE670ACDED037A19F081F92E4ACA
:10AED000009B1278F0EE407AFEEEEC7ACDED017A2E
:10AEE0002AB3DDED037AFDEEE77A17EE90AA8AF336
:10AEF000070ADFF8D0B0DBF80020E41B5245C4EBB2
:10AF0000C4042BD02C4494F82F30BBB9224C2178A8
:10AF10005FFA8AF2D020FFF701FF3378CBF800A068
:10AF2000C3EBC30309EB430999F8063071E72149E4
:10AF300009686429D5DC01929246DAE7AAEB02029D
:10AF40000F321E2AE2D81C4D134C9DF804202078A5
:10AF50005721FBF71FFA019B2B60D8E7254495F892
:10AF60002F2042B1144D01992A688A42ECD1B8F1E0
:10AF7000000FE9D14DE7B8F1000F3FF44AAFC5E744
:10AF80002C8D0020046000204B8D00205C6200208E
:10AF9000448E0020A48D0020AC620020448D00204F
:10AFA0003C8E0020408E0020188D00200000FE42C4
:10AFB00000000000D88D00209C8D00202063002020
:10AFC000948D0020988D00202DE9F04FBB4DBC4C96
:10AFD0002B78BC4EC3EBC30204EB4202307892796B
:10AFE000002A83B014BF4FF003094FF01009DA00B4
:10AFF00000283BD0B449DFF8F4C2C95CB34F032941
:10B00000B349097800F0E5809CF900E097F800C0AA
:10B01000A1EB0E018C4502D0BCF1000F2AD1DFF864
:10B02000F48298F80030012B00F09D803A78002AD5
:10B0300000F0A7802B78C3EBC30104EB41046178D7
:10B04000002940F09980A349CB5C032B00F082815A
:10B05000A14B1B78032B06D0A04B1A6840F2FF13BC
:10B060009A4200F08E8003B0BDE8F08F974F397898
:10B070000029F8D0DFF89C8298F800100129A2EB93
:10B08000030104EB4101497840F2BA80002940F005
:10B09000B980D11A04EB41014979002900F0D78029
:10B0A000002800F0CA80DFF828B29BF80010019158
:10B0B000D11A04EB410191F809A0BAF1000F00F098
:10B0C00052818749DFF83C9200914FF0010A85498F
:10B0D0000978002900F09E8083490968002900F062
:10B0E00099808249387891F800C0D31A04EB430361
:10B0F00000EB0C021B7AD2B201208BF800203070DA
:10B10000002B40F01F817A4B00991B780978902022
:10B11000FDF734FBBAF1000F40F00C811BF02AFC64
:10B12000DFF8F4A1CAF800001BF024FC2B78714A68
:10B13000DAF800101160C3EBC303C3EBC3039944F7
:10B14000DFF8D8C199F812306B4A3978CCF8000092
:10B15000022B117000F0E680307800287FF461AF98
:10B1600003B0BDE8F08F2B78C3EBC30204EB4204BD
:10B17000627832B13A7822B16049097800297FF4C7
:10B1800062AF574B524A1978127840238020FDF75E
:10B19000F5FA2A785A4902EBC20301EBC301D30046
:10B1A000C97D012900F082809B1A564AC3EBC30374
:10B1B000134400229B7C3270022B7FF454AF524B1D
:10B1C0001B78002B3FF44FAF03B0BDE8F04FFFF703
:10B1D000E7BA9CF9008097F800C0DFF844E1A1EBE2
:10B1E0000801ACEB010100299EF800E0B8BF49421C
:10B1F0008E453FF714AFBCF1000F7FF43BAF0EE775
:10B200000029AAD03D49097800297FF442AF0028DF
:10B21000A6D006E7D11AC1EBC100484480780128C6
:10B2200005D004EB41018879002800F097800120C7
:10B23000FFF7D6FD2B78DA0053E71BF09BFB334B6F
:10B240001B68C01A484587D32B783078DA00DFF8BE
:10B2500080B09BF80010019100287FF429AFDFF83F
:10B26000A490D11AC1EBC10149448978002940F06A
:10B270009E80D11A04EB41014979002940F0918068
:10B28000D11A04EB41018979C8077FD4890777D4A3
:10B29000DFF86CA0D1180AEBC101C97D012900F0CB
:10B2A0008B800F4900914FF0000A10E71BF062FB02
:10B2B0002A781749D300086076E700BF2C8D00205C
:10B2C000206300204B8D0020CC620020BC62002057
:10B2D000448D0020B862002084610020008D002091
:10B2E000AC62002070610020BC8C00204C8E0020DD
:10B2F00077630020888D002000630020848D00206B
:10B300009860002004600020D48C0020648F00200E
:10B31000C08B0020398D0020688D0020408D0020DA
:10B32000AD620020394B1B78002B7FF415AFFFF77F
:10B330000DFA11E7DDE90032802019784023FDF78E
:10B340001DFAEBE6FFF744F931493A780B781A44D5
:10B35000D2B2D8E63F2A7FF47BAE12E749790129C1
:10B360007FF4BFAE63E72B4B019A197800938020DE
:10B370004023FDF703FA2B78DFF8A890DA00A6E661
:10B380000320FDF7D5F82B78DA0081E70220FDF7DE
:10B39000CFF82B78C3EBC30104EB4101DA008979C4
:10B3A00074E70120FDF7C4F82B78DA0068E7FDF7B1
:10B3B000BFF82B78DA005CE71BF0DCFA2B78164A32
:10B3C00003EBC3010AEBC10AD2F800C09AF81920B6
:10B3D000C2EB421102EB8101A0EB0C00B0EB410F7C
:10B3E0004FEAC3020CD90D480D49D0ED007A094847
:10B3F0000090F1EE677AC1ED007A4FF0000A66E640
:10B40000044900914FF0000A61E600BFD48C00208F
:10B410004C8E0020AC620020C08B0020C08C00202D
:10B420009C8F0020046000202DE9F041C44DC549E7
:10B430002B7803EBC30201EBC20182B091F822002A
:10B44000DA0018B991F8230000282DD0BE4CBF4E69
:10B450002768BF48D11AC1EBC1010144897800298E
:10B4600040F0D080BB4FD11A07EB41014979002948
:10B4700040F0C280D31A07EB43039B79D80777D4F7
:10B48000990733D40020FFF7ABFC23683360B24B3D
:10B490001A68D20717D4B149B14A0968116001226C
:10B4A0001A6002B0BDE8F08191F821100029CDD1D9
:10B4B000A54CA64E27683168C91B0029B8BF494270
:10B4C0000129C6DCE3E7A64CA44D23682A689B1A31
:10B4D000002BB8BF5B42022BE3DD01210020FDF70A
:10B4E000DDF82B68236002B0BDE8F0819D4BDFF8EA
:10B4F0008C821B682068D8F83420A0EB8300D8F831
:10B50000303020EAE070B0EB830F4FEA8301C0F0E7
:10B51000BF809200904228BF10464FF48063009392
:10B5200000231BF015FA904BDA78012A034600F04D
:10B53000BE80022A00F0C1808C49DFED8D6A8A79D5
:10B54000C8798C49801A03FB00F307EE903A07EEA6
:10B55000102AF8EEE77AB8EEC77AA7EEA67AF0EEF0
:10B56000477ABCEEC77AC1ED037A88ED0F7A89E796
:10B570007C4BDFF808821B682068D8F82420A0EBF9
:10B580008300D8F8203020EAE070B0EB830F4FEA58
:10B5900083017AD39200904228BF10464FF4806313
:10B5A000009300231BF0D4F96F4B9A78012A0346CD
:10B5B00077D0022A00F0E4806C49DFED6D6A0A79E9
:10B5C00048792978801A03FB00F307EE903A07EEDA
:10B5D000102AF8EEE77AB8EEC77AC1EBC101A7EE00
:10B5E000A67A644A07EB4107FCEEC77ABB7982ED85
:10B5F000027AC8ED0B7A43E70120FCF799FF2B781C
:10B60000DA0037E7574BDFF874811868D8F8003054
:10B61000D8F80420A7EB800020EAE070B0EB830F9D
:10B620004FEA83012ED39200904228BF10464FF478
:10B630008063009300231BF08BF94B4B1A78012A8F
:10B64000034628D0022A57D04849DFED496A0A78D4
:10B650004878484F801A03FB00F307EE903A07EE54
:10B66000102AF8EEE77AB8EEC77A2B78A7EEA67A1A
:10B67000DA00F0EE477ABCEEC77AC7ED007A88EDC3
:10B68000037AEFE608469200D1E70846920085E784
:10B690000846920041E700FB00F003FB00F31B1596
:10B6A000D2E700FB00F003FB00F31B1584E700FB6F
:10B6B00000F003FB00F31B153EE700283FF43CAF0E
:10B6C00023F01AFE41EC100B18F0FEFD1AA3D3E98B
:10B6D000002351EC100B23F079FE24F06FF907EEF4
:10B6E000900A9FED257A67EEA77A67EE877AFDEEDE
:10B6F000E77A17EE903A1FE70028A5D023F0FCFD6B
:10B7000041EC100B18F0E0FD0BA3D3E9002351EC42
:10B71000100B23F05BFE24F051F907EE900A9FED29
:10B72000167A67EEA77A67EE877AFDEEE77A17EE6C
:10B73000903A89E7AFF30080FE822B654715F73F0B
:10B740002C8D002098600020508E0020A88D0020B5
:10B750000460002020630020786A0020D88D00203B
:10B76000408B002010630020C88C0020C0620020A5
:10B770000000803A188D00200AD723415C62002027
:10B7800000283FF419AF23F0B7FD41EC100B18F07F
:10B790009BFD0CA3D3E9002351EC100B23F016FE04
:10B7A00024F00CF907EE900A9FED057A67EEA77A70
:10B7B00067EE877AFDEEE77A17EE903AFCE600BF77
:10B7C0000AD72341FE822B654715F73F036810B562
:10B7D00004460BB17430984794F87530803B7F2B4A
:10B7E00043D8DFE803F049424242424242424242E9
:10B7F0004242424242425542424242424242424216
:10B800004242424242425942424242424242424201
:10B810004242424242425D424242424242424242ED
:10B8200042424242424261424242424242424242D9
:10B830004242424242426B424242424242424242BF
:10B840004242424242426F424242424242424242AB
:10B85000424242424242839098A842424342ACB0A4
:10B86000B4B8BC42C040236D1BB910BD636B002B44
:10B87000FBD0BDE810401847A368002BF5D094F822
:10B88000772094F8761094F87400BDE810401847BB
:10B89000E368002BF3D1E8E72369002BEFD1E4E75D
:10B8A0006369002BEBD1E0E7A369002BDDD094F8AE
:10B8B000761094F87400BDE810401847E369002B37
:10B8C000F5D1D2E7226A002ACFD094F8771094F805
:10B8D000763094F87400C90101F47E5103F07F03BF
:10B8E0001943BDE81040A1F500511047636A002BD1
:10B8F000BBD0B4F87610802904F1780028BF8021ED
:10B90000BDE810401847A36A002BAED094F876002B
:10B91000BDE810401847E26A002AA6D094F87730B4
:10B9200094F87600DB0103F47E5300F07F00BDE85D
:10B93000104018431047236B002BE7D195E7A36B0A
:10B94000002B96D191E7236C002B92D18DE7E36B0E
:10B95000002B8ED189E7636C002B8AD185E7A36C1D
:10B96000002B86D181E7E36C002B82D17DE700BFFD
:10B9700038B5436D044618680368DB6898470028AB
:10B9800045D094F80D31626D23F0010384F80D3138
:10B99000106803681B699847C3B2FD2B37D0626EED
:10B9A000BABB94F9591094F8592084F85B300029F7
:10B9B00018DA02F10C01C9B2012913D9FD2A11D0FC
:10B9C000EF2A94BF02F0F001114601F0CF05802D5F
:10B9D00000F09C80D02900F0998001F0DF01C0299F
:10B9E00000F0948040B20028C0F2788294F90D01F2
:10B9F000636840F0010084F80D0103B1984700200E
:10BA000084F85900C4E9180038BD0132626600208C
:10BA100038BD010653D494F85B10F02900F09681EC
:10BA2000F72900F09381A11881F85B30216E4B1E3D
:10BA30009A42EAD394F85B30F02B00F09881F72B10
:10BA400000F095811A0640F1FE81F42B00F0FB8195
:10BA5000F52B00F02682FD2B00F0F581EF2B94BF33
:10BA600003F0F0021A46802A84F8752006D0902A46
:10BA700004D0B02A02D0A02A40F0278203F00F00A1
:10BA800094F85C5084F876500130032984F87400EF
:10BA900000F00482002100200125B02AC4E918002A
:10BAA00084F8771084F8F85005D0B02A40F2E3818A
:10BAB000E02A40F0DA8184F85930012038BDA3F142
:10BAC000F0010F29A7D801A050F821F0A1BD020074
:10BAD00017BA020017BA020017BA020017BA02001A
