:020000022000DC
:106000000000042005840400458404004784040043
:10601000498404004B8404004D8404000000000007
:106020000000000000000000000000008183040068
:106030005184040000000000A18304005584040082
:106040005986040057840400578404004DBC0300A3
:106050005784040057840400455D040057840400FD
:1060600057840400578404005784040057840400B4
:1060700057840400578404005784040057840400A4
:1060800057840400D180040057840400578404001E
:106090005784040057840400414B030057840400D4
:1060A0005784040057840400578404005784040074
:1060B0005784040057840400000000000000000022
:1060C0005784040057840400578404006D8B040037
:1060D0005784040057840400578404002D72030081
:1060E0005784040057840400578404000000000013
:1060F000000000005784040000000000E58B04004D
:10610000000000000000000000000000000000008F
:10611000000000000000000000000000000000007F
:10612000000000000000000000000000000000006F
:10613000000000000000000000000000000000005F
:10614000000000000000000000000000000000004F
:10615000000000000000000000000000000000003F
:10616000000000000000000000000000000000002F
:10617000000000000000000000000000000000001F
:10618000000000000000000000000000000000000F
:1061900000000000000000000000000000000000FF
:1061A00000000000000000000000000000000000EF
:1061B00000000000000000000000000000000000DF
:1061C00000000000000000000000000000000000CF
:1061D00000000000000000000000000000000000BF
:1061E00000000000000000000000000000000000AF
:1061F000000000000000000000000000000000009F
:10620000F1EE103A43F08073E1EE103A704700BFB0
:1062100010B5054C237833B9044B13B10448AFF3E0
:1062200000800123237010BDC46600200000000020
:106230009CBE050008B5034B1BB103490348AFF3EF
:10624000008008BD00000000C86600209CBE05005C
:10625000154B002B08BF134B9D46A3F5803A002138
:106260008B460F461348144A121A29F08BF80F4B2D
:10627000002B00D098470E4B002B00D098470020F1
:10628000002104000D000D48002802D00C48AFF397
:10629000008029F00DF82000290022F00BF928F0E9
:1062A000E1FF00BF00000800000004200000000023
:1062B00000000000C466002018C400200000000098
:1062C0000000000042DF7047704700BF704700BF0A
:1062D00010B5034B0360044615F03AFD204610BD8F
:1062E000649105002DE9F0419DF81840013CE4B2AD
:1062F0000F2C21D80D4649B200291DDA1F46436DE7
:1063000006461868036821431B68C9B2904698473F
:10631000736D1868036808F07F011B6805F0EF05CE
:106320009847C02D08D0736D1868036807F07F0187
:106330001B68BDE8F0411847BDE8F0812DE9F04148
:106340009DF81840013CE4B20F2C21D80D4649B20B
:1063500000291DDA1F46436D06461868036821436D
:106360001B69C9B290469847736D1868036808F0B6
:106370007F011B6905F0EF059847C02D08D0736DAC
:106380001868036807F07F011B69BDE8F0411847F2
:10639000BDE8F0812DE9F041344B102805461C780A
:1063A00028BF1025012D38BF0125012C82B001F036
:1063B0007F0702F07F060ED0E4B92D4B07281C782A
:1063C00034D02C48009533463A46B021FFF78AFF77
:1063D000022C0CD004E0284B07281B6834D05BB19A
:1063E0002648009533463A46B021FFF7A7FF02B092
:1063F000BDE8F081072807D01E48009533463A468D
:10640000B021FFF76FFFEBE7652FF5D9DFF870805C
:1064100098F80030012B13D81648009533463A46B9
:10642000B021FFF75FFF98F8003009E0652FC8D969
:10643000DFF84C8098F80030012B0CD9022CD6D014
:1064400013F0FD0FD3D1CBE7652FC8D9002BDDD0DA
:106450000B4B1B78F4E70748009533463A46B021CA
:10646000FFF740FF022CDED1C1E700BF186100201A
:1064700008690020F8670020608C0020E06600209A
:106480005D8C002038B51C4B1C4A1B78002414601E
:1064900003B938BD1A4D4FF0FF31286820F0FEF9DE
:1064A00048226A210720FFF775FF2246772107203F
:1064B000FFF770FF23462246214628681FF0C6FDDD
:1064C0004FF0FF31286820F0E9F949226A210720BE
:1064D000FFF760FF224677210720FFF75BFF234687
:1064E0002246286821461FF0B1FD064B1A78022A81
:1064F00008BF1C7038BD00BF5C8C0020608C002081
:10650000CC8C00205D8C002070B5014688B03448EA
:106510000EF00EFB0023044620226946CDE900332D
:10652000CDE90333CDE90533029307930CF020FC4A
:1065300020460CF007FB28F01BF92A4B002228F01C
:1065400081F928F02FFC284B0628CCBF274D274D7A
:106550001B78CCBF044607242C6023B9244B0222AD
:106560009A7008B070BD234E4FF0FF31306804EBD5
:10657000840420F093F904EB840448226A21072064
:10658000FFF708FFA20002F07C0277210720FFF747
:1065900001FF00231A46194630681FF057FD2B688B
:1065A0003068642404FB03F44FF0FF3120F076F9E7
:1065B000C4F3C71449226A210720FFF7EBFE2246E5
:1065C00077210720FFF7E6FE00231A4619463068B8
:1065D0001FF03CFD064B02229A7008B070BD00BF50
:1065E000608F00200000E43F5C8C0020608C002065
:1065F000548C0020CC8C00202DE9F0434F4E504F9E
:10660000054683B030680C464FF0FF3120F046F964
:106610003B78012B05F07F054DD0002B4ED1494B27
:106620001B78022B4AD1DFF82C8198F80010012941
:1066300088BF04F07F0476D807220092B021424838
:106640002B466822FFF74EFE98F800103A78012A90
:1066500004F07F0441D01AB93A4B1B78022B62D068
:10666000012909D807230093B0213748234669221E
:10667000FFF738FE98F8001011F0FD0F12D1334DDE
:106680006B6D18680368B6211B6998476B6D1868B5
:10669000036869211B6998476B6D18680368214678
:1066A0001B699847002330681A46194603B0BDE8B5
:1066B000F0431FF0CBBC264B1B689BB9DFF89480DE
:1066C00098F80030012B0FD8072300931E482B4663
:1066D0006822B021FFF706FE06E01D4B1B68002B69
:1066E000CAD1BDE7DFF86C8098F8001011F0FD0FFB
:1066F000ACD1DFF85890D9F8543018680368B62147
:106700001B699847D9F854301868036868211B69D9
:106710009847D9F854301868036829461B69984788
:1067200098F8001092E70129BCD807220092064889
:1067300023466922B021FFF7D5FDB3E7CC8C0020BA
:106740001861002008690020F8670020E06600203A
:10675000608C00205D8C002010B5012182B00446C1
:106760001A2023F08DF801211A2023F00DF90520BD
:106770001FF048FB4FF480730094ADF8043002AB77
:1067800013E90600134814F0C3FF00211A2023F078
:10679000FBF8AC210F4815F057F853210D4815F0C0
:1067A00053F800210B4815F04FF800210446094822
:1067B00015F04AF800EB0421B1F5A64F06D01022DF
:1067C00005481FF059FA002002B010BD012002B0A8
:1067D00010BD00BFF4A40020E497002070B504466B
:1067E00042F21070FFF7B8FF7A497B481FF0C0F8FB
:1067F000257805B3794978481FF05AF810222946C0
:1068000075481FF009FAAC21754815F01DF8E02114
:10681000734815F019F80021714815F015F829464C
:1068200003466F481D4615F00FF800EB0520B0F544
:10683000604F40F0A9806A4DF021284615F004F819
:106840000021284615F000F80021284614F0FCFF2E
:106850000021284614F0F8FF10F00106ECD165780D
:10686000002D70D15E4DF021284614F0EDFF00217F
:10687000284614F0E9FF0021284614F0E5FF002126
:10688000284614F0E1FF10F00106ECD1A578002DA8
:106890007CD1534DF021284614F0D6FF0021284624
:1068A00014F0D2FF0021284614F0CEFF0021284624
:1068B00014F0CAFF10F00106ECD1E478FCB14949AC
:1068C00045481EF0F5FF1022214643481FF0A4F969
:1068D000AC21434814F0B8FFA421414814F0B4FFA0
:1068E00031463F4814F0B0FF214603463C481C4661
:1068F00014F0AAFF00EB0420B0F5244F44D1384D2A
:10690000F021284614F0A0FF0021284614F09CFF37
:106910000021284614F098FF0021284614F094FF27
:1069200010F00104ECD12C481FF072F82C4814F040
:1069300051FF21461A2023F027F821461A2022F081
:106940009FFF012070BD284923481EF0B1FF10228F
:10695000294621481FF060F9AC21214814F074FF4A
:10696000A0211F4814F070FF31461D4814F06CFF41
:10697000294603461A481D4614F066FF00EB052021
:10698000B0F5204F3FF46EAF002070BD174912489C
:106990001EF08EFF102229460F481FF03DF9AC2152
:1069A0000F4814F051FFA8210D4814F04DFF314657
:1069B0000B4814F049FF2946034609481D4614F0C8
:1069C00043FF00EB0520B0F5284F3FF462AF0020F5
:1069D000DBE700BF44220500E497002054220500B5
:1069E000F4A4002090220500682205007C22050006
:1069F000F8B5044642F210700D46FFF7ADFE4F4960
:106A00004F481EF0B5FF2678002E56D16678002E2E
:106A100073D1A6788EBBE678FEB15021494814F0B8
:106A200013FF0821474814F00FFF0021454814F0D8
:106A30000BFF0021434814F007FFEB78424904465E
:106A40001C403F481EF034FF3D48214610221FF0F5
:106A5000E3F8A64201D00020F8BD39481EF0D8FF67
:106A6000384814F0B7FE00211A2022F08DFF0021D3
:106A70001A2022F005FF0120F8BD5821314814F0FA
:106A8000E3FE08212F4814F0DFFE00212D4814F00A
:106A9000DBFE00212B4814F0D7FEAB782B490746CC
:106AA0001F4027481EF004FF2548394610221FF0DA
:106AB000B3F8BE42AFD00020CEE75821214814F0F1
:106AC000C3FE00211F4814F0BFFE00211D4814F032
:106AD000BBFE00211B4814F0B7FE2B781C4907466B
:106AE0001F4017481EF0E4FE1548394610221FF0DB
:106AF00093F8BE428AD00020AEE75021114814F02E
:106B0000A3FE00210F4814F09FFE00210D4814F051
:106B10009BFE00210B4814F097FE0E49C7B20848AF
:106B20001EF0C6FE3946064810221FF075F8687838
:106B30000740BE423FF46DAF00208DE7A422050060
:106B4000E4970020F4A40020E8220500D8220500E4
:106B5000B8220500C82205002DE9F04F894685B00E
:106B60005C495D4C80465D4817461EF0A1FE4946D3
:106B700010225A481FF022F81FF038F92368C01A73
:106B8000B0F57A7F00F299805548FFF7E5FD7B0864
:106B9000029345D0002508F10102524C01922B4688
:106BA0001E0A4021204618F815A05FFA85FB14F054
:106BB0004BFE3146204614F047FE5946204614F05D
:106BC00043FE51460746204614F03EFE034603EBC3
:106BD0000723AB424FF0480120461AD1019B13F81E
:106BE0001530039314F030FE3146204614F02CFE8D
:106BF0005946204614F028FE039B064619462046B7
:106C000014F022FE00EB0620A84205F10105ABB20C
:106C100003D0002005B0BDE8F08F029A9342BFD3A5
:106C20004C21304814F010FE4FEA59054FEA592123
:106C30002C4814F009FEE9B22A4814F005FE0021A0
:106C40000646284814F000FE2749044623481EF053
:106C50002FFE1022294621481FF00EF804EB0624CF
:106C600022491E481EF024FE21461C481022A4B2D0
:106C70001EF0A4FFA542CCD11A4DF021284614F0F5
:106C8000E3FD0021284614F0DFFD0021284614F022
:106C9000DBFD0021284614F0D7FD10F00104ECD1F3
:106CA000104814F097FD21461A2022F06DFE1A209C
:106CB000214622F0E5FD0120ACE71FF097F80C4BD0
:106CC0000C4A20600C49C3F8002604481EF0F0FD71
:106CD0005AE700BFF8220500146A0020E49700205C
:106CE00040420F00F4A400201423050028230500CF
:106CF000000001403546526E08230500014608B5E4
:106D000004481EF0A5FE40F2FF31012022F0D2FB24
:106D1000FEE700BFE4970020014608B504481EF0D6
:106D200027FE40F2FF31012022F0C4FBFEE700BF46
:106D3000E497002010B542F2107082B0FFF70CFD0E
:106D4000AC211D4814F080FD80211B4814F07CFD0F
:106D50000021194814F078FD00210446164814F06B
:106D600073FD00EB0420B0F5004F22D1124CF0214E
:106D7000204614F069FD0021204614F065FD002135
:106D8000204614F061FD0021204614F05DFD10F056
:106D90000101ECD10848019114F01CFD01991A2061
:106DA00022F0F2FD01991A2022F06AFD012002B0C2
:106DB00010BD0248FFF7B0FFF4A400203023050007
:106DC000084C094908B5054620461EF09FFD294696
:106DD000102220461EF018FF20461EF019FE034820
:106DE000FFF79AFFE49700204C230500602305007D
:106DF0002DE9F04780460C4617463AB1013A92B267
:106E000018460132FF2128F0BDFA034604EB070CB7
:106E100000224446204610F8011B0A2900F0538145
:106E20000D2900F050813A2940F0A4816578A5F140
:106E30003001C9B209290CD9A5F14101052940F257
:106E40005781A5F16101052900F28881A5F157015B
:106E5000C9B2A578A5F13000C6B2092E4FEA0110DB
:106E60000CD9A5F14101052940F23A81A5F1610152
:106E7000052900F27381A5F15706F6B2E578A5F170
:106E80003001C9B230440929C6B20CD9A5F141017B
:106E9000052940F22981A5F16101052900F25E81F1
:106EA000A5F15701C9B22579A5F1300E5FFA8EFE22
:106EB0000901BEF1090FC9B20ED9A5F1410EBEF10B
:106EC000050F40F21981A5F1610EBEF1050F00F228
:106ED0004581573D5FFA85FE94F8059001EB0E055C
:106EE000A9F13001EDB2C9B22E440929F6B2ADB212
:106EF0000CD9A9F14101052940F20281A9F16101F2
:106F0000052900F21981A9F15701C9B294F8069038
:106F1000A9F1300E5FFA8EFE0901BEF1090FC9B268
:106F20000FD9A9F1410EBEF1050F40F2ED80A9F194
:106F3000610EBEF1050F00F2FF80A9F157095FFA5B
:106F400089FE7144C9B201EB0525ADB20E44654519
:106F5000F6B280F2ED80E579A5F13001C9B20929D8
:106F60000CD9A5F14101052940F2D680A5F16101B6
:106F7000052900F2F380A5F15701C9B2257AA5F1E0
:106F800030095FFA89F90901B9F1090FC9B204F1B1
:106F9000090E40F29A80A5F14109B9F1050F40F2BE
:106FA000B880A5F16109B9F1050F00F2D780573D0E
:106FB000EDB20E4455FA86F6F6B200284CD00B34EA
:106FC000002534E0A9F16101052900F2B580A9F19D
:106FD0005701C9B214F8019CA9F1300A5FFA8AFA84
:106FE0000901BAF1090FC9B20ED9A9F1410ABAF1E2
:106FF000050F2CD9A9F1610ABAF1050F00F29C80A6
:10700000A9F157095FFA89FA5144C9B202F101099D
:1070100099541FFA89F20E449742F6B2C0F09B8051
:107020000135E9B2884204F102040D4614D914F87E
:10703000029CA9F13001C9B20929A646CAD9A9F111
:1070400041010529BED8A9F13701C9B2C2E7A9F1AA
:1070500037095FFA89FAD7E79EF80040A4F13001BA
:10706000C9B209290AD9A4F14101052958D9A4F1C5
:107070006101052978D8A4F15701C9B29EF80140F1
:10708000A4F13000C0B209010928C9B209D9A4F19C
:107090004100052848D9A4F16100052864D8573C6F
:1070A000E0B20E4450FA86F616F0FF0F68D19EF853
:1070B00002100A290EF103045FD1BA427FF4AAAE8E
:1070C0002046BDE8F0870446A4E64944C9B20E4410
:1070D0000129F6B27FF471AF00242046BDE8F087A5
:1070E000A5F13706F6B2C9E6A5F13701C9B2DAE66D
:1070F000A5F13701C9B2ACE6373D5FFA85FEEBE694
:10710000A9F13701C9B201E7A9F1370E5FFA8EFE86
:1071100017E7373DEDB24CE7A5F13701C9B22DE7CE
:10712000A4F13701C9B2A9E7A4F13700C0B2B8E7AA
:1071300044462046BDE8F087134914481EF0E6FB9C
:107140004946102211481EF05FFD10481EF060FCF9
:107150000F48FFF7E1FD0F48FFF7D0FD0A490B4844
:107160001EF0D4FB2946ECE7074908481EF0CEFB89
:107170002146E6E70848FFF7CFFD0848FFF7CCFDBA
:107180000748FFF7C9FD00BF4C230500E497002026
:10719000602305007C230500702305009C23050067
:1071A0008C2305002DE9F04F824683B0CD48CE4EAA
:1071B000FFF7D2FAD14619F8011B0A2900F0908195
:1071C0000D2900F08D813A2940F0ED819AF80100F7
:1071D000A0F13003DBB2092B0CD9A0F14103052B40
:1071E00040F2C481A0F16103052B00F2D281A0F12D
:1071F0005703DBB29AF80200A0F130085FFA88F278
:10720000092A4FEA03180CD9A0F14103052B40F2DB
:10721000A981A0F16103052B00F2BB81A0F1570207
:10722000D2B29AF80300A0F13003DBB29044092BEC
:107230005FFA88FB0CD9A0F14103052B40F28E8147
:10724000A0F16103052B00F2A481A0F15703DBB28A
:107250009AF80400A0F13007FAB21B01092ADFB244
:107260000CD9A0F14103052B40F27481A0F1610318
:10727000052B00F28E81A0F15702D2B29AF80500D8
:107280001744A0F13003FFB2DBB2BB44092B5FFA15
:107290008BFBBAB20CD9A0F14103052B40F2568109
:1072A000A0F16103052B00F27481A0F15703DBB25A
:1072B0009AF80600A0F13007FFB21B01092FDBB2DC
:1072C0000CD9A0F14101052940F23C81A0F16101F6
:1072D000052900F25E81A0F15707FFB29AF8070076
:1072E0003B44DFB2A0F13003DBB2BB44092B07EB18
:1072F00002275FFA8BFBBFB20CD9A0F14103052B2B
:1073000040F21C81A0F16103052B00F24281A0F143
:107310005703DBB29AF80800A0F13004E4B21B0175
:10732000092CDBB20AF1090940F2E880A0F1410220
:10733000052A40F20081A0F16102052A00F22981AC
:107340005738C0B29B4450FA8BFB5FFA8BFBB8F105
:10735000000F00F093800AF10B0A3D461DE0282142
:10736000304614F071FA690A304614F06DFAC5F32C
:107370004701304614F068FA0021304614F064FAF0
:10738000C3B2A3424FD1C7F101032B44DBB2013595
:1073900043450AF1020AADB270DA1AF8024CA4F1C0
:1073A0003003DBB2092BD1460BD9A4F14103052BE5
:1073B0005DD9A4F16103052B00F2DC80A4F1570331
:1073C000DBB21AF8012CA2F130011C01CBB2092B5F
:1073D000E4B20AD9A2F14103052B4CD9A2F1610311
:1073E000052B00F2D880573AD3B21C44E4B2A34430
:1073F00015F001035FFA8BFBB1D1202130460193D8
:1074000014F022FA690A304614F01EFAC5F3470157
:10741000304614F019FA019B3046194614F014FA5C
:10742000C3B2A342AFD0314801931EF0F1FA304904
:107430002E481EF03DFA102229462C481EF01CFC56
:107440002C492A481EF034FA1022214627481EF003
:10745000DBFB294925481EF02BFA019B23481946DE
:1074600010221EF0D9FB002003B0BDE8F08FA4F17C
:107470003703DBB2A5E7373AD3B2B6E799F8000095
:10748000A0F13003DBB2092B0AD9A0F14103052B8F
:107490004DD9A0F16103052B7BD8A0F15703DBB2D6
:1074A00099F80100A0F13001C9B21B010929DBB232
:1074B0000AD9A0F14102052A35D9A0F16102052AB5
:1074C00067D8A0F15701C9B29B4451FA8BF111F072
:1074D000FF0171D199F802300A2B09F1030968D133
:1074E000CA4667E640420F00F4A40020E49700205B
:1074F000AC230500D0230500E02305001C44E4B2C2
:10750000A344012C5FFA8BFB7FF421AF2E4814F0CB
:1075100061F900211A2022F037FA1A20002122F006
:10752000AFF92046A0E7A0F13701C9B2CCE7A0F13E
:107530003703DBB2B4E73738C0B203E7A0F1370353
:10754000DBB2E7E6A0F13707FFB2C7E6A0F13703E9
:10755000DBB2ADE6A0F13702D2B28FE6A0F137037D
:10756000DBB275E6A0F13702D2B25AE6A0F13703DA
:10757000DBB23FE6154916481EF0C8F92146102235
:1075800013481EF041FB12481EF042FA1148FFF763
:10759000C3FBFFF715FC0D490D4801921EF0B6F92B
:1075A000019A1146EBE70A481EF0DEF90A48FFF798
:1075B000B3FB0A48FFF7B0FB054810221EF024FB7E
:1075C0000748FFF7A9FB00BFF4A400204C230500E7
:1075D000E497002060230500702305009C2305002C
:1075E000E82305002DE9F04F40F2FF3185B001207E
:1075F00021F060FF724973481EF05AF97248FFF794
:10760000ABF8002872D071496E481EF0B1F942F211
:107610001070FFF7A1F830216D4814F015F9002122
:107620006B4814F011F90121694814F00DF900219B
:10763000674814F009F930210502654814F004F98F
:107640000021634814F000F90221614814F0FCF8AD
:10765000002104465E4814F0F7F805F47F4500EB7E
:1076600004245B4814F0B6F82C4300211A2022F0C1
:107670008BF9A4B200211A2022F002F9631E9BB2FA
:107680004FF6FD72934204D8524B1F683B88A342C9
:1076900004D00024204605B0BDE8F08FFFF74AFB78
:1076A0000521B81CFFF79AF80028F2D0484814F0DA
:1076B00091F800211A2022F067F900211A2022F007
:1076C000DFF80021012021F0F5FE64201EF09AFB76
:1076D00040F2FF31012021F0EDFE394939481EF01A
:1076E000E7F83948FFF738F8814620B93A49354874
:1076F0001EF03EF9CDE7354932481EF039F9B7F8AA
:1077000020A097F8228007F123030293BAF1000F1B
:1077100024D0DFF8C8B003971FFA88F20BEB0806F5
:1077200047461C4600259046A9B220465B46424685
:107730000191FFF75DFB019904464FB1274B4A4683
:1077400013F8010BFF2818BF00229E42F8D17AB32C
:107750003D44AA4501D9002CE6D1039F0298FFF7CA
:1077600021FD002895D007F10C0420460521FFF7E4
:1077700035F800288DD0204607F11601FFF738F9BB
:107780000446002885D0042540F2FF31012021F075
:1077900091FEC8201EF036FB0021012021F08AFE58
:1077A000C8201EF02FFB6B1E13F0FF05ECD171E714
:1077B00042465846FFF7D0F90028C9D169E700BF13
:1077C00018220500E4970020A0860100342205005D
:1077D000F4A40020006200203C220500246A00205E
:1077E0002DE9F04F704C714F714E87B0204615F067
:1077F0008FFE704AA36A70493B6001916F4FE56A42
:107800006F4C07CA9B103B604FF48073ADF8083093
:10781000256003AD85E80700029A6749304613F0FA
:1078200077FF0021022022F0AFF8664B4FF4207062
:1078300043F0010398470021304614F005F8002476
:107840000134E4B22146304613F0FEFF0C2C05F85B
:10785000010BF5D10121022022F096F8544813F0D3
:10786000B9FF9DF816209DF8155057499DF811E075
:107870009DF80E809DF80CB091F800A09DF80D6069
:107880009DF80F709DF81090504B94004FEA840CB7
:107890000CF4407CA9004CEA0E0C4FEA851E8800CF
:1078A0000EF4407E01F4407141EA0B0B4EEA080EE3
:1078B00029029DF81280C3F800B0950100F44070D1
:1078C00001F4407105F440753043394345EA080539
:1078D0009DF813609DF814809DF81770586012028F
:1078E00004F4407402F4407244EA0904324348EA62
:1078F0000728C3E9044CC3E902E1C3E90652C3F80F
:107900002080BAF1000F4BD1DFF8C490D9E90067AD
:10791000C01BD9F80870BBEB060648BF5646AEEB55
:1079200007070028B8BF5046002FC3E90060B8BF62
:1079300000209F60B8BF9860D9F80C00091A002990
:10794000D960BCBF0021D960D9F81010641A002C8E
:10795000B8BF00211C61B8BF1961D9F81410ACEB95
:10796000010100295961BCBF00215961D9F81810E3
:107970006D1A002DB8BF00219D61B8BF9961D9F87B
:107980001C10521A002ADA61BCBF0022DA61D9F851
:107990002020A8EB0202002A1A62BCBF00221A6251
:1079A00007B0BDE8F08F00BF2C8B0020CC8E0020EC
:1079B000F4A400205024050080841E007C8D00204B
:1079C000F48D0020B08C0500578C00207C8E0020A8
:1079D000588E00202DE9F047BB4DBC4C2A782DED88
:1079E000028B2A2303FB02F3E118E35C82B083B32A
:1079F000B74FDFEDB88AD7ED007A9FEDB78ACB7924
:107A0000097A009177EEA87A4FF02A0909FB024221
:107A100067EE887A8B4294BF88460E4692F806C07D
:107A20005179FDEEE77A41F2883A17EE900A0AFBA7
:107A30000CF20AFB01F194BF1E4698461EF0C4F9F1
:107A4000B04280F2DA80A54F3B78B34240F08C80A0
:107A50002A782A2101FB02414B787BB3A04FDFED4E
:107A60009D8AD7ED007A9FED9C8ACB7A097B0091A5
:107A700077EEA87A4FF02A0909FB024267EE887A6E
:107A80008B4294BF88460E4692F80AC0517AFDEEAA
:107A9000E77A41F2883A17EE900A0AFB0CF20AFBE9
:107AA00001F194BF1E4698461EF08EF9B04280F256
:107AB00083808C4F3B78B3424AD12A782A2303FB38
:107AC0000243997819B993F82030002B3BD0DFF8A6
:107AD0002082DFED858AD8ED007A9FED7F8A2A210A
:107AE00001FB024177EEA87ACB7B097C00912A2723
:107AF00007FB024267EE887A8B4294BF89460E46A6
:107B000092F80EC0517BFDEEE77A42F2107A17EE42
:107B1000900A0AFB0CF20AFB01F194BF1E4699463B
:107B20001EF052F9B0422BDA704FDFF8C8813B7873
:107B300088F80060B34206D02B782A2202FB034467
:107B4000A378002B7AD102B0BDEC028BBDE8F087A0
:107B50002B782A2202FB03433246597D987CFEF79C
:107B600019FC2A783E70A9E72B782A2202FB0343EE
:107B70003246197D587CFEF70DFC2A783E7068E786
:107B8000D8ED007A2B7877EEA87A07FB034367EEEF
:107B9000887A9A7B597B187C0090FDEEE77ADB7B34
:107BA00017EE900A0AFB02F20AFB01F11EF00CF933
:107BB000484550DD4E46B7E7D7ED007A2B7877EE93
:107BC000A87A09FB034367EE887A9A7A597A187B78
:107BD0000090FDEEE77ADB7A17EE900A0AFB02F2DC
:107BE0000AFB01F11EF0F0F840454EDD3D4F3B78B9
:107BF0004646B3423FF461AFAAE7D7ED007A2B784F
:107C000077EEA87A09FB034367EE887A9A79597967
:107C1000187A0090FDEEE77ADB7917EE900A0AFBFE
:107C200002F20AFB01F11EF0CFF8404564DD2B4F54
:107C30003B784646B3423FF40BAF95E7A17DE07C2D
:107C40003246FEF7A7FB98F800303B7002B0BDEC5F
:107C5000028BBDE8F087D8ED007A2B7877EEA88A02
:107C600007FB034728EE888ABA7B797B3B7C00932D
:107C7000FDEEC87AFB7B17EE900A0AFB02F20AFBC4
:107C800001F11EF0A1F8C6B24EE7D7ED007A2B78CD
:107C900077EEA88A09FB034928EE888A99F80A201A
:107CA00099F8091099F80C300093FDEEC87A99F80C
:107CB0000B3017EE900A0AFB02F20AFB01F11EF0EC
:107CC00083F8C6B2F5E600BFD08C00209860002093
:107CD000708D00200000B44200007A44108B002018
:107CE000F88C0020118B002000003443128B002000
:107CF0003C8F0020448F0020D7ED007A2B7877EE60
:107D0000A88A09FB034928EE888A99F8062099F881
:107D1000051099F808300093FDEEC87A99F80730FD
:107D200017EE900A0AFB02F20AFB01F11EF04CF872
:107D3000C6B288E62DE9F04104460E461EF056F81C
:107D4000404B1B78002B5AD0054674B33E4F3B780E
:107D5000002B56D13D4B3E4C186001223A705EB369
:107D6000217800296AD01B68EB1A192B24D9394BCA
:107D7000394ED3F8008030684FF0FF311EF08EFD91
:107D8000C8F3C71272210720FEF704FB5FFA88F2DE
:107D900073210720FEF7FEFA00231A4619463068C1
:107DA0001EF054F900233B7006E0002E33D1264F1D
:107DB0003B78002B3CD1264C237803B3274B186823
:107DC000281A19281BD9264B234D1E6828684FF006
:107DD000FF311EF063FD06F07F0274210720FEF7DD
:107DE000D9FAC6F3C71276210720FEF7D3FA00238B
:107DF0001A46194628681EF029F900232370BDE8A9
:107E0000F081AEB1124C237883B9144A0F4B106045
:107E100001222270A7E70E4C0B4F23783A7853B912
:107E20000E49012308602370002AE8D0074B9AE727
:107E3000064B074C97E7002AC0D0F7E707492270A6
:107E4000086090E75C8C0020448A0020488A00206B
:107E5000458A0020A48C0020CC8C00204C8A002075
:107E60007C8D002010B41D4B1D4A1B78D25C422A29
:107E70004FEA500022D81B49C3B201EB022112F095
:107E8000FB0FC85C22D1184C1849E45C0C70012A25
:107E900002D1174CE35C0B70032A01D13F2811D0AB
:107EA000144B1B78032B06D0134B1A6840F2FF13B8
:107EB0009A4208BF00205DF8044B70470F4BC0B2D8
:107EC000185CEDE700205DF8044B7047012A01D1F2
:107ED0000649DEE70A2AFBD0DEE700BFD08C00208F
:107EE00060620020A07405005C2405000C8F002057
:107EF000A07305002C610020A48C00200C690020D8
:107F000030B46A4A6A4B11782A2202FB01320023FC
:107F1000907E01285AD06748674A0578674C1278E6
:107F2000247867482B4403EB430302EB8303DBB263
:107F3000032C037034D0634A1278032A19D0022A22
:107F400001D030BC7047604A525C12F0FB0F40F029
:107F500090805E4A5E4CC1EBC10102EB4101226898
:107F6000C978C2F300228A42EBD10C33037030BCD3
:107F70007047554A545C012CE3D00A2CE1D0534A97
:107F8000534DC1EBC10102EB41012A68C97802F0EF
:107F900001028A42D5D1072CE7D107330370D0E71D
:107FA000494A545C0F2C5CD04A4A0C2C127864D09D
:107FB0000E2C68D0082C4DD1492A52D9414A12784A
:107FC0000C33DBB2032A0370B9D1D8E7937F002BBF
:107FD000A1D0414A414C92ED017AD4ED007AB8EE3D
:107FE000C77AF4EEC77AF1EE10FA57D4012B2ED0EF
:107FF00092ED027AB8EEC77AF4EEC77AF1EE10FA93
:108000004ED4022B23D092ED037AB8EEC77AF4EE69
:10801000C77AF1EE10FA45D4032B18D092ED047A0A
:10802000B8EEC77AF4EEC77AF1EE10FA34D4042B26
:1080300032D092ED057AB8EEC77AB4EEE77AF1EE77
:1080400010FA31DC052B18BF00237FF464AF013B2D
:10805000DBB260E73E2A19D0072C10D10733DBB220
:108060000370184A1278032A89D0022A7FF469AF74
:1080700069E7062A7FF465AF6BE7392AF1D90C333B
:10808000DBB2037057E7452AF9D8EAE7012C3FF441
:1080900058AF0A2CE0D154E70423D8E70346D6E7CB
:1080A0000223D4E70323D2E70523D0E7D08C0020B6
:1080B00098600020F08C0020E98C0020DD8C0020EE
:1080C000F08D00202C61002060620020C86200203A
:1080D000A48C002064620020108D0020F88C002009
:1080E00070B505460C461DF081FE1A4A13783BB95F
:1080F000194E1A4930601A4E0B600121336011701D
:10810000CDB9154B17491B680968C31A8B420ED2AB
:10811000124B1968A1B1124B19681C60611AB1F5B4
:10812000FA6F11D09DB1012D0ED100290CDB002377
:108130001370022070BD012DF9D1074B0A49E2E707
:10814000074901220C601A60084B187870BD00299D
:10815000FADCECE7A08C0020D48A00205C8D0020A3
:10816000508D002044620020CC610020688C0020EB
:108170002DE9F84F324D334E334FDFF8E490DFF8FE
:10818000E4A0002405E0002347F824300134092C42
:1081900053D0337855F8042F9A42F4DDD9F80030E3
:1081A000002BF0D19AF8002028492948DFF8B88040
:1081B00090F800C0D8F80030C2EBC202C2EBC20295
:1081C0000A44012092F826B0A0401843E34528BF96
:1081D000E346FFF747FE1F4A1F499AF8003012781E
:1081E000CB5C801A23B9CBF100039842B8BF184684
:1081F0000028C8D0D8F80030E340DB07C3D4584586
:10820000C1DCCBF1000B8345BDDC31782A68134B10
:10821000521A07EE902A03EB840393ED007AF8EEEE
:10822000E77A404267EE877AFDEEE77A17EE903AFA
:1082300000FB03F347F82430A8E7BDE8F88F00BF40
:10824000788E0020B1620020DC61002004600020F4
:10825000556200206462002074620020A08E00201D
:10826000C88E0020D08C0020A48C002070B52D4C2E
:108270002378E3B96378002B30D1A37803B970BDBC
:10828000294E1DF0B3FDB368C01AC728F7D9274D92
:108290001DF0ACFDAB78B0600226002B34D140F26B
:1082A000FF31032021F006F90123AB7070BD1E4E93
:1082B0001DF09CFD3368C01AC728DBD91B4D1DF08B
:1082C00095FD2B78306053BB40F2FF31082021F040
:1082D000F1F801232B706378002BCED0124E1DF0E5
:1082E00085FD7368C01AC728C7D9104D1DF07EFDE3
:1082F0006B7870603BB940F2FF310A2021F0DAF868
:1083000001236B70B9E70126094B0021985D21F02C
:10831000D1F8A35D0022013BA355AA5570BD0026EC
:10832000F2E700BF548C0020E88A0020F4670020A8
:10833000A08C05002DE9F8432C4D2D4F2D4C2E4ED1
:10834000DFF8CC902DED068B9FED2C9ADFED2CAA5B
:10835000DFED2C8A9FED2CAADFED2C9A05F10308A6
:1083600015F8011B012381B3D4ED007A337037EE89
:10837000A87AF4EEC97AF1EE10FAB0EE470A2EDCD4
:1083800084ED007A1BF092F9B7EE008A30EE088A8D
:1083900028EE0A8AFCEEC87A28EE298A17EE901A8F
:1083A000387821F087F8D4ED007A37EE888A84EDAA
:1083B000008AA84507F1010704F1040406F101064B
:1083C000CED1BDEC068BBDE8F8833378002BF0D01E
:1083D0003878317021F06EF8C4F80090E9E7B0EE1B
:1083E0006A8AC4F800900021DAE700BF588D0020A7
:1083F000A08C050020610020F48A00200AD72F41BC
:108400000AD7232F0AD7A33B00C0FF430A00A43694
:10841000B4C89640000000003F4B404A1B681268F9
:1084200070B53F4D06010446A3EB8200AB5920EA2C
:10843000E07005EB0412B0EB830F526882B04FEA94
:10844000830159D2084692004FF4806300930023C1
:108450001DF0BAFC334A125D012A034651D0022AAC
:108460002CD0314ADFED316A12F8140002EB4402DD
:1084700007EE900A5278101A03FB00F3B8EEE77A81
:1084800007EE903AF8EEE77A294BA7EEA67A354444
:1084900003EB8403012CF0EE477ABCEEC77AC3ED00
:1084A000007A17EE102A85ED037A05D1214B12F0E0
:1084B000FF0214BF1A701C7002B070BD0028D0D02B
:1084C00026F056F941EC100B1BF03AF910A3D3E952
:1084D000002351EC100B26F0B5F926F0ABFC07EEAB
:1084E000900A9FED157A67EEA77A67EE877AFDEE20
:1084F000E77A17EE903AB4E79200904228BF104610
:10850000A2E700FB00F003FB00F31B15A9E700BF87
:10851000FE822B654715F73FF48D0020B8620020DE
:10852000046200206C8C0020686200200000803A09
:10853000BC8C00201F6300200AD723412DE9F04F97
:108540006E4FDFF8D08105460E46386883B04FF095
:10855000FF31994614461EF0A1F998F80030012B1E
:1085600005F07F0506F07F062BD0002B49D1644A29
:10857000652D92F800B040F29580DFF890A19AF84E
:108580000030012B40F29D80BBF1020F21D104F09D
:108590007F0409F07F09652C15781ED80723009306
:1085A00058484B462246B021FDF79CFE022D1FD1B4
:1085B000002338681A46194603B0BDE8F04F1DF095
:1085C00045BD514B652D1B6878D9002B5BD04F4BB7
:1085D0001B7813F0FD0F1ED025E0DFF830A19AF8CC
:1085E0000030012B7BD9022DE2D013F0FD0FDFD13B
:1085F0000721009146484B462246B021FDF79EFEDA
:10860000D6E7652D3FD8072300933E4833462A46D8
:10861000B021FDF767FE072100913D4833462A4609
:10862000B021FDF78BFE98F80020012A04F07F04AA
:1086300009F07F0902D0C2B9314AACE7324B652C50
:108640001B681DD9002B55D1DFF8C0A09AF8003067
:10865000012BCAD8072300932A484B462246B02153
:10866000FDF740FE9AF80030BFE7652CECD80723F1
:10867000009324484B462246B021FDF733FEB7E76E
:10868000002BF4D0B4E7DFF884A09AF80030012B77
:108690009FD8072300931B4833462A46B021FDF795
:1086A00021FE19E007230093164833462A46B021DD
:1086B000FDF718FEBBF1020FADD1B4E7002BA2D03D
:1086C000A9E7072300930F4833462A46B021FDF758
:1086D00009FEBBF1020FA6D09AF8003079E7072314
:1086E000009308484B462246B021FDF7FBFD022DC2
:1086F000B8D15DE7054B1B7877E700BFCC8C002035
:1087000008690020F8670020608C00205D8C002044
:10871000E0660020186100202DE9F041904C1029FE
:108720000D46247828BF1025012D38BF0125012CC6
:1087300082B000F0F00002F07F0703F07F062ED039
:10874000002C70D1874BA0281C785BD00FD88028D4
:1087500047D0902808D101460095834833463A46D1
:10876000FDF7C0FD022C34D102B0BDE8F081B02885
:1087700000F0A680E028F7D107EBC612A2F5005260
:1087800012B202F5005601460095774802F07F02CA
:10879000C6F3C713FDF7A6FD022CE5D067E0734BC7
:1087A000A0281B6800F082800DD9B02869D0E0288D
:1087B000DAD107EBC612A2F5005212B2002B4BD051
:1087C00002F5005653E0802800F0BE809028CBD1FF
:1087D0008BB36748009533463A469021FDF7AEFDCE
:1087E000C2E701460095604833463A46FDF77AFDF8
:1087F000022CB9D05E48009533463A468021FDF7F9
:108800009DFDB1E701460095574833463A46FDF7CE
:1088100069FD022CA8D05648009533463A46A0215F
:10882000FDF78CFDA0E7A02842D00CD8802800F0EE
:108830008E80902898D1014600954B4833463A46A1
:10884000FDF750FDC5E7B02826D0E0288CD107EB16
:10885000C612A2F5005212B202F500564248009527
:1088600002F07F02C6F3C713E021FDF73BFD40484D
:108870000095C6F3C71306F07F02E021FDF75EFD09
:1088800072E7072929D04BB13948009533463A465B
:10889000B021FDF753FD67E707292AD0014600956F
:1088A000314833463A46FDF71DFDEDE7002BB2D1C6
:1088B000014600952C4833463A46FDF713FDAAE7DA
:1088C00007292BD02848009533463A46B021FDF7BA
:1088D00009FD022C3FF448AFD6E7652FD3D9DFF866
:1088E0009480B3B198F8003013F0FD0F7FF43CAFE3
:1088F000CAE7652FD2D9DFF87C8098F80030012BC9
:10890000F0D801460095184833463A46FDF7EAFC90
:10891000E8E798F80030012BF3D9E3E7652FD1D9C8
:10892000DFF8508098F80030012B03D9022C3FF477
:108930001BAFD7E7014600950B4833463A46FDF793
:10894000D1FC022CCED10FE7002B7FF453AF0146B0
:108950000095054833463A46FDF7C4FC4AE700BF98
:108960001861002008690020F8670020608C002052
:10897000E06600205D8C00202DE9F04F2DED068B88
:108980009FB015AB0CAA03A9D148DFF8C8B3DFF834
:10899000C883D04FD04ED14DD14C13F09BFCD14B5E
:1089A000DDED137A93ED001ACF4BD049D04AC3EDD9
:1089B000007AD04BD2ED000AD1ED006A9DED110A8C
:1089C0009DED127ACC4ACD49DB6882ED000ADDEDDF
:1089D000081A9DED092ADDED0A2AC94A81ED007ABF
:1089E00030EE660A77EE600A37EEC11A1A998BEDFF
:1089F000000ADB01C8ED000A87ED001AC6ED001A77
:108A000085ED002AC4ED002A116004D5BD4B1A681B
:108A1000D00700F151821EF057FCBB4B9BED000AC2
:108A2000D8ED000A97ED001AD6ED001A95ED002A50
:108A3000D4ED002AA0FB0301830A43EA815307EE29
:108A4000103AB24C9FEDB26AD4ED0F7ADFEDB18AE5
:108A5000DFEDB16AB8EE477A204677EE677A84EDAB
:108A60000E7A67EE867A84ED0F7AF4EEE87AF1EE0C
:108A700010FA98BFF0EE678AF4EEE68AF1EE10FA8B
:108A8000B8BFF0EE668AB0EE683AC4ED107A14F022
:108A90000FFC94F82830002B00F026829F4D236BAA
:108AA0002B60DFF8B8A2D4F82C90CAF800909C4B49
:108AB000D4ED0D7A93ED007A9A4B37EE877AC3EDB9
:108AC000007A17EE100A17EE104A25F063FE7AA31B
:108AD000D3E9002306460F4626F044F9002800F0AB
:108AE000F08177A3D3E900233046394625F0F2FC24
:108AF00026F0A0F98C4B019304461860484625F0F7
:108B000049FE6DA3D3E9002325F0E6FC26F092F997
:108B1000814625F03FFE68A3D3E9002306460F46B1
:108B200026F020F948B166A3D3E900233046394640
:108B300025F0D0FC26F07EF98146286880F00040C0
:108B400025F028FE60A3D3E9002325F07BFE26F064
:108B500071F909EE900A89F00040C5ED009A25F000
:108B600019FE59A3D3E9002325F06CFE26F062F923
:108B700009EE100A84F000408AED009A25F00AFE02
:108B800051A3D3E9002325F05DFE26F053F9674B8E
:108B900001991A680860D1070AEE100A644C40F186
:108BA0009C8194ED008A634E634F96ED007AD7ED79
:108BB000007A39EEC77A7AEE677AB5EEC07AF1EECE
:108BC00010FAF5EEC07A4CBF01220022F1EE10FA45
:108BD0004CBF012300239A42B5EEC09A00F01081E9
:108BE000F1EE10FA40F31081B0EEC99AD8F8000007
:108BF00025F0D0FD34A3D3E9002325F023FE8046E1
:108C000018EE900A894625F0C5FD02460B464046FF
:108C1000494625F017FE804618EE100A894625F0D1
:108C2000B9FD02460B464046494625F055FC26F064
:108C300001F908EE100AF5EEC09AF1EE10FAB5EE61
:108C4000C08A4CBF01220022F1EE10FA4CBF012372
:108C500000239A4287ED00AAC6ED009A206000F03A
:108C60002881DFED367A68EE277A9FED357A354B2D
:108C7000B4EEC79AF1EE10FAADBF002238EE678A63
:108C8000C3ED007A1A60304B304A1B7884ED008ABD
:108C90002A2101FB032385ED008A93F82030002B65
:108CA00000F002812A4C2378002B63D00133DBB221
:108CB000052B23705ED953E0182D4454FB21094045
:108CC000182D4454FB211940F8C1631ADCA54C400F
:108CD000F88D0020988C00201C8B0020208B002019
:108CE000248B00209C8C0020688D00208C8C002020
:108CF000948C0020F0ED00E0608D0020648D002059
:108D0000F0670020001000E040420F00888D002036
:108D1000BD3786350AD7233C6F12833A708D002009
:108D2000408F0020648C00203C8F0020206A0020AF
:108D30000C8B0020088B0020048B0020CDCCCC3C79
:108D40000000AA42F88A0020D08C00209860002001
:108D5000F78A0020888C0020908C0020F88C00205E
:108D600000210A2020F0A6FB0021032020F0A2FB16
:108D700000232370DBED007AB6EE007AF4EEC77ABA
:108D8000F1EE10FA63DD784E784D96ED007AF4EE50
:108D9000C77A0123F1EE10FA2B7000F3CC80B5EE08
:108DA000C07AF1EE10FA40F3CB80DFED716A37EE56
:108DB000667A86ED007AB5EEC07AF1EE10FA40F2EE
:108DC000BF80F5EEC07AF1EE10FA6DD5DFED697A6D
:108DD000B4EEE77AF1EE10FA00F2B980F7EE007A1D
:108DE00037EE277AF2EE087A27EE277AFCEEC77A7A
:108DF000CDED017A9DF804304FEAC3085F003AE0F8
:108E0000F1EE10FA7FF6F0AEDFED5B7AB0EEC99AC4
:108E1000B4EEE79AF1EE10FABFF6E8AEB5EEC08A0E
:108E2000F1EE10FAF5EEC09A4CBF01220022F1EEED
:108E300010FA4CBF012300239A4287ED00AAC6ED29
:108E4000009A7FF40EAF4D4B00221A601BE7F5EE3F
:108E5000C07AF1EE10FA27D5444D2B7823B3424E59
:108E600096ED007AB5EEC07AF1EE10FAAEDA182778
:108E70004FF060080C23424A42491278097890204A
:108E8000FFF74AFC41460A2020F014FB3946032034
:108E900020F010FB3C4A3D4B12681A600021012271
:108EA0000023316022702B701FB0BDEC068BBDE833
:108EB000F08FDFED377AD8E65B689B0907EE103A52
:108EC000BFE525A3D3E900233046394625F02CFF22
:108ED00048BB304B01931C6010E60122B0EE698A5A
:108EE000C4ED009A1A605EE6204614F0A3F92A4DFC
:108EF00094F82830226B2A60002B7FF4D2AD2046F4
:108F000014F098F9DFF894A094F82830D4F82C9055
:108F1000CAF80090002B7FF4CAAD204614F08AF9FD
:108F2000DAF80090C3E50EA3D3E9002330463946B2
:108F300025F0D2FADCE5C6ED007AB0EE677A3AE7C2
:108F400000232B701FB0BDEC068BBDE8F08FFC2713
:108F50004FF47C787E238EE7182D4454FB2109C002
:108F6000182D4454FB211940008B0020FC8A00205E
:108F70003333333FAE4719410000AA42F88A00203C
:108F8000448F0020546200200C8D00202C8D002086
:108F9000000000003C8F0020708D0020F88C002025
:108FA0002C4A2D4938B5D2E90035D2E902042B44C8
:108FB0000344D2E9040523440344D2E906402B4488
:108FC000126A097823440344134429B1234A2448EC
:108FD0001278825C032A24D0224A2348126800684F
:108FE000224DC3F500531A44121817D4B2F5804F1E
:108FF000A8BF43F6FF722A601D4C2368934200D03D
:1090000001B938BD1B49C2F3C713097802F07F02CA
:10901000E020FFF781FB2B68236038BD00222A6027
:10902000EAE7154C154A164894F90050127804786E
:109030001448521B121B07EE902A90ED007AF8EEAE
:10904000E77A67EE877AFDEEE77A17EE902A134407
:10905000C2E700BFDC610020EF8C0020D08C002034
:10906000746200207C8C0020EC8D00207062002057
:109070001C61002054620020F08D0020E88C00204C
:109080006462002078620020CC499FEDCD6AD1ED6A
:10909000007ACC4BCC4A93ED007ADFEDCC6A2DE917
:1090A000F04F67EE867A2DED028BE7EE267AC84FF9
:1090B000C84C92ED008A3B78C1ED007A37EE088A01
:1090C0002A2638EE678AF6EE008A06FB034368EE2E
:1090D000288A83B0C2ED008A93F82420009293F886
:1090E000252093F81BB093F8265001921CF07EFEC9
:1090F0003B78B94A06FB0346F0EEE87AB3EE047A11
:10910000F4EEC77AF1EE10FA317ECCBF01270027CA
:10911000177019B996F82120002A7AD0AF4ADFF8E3
:10912000EC82DFF8ECE2DFF8ECC2AD4F16784FF0DE
:1091300000094FF0000AC8F80090C7F80090CEF878
:109140000090CCF800A07EB9B6EE007AF4EEC77AB3
:10915000F1EE10FA08DDA34901230860137003B093
:10916000BDEC028BBDE8F08FDFF87892D9F8009063
:10917000A0EB0909B9F10B0FF1D9DFF89CA29AF81D
:109180000090B9F1000F24D0DFF8909299F80060B8
:10919000002E47D09FED947A944EF4EEC77AF1EE0C
:1091A00010FAC8BF30603668801BB0F5C87F3ED962
:1091B000002389F8003013708AF800308C4B1B783C
:1091C000022BCCD103B0BDEC028BBDE8F04FFFF712
:1091D000E7BEB6EE007AF4EEC77AF1EE10FA00F3CD
:1091E0009380DFF8389299F80070002FD2D19FED6C
:1091F0007E7AF4EEC77AF1EE10FA01DD7B4B18604F
:10920000002EDBD0794B1B68C01AB0F5C87FCFD8D1
:10921000D4E796F82220002A80D196F82320002A4D
:109220009DD07BE7714E0122306089F80020DFED90
:10923000717AB4EEE78AF1EE10FA4EDA2A2202FBD6
:109240000342FFEE008AD27F002A5AD0032A00F0A0
:10925000FA80022A00F03081052A00F00981042AF0
:1092600000F07981B0EE687A91B1634A9FED636A4C
:10927000D2ED007A06EE90BA67EE867AF8EEE66AEC
:1092800067EEA67A67EE877AFDEEE77AC8ED007A98
:109290002A2202FB034292F82110002946D0DDED7C
:1092A000007A9FED577A92F82720F8EEE77A67EE7A
:1092B000877A9AB3032A00F03581022A00F0F480FD
:1092C000052A00F06881042A00F0998168EEA77AE7
:1092D000FDEEE77A17EE902A26E0DFED4A7A2A22A1
:1092E000B4EEE78A02FB0342F1EE10FA98BFDFED1D
:1092F000467AD27F94BF68EEA78AF7EE008A002AEA
:10930000A4D1B1EE687AAFE701268AF800603BE7A6
:10931000F5EEC08AF1EE10FAC0F2CC8067EEE87A82
:10932000FDEEE77A17EE902A2D490A602A2202FB09
:10933000034292F8221019B3DDED017A9FED307AE5
:1093400092F82820F8EEE77A67EE877AA2B1032A2E
:1093500000F0BA80022A00F09680052A00F03D81D4
:10936000042A00F05A8167EEA87A07E0F5EEC08A79
:10937000F1EE10FAC0F28D8067EEE87ACCED007A5B
:109380002A2202FB034494F82330002B3FF416AF4B
:1093900007EE905A9FED1A7A94F82930F8EEE77AA2
:1093A00067EE877A002B3DD167EEE88AFDEEE87A1A
:1093B00017EE903ACEF8003000E700BFC48A0020D4
:1093C0006666663F208B0020C88A0020CDCCCC3D4D
:1093D000D08C002098600020DC8D0020C28A002004
:1093E000E08D0020CC8A00203333B33ED08A0020A9
:1093F000FC8C00202506F0C1786200200AD7233DAE
:109400000AD7233F2506F0410A85883DEC8D0020D0
:10941000E88D0020E48D0020C08A0020C18A002051
:1094200000000000032B64D0022B35D0052B00F088
:10943000C180042B00F0068168EEA77AFDEEE77A82
:1094400017EE903AB6E75FED0A7AF5EEC08AF1EED4
:1094500010FA8CBFB0EE677AB0EE687AFFEE007A51
:10946000B4EEE77AF1EE10FAB8BFB0EE677AFBE639
:10947000F7EE007AF4EEE78AF1EE10FA40F2B880E7
:10948000BFEE007AF0E6F5EEC08AF1EE10FA40F297
:10949000E7805FED1D7A71E7F5EEC08AF1EE10FA14
:1094A00040F2E780002385E7F5EEC08AF1EE10FA7E
:1094B00040F2EE80002237E7F5EEC08AF1EE10FAB6
:1094C0005ED91FED297ACFE6F5EEC08A1FED2C7A22
:1094D000F1EE10FA98BFB0EE687AFFEE006AB4EED3
:1094E000E67AF1EE10FAB8BFB0EE667A67EE877AE8
:1094F00044E7F5EEC08A1FED367AF1EE10FA88BF28
:10950000F0EE478ABFEE007AF4EEC78AF1EE10FA69
:10951000B8BFF0EE478A68EEA78AFDEEE87A17EE4C
:10952000903A47E7F5EEC08A1FED437AF1EE10FA64
:1095300098BFB0EE687AFFEE006AB4EEE67AF1EE1C
:1095400010FAB8BFB0EE667A67EE277AFDEEE77ADA
:1095500017EE902AE8E6F7EE007AF4EEE78AF1EEED
:1095600010FA8CBFB0EE677AB0EE687AB5EEC07ACA
:109570005FED557AF1EE10FAB8BFB0EE677A73E698
:10958000FFEE007AF4EEE78AF1EE10FABFF6B9AE1C
:10959000B7EE007A68E6B7EE007AF4EEC78AF1EE2D
:1095A00010FA7FF6B5AEF1EE677AFDEEE77A17EEC8
:1095B000902AB9E6F5EEC08A1FED677AF1EE10FA4F
:1095C00088BFF0EE478ABFEE007AF4EEC78AF1EE6C
:1095D00010FAB8BFF0EE478A2EE7B7EE007AF4EE45
:1095E000C78AF1EE10FA7FF6C1AEF1EE677AC5E6F2
:1095F000F5EEC08AF1EE10FABFF683AE61E7B7EE82
:10960000007AF4EEC78AF1EE10FA98BFB0EE687AED
:109610005FED7D6AB5EEC07A91E7B7EE007AF4EEC1
:10962000C78AF1EE10FA98BFB0EE687AB5EEC07A4C
:109630005FED856AF1EE10FAB8BFB0EE667A67EEBC
:10964000877A9BE6B7EE007AF4EEC78AF1EE10FA5D
:1096500088BFF0EE478AF5EEC08A1FED8F7AB6E735
:10966000BFEE007AF4EEC78AF1EE10FABFF684AED0
:1096700084E6BFEE007AF4EEC78AF1EE10FAFFF648
:10968000DDAE67EEE87AFDEEE77A17EE903A91E606
:10969000BFEE007AF4EEC78AF1EE10FABFF63EAEE6
:1096A00054E700BF2DE9F843B24BB3491878C0EB3B
:1096B000C003C3EBC3030B44C50093F82D30403BFC
:1096C00007EE903AF8EEE77A00F1ED809FEDAB7A85
:1096D000F7EE000AE7EE870A2B1AC3EBC3030B442D
:1096E00093F82E30403B07EE903AF8EEE77A00F11F
:1096F000E580DFEDA26AB7EE007AA7EEA67AA04A6F
:109700002B1A02EB4302927A002A00F0A3809D4CB0
:10971000C3EBC30394F800E0CA18BEF1010F92F83E
:10972000246092F8277092F8283092F825C092F8B9
:10973000294092F82A8092F82C9000F0D4800925D4
:109740006422403CA8F14008B9F1000915FB062647
:1097500015FB072715FB03204FEA44044FEA48088E
:1097600018BF4FF0010915FB0C22874D2B68BB4237
:1097700038DCBE1B012EB8BF012607EE906AFB1A2B
:10978000B8EEE77A07EE903AF8EEE77AF7EE006A7D
:1097900087EE870AB4EEE60AF1EE10FAF4EE660AF6
:1097A00088BFB0EE660AF1EE10FA01D01AF0AEF8FA
:1097B00007EE904AF8EEE77A27EE800A734B9FEDAA
:1097C000747AD3ED007A734B734A1B7867EE877A0D
:1097D000022B27EE800ABDEEC00A82ED000A7BD084
:1097E000BDE8F883834274DB121A012AB8BF012254
:1097F00007EE902A1B1AF8EEE76A07EE903AF8EEA9
:10980000E77A9FED666A87EEA60AF7EE007AB4EE75
:10981000C60AF1EE10FAB4EE677AB8BFB0EE460AA7
:10982000F1EE10FA03D0F0EE470A1AF06FF8B9F132
:10983000000F08D0F7EE007AB4EEE70AF1EE10FA66
:1098400088BFB0EE670A07EE908AF8EEE77A27EE57
:10985000800AB3E7524A1278032A5AD0494A514C37
:1098600012782668012A44D0C3EBC3030B440922B3
:1098700093F82B1093F80180642312FB0132921BA2
:1098800006EB4202B3186FF013045F1004FB08F4F8
:109890001421B7EE007AF0EE470A08FB01F83846CB
:1098A0004FF0010961E7DFED406A9FED407A77EE06
:1098B000A67AF5EE000AE7EE870A0DE79FED3A7A01
:1098C000DFED3A6A77EE877AB5EE007AA7EEA67AF0
:1098D00015E79FED320A71E7354B00221A60BDE8AB
:1098E000F843FFF75DBB2E4B1B78032B2ED02D4B7F
:1098F0001E68304A281AC0EBC0000B18126893F893
:1099000001806FF01304931904FB08F45F100A211F
:10991000BFE72448274A284D0468126819482E6872
:109920000078C3EBC3030B44121B93F8018006EBD2
:109930006202012806EB02036FF013044FEA63078B
:1099400004FB08F40CBF0A211421A2E7194B1549A6
:1099500019481B680968066892F801805A1A06EBD4
:10996000620293196FF013045F1004FB08F40A21DC
:109970008FE700BFD08C002004600020320C433DF4
:10998000C86200202C6100207C8D002078620020BD
:109990000AD7233CFC8C00207C8C002000000000B7
:1099A000DD8C0020B8620020000080420000403CB6
:1099B00070620020D08E0020D48E00202DE9F84364
:1099C000B4482422002125F0DDFCB34B1B78002B8A
:1099D00044D0032B42D0AF4CA368002B44D1E568A0
:1099E000002D75D16FF00106AC4BAD4A1B78D35CEE
:1099F0009A1E012A00F2BC80AA4F38684307C0F3C0
:109A0000800968D50023DFF8B882A360032D00F039
:109A1000CF8038680207C0F3C00900F1B680A24DBC
:109A20002A78002A40F01C81A04B1868A04B1B78B4
:109A3000834200F0EA80D4E90231D8F800200B44D8
:109A40005B42934206DD012E40F2B7805242002372
:109A5000C4E90223BDE8F843FFF7A2BA8D4CFEF734
:109A600087FBA368002BBAD08C4B8D4A1B78D35C44
:109A70009A1E012A40F295808E4A1278012A00F03F
:109A8000878002250026022AE4D113F0FB0F32D191
:109A9000894B8A4A1B78916882488B42006802DAB7
:109AA000470740F11581022D4CD00021A160D268FA
:109AB00093424ADB032D01D00023E360012EC9D974
:109AC000D4E902317E4A12680B449342C2DDBEE7FC
:109AD0000126032588E7DFF8D08198F80020002AC6
:109AE00040F0B480714B1868714B1B78834269D089
:109AF000DFF8CC818AE7012B01D00A2BAAD1694B70
:109B00001A68D60500F1FD80150700F1F7806B4B50
:109B1000694ADB681278934240F30D8168486949CD
:109B2000D0ED007AD1ED036A9B1A07EE103AF8EEF9
:109B3000E77AB8EEC77AE7EE667AFDEEE77AC4ED2B
:109B4000037A87E7D2689342B6DA0707B2D4032DC7
:109B5000B4D0D31A5B4907EE903A91ED037AF8EE50
:109B6000E77A67EE877AFDEEE77AC4ED037AA5E738
:109B7000504A1278012A86D1514A12680023C4E95A
:109B80000223BDE8F843FFF70BBA0023E36052E776
:109B9000E368002B7FF45EAF494AA3601368E3607B
:109BA00058E7404F386810F4807663D1022525E7E6
:109BB0003868C1053FF53FAF2CE73B68DB053FF553
:109BC00049AF43E73D4B3C4A9B6812789A425ADAC8
:109BD0003D4ADFED3E6AD2ED027A3A4ADFF8E08094
:109BE00007EE103AF8EE677AB8EEC77A77EEE67AC3
:109BF000D2ED026A77EEC77A67EEA67AFDEEE77AD3
:109C000017EE903A5B42A36000E72C4B2A4ADB68D0
:109C10001278934232DD2C4ADFED2C6AD2ED037AC2
:109C2000284A07EE103AF8EE677AB8EEC77A77EE70
:109C3000E67AD2ED036A77EEC77A67EEA67AFDEE92
:109C4000E77A17EE903A5B42E360F4E640F00400F6
:109C50003860FEF707F9154B88F80090186043E765
:109C600040F008003860FEF7FDF8104B85F80090D2
:109C70001860DBE6DFF848800026CAE6D8F8003036
:109C80005B42E360D7E6DFF83880D8F800305B420B
:109C9000A360BBE6DC610020FC8C0020D08C00209F
:109CA00060620020A48C0020D0610020E08A0020A7
:109CB000646200200C8F0020B16200207C8E0020A6
:109CC000288B0020108F0020F46200200000484202
:109CD000022D3FF437AFC91A194F07EE901A97EDCE
:109CE000027AF8EEE77A67EE877AFDEEE77AC4ED5E
:109CF000027ADCE602DB12077FF5ACAE0023E360FC
:109D0000A8E6104B1049DB6809788B42F2DD10079A
:109D1000F4D4032D3FF49EAE5B1A094A07EE903A45
:109D200092ED037AF8EEE77A67EE877AFDEEE77A4E
:109D3000C4ED037A8EE6054B1B68E3608AE600BF3C
:109D4000108F00207C8E0020B1620020288B002024
:109D50002DE9F04F3C4C3D4883B02422002125F0F2
:109D600011FB2678002E6AD0032E68D0384BDFF81E
:109D7000F8E01B683748384C384901930023DEF877
:109D8000002000682478D1F80080354DDFF8BCC091
:109D9000DFF8D8909A46012712E055F82310A14227
:109DA0000BDA20FA03F107FA03FBC90722EA0B02D8
:109DB00003D522FA03F1C9070AD50133092B2DD0A7
:109DC00022FA03F1C907E8D420FA03F1C907F4D550
:109DD000012E03D05CF823100029EED155F8231092
:109DE0008C4222DA28FA03FB1BF0010F23D1091B56
:109DF00007EE901A1B4903F8097001EB830191EDFE
:109E0000007AF8EEE77A67EE877AFDEEE77A17EEEA
:109E1000901A4CF823100133092BD1D1CEF8002031
:109E200003B0BDE8F04FFFF7BBB828FA03F1C9074C
:109E300003F809A0C1D501994CF82310BDE7FEF73E
:109E400097F9267892E700BFFC8C0020DC610020A7
:109E5000288B002030630020B1620020A48C0020F9
:109E60007C8E0020108F0020A88C0020008D002008
:109E70002DE9F047354E364A337803EB43010A4467
:109E8000125CEAB100EB80094FF03208314F08FB59
:109E900003920446BD5C012D07EB02014FEA800AE4
:109EA0001CD0052D0ED0062D2CD12B4991F9002068
:109EB000033205DB2948C25C013A52B2C2540A702F
:109EC000BDE8F087244991F90020022AF8DC2348F4
:109ED000C25C013252B2C2540A70F1E74A780AB346
:109EE000012AEDD154444FF0320A0AFB03433B44AC
:109EF0001A79D9789878FCF74DFA33780AFB03443D
:109F00003D5DCEE70A2D05D1154A13780133137054
:109F1000BDE8F0870B2DD3D1114A1378013B1370A4
:109F2000BDE8F0870B79CA7889789020FEF7F4FBBA
:109F300033780C4A08FB0398155517F80850012D83
:109F4000B844AED198F80120CAE700BFD08C0020F9
:109F5000D48C002034610020F08C0020F48C002090
:109F6000E98C0020E08C0020114B12481B78124A2B
:109F7000C3EBC303C3EBC30318440121837A1170FD
:109F80008B4203D0022B0DD033B17047437B027B51
:109F9000C17A8020FEF7C0BB437B027BC17A902050
:109FA000FEF7BABB427B017BC07AFCF7F3B900BF76
:109FB000D08C002004600020788C0020114B1248C7
:109FC0001B78124AC3EBC303C3EBC303184400213D
:109FD000837B1170012B03D0022B0DD033B170475E
:109FE000437C027CC17B8020FEF796BB437C027CD5
:109FF000C17B9020FEF790BB427C017CC07BFCF7CC
:10A00000C9B900BFD08C002004600020788C0020EB
:10A01000914B2DE9F0471B8843F480735A1C1A4278
:10A0200082B06CD000210A4613F0010F08BF114620
:10A030005B1002F10102F7D101F13E04E4B2462CBB
:10A0400028BF46243C3C854D854A2B78C3EBC3038F
:10A05000C3EBC30313449A7C032A3DD0DFF84C8240
:10A06000D8F800307F4A8049804F91F800C0D2F87C
:10A0700000905168D7F800E07D487E4E04FB0C1438
:10A080005FFA8EF299450460327016DB7A4B01213B
:10A09000002031700A4618702B7878483960C3EB7D
:10A0A000C30300EB43035B7923B1754C2378012B89
:10A0B00027D0227002B0BDE8F08709F10101994272
:10A0C00008DA7049BEF1010F097804BF022232702C
:10A0D00001292DD01146DFE76B4A1278CAB9197DE4
:10A0E000DA7CDFF8C88142EAC112D8F800300532C4
:10A0F0009A42B7DAFFF738FFD8F80030B2E70A24FF
:10A10000A1E7012AD5D01BF071FE604B32781860B0
:10A11000CFE7DFF89881197DDA7CD8F8003042EA81
:10A12000C1129A429EDDFFF749FFD8F8003099E747
:10A130005749087800283DD0A4EB090100FB01F144
:10A14000DFF86CC101EB41008CFB00A98CFB01AC7A
:10A15000C017C917A0EBE910C1EBEC11214404446E
:10A160004C48DFF8509101609942C9F8004013DB78
:10A170009C4221DB0222BEF1010F327028D0BEF1D9
:10A18000030FA7D11BF032FE434B1B68C01A1428E3
:10A1900052D8327811467FE7374B00210322BEF1B7
:10A1A000010F1970327095D0BEF1030F92D1724633
:10A1B000114671E72146D3E7BEF1010F06D0BEF18B
:10A1C000030F87D1022ADDD0114665E7022A81D12B
:10A1D000294C01931BF00AFE94F800C0019BBCF1CE
:10A1E000000F15D12D4A2E49D2F800E008602D4A03
:10A1F0002D49C2F800C00120C1F800C02070BEF196
:10A20000000F25D1022100230A462370327043E754
:10A210002349224A09681268401A9042F2D2214A20
:10A220001168A1B1204A116813605B1A002BE9DDA7
:10A230003A78327011462FE7D9F80020D8F800108C
:10A240000120FDF74DFF02463070014624E7164914
:10A250000B6001201060EBE7A48C0020D08C002064
:10A2600004600020B862002063620020688C002037
:10A2700018630020DD8C0020A08C0020C862002024
:10A28000B06200202C610020788C0020088F002014
:10A29000D8610020D08E0020808C002044620020F5
:10A2A000D48A00205C8D0020508D00207C8D002001
:10A2B0001F85EB51D48E00202DE9F8431BF096FD4D
:10A2C0008D4D8E4A2B6811689942044600F09180AA
:10A2D000DFF860828A4F8B4E98F8001013600122DD
:10A2E00038603270002933D1874B1960874B884F13
:10A2F0004FF00108002483F8008034701BF076FDD5
:10A30000844B024628681A60FDF7ACFD21460346DF
:10A3100040463B70FDF70EFD3E787F2E67D07E4FA6
:10A320003B78B34263D07D4B1B78022B0BD07C4B28
:10A330002A681A607B482422214625F023F87A4BAC
:10A34000C3E900441C723E70BDE8F843FFF760BEED
:10A3500099461BF04BFD754A754B127819682868B1
:10A360008A4203DAC10758BF49F0010959688A4295
:10A3700003DA810758BF49F0020999688A4203DA73
:10A38000410758BF49F00409D9688A4203DA010736
:10A3900058BF49F0080919698A4203DAC10658BF53
:10A3A00049F0100959698A4203DA810658BF49F019
:10A3B000200999698A4203DA410658BF49F04009E9
:10A3C000D9698A4203DA010658BF49F080091B6A3D
:10A3D0009A4203DAC30558BF49F4807948451BD136
:10A3E000494B327800211960002A7FF47FAFBDE825
:10A3F000F883DFF81491424FD9F800303868241AF6
:10A40000002B72D09C4219D33E4E32780023C9F8FB
:10A410000030002AEBD069E7FDF724FD03464846EB
:10A420009946FDF71FFD7F28DAD08145D8D0DFF8A7
:10A43000D89098F80030C9F80030DFE72E681BF09C
:10A44000D5FC3A4A3A4B1278196828688A4203DAEE
:10A45000C70758BF46F001065968914203DD8107DE
:10A4600058BF46F0020699688A4203DA470758BF88
:10A4700046F00406D9688A4203DA010758BF46F05D
:10A48000080619698A4203DAC70658BF46F0100663
:10A4900059698A4203DA810658BF46F02006996955
:10A4A0008A4203DA470658BF46F04006D9698A4215
:10A4B00003DA010658BF46F080061B6A9A4203DAA7
:10A4C000C30558BF46F48076B0429DD0FDF7CAFC64
:10A4D000034630461E46FDF7C5FC7F2894D08642D1
:10A4E00092D0D9F800309C4281D3064E3278002AAF
:10A4F0003FF47DAFFAE600BFA48C0020A4620020E8
:10A50000D88A0020DC8A0020C88E0020D06100207C
:10A51000F2620020808C002064620020FC8C00200D
:10A52000A88C0020DC610020008D0020B16200209A
:10A530007C8E0020C48E0020102928BF1021012904
:10A5400000F0F00038BF0121C0282DE9F04102F0F1
:10A550007F0535D0D0280BD1234E3378012B09D17C
:10A56000224B1B6833B1013961F02F04E4B218E0CB
:10A57000BDE8F0811E4F7B6D0139186861F02F0432
:10A580000368E4B21B68214698477B6D186803682E
:10A5900029461B68984733781BB9164B1B78022B4A
:10A5A000E6D0154E736D1868036821461B699847FD
:10A5B000736D1868036829461B69BDE8F0411847A8
:10A5C000094E3378012B07D1084B1B6823B10139A1
:10A5D00061F03F04E4B2E4E7054F7B6D0139186890
:10A5E00061F03F04CCE700BF18610020608C0020C0
:10A5F000F867002008690020E06600202DE9F04F90
:10A60000664E674D3778C7EBC703C3EBC3032B44D4
:10A6100085B09B78012B80464FEAC70426D0DFF82F
:10A62000B891E31B09EB43039B79DA073DD49B0701
:10A6300019D55C4B1B78B3B15B4A5C4BD46B1B6880
:10A640005B4D1C442B6884F307049C4202D1B8F193
:10A65000000F08D0574B584A19781278E3B2A0205F
:10A66000FEF75AF82C6005B0BDE8F08F4E4A534B08
:10A67000D2681B68DFF864A102EB0309DAF8003046
:10A6800089F307094B4501D10028C8D0E41BC4EB6E
:10A69000C4042C445FFA89F261792079FBF77AFED1
:10A6A0003778CAF80090FC00B9E7454A4549D2ED31
:10A6B000006A91ED020A9FED447ADFED447A00933F
:10A6C00030EE260A03A8B4EEC70AF1EE10FA88BFEE
:10A6D000B0EE470AB4EEE70AF1EE10FAB8BFB0EEFA
:10A6E000670ACDED037A18F0AFFF2E4A009B12786F
:10A6F000F0EE407AFEEEEC7ACDED017A2AB3DDED94
:10A70000037AFDEEE77A17EE90AA8AF3070ADFF8DC
:10A71000D0B0DBF80020E41B5245C4EBC4042BD0BE
:10A720002C4494F82F30BBB9224C21785FFA8AF27E
:10A73000D020FFF701FF3378CBF800A0C3EBC303B1
:10A7400009EB430999F8063071E721490968642942
:10A75000D5DC01929246DAE7AAEB02020F321E2AFA
:10A76000E2D81C4D134C9DF8042020785721FBF7AC
:10A7700011FE019B2B60D8E7254495F82F2042B1AC
:10A78000144D01992A688A42ECD1B8F1000FE9D141
:10A790004DE7B8F1000F3FF44AAFC5E7D08C002079
:10A7A00004600020EF8C002004620020E88D00206F
:10A7B000488D002054620020E88C0020E08D0020AD
:10A7C000E48D0020BC8C00200000FE420000000050
:10A7D0007C8D0020408D0020C8620020388D002034
:10A7E0003C8D00202DE9F04FBD4DBE4C2B78BE4E68
:10A7F000C3EBC30204EB420230789279002A83B0A3
:10A8000014BF4FF003094FF01009DA0000283BD0C5
:10A81000B649DFF8FCC2C95CB54F0329B5490978D0
:10A8200000F0E7809CF900E097F800C0A1EB0E0172
:10A830008C4502D0BCF1000F2AD1DFF8FC8298F8D9
:10A840000030012B00F0A0803A78002A00F0AA80A6
:10A850002B78C3EBC30104EB41046178002940F07D
:10A860009C80A549CB5C032B00F09881A34B1B78FF
:10A87000032B06D0A24B1A6840F2FF139A4200F055
:10A88000918003B0BDE8F08F994F39780029F8D056
:10A89000DFF8A48298F800100129A2EB030104EB71
:10A8A0004101497840F2BC80002940F0BB80D11AB8
:10A8B00004EB41014979002900F0D980002800F01B
:10A8C000CC80DFF830A29AF800100191D11A04EB85
:10A8D000410191F809B0BBF1000F00F06B8189498B
:10A8E000DFF8449200914FF0010B87490978002965
:10A8F00000F0A08085490968002900F09B80844908
:10A90000387891F800C0D31A04EB430E00EB0C0228
:10A910009EF80800D2B24FF0010C8AF8002086F8A9
:10A9200000C0002840F020817A4B00991B780978FC
:10A930009020FDF7F1FEBBF1000F40F00D811BF000
:10A9400055FADFF8F8A1CAF800001BF04FFA2B788F
:10A95000714ADAF800101160C3EBC303C3EBC30301
:10A960009944DFF8DCC199F812306C4A3978CCF898
:10A970000000022B117000F0E780307800287FF48F
:10A980005EAF03B0BDE8F08F2B78C3EBC30204EBDE
:10A990004204627832B13A7822B1614909780029DB
:10A9A0007FF45FAF574B534A1978127840238020C9
:10A9B000FDF7B2FE2B785B492A2202FB0312D27DFF
:10A9C000012A00F08680584AC3EBC303C3EBC303DC
:10A9D000134400229B7C3270022B7FF452AF534B06
:10A9E0001B78002B3FF44DAF03B0BDE8F04FFFF7ED
:10A9F000E5BA9CF9008097F800C0DFF848E1A1EBC8
:10AA00000801ACEB010100299EF800E0B8BF494203
:10AA10008E453FF712AFBCF1000F7FF439AF0CE762
:10AA20000029ABD03E49097800297FF440AF0028C7
:10AA3000A7D004E7D11AC1EBC100484480780128AF
:10AA400005D004EB41018879002800F0AB8001209B
:10AA5000FFF7D4FD2B78DA0051E71BF0C7F9344B30
:10AA60001B68C01A484588D32B783078DA00DFF8A5
:10AA700084A09AF80010019100287FF427AFDFF836
:10AA8000A890D11AC1EBC10149448978002940F04E
:10AA9000B380D11A04EB41014979002940F0A68026
:10AAA000D21A04EB42029279D10700F19580920705
:10AAB00000F18D801B4A4FF02A0B0BFB0321C97D4F
:10AAC000012900F09E800F4900914FF0000BDA0041
:10AAD0000BE71BF08BF9174A2B78106073E700BF68
:10AAE000D08C0020C8620020EF8C0020746200200F
:10AAF00064620020E88C0020606200202C6100204D
:10AB0000A48C00205462002018610020608C00207A
:10AB1000F08D00201F6300202C8D0020A8620020F3
:10AB2000288D00209860002004600020788C002090
:10AB3000088F0020648B0020DD8C00200C8D00200D
:10AB4000E48C002055620020424B1B78002B7FF4E0
:10AB500014AFFFF709FA10E7DDE900328020197819
:10AB60004023FDF7D9FDEAE6C3EBC30319F8033030
:10AB70002BB19EF8013013B9FEF794FD3649374BDF
:10AB80001B78A3B9364B1B78022B02D0FFF7E0F8F5
:10AB900031490B783A781A44D2B2C5E63F2A7FF49D
:10ABA00065AEFFE6497901297FF4A9AE4FE7FEF7CC
:10ABB00005FFEDE72B4B019A197800938020402385
:10ABC000FDF7AAFD2B78DFF8B090DA008DE60320C0
:10ABD000FDF722FC2B786DE70220FDF71DFC2B789A
:10ABE000C3EBC30204EB4202927960E70120FDF758
:10ABF00013FC2B78DA0053E7FDF70EFC2B78DA0014
:10AC000047E71BF0F3F8184A2B7818490BFB032B86
:10AC1000D1F800C09BF81920C2EB4211A0EB0C0048
:10AC200002EB8102B0EB420F0DD91149114AD1ED6F
:10AC3000007A0C490091F1EE677AC2ED007A4FF08C
:10AC4000000BDA0051E6074A00924FF0000BDA00E1
:10AC50004BE600BF788C0020F08D0020708C002027
:10AC6000FC8C00205462002098600020648B00203F
:10AC7000648C0020408F0020046000200000000051
:10AC80002DE9F041C14DC2492B782A2202FB031263
:10AC900082B092F8221019B992F8231000292FD00F
:10ACA000BC4CBD4E2068BD49C3EBC302C2EBC2021F
:10ACB0001144DA008978002940F01381B84FD11A85
:10ACC00007EB41014979002940F0C080D31A07EB16
:10ACD00043039B79D80775D4990733D40020FFF735
:10ACE0008DFC23683360AF4B1A68D20717D4AE4986
:10ACF000AE4A0968116001221A6002B0BDE8F08115
:10AD000092F82120002ACBD1A24CA34E20683268B1
:10AD1000121A002AB8BF5242012AC4DCE3E7A34C4E
:10AD2000A14D23682A689B1A002BB8BF5B42022BF7
:10AD3000E3DD01210020FCF7FDFF2B68236002B05A
:10AD4000BDE8F0819A4BDFF880821B682068D8F854
:10AD50003420A0EB8300D8F8303020EAE070B0EB6C
:10AD6000830F4FEA830180F00781084692004FF479
:10AD70008063009300231BF027F88E4BDA78012ABA
:10AD8000034600F03581022A00F056818A49DFED42
:10AD90008B6A8A79C8798A49801A03FB00F307EE27
:10ADA000903A07EE102AF8EEE77AB8EEC77AA7EEE7
:10ADB000A67AF0EE477ABCEEC77AC1ED037A88ED49
:10ADC0000F7A8BE77A4BDFF800821B682068D8F88F
:10ADD0002420A0EB8300D8F8203020EAE070B0EB0C
:10ADE000830F4FEA830180F0C280084692004FF43F
:10ADF0008063009300231AF0E7FF6E4B9A78012AD4
:10AE0000034600F0E380022A00F035816A49DFED55
:10AE10006B6A0A7948792978801A03FB00F307EEF8
:10AE2000903A07EE102AF8EEE77AB8EEC77AC1EB4F
:10AE3000C101A7EEA67A624A07EB4107FCEEC77A8A
:10AE4000BB7982ED027AC8ED0B7A45E7584BDFF803
:10AE500078811B682068D8F81420A0EB8300D8F80C
:10AE6000103020EAE070B0EB830F4FEA83017BD310
:10AE70009200904228BF10464FF480630093002355
:10AE80001AF0A2FF4B4B5A78012A034600F0A48027
:10AE9000022A00F00F814849DFED486A8A78C878B5
:10AEA000DFF81CC14749801A03FB00F307EE903A14
:10AEB00007EE102AF8EEE77AB8EEC77AA7EEA67A80
:10AEC000F0EE477ABCEEC77ACCED017A17EE102A85
:10AED000D3B288ED077A0B70002B52D02B78DA00B2
:10AEE000F4E6334BDFF8E0801A68D8F80030A0EBC6
:10AEF000820020EAE070B0EB830FD8F804204FEA1C
:10AF000083012ED39200904228BF10464FF48063F5
:10AF1000009300231AF058FF264B1A78012A0346A3
:10AF200060D0022A6AD02449DFED246A0A78487882
:10AF3000234F801A03FB00F307EE903A07EE102A26
:10AF4000F8EEE77AB8EEC77A2B78A7EEA67ADA00A1
:10AF5000F0EE477ABCEEC77AC7ED007A88ED037A47
:10AF6000ACE608469200D1E70846920084E79200DA
:10AF7000904228BF10463AE79200904228BF104600
:10AF8000F5E62B780120DA0008709FE6D08C0020CF
:10AF900098600020F48D00204C8D0020046000207B
:10AFA000C86200201C6A00207C8D0020E48A0020FA
:10AFB000B86200206C8C0020686200200000803A9B
:10AFC000BC8C00201F6300200462002000FB00F006
:10AFD00003FB00F31B1519E700FB00F003FB00F374
:10AFE0001B1558E700FB00F003FB00F31B159AE765
:10AFF00000FB00F003FB00F31B15C7E6002892D00E
:10B0000023F0B6FB41EC100B18F09AFB3AA3D3E9FE
:10B01000002351EC100B23F015FC23F00BFF07EE7F
:10B02000900A9FED377A67EEA77A67EE877AFDEE92
:10B03000E77A17EE903A76E700283FF4A7AE23F0C0
:10B0400097FB41EC100B18F07BFB2BA3D3E90023FB
:10B0500051EC100B23F0F6FB23F0ECFE07EE900A08
:10B060009FED277A67EEA77A67EE877AFDEEE77A9B
:10B0700017EE903A8AE600283FF4C8AE23F078FB3A
:10B0800041EC100B18F05CFB1BA3D3E9002351EC3F
:10B09000100B23F0D7FB23F0CDFE07EE900A9FEDB7
:10B0A000187A67EEA77A67EE877AFDEEE77A17EEF1
:10B0B000903AABE600283FF4EEAE23F059FB41ECAA
:10B0C000100B18F03DFB0CA3D3E9002351EC100B3F
:10B0D00023F0B8FB23F0AEFE07EE900A9FED087A4E
:10B0E00067EEA77A67EE877AFDEEE77A17EE903A79
:10B0F000D1E600BFAFF30080FE822B654715F73F16
:10B100000AD72341036810B504460BB17430984741
:10B1100094F87530803B7F2B43D8DFE803F0494239
:10B1200042424242424242424242424242425542EC
:10B1300042424242424242424242424242425942D8
:10B1400042424242424242424242424242425D42C4
:10B1500042424242424242424242424242426142B0
:10B1600042424242424242424242424242426B4296
:10B1700042424242424242424242424242426F4282
:10B180004242424242424242424242424242839010
:10B1900098A842424342ACB0B4B8BC42C040236D10
:10B1A0001BB910BD636B002BFBD0BDE810401847E6
:10B1B000A368002BF5D094F8772094F8761094F8D3
:10B1C0007400BDE810401847E368002BF3D1E8E7AE
:10B1D0002369002BEFD1E4E76369002BEBD1E0E7B3
:10B1E000A369002BDDD094F8761094F87400BDE8C4
:10B1F00010401847E369002BF5D1D2E7226A002AF4
:10B20000CFD094F8771094F8763094F87400C90190
:10B2100001F47E5103F07F031943BDE81040A1F50E
:10B2200000511047636A002BBBD0B4F87610802918
:10B2300004F1780028BF8021BDE810401847A36AB8
:10B24000002BAED094F87600BDE810401847E26AB3
:10B25000002AA6D094F8773094F87600DB0103F446
:10B260007E5300F07F00BDE8104018431047236B69
:10B27000002BE7D195E7A36B002B96D191E7236CC8
:10B28000002B92D18DE7E36B002B8ED189E7636CA5
:10B29000002B8AD185E7A36C002B86D181E7E36C74
:10B2A000002B82D17DE700BF38B5436D0446186896
:10B2B0000368DB689847002845D094F80D31626D2B
:10B2C00023F0010384F80D31106803681B69984767
:10B2D000C3B2FD2B37D0626EBABB94F9591094F803
:10B2E000592084F85B30002918DA02F10C01C9B248
:10B2F000012913D9FD2A11D0EF2A94BF02F0F001E1
:10B30000114601F0CF05802D00F09C80D02900F07F
:10B31000998001F0DF01C02900F0948040B200283C
:10B32000C0F2788294F90D01636840F0010084F85E
:10B330000D0103B19847002084F85900C4E91800B2
:10B3400038BD01326266002038BD010653D494F83E
:10B350005B10F02900F09681F72900F09381A11885
:10B3600081F85B30216E4B1E9A42EAD394F85B3031
:10B37000F02B00F09881F72B00F095811A0640F130
:10B38000FE81F42B00F0FB81F52B00F02682FD2BD3
:10B3900000F0F581EF2B94BF03F0F0021A46802AEB
:10B3A00084F8752006D0902A04D0B02A02D0A02AB2
:10B3B00040F0278203F00F0094F85C5084F8765038
:10B3C0000130032984F8740000F004820021002079
:10B3D0000125B02AC4E9180084F8771084F8F850E1
:10B3E00005D0B02A40F2E381E02A40F0DA8184F807
:10B3F0005930012038BDA3F1F0010F29A7D801A0D1
:10B4000050F821F0D9B602004FB302004FB302004A
:10B410004FB302004FB302004FB302004FB302001C
:10B42000D9B602008DB602008DB602008DB60200BC
:10B430008DB602008DB602004FB302008DB6020039
:10B440008DB60200000606D4012184F85C3084F831
:10B450005B201346616603F10C02D2B2012A7FF62B
:10B4600061AFFD2B3FF45EAFEF2B94BF03F0F00113
:10B470001946A1F180027F2A3FF654AF01A050F88F
:10B4800022F000BF2BB7020025B3020025B3020053
:10B4900025B3020025B3020025B3020025B3020044
:10B4A00025B3020025B3020025B3020025B3020034
:10B4B00025B3020025B3020025B3020025B3020024
:10B4C00025B302002BB7020025B3020025B302000A
:10B4D00025B3020025B3020025B3020025B3020004
:10B4E00025B3020025B3020025B3020025B30200F4
:10B4F00025B3020025B3020025B3020025B30200E4
:10B5000025B302002BB7020025B3020025B30200C9
:10B5100025B3020025B3020025B3020025B30200C3
:10B5200025B3020025B3020025B3020025B30200B3
:10B5300025B3020025B3020025B3020025B30200A3
:10B5400025B302002BB7020025B3020025B3020089
:10B5500025B3020025B3020025B3020025B3020083
:10B5600025B3020025B3020025B3020025B3020073
:10B5700025B3020025B3020025B3020025B3020063
:10B5800025B3020065B7020025B3020025B302000F
:10B5900025B3020025B3020025B3020025B3020043
:10B5A00025B3020025B3020025B3020025B3020033
:10B5B00025B3020025B3020025B3020025B3020023
:10B5C00025B3020065B7020025B3020025B30200CF
:10B5D00025B3020025B3020025B3020025B3020003
:10B5E00025B3020025B3020025B3020025B30200F3
:10B5F00025B3020025B3020025B3020025B30200E3
:10B6000025B302002BB7020025B3020025B30200C8
:10B6100025B3020025B3020025B3020025B30200C2
:10B6200025B3020025B3020025B3020025B30200B2
:10B6300025B3020025B3020025B3020025B30200A2
:10B6400025B302006DB7020065B702002BB70200F8
:10B6500065B7020025B3020025B3020011B702004E
:10B660006DB7020011B7020011B7020011B7020056
:10B6700011B7020011B7020025B3020011B7020092
:10B6800011B70200A11881F878306BE60022012082
:10B69000A4F8762084F8742084F87530C4F8FC008F
:10B6A00084F8F80038BD5F4B6367F02180220123E6
:10B6B00094F8F750C4F8FC2084F8F830204684F859
:10B6C000F710FFF71FFDF722022384F8795084F862
:10B6D00078206366002038BD94F87810F02902D0F5
:10B6E000F7297FF41FAEA5184FF4704185F8783024
:10B6F000013200230120A4F87620A4F8741084F805
:10B700005930C4E91833C4F8FC2084F8F80038BD77
:10B710000023012084F87430A4F87630C4E918338B
:10B7200084F8751084F8F80038BD032222660220E0
:10B73000626E8242FFF405AE03F00F03013394F80A
:10B740005C2084F874300023012084F8762084F88B
:10B750007730C4E9183384F87510C4F8FC0084F815
:10B76000F80038BD022222660120E1E78020002295
:10B77000206684F8781084F859207F20D8E794F860
:10B780005C2084F8762000230329A4F8743017D0B5
:10B79000C4E91833012284F8773084F8F8200023B4
:10B7A00025E602F0EF02C02A3FF421AEF7E7A02A17
:10B7B0003FF41DAE02F0EF02802A3FF418AEEEE730
:10B7C00094F85D1063660122236684F8771084F88C
:10B7D000F820E4E794F85D10F9E5002284F875207C
:10B7E00094F85C5084F876500020032984F87400A3
:10B7F000F0D00121C4E9180084F8770084F8F8102B
:10B80000EFE5D02A3FF4D6ADE02A3FF4D3ADC02A0D
:10B81000E6D1CFE503F10C02D2B2012A3FF624AE05
:10B8200080E500BF00F08000036810B504460BB14E
:10B830007430984794F87530803B7F2B43D8DFE80D
:10B8400003F0494242424242424242424242424262
:10B8500042425542424242424242424242424242B5
:10B8600042425942424242424242424242424242A1
:10B8700042425D424242424242424242424242428D
:10B880004242614242424242424242424242424279
:10B8900042426B424242424242424242424242425F
:10B8A00042426F424242424242424242424242424B
:10B8B0004242839098A842424342ACB0B4B8BC42E2
:10B8C000C040236D1BB910BD636B002BFBD0BDE8DE
:10B8D00010401847A368002BF5D094F8772094F80F
:10B8E000761094F87400BDE810401847E368002B08
:10B8F000F3D1E8E72369002BEFD1E4E76369002B7C
:10B90000EBD1E0E7A369002BDDD094F8761094F832
:10B910007400BDE810401847E369002BF5D1D2E769
:10B92000226A002ACFD094F8771094F8763094F8F1
:10B930007400C90101F47E5103F07F031943BDE88F
:10B940001040A1F500511047636A002BBBD0B4F83A
:10B950007610802904F1780028BF8021BDE81040CE
:10B960001847A36A002BAED094F87600BDE81040CB
:10B970001847E26A002AA6D094F8773094F8760047
:10B98000DB0103F47E5300F07F00BDE81040184354
:10B990001047236B002BE7D195E7A36B002B96D1C3
:10B9A00091E7236C002B92D18DE7E36B002B8ED1B6
:10B9B00089E7636C002B8AD185E7A36C002B86D1C5
:10B9C00081E7E36C002B82D17DE700BF38B5436D82
:10B9D0000446186803685B699847002845D094F8C6
:10B9E0000D31626D23F0010384F80D311068036896
:10B9F000DB689847C3B2FD2B37D0626EBABB94F9AF
:10BA0000591094F8592084F85B30002918DA02F1B3
:10BA10000C01C9B2012913D9FD2A11D0EF2A94BF14
:10BA200002F0F001114601F0CF05802D00F09C805E
:10BA3000D02900F0998001F0DF01C02900F0948046
:10BA400040B20028C0F2788294F90D01636840F09A
:10BA5000010084F80D0103B19847002084F85900D3
:10BA6000C4E9180038BD01326266002038BD010605
:10BA700053D494F85B10F02900F09681F72900F078
:10BA80009381A11881F85B30216E4B1E9A42EAD354
:10BA900094F85B30F02B00F09881F72B00F0958143
:10BAA0001A0640F1FE81F42B00F0FB81F52B00F02B
:10BAB0002682FD2B00F0F581EF2B94BF03F0F002FE
:10BAC0001A46802A84F8752006D0902A04D0B02A1D
:10BAD00002D0A02A40F0278203F00F0094F85C50B7
