:020000022000DC
:10600000000004206D5F0400AD5F0400AF5F04007A
:10601000B15F0400B35F0400B55F0400000000003E
:10602000000000000000000000000000E95E040025
:10603000B95F040000000000095F0400BD5F0400B8
:10604000C1610400BF5F0400BF5F0400CDA0030076
:10605000BF5F0400BF5F0400BF5F0400BF5F0400B8
:10606000BF5F0400BF5F0400BF5F0400BF5F0400A8
:10607000BF5F0400BF5F0400BF5F0400BF5F040098
:10608000BF5F0400395C0400BF5F0400BF5F040011
:10609000BF5F0400BF5F040005350300BF5F04005D
:1060A000BF5F0400BF5F0400BF5F0400BF5F040068
:1060B000BF5F0400BF5F040000000000000000009C
:1060C000BF5F0400BF5F0400BF5F0400D56604002B
:1060D000BF5F0400BF5F0400BF5F0400715B03008B
:1060E000BF5F0400BF5F0400BF5F0400000000004A
:1060F00000000000BF5F0400000000004D670400C6
:10610000000000000000000000000000000000008F
:10611000000000000000000000000000000000007F
:10612000000000000000000000000000000000006F
:10613000000000000000000000000000000000005F
:10614000000000000000000000000000000000004F
:10615000000000000000000000000000000000003F
:10616000000000000000000000000000000000002F
:10617000000000000000000000000000000000001F
:10618000000000000000000000000000000000000F
:1061900000000000000000000000000000000000FF
:1061A00000000000000000000000000000000000EF
:1061B00000000000000000000000000000000000DF
:1061C00000000000000000000000000000000000CF
:1061D00000000000000000000000000000000000BF
:1061E00000000000000000000000000000000000AF
:1061F000000000000000000000000000000000009F
:10620000F1EE103A43F08073E1EE103A704700BFB0
:1062100010B5054C237833B9044B13B10448AFF3E0
:1062200000800123237010BD706600200000000074
:10623000AC99050008B5034B1BB103490348AFF304
:10624000008008BD0000000074660020AC990500C5
:10625000154B002B08BF134B9D46A3F5803A002138
:106260008B460F461348144A121A26F02DFE0F4B88
:10627000002B00D098470E4B002B00D098470020F1
:10628000002104000D000D48002802D00C48AFF397
:10629000008026F0AFFD200029001FF0BFFE26F091
:1062A00083FD00BF00000800000004200000000083
:1062B000000000007066002098C20020000000006E
:1062C0000000000042DF7047704700BF704700BF0A
:1062D00010B5034B0360044614F088F8204610BD47
:1062E000886C05002DE9F0419DF81840013CE4B2AE
:1062F0000F2C21D80D4649B200291DDA1F46436DE7
:1063000006461868036821431B68C9B2904698473F
:10631000736D1868036808F07F011B6805F0EF05CE
:106320009847C02D08D0736D1868036807F07F0187
:106330001B68BDE8F0411847BDE8F0812DE9F04148
:106340009DF81840013CE4B20F2C21D80D4649B20B
:1063500000291DDA1F46436D06461868036821436D
:106360001B69C9B290469847736D1868036808F0B6
:106370007F011B6905F0EF059847C02D08D0736DAC
:106380001868036807F07F011B69BDE8F0411847F2
:10639000BDE8F0812DE9F047284E3378012B00F05D
:1063A0000F0001F07F0502F07F071FD1244B1B88EF
:1063B0000138E3B1C3B20F2B3ED863F04F045FFA4C
:1063C00084F8204C636D1868036841461B69984740
:1063D000636D1868036829461B699847636D1868E0
:1063E000036839461B69BDE8F04718470138C3B256
:1063F0000F2B21D8DFF85490D9F854201068026888
:1064000043F0B0081268414663F04F049047D9F852
:1064100054301868036829461B689847D9F85430E7
:106420001868036839461B6898473378002BC8D131
:10643000054B1B78022BC2D1BDE8F087F860002025
:10644000FE8B00208C660020B4680020A46700202A
:1064500030B5014689B02548254D0DF04BF8002395
:10646000202269460446CDE90033CDE90333CDE966
:106470000533029307930BF08BF920460BF072F86B
:1064800025F018FF1B4B002225F07EFF26F054FA62
:10649000194B28801B7823B9184B02229A7009B037
:1064A00030BD48226A210720FFF774FF2A7802EBEB
:1064B000820202EB8202920002F07C027721072026
:1064C000FFF768FF49226A210720FFF763FF2B8847
:1064D000642202FB03F2C2F3C71277210720FFF701
:1064E00059FF064B02229A7009B030BDD48E0020AD
:1064F000FE8B00200000E43FFC8B0020F48B00208A
:106500000E4B0F4A1B7810B50024148003B910BD40
:1065100048226A210720FFF73DFF22467721072006
:10652000FFF738FF49226A210720FFF733FF224691
:106530007721BDE810400720FFF72CBFFC8B00201F
:10654000FE8B002010B5012182B004461A2020F0F5
:1065500039FF01211A2020F0B9FF05201DF012FAA1
:106560004FF480730094ADF8043002AB13E90600D9
:10657000134813F06FFE00211A2020F0A7FFAC2172
:106580000F4813F003FF53210D4813F0FFFE0021C5
:106590000B4813F0FBFE00210446094813F0F6FEF9
:1065A00000EB0421B1F5A64F06D0102205481DF0DE
:1065B00065F9002002B010BD012002B010BD00BF7F
:1065C00050A400204C97002070B5044642F2107091
:1065D000FFF7B8FF7A497B481CF0CCFF257805B35C
:1065E000794978481CF066FF1022294675481DF04D
:1065F00015F9AC21754813F0C9FEE021734813F07A
:10660000C5FE0021714813F0C1FE294603466F48BC
:106610001D4613F0BBFE00EB0520B0F5604F40F0C7
:10662000A9806A4DF021284613F0B0FE00212846CB
:1066300013F0ACFE0021284613F0A8FE00212846E6
:1066400013F0A4FE10F00106ECD16578002D70D196
:106650005E4DF021284613F099FE0021284613F0E4
:1066600095FE0021284613F091FE0021284613F0E4
:106670008DFE10F00106ECD1A578002D7CD1534D94
:10668000F021284613F082FE0021284613F07EFEFA
:106690000021284613F07AFE0021284613F076FEEA
:1066A00010F00106ECD1E478FCB1494945481CF0F2
:1066B00001FF1022214643481DF0B0F8AC214348A9
:1066C00013F064FEA421414813F060FE31463F48B8
:1066D00013F05CFE214603463C481C4613F056FE70
:1066E00000EB0420B0F5244F44D1384DF02128466A
:1066F00013F04CFE0021284613F048FE00212846E6
:1067000013F044FE0021284613F040FE10F001046F
:10671000ECD12C481CF07EFF2C4813F0FDFD2146E7
:106720001A2020F0D3FE21461A2020F04BFE012033
:1067300070BD284923481CF0BDFE1022294621487F
:106740001DF06CF8AC21214813F020FEA0211F4859
:1067500013F01CFE31461D4813F018FE294603466F
:106760001A481D4613F012FE00EB0520B0F5204F2D
:106770003FF46EAF002070BD174912481CF09AFE1E
:10678000102229460F481DF049F8AC210F4813F09C
:10679000FDFDA8210D4813F0F9FD31460B4813F01B
:1067A000F5FD2946034609481D4613F0EFFD00EBB1
:1067B0000520B0F5284F3FF462AF0020DBE700BFB3
:1067C00094FD04004C970020A4FD040050A4002078
:1067D000E0FD0400B8FD0400CCFD0400F8B504465B
:1067E00042F210700D46FFF7ADFE4F494F481CF0C6
:1067F000C1FE2678002E56D16678002E73D1A67879
:106800008EBBE678FEB15021494813F0BFFD082148
:10681000474813F0BBFD0021454813F0B7FD0021A8
:10682000434813F0B3FDEB78424904461C403F480F
:106830001CF040FE3D48214610221CF0EFFFA6420E
:1068400001D00020F8BD39481CF0E4FE384813F0B0
:1068500063FD00211A2020F039FE00211A2020F0CB
:10686000B1FD0120F8BD5821314813F08FFD0821FA
:106870002F4813F08BFD00212D4813F087FD0021D8
:106880002B4813F083FDAB782B4907461F40274860
:106890001CF010FE2548394610221CF0BFFFBE42F6
:1068A000AFD00020CEE75821214813F06FFD002122
:1068B0001F4813F06BFD00211D4813F067FD0021F8
:1068C0001B4813F063FD2B781C4907461F401748EF
:1068D0001CF0F0FD1548394610221CF09FFFBE4207
:1068E0008AD00020AEE75021114813F04FFD00215F
:1068F0000F4813F04BFD00210D4813F047FD002118
:106900000B4813F043FD0E49C7B208481CF0D2FDF6
:106910003946064810221CF081FF68780740BE42C5
:106920003FF46DAF00208DE7F4FD04004C9700208C
:1069300050A4002038FE040028FE040008FE0400D5
:1069400018FE04002DE9F04F894685B05149804674
:10695000514817461CF0AEFD494610224E481CF027
:106960002FFF4E48FFF7EEFD7B08029345D0002530
:1069700008F101024A4C01922B461E0A4021204692
:1069800018F815A05FFA85FB13F000FD314620468C
:1069900013F0FCFC5946204613F0F8FC514607461C
:1069A000204613F0F3FC034603EB0723AB424FF002
:1069B000480120461AD1019B13F81530039313F0B8
:1069C000E5FC3146204613F0E1FC5946204613F021
:1069D000DDFC039B06461946204613F0D7FC00EB6E
:1069E0000620A84205F10105ABB203D0002005B096
:1069F000BDE8F08F029A9342BFD34C21284813F090
:106A0000C5FC4FEA59054FEA5921254813F0BEFC51
:106A1000E9B2234813F0BAFC00210646204813F0DF
:106A2000B5FC204904461C481CF044FD10222946B0
:106A300019481CF023FF04EB06241B4916481CF0E0
:106A400039FD214614481022A4B21CF0B9FEA5421B
:106A5000CCD1134DF021284613F098FC0021284694
:106A600013F094FC0021284613F090FC00212846E6
:106A700013F08CFC10F00104ECD1094813F04CFC2D
:106A800021461A2020F022FD1A20214620F09AFCEF
:106A90000120ACE748FE04004C97002040420F0064
:106AA00050A4002058FE04006CFE0400014608B506
:106AB00003481CF0CFFD0121084620F007FDFEE74A
:106AC0004C970020014608B503481CF053FD0121F6
:106AD000084620F0FBFCFEE74C97002010B542F280
:106AE000107082B0FFF72EFDAC211D4813F04EFC54
:106AF00080211B4813F04AFC0021194813F046FC82
:106B000000210446164813F041FC00EB0420B0F5C8
:106B1000004F22D1124CF021204613F037FC002107
:106B2000204613F033FC0021204613F02FFC0021F7
:106B3000204613F02BFC10F00101ECD10848019124
:106B400013F0EAFB01991A2020F0C0FC01991A20E9
:106B500020F038FC012002B010BD0248FFF7B2FF60
:106B600050A4002074FE0400084C094908B50546ED
:106B700020461CF0CDFC2946102220461CF046FE83
:106B800020461CF047FD0348FFF79CFF4C97002070
:106B900090FE0400A4FE04002DE9F04780460C4658
:106BA00017463AB1013A92B218460132FF2126F057
:106BB0008BF9034604EB070C00224446204610F8EC
:106BC000011B0A2900F053810D2900F050813A2958
:106BD00040F0A4816578A5F13001C9B209290CD92A
:106BE000A5F14101052940F25781A5F1610105296F
:106BF00000F28881A5F15701C9B2A578A5F130004E
:106C0000C6B2092E4FEA01100CD9A5F141010529A0
:106C100040F23A81A5F16101052900F27381A5F1E5
:106C20005706F6B2E578A5F13001C9B2304409291A
:106C3000C6B20CD9A5F14101052940F22981A5F17F
:106C40006101052900F25E81A5F15701C9B22579DC
:106C5000A5F1300E5FFA8EFE0901BEF1090FC9B22F
:106C60000ED9A5F1410EBEF1050F40F21981A5F133
:106C7000610EBEF1050F00F24581573D5FFA85FEBA
:106C800094F8059001EB0E05A9F13001EDB2C9B2FF
:106C90002E440929F6B2ADB20CD9A9F1410105295A
:106CA00040F20281A9F16101052900F21981A9F1DF
:106CB0005701C9B294F80690A9F1300E5FFA8EFE22
:106CC0000901BEF1090FC9B20FD9A9F1410EBEF1F8
:106CD000050F40F2ED80A9F1610EBEF1050F00F243
:106CE000FF80A9F157095FFA89FE7144C9B201EB2F
:106CF0000525ADB20E446545F6B280F2ED80E5792A
:106D0000A5F13001C9B209290CD9A5F14101052924
:106D100040F2D680A5F16101052900F2F380A5F1CA
:106D20005701C9B2257AA5F130095FFA89F909013D
:106D3000B9F1090FC9B204F1090E40F29A80A5F128
:106D40004109B9F1050F40F2B880A5F16109B9F127
:106D5000050F00F2D780573DEDB20E4455FA86F686
:106D6000F6B200284CD00B34002534E0A9F16101C3
:106D7000052900F2B580A9F15701C9B214F8019CA8
:106D8000A9F1300A5FFA8AFA0901BAF1090FC9B20A
:106D90000ED9A9F1410ABAF1050F2CD9A9F1610A5E
:106DA000BAF1050F00F29C80A9F157095FFA89FA40
:106DB0005144C9B202F1010999541FFA89F20E44F3
:106DC0009742F6B2C0F09B800135E9B2884204F1E7
:106DD00002040D4614D914F8029CA9F13001C9B27D
:106DE0000929A646CAD9A9F141010529BED8A9F1A8
:106DF0003701C9B2C2E7A9F137095FFA89FAD7E7C3
:106E00009EF80040A4F13001C9B209290AD9A4F1C1
:106E10004101052958D9A4F16101052978D8A4F1C7
:106E20005701C9B29EF80140A4F13000C0B2090177
:106E30000928C9B209D9A4F14100052848D9A4F10B
:106E40006100052864D8573CE0B20E4450FA86F63B
:106E500016F0FF0F68D19EF802100A290EF1030404
:106E60005FD1BA427FF4AAAE2046BDE8F08704465F
:106E7000A4E64944C9B20E440129F6B27FF471AFC9
:106E800000242046BDE8F087A5F13706F6B2C9E632
:106E9000A5F13701C9B2DAE6A5F13701C9B2ACE60E
:106EA000373D5FFA85FEEBE6A9F13701C9B201E78C
:106EB000A9F1370E5FFA8EFE17E7373DEDB24CE7CA
:106EC000A5F13701C9B22DE7A4F13701C9B2A9E78D
:106ED000A4F13700C0B2B8E744462046BDE8F087C9
:106EE000134914481CF014FB4946102211481CF0A9
:106EF0008DFC10481CF08EFB0F48FFF7E3FD0F4898
:106F0000FFF7D4FD0A490B481CF002FB2946ECE7C9
:106F1000074908481CF0FCFA2146E6E70848FFF755
:106F2000D1FD0848FFF7CEFD0748FFF7CBFD00BFB6
:106F300090FE04004C970020A4FE0400C0FE040054
:106F4000B4FE0400E0FE0400D0FE04002DE9F04F82
:106F5000824683B0CD48CE4EFFF7F4FAD14619F8F9
:106F6000011B0A2900F090810D2900F08D813A293A
:106F700040F0ED819AF80100A0F13003DBB2092B5B
:106F80000CD9A0F14103052B40F2C481A0F16103AB
:106F9000052B00F2D281A0F15703DBB29AF8020070
:106FA000A0F130085FFA88F2092A4FEA03180CD9D9
:106FB000A0F14103052B40F2A981A0F16103052B4B
:106FC00000F2BB81A0F15702D2B29AF80300A0F1FF
:106FD0003003DBB29044092B5FFA88FB0CD9A0F197
:106FE0004103052B40F28E81A0F16103052B00F2D5
:106FF000A481A0F15703DBB29AF80400A0F1300796
:10700000FAB21B01092ADFB20CD9A0F14103052B0A
:1070100040F27481A0F16103052B00F28E81A0F192
:107020005702D2B29AF805001744A0F13003FFB21C
:10703000DBB2BB44092B5FFA8BFBBAB20CD9A0F1CF
:107040004103052B40F25681A0F16103052B00F2AC
:107050007481A0F15703DBB29AF80600A0F1300763
:10706000FFB21B01092FDBB20CD9A0F141010529A8
:1070700040F23C81A0F16101052900F25E81A0F19E
:107080005707FFB29AF807003B44DFB2A0F1300384
:10709000DBB2BB44092B07EB02275FFA8BFBBFB2C5
:1070A0000CD9A0F14103052B40F21C81A0F1610332
:1070B000052B00F24281A0F15703DBB29AF80800D9
:1070C000A0F13004E4B21B01092CDBB20AF109097A
:1070D00040F2E880A0F14102052A40F20081A0F1CF
:1070E0006102052A00F229815738C0B29B4450FA48
:1070F0008BFB5FFA8BFBB8F1000F00F093800AF175
:107100000B0A3D461DE02821304613F03FF9690A7D
:10711000304613F03BF9C5F34701304613F036F91A
:107120000021304613F032F9C3B2A3424FD1C7F168
:1071300001032B44DBB2013543450AF1020AADB22B
:1071400070DA1AF8024CA4F13003DBB2092BD146F5
:107150000BD9A4F14103052B5DD9A4F16103052BE3
:1071600000F2DC80A4F15703DBB21AF8012CA2F183
:1071700030011C01CBB2092BE4B20AD9A2F14103C0
:10718000052B4CD9A2F16103052B00F2D880573AA8
:10719000D3B21C44E4B2A34415F001035FFA8BFBA5
:1071A000B1D120213046019313F0F0F8690A30463E
:1071B00013F0ECF8C5F34701304613F0E7F8019BF4
:1071C0003046194613F0E2F8C3B2A342AFD03148BB
:1071D00001931CF01FFA30492E481CF06BF9102265
:1071E00029462C481CF04AFB2C492A481CF062F91D
:1071F0001022214627481CF009FB294925481CF08C
:1072000059F9019B2348194610221CF007FB002066
:1072100003B0BDE8F08FA4F13703DBB2A5E7373A3E
:10722000D3B2B6E799F80000A0F13003DBB2092B26
:107230000AD9A0F14103052B4DD9A0F16103052B1B
:107240007BD8A0F15703DBB299F80100A0F130011F
:10725000C9B21B010929DBB20AD9A0F14102052AF2
:1072600035D9A0F16102052A67D8A0F15701C9B24A
:107270009B4451FA8BF111F0FF0171D199F8023062
:107280000A2B09F1030968D1CA4667E640420F009C
:1072900050A400204C970020F0FE040014FF0400CE
:1072A00024FF04001C44E4B2A344012C5FFA8BFBCE
:1072B0007FF421AF2E4813F02FF800211A2020F080
:1072C00005F91A20002120F07DF82046A0E7A0F162
:1072D0003701C9B2CCE7A0F13703DBB2B4E73738E6
:1072E000C0B203E7A0F13703DBB2E7E6A0F137074E
:1072F000FFB2C7E6A0F13703DBB2ADE6A0F137027B
:10730000D2B28FE6A0F13703DBB275E6A0F1370207
:10731000D2B25AE6A0F13703DBB23FE61549164870
:107320001CF0F6F82146102213481CF06FFA1248A0
:107330001CF070F91148FFF7C5FBFFF715FC0D496C
:107340000D4801921CF0E4F8019A1146EBE70A4857
:107350001CF00CF90A48FFF7B5FB0A48FFF7B2FB2F
:10736000054810221CF052FA0748FFF7ABFB00BF9C
:1073700050A4002090FE04004C970020A4FE0400BE
:10738000B4FE0400E0FE04002CFF04002DE9F04FE1
:10739000012185B0084620F099F8714971481CF028
:1073A00089F87148FFF7CEF8002871D06F496D4811
:1073B0001CF0E0F842F21070FFF7C4F830216C487E
:1073C00012F0E4FF00216A4812F0E0FF0121684852
:1073D00012F0DCFF0021664812F0D8FF30210502D0
:1073E000634812F0D3FF0021614812F0CFFF022161
:1073F0005F4812F0CBFF002104465D4812F0C6FF43
:1074000005F47F4500EB0424594812F085FF2C4316
:1074100000211A2020F05AF8A4B200211A201FF0EF
:10742000D1FF631E9BB24FF6FD72934204D8514BBD
:107430001F683B88A34204D00024204605B0BDE865
:10744000F08FFFF74BFB0521B81CFFF7BDF80028B4
:10745000F2D0474812F060FF00211A2020F036F8E1
:1074600000211A201FF0AEFF0021012020F02EF88D
:1074700064201CF087FA0121084620F027F83849DB
:1074800038481CF017F83848FFF75CF8814620B9F7
:10749000394934481CF06EF8CEE7344931481CF0C5
:1074A00069F8B7F820A097F8228007F12303029328
:1074B000BAF1000F24D0DFF8C4B003971FFA88F2A6
:1074C0000BEB080647461C4600259046A9B220460D
:1074D0005B4642460191FFF75FFB019904464FB1BD
:1074E000264B4A4613F8010BFF2818BF00229E4284
:1074F000F8D172B33D44AA4501D9002CE6D1039FCF
:107500000298FFF723FD002896D007F10C042046CF
:107510000521FFF759F800288ED0204607F1160103
:10752000FFF75CF90446002886D0042501210846AF
:107530001FF0CCFFC8201CF025FA002101201FF00D
:10754000C5FFC8201CF01EFA6B1E13F0FF05EDD11D
:1075500073E742465846FFF7F5F90028CAD16BE7B2
:1075600068FD04004C970020A086010084FD040003
:1075700050A40020E06100208CFD0400CC690020B4
:107580002DE9F04F704C714F714E87B0204614F0CA
:107590000FFB704AA36A70493B6001916F4FE56A27
:1075A0006F4C07CA9B103B604FF48073ADF80830F6
:1075B000256003AD85E80700029A6749304612F05E
:1075C00049FE002102201FF081FF664B4FF420701E
:1075D00043F0010398470021304612F0D7FE002403
:1075E0000134E4B22146304612F0D0FE0C2C05F8EE
:1075F000010BF5D1012102201FF068FF544812F061
:107600008BFE9DF816209DF8155057499DF811E006
:107610009DF80E809DF80CB091F800A09DF80D60CB
:107620009DF80F709DF81090504B94004FEA840C19
:107630000CF4407CA9004CEA0E0C4FEA851E880031
:107640000EF4407E01F4407141EA0B0B4EEA080E45
:1076500029029DF81280C3F800B0950100F4407033
:1076600001F4407105F440753043394345EA08059B
:107670009DF813609DF814809DF8177058601202F1
:1076800004F4407402F4407244EA0904324348EAC4
:107690000728C3E9044CC3E902E1C3E90652C3F871
:1076A0002080BAF1000F4BD1DFF8C490D9E9006710
:1076B000C01BD9F80870BBEB060648BF5646AEEBB8
:1076C00007070028B8BF5046002FC3E90060B8BFC5
:1076D00000209F60B8BF9860D9F80C00091A0029F3
:1076E000D960BCBF0021D960D9F81010641A002CF1
:1076F000B8BF00211C61B8BF1961D9F81410ACEBF8
:10770000010100295961BCBF00215961D9F8181045
:107710006D1A002DB8BF00219D61B8BF9961D9F8DD
:107720001C10521A002ADA61BCBF0022DA61D9F8B3
:107730002020A8EB0202002A1A62BCBF00221A62B3
:1077400007B0BDE8F08F00BFCC8A0020588E002023
:1077500050A4002080FF040080841E00EC8C0020D8
:10776000588D0020E0670500F78B0020088E002070
:10777000C08D0020000000002DE9F04F2DED068B9C
:107780009DB013AB0AAA01A9CB48DFF89C93DFF8A0
:107790009C83CA4FCA4ECB4DCB4C13F0E9F8CB4B70
:1077A000DDED117A93ED001AC94BCA49CA4AC3EDFF
:1077B000007ACA4BD2ED000AD1ED006A9DED0F0AA6
:1077C0009DED107AC64AC749DB6882ED000ADDEDFF
:1077D000061A9DED072ADDED082AC34A81ED007ADD
:1077E00030EE660A77EE600A37EEC11A189989ED15
:1077F000000ADB01C8ED000A87ED001AC6ED001A89
:1078000085ED002AC4ED002A116004D5B74B1A6833
:10781000D00700F1BD811DF00BFBB54B99ED000ABF
:10782000D8ED000A97ED001AD6ED001A95ED002A62
:10783000D4ED002AA0FB0301830A43EA815307EE3B
:10784000103AAC4C9FEDAC6AD4ED0F7ADFEDAB8A09
:10785000DFEDAB6AB8EE477A204677EE677A84EDC3
:107860000E7A67EE867A84ED0F7AF4EEE87AF1EE1E
:1078700010FA98BFF0EE678AF4EEE68AF1EE10FA9D
:10788000B8BFF0EE668AB0EE683AC4ED107A14F034
:107890005DF894F82830002B00F09381994D236B0C
:1078A0002B60DFF88CA2D4F82C90CAF80090964B8D
:1078B000D4ED0D7A93ED007A944B37EE877AC3EDD1
:1078C000007A17EE100A17EE104A24F005FD74A393
:1078D000D3E9002306460F4624F0E6FF002800F017
:1078E0005C8171A3D3E900233046394624F094FB30
:1078F00025F042F8DFF83CB20446CBF800004846D9
:1079000024F0EAFC66A3D3E9002324F087FB25F0EA
:1079100033F8814624F0E0FC61A3D3E90023064656
:107920000F4624F0C1FF48B15FA3D3E900233046DE
:10793000394624F071FB25F01FF88146286880F055
:10794000004024F0C9FC5AA3D3E9002324F01CFD15
:1079500025F012F809EE900A89F00040C5ED009A72
:1079600024F0BAFC52A3D3E9002324F00DFD25F046
:1079700003F809EE100A84F000408AED009A24F022
:10798000ABFC4BA3D3E9002324F0FEFC24F0F4FF6E
:107990005F4B604C1A68CBF80000D1070AEE100A62
:1079A00040F1088194ED008A5B4E5C4F96ED007AC1
:1079B000D7ED007A39EEC77A7AEE677AB5EEC07AFB
:1079C000F1EE10FAF5EEC07A4CBF01220022F1EE82
:1079D00010FA4CBF012300239A42B5EEC09A00F082
:1079E000AD80F1EE10FA40F3AD80B0EEC99AD8F850
:1079F000000024F071FC2EA3D3E9002324F0C4FC82
:107A0000804618EE900A894624F066FC02460B4632
:107A10004046494624F0B8FC804618EE100A8946D4
:107A200024F05AFC02460B464046494624F0F6FA3A
:107A300024F0A2FF08EE100AF5EEC09AF1EE10FA5B
:107A4000B5EEC08A4CBF01220022F1EE10FA4CBF05
:107A5000012300239A4287ED00AAC6ED009A206018
:107A600000F09380DFED2E7A68EE277A9FED327A70
:107A70002C4BB4EEC79AF1EE10FAADBF002238EEEF
:107A8000678AC3ED007A1A6084ED008A85ED008A6A
:107A90001DB0BDEC068BBDE8F08F00BFAFF30080DA
:107AA000182D4454FB210940182D4454FB21194042
:107AB000F8C1631ADCA54C405C8D00202C8C0020A2
:107AC000BC8A0020C08A0020C48A0020308C00209C
:107AD000D88C0020208C0020288C0020F0ED00E0C5
:107AE000D08C0020D48C00209C670020001000E087
:107AF00040420F00F88C0020BD3786350AD7233C62
:107B00006F12833AE08C0020B88E0020008C002099
:107B1000C8690020AC8A0020A88A0020A48A00201E
:107B2000CDCCCC3CA08A00201C8C0020248C0020D2
:107B30006C8C0020B48E00200000AA42F1EE10FAF6
:107B40007FF653AF5FED047AB0EEC99AB4EEE79AD0
:107B5000F1EE10FABFF64BAFB5EEC08AF1EE10FAB7
:107B6000F5EEC09A4CBF01220022F1EE10FA4CBF94
:107B7000012300239A4287ED00AAC6ED009A7FF404
:107B800071AF2B4B00221A607EE7DFED2A7A6DE79A
:107B90005B689B0907EE103A53E621A3D3E9002363
:107BA0003046394624F062FE50BBDFF890B0CBF887
:107BB0000040A4E60122B0EE698AC4ED009A1A6082
:107BC000F2E6204613F084FE1B4D94F82830226B19
:107BD0002A60002B7FF465AE204613F079FEDFF8B3
:107BE00060A094F82830D4F82C90CAF80090002BAC
:107BF0007FF45DAE204613F06BFEDAF8009056E697
:107C000009A3D3E900233046394624F007FA24F0CB
:107C1000B3FEDFF828B00446CBF800006FE600BFE3
:107C2000182D4454FB2109C0182D4454FB21194040
:107C3000A08A002000000000E08C0020B48E00200C
:107C40006C8C00202DE9F043B84DB94C2B785A01CB
:107C50002DED028B04EB4311A35C83B06BB3B54FE6
:107C6000DFEDB58AD7ED007A9FEDB48ACB79097A3A
:107C7000009177EEA87A224467EE887A8B4294BF0F
:107C800088460E4692F806C05179FDEEE77A41F239
:107C9000883917EE900A09FB0CF209FB01F194BF39
:107CA0001E4698461BF050FEB04280F28B80A44FD7
:107CB0003B78B3422B787BD15A01A1184B7863B340
:107CC000A04FDFED9D8AD7ED007A9FED9C8ACB7A9D
:107CD000097B009177EEA87A224467EE887A8B427E
:107CE00094BF88460E4692F80AC0517AFDEEE77AB4
:107CF00041F2883917EE900A09FB0CF209FB01F1F9
:107D000094BF1E4698461BF01FFEB0427CDA8E4F91
:107D10003B78B3422B7841D15A01A1188B7853B3E9
:107D20008A4FDFED8B8AD7ED007A9FED848ACB7B7B
:107D3000097C009177EEA87A224467EE887A8B421C
:107D400094BF88460E4692F80EC0517BFDEEE77A4E
:107D500042F2107917EE900A09FB0CF209FB01F1CF
:107D600094BF1E4698461BF0EFFDB0426EDA794F85
:107D70003B78B34204D103B0BDEC028BBDE8F08385
:107D80002B7804EB43133246997DD87CFEF702FB37
:107D90003E7003B0BDEC028BBDE8F08304EB4313EF
:107DA0003246597D987CFEF7F5FA2B783E70B3E7A2
:107DB00004EB43133246197D587CFEF7EBFA2B781F
:107DC0003E7079E7D7ED007A2B7877EEA87A04EB4E
:107DD000431367EE887A9A795979187A0090FDEE04
:107DE000E77ADB7917EE900A09FB02F209FB01F151
:107DF0001BF0AAFD40454ADD514F3B784646B34251
:107E00002B783FF459AFD3E7D7ED007A2B7877EE94
:107E1000A87A04EB431367EE887A9A7A597A187B2A
:107E20000090FDEEE77ADB7A17EE900A09FB02F28A
:107E300009FB01F11BF088FD404542DD424F3B78D4
:107E40004646B3422B783FF467AFA7E7D7ED007AF9
:107E50002B7877EEA87A04EB431367EE887A9A7B47
:107E6000597B187C0090FDEEE77ADB7B17EE900AD9
:107E700009FB02F209FB01F11BF066FD40453ADD0A
:107E8000344F3B784646B3423FF475AF78E7D7EDC1
:107E9000007A2B7877EEA88A04EB431328EE888AC1
:107EA0009A795979187A0090FDEEC87ADB7917EE45
:107EB000900A09FB02F209FB01F11BF045FDC6B275
:107EC000F5E6D7ED007A2B7877EEA88A04EB43131A
:107ED00028EE888A9A7A597A187B0090FDEEC87A43
:107EE000DB7A17EE900A09FB02F209FB01F11BF0A5
:107EF0002BFDC6B20BE7D7ED007A2B7877EEA88A78
:107F000004EB431328EE888A9A7B597B187C0090F7
:107F1000FDEEC87ADB7B17EE900A09FB02F209FB43
:107F200001F11BF011FDC6B221E700BF4F8C00200C
:107F300098600020E08C00200000B44200007A44E9
:107F4000B08A00206C8C0020B18A0020B48E002002
:107F500000003443B28A0020F8B5474D2C681BF06E
:107F600005FD464B464A1B7810682968984203DD98
:107F7000CF0758BF44F001045068984203DD8E07D4
:107F800058BF44F002049068834203DA4D0758BF9B
:107F900044F00404D068834203DA080758BF44F071
:107FA00008041069834203DACF0658BF44F0100476
:107FB0005069834203DA8E0658BF44F0200490696A
:107FC000834203DA4D0658BF44F04004D06983422F
:107FD00003DA080658BF44F08004126A934203DAB9
:107FE000CB0558BF44F48074A14201D10020F8BDF4
:107FF000244B254A1B78D35C422B4FEA510126D8EB
:10800000224DC9B205EB032213F0FB0F565C4FEA79
:10801000032C23F0040721D11D481E4A405C107038
:10802000012B02D11C48415C1170C4F34704654424
:10803000285DD7B91649174A095D1170012B02D185
:10804000154B1B5D1370801B18BF0120F8BD134B2F
:10805000C9B2C4F347045E5C185DF4E7012B01D19B
:108060000C4ADFE70A2BFBD0DFE7012B01D1094ADD
:10807000E6E70A2BFBD0E6E7388C0020916200206F
:10808000088E00204F8C002040620020D04F050059
:108090008CFF0400888E0020D04E0500B8680020B8
:1080A000F8B504460E461BF061FC334B1B78002BE1
:1080B00040D0054604B3314F3B78002B3BD1304BC9
:1080C000304C186001223A70E6B1217800294FD077
:1080D0001B68EB1A192B15D92B4E32687221C2F38B
:1080E000C7120720FEF756F9327873210720FEF7F2
:1080F00051F900233B7005E03EBB204F3B78002B3D
:1081000030D1204C2378ABB1204B1868281A19289D
:1081100010D91F4D2A68742102F07F020720FEF754
:1081200039F92A687621C2F3C7120720FEF732F91F
:1081300000232370F8BDAEB1124C237883B9134AE3
:108140000F4B106001222270C2E70E4C0B4F2378B8
:108150003A7853B90D49012308602370002AE9D009
:10816000074BB5E7064B074CB2E7002ACCD0F7E740
:10817000064922700860ABE7FC8B0020EC890020E8
:10818000F0890020ED890020388C0020F48900203F
:10819000EC8C002030B46B4B6B4A197802EB411227
:1081A0000023907E01285CD06848694A0578694CB4
:1081B0001278247868482B4403EB430302EB8303D3
:1081C000DBB2032C037036D0644A1278032A1AD02B
:1081D000022A01D030BC7047614A525C12F0FB0F9A
:1081E00040F092805F4A604D01EB410401EB840155
:1081F00011442A68C978C2F300228A42EAD10C33BA
:10820000037030BC7047564A545C012CE2D00A2CF3
:10821000E0D0544A01EB410501EB8501524D114478
:108220002A68C97802F001028A42D3D1072CE6D12C
:1082300007330370CEE74A4A545C0F2C5CD04B4A9C
:108240000C2C127864D00E2C68D0082C4DD1492A01
:1082500052D9424A12780C33DBB2032A0370B7D1E9
:10826000D7E7937F002B9FD0414A424C92ED017A91
:10827000D4ED007AB8EEC77AF4EEC77AF1EE10FAD0
:1082800057D4012B2ED092ED027AB8EEC77AF4EED5
:10829000C77AF1EE10FA4ED4022B23D092ED037A76
:1082A000B8EEC77AF4EEC77AF1EE10FA45D4032B94
:1082B00018D092ED047AB8EEC77AF4EEC77AF1EEF0
:1082C00010FA34D4042B32D092ED057AB8EEC77A86
:1082D000B4EEE77AF1EE10FA31DC052B18BF00237B
:1082E0007FF462AF013BDBB25EE73E2A19D0072C78
:1082F00010D10733DBB20370184A1278032A88D0F2
:10830000022A7FF467AF67E7062A7FF463AF69E765
:10831000392AF1D90C33DBB2037055E7452AF9D875
:10832000EAE7012C3FF456AF0A2CE0D152E70423D0
:10833000D8E70346D6E70223D4E70323D2E7052391
:10834000D0E700BF4F8C002098600020678C002091
:10835000658C0020598C0020548D00200D61002078
:1083600040620020A4620020388C0020446200207B
:10837000848C00206C8C00202DE9F04F434B444D41
:1083800093F800C0434B44481B784449444A454C49
:10839000DFF82CA12F680078D2F8008024789AF8B2
:1083A00000E0414A414D85B00193CCEBCC03C3EBD7
:1083B000C303CB18029303900023009705E000212C
:1083C00045F823100133092B50D052F8041FA14265
:1083D000F5DD00980028F2D1354E029F16F80C60AA
:1083E00097F826900120984040EA0800422E4FEA74
:1083F000500040D8DFF8CCB0C0B20BEB062B16F023
:10840000FB0F1BF800B03BD1DFF8BCE0012E1EF8DB
:1084100000E002D1274E16F800E0019FBBEB0700F9
:10842000CDD028FA03F6F607C9D4039EB14528BF7C
:10843000B1468145C3DBC9F100098145BFDC091B99
:1084400007EE901A1C4901EB830191ED007AF8EEDA
:10845000E77AA7EB0B0B67EE877AFDEEE77A17EE6C
:10846000901A0BFB01F145F82310ABE78AF800E006
:1084700005B0BDE8F08F114EC0B216F800B0CCE7E1
:10848000012EC7D00A2EC5D0C7E700BF4F8C0020F1
:10849000548E0020446200203562002004600020D9
:1084A000388C002091620020048E0020BC610020E6
:1084B00040620020D04E05002C8E0020B8680020BD
:1084C000888E0020D04F05008CFF040070B52A4C28
:1084D0002378CBB963786BBBA37803B970BD274E03
:1084E0001BF044FAB368C01AC728F7D9244D1BF013
:1084F0003DFAAB78B06002268BBB012103201EF051
:10850000E5FF0123AB7070BD1C4E1BF02FFA3368E2
:10851000C01AC728DED91A4D1BF028FA2B78306014
:1085200043BB012108201EF0D1FF01232B7063788B
:10853000002BD1D0114E1BF019FA7368C01AC7284E
:10854000CAD90F4D1BF012FA6B78706033B9012154
:108550000A201EF0BBFF01236B70BDE70126094B0B
:108560000021985D1EF0B2FFA35D0022013BA355E0
:10857000AA5570BD0026F2E7F48B0020908A0020F7
:10858000A0670020D06705002DE9F8432C4D2D4F42
:108590002D4C2E4EDFF8CC902DED068B9FED2C9AB6
:1085A000DFED2CAADFED2C8A9FED2CAADFED2C9AB3
:1085B00005F1030815F8011B012381B3D4ED007AFE
:1085C000337037EEA87AF4EEC97AF1EE10FAB0EE15
:1085D000470A2EDC84ED007A19F086FBB7EE008A9C
:1085E00030EE088A28EE0A8AFCEEC87A28EE298A3C
:1085F00017EE901A38781EF0FFFCD4ED007A37EEB3
:10860000888A84ED008AA84507F1010704F1040473
:1086100006F10106CED1BDEC068BBDE8F8833378B8
:10862000002BF0D0387831701EF0E6FCC4F80090D2
:10863000E9E7B0EE6A8AC4F800900021DAE700BFEB
:10864000C88C0020D0670500006100209C8A0020B3
:108650000AD72F410AD7232F0AD7A33B00C0FF43D5
:108660000A00A436B4C8964000F0F000A0282DE916
:10867000F04701F00F0402F07F0603F07F0500F0E1
:10868000D08034D9B02800F0E980E0286ED1874F3F
:108690003B7806EBC515A5F50055012B2DB239D158
:1086A000834B1B8805F50051013CE4B2C1F3C716AA
:1086B00005F07F05002B35D00F2C57D864F01F0430
:1086C0005FFA84F87B4C636D1868036841461B6948
:1086D0009847636D1868036829461B699847636D5E
:1086E0001868036831461B69BDE8F04718478028C1
:1086F0007AD090283AD16D4F3B78012B38D16C4B12
:108700001B88013CE4B2002B34D00F2C2ED864F02F
:108710006F0452E005F50051013CE4B2C1F3C71605
:1087200005F07F050F2C21D8DFF89091D9F854304F
:108730001868036844F0E0081B6841469847D9F878
:1087400054301868036829461B689847D9F8543094
:108750001868036831461B6898473B7864F01F042B
:10876000002BAFD1544B1B78022BA9D1BDE8F08769
:10877000013CE4B20F2CF9D8DFF84081D8F854302E
:108780001868036844F090091B68494664F06F0458
:108790009847D8F854301868036831461B689847E2
:1087A000D8F854301868036829461B6898473B7806
:1087B0002BB9414B1B78022BD8D05FFA84F93D4C82
:1087C000636D1868036849461B699847636D1868AC
:1087D000036831461B699847636D1868036829462A
:1087E0001B69BDE8F0471847304F3B78012B5AD141
:1087F0002F4B1B88013CE4B273B90F2CB6D8DFF8BD
:10880000BC80D8F854301868036844F080091B68AD
:10881000494664F07F04BBE70F2CA7D864F07F04BF
:10882000CBE7224F3B78012B3AD1214B1B88013CEF
:10883000E4B273B90F2C99D8DFF88080D8F854309F
:108840001868036844F0A0091B68494664F05F0497
:108850009EE70F2C8AD864F05F04AEE7134F3B7895
:10886000012B1AD1124B1B88013CE4B27BB90F2CAF
:108870003FF67CAFDFF84480D8F8543018680368BE
:1088800044F0B0091B68494664F04F0480E70F2CA0
:108890003FF66CAF64F04F048FE7013CE4B2E6E7CB
:1088A000013CE4B2C6E7013CE4B2A6E7F860002070
:1088B000FE8B00208C660020B4680020A467002096
:1088C0002C4A2D4938B5D2E90035D2E902042B44AF
:1088D0000344D2E9040523440344D2E906402B446F
:1088E000126A097823440344134429B1234A2448D3
:1088F0001278825C032A24D0224A23481268006836
:10890000224DC3F500531A44121817D4B2F5804F04
:10891000A8BF43F6FF722A601D4C2368934200D023
:1089200001B938BD1B49C2F3C713097802F07F02B1
:10893000E020FFF799FE2B68236038BD00222A60F3
:10894000EAE7154C154A164894F900501278047855
:108950001448521B121B07EE902A90ED007AF8EE95
:10896000E77A67EE877AFDEEE77A17EE902A1344EE
:10897000C2E700BFBC610020668C00204F8C002045
:1089800058620020108C0020508D0020546200207E
:10899000FC60002034620020548D0020648C002094
:1089A000446200205C6200207F499FED806AD1ED27
:1089B000007A7F4ADFED7F6AF8B57F4B7F4D93EDFC
:1089C000007A7F4C67EE867A2DED048BE7EE267AEF
:1089D0002B7892ED008AC1ED007A37EE088AB6EE68
:1089E000009A38EE678A04EB431368EE098ADE7E4C
:1089F000C2ED008A1AF0BAFF2B787249F0EEE87ADD
:108A0000B3EE047A04EB4312F4EEC77AF1EE10FAF7
:108A1000127ECCBF012500250D70002A45D06A4981
:108A20006A4D0F7800225B012A60AFB3684A126872
:108A3000821A0B2A39D9674A92F800C0BCF1000F9C
:108A400008D1B6EE007AF4EEC77AF1EE10FA6CDDDA
:108A500001271770DFF8A4C19CF800705FB39FED89
:108A60005E7A5E4FF4EEC77AF1EE10FAC8BF386056
:108A70003F68C01BB0F5C87F22D900238CF80030B6
:108A80000B701370564B1B78022B0ED1BDEC048B70
:108A9000BDE8F840FFF714BFF4EEC97AF1EE10FA22
:108AA0004B4A05DD012310600B70BDEC048BF8BD53
:108AB0001268821ABDE74949012208608CF800203B
:108AC000DFED487AB4EEE78AF1EE10FA1FDAFFEE36
:108AD000008A2344DB7FBBB1032B48D0022B3ED05E
:108AE000414BDFED426AD3ED007A07EE106A67EE84
:108AF000A67AB8EEC77A67EE877A67EEA88AFDEEA7
:108B0000E88AC5ED008ABDE7F1EE688AE8E7DFEDA7
:108B1000387AB4EEE78AF1EE10FA96BFDFED357AD7
:108B2000F7EE008A68EEA78AD3E7DFF8D0C09CF89A
:108B300000E0BEF1000F92D19FED277AF4EEC77AE4
:108B4000F1EE10FA08DC002F9CD0244B1B68C01AF1
:108B5000B0F5C87F91D895E7204B1860F3E7F5EEA4
:108B6000C08AF1EE10FA15D9DFED238AB8E7F5EEE9
:108B7000C08ADFED217AF1EE10FA88BFF0EE678A45
:108B8000FFEE007AF4EEE78AF1EE10FAB8BFF0EEED
:108B9000678AA5E7FFEE007AF4EEE78AF1EE10FAB5
:108BA000B2DAF7EE008A9BE76C8A00206666663FC1
:108BB000708A0020CDCCCC3DC08A00204F8C002094
:108BC000986000204C8D00206A8A0020508D002083
:108BD000748A0020688A00203333B33E788A0020EC
:108BE000708C00202506F0C15C6200200AD7233D6E
:108BF0002506F0410A85883D00000000698A0020B2
:108C0000F0B43E4A3E4B147804EB440204EB82027B
:108C100013449B7A13B33B4B1B78012B1ED03A4E67
:108C20003A4BC4EBC402C2EBC202324493F800C018
:108C300092F8245092F825200927511B642301EB58
:108C4000C10117FB0535BCF1030F05EB61014FEACC
:108C5000C40010D117FB023529440CE02B4B2C4AE1
:108C60001B781568032B25D02A4B274E1968491B02
:108C700005EB6101E000284B1B68001BC0EBC00046
:108C80008B42304420D24278CB1A02FB03F202EB33
:108C900082029300491BB3FBF1F3DBB203FB03F346
:108CA000DB105B421D4A13601D4B1B78022B1ED04C
:108CB000F0BC70471B4B144E1A68511B05EB610149
:108CC0001546E0002944D6E7591A437803EB83029E
:108CD00002EB820203FB01F3B3EBC20F4FEAC201C6
:108CE000E0DD0E4B19600E4B1B78022BE0D10E4BD2
:108CF0000022F0BC1A60FFF7E3BD00BF4F8C0020DC
:108D0000A46200200D61002004600020598C002026
:108D1000986200205C8E0020EC8C0020108C0020DB
:108D2000708C0020608E0020546200202DE9F04FEE
:108D3000B64883B02422002124F0C6F8B44B1B7837
:108D400053B1032B08D0B14B986858B9DA68002AA0
:108D500044D00125032207E0FFF70EFBAB4B9868D8
:108D60000028F3D000250222AA49AB4C0978615CA7
:108D70008C1E012C3FD9A94C2478012C31D0022C17
:108D800027D111F0FB0F40F08680A549A54809784E
:108D90008468A54EA142366802DA770740F1238144
:108DA000022A00F09F8000249C60C0688142C0F2CB
:108DB0009D80032A01D00022DA60012D09D9D3E970
:108DC00002209A49096802448A4202DD0022C3E96E
:108DD000021203B0BDE8F04FFFF772BD6FF001055E
:108DE000C2E700284ED0DA68002AF2D18F499A6093
:108DF0000A68DA60EDE78D48DFF824920768DFF84B
:108E00002882DFF83CE2DFF83CC2DFF83CA299F8A8
:108E100000B0D8F800009EF80040DCF800609AF836
:108E200000A00197022AC7F100097AD0470722D58E
:108E300000279F60032A71D007076CD4002C40F0F4
:108E4000B880B24574D00024D3E902210A440199C4
:108E5000C8F80000524291428EF80040CCF8006001
:108E6000B7DA012D60D90022C3E9029203B0BDE850
:108E7000F04FFFF725BD002C40F0A480B24577D01D
:108E80000024D7E7694AD86012689A6003B0BDE849
:108E9000F04FFFF715BD012901D00A2999D1624988
:108EA0000868C50500F1D980040700F1D3805D4A48
:108EB0005B49D26809788A4240F3E9805B4C5C48A0
:108EC000D4ED007AD0ED036A521A07EE102AF8EEBC
:108ED000E77AB8EEC77AE7EE667AFDEEE77AC3ED99
:108EE000037A76E7C0688142BFF665AF36073FF583
:108EF00060AF032A3FF461AF411A4D4A07EE901A62
:108F000092ED037AF8EEE77A67EE877AFDEEE77A7C
:108F1000C3ED037A51E70022DA6095E7C20593D4E6
:108F20008AE7C70582D587E7C2053FF552AF9AE7C2
:108F30003C4AD2685A4552DD3E49DFED3F6AD1EDE9
:108F4000037A3B4907EE102AF8EE677AB8EEC77A43
:108F500077EEE67AD1ED036A77EEC77A002467EE02
:108F6000A67AFDEEE77A17EE902A5242DA606BE7B6
:108F70002C4CA468A34527462DDA2E4CDFED2E6A33
:108F8000D4ED027A2A4C07EE107AF8EE677AB8EE42
:108F9000C77A77EEE67AD4ED026A77EEC77A0024D4
:108FA00067EEA67AFDEEE77A17EE907A7F429F6031
:108FB00040E7224A40F00800C0F3470402EB0121D9
:108FC0000E5D3EE71D4C40F00400C0F3470604EB85
:108FD0000124A65D52E7C3F8089000242AE7C3F8ED
:108FE0000C90002430E7022A3FF47CAF641A104F43
:108FF00007EE904A97ED027AF8EEE77A67EE877A05
:10900000FDEEE77AC3ED027ACFE600BFBC61002037
:10901000708C00204F8C002040620020888E002041
:1090200091620020088E0020388C0020C88A002021
:109030008C8E0020E48D002000004842D04F0500B7
:10904000B0610020888A00204462002002DB020711
:109050007FF5BFAE0022DA60BBE60F490F4CC9684E
:109060002478A142F2DD0007F4D4032A3FF4B1AE24
:10907000091B0B4A07EE901A92ED037AF8EEE77A95
:1090800067EE877AFDEEE77AC3ED037AA1E6054A3B
:109090001268DA609DE600BF088E00209162002011
:1090A0008C8E0020C88A00202DE9F04F3C4C3D48B2
:1090B00083B02422002123F007FF2678002E6AD0F7
:1090C000032E68D0384BDFF8F8E01B683748384C7F
:1090D000384901930023DEF8002000682478D1F895
:1090E0000080354DDFF8BCC0DFF8D8909A460127E4
:1090F00012E055F82310A1420BDA20FA03F107FA27
:1091000003FBC90722EA0B0203D522FA03F1C907C0
:109110000AD50133092B2DD022FA03F1C907E8D46F
:1091200020FA03F1C907F4D5012E03D05CF823100F
:109130000029EED155F823108C4222DA28FA03FBDD
:109140001BF0010F23D1091B07EE901A1B4903F8EE
:10915000097001EB830191ED007AF8EEE77A67EE92
:10916000877AFDEEE77A17EE901A4CF82310013358
:10917000092BD1D1CEF8002003B0BDE8F04FFFF7A6
:109180009FBB28FA03F1C90703F809A0C1D50199CB
:109190004CF82310BDE7FFF7EFF8267892E700BF01
:1091A000708C0020BC610020C88A0020E46200208E
:1091B00091620020388C0020088E00208C8E0020C8
:1091C0003C8C0020748C00202DE9F843294D2A4B5B
:1091D0002A7802EB42010B441B5CDBB100EB8009F7
:1091E0004FF03208254F08FB02930446FE5C012E27
:1091F00007EB030110D0052E27D0062E1DD12049E4
:1092000091F90030033305DB1E48835C013B5BB200
:1092100083540B70BDE8F8834B78002BFAD10B799F
:10922000CA7889789020FFF71FFA2A78164B08FB36
:1092300002981E5517F80860DDE70A2E11D1134A6F
:10924000137801331370BDE8F8830D4991F90030AC
:10925000022BDFDC0B48835C01335BB283540B7061
:10926000D8E70B2ED6D1094A1378013B1370BDE81D
:10927000F88300BF4F8C0020508C00201461002028
:10928000678C0020688C00205C8C0020658C00209E
:10929000114B12481B78124AC3EBC303C3EBC30341
:1092A00018440121837A11708B4203D0022B0DD018
:1092B00033B17047437B027BC17A8020FFF7D4B97A
:1092C000437B027BC17A9020FFF7CEB9427B017BC2
:1092D000C07AFDF75FB800BF4F8C0020046000200B
:1092E0000E8C0020114B12481B78124AC3EBC303AB
:1092F000C3EBC30318440021837B1170012B03D0FF
:10930000022B0DD033B17047437C027CC17B80209F
:10931000FFF7AAB9437C027CC17B9020FFF7A4B978
:10932000427C017CC07BFDF735B800BF4F8C00202C
:10933000046000200E8C0020A94B2DE9F0471B880B
:1093400043F480735A1C1A4282B06DD000210A4641
:1093500013F0010F08BF11465B1002F10102F7D1B3
:1093600001F13E04E4B2462C28BF46243C3C9D4D0E
:109370009D4A2B78C3EBC303C3EBC30313449A7C0E
:10938000032A3ED0DFF8B082D8F80030974A9849D7
:10939000984F91F800C0D2F800905168D7F800E0DB
:1093A0009548964E04FB0C145FFA8EF299450460C2
:1093B000327017DB924B0121002031700A46187081
:1093C0002B789048396003EB430103EB810303449E
:1093D0005B7923B18C4C2378012B27D0227002B00B
:1093E000BDE8F08709F10101994208DA8749BEF129
:1093F000010F097804BF0222327001292DD01146D5
:10940000DEE7834A1278CAB9197DDA7CDFF8288250
:1094100042EAC112D8F8003005329A42B6DAFFF7B4
:1094200037FFD8F80030B1E70A24A0E7012AD5D0E9
:109430001AF09CFA774B32781860CFE7DFF8F881A2
:10944000197DDA7CD8F8003042EAC1129A429DDDDB
:10945000FFF748FFD8F8003098E76F4908780028F0
:109460003DD0A4EB090100FB01F1DFF8D0C101EB15
:1094700041008CFB00A98CFB01ACC017C917A0EB05
:10948000E910C1EBEC1121440444DFF8B4C1634896
:10949000CCF800109942046013DB9C4221DB0222CD
:1094A000BEF1010F327028D0BEF1030FA7D11AF020
:1094B0005DFA5B4B1B68C01A142852D832781146EB
:1094C0007EE74F4B00210322BEF1010F197032706D
:1094D00095D0BEF1030F92D17246114670E7214636
:1094E000D3E7BEF1010F06D0BEF1030F87D1022AE8
:1094F000DDD0114664E7022A81D1414C01931AF074
:1095000035FA94F800C0019BBCF1000F15D1454A13
:109510004549D2F800E00860444A4549C2F800C015
:109520000120C1F800C02070BEF1000F37D1022128
:1095300000230A462370327042E73B49394A0968E2
:109540001268401A9042F2D2384A116831B3384A50
:10955000116813605B1A002BE9DD3A78327011460E
:109560002EE7274CD8F800801AF000FA2378D3B9F8
:10957000304A2D49D2F800C008602C4A2C491360AB
:1095800001200B602070BCF1000F22D00123C1F834
:10959000008013603A783270114611E724490B605D
:1095A00001201060D9E7204A224B12681B68801AFC
:1095B00098420ED21D4A13687BB11D4B1A68C3F83E
:1095C0000080A8EB0208B8F5FA6FE3D0B8F1000FFD
:1095D000E0DB002323700222DDE71549D6E700BF58
:1095E000388C00204F8C00200460002098620020FE
:1095F00043620020048C0020CC620020598C0020A3
:10960000348C0020A4620020906200200D610020B4
:109610000E8C0020848E0020B8610020608E002017
:10962000148C0020246200207C8A0020CC8C002036
:10963000C08C0020AC610020EC8C00201F85EB5119
:109640005C8E00202DE9F84F1AF090F9984E994A57
:10965000336811689942044600F09E80DFF8A882C2
:10966000954F964D98F800101360012238602A70CB
:10967000002940D1924B1960924B93491B78934A31
:10968000CC5C336801211170422C4FF0000223FAA8
:1096900001F32A7040F2D0808D4ADBB2D25C8D4C4F
:1096A0008D4D226000210120FEF7FAFC2368013372
:1096B00014D023682A789A4210D0884B1B78022B4A
:1096C0000CD0874B32681A6086482422002123F090
:1096D000FBFB854B0022C3E900221A7223682B7022
:1096E0004FF0FF332360FFF727FE1AF03FF97F4B5F
:1096F0001860BDE8F88F99461AF038F97C4B7D4A1E
:109700001B7810683168834203DAC80758BF49F0F4
:1097100001095068834203DA880758BF49F00209FB
:109720009068834203DA480758BF49F00409D068BB
:10973000834203DA080758BF49F0080910698342D9
:1097400003DAC80658BF49F010095069834203DAAA
:10975000880658BF49F020099069834203DA480619
:1097600058BF49F04009D069834203DA080658BF60
:1097700049F08009126A934203DACB0558BF49F4D5
:109780008079494519D14E4B2A7800211960002A69
:109790007FF472AFBDE8F88FDFF82491464FD9F817
:1097A00000303868241A002B61D09C4257D3434DB7
:1097B00000232A78C9F80030E9E7424B424A1B7877
:1097C000D25C422A4FEA510154D84B4BC9B203EB49
:1097D000022012F0FB0F10F801C04FEA022A22F01B
:1097E000040E57D1DFF818B144481BF801B080F8D7
:1097F00000B0012A04D1DFF80CB11BF80110017090
:10980000C9F34709534413F80930BEF1000F3AD1A8
:109810003B493A4811F809100170012A03D1394A2D
:1098200012F8092002706345ADD0DFF8949098F8E3
:109830000030C9F80030B4E72F4ADBB202EB042253
:1098400014F0FB0FD25C2CD12D492C48C95C01705F
:10985000012C7FF424AF2B49CB5C03701FE7FEF78C
:109860007BFB0028A3D0D9F800309C4292D3134D43
:109870002A788CE7164BC9B2C9F3470913F801C01F
:1098800013F80930CFE7012A01D11C48C7E70A2A9B
:10989000FBD0C8E7012A01D11848ACE70A2AFBD05F
:1098A000AEE7012C01D11548D5E70A2CFBD0F6E62E
:1098B000388C002088620020808A0020848A002062
:1098C000548E00204F8C002040620020B0610020A8
:1098D000B8680020B48D002044620020708C002005
:1098E0003C8C0020BC610020748C0020148C002073
:1098F00091620020088E0020D04F0500888E002045
:109900008CFF0400D04E0500508E002000F0F000C7
:10991000C0282DE9F04101F00F0102F07F0510D0C1
:10992000D02830D12E4E3378012B48D12D4B1B88B7
:109930000139002B44D0CBB20F2B24D863F02F0475
:109940002DE0274E3378012B1FD00139CBB20F2BDE
:1099500019D8DFF89C80D8F854201068026843F0CA
:10996000C0071268394663F03F049047D8F8543076
:109970001868036829461B689847337883B91A4BDF
:109980001B78022B0BD1BDE8F081164B1B880139E7
:10999000002BDBD0CBB20F2BF5D863F03F04E7B23E
:1099A000124C636D1868036839461B699847636DEC
:1099B0001868036829461B69BDE8F041184701395A
:1099C000CBB20F2BDFD8DFF82880D8F854201068EE
:1099D000026843F0D0071268394663F02F04C4E7E9
:1099E000F8600020FE8B0020B46800208C66002008
:1099F000A46700202DE9F041354D36492B78C3EBA3
:109A0000C302C2EBC2020A4404469278012A45D03E
:109A100003EB4302304E03EB820333449B79DA07B6
:109A20000BD52E4A1778FFB12D4ADFF8CC80D76AC4
:109A3000D8F80020BA4221D104BB9B0712D5274B8E
:109A40001B787BB1264B274EDD6B3368AB4200D1D0
:109A500044B1254B254A19781278EBB2A020FEF7C5
:109A600003FE3560BDE8F081214A1268642ADBDC20
:109A7000DFF88480D8F80020BA42DDD01A4BFAB261
:109A80001978D020FFF742FF2B78C8F8007003EB5D
:109A9000430203EB82031E44B379CEE7DFF8408034
:109AA000144ED8F80C203768BA424FEAC30001D1EF
:109AB000002CADD0C31AC3EBC3030B44D2B2597907
:109AC0001879FCF767FCD8F80C202B7832609FE7F8
:109AD0004F8C002004600020A4620020668C0020CF
:109AE000E4610020B88C002034620020648C0020E7
:109AF000EC8C0020AC8C0020B08C0020000000001A
:109B00002DE9F04FA94DAA4C2B78AA4E03EB430246
:109B100003EB8202224431789279002A87B014BF85
:109B20004FF003084FF010085A0089B1A248C05CFA
:109B3000032800F02481A148DFF8BCC2A04F0078C0
:109B40009CF900C03F78A0EB0C00874200F02C810C
:109B50009C4F3878012802EB030003EB800020447F
:109B6000407809D9002850D09748007800284CD177
:109B700031B907B0BDE8F08F0028F5D10029F8D041
:109B80002B785A001A4403EB8202397814440129D5
:109B9000627800F0D480002A40F0D4808B4AD35CF5
:109BA000032B00F0D9808A4B1B78032BE1D0894B23
:109BB0001B78002BDDD0884B1A6840F2FF139A42C5
:109BC000D7D1864B7D4A1978127840238020FEF742
:109BD0004BFD2B78824A02EB4312D27D012A00F022
:109BE0007F81804AC3EBC303C3EBC303134400224A
:109BF0009B7C3270022BBCD17B4B1B78002BB8D0E6
:109C000007B0BDE8F04FFFF76DBB1A4403EB8202CB
:109C100022445279002A40F0A5806C4AD25C032A83
:109C200000F02C816A4A1278032A08D0694A127817
:109C30002AB1694A106840F2FF12904298D0DFF8CA
:109C40007CA19AF800200592002900F0E38003EB44
:109C5000430203EB8202224492F809C0BCF1000FD8
:109C600000F0788101220492DFF878815F4ADFF802
:109C70006CB103925E4A127822B15E4A1288002AC1
:109C800040F0FA80C3EBC302C2EBC20242449278B6
:109C9000012A00F0ED8003EB430103EB8101214435
:109CA0005A008879002840F0E3804979012900F0C2
:109CB000DF80D018DFF808914F4999F8002091F81B
:109CC00000C003EB80002044624490F808C0D2B288
:109CD0004FF0010E8AF8002086F800E0BCF1000F7A
:109CE00040F0E280039B9BF800101B789020FEF769
:109CF000BBFC049B002B40F0CF8019F037FEDFF84F
:109D000008A1CAF8000019F031FE2B783B4ADAF8B6
:109D100000C0C2F800C0C3EBC303C3EBC303984445
:109D2000DFF8E8C098F81230354A99F80010CCF8FE
:109D30000000022B117000F0A780317818E7002A8C
:109D40003FF43FAF204A1278002A3FF43AAF1F4A4F
:109D5000D35C032B7FF427AF194B1B783F2B7FF489
:109D600022AF2EE700297FF458AF19F0FFFD254BF5
:109D70001B68C01A4045E0D32B7831784DE7DFF8F7
:109D800078C00E4F0E489CF900E03F780078DFF86D
:109D900080C0A7EB0E07C01B00289CF80070B8BF5E
:109DA000404287427FF7D4AE064FEBE64F8C00204F
:109DB000A4620020668C002058620020648C002081
:109DC00044620020598C00209C8C002040620020BE
:109DD0000D6100200C610020388C002034620020CE
:109DE00098600020046000200E8C0020D3620020C8
:109DF000F8600020FE8B0020548D0020A08C0020F5
:109E0000B48C0020848E0020808C0020608C002088
:109E100035620020DFF85883C3EBC302C2EBC202F5
:109E200042449278002A64D103EB430103EB8101A1
:109E300021445A004979002940F00781BF49039124
:109E40001A4403EB820222449279D10700F1C480C4
:109E5000920700F19080DFF81C9309EB4312D27D4A
:109E6000012A00F027810022DFF80CB3049201E7F9
:109E70000120FFF7BFFD2B785A001AE7B04A12788D
:109E80003F2A7FF4CFAE73E6AE4B1B78002B7FF4F6
:109E900054AFFFF7FDF950E7059A9BF800104023F7
:109EA0008020FEF7E1FB28E7C3EBC303C3EBC3034A
:109EB00018F8033023B1437813B9FEF7A1FEA24985
:109EC000A24B1B7893B9A24B1B78022B02D0FFF751
:109ED000EBF89D490B7899F800201A44D2B201E7BB
:109EE00019F044FD9B4A2B7810607AE6FEF71EFFBE
:109EF000EFE7994A994B10681B68DFF88092A0EB56
:109F00008300D9F80030D9F8042020EAE070B0EBE3
:109F1000830F4FEA830180F0F180084692004FF4EE
:109F200080630093002319F00FFD8D4B1B78012BEC
:109F3000024600F02581022B00F0908189482B78A1
:109F400001784078401A02FB00F201EBA222C9F826
:109F50000C2069E7DFF820B2059A9BF80010CDF8D5
:109F600010C040238020FEF77FFB744B0393DFF883
:109F700000822B787EE6784A784B10681B68DFF801
:109F8000FC91A0EB8300D9F83030D9F8342020EAD6
:109F9000E070B0EB830F4FEA830180F0AA8008469F
:109FA00092004FF480630093002319F0CDFC6C4BBA
:109FB000DB78012B024600F0E980022B00F0F180F3
:109FC00068482B788179C079401A02FB00F201EBD6
:109FD000A222C9F83C203EE75F4A604B10681B682C
:109FE000DFF89891A0EB8300D9F82030D9F824202D
:109FF00020EAE070B0EB830F4FEA830180F08380AA
:10A00000084692004FF480630093002319F09CFCF3
:10A01000534B9B78012B024600F08A80022B00F004
:10A02000DF8050492B78087991F805C003EB430194
:10A03000ACEB000C03EB810102FB0CF2214400EBC2
:10A04000A220C9F82C008A7902E7434A434B1068E2
:10A050001B68DFF82891A0EB8300D9F81030D9F8FD
:10A06000142020EAE070B0EB830F4FEA830154D252
:10A07000084692004FF480630093002319F064FCBB
:10A08000374B5A78012A03464CD0022A00F0C78089
:10A0900034492A488A78C9780390891A03FB01F366
:10A0A00002EBA323DAB2C9F81C3002702B787AB322
:10A0B0005A00C5E619F05AFC2B78264909EB4312E1
:10A0C000D1F800C0527EC2EB4211A0EB0C0002EBB3
:10A0D0008102B0EB420F5FD92349244AD1ED007AC7
:10A0E000DFF894B0F1EE677AC2ED007A00220492B4
:10A0F000C0E59200904228BF104652E7920090427D
:10A1000028BF10460BE79200904228BF104679E71F
:10A11000012103FA01F2017092E69200904228BFF9
:10A120001046A7E700FB00F203FB02F31B15AFE7A5
:10A1300000FB00F302FB03F2121572E7D36200206A
:10A14000446200200E8C0020548D00200C8C0020D6
:10A15000708C0020048B0020588D00209862002015
:10A16000088C00204C620020008C0020B88E00205B
:10A17000046000209860002034620020E461002028
:10A1800000FB00F302FB03F21215D7E600FB00F31D
:10A1900002FB03F2121513E70022DFF810B104925C
:10A1A00068E500283FF40CAF22F084F841EC100B76
:10A1B00017F0E4FD3AA3D3E9002351EC100B22F091
:10A1C000E3F822F0D9FB07EE900A9FED377A67EEAD
:10A1D000A77A67EE877AFDEEE77A17EE902AEFE628
:10A1E00000283FF41EAF22F065F841EC100B17F089
:10A1F000C5FD2BA3D3E9002351EC100B22F0C4F8CA
:10A2000022F0BAFB07EE900A9FED277A67EEA77A55
:10A2100067EE877AFDEEE77A17EE902A01E70028CD
:10A220003FF436AF22F046F841EC100B17F0A6FDD4
:10A230001BA3D3E9002351EC100B22F0A5F822F068
:10A240009BFB07EE900A9FED187A67EEA77A67EE00
:10A25000877AFDEEE77A17EE903A19E700283FF487
:10A260006DAE22F027F841EC100B17F087FD0CA320
:10A27000D3E9002351EC100B22F086F822F07CFB8E
:10A2800007EE900A9FED087A67EEA77A67EE877A65
:10A29000FDEEE77A17EE902A50E600BFAFF300809C
:10A2A000FE822B654715F73F0AD723413462002011
:10A2B0002DE9F041C64CC74D22682B689B1A002B34
:10A2C000B8BF5B42012B82B024DDC34FC3483B784B
:10A2D000C3EBC301C1EBC10101448978002968D1F6
:10A2E000BF4E03EB430203EB820232445900527922
:10A2F000002A40F08D80194403EB810333449B799D
:10A30000D80700F1BB80990724D40020FFF772FB27
:10A3100023682B60B34B1A68D20708D4B249B34AFA
:10A320000968116001221A6002B0BDE8F081AF4CEB
:10A33000AD4D23682A689B1A002BB8BF5B42022BE5
:10A34000F2DD01210020FDF7ABFE2B68236002B097
:10A35000BDE8F081A64BDFF8A8821B682068D8F81A
:10A360003420A0EB8300D8F8303020EAE070B0EB66
:10A37000830F4FEA830180F0C780084692004FF4B4
:10A3800080630093002319F0DFFA9A4BDA78012AF0
:10A39000034600F0C380022A00F0D88096498A79EB
:10A3A000C879801A03FB00F302EBA323C8F83C3002
:10A3B000ABE78F4BDFF848821868D8F80030A2EB83
:10A3C000800020EAE070B0EB830FD8F804204FEA59
:10A3D000830180F09E80084692004FF480630093D2
:10A3E000002319F0B1FA834B1B78012B024600F0D1
:10A3F0009B80022B00F027817F483B7801784078D2
:10A40000401A02FB00F201EBA222C8F80C2067E719
:10A41000774BDFF8EC811B682068D8F81420A0EB9C
:10A420008300D8F8103020EAE070B0EB830F4FEAD9
:10A43000830164D2084692004FF4806300930023A6
:10A4400019F082FA6B4B5A78012A034678D0022A17
:10A4500000F0DA806849DFF8ACC18A78C878801AE1
:10A4600003FB00F302EBA323DAB2C8F81C308CF82C
:10A4700000203B78002A37D059003CE75C4BDFF8DE
:10A4800080811B682068D8F82420A0EB8300D8F8CE
:10A49000203020EAE070B0EB830F4FEA830129D22D
:10A4A000084692004FF480630093002319F04CFAA1
:10A4B000504B9A78012A03463CD0022A65D03A785C
:10A4C0004D4802EB42070179407902EB8702401ABE
:10A4D000164403FB00F301EBA321B379C8F82C1059
:10A4E00099077FF512AF35E7012203FA02F18CF8E4
:10A4F000002000E79200904228BF1046D2E7920069
:10A50000904228BF104697E79200904228BF10461D
:10A5100035E79200904228BF10465EE700FB00F04E
:10A5200003FB00F31B1539E700FB00F002FB00F210
:10A53000121561E700FB00F003FB00F31B15BEE7FB
:10A5400000FB00F003FB00F31B1583E700283FF43A
:10A5500025AF21F0AFFE41EC100B17F00FFC1AA352
:10A56000D3E9002351EC100B21F00EFF22F004FA86
:10A5700007EE900A9FED217A67EEA77A67EE877A59
:10A58000FDEEE77A17EE903A08E7002897D021F021
:10A5900091FE41EC100B17F0F1FB0BA3D3E9002364
:10A5A00051EC100B21F0F0FE22F0E6F907EE900AD4
:10A5B0009FED127A67EEA77A67EE877AFDEEE77A6B
:10A5C00017EE903A7BE700BFFE822B654715F73FF9
:10A5D000588D0020BC8C00204F8C0020046000208F
:10A5E000A4620020C4690020EC8C00208C8A00202A
:10A5F00098620020088C00204C6200200AD723417A
:10A60000E4610020D362002000283FF423AF21F052
:10A6100051FE41EC100B17F0B1FB1BA3D3E9002353
:10A6200051EC100B21F0B0FE22F0A6F907EE900AD3
:10A630009FED177A67EEA77A67EE877AFDEEE77AE5
:10A6400017EE903A06E700283FF4D6AE21F032FE2E
:10A6500041EC100B17F092FB0BA3D3E9002351EC54
:10A66000100B21F091FE22F087F907EE900A9FED82
:10A67000087A67EEA77A67EE877AFDEEE77A17EE3B
:10A68000902AB9E6AFF30080FE822B654715F73FAD
:10A690000AD72341036810B504460BB174309847BC
:10A6A00094F87530803B7F2B43D8DFE803F04942B4
:10A6B0004242424242424242424242424242554267
:10A6C0004242424242424242424242424242594253
:10A6D00042424242424242424242424242425D423F
:10A6E000424242424242424242424242424261422B
:10A6F00042424242424242424242424242426B4211
:10A7000042424242424242424242424242426F42FC
:10A71000424242424242424242424242424283908A
:10A7200098A842424342ACB0B4B8BC42C040236D8A
:10A730001BB910BD636B002BFBD0BDE81040184760
:10A74000A368002BF5D094F8772094F8761094F84D
:10A750007400BDE810401847E368002BF3D1E8E728
:10A760002369002BEFD1E4E76369002BEBD1E0E72D
:10A77000A369002BDDD094F8761094F87400BDE83E
:10A7800010401847E369002BF5D1D2E7226A002A6E
:10A79000CFD094F8771094F8763094F87400C9010B
:10A7A00001F47E5103F07F031943BDE81040A1F589
:10A7B00000511047636A002BBBD0B4F87610802993
:10A7C00004F1780028BF8021BDE810401847A36A33
:10A7D000002BAED094F87600BDE810401847E26A2E
:10A7E000002AA6D094F8773094F87600DB0103F4C1
:10A7F0007E5300F07F00BDE8104018431047236BE4
:10A80000002BE7D195E7A36B002B96D191E7236C42
:10A81000002B92D18DE7E36B002B8ED189E7636C1F
:10A82000002B8AD185E7A36C002B86D181E7E36CEE
:10A83000002B82D17DE700BFF8B5044680260025B5
:10A840000DE094F80D31626D23F0010384F80D31B1
:10A85000106803681B699847C3B2FD2B07D1636D6D
:10A8600018680368DB6898470028EAD1F8BD626E73
:10A87000002A75D194F9591094F8592084F85B3066
:10A88000002980F2848002F10C01C9B201297ED92D
:10A89000FD2A7CD0EF2A94BF02F0F001114601F0AE
:10A8A000CF07802F01D0D0296DD1000606D4012119
:10A8B00084F85C3084F85B201346616603F10C0277
:10A8C000D2B2012A67D9FD2B65D0EF2B94BF03F0DC
:10A8D000F0011946A1F180027F2A5CD8DFE802F07E
:10A8E000CB5B5B5B5B5B5B5B5B5B5B5B5B5B5B5B48
:10A8F000CB5B5B5B5B5B5B5B5B5B5B5B5B5B5B5B38
:10A90000CB5B5B5B5B5B5B5B5B5B5B5B5B5B5B5B27
:10A91000CB5B5B5B5B5B5B5B5B5B5B5B5B5B5B5B17
:10A92000E85B5B5B5B5B5B5B5B5B5B5B5B5B5B5BEA
:10A93000E85B5B5B5B5B5B5B5B5B5B5B5B5B5B5BDA
:10A94000CB5B5B5B5B5B5B5B5B5B5B5B5B5B5B5BE7
:10A95000ECE8CBE85B5BBEECBEBEBEBEBE5BBEBE83
:10A96000010627D494F85B10F0294BD0F72949D081
:10A97000A11881F85B30236E591E8A4280F0A380B3
:10A98000013262666BE701F0DF01C0298DD040B271
:10A990000028C0F22E8194F90D01636840F0010097
:10A9A00084F80D0103B19847002084F85900C4E9E8
:10A9B0001800F8BDA3F1F0010F29D3D801A050F879
:10A9C00021F000BF27AA020065A9020065A90200C4
:10A9D00065A9020065A9020065A9020065A9020037
:10A9E00027AA02000DAA02000DAA02000DAA020069
:10A9F0000DAA02000DAA020065A902000DAA02001C
:10AA00000DAA0200A11881F87830B4E700220120D5
:10AA1000A4F8762084F8742084F87530C4F8FC001B
:10AA200084F8F800F8BD94F87810F02901D0F729DF
:10AA3000B1D1A5184FF4704185F878300132002368
:10AA40000120A4F87620A4F8741084F85930C4E9E1
:10AA50001833C4F8FC2084F8F800F8BD0023012066
:10AA600084F87430A4F87630C4E9183384F875108B
:10AA700084F8F800F8BD032222660220626E82424A
:10AA8000FFF47EAF03F00F03013394F85C2084F8E9
:10AA900074300023012084F8762084F87730C4E9EC
:10AAA000183384F87510C4F8FC0084F8F800F8BD79
:10AAB000022222660120E1E7266684F8595084F8D4
:10AAC00078107F20DAE794F85B10F02952D0F7294C
:10AAD00050D00A063BD501F10C02D2B2012A36D978
:10AAE000FD2934D0EF2994BF01F0F0020A46802AF4
:10AAF00084F8752005D0902A03D0B02A01D0A02A6E
:10AB00005ED101F00F0094F85C5084F8765001306B
:10AB1000032B84F8740050D00025002084F877506F
:10AB2000B02A4FF00105C4E91800C4F8FC3084F8DD
:10AB3000F8503ED0B02A36D9E02A3AD002F0EF02DF
:10AB4000C02A36D0002384F859300120F8BD94F88B
:10AB50005C0084F876000022032BA4F874202CD02B
:10AB60000121C4E9182284F87720C4F8FC3084F865
:10AB7000F810E7E7224B6367F0218022012394F865
:10AB8000F750C4F8FC2084F8F830204684F8F71019
:10AB9000FFF780FDF722022384F8795084F87820AB
:10ABA00063660020F8BDA02A03D002F0EF02802ADD
:10ABB000C8D184F859100120F8BD94F85D50ACE775
:10ABC000D02A9ED0E02A9CD0C02A9AD094F85C501B
:10ABD00084F876500020032B84F87400EDD0012512
:10ABE000C4E9180084F87700C4F8FC3084F8F85001
:10ABF000A0E703F10C02D2B2012A3FF666AECAE624
:10AC000000F08000036810B504460BB1743098471B
:10AC100094F87530803B7F2B43D8DFE803F049423E
:10AC200042424242424242424242424242425542F1
:10AC300042424242424242424242424242425942DD
:10AC400042424242424242424242424242425D42C9
:10AC500042424242424242424242424242426142B5
:10AC600042424242424242424242424242426B429B
:10AC700042424242424242424242424242426F4287
:10AC80004242424242424242424242424242839015
:10AC900098A842424342ACB0B4B8BC42C040236D15
:10ACA0001BB910BD636B002BFBD0BDE810401847EB
:10ACB000A368002BF5D094F8772094F8761094F8D8
:10ACC0007400BDE810401847E368002BF3D1E8E7B3
:10ACD0002369002BEFD1E4E76369002BEBD1E0E7B8
:10ACE000A369002BDDD094F8761094F87400BDE8C9
:10ACF00010401847E369002BF5D1D2E7226A002AF9
:10AD0000CFD094F8771094F8763094F87400C90195
:10AD100001F47E5103F07F031943BDE81040A1F513
:10AD200000511047636A002BBBD0B4F8761080291D
:10AD300004F1780028BF8021BDE810401847A36ABD
:10AD4000002BAED094F87600BDE810401847E26AB8
:10AD5000002AA6D094F8773094F87600DB0103F44B
:10AD60007E5300F07F00BDE8104018431047236B6E
:10AD7000002BE7D195E7A36B002B96D191E7236CCD
:10AD8000002B92D18DE7E36B002B8ED189E7636CAA
:10AD9000002B8AD185E7A36C002B86D181E7E36C79
:10ADA000002B82D17DE700BFF8B504468026002540
:10ADB0000DE094F80D31626D23F0010384F80D313C
:10ADC00010680368DB689847C3B2FD2B07D1636D39
:10ADD000186803685B6998470028EAD1F8BD626E7D
:10ADE000002A75D194F9591094F8592084F85B30F1
:10ADF000002980F2848002F10C01C9B201297ED9B8
:10AE0000FD2A7CD0EF2A94BF02F0F001114601F038
:10AE1000CF07802F01D0D0296DD1000606D40121A3
:10AE200084F85C3084F85B201346616603F10C0201
:10AE3000D2B2012A67D9FD2B65D0EF2B94BF03F066
:10AE4000F0011946A1F180027F2A5CD8DFE802F008
:10AE5000CB5B5B5B5B5B5B5B5B5B5B5B5B5B5B5BD2
:10AE6000CB5B5B5B5B5B5B5B5B5B5B5B5B5B5B5BC2
:10AE7000CB5B5B5B5B5B5B5B5B5B5B5B5B5B5B5BB2
:10AE8000CB5B5B5B5B5B5B5B5B5B5B5B5B5B5B5BA2
:10AE9000E85B5B5B5B5B5B5B5B5B5B5B5B5B5B5B75
:10AEA000E85B5B5B5B5B5B5B5B5B5B5B5B5B5B5B65
:10AEB000CB5B5B5B5B5B5B5B5B5B5B5B5B5B5B5B72
:10AEC000ECE8CBE85B5BBEECBEBEBEBEBE5BBEBE0E
:10AED000010627D494F85B10F0294BD0F72949D00C
:10AEE000A11881F85B30236E591E8A4280F0A3803E
:10AEF000013262666BE701F0DF01C0298DD040B2FC
:10AF00000028C0F22E8194F90D01636840F0010021
:10AF100084F80D0103B19847002084F85900C4E972
:10AF20001800F8BDA3F1F0010F29D3D801A050F803
:10AF300021F000BF97AF0200D5AE0200D5AE0200EF
:10AF4000D5AE0200D5AE0200D5AE0200D5AE0200ED
:10AF500097AF02007DAF02007DAF02007DAF02001F
:10AF60007DAF02007DAF0200D5AE02007DAF0200D2
:10AF70007DAF0200A11881F87830B4E700220120EB
:10AF8000A4F8762084F8742084F87530C4F8FC00A6
:10AF900084F8F800F8BD94F87810F02901D0F7296A
:10AFA000B1D1A5184FF4704185F8783001320023F3
:10AFB0000120A4F87620A4F8741084F85930C4E96C
:10AFC0001833C4F8FC2084F8F800F8BD00230120F1
:10AFD00084F87430A4F87630C4E9183384F8751016
:10AFE00084F8F800F8BD032222660220626E8242D5
:10AFF000FFF47EAF03F00F03013394F85C2084F874
:10B0000074300023012084F8762084F87730C4E976
:10B01000183384F87510C4F8FC0084F8F800F8BD03
:10B02000022222660120E1E7266684F8595084F85E
:10B0300078107F20DAE794F85B10F02952D0F729D6
:10B0400050D00A063BD501F10C02D2B2012A36D902
:10B05000FD2934D0EF2994BF01F0F0020A46802A7E
:10B0600084F8752005D0902A03D0B02A01D0A02AF8
:10B070005ED101F00F0094F85C5084F876500130F6
:10B08000032B84F8740050D00025002084F87750FA
:10B09000B02A4FF00105C4E91800C4F8FC3084F868
:10B0A000F8503ED0B02A36D9E02A3AD002F0EF026A
:10B0B000C02A36D0002384F859300120F8BD94F816
:10B0C0005C0084F876000022032BA4F874202CD0B6
:10B0D0000121C4E9182284F87720C4F8FC3084F8F0
:10B0E000F810E7E7224B6367F0218022012394F8F0
:10B0F000F750C4F8FC2084F8F830204684F8F710A4
:10B10000FFF780FDF722022384F8795084F8782035
:10B1100063660020F8BDA02A03D002F0EF02802A67
:10B12000C8D184F859100120F8BD94F85D50ACE7FF
:10B13000D02A9ED0E02A9CD0C02A9AD094F85C50A5
:10B1400084F876500020032B84F87400EDD001259C
:10B15000C4E9180084F87700C4F8FC3084F8F8508B
:10B16000A0E703F10C02D2B2012A3FF666AECAE6AE
:10B1700000F0800090F87030DA0719D513F0FE0F58
:10B1800016D0F0B590F8755085F08002602A83B033
:10B1900004460ED890F874208A4245D0002943D046
:10B1A0005B08012B45D0032B00F09C8003B0F0BD61
:10B1B0007047A5F1F0030F2BF8D801A252F823F045
:10B1C00063B2020091B20200B3B2020047B20200C1
:10B1D000ADB10200ADB1020001B20200ADB102009A
:10B1E00001B20200ADB1020001B2020001B20200E0
:10B1F00001B20200ADB1020001B2020001B20200D0
:10B2000005F10803DBB2072BD0D8012202FA03F3C1
:10B2100013F0DD0FCAD0636D1868036829461B69F7
:10B2200003B0BDE8F04018475B08012B01D0022BAA
:10B23000BCD1009294F8773094F8762029462046C5
:10B24000FBF77CF8B2E7436D90F876501868036816
:10B25000F3211B699847636D186805F07F01036847
:10B26000DDE7B0F87630802B1F4628BF8027002B03
:10B270009CD000F17706636D18683546036816F8B0
:10B28000011F1B69763D2D1B9847BD42F3D38DE707
:10B29000436D90F87650186894F8773002682D0165
:10B2A00003F00F03126905F07005F1211D4390476B
:10B2B000B1E7436D90F87720186894F876500368EA
:10B2C000F2211B6945EAC2159847636D1868036847
:10B2D00005F07F011B699847636D1868C5F3C611B7
:10B2E00003689CE7009294F8773094F8762029461A
:10B2F000FBF724F85AE700BFF0B58C4C94F858508F
:10B30000102D83B006D98A4808F0CAF8002841D128
:10B3100003B0F0BD2046FFF78FFA0028F3D094F871
:10B320007530902B29D083F08003602B2BD97F4878
:10B33000FFF7B0F994F87030DA07E4D513F0FE0F98
:10B34000E1D094F8751081F08002602A47D894F813
:10B350007420954200F0D680002D00F0D3805B0869
:10B36000012B01D0032BCED1009294F8773094F8C2
:10B3700076206E48FAF7B6FFC5E794F8773013B930
:10B38000802384F8753094F874309D42CFD0002D1E
:10B39000CDD0CFE7674808F0F7FA0028B8D0664C60
:10B3A00094F85850102DB3D82046FFF7FDFC002824
:10B3B000AED094F87530902B00F0AE8083F080030F
:10B3C000602B04D894F87430AB4200D015B95A48B9
:10B3D000FFF718FC58482946FFF7CCFE98E7A1F183
:10B3E000F0030F2B8FD801A252F823F0D7B402003C
:10B3F000A9B4020073B4020053B4020007B3020000
:10B4000007B302002DB4020007B302002DB40200FE
:10B4100007B302002DB402002DB402002DB40200C7
:10B4200007B302002DB402002DB4020001F108039D
:10B43000DBB2072B3FF667AF012202FA03F313F0EA
:10B44000DD0F3FF460AF636D186803681B689847B1
:10B4500059E7636D94F8765018680368F3211B6808
:10B460009847636D1868036805F07F011B6898476B
:10B4700049E7636D94F87720186894F8765003686C
:10B48000F2211B6845EAC2159847636D1868036886
:10B4900005F07F011B689847636D18680368C5F362
:10B4A000C6111B6898472EE7636D94F876501868AC
:10B4B00094F8773002682D0103F00F031268F12130
:10B4C00005F070051D439047636D186803682946B1
:10B4D0001B68984717E7B4F87630802B1F4628BFC3
:10B4E0008027002B3FF40FAF144E636D186835466C
:10B4F000036816F8011F1B68763D2D1B9847AF4265
:10B50000F3D800E794F870305B08012B3FF42CAFC0
:10B51000022B7FF4F8AE27E794F87730002B7FF406
:10B5200051AF802384F875304CE700BFA46700203A
:10B53000D48E0020548B00208C6600201B680020D5
:10B5400010B5054B036004460EF050FF20461AF07C
:10B55000A7FD204610BD00BF886C05002DE9F84FFF
:10B56000DFF89C81584FDFF89C91DFF89CA1574C85
:10B57000574E584D404608F021F83A465649404645
:10B5800021F0DAFB4846802108F01CFF3A46534977
:10B59000484621F0D1FB012150460AF081F82046AF
:10B5A0000FF068FA3A464E49204621F0C5FB4D4857
:10B5B00010F076F94C489FED4D0A002300240362F9
:10B5C00001224FF081434FF48061416003610275B5
:10B5D00080F824400F2110F0BDFA454B73654FF001
:10B5E000800BC3F8009021464FF6FF784FF0030917
:10B5F0005A4606F17800C6E90044C6E90244C6E9A5
:10B600000444C6E90644C6E90844C6E90A44C6E952
:10B610000C44C6E90E44C6E91044C6E91244C6E922
:10B620001844C6E91A883465A6F8584086F85A4086
:10B63000746786F8F84086F8709021F045FC3A4629
:10B640002C49C6F808413046C6E94044A6F80C41EA
:10B6500021F072FB284B6B655A46214605F17800B4
:10B66000C3F800A0C5E90044C5E90244C5E90444A3
:10B67000C5E90644C5E90844C5E90A44C5E90C44DE
:10B68000C5E90E44C5E91044C5E91244C5E91844AA
:10B69000C5E91A882C65A5F8584085F85A4085F800
:10B6A00070906C6785F8F84021F00EFCC5E94044C5
:10B6B0003A462846C5F80841A5F80C410F49BDE8AF
:10B6C000F84F21F039BB00BF006000205C8D0020E6
:10B6D0008C660020A4670020D10503009D050300AF
:10B6E000D1620200F88C0020CC8A00200AD7233CCB
:10B6F000F08C0020C9620200F48C0020CD620200B0
:10B700000C8B0020548B0020648E002070B5054601
:10B710001648502104460EF06DFCC5F30721204663
:10B720000EF006FBE9B220460EF002FB20460EF0BA
:10B73000C9FC0122502120460EF01CFC20460EF0D0
:10B740000BFB0B4DC6B245F0010500E0A8475021A8
:10B7500020460EF04FFC20460EF0B4FC03464FF49A
:10B760004850002BF2D1304670BD00BF94A300209A
:10B77000E06705002DE9F0411D4E1E4DDFF8788091
:10B7800028242046FFF7C2FF034604F10D0006F807
:10B79000013BFFF7BBFF98F8003005F8010B23B918
:10B7A00001342B2CEDD1BDE8F081E7B2A7F10A02FC
:10B7B000D2B266210720FAF7EDFD16F8012C2132EE
:10B7C000D2B266210720FAF7E5FD15F9012C07F141
:10B7D0004701002A02F17F030F46D2B2C9B24FF0EF
:10B7E0000700BEBFDAB2F9B20720FAF7D3FDD7E7F8
:10B7F0004062002048620020FC8B00200000000016
:10B800002DE9F04F2DED068B554C564B2578DFF882
:10B81000A0B1DFF8A0C15A5DDFF89CA15BF825302C
:10B82000514F524E17F805B0DFF89091DFF890E1D4
:10B8300019F805901EF805E04D48DFF888814D495C
:10B8400018F80580495D85B0003A00935CF8253012
:10B8500001935AF825300293474BDFF86CA15F5DE6
:10B8600010F805C005EB450306EB83060393434B35
:10B87000707A18BF01221A70009B414ACAF8003042
:10B88000404B82F80090404A83F800E0019B13602F
:10B890003E4A029B1360DFF834A13D4B8AF80080DA
:10B8A00083F800C0DFF828813A4BDFF8289188F848
:10B8B00000B089F800101F70039BDFF81CB1013045
:10B8C0004FEA830820F0F6FC23A3D3E9002320F0FD
:10B8D0005BFD21F031F808EB0503DFF800812E4A0B
:10B8E00018F80330107003EB430306EB430A2B4AAE
:10B8F00016F813302A499AF804009AF801608BF878
:10B9000000309AF802300E701370013020F0D2FC33
:10B9100011A3D3E9002320F037FD20F0E5FF9AF8CA
:10B920000530204A204E1060581C20F0C3FC0AA3AA
:10B93000D3E9002320F028FD20F0D6FF735D1B49DA
:10B94000433BDAB2032A08605DD8DFF894A00AF519
:10B950008077CAF1000548E09A9999999999E93F49
:10B960004F8C0020D0620020106100206462002013
:10B9700038620020946200203C620020808E00200B
:10B98000678C0020708C0020448C0020D462002042
:10B990003562002034620020508E0020B861002003
:10B9A000436200202462002040620020AC6100203D
:10B9B000E862002028620020D8620020688C002005
:10B9C0005862002048620020E4620020658C00205C
:10B9D0000D610020916200204B620020A4620020D3
:10B9E000B76800202378F35C433B1B0203F57A63BE
:10B9F00005EB0A001844FFF789FE0AF8010F5745C6
:10BA0000F0D1CF4B1F78CF4BCF48D04E00254FF40D
:10BA100000521A60394640232A460560E02035600E
:10BA2000FCF722FE29462422C94821F04DFA22784B
:10BA3000C84902EB420302EB830343440D601879CB
:10BA40004D600D72530020B1C3490878023818BF09
:10BA50000120134402EB83039844C04B98F807601D
:10BA6000BF49C04D1B780870002E14BF7F264026AA
:10BA7000BD492E70002B40F05E81BC4B09781B68DD
:10BA8000194499F800309FEDBA7ABA489FEDBA6A26
:10BA90000678BA489FEDBA2A05689BF80070B94845
:10BAA000DFF814C3016007EE903AB74BF8EEE77A7F
:10BAB00093ED055AD3ED065AD3ED071A77EE677A60
:10BAC00093ED007AF8EE472A93ED017AB8EE473A03
:10BAD00093ED027AF8EE473A93ED037AB8EE474ACF
