:020000022000DC
:1060000000000420C14504000146040003460400CA
:10601000054604000746040009460400000000008D
:106020000000000000000000000000003D450400EA
:106030000D460400000000005D4504001146040008
:106040001548040013460400134604005190030051
:1060500013460400134604001346040013460400CC
:1060600013460400134604001346040013460400BC
:1060700013460400134604001346040013460400AC
:10608000134604008D420400134604001346040026
:1060900013460400134604003D2503001346040084
:1060A000134604001346040013460400134604007C
:1060B0001346040013460400000000000000000026
:1060C000134604001346040013460400294D04003F
:1060D000134604001346040013460400F54A030067
:1060E0001346040013460400134604000000000099
:1060F000000000001346040000000000A14D040051
:10610000000000000000000000000000000000008F
:10611000000000000000000000000000000000007F
:10612000000000000000000000000000000000006F
:10613000000000000000000000000000000000005F
:10614000000000000000000000000000000000004F
:10615000000000000000000000000000000000003F
:10616000000000000000000000000000000000002F
:10617000000000000000000000000000000000001F
:10618000000000000000000000000000000000000F
:1061900000000000000000000000000000000000FF
:1061A00000000000000000000000000000000000EF
:1061B00000000000000000000000000000000000DF
:1061C00000000000000000000000000000000000CF
:1061D00000000000000000000000000000000000BF
:1061E00000000000000000000000000000000000AF
:1061F000000000000000000000000000000000009F
:10620000F1EE103A43F08073E1EE103A704700BFB0
:1062100010B5054C237833B9044B13B10448AFF3E0
:1062200000800123237010BDD46500200000000011
:106230004C1E050008B5034B1BB103490348AFF3DF
:10624000008008BD00000000D86500204C1E05003D
:10625000154B002B08BF134B9D46A3F5803A002138
:106260008B460F461348144A121A25F041F90F4B7A
:10627000002B00D098470E4B002B00D098470020F1
:10628000002104000D000D48002802D00C48AFF397
:10629000008025F0C3F8200029001EF0E9F925F060
:1062A00097F800BF00000800000004200000000074
:1062B00000000000D465002090A200200000000033
:1062C0000000000042DF7047704700BF704700BF0A
:1062D00010B5034B0360044613F04AF8204610BD86
:1062E00028F104002DE9F0419DF81840013CE4B28A
:1062F0000F2C21D80D4649B200291DDA1F46436DE7
:1063000006461868036821431B68C9B2904698473F
:10631000736D1868036808F07F011B6805F0EF05CE
:106320009847C02D08D0736D1868036807F07F0187
:106330001B68BDE8F0411847BDE8F0812DE9F04148
:106340009DF81840013CE4B20F2C21D80D4649B20B
:1063500000291DDA1F46436D06461868036821436D
:106360001B69C9B290469847736D1868036808F0B6
:106370007F011B6905F0EF059847C02D08D0736DAC
:106380001868036807F07F011B69BDE8F0411847F2
:10639000BDE8F0812DE9F047284E3378012B00F05D
:1063A0000F0001F07F0502F07F071FD1244B1B88EF
:1063B0000138E3B1C3B20F2B3ED863F04F045FFA4C
:1063C00084F8204C636D1868036841461B69984740
:1063D000636D1868036829461B699847636D1868E0
:1063E000036839461B69BDE8F04718470138C3B256
:1063F0000F2B21D8DFF85490D9F854201068026888
:1064000043F0B0081268414663F04F049047D9F852
:1064100054301868036829461B689847D9F85430E7
:106420001868036839461B6898473378002BC8D131
:10643000054B1B78022BC2D1BDE8F087F860002025
:10644000EE6B0020F065002018680020086700202F
:1064500030B5014689B02248224D0CF067F8002380
:10646000202269460446CDE90033CDE90333CDE966
:106470000533029307930AF0A7F920460AF08EF835
:1064800024F042FA184B002224F0A8FA24F068FD08
:10649000164B28801B780BB909B030BD48226A2101
:1064A0000720FFF777FF2A7802EB820202EB8202D5
:1064B000920002F07C0277210720FFF76BFF492250
:1064C0006A210720FFF766FF2B88642202FB03F294
:1064D000C2F3C71277210720FFF75CFF09B030BD78
:1064E000CC6E0020EE6B00200000E43FEC6B00203F
:1064F0000E4B0F4A1B7810B50024148003B910BD51
:1065000048226A210720FFF745FF2246772107200E
:10651000FFF740FF49226A210720FFF73BFF224691
:106520007721BDE810400720FFF734BFEC6B002057
:10653000EE6B00202DE9F04F704C714F714E87B01B
:10654000204614F0F5FA704AA36A70493B60019145
:106550006F4FE56A6F4C07CA9B103B604FF4807326
:10656000ADF80830256003AD85E80700029A674959
:10657000304612F031FE002102201FF0D1FA664BA6
:106580004FF4207043F0010398470021304612F089
:10659000BFFE00240134E4B22146304612F0B8FEBA
:1065A0000C2C05F8010BF5D1012102201FF0B8FADF
:1065B000544812F073FE9DF816209DF81550574967
:1065C0009DF811E09DF80E809DF80CB091F800A0A8
:1065D0009DF80D609DF80F709DF81090504B940041
:1065E0004FEA840C0CF4407CA9004CEA0E0C4FEAF4
:1065F000851E88000EF4407E01F4407141EA0B0BC9
:106600004EEA080E29029DF81280C3F800B09501E9
:1066100000F4407001F4407105F440753043394393
:1066200045EA08059DF813609DF814809DF81770E1
:106630005860120204F4407402F4407244EA0904FF
:10664000324348EA0728C3E9044CC3E902E1C3E93D
:106650000652C3F82080BAF1000F4BD1DFF8C49086
:10666000D9E90067C01BD9F80870BBEB060648BF24
:106670005646AEEB07070028B8BF5046002FC3E9C7
:106680000060B8BF00209F60B8BF9860D9F80C00C8
:10669000091A0029D960BCBF0021D960D9F81010AF
:1066A000641A002CB8BF00211C61B8BF1961D9F869
:1066B0001410ACEB010100295961BCBF00215961E4
:1066C000D9F818106D1A002DB8BF00219D61B8BF10
:1066D0009961D9F81C10521A002ADA61BCBF002255
:1066E000DA61D9F82020A8EB0202002A1A62BCBFA6
:1066F00000221A6207B0BDE8F08F00BF246A0020B4
:10670000506E002048840020F0E3040080841E00C6
:10671000B06D0020506D002080EC0400E66B00207E
:10672000046E0020BC6D00202DE9F04F2DED068B8E
:106730009FB015AB0CAA03A9CF48DFF8B083DFF8F0
:10674000B093CE4FCE4ECF4DCF4C13F0D3F8CF4BAE
:10675000DDED137A93ED001ACD4BCE49CE4AC3ED51
:10676000007ACE4BD2ED000AD1ED006A9DED110A00
:106770009DED127ACA4ACB49DB6882ED000ADDED55
:10678000081A9DED092ADDED0A2AC74A81ED007A33
:1067900030EE660A77EE600A37EEC11A1A9988ED74
:1067A000000ADB01C9ED000A87ED001AC6ED001AE8
:1067B00085ED002AC4ED002A116004D5BB4B1A6890
:1067C000D00700F1CB811CF05DFEB94B98ED000ABB
:1067D000D9ED000A97ED001AD6ED001A95ED002AC2
:1067E000D4ED002AA0FB0301830A43EA815307EE9C
:1067F000103AB04C9FEDB06AD4ED0F7ADFEDAF8A5E
:10680000DFEDAF6AB8EE477A204677EE677A84ED1F
:106810000E7A67EE867A84ED0F7AF4EEE87AF1EE7E
:1068200010FA98BFF0EE678AF4EEE68AF1EE10FAFD
:10683000B8BFF0EE668AB0EE683AC4ED107A14F094
:1068400047F894F82830002B00F09881DFF8A482F4
:10685000E36AC8F800309B4DD4F830A0C5F800A01A
:10686000994BD4ED0D7A93ED007A984B37EE877AF9
:10687000C3ED007A17EE100A17EE104A24F056F80E
:1068800077A3D3E9002306460F4624F037FB002800
:1068900000F0348174A3D3E900233046394623F055
:1068A000E5FE24F07DFBDFF850B20446CBF8000093
:1068B000D8F8000024F03AF869A3D3E9002323F0C4
:1068C000D7FE24F06DFB019024F030F864A3D3E9E7
:1068D000002306460F4624F011FB48B162A3D3E91A
:1068E00000233046394623F0C1FE24F059FB0190C5
:1068F0008AF0004024F01AF85DA3D3E9002324F0C5
:106900006DF824F04DFB019B09EE100A83F0004066
:1069100085ED009A24F00AF855A3D3E9002324F06A
:106920005DF824F03DFB09EE900A84F00040C8EDCC
:10693000009A23F0FBFF4EA3D3E9002324F04EF886
:1069400024F02EFB624B634C1A68CBF80000D10791
:106950000AEE100A7CD594ED008A5F4E5F4F96EDEB
:10696000007AD7ED007A39EE477A7AEE677AB5EE9B
:10697000C07AF1EE10FAF5EEC07A4CBF0122002287
:10698000F1EE10FA4CBF012300239A4200F0F3808D
:10699000DFED537AF0EEE99AF4EEE79AF1EE10FAB1
:1069A000C0F2C380D9F8000023F0C0FF30A3D3E9C0
:1069B000002324F013F8804618EE900A894623F04D
:1069C000B5FF02460B464046494624F007F880468C
:1069D00018EE100A894623F0A9FF02460B464046EE
:1069E000494623F045FE24F0DBFA08EE100AB5EE26
:1069F000C09AF1EE10FAB5EEC08A4CBF0122002217
:106A0000F1EE10FA4CBF012300239A4287ED00AA51
:106A100086ED009A206000F0AB80DFED327A68EE00
:106A2000277A9FED2F7A304BF4EEC79AF1EE10FAE9
:106A3000ADBF002238EE678AC3ED007A1A6084ED9C
:106A4000008A85ED008A1FB0BDEC068BBDE8F08F93
:106A50000122B0EE498A84ED009A1A607DE700BFFA
:106A6000182D4454FB210940182D4454FB21194092
:106A7000F8C1631ADCA54C40546D00201C6C00204A
:106A8000146A0020186A00201C6A0020206C002074
:106A9000CC6C0020106C0020186C0020F0ED00E0A1
:106AA000C46C0020C86C002000670020001000E0CB
:106AB00040420F00F06C0020BD3786350AD7233CDA
:106AC0006F12833AD46C0020B06E0020F06B00206F
:106AD0002C690020046A0020006A0020FC69002064
:106AE0000000A042CDCCCC3CF86900200C6C00200A
:106AF000146C0020606C0020AC6E002033A3D3E93E
:106B000000233046394624F0DBF960B331A3D3E9E2
:106B100000233046394623F0ABFD24F041FADFF87C
:106B2000BCB00446CBF80000C2E6B5EEC08AF1EE78
:106B300010FAB5EEC09A4CBF01220022F1EE10FA15
:106B40004CBF012300239A4287ED00AA86ED009AEC
:106B50007FF463AF1A4B00221A6070E75B689B09F1
:106B600007EE103A45E6DFF874B0CBF800409FE638
:106B7000DFED147A55E7F0EEE99A13E7204613F0BB
:106B800069FEDFF85C8094F82830E26AC8F80020DB
:106B9000002B7FF460AE204613F05CFE0A4D94F8A3
:106BA0002830D4F830A0C5F800A0002B7FF458AEF0
:106BB000204613F04FFED5F800A051E6AFF3008059
:106BC000F869002000000000D46C0020182D445407
:106BD000FB2109C0182D4454FB211940AC6E002044
:106BE000606C00202DE9F043B84DB94C2B785A0168
:106BF0002DED028B04EB4311A35C83B06BB3B54F57
:106C0000DFEDB58AD7ED007A9FEDB48ACB79097AAA
:106C1000009177EEA87A224467EE887A8B4294BF7F
:106C200088460E4692F806C05179FDEEE77A41F2A9
:106C3000883917EE900A09FB0CF209FB01F194BFA9
:106C40001E4698461BF0AAF9B04280F28B80A44FF2
:106C50003B78B3422B787BD15A01A1184B7863B3B0
:106C6000A04FDFED9D8AD7ED007A9FED9C8ACB7A0D
:106C7000097B009177EEA87A224467EE887A8B42EE
:106C800094BF88460E4692F80AC0517AFDEEE77A24
:106C900041F2883917EE900A09FB0CF209FB01F169
:106CA00094BF1E4698461BF079F9B0427CDA8E4FAD
:106CB0003B78B3422B7841D15A01A1188B7853B35A
:106CC0008A4FDFED8B8AD7ED007A9FED848ACB7BEC
:106CD000097C009177EEA87A224467EE887A8B428D
:106CE00094BF88460E4692F80EC0517BFDEEE77ABF
:106CF00042F2107917EE900A09FB0CF209FB01F140
:106D000094BF1E4698461BF049F9B0426EDA794F9F
:106D10003B78B34204D103B0BDEC028BBDE8F083F5
:106D20002B7804EB43133246997DD87CFFF732FB76
:106D30003E7003B0BDEC028BBDE8F08304EB43135F
:106D40003246597D987CFFF725FB2B783E70B3E7E0
:106D500004EB43133246197D587CFFF71BFB2B785D
:106D60003E7079E7D7ED007A2B7877EEA87A04EBBE
:106D7000431367EE887A9A795979187A0090FDEE74
:106D8000E77ADB7917EE900A09FB02F209FB01F1C1
:106D90001BF004F940454ADD514F3B784646B3426B
:106DA0002B783FF459AFD3E7D7ED007A2B7877EE05
:106DB000A87A04EB431367EE887A9A7A597A187B9B
:106DC0000090FDEEE77ADB7A17EE900A09FB02F2FB
:106DD00009FB01F11BF0E2F8404542DD424F3B78F0
:106DE0004646B3422B783FF467AFA7E7D7ED007A6A
:106DF0002B7877EEA87A04EB431367EE887A9A7BB8
:106E0000597B187C0090FDEEE77ADB7B17EE900A49
:106E100009FB02F209FB01F11BF0C0F840453ADD25
:106E2000344F3B784646B3423FF475AF78E7D7ED31
:106E3000007A2B7877EEA88A04EB431328EE888A31
:106E40009A795979187A0090FDEEC87ADB7917EEB5
:106E5000900A09FB02F209FB01F11BF09FF8C6B290
:106E6000F5E6D7ED007A2B7877EEA88A04EB43138A
:106E700028EE888A9A7A597A187B0090FDEEC87AB3
:106E8000DB7A17EE900A09FB02F209FB01F11BF015
:106E900085F8C6B20BE7D7ED007A2B7877EEA88A93
:106EA00004EB431328EE888A9A7B597B187C009068
:106EB000FDEEC87ADB7B17EE900A09FB02F209FBB4
:106EC00001F11BF06BF8C6B221E700BF436C002054
:106ED00098600020D46C00200000B44200007A4486
:106EE000086A0020606C0020096A0020AC6E002057
:106EF000000034430A6A0020F8B504460E461BF031
:106F00005FF8334B1B78002B40D0054604B3314F5C
:106F10003B78002B3BD1304B304C186001223A704B
:106F2000E6B1217800294FD01B68EB1A192B15D92F
:106F30002B4E32687221C2F3C7120720FFF72AFADC
:106F4000327873210720FFF725FA00233B7005E014
:106F50003EBB204F3B78002B30D1204C2378ABB187
:106F6000204B1868281A192810D91F4D2A68742137
:106F700002F07F020720FFF70DFA2A687621C2F39C
:106F8000C7120720FFF706FA00232370F8BDAEB141
:106F9000124C237883B9134A0F4B106001222270E0
:106FA000C2E70E4C0B4F23783A7853B90D490123B1
:106FB00008602370002AE9D0074BB5E7064B074C61
:106FC000B2E7002ACCD0F7E7064922700860ABE7A9
:106FD000EC6B0020506900205469002051690020AA
:106FE000286C002058690020E06C002070B49E4B93
:106FF0009E4A1B78D35C462B4FD8DFE813F05A002B
:107000008400890192015A004700DC00E300ED0092
:10701000A4008400070157017F01CF0013011B0169
:10702000BB00BB004E005A005A002B01A4004E00CA
:107030004E004E004E004E004E004E004E004E00E0
:107040004E004E004E004E004E004E004E004E00D0
:107050004E004E004E004E004E004E004E004E00C0
:107060004E004E004E004E004E004E004E004E00B0
:107070004E004E004E004E004E004E004E004E00A0
:107080004E004E005300530053005300400878490F
:10709000784BC2B218708A5C0AB94FF0FF321046C2
:1070A00070BC7047734A744B40081070C0B21A5CD1
:1070B000F5E7704A714CC0F38501042B117014F888
:1070C000112000F07681152B40F08581132900F006
:1070D0008D81332908BF4C22860700D50132684DC7
:1070E0002D68A842DBD104EB4101664C4978217040
:1070F000142BD4D1C0F346007F2800F079812028DA
:1071000008BF4822CBE7C50540F15A815C49594A7E
:107110000E685D4CC0F3460186421170C0F347050E
:1071200014F8112004D104EB41015648497801704C
:107130000A2BB4D105F07D05482D00F03F81682D64
:1071400008BF4522ABE74B4C5049C0F38502227083
:10715000C4058A5C40F11981C0F34701FF2908BFCB
:107160003D22092B9BD14008FF2898D0C00796D517
:10717000013A94E73F4CC0F34702C0F38501FF2A70
:10718000217000F02681C60540F11181404A122B82
:10719000525C84D1472A08BF462280E7C0F34603E9
:1071A00034493C4A0B70D25CC3057FF578AF312A75
:1071B0007FF775AF28E02F4A374BC0F346001070B9
:1071C0001A5C6CE7C20540F1F9802A4A334BC0F3E0
:1071D000460010701A5C62E710F4C07F4FEA50035B
:1071E00000F0C8805A2B00F00D814C2B00F00C8170
:1071F00003F07F021F4C2A492270C0058A5C3FF5CC
:107200004EAF2C2B3FF44BAF0C3248E7C30500F1D7
:10721000C58003090E2B00F0FF80060640F1CE80EA
:1072200048223CE7C0F346001E4A124B125C18701D
:10723000043234E7C0F30712C0F3800302F01800F1
:10724000520002F00602034313430A49164A0B7028
:10725000D25C24E7C50500F19A8010F0800F14BFBE
:107260004E224C221BE700BF436C0020A46100208B
:107270003CE60400AB6D00201C6800205CEA0400C2
:10728000286C0020806E00203CE90400BCE704006C
:107290007CE80400BCE80400FCE404003CE70400D3
:1072A000FCE704007CE404003CEA0400C0F385032E
:1072B0006349644A0B708407D25C15D52F2A3FF4CA
:1072C000EEAE342A00F09680352A00F0A380362AEC
:1072D00000F0A8803B2A00F0AD803C2A00F0AC8092
:1072E0003D2A00F0AB800132C1057FF5D8AE312ACE
:1072F0007FF7D5AE02F10C031A46D0E6400852499A
:107300004F4BC2B218708A5C002A7FF4C8AEC4E644
:10731000C4054CD54A4A4D4BC0F3460010701A5C68
:10732000BDE6C10543D5C0F34700431C034258D016
:1073300000231A4610F0010F08BF1346401002F157
:107340000102F7D1DBB23E4A7F2B137041D0002BF4
:1073500064D0012B64D0022B66D0032B66D0042BA3
:1073600066D0052B14BF07220622394B03EB4203DC
:107370005A7894E610F0FF0F3FF434AF2C2B45D031
:10738000302B14BF4C224D2289E64A22E9E62C4AD2
:10739000304BC0F3460010701A5C80E605062FD50E
:1073A000274A2D4BC0F3450010701A5C77E64A223D
:1073B00075E685077FF593AE013A90E647226EE6C3
:1073C000264B1B688342F2D1254B02221A704A22B7
:1073D00065E63C2263E6214D2D6885427FF488AE48
:1073E00081E6174B7F221A703C2258E64B2273E647
:1073F0003D2254E64023C1057FF551AE1A464EE6C4
:1074000045224CE658224AE6562248E60C494B22D1
:107410000B7044E64123EEE7462240E60122A4E752
:107420000222A2E74223E6E703229EE704229CE72A
:1074300005229AE74723DEE74823DCE74923DAE71A
:10744000AB6D00207CE504006CEB0400FCE3040061
:10745000DCEA0400ECEA0400BCE50400286C00202F
:10746000806E002030B48D4B8D4A197802EB4112AA
:107470000023907E01287BD08A488B4A05788B4C6C
:10748000127824788A482B4403EB430302EB8303EE
:10749000884ADBB2032C525C037046D0864C2478B9
:1074A000032C2AD0022C0ED002F0F701052940F05F
:1074B000D880013B0C2A037040F0C6800378023369
:1074C000037030BC704712F0FB0F40F0A58001EB59
:1074D00041057A4C01EB8501794D0C442968E4782B
:1074E000C1F300218C4200F0A880172A40F0AC8044
:1074F0000378053B037030BC7047012AE1D00A2AAB
:10750000DFD001EB41056D4C01EB85016C4D0C4466
:107510002968E47801F00101A142C5D1072A00F0F1
:10752000AF800C33DBB20370BEE70F2A6BD0654C23
:107530000C2A247800F08C800E2A00F08F80082A14
:107540005AD14B2C5FD95C4C24780C33DBB2032C22
:107550000370B6D101EB4105584C01EB8501584D44
:107560000C442968E47801F001018C42A9D1D8E7E4
:10757000937F002B80D0544A544C92ED017AD4ED85
:10758000007AB8EEC77AF4EEC77AF1EE10FA7CD43E
:10759000012B2ED092ED027AB8EEC77AF4EEC77ABC
:1075A000F1EE10FA73D4022B23D092ED037AB8EEE9
:1075B000C77AF4EEC77AF1EE10FA6AD4032B18D02A
:1075C00092ED047AB8EEC77AF4EEC77AF1EE10FACB
:1075D00059D4042B57D092ED057AB8EEC77AB4EEA1
:1075E000E77AF1EE10FA56DC052B18BF00237FF482
:1075F00043AF013BDBB23FE73E2C36D0072A29D10F
:107600000733DBB203702C4C2478032C3FF479AFA2
:10761000022C7FF449AF56E7062A7FF445AF01EB11
:107620004105264C01EB8501254D0C442968E47881
:10763000C1F300218C427FF444AF0C33DBB2052A46
:1076400003703FF436AF50E7092A3FF451AF38E7F3
:107650003D2CD8D90C33DBB203701FE7492CF9D885
:10766000D1E70C2A7FF441AF28E7012A3FF429AF84
:107670000A2AC3D11049097803297FF415AF20E7FE
:10768000073303701DE70423B3E70346B1E7022382
:10769000AFE70323ADE70523ABE700BF436C002052
:1076A000986000205B6C0020596C00204D6C00201D
:1076B0004C6D0020A46100200D61002008620020B4
:1076C000286C0020A8610020786C0020606C0020ED
:1076D0001F4B186883B25A1C1A4270B52AD0002179
:1076E0000A4613F0010F08BF11465B1002F10102B8
:1076F000F7D1C9B2174B7F2919701CD0012404FAA5
:1077000001F140EA0104144E20463568FFF76EFC93
:10771000281A002803DA114A0023137070BD20468E
:107720003568FFF763FC281A022808DD0B4A02239C
:10773000137070BD074B07221A708021E1E72046C5
:107740003568FFF753FC054A281AC3B2137070BDA1
:10775000286C00204E6D0020AC6D002005620020DA
:107760002DE9F0411AF02CFC2C4C2D4B22681968A5
:1077700091420AD02B492C4D1A6009782B4B286076
:107780000120187061B1BDE8F081274B25491B68C5
:107790000978C31A8B42F6D3244B19780029F2D00A
:1077A0002349244DDFF8A4801046012600270E70DF
:1077B0001F70FFF71BFC3946034630462B60FFF76E
:1077C0009BFB98F800302BB3032B23D02B681A4E69
:1077D000013314D02B6832789A4210D098F80030D8
:1077E000022B0CD0154B22681A6015482422002168
:1077F00023F07EFE134B0022C3E900221A722B688D
:1078000033704FF0FF332B601AF0DAFB0E4B186029
:10781000BDE8F081FFF75CFFD8E700BF286C0020CF
:10782000EC6100204C6E0020E4690020E869002033
:1078300018610020AC6D0020A86100202C6C002095
:1078400024610020686C0020046C0020646C00201F
:107850002DE9F0417F4A804D804B11788048814A64
:10786000814C2F781B7800781568D4F804C089B94A
:107870007E487F4A4068116083422BDA7D49C95DAA
:10788000042927D1A90727D4C31A0CFB03F3DB086B
:10789000536021E0754AC1F1040611688B4225DB73
:1078A00073494FF0000EC1F800E051688B422DDAA9
:1078B000012800F0B080DFF8BCE11EF80770042F4B
:1078C00024D1AF0725D4C91A694F0CFB01F1C908AF
:1078D00079601EE0002353600023C2E90233C2E94D
:1078E0000433C2E906331362BDE8F0810028D7D122
:1078F00015F0010FD9D1A1EB030E2168DFF87081DB
:1079000001FB0EF1F140C8F80010CEE758490027FE
:107910004F6091688B420DDA02280BD16F070CD4AF
:10792000A768DFF84CC1C91A07FB01F1F140CCF898
:10793000081002E04E4900278F60D1688B420DDAB3
:1079400003280BD12F070CD4E768DFF824C1C91A2C
:1079500007FB01F1F140CCF80C1002E0444900278C
:10796000CF6011698B420DDA04280BD1EF060CD4DD
:107970002769DFF8FCC0C91A07FB01F1F140CCF818
:10798000101002E03A4900270F6151698B4218DB61
:10799000374900274F6191698B4220DB344900272A
:1079A0008F61D1698B4228DB31490027CF61126A90
:1079B0009A4201DD082840D02D4B00221A62BDE812
:1079C000F0810528E4D1AF06E5D46769DFF8A0C0EF
:1079D000C91A07FB01F1F140CCF81410DBE70628C7
:1079E000DCD16F06DDD4A769DFF884C0C91A07FBB4
:1079F00001F1F140CCF81810D3E70728D4D12F06B5
:107A0000D5D4E769DFF868C0C91A07FB01F1F14076
:107A1000CCF81C10CBE715F0020F7FF47AAFDFF83B
:107A200054E01EF80770042F3FF44DAFC91A104FF1
:107A30000CFB01F1F14079606BE7E9053FF554AFCC
:107A4000216A0B48D31A01FB03F323FA06F60662F8
:107A50004AE700BF05620020436C0020F56100206A
:107A60004E6D0020286C0020286E0020046E00203F
:107A700024610020A46100202DE9F8432C4D2D4FF6
:107A80002D4C2E4EDFF8CC902DED068B9FED2C9AD1
:107A9000DFED2CAADFED2C8A9FED2CAADFED2C9ACE
:107AA00005F1030815F8011B012381B3D4ED007A19
:107AB000337037EEA87AF4EEC97AF1EE10FAB0EE30
:107AC000470A2EDC84ED007A19F0CEF8B7EE008A72
:107AD00030EE088A28EE0A8AFCEEC87A28EE298A57
:107AE00017EE901A38781DF0B1FDD4ED007A37EE1C
:107AF000888A84ED008AA84507F1010704F104048F
:107B000006F10106CED1BDEC068BBDE8F8833378D3
:107B1000002BF0D0387831701DF098FDC4F800903B
:107B2000E9E7B0EE6A8AC4F800900021DAE700BF06
:107B3000BC6C00206CEC040000610020F4690020A3
:107B40000AD72F410AD7232F0AD7A33B00C0FF43F0
:107B50000A00A436B4C8964000F0F000A0282DE931
:107B6000F04701F00F0402F07F0603F07F0500F0FC
:107B7000D08034D9B02800F0E980E0286ED1874F5A
:107B80003B7806EBC515A5F50055012B2DB239D173
:107B9000834B1B8805F50051013CE4B2C1F3C716C5
:107BA00005F07F05002B35D00F2C57D864F01F044B
:107BB0005FFA84F87B4C636D1868036841461B6963
:107BC0009847636D1868036829461B699847636D79
:107BD0001868036831461B69BDE8F04718478028DC
:107BE0007AD090283AD16D4F3B78012B38D16C4B2D
:107BF0001B88013CE4B2002B34D00F2C2ED864F04B
:107C00006F0452E005F50051013CE4B2C1F3C71620
:107C100005F07F050F2C21D8DFF89091D9F854306A
:107C20001868036844F0E0081B6841469847D9F893
:107C300054301868036829461B689847D9F85430AF
:107C40001868036831461B6898473B7864F01F0446
:107C5000002BAFD1544B1B78022BA9D1BDE8F08784
:107C6000013CE4B20F2CF9D8DFF84081D8F8543049
:107C70001868036844F090091B68494664F06F0473
:107C80009847D8F854301868036831461B689847FD
:107C9000D8F854301868036829461B6898473B7821
:107CA0002BB9414B1B78022BD8D05FFA84F93D4C9D
:107CB000636D1868036849461B699847636D1868C7
:107CC000036831461B699847636D18680368294645
:107CD0001B69BDE8F0471847304F3B78012B5AD15C
:107CE0002F4B1B88013CE4B273B90F2CB6D8DFF8D8
:107CF000BC80D8F854301868036844F080091B68C9
:107D0000494664F07F04BBE70F2CA7D864F07F04DA
:107D1000CBE7224F3B78012B3AD1214B1B88013C0A
:107D2000E4B273B90F2C99D8DFF88080D8F85430BA
:107D30001868036844F0A0091B68494664F05F04B2
:107D40009EE70F2C8AD864F05F04AEE7134F3B78B0
:107D5000012B1AD1124B1B88013CE4B27BB90F2CCA
:107D60003FF67CAFDFF84480D8F8543018680368D9
:107D700044F0B0091B68494664F04F0480E70F2CBB
:107D80003FF66CAF64F04F048FE7013CE4B2E6E7E6
:107D9000013CE4B2C6E7013CE4B2A6E7F86000208B
:107DA000EE6B0020F06500201868002008670020B6
:107DB000274A284938B5D2E90035D2E902042B44D4
:107DC0000344D2E9040523440344D2E906402B448A
:107DD000126A097823440344134429B11E4A1F48F8
:107DE0001278825C032A24D01D4A1E48126800685B
:107DF0001D4DC3F500531A44121817D4B2F5804F25
:107E0000A8BF43F6FF722A60184C2368934200D043
:107E100001B938BD1649C2F3C713097802F07F02D1
:107E2000E020FFF799FE2B68236038BD00222A600E
:107E3000EAE71048104A114C90F9005012781048A7
:107E400024780068521B121B00FB0233CCE700BFF2
:107E5000246100205A6C0020436C0020BC6100208B
:107E6000006C0020486D0020B8610020FC600020FC
:107E7000986100204C6D0020586C0020A861002003
:107E8000C061002080499FED816AD1ED007A804A6F
:107E9000DFED806AF8B5804B804D93ED007A804C21
:107EA00067EE867A2DED048BE7EE267A2B7892ED3D
:107EB000008AC1ED007A37EE088AB6EE009A38EEF5
:107EC000678A04EB431368EE098ADE7EC2ED008AFE
:107ED0001AF076F82B787349F0EEE87AB3EE047A6C
:107EE00004EB4312F4EEC77AF1EE10FA127ECCBF27
:107EF000012500250D70002A45D06B496B4D0F7888
:107F000000225B012A60AFB3694A1268821A0B2A09
:107F100039D9684A92F800C0BCF1000F08D1B6EE1A
:107F2000007AF4EEC77AF1EE10FA6EDD01271770D1
:107F3000DFF8A8C19CF800705FB39FED5F7A5F4FD8
:107F4000F4EEC77AF1EE10FAC8BF38603F68C01B84
:107F5000B0F5C87F22D900238CF800300B70137065
:107F6000574B1B78022B0ED1BDEC048BBDE8F840BB
:107F7000FFF71EBFF4EEC97AF1EE10FA4C4A05DDA8
:107F8000012310600B70BDEC048BF8BD1268821ADF
:107F9000BDE74A49012208608CF80020DFED497AEC
:107FA000B4EEE78AF1EE10FA21DAFFEE008A2344FC
:107FB000DB7FCBB1032B4AD0022B40D0424BDFED0D
:107FC000436AD3ED007A07EE106AF8EEE77AB8EE6E
:107FD000C77A67EEA67A67EE877A67EEA88AFDEE23
:107FE000E88AC5ED008ABBE7F1EE688AE6E7DFEDD7
:107FF000387AB4EEE78AF1EE10FA96BFDFED357A03
:10800000F7EE008A68EEA78AD1E7DFF8D0C09CF8C7
:1080100000E0BEF1000F90D19FED277AF4EEC77A11
:10802000F1EE10FA08DC002F9AD0244B1B68C01A1E
:10803000B0F5C87F8FD893E7204B1860F3E7F5EED3
:10804000C08AF1EE10FA15D9DFED238AB6E7F5EE16
:10805000C08ADFED217AF1EE10FA88BFF0EE678A70
:10806000FFEE007AF4EEE78AF1EE10FAB8BFF0EE18
:10807000678AA3E7FFEE007AF4EEE78AF1EE10FAE2
:10808000B2DAF7EE008A99E7D06900206666663FAB
:10809000D4690020CDCCCC3D186A0020436C002070
:1080A00098600020446D0020CE690020486D0020BB
:1080B000D8690020CC6900203333B33EDC6900204E
:1080C000646C00202506F0C1C06100200AD7233D62
:1080D0002506F0410A85883D00000000CD6900209A
:1080E000F0B43E4A3E4B147804EB440204EB8202A7
:1080F00013449B7A13B33B4B1B78012B1ED03A4E93
:108100003A4BC4EBC402C2EBC202324493F800C043
:1081100092F8245092F825200927511B642301EB83
:10812000C10117FB0535BCF1030F05EB61014FEAF7
:10813000C40010D117FB023529440CE02B4B2C4A0C
:108140001B781568032B25D02A4B274E1968491B2D
:1081500005EB6101E000284B1B68001BC0EBC00071
:108160008B42304420D24278CB1A02FB03F202EB5E
:1081700082029300491BB3FBF1F3DBB203FB03F371
:10818000DB105B421D4A13601D4B1B78022B1ED077
:10819000F0BC70471B4B144E1A68511B05EB610174
:1081A0001546E0002944D6E7591A437803EB8302C9
:1081B00002EB820203FB01F3B3EBC20F4FEAC201F1
:1081C000E0DD0E4B19600E4B1B78022BE0D10E4BFD
:1081D0000022F0BC1A60FFF7EBBD00BF436C00202B
:1081E000086200200D610020046000204D6C00201A
:1081F000FC610020546E0020E06C0020006C002028
:10820000646C0020586E0020B86100202DE9F8430E
:10821000A14BA24C1A780023C4E90233002A36D0BD
:10822000032A34D09E4B9F4A1B78D35C9A1E012AA6
:108230003DD99D4A1278012A2CD0022A23D113F06D
:10824000FB0F7BD1994B9A4A1B789068994D9A49BC
:108250002D680978834202DA6E0740F1F280022924
:1082600000F08E800020A060D2689342C0F28C8023
:10827000032901D00023E360D4E902318F4A126858
:108280000B44934241DCBDE8F843FFF791BDFFF793
:10829000DFFAC7E7884B1B78022B6DD0874B1B6832
:1082A0000022C4E90232BDE8F843FFF781BD824EE7
:1082B0003378022B79D07F4D28684307C0F38008BC
:1082C0002AD500237D4FA3603378032B32D0286852
:1082D0000207C0F3C00965D4DFF8EC8198F80030DC
:1082E000002B40F09180764B1868764B1B788342C8
:1082F00066D0D4E902313A680B445B429342C2DD56
:108300003378023B012B56D952420023C4E90223A1
:10831000BDE8F843FFF74CBD6B4F3B78002B7DD198
:10832000674B1868674B1B7898425BD03378634F74
:10833000032BCCD12868C105DBD4C9E7012B01D0C0
:108340000A2BA0D15B4B1B68DE0500F18B801D075B
:1083500000F18580564B554ADB681278934240F312
:1083600096805A485549C06809689B1A00FB03F378
:10837000A1EBD303E36086E7504A0023126890E73D
:10838000D2689342BFF676AF2F073FF571AF03294E
:108390003FF472AF4D49C968D31A01FB03F3DB0800
:1083A000E36069E70023E360A3E7424D2868C7055F
:1083B00083D5424F8BE72B68DB053FF564AFA3E71E
:1083C0003B4A3A4BD1681B78994236DD404A3F4BD5
:1083D000D268DB68323A521A03FB02F3DB085B42D5
:1083E000E36086E7324A314B91681B788B421FDA93
:1083F000374A364B92689B68323A521A03FB02F3B3
:10840000DB085B42A36091E740F008002860FEF7BC
:10841000EDFD2B4B88F80090186066E740F00400F3
:108420002860FEF7E3FD264B87F80080186079E7A7
:10843000224F3B685B42A36046E73B685B42E360D8
:1084400057E702299CD0214EB668C01A06FB00F0FF
:10845000C008A06008E702DB1A077FF514AF00230D
:10846000E36010E7124A1149D26809788A42F2DDC6
:108470001807F4D4104B1B78032B3FF404AF134BB5
:10848000DB68521A03FB02F2D208E260FBE60B4BF8
:108490001B68E360F7E600BF646C002024610020E5
:1084A000436C0020A4610020806E0020F561002054
:1084B000046E0020286C00204E6D0020206A0020F1
:1084C000EC690020A861002018610020846E002063
:1084D000E06D00202DE9F04F434C444885B0242244
:1084E000002123F005F82678002E62D0032E60D0FC
:1084F0003F4D404BDFF81CE13F48404C404F414A64
:108500002D781B6802950393DEF80010006824782C
:1085100097F800A0D2F800803B4DDFF8FC90019660
:1085200000234FF0010C13E055F82320A2420BDA90
:1085300020FA03F20CFA03F7D60721EA070103D564
:1085400021FA03F2D2070BD5DAB2082A2AD0013376
:1085500021FA03F2D707E7D420FA03F2D207F3D5C2
:10856000019A012ADAB206D09245EED0274F029E38
:10857000BF5D042F35D055F823B05C4528FA03F7CA
:108580001BDAFF0724D4224E03F809C056F82370E3
:10859000164EABEB040B07FB0BF7FF08082A46F857
:1085A0002370D4D1CEF8001005B0BDE8F04FFFF72E
:1085B000FFBBFFF74DF926789AE74FF0000603F866
:1085C0000960FE07C1D5094E002746F82370BCE7B5
:1085D00013F80970012FB8D1044E039F46F8237099
:1085E000B3E7012AC7D1B2E7646C00202461002000
:1085F000436C0020206A002048620020F5610020C2
:108600004E6D0020286C0020046E0020A461002024
:10861000846E00202C6C0020686C00202DE9F8434B
:10862000294D2A4B2A7802EB42010B441B5CDBB13B
:1086300000EB80094FF03208254F08FB02930446F7
:10864000FE5C012E07EB030110D0052E27D0062E6D
:108650001DD1204991F90030033305DB1E48835CAE
:10866000013B5BB283540B70BDE8F8834B78002B61
:10867000FAD10B79CA7889789020FFF76DFA2A78B9
:10868000164B08FB02981E5517F80860DDE70A2E06
:1086900011D1134A137801331370BDE8F8830D49E3
:1086A00091F90030022BDFDC0B48835C01335BB2B5
:1086B00083540B70D8E70B2ED6D1094A1378013BAF
:1086C0001370BDE8F88300BF436C0020446C0020A9
:1086D000506B00205B6C00205C6C0020506C002014
:1086E000596C0020114B12481B78124AC3EBC3038C
:1086F000C3EBC30318440121837A11708B4203D06A
:10870000022B0DD033B17047437B027BC17A8020AE
:10871000FFF722BA437B027BC17A9020FFF71CBA95
:10872000427B017BC07AFDF735BE00BF436C002061
:1087300004600020FE6B0020114B12481B78124A87
:10874000C3EBC303C3EBC30318440021837B117045
:10875000012B03D0022B0DD033B17047437C027C38
:10876000C17B8020FFF7F8B9437C027CC17B90205D
:10877000FFF7F2B9427C017CC07BFDF70BBE00BF66
:10878000436C002004600020FE6B0020A14BA24A35
:108790001B882DE9F0471568A04E5A1C1A42356017
:1087A00068D000210A4613F0010F08BF11465B1084
:1087B00002F10102F7D101F13E04E4B2462C28BFD8
:1087C00046243C3C964F974A3B78C3EBC303C3EB2C
:1087D000C30313449A7C032A3ED0934A934BDFF899
:1087E00098921078D9F800C05A681B689049DFF851
:1087F0008C8204FB0024AB425FFA8CF20C6088F898
:1088000000201ADB8B4B0121002088F800100A465B
:1088100018703B788848C9F8001003EB430103EB5C
:108820008103034485495B790D6023B1844C23782F
:10883000012B21D02270BDE8F087591CA94209DA2A
:108840008049BCF1010F097804BF022288F800209A
:10885000012924D01146DCE77B4A1278AAB91A7D97
:10886000DB7C43EAC21305339D42B6DDFFF73AFFD6
:108870003568B2E70A24A5E7012ADBD019F0A0FB8E
:10888000724B98F800201860D4E71A7DDB7C43EA2D
:10889000C2139D42A1DAFFF74FFF35689DE76C498F
:1088A000097800293DD0E31A01FB03F3694803EB83
:1088B000430180FB01AE80FB03A0C917DB17A1EBCE
:1088C000EE11C3EBE01323440C4463486349036097
:1088D000AB420C6016DBAC4225DB0222BCF1010F7F
:1088E00088F800202BD0BCF1030FB3D119F068FB3E
:1088F0005B4B1B68C01A142850D898F800203568C4
:10890000114686E74B4B00210322BCF1010F197081
:1089100088F800209ED0BCF1030F9BD1624611461F
:1089200077E72346D1E7BCF1010F06D0BCF1030F76
:1089300090D1022ADAD011466BE7022A8AD119F0C7
:108940003FFB3C4A1478ACB9464B4749D3F800C0CA
:108950000860464B46491C6001200C601070BCF159
:10896000000F3AD10023022113700A46356888F8B7
:1089700000204EE73C493B4B09681B68401A98426F
:10898000F0D23A4B196839B339490B680D60ED1ACA
:10899000002DE7DD99F800201146E7E7346819F06B
:1089A0000FFB244A1578E5B9324B2F49D3F800C0A4
:1089B00008602E4B2E491D6001200D601070BCF127
:1089C000000F21D001220C601A6099F80020356850
:1089D00088F8002011461CE725490D6001221A6025
:1089E000D8E72149234B09681B68401A98420BD2EB
:1089F0001E4B196861B11E4B19681C60641AB4F5EE
:108A0000FA6FE2D0002CE0DB002313700222DEE7D5
:108A10001749D7E7286C0020B06D0020E46C0020D7
:108A2000436C002004600020A7610020FC6100204E
:108A300030620020246C002008620020E06C0020DE
:108A4000F46100200D610020FE6B00207C6E002090
:108A5000206100201F85EB51546E0020586E0020CD
:108A6000046C002088610020E0690020C06C0020B8
:108A7000B46C002014610020F46B00204D6C0020C9
:108A800000F0F000C0282DE9F04101F00F0102F0E4
:108A90007F0510D0D02830D12E4E3378012B48D10D
:108AA0002D4B1B880139002B44D0CBB20F2B24D87F
:108AB00063F02F042DE0274E3378012B1FD00139AE
:108AC000CBB20F2B19D8DFF89C80D8F8542010684F
:108AD000026843F0C0071268394663F03F049047CC
:108AE000D8F854301868036829461B6898473378CB
:108AF00083B91A4B1B78022B0BD1BDE8F081164BC2
:108B00001B880139002BDBD0CBB20F2BF5D863F0DB
:108B10003F04E7B2124C636D1868036839461B695D
:108B20009847636D1868036829461B69BDE8F041E2
:108B300018470139CBB20F2BDFD8DFF82880D8F8DF
:108B400054201068026843F0D0071268394663F079
:108B50002F04C4E7F8600020EE6B002018680020A6
:108B6000F0650020086700202DE9F041354D3649B9
:108B70002B78C3EBC302C2EBC2020A4404469278CC
:108B8000012A45D003EB4302304E03EB820333440A
:108B90009B79DA070BD52E4A1778FFB12D4ADFF8FB
:108BA000CC80D76AD8F80020BA4221D104BB9B07F9
:108BB00012D5274B1B787BB1264B274EDD6B3368D4
:108BC000AB4200D144B1254B254A19781278EBB25B
:108BD000A020FEF7C1FF3560BDE8F081214A126890
:108BE000642ADBDCDFF88480D8F80020BA42DDD0CC
:108BF0001A4BFAB21978D020FFF742FF2B78C8F849
:108C0000007003EB430203EB82031E44B379CEE70B
:108C1000DFF84080144ED8F80C203768BA424FEA8B
:108C2000C30001D1002CADD0C31AC3EBC3030B4466
:108C3000D2B259791879FDF7ADFBD8F80C202B7812
:108C400032609FE7436C002004600020086200202F
:108C50005A6C002048610020AC6C00209861002014
:108C6000586C0020E06C0020A06C0020A46C002058
:108C70002DE9F04FA94DAA4C2B78AA4E03EB4302E5
:108C800003EB8202224431789279002A87B014BF24
:108C90004FF003084FF010085A0089B1A248C05C99
:108CA000032800F02481A148DFF8BCC2A04F00785F
:108CB0009CF900C03F78A0EB0C00874200F02C81AB
:108CC0009C4F3878012802EB030003EB800020441E
:108CD000407809D9002850D09748007800284CD116
:108CE00031B907B0BDE8F08F0028F5D10029F8D0E0
:108CF0002B785A001A4403EB820239781444012974
:108D0000627800F0D480002A40F0D4808B4AD35C93
:108D1000032B00F0D9808A4B1B78032BE1D0894BC1
:108D20001B78002BDDD0884B1A6840F2FF139A4263
:108D3000D7D1864B7D4A1978127840238020FEF7E0
:108D40000BFF2B78824A02EB4312D27D012A00F0FE
:108D50007F81804AC3EBC303C3EBC30313440022E8
:108D60009B7C3270022BBCD17B4B1B78002BB8D084
:108D700007B0BDE8F04FFFF7DFBC1A4403EB8202F7
:108D800022445279002A40F0A5806C4AD25C032A22
:108D900000F02C816A4A1278032A08D0694A1278B6
:108DA0002AB1694A106840F2FF12904298D0DFF869
:108DB0007CA19AF800200592002900F0E38003EBE3
:108DC000430203EB8202224492F809C0BCF1000F77
:108DD00000F0778101220492DFF878815F4ADFF8A2
:108DE0006CB103925E4A127822B15E4A1288002A60
:108DF00040F0FA80C3EBC302C2EBC2024244927855
:108E0000012A00F0ED8003EB430103EB81012144D3
:108E10005A008879002840F0E3804979012900F060
:108E2000DF80D018DFF808914F4999F8002091F8B9
:108E300000C003EB80002044624490F808C0D2B226
:108E40004FF0010E8AF8002086F800E0BCF1000F18
:108E500040F0E280039B9BF800101B789020FEF707
:108E60007BFE049B002B40F0CF8019F0A9F8DFF8BF
:108E700008A1CAF8000019F0A3F82B783B4ADAF8E9
:108E800000C0C2F800C0C3EBC303C3EBC3039844E4
:108E9000DFF8E8C098F81230354A99F80010CCF89D
:108EA0000000022B117000F0A780317818E7002A2B
:108EB0003FF43FAF204A1278002A3FF43AAF1F4AEE
:108EC000D35C032B7FF427AF194B1B783C2B7FF42B
:108ED00022AF2EE700297FF458AF19F071F8254B27
:108EE0001B68C01A4045E0D32B7831784DE7DFF896
:108EF00078C00E4F0E489CF900E03F780078DFF80C
:108F000080C0A7EB0E07C01B00289CF80070B8BFFC
:108F1000404287427FF7D4AE064FEBE6436C002019
:108F2000086200205A6C0020BC610020586C0020B0
:108F3000A86100204D6C0020906C0020A4610020EE
:108F40000D6100200C610020286C00209861002039
:108F50009860002004600020FE6B00203762002033
:108F6000F8600020EE6B00204C6D0020946C002017
:108F7000A86C00207C6E0020746C0020546C0020D3
:108F800099610020DFF85483C3EBC302C2EBC20235
:108F900042449278002A64D103EB430103EB810140
:108FA00021445A004979002940F00481BE490391C7
:108FB0001A4403EB820222449279D10700F1C28065
:108FC000920700F18F80DFF8189309EB4312D27DEE
:108FD000012A00F023810022DFF808B3049201E7A0
:108FE0000120FFF7C1FD2B785A001AE7AF4A12782B
:108FF0003C2A7FF4CFAE73E6AD4B1B78002B7FF499
:1090000054AFFFF76FFB50E7059A9BF80010402321
:109010008020FEF7A1FD28E7C3EBC303C3EBC30326
:1090200018F8033023B1437813B9FFF759F8A14971
:10903000A14B1B7893B9A14B1B78022B02D0FFF7F1
:1090400049FA9C490B7899F800201A44D2B201E7FA
:1090500018F0B6FF9A4A2B7810607AE6FFF7D6F838
:10906000EFE7984A984B10681B68DFF87C92A0EBFA
:109070008300D9F80030D9F8042020EAE070B0EB82
:10908000830F4FEA830180F0ED80084692004FF491
:1090900080630093002318F081FF8C4B1B78012B19
:1090A00000F02481022B00F0628189492B780A7834
:1090B0004978891A00FB01F002EBA020C9F80C00E6
:1090C0006AE7DFF820B2059A9BF80010CDF810C0CF
:1090D00040238020FEF740FD734B0393DFF8FC81B3
:1090E0002B787FE6774A784B10681B68DFF8F89199
:1090F000A0EB8300D9F83030D9F8342020EAE070B2
:10910000B0EB830F4FEA830180F0A78008469200FE
:109110004FF480630093002318F040FF6B4BDB7823
:10912000012B00F0E980022B00F0F18068492B78D8
:109130008A79C979891A00FB01F002EBA020C9F8ED
:109140003C0040E75F4A604B10681B68DFF898916D
:10915000A0EB8300D9F82030D9F8242020EAE07071
:10916000B0EB830F4FEA830180F0818008469200C4
:109170004FF480630093002318F010FF534B9B784B
:10918000012B00F08B80022B00F0CF80504A2B780F
:10919000117992F805C003EB430203EB8202ACEBBA
:1091A000010C224400FB0CF001EBA0209279C9F8DD
:1091B0002C0005E7434A444B10681B68DFF82891F0
:1091C000A0EB8300D9F81030D9F8142020EAE07021
:1091D000B0EB830F4FEA830155D2084692004FF45B
:1091E00080630093002318F0D9FE384B5B78012B85
:1091F0004ED0022B00F0AD80354A2B499378D278BF
:109200000391D21A00FB02F003EBA020C3B2C9F80D
:109210001C000B7083B32B785A00C9E618F0D0FEFF
:109220002B78274909EB4312D1F800C0527EC2EBDC
:109230004211A0EB0C0002EB8102B0EB420F61D9AE
:109240002449254AD1ED007ADFF898B0F1EE677A2B
:10925000C2ED007A00220492C4E59200904228BF39
:10926000104655E79200904228BF10460FE7920043
:10927000904228BF10467BE708462B78012103FA6D
:1092800001F2017094E69200904228BF1046A6E7D2
:1092900000FB00F300FB03F00015ADE700FB00F35B
:1092A00000FB03F0001571E737620020A861002081
:1092B000FE6B00204C6D0020FC6B0020646C0020D5
:1092C0005C6A0020506D0020FC610020F86B0020DB
:1092D000B0610020F06B0020B06E00200460002020
:1092E00098600020986100204861002000FB00F396
:1092F00000FB03F00015D8E600FB00F300FB03F0D1
:10930000001513E70022DFF8E8B004926AE5BF28F1
:109310004FEAA01317DC002B61DC58D1C000B0F578
:10932000806FA8BF4FF4806000E7BF284FEAA0130A
:1093300031DC002B3BDC56D1C000B0F5806FA8BFFC
:109340004FF4806022E7033B022B40D800F2362026
:10935000E5E7BF284FEAA01317DC002B2FDC3AD13A
:10936000C000B0F5806FA8BF4FF4806044E7BF280D
:109370004FEAA01315DC002B1DDC24D1C000B0F592
:10938000806FA8BF4FF480608FE6033B022B22D88A
:1093900000F23620E5E7033B022B24D800F236200A
:1093A000CBE7033B022B0ED800F23620E7E7400064
:1093B00000F5BC70C1E7400000F5BC70DFE740007D
:1093C00000F5BC70CDE7C01000F28530D7E7C010C3
:1093D00000F28530A3E7C01000F28530C1E74000FD
:1093E00000F5BC709BE7C01000F28530A5E700BF18
:1093F000986100202DE9F041BC4CBD4D22682B68DE
:109400009B1A002BB8BF5B42012B82B024DDB94F01
:10941000B9483B78C3EBC301C1EBC1010144897872
:10942000002967D1B54E03EB430203EB82023244BD
:1094300059005279002A40F08B80194403EB8103D4
:1094400033449B79D80700F1B880990724D40020D1
:10945000FFF78AFB23682B60A94B1A68D20708D450
:10946000A849A94A0968116001221A6002B0BDE842
:10947000F081A54CA34D23682A689B1A002BB8BF26
:109480005B42022BF2DD01210020FDF735FD2B6848
:10949000236002B0BDE8F0819C4BDFF87C821B6842
:1094A0002068D8F83420A0EB8300D8F8303020EAC8
:1094B000E070B0EB830F4FEA830180F0C480084670
:1094C00092004FF480630093002318F067FD904BE7
:1094D000DB78012B00F0C180022B00F0D6808D4A92
:1094E0009379D279D21A00FB02F003EBA020C8F8DE
:1094F0003C00ACE7854BDFF820821868D8F80030D4
:10950000A2EB800020EAE070B0EB830FD8F80420D3
:109510004FEA830180F09C80084692004FF48063FC
:109520000093002318F03AFD794B1B78012B00F0D3
:109530009A80022B00F0F48076493B780A784978CB
:10954000891A00FB01F002EBA020C8F80C0069E7C3
:109550006E4BDFF8C4811B682068D8F81420A0EB9C
:109560008300D8F8103020EAE070B0EB830F4FEAA8
:10957000830163D2084692004FF480630093002376
:1095800018F00CFD624B5B78012B78D0022B00F0B9
:109590009E80604ADFF884C19378D278D21A00FBAB
:1095A00002F003EBA020C3B2C8F81C008CF8003016
:1095B000002B37D03B7859003FE7544BDFF85881F8
:1095C0001B682068D8F82420A0EB8300D8F820304E
:1095D00020EAE070B0EB830F4FEA830129D20846FE
:1095E00092004FF480630093002318F0D7FC484B9F
:1095F0009B78012B3DD0022B55D03B78454903EB9E
:10960000430703EB87030A7949791E44891AB37922
:1096100000FB01F002EBA0209907C8F82C007FF5B1
:1096200016AF39E73B78012203FA02F18CF80020EB
:1096300003E79200904228BF1046D2E79200904282
:1096400028BF104698E79200904228BF104638E79E
:109650009200904228BF104660E700FB00F300FB39
:1096600003F000153BE700FB00F300FB03F00015DF
:1096700062E700FB00F300FB03F00015BDE700FB11
:1096800000F300FB03F0001583E7BF284FEAA013A7
:1096900017DC002B7CDC73D1C000B0F5806FA8BF55
:1096A0004FF480601BE7BF284FEAA0134CDC002B6F
:1096B00056DC71D1C000B0F5806FA8BF4FF4806058
:1096C0009BE7033B022B5BD800F23620E5E7BF287F
:1096D0004FEAA01332DC002B4ADC55D1C000B0F5B4
:1096E000806FA8BF4FF4806053E700BF506D00202B
:1096F000B06C0020436C0020046000200862002051
:1097000028690020E06C0020F0690020FC61002046
:10971000F86B0020B0610020486100203762002013
:10972000BF284FEAA01315DC002B1DDC24D1C0009C
:10973000B0F5806FA8BF4FF48060FDE6033B022BBD
:1097400022D800F23620CAE7033B022B24D800F2CD
:109750003620B0E7033B022B0ED800F23620E7E7B5
:10976000400000F5BC70A6E7400000F5BC70DFE7E4
:10977000400000F5BC70B2E7C01000F28530D7E7BA
:10978000C01000F2853088E7C01000F28530A6E7EF
:10979000400000F5BC7080E7C01000F285308AE719
:1097A000036810B504460BB17430984794F87530CF
:1097B000803B7F2B43D8DFE803F0494242424242DC
:1097C0004242424242424242424255424242424266
:1097D0004242424242424242424259424242424252
:1097E000424242424242424242425D42424242423E
:1097F000424242424242424242426142424242422A
:10980000424242424242424242426B42424242420F
:10981000424242424242424242426F4242424242FB
:1098200042424242424242424242839098A84242CD
:109830004342ACB0B4B8BC42C040236D1BB910BDAC
:10984000636B002BFBD0BDE810401847A368002BCA
:10985000F5D094F8772094F8761094F87400BDE869
:1098600010401847E368002BF3D1E8E72369002B89
:10987000EFD1E4E76369002BEBD1E0E7A369002BAC
:10988000DDD094F8761094F87400BDE810401847C5
:10989000E369002BF5D1D2E7226A002ACFD094F8F1
:1098A000771094F8763094F87400C90101F47E5171
:1098B00003F07F031943BDE81040A1F500511047A4
:1098C000636A002BBBD0B4F87610802904F17800CD
:1098D00028BF8021BDE810401847A36A002BAED0F6
:1098E00094F87600BDE810401847E26A002AA6D036
:1098F00094F8773094F87600DB0103F47E5300F09F
:109900007F00BDE8104018431047236B002BE7D1C0
:1099100095E7A36B002B96D191E7236C002B92D196
:109920008DE7E36B002B8ED189E7636C002B8AD126
:1099300085E7A36C002B86D181E7E36C002B82D1F5
:109940007DE700BFF8B50446802600250DE094F8B9
:109950000D31626D23F0010384F80D311068036846
:109960001B699847C3B2FD2B07D1636D1868036864
:10997000DB6898470028EAD1F8BD626E002A75D1ED
:1099800094F9591094F8592084F85B30002980F23A
:10999000848002F10C01C9B201297ED9FD2A7CD054
:1099A000EF2A94BF02F0F001114601F0CF07802F9B
:1099B00001D0D0296DD1000606D4012184F85C3095
:1099C00084F85B201346616603F10C02D2B2012ACF
:1099D00067D9FD2B65D0EF2B94BF03F0F00119463A
:1099E000A1F180027F2A5CD8DFE802F0CB5B5B5BF1
:1099F0005B5B5B5B5B5B5B5B5B5B5B5BCB5B5B5B47
:109A00005B5B5B5B5B5B5B5B5B5B5B5BCB5B5B5B36
:109A10005B5B5B5B5B5B5B5B5B5B5B5BCB5B5B5B26
:109A20005B5B5B5B5B5B5B5B5B5B5B5BE85B5B5BF9
:109A30005B5B5B5B5B5B5B5B5B5B5B5BE85B5B5BE9
:109A40005B5B5B5B5B5B5B5B5B5B5B5BCB5B5B5BF6
:109A50005B5B5B5B5B5B5B5B5B5B5B5BECE8CBE83B
:109A60005B5BBEECBEBEBEBEBE5BBEBE010627D407
:109A700094F85B10F0294BD0F72949D0A11881F850
:109A80005B30236E591E8A4280F0A38001326266E9
:109A90006BE701F0DF01C0298DD040B20028C0F291
:109AA0002E8194F90D01636840F0010084F80D01E6
:109AB00003B19847002084F85900C4E91800F8BDA4
:109AC000A3F1F0010F29D3D801A050F821F000BF75
:109AD000339B0200719A0200719A0200719A02008F
:109AE000719A0200719A0200719A0200339B02007F
:109AF000199B0200199B0200199B0200199B02008E
:109B0000199B0200719A0200199B0200199B020026
:109B1000A11881F87830B4E700220120A4F876205B
:109B200084F8742084F87530C4F8FC0084F8F800D8
:109B3000F8BD94F87810F02901D0F729B1D1A51813
:109B40004FF4704185F87830013200230120A4F8E9
:109B50007620A4F8741084F85930C4E91833C4F896
:109B6000FC2084F8F800F8BD0023012084F874304C
:109B7000A4F87630C4E9183384F8751084F8F80036
:109B8000F8BD032222660220626E8242FFF47EAF9D
:109B900003F00F03013394F85C2084F87430002341
:109BA000012084F8762084F87730C4E9183384F8EB
:109BB0007510C4F8FC0084F8F800F8BD0222226693
:109BC0000120E1E7266684F8595084F878107F2058
:109BD000DAE794F85B10F02952D0F72950D00A0642
:109BE0003BD501F10C02D2B2012A36D9FD2934D07D
:109BF000EF2994BF01F0F0020A46802A84F875200C
:109C000005D0902A03D0B02A01D0A02A5ED101F05D
:109C10000F0094F85C5084F876500130032B84F8E0
:109C2000740050D00025002084F87750B02A4FF0FF
:109C30000105C4E91800C4F8FC3084F8F8503ED09F
:109C4000B02A36D9E02A3AD002F0EF02C02A36D044
:109C5000002384F859300120F8BD94F85C0084F8A2
:109C600076000022032BA4F874202CD00121C4E933
:109C7000182284F87720C4F8FC3084F8F810E7E75D
:109C8000224B6367F0218022012394F8F750C4F837
:109C9000FC2084F8F830204684F8F710FFF780FDA8
:109CA000F722022384F8795084F878206366002034
:109CB000F8BDA02A03D002F0EF02802AC8D184F8B0
:109CC00059100120F8BD94F85D50ACE7D02A9ED021
:109CD000E02A9CD0C02A9AD094F85C5084F8765040
:109CE0000020032B84F87400EDD00125C4E918008E
:109CF00084F87700C4F8FC3084F8F850A0E703F14A
:109D00000C02D2B2012A3FF666AECAE600F080002D
:109D1000036810B504460BB17430984794F8753059
:109D2000803B7F2B43D8DFE803F049424242424266
:109D300042424242424242424242554242424242F0
:109D400042424242424242424242594242424242DC
:109D5000424242424242424242425D4242424242C8
:109D600042424242424242424242614242424242B4
:109D7000424242424242424242426B42424242429A
:109D8000424242424242424242426F424242424286
:109D900042424242424242424242839098A8424258
:109DA0004342ACB0B4B8BC42C040236D1BB910BD37
:109DB000636B002BFBD0BDE810401847A368002B55
:109DC000F5D094F8772094F8761094F87400BDE8F4
:109DD00010401847E368002BF3D1E8E72369002B14
:109DE000EFD1E4E76369002BEBD1E0E7A369002B37
:109DF000DDD094F8761094F87400BDE81040184750
:109E0000E369002BF5D1D2E7226A002ACFD094F87B
:109E1000771094F8763094F87400C90101F47E51FB
:109E200003F07F031943BDE81040A1F5005110472E
:109E3000636A002BBBD0B4F87610802904F1780057
:109E400028BF8021BDE810401847A36A002BAED080
:109E500094F87600BDE810401847E26A002AA6D0C0
:109E600094F8773094F87600DB0103F47E5300F029
:109E70007F00BDE8104018431047236B002BE7D14B
:109E800095E7A36B002B96D191E7236C002B92D121
:109E90008DE7E36B002B8ED189E7636C002B8AD1B1
:109EA00085E7A36C002B86D181E7E36C002B82D180
:109EB0007DE700BFF8B50446802600250DE094F844
:109EC0000D31626D23F0010384F80D3110680368D1
:109ED000DB689847C3B2FD2B07D1636D1868036830
:109EE0005B6998470028EAD1F8BD626E002A75D1F7
:109EF00094F9591094F8592084F85B30002980F2C5
:109F0000848002F10C01C9B201297ED9FD2A7CD0DE
:109F1000EF2A94BF02F0F001114601F0CF07802F25
:109F200001D0D0296DD1000606D4012184F85C301F
:109F300084F85B201346616603F10C02D2B2012A59
:109F400067D9FD2B65D0EF2B94BF03F0F0011946C4
:109F5000A1F180027F2A5CD8DFE802F0CB5B5B5B7B
:109F60005B5B5B5B5B5B5B5B5B5B5B5BCB5B5B5BD1
:109F70005B5B5B5B5B5B5B5B5B5B5B5BCB5B5B5BC1
:109F80005B5B5B5B5B5B5B5B5B5B5B5BCB5B5B5BB1
:109F90005B5B5B5B5B5B5B5B5B5B5B5BE85B5B5B84
:109FA0005B5B5B5B5B5B5B5B5B5B5B5BE85B5B5B74
:109FB0005B5B5B5B5B5B5B5B5B5B5B5BCB5B5B5B81
:109FC0005B5B5B5B5B5B5B5B5B5B5B5BECE8CBE8C6
:109FD0005B5BBEECBEBEBEBEBE5BBEBE010627D492
:109FE00094F85B10F0294BD0F72949D0A11881F8DB
:109FF0005B30236E591E8A4280F0A3800132626674
:10A000006BE701F0DF01C0298DD040B20028C0F21B
:10A010002E8194F90D01636840F0010084F80D0170
:10A0200003B19847002084F85900C4E91800F8BD2E
:10A03000A3F1F0010F29D3D801A050F821F000BFFF
:10A04000A3A00200E19F0200E19F0200E19F020045
:10A05000E19F0200E19F0200E19F0200A3A0020035
:10A0600089A0020089A0020089A0020089A0020044
:10A0700089A00200E19F020089A0020089A00200DD
:10A08000A11881F87830B4E700220120A4F87620E6
:10A0900084F8742084F87530C4F8FC0084F8F80063
:10A0A000F8BD94F87810F02901D0F729B1D1A5189E
:10A0B0004FF4704185F87830013200230120A4F874
:10A0C0007620A4F8741084F85930C4E91833C4F821
:10A0D000FC2084F8F800F8BD0023012084F87430D7
:10A0E000A4F87630C4E9183384F8751084F8F800C1
:10A0F000F8BD032222660220626E8242FFF47EAF28
:10A1000003F00F03013394F85C2084F874300023CB
:10A11000012084F8762084F87730C4E9183384F875
:10A120007510C4F8FC0084F8F800F8BD022222661D
:10A130000120E1E7266684F8595084F878107F20E2
:10A14000DAE794F85B10F02952D0F72950D00A06CC
:10A150003BD501F10C02D2B2012A36D9FD2934D007
:10A16000EF2994BF01F0F0020A46802A84F8752096
:10A1700005D0902A03D0B02A01D0A02A5ED101F0E8
:10A180000F0094F85C5084F876500130032B84F86B
:10A19000740050D00025002084F87750B02A4FF08A
:10A1A0000105C4E91800C4F8FC3084F8F8503ED02A
:10A1B000B02A36D9E02A3AD002F0EF02C02A36D0CF
:10A1C000002384F859300120F8BD94F85C0084F82D
:10A1D00076000022032BA4F874202CD00121C4E9BE
:10A1E000182284F87720C4F8FC3084F8F810E7E7E8
:10A1F000224B6367F0218022012394F8F750C4F8C2
:10A20000FC2084F8F830204684F8F710FFF780FD32
:10A21000F722022384F8795084F8782063660020BE
:10A22000F8BDA02A03D002F0EF02802AC8D184F83A
:10A2300059100120F8BD94F85D50ACE7D02A9ED0AB
:10A24000E02A9CD0C02A9AD094F85C5084F87650CA
:10A250000020032B84F87400EDD00125C4E9180018
:10A2600084F87700C4F8FC3084F8F850A0E703F1D4
:10A270000C02D2B2012A3FF666AECAE600F08000B8
:10A2800090F87030DA0719D513F0FE0F16D0F0B53C
:10A2900090F8755085F08002602A83B004460ED88D
:10A2A00090F874208A4245D0002943D05B08012BE6
:10A2B00045D0032B00F09C8003B0F0BD7047A5F1A2
:10A2C000F0030F2BF8D801A252F823F06FA302007D
:10A2D0009DA30200BFA3020053A30200B9A2020083
:10A2E000B9A202000DA30200B9A202000DA3020050
:10A2F000B9A202000DA302000DA302000DA30200EB
:10A30000B9A202000DA302000DA3020005F108038B
:10A31000DBB2072BD0D8012202FA03F313F0DD0FD2
:10A32000CAD0636D1868036829461B6903B0BDE88D
:10A33000F04018475B08012B01D0022BBCD10092E2
:10A3400094F8773094F8762029462046FBF7F6FFFC
:10A35000B2E7436D90F8765018680368F3211B69E3
:10A360009847636D186805F07F010368DDE7B0F872
:10A370007630802B1F4628BF8027002B9CD000F111
:10A380007706636D18683546036816F8011F1B6968
:10A39000763D2D1B9847BD42F3D38DE7436D90F872
:10A3A0007650186894F8773002682D0103F00F0397
:10A3B000126905F07005F1211D439047B1E7436D27
:10A3C00090F87720186894F876500368F2211B699A
:10A3D00045EAC2159847636D1868036805F07F0168
:10A3E0001B699847636D1868C5F3C61103689CE73D
:10A3F000009294F8773094F876202946FBF79EFF78
:10A400005AE700BFF0B58C4C94F85850102D83B02B
:10A4100006D98A4808F060F8002841D103B0F0BDA1
:10A420002046FFF78FFA0028F3D094F87530902B70
:10A4300029D083F08003602B2BD97F48FFF7B0F938
:10A4400094F87030DA07E4D513F0FE0FE1D094F8F9
:10A45000751081F08002602A47D894F874209542E4
:10A4600000F0D680002D00F0D3805B08012B01D0D6
:10A47000032BCED1009294F8773094F876206E4872
:10A48000FBF730FFC5E794F8773013B9802384F8E1
:10A49000753094F874309D42CFD0002DCDD0CFE7E9
:10A4A000674808F08DFA0028B8D0664C94F85850E8
:10A4B000102DB3D82046FFF7FDFC0028AED094F84D
:10A4C0007530902B00F0AE8083F08003602B04D8B1
:10A4D00094F87430AB4200D015B95A48FFF718FC15
:10A4E00058482946FFF7CCFE98E7A1F1F0030F2B5F
:10A4F0008FD801A252F823F0E3A50200B5A502000F
:10A500007FA502005FA5020013A4020013A40200AD
:10A5100039A5020013A4020039A5020013A4020009
:10A5200039A5020039A5020039A5020013A40200D2
:10A5300039A5020039A5020001F10803DBB2072B9F
:10A540003FF667AF012202FA03F313F0DD0F3FF489
:10A5500060AF636D186803681B68984759E7636DBF
:10A5600094F8765018680368F3211B689847636D68
:10A570001868036805F07F011B68984749E7636D19
:10A5800094F87720186894F876500368F2211B68D5
:10A5900045EAC2159847636D1868036805F07F01A6
:10A5A0001B689847636D18680368C5F3C6111B687C
:10A5B00098472EE7636D94F87650186894F87730D2
:10A5C00002682D0103F00F031268F12105F07005F8
:10A5D0001D439047636D1868036829461B689847B8
:10A5E00017E7B4F87630802B1F4628BF8027002B52
:10A5F0003FF40FAF144E636D18683546036816F8C4
:10A60000011F1B68763D2D1B9847AF42F3D800E72A
:10A6100094F870305B08012B3FF42CAF022B7FF4D1
:10A62000F8AE27E794F87730002B7FF451AF802302
:10A6300084F875304CE700BF08670020CC6E00201E
:10A64000AC6A0020F06500207F67002010B5054B44
:10A65000036004460EF08CFE20461AF04BF82046AC
:10A6600010BD00BF28F104002DE9F84FDFF89C81F0
:10A67000584FDFF89C91DFF89CA1574C574E584D2E
:10A68000404607F0B7FF3A465649404620F068FE7C
:10A690004846802108F0B2FE3A465349484620F029
:10A6A0005FFE0121504609F0BDFF20460FF0A4F9DE
:10A6B0003A464E49204620F053FE4D4810F0B2F87D
:10A6C0004C489FED4D0A00230024036201224FF005
:10A6D00081434FF4806141600361027580F824403A
:10A6E0000E2110F0F9F9454B73654FF0800BC3F85C
:10A6F000009021464FF6FF784FF003095A4606F1C5
:10A700007800C6E90044C6E90244C6E90444C6E943
:10A710000644C6E90844C6E90A44C6E90C44C6E949
:10A720000E44C6E91044C6E91244C6E91844C6E915
:10A730001A883465A6F8584086F85A40746786F837
:10A74000F84086F8709020F0D3FE3A462C49C6F8BF
:10A7500008413046C6E94044A6F80C4120F000FE0E
:10A76000284B6B655A46214605F17800C3F800A0D6
:10A77000C5E90044C5E90244C5E90444C5E9064405
:10A78000C5E90844C5E90A44C5E90C44C5E90E44D5
:10A79000C5E91044C5E91244C5E91844C5E91A8859
:10A7A0002C65A5F8584085F85A4085F870906C677C
:10A7B00085F8F84020F09CFEC5E940443A4628461A
:10A7C000C5F80841A5F80C410F49BDE8F84F20F045
:10A7D000C7BD00BF00600020546D0020F065002060
:10A7E0000867002009F60200D5F50200D1620200D8
:10A7F000F06C0020246A00200AD7233CE86C00207B
:10A80000C9620200EC6C0020CD620200646A002084
:10A81000AC6A00205C6E002070B5054616485021D9
:10A8200004460EF0A9FBC5F3072120460EF042FABC
:10A83000E9B220460EF03EFA20460EF005FC012259
:10A84000502120460EF058FB20460EF047FA0B4DE3
:10A85000C6B245F0010500E0A847502120460EF0A1
:10A860008BFB20460EF0F0FB03464FF44850002BC4
:10A87000F2D1304670BD00BF8C83002080EC040014
:10A880002DE9F0411D4E1E4DDFF87880282420462A
:10A89000FFF7C2FF034604F10D0006F8013BFFF786
:10A8A000BBFF98F8003005F8010B23B901342B2CBD
:10A8B000EDD1BDE8F081E7B2A7F10A02D2B266217C
:10A8C0000720FBF767FD16F8012C2132D2B2662172
:10A8D0000720FBF75FFD15F9012C07F14701002A5E
:10A8E00002F17F030F46D2B2C9B24FF00700BEBFDC
:10A8F000DAB2F9B20720FBF74DFDD7E7A4610020DB
:10A90000AC610020EC6B00202DE9F04F564C574B0A
:10A910002578DFF8A4C15A5D55495CF82530DFF889
:10A920009CA1DFF89C91DFF89CB1DFF89CE119F85D
:10A9300005901EF805E05BF825B04E4F4E4E7F5D4A
:10A940004E48DFF8888110F805C018F8058087B0F8
:10A95000003A00934B5D4A49019318BF01220A70E7
:10A96000484A5AF825304849DFF864A182F8009037
:10A97000464A81F800E0CAF800B000990293DFF877
:10A9800054B1434B1160019A03978BF800205F5D2F
:10A99000404A0299116005EB450306EB8306DFF898
:10A9A00038A13D4A707A82F800C08AF800803B4A9C
:10A9B000DFF82881039988F8001001304FEA8308F6
:10A9C00017701FF0A1FF26A3D3E9002320F006F89B
:10A9D00020F0C6FADFF80891314A3249107008EBCE
:10A9E0000503DFF8008119F803302F4A03EB430316
:10A9F00006EB430A16F813309AF804009AF801603F
:10AA000088F800309AF802300E70137001301FF091
:10AA10007BFF13A3D3E900231FF0E0FF20F078FAB7
:10AA20009AF80530214A224E1060581C1FF06CFF26
:10AA30000BA3D3E900231FF0D1FF20F069FA735D67
:10AA40001C49433BDAB2032A086060D8DFF898A0BB
:10AA50000AF58077CAF100054BE000BFAFF3008034
:10AA60009A9999999999E93F436C002034620020A2
:10AA7000F861002010610020C86100209C61002066
:10AA8000786E00205B6C0020646C0020346C002029
:10AA9000A0610020386200209961002098610020A8
:10AAA0004C6E0020A76100202061002088610020FA
:10AAB000A4610020146100208C6100203C62002011
:10AAC0005C6C00204C620020BC610020AC61002066
:10AAD00048620020F5610020596C00200D610020C3
:10AAE00008620020AF6100201B6800202378F35C1F
:10AAF000433B1B0203F57A6305EB0A001844FFF79A
:10AB00008BFE0AF8010F5745F0D1C64B1F78C64B94
:10AB1000C648C74E00254FF400521A6039464023FC
:10AB20002A460560E0203560FDF716F82946242204
:10AB3000C04820F0DDFC2078BF4A009000EB4003C5
:10AB400000EB83034B44156019795560157243007F
:10AB500021B1BA4A1178023918BF0121009AB848C8
:10AB6000134402EB83039944B64B99F80750B64A55
:10AB70001B781170002D14BF7F254025B34A057046
:10AB8000002B40F08C81B24B12781B681A44DFF81E
:10AB9000F4929BF80010D9F810500495D9E905B546
:10ABA0000595AC4D98F800002D780195AA4DAB4B5A
:10ABB000D5F80080019DB8FBF5F8D9E90276009D33
:10ABC000CDF808806FF03108A8EB0101DFF8B882FA
:10ABD000C5EBC50A7518049EC8F80020D9E900EC39
:10ABE00002EB8002CAEBCA0A5344C8F80420D9E930
:10ABF00007A90E44029A9A4803953546059E12010C
:10AC00008E44B2FBFEF84FEA580889440F44C0F85E
:10AC100000808B4401EB06088A448C44B2FBFCF1B3
:10AC200049084160B2FBF7F1490881600399B2FB22
:10AC3000F1F14908C160B2FBF5F149080161B2FBCD
:10AC4000FBF149084161B2FBF8F149088161B2FBAF
:10AC5000FAF1B2FBF9F249085608C0E9071643F6C3
:10AC6000FF7203980199B2FBF1F2D200B2FBFCFC37
:10AC7000B2FBF0F6B2FBF5F5B2FBFBFBB2FBFEFE5E
:10AC8000B2FBF7F7B2FBF8F8B2FBFAFAB2FBF9F253
:10AC9000DFF8F891987F04904FEA5C014FEA550C79
:10ACA0004FEA5B05C9E904C54FEA5E0E6D4D029897
:10ACB00028607F0876084FEA58084FEA5A0A520877
:10ACC000C9E900E1C9E90276C9E9068AC9F8202084
:10ACD00093F81A9093F81D80009D93F806E062495E
:10ACE000624A93F819A093F808B093F807C05F7D03
:10ACF0009E7D82F800B009EBC90002904FF4005924
:10AD000008EBC8004FEA4518019DB9FBF5F9584D0D
:10AD100003900EEBCE0EC1F800E004980AEBCA0BCC
:10AD200093F809A0C5F80090029D4D62039D93F829
:10AD300018E0C1F820B00CEBCC0C07EBC70706EB12
:10AD4000C60600EBC000C1E90C50C1F804C00F6199
:10AD500093F81BC01F7F4E614648DE7F464993F83B
:10AD6000179082F803E082F804C093F820E093F88B
:10AD700003C05771967193F8217093F8226093F88D
:10AD8000233010F8080082F801A082F8029082F8BF
:10AD900007E081F800C04F708E70CB70009D354B7E
:10ADA00003EB451310B95A78002A7DD033480521AA
:10ADB0000EF006FE23784FEA43182E4B304903EB82
:10ADC0000805A87F2A7F6B7F0528044628BF052435
:10ADD000022CA3EB020338BF022402EB820203EB36
:10ADE000830393FBF0F3DBB2AC77D5185A3D02EB4B
:10ADF00043045A3C4D600228A2F15A058C600D6054
:10AE00004FEA430448D91C4414445A3C0328CC60FC
:10AE100042D002EB83045A3C04280C614FEA8304BD
:10AE20003AD035E098610020B8610020006C002025
:10AE3000486D002024610020686C0020646C0020B4
:10AE400037620020786E0020FC6B00200462002036
:10AE5000DC6C002099610020386200200460002032
:10AE6000846E0020206A002048610020B06100202C
:10AE7000C061002098600020F86B0020546D002015
:10AE8000786C0020E06D0020FC610020286E00201E
:10AE9000234413445A3B4B6107B0BDE8F08F064B87
:10AEA00012781B681A4472E69A78002A7FF47EAF03
:10AEB0009B7E002B81D079E7346C0020B0F5804F69
:10AEC00000DB704770B50D460446FFF7A5FCA842AD
:10AED00000D170BD1348502106460EF04DF8C4F362
:10AEE000072130460DF0E6FEE1B230460DF0E2FEFD
:10AEF0000D4C294630460DF0DDFE30460EF0A4F82C
:10AF000044F0010400E0A047502130460EF034F830
:10AF100030460EF099F803464FF44850002BF2D11A
:10AF200070BD00BF8C83002080EC04002DE9F04F41
:10AF30007C4C7D4A2378DFF82C82D15C054683B0B7
:10AF40002830FFF7BBFF2378784A05F13500D15C44
:10AF5000FFF7B4FF2378764A05F13200D15CFFF7A2
:10AF6000ADFF05F138070026237803EB430203EB1E
:10AF7000820343443846995D0136FFF79FFF0D2E4B
:10AF800007F10307F0D16B4F23786B4E17F82310AE
:10AF9000DFF8D4914FEA450B0BF24D10FFF78EFF0F
:10AFA000237857F823100BF5A770C1F30721FFF79B
:10AFB00085FF23780BF2531016F82310FFF77EFF5E
:10AFC000237856F823100BF5AA70C1F30721FFF779
:10AFD00075FF2378594A05F25910D15CFFF76EFFCF
:10AFE0004FF032084FF47A772BB218FB05770193B4
:10AFF00000264FF0000A22780AEB8A0108FB0212B1
:10B000004A4407EB0A00915D0AF1010AFFF756FF77
:10B01000BAF10A0FEFD10136052E07F10A07E8D180
:10B02000019B474F03EB4306FA364FF000082378A5
:10B0300003EB43033B4406EB080013F8081008F148
:10B040000108FFF73BFFB8F1030FF0D1019B3D4F23
:10B0500003EB8306B60006F582764FF000082378EE
:10B0600003EB430307EB830306EB080013F8081018
:10B0700008F10108FFF722FFB8F10C0FEFD1324FB2
:10B080002378324E17F823100BF21110FFF716FF3A
:10B09000237857F823100BF58970C1F30721FFF7C8
:10B0A0000DFF2B4A237805F23910D15CFFF706FF1C
:10B0B000284A237805F59E70D15CFFF7FFFE264AEB
:10B0C000237805F23F10D15CFFF7F8FE234A23787E
:10B0D00005F5A170D15CFFF7F1FE05F25F180027BE
:10B0E0002378C3EBC303C3EBC30333444046D95DAA
:10B0F0000137FFF7E3FE312F08F10308F0D1184FB5
:10B1000005F271250026237807EB43132846995D45
:10B110000136FFF7D3FE202E05F10305F3D103B06E
:10B12000BDE8F08F436C0020A4610020AC610020DA
:10B13000F86100204C6200203C6200203462002054
:10B14000446C0020C86100208C6100200460002055
:10B15000BC610020106100209C610020A0610020E3
:10B160009860002008620020506B00202DE9F0411B
:10B17000052182B02248DFF8A080224F0EF020FC8B
:10B18000062016F029FFFBF7CFFA1F4B1F49204A74
:10B1900020481B680968126801930360C8F8001012
:10B1A0003A6001AD40F2B77440F2BB76204615F824
:10B1B000011B0134FFF782FEB442F7D1D8F800300A
:10B1C000019301AD40F2BF76204615F8011B013412
:10B1D000FFF774FEB442F7D13B68019301AD40F232
:10B1E000C376204615F8011B0134FFF767FEB44211
:10B1F000F7D10321242002B0BDE8F041FFF75EBE85
:10B20000546D0020206C0020C46C0020C86C00200D
:10B21000CC6C0020106C0020186C00202DE9F84345
:10B22000794E337843B1DFF8009299F800402CB1A1
:10B23000012B47D0022B29D0BDE8F88301210A2039
:10B240001AF06EFC012389F8003016F0B9FE33784D
:10B250006E4A012B10600ED120226D48214620F04D
:10B2600047F96C4BFF22C3E90122C3E90322C3E97A
:10B270000522C3E90722684B1B78002BDCD0674905
:10B28000644B0020FF2208601A60D5E75F4C16F07F
:10B2900097FE2368C01A41F2883398425ED833780B
:10B2A000012B5FD05C4A12781AB35A495B4A5C485A
:10B2B00000681568854200D210600A6890424EDA34
:10B2C00008604CE0514C16F07BFE2368C01A42F235
:10B2D00010739842E3D93378022BD8D0012BABD12D
:10B2E00016F06EFE2368C01A42F2107398420AD814
:10B2F0003378022BA0D116F063FE226841F2883326
:10B30000801A984298D9474FDFF8208112250124EE
:10B3100057F8041F2846C1F30721FFF7CFFD681C2B
:10B320003978FFF7CBFD58F8041F2046C9B2013425
:10B33000FFF7C4FD0A2C05F10205E9D10025032120
:10B3400025203570FFF7BAFD294620461AF0E8FBA4
:10B3500089F80050BDE8F843FFF7D6BA3378012BDF
:10B36000C7D1BDE72D4A2E4851684768B9422949DF
:10B3700038BF57604D68AF42B8BF4F609568876867
:10B38000BD428D6838BF9760AF42B8BF8F60D56847
:10B39000C768BD42CD6838BFD760AF42B8BFCF6085
:10B3A00015690769BD420D6938BF1761AF42B8BF63
:10B3B0000F6155694769BD424D6938BF5761AF425A
:10B3C000B8BF4F6195698769BD428D6938BF976184
:10B3D000AF42B8BF8F61D569C769BD4238BFD76179
:10B3E000CD69AF42B8BFCF61156A076AAF420D6A37
:10B3F00088BF1762BD42084DC8BF0F622D78002D6F
:10B400003FF46EAF54E700BFE66B00200C6A0020EB
:10B41000E46D0020BC6D00200C610020E06D002078
:10B42000046E0020DC6D002004670020B86D002051
:10B430002DE9F0413C4D3D4C3D4F3E4E00202870E3
:10B44000FFF774FD01202870FFF770FD02202870BF
:10B45000FFF76CFD384B30201978FFF72FFD21786E
:10B460004FF41670FFF72AFD617840F25920FFF77C
:10B4700025FDA17840F25A20FFF720FD797840F2AF
:10B48000C570FFF71BFD397840F2C670FFF716FD57
:10B49000717840F2C970FFF711FD317840F2CA703F
:10B4A000FFF70CFD03212C20FFF708FD234B272479
:10B4B00043F001082046FFF7AFF904F5FA670546A7
:10B4C0003846FFF7A9F9854224D01D485021064689
:10B4D0000DF052FDC7F3072130460DF0EBFBA4F150
:10B4E0003001C9B230460DF0E5FB294630460DF07B
:10B4F000E1FB30460DF0A8FD00E0C047502130468A
:10B500000DF03AFD30460DF09FFD03464FF44850D4
:10B51000002BF2D1013440F2B7739C42CAD1094BDF
:10B5200003221A70BDE8F081436C0020F86000200F
:10B530001C610020F0610020FD6B002080EC040005
:10B540008C8300204C6B0020F8B52D4C054616F07E
:10B5500037FD21682B4B2C4A1B68411AA2FB0121A5
:10B5600003EB9131216065B9C1F3072140F2C97045
:10B57000FFF7A4FC217840F2CA70BDE8F840FFF75D
:10B580009DBC2248224F054650210DF0F5FC0721B5
:10B5900028460DF08FFBC42128460DF08BFB284672
:10B5A0000DF052FD0122502128460DF0A5FC284641
:10B5B0000DF094FB47F00107C6B200E0B8475021F8
:10B5C00028460DF0D9FC28460DF03EFD03464FF409
:10B5D0004850002BF2D1032E01D02168C4E76178D6
:10B5E00040F2C570FFF76AFC217840F2C670FFF7A1
:10B5F00065FC012140F2C470FFF760FCEDE700BF7D
:10B60000D86C0020F061002073B2E7458C830020E5
:10B6100080EC04002DE9F04F89488A4D89B004463A
:10B6200050210DF0A9FC002120460DF043FB3021F4
:10B6300020460DF03FFB20460DF006FD0122502173
:10B6400020460DF059FC20460DF048FB45F0010561
:10B65000C6B200E0A847502120460DF08DFC2046E0
:10B660000DF0F2FC03464FF44850002BF2D1764B1C
:10B67000764C1E704FF41670FFF7CEF8034640F27A
:10B6800059202370FFF7C8F8034640F25A20637030
:10B69000FFF7C2F8502103466948A3700DF06CFC17
:10B6A0006748684D044607210DF004FBC52120467C
:10B6B0000DF000FB20460DF0C7FC01225021204672
:10B6C0000DF01AFC20460DF009FB45F00105C6B24D
:10B6D00000E0A847502120460DF04EFC20460DF01A
:10B6E000B3FC03464FF44850002BF2D15448554D5B
:10B6F000044650210DF040FC072120460DF0DAFAF7
:10B70000C62120460DF0D6FA20460DF09DFC012200
:10B71000502120460DF0F0FB20460DF0DFFA45F0F9
:10B720000105C7B200E0A847502120460DF024FCD7
:10B7300020460DF089FC03464FF44850002BF2D10F
:10B740003946304616F038FC414B3E4D02465021FA
:10B750003B481A600DF010FC3948072104460DF0F3
:10B76000A9FAC92120460DF0A5FA20460DF06CFC7F
:10B770000122502120460DF0BFFB20460DF0AEFA0D
:10B7800045F00105C7B200E0A847502120460DF062
:10B79000F3FB20460DF058FC03464FF44850002BB5
:10B7A000F2D12748274E054650210DF0E5FB072131
:10B7B00028460DF07FFACA2128460DF07BFA28466C
:10B7C0000DF042FC0122502128460DF095FB284641
:10B7D0000DF084FA46F001065FFA80F800E0B04709
:10B7E000502128460DF0C8FB28460DF02DFC0446DC
:10B7F0004FF44850002CF2D14146384616F0DCFB9D
:10B80000144B104D024650210D481A600DF0B4FB48
:10B810000B48214604460DF04DFA242120460DF038
:10B8200049FA20460DF010FC0122502120460DF06F
:10B8300063FB20460DF052FA45F00105C6B20CE05C
:10B840008C83002080EC0400FD6B0020F860002059
:10B850001C610020F0610020A847502120460DF017
:10B860008BFB20460DF0F0FB03464FF44850002BB5
:10B87000F2D1032E00F0FE80984B994A0492994F22
:10B8800002930022039203F1310690464FF05F09C4
:10B890004FF4887A08F13200FEF7BEFF924B08EBB6
:10B8A000480503F80800914B08EB85051D444FEA55
:10B8B000480308F1380401932046FEF7ADFF033436
:10B8C0004C4505F8010FF7D1019D05F5A770FEF76E
:10B8D000A3FF044605F24D10FEF79EFF01462046E9
:10B8E00016F06AFB824A034642F8283005F5AA7032
:10B8F000FEF792FF044605F25310FEF78DFF014656
:10B90000204616F059FB7B4A034642F8283008F2DD
:10B910005910FEF781FF784B049D03F80800039B44
:10B92000059603F2F23403F224439B46A4F10A067F
:10B930003046FEF771FF06EB86030136A642E85457
:10B94000F6D106F10A045C45A5F13105EED1019B63
:10B95000059E03EB0804694B04F1FA0503EB040BA5
:10B96000FD342846FEF758FF0135003818BF012086
:10B97000A5420BF8010BF4D1019B08EB880403EB03
:10B9800008055F4BA40004F5827403EB850520468F
:10B99000FEF742FF0134544505F8010BF7D1019D34
:10B9A00005F58970FEF738FF044605F21110FEF721
:10B9B00033FF0146204616F0FFFA524A034642F88A
:10B9C000283008F23910FEF727FF4F4A034602F8E5
:10B9D000083008F59E70FEF71FFF4C4A034602F838
:10B9E000083008F23F10FEF717FF494A602894BF5D
:10B9F0000346022302F8083008F5A170FEF70CFF99
:10BA0000444B029C102888BF012003F8080008F26C
:10BA10005F152846FEF700FF04F8010FB44205F158
:10BA20000305F6D13C4B08F2712503EB4814284678
:10BA3000FEF7F2FE04F8010FBC4205F10305F6D152
:10BA4000029B31330293039B32330393049B08F12F
:10BA50000108C83BB8F1030F04F1200706F13106D5
:10BA60000AF1140A049309F101097FF413AF09B034
:10BA7000BDE8F08F0023079307AD40F2B77440F2A2
:10BA8000BB762046FEF7C8FE0134B44205F8010B30
:10BA9000F7D1224A079911600023079307AD40F2BE
:10BAA000BF762046FEF7B8FE0134B44205F8010B1C
:10BAB000F7D11B4A07991160002307AD079340F2A5
:10BAC000C3762046FEF7A8FE0134B44205F8010B08
:10BAD000F7D1144B079A1A60CEE600BF036000202E
