:020000040000FA
:100000000C94DF000C9407010C9407010C94070179
:100010000C9407010C9407010C9407010C94070140
:100020000C9407010C9407010C94EE030C945704F4
:100030000C9407010C9407010C9407010C94070120
:100040000C9407010C9407010C9407010C94070110
:100050000C9407010C9407010C9407010C94990669
:100060000C9407010C9407010C9407010C940701F0
:100070000C9407010C9407010C9407010C940701E0
:100080000C9407010C9407010C9407010C940701D0
:100090000C9407010C9407010C9407010C940701C0
:1000A0000C9407010C9407010C940701F602F90265
:1000B000E802EC02F0021A031A031A03FD0201031C
:1000C00005030B030F031A031503000000020009C8
:1000D0000F0000030401000C0000000000000000FD
:1000E00000000000000000000000000000250028C3
:1000F000002B002E00310000000000240027002A01
:10010000002D00300004040404040304050202026C
:1001100002040302020202060606060606040402A0
:1001200002020404040802011040804010204080B4
:10013000408008020401804020100201108010203D
:10014000404020080B0002020201000904000001E7
:10015000020200000524001001052401010104240D
:10016000020605240600010705810310004009046A
:100170000100020A00000007050202400000070516
:1001800083024000000403090412010002EF02018F
:10019000409A230E800001010203014164616672EE
:1001A00075697400497473794269747379203332C4
:1001B000753420335620384D487A0000E306112468
:1001C0001FBECFEFDAE0DEBFCDBF11E0A0E0B1E0AF
:1001D000EAE9FFE002C005900D92A632B107D9F717
:1001E00021E0A6E2B1E001C01D92A539B207E1F716
:1001F00010E0CFEDD0E004C02197FE010E94C007BF
:10020000CE3DD107C9F70E94F8060C94CB070C9499
:100210000000FC0180919401811103C08FEF9FEFDA
:1002200008959FB7F89482E08093E9002091F2004E
:1002300030E01216130614F421E030E021153105E8
:1002400051F084E6809393018091F1008083809146
:10025000F200882319F09FBFC90108958BE68093AF
:10026000E800F9CF2FB7F89483E08093E9009091EC
:10027000E800892F807295FF04C09091F20080E41D
:10028000891B2FBF0895CF92DF92EF92FF920F93B9
:100290001F93CF93DF936C017A018B01C0E0D0E014
:1002A000CE15DF0589F0D8016D918D01D601ED9154
:1002B000FC910190F081E02DC6010995892B11F484
:1002C0007E0102C02196ECCFC701DF91CF911F9133
:1002D0000F91FF90EF90DF90CF90089580918B0168
:1002E00081110DC082E08093870184E080938801B2
:1002F00010928A011092890181E080938B0187E836
:1003000091E00895CF93DF931F92CDB7DEB7698355
:10031000DC01ED91FC910280F381E02D41E050E0A1
:10032000BE016F5F7F4F09950F90DF91CF910895C8
:1003300083E08093E9008091F200882319F08AE33A
:100340008093E80008950E94320190E00895CF93D1
:10035000DF931F92CDB7DEB7FC018485958597FDAD
:1003600005C02FEF3FEF358724870BC0CE010196E4
:100370000E940901019719F4898190E002C08FEF72
:100380009FEF0F90DF91CF9108950F931F93CF931D
:10039000DF931F92CDB7DEB78C01FC018485958574
:1003A00097FF0EC0CE0101960E940901019719F432
:1003B000298130E002C02FEF3FEFF8013587248715
:1003C000F801848595850F90DF91CF911F910F9152
:1003D0000895FC018485958597FD0BC09FB7F8941F
:1003E00082E08093E9008091F2009FBF90E0019647
:1003F00008959FB7F89482E08093E9008091F2001D
:100400009FBF90E00895089580E090E008954091A6
:1004100031015091320120912F013091300142176A
:100420005307B4F49091E8009570E1F39091E800DF
:1004300092FD19C08093F1008091310190913201B9
:1004400001968F739927892B19F48EEF8093E8001A
:100450008091310190913201019690933201809305
:10046000310181E0089580E00895CF92DF92EF920C
:10047000FF920F931F93CF93DF931F92CDB7DEB7F9
:10048000182F062FE42E862F880F8E5F99830E94E7
:10049000070283E00E940702F12EC12E9981D92E16
:1004A0008C2D8F19801798F4F601E7FE02C0849115
:1004B00001C080810E940702182F80E00E9407027D
:1004C0008123FFEFCF1ADF0A8111EACF01C081E05B
:1004D0000F90DF91CF911F910F91FF90EF90DF90E0
:1004E000CF900895DF92EF92FF920F931F93CF93D7
:1004F000DF93D82E8A017B01E40EF51EEB01CE15A9
:10050000DF0571F0D7FE03C0FE01849101C0888130
:100510000E94070221968111F2CF8FEF9FEF01C059
:10052000C801DF91CF911F910F91FF90EF90DF9065
:1005300008950F931F93CF93DF931F92CDB7DEB72C
:1005400082E0898342E450E063E471E080E80E9445
:1005500072020E946E01DC0112960D911C9113979C
:100560000115110569F0D801ED91FC910280F3812C
:10057000E02DBE016F5F7F4FC801099597FF07C04F
:1005800089810F90DF91CF911F910F910895F8010C
:1005900000851185E5CF362F90E0FC01E653FF4F33
:1005A0004491FC01EC5DFE4F2491FC01EB5FFE4F9A
:1005B0008491882309F451C04423E1F150E0FA0109
:1005C0003197EF30F105B0F5EA5AFF4F0C94C007B0
:1005D000909180009F7707C0909180009F7D03C01D
:1005E00090918000977F9093800024C094B59F776E
:1005F00002C094B59F7D94BD1DC0909190009F77DF
:1006000007C0909190009F7D03C090919000977FCC
:10061000909390000FC09091C0009F7703C090917D
:10062000C0009F7D9093C00005C09091C200977F4D
:100630009093C200E82FF0E0EE0FFF1FE751FF4F4D
:10064000A591B4918FB7F894EC91311103C0209526
:100650002E2301C02E2B2C938FBF08953FB7F89403
:1006600080912B0190912C01A0912D01B0912E0130
:1006700026B5A89B05C02F3F19F00196A11DB11DFD
:100680003FBFBA2FA92F982F8827820F911DA11D38
:10069000B11DBC01CD0143E0660F771F881F991F74
:1006A0004A95D1F70895CF92DF92EF92FF920E9480
:1006B0002E036B017C010E942E03DC01CB018C19FF
:1006C0009D09AE09BF09883E9340A105B10598F385
:1006D000FF90EF90DF90CF9008958F929F92AF920E
:1006E000BF92CF92DF92EF92FF920F931F93CF931F
:1006F000DF936C015B017A0180910B01882309F47F
:1007000055C080919401882309F450C0809136012E
:1007100080FF05C08091E00082608093E000E701E7
:1007200010E00AEF83E0882E9AE3992E2097B1F12A
:100730000E943201811105C00150C1F10E94530392
:10074000F5CF282F30E0C217D3070CF48C2F4FB70A
:10075000F8948092E9009091E80095FF1DC0282F41
:1007600030E0C21BD30BF501982F915020F08191FE
:100770008093F100FACFA20EB31E112319F09092CC
:10078000E80009C08091E80085FD06C09092E8006D
:1007900011E0209709F010E04FBFC8CF1111C8CF6A
:1007A00084E6809335011E141F0444F081E090E03C
:1007B000F6019383828380E090E001C0C701DF915E
:1007C000CF911F910F91FF90EF90DF90CF90BF904E
:1007D000AF909F908F9008950E94C6071F920F922E
:1007E0000FB60F9211248F939F938091E100909107
:1007F000E100937F9093E10083FF0FC01092E90026
:1008000091E09093EB001092EC0092E39093ED0056
:100810001092940198E09093F00082FF1CC093E046
:100820009093E9009091F200992319F09AE3909344
:10083000E80090913501992329F09091350191506C
:100840009093350190919301992329F09091930110
:1008500091509093930184FF10C08091E2008E7EAE
:1008600081608093E2008091E1008F7E8093E100BF
:10087000809136018E7E806111C080FF11C0809111
:10088000E2008E7E80618093E2008091E1008E7EA6
:100890008093E100809136018E7E816080933601E5
:1008A0009F918F910F900FBE0F901F9018951F92E0
:1008B0000F920FB60F921124CF92DF92EF92FF9218
:1008C0000F931F932F933F934F935F936F937F9358
:1008D0008F939F93AF93BF93EF93FF93CF93DF9348
:1008E000CDB7DEB76C97DEBFCDBF1092E900809127
:1008F000E80083FFFFC1FE017596DE2ECF2E88E053
:100900008E0F8E1729F09091F10090833196F9CFD8
:1009100084E68093930182EF8093E8008D8987FFBE
:1009200005C09091E80090FFFCCF03C09EEF90932C
:10093000E800982F907609F0C5C09E892F89188D00
:1009400091110CC0803829F4809134018093F1001A
:1009500002C01092F1001092F1004FC1422F50E0FE
:10096000512B913051F4811148C14130510509F0AA
:1009700044C1809134018D7F0BC0933061F48111AB
:100980003CC14130510509F038C180913401826089
:100990008093340132C1953041F48091E80080FFAA
:1009A000FCCF20682093E30028C1963009F05EC098
:1009B000EB8CFC8C1092E900109232011092310104
:1009C000123091F51092300110922F010E9499027D
:1009D00099E0BE016F5F7F4FDB01E92F1D92EA9521
:1009E000E9F799831A8391E09E8390EA98879AEFBA
:1009F00099872091310130913201275F3F4F3C832D
:100A00002B838D831092E9001092320110923101F4
:100A1000F0923001E0922F0149E050E080E00E9426
:100A200072020E949902E9C0F0923001E0922F0117
:100A30000E946E01DC011296ED90FC901397E11478
:100A4000F10409F4C7C0D701ED91FC910480F58150
:100A5000E02D6D2D7C2DC7010995009719F00CF044
:100A6000CCC0CFC0F701E084F184E9CF973009F41E
:100A7000C8C0983021F481E08093F100BEC0993065
:100A800009F0BBC0837009F0BCC0EDE0F1E081E08B
:100A900021E036E39081992361F08093E90020936F
:100AA000EB0091919093EC003093ED008F5F8730D5
:100AB00089F78EE78093EA001092EA008F8980938D
:100AC00094019BC08B8D9C8D1092E9001092320195
:100AD000109231019093300180932F01898D811103
:100AE0005FC08E899D89913A59F4813209F089C09D
:100AF00047E050E064E071E080E00E9472027DC057
:100B0000913209F07EC0833289F4888D90E0982F6D
:100B100088272F89822BA0E0B0E08093000190937A
:100B20000101A0930201B093030167C08032B1F4C8
:100B30008091E80082FFFCCFE4E0F1E087E08E0FD7
:100B40008E1729F09091F10090833196F9CF84E6C9
:100B5000809393018BEF8093E80006C0823209F006
:100B60004CC08F8980930B0180913301882319F049
:100B7000EEEFFAE002C0E0E0F8E08091040190912D
:100B80000501A0910601B0910701803B9440A105A9
:100B9000B10509F07AC080910B0180FF92C075C049
:100BA0000E946E01DC0112960D911C9113970115A4
:100BB000110539F1D801ED91FC910190F081E02D02
:100BC0006D2D7C2DC8010995811117C0F801008594
:100BD0001185EDCF113009F44EC0133091F48F8997
:100BE000882309F445C0823081F440E866E184EA54
:100BF00091E00E943502882321F08EEF8093E80077
:100C000079C081E28093EB0075C0813029F440E81F
:100C100068E08BE991E0EDCF833099F70E946E0197
:100C2000DC011296ED90FC9013978E010F5F1F4F21
:100C30006801E114F10479F0D701ED91FC9106808F
:100C4000F781E02DB801C7010995080F111DF701C3
:100C5000E084F184EECFD8011C92F60101900020CF
:100C6000E9F73197BF016C197D0940E0C601C1CF9A
:100C700065E871E002C069E871E06115710509F28B
:100C8000FB01449150E080E838CF0FB6F894A89566
:100C900080916000886180936000109260000FBEB8
:100CA000A895EE3F2AE0F20739F08091FE0A909174
:100CB000FF0A91838083A1CF1092FF0A1092FE0A4F
:100CC0009CCFEE3F8AE0F80731F0808191819093CC
:100CD000FF0A8093FE0A87E797E7918380839BE072
:100CE00088E10FB6F894A895809360000FBE9093AA
:100CF000600083CF6C960FB6F894DEBF0FBECDBFF9
:100D0000DF91CF91FF91EF91BF91AF919F918F9123
:100D10007F916F915F914F913F912F911F910F9113
:100D2000FF90EF90DF90CF900F900FBE0F901F902D
:100D300018951F920F920FB60F9211242F933F9385
:100D40008F939F93AF93BF93809127019091280138
:100D5000A0912901B0912A013091260126E0230FAC
:100D60002D3720F40296A11DB11D05C029E8230FDF
:100D70000396A11DB11D2093260180932701909316
:100D80002801A0932901B0932A0180912B01909111
:100D90002C01A0912D01B0912E010196A11DB11D34
:100DA00080932B0190932C01A0932D01B0932E01E1
:100DB000BF91AF919F918F913F912F910F900FBE57
:100DC0000F901F901895E7E3F1E01382128288EEEE
:100DD00093E0A0E0B0E084839583A683B78387E1A6
:100DE00091E0918380838FEF9FEF958784870895AB
:100DF000789484B5826084BD84B5816084BD85B5F6
:100E0000826085BD85B5816085BD80916E00816001
:100E100080936E00109281008091810082608093A7
:100E200081008091810081608093810080918000A9
:100E30008160809380008091910082608093910016
:100E400080919100816080939100809190008160F9
:100E5000809390008091C10084608093C100809154
:100E6000C10082608093C1008091C1008160809345
:100E7000C1008091C30081608093C3008091C00055
:100E800082608093C0008091C20081608093C20024
:100E900080917A00846080937A0080917A008260E9
:100EA00080937A0080917A008E7F80937A0080917F
:100EB0007A00806880937A00109294011092340135
:100EC000109236018091D70081608093D70080EA2C
:100ED0008093D80089B58F7E89BD89B5826089BD30
:100EE00009B400FEFDCF0E9453038091D8008F7C8F
:100EF00080618093D8008091E000807F8093E00043
:100F00008091E1008E7E8093E1008DE08093E2008D
:100F1000EEEFFFE7859194918B3F9C4D19F481E0B2
:100F200080933301E1E3F1E02491E2E1F1E0849187
:100F3000882399F090E0880F991FFC01E950FF4F3A
:100F4000A591B491FC01E751FF4F859194918FB722
:100F5000F894EC91E22BEC938FBFC0E0D0E061E01D
:100F60008DE00E94CB020E94530360E08DE00E945E
:100F7000CB020E945303209791F30E940000EFCF11
:100F8000EE0FFF1F0590F491E02D099481E090E0B1
:100F9000F8940C94CB07F894FFCFFFFFFFFF00E11C
:100FA00000000000000000C180810000000000007F
:100FB0000082016D03A3019801E901A701C50100A9
:100FC000FFFFFFFFFFFFFFFFFFFFFFFFFFFFFFFF31
:100FD000FFFFFFFFFFFFFFFFFFFFFFFFFFFFFFFF21
:100FE000FFFFFFFFFFFFFFFFFFFFFFFFFFFFFFFF11
:100FF000FFFFFFFFFFFFFFFFFFFFFFFFFFFFFFFF01
:1010000000000000000000C180810000000000001E
:101010000082018D03A3019801E901A701C5010028
:10102000FFFFFFFFFFFFFFFFFFFFFFFFFFFFFFFFD0
:10103000FFFFFFFFFFFFFFFFFFFFFFFFFFFFFFFFC0
:10104000FFFFFFFFFFFFFFFFFFFFFFFFFFFFFFFFB0
:10105000FFFFFFFFFFFFFFFFFFFFFFFFFFFFFFFFA0
:10106000FFFFFFFFFFFFFFFFFFFFFFFFFFFFFFFF90
:10107000FFFFFFFFFFFFFFFFFFFFFFFFFFFFFFFF80
:10108000FFFFFFFFFFFFFFFFFFFFFFFFFFFFFFFF70
:10109000FFFFFFFFFFFFFFFFFFFFFFFFFFFFFFFF60
:1010A000FFFFFFFFFFFFFFFFFFFFFFFFFFFFFFFF50
:1010B000FFFFFFFFFFFFFFFFFFFFFFFFFFFFFFFF40
:1010C000FFFFFFFFFFFFFFFFFFFFFFFFFFFFFFFF30
:1010D000FFFFFFFFFFFFFFFFFFFFFFFFFFFFFFFF20
:1010E000FFFFFFFFFFFFFFFFFFFFFFFFFFFFFFFF10
:1010F000FFFFFFFFFFFFFFFFFFFFFFFFFFFFFFFF00
:1070000055C000006EC000006CC000006AC00000E7
:1070100068C0000066C0000064C0000062C00000DC
:1070200060C000005EC00000D1C400005AC0000073
:1070300058C0000056C0000054C0000052C00000FC
:1070400050C00000DBC000004CC000004AC000007F
:1070500048C0000046C0000044C0000042C000001C
:1070600040C000003EC000003CC000003AC000002C
:1070700038C0000036C0000034C0000032C000003C
:1070800030C000002EC000002CC000002AC000004C
:1070900028C0000026C0000024C0000022C000005C
:1070A00020C000001EC000001CC0000011241FBE34
:1070B000CFEFDAE0DEBFCDBF11E0A0E0B1E0EEEE51
:1070C000FEE702C005900D92A23DB107D9F711E08D
:1070D000A2EDB1E001C01D92A83EB107E1F759D37E
:1070E00004C78ECF84E08093E9000DC08091E80052
:1070F0008B778093E80003C08EB3882359F080918A
:10710000E80082FFF9CF8091E80085FFEFCF809102
:10711000F100089580E0089593E09093E900909144
:10712000E80095FF09C08093F10084E690E0909319
:10713000D7018093D60108959091E8009E779093AF
:10714000E80003C09EB3992329F09091E80090FFD6
:10715000F9CFE9CF0895F894109211081092100811
:1071600010926F001092810010928500109284009E
:1071700081E085BF15BE47980C940000089580916A
:10718000DC019091DD0101969093DD018093DC019B
:10719000292F97FF03C03EEF391B232F220F2817FB
:1071A00010F447980895479A089584B7877F84BF5D
:1071B00088E10FB6F89480936000109260000FBED3
:1071C00090E880E00FB6F89490936100809361009E
:1071D0000FBE81E085BF82E085BF3F9AE1E6F0E027
:1071E000908310824798109289009DE790938800C1
:1071F00080936F0083E080938100D0C31F920F9231
:107200000FB60F9211242F938F939F93EF93FF93B9
:1072100010928500109284008091D6019091D70140
:10722000009729F001979093D7018093D601809120
:10723000D4019091D501009729F001979093D50141
:107240008093D401E0E0F0E085919491019649F0BB
:107250008091D2019091D30101969093D3018093B4
:10726000D201FF91EF919F918F912F910F900FBEBF
:107270000F901F90189542E061EC82E022D342E12A
:1072800061E883E01ED342E160E884E01AC38091A4
:10729000E001982F9F77913239F59091E10190327A
:1072A00091F0913209F5813AF9F48091E800877FF5
:1072B0008093E80067E070E083E091E035D480914E
:1072C000E8008B770FC0813279F48091E800877FE6
:1072D0008093E80067E070E083E091E082D48091E1
:1072E000E8008E778093E80008954F925F926F9246
:1072F0007F928F929F92AF92BF92CF92DF92EF9246
:10730000FF920F931F93CF93DF9384E08093E90064
:107310008091E80082FF2CC284E690E09093D50132
:107320008093D401DFDE082F853481F48CE195E26F
:107330009093D3018093D20107B600FCFDCFF99959
:10734000FECF81E180935700E89503C0843521F496
:10735000C9DE8DE0E1DEE3C18C34D9F3803509F478
:10736000F8CF843721F484E4D7DE80E0F3CF813690
:1073700011F489E5EFCF813481F4B4DEC82FB2DE99
:1073800090E0880F991F3C2F330F20E0822B932B26
:10739000AA2797FDA095BA2F96C1803711F483E5EF
:1073A000D9CF833549F4C8ECD1E08991B5DE21E02D
:1073B000CF3CD207D1F7B3C1863521F481E3ACDEEF
:1073C00080E3C8CF833731F487E8A6DE85E9A4DE01
:1073D0008EE1C0CF8536B9F4E0E0F0E083E095E0DF
:1073E00080935700E89507B600FCFDCF90935700B7
:1073F000E89507B600FCFDCFE058FF4FE11520E708
:10740000F20771F7A6CF823719F4E1E0F0E00EC081
:10741000863419F4E0E0F0E009C08E3419F4E3E0BA
:10742000F0E004C0813539F4E2E0F0E089E08093D7
:10743000570084918FCF823631F489E56DDE80E08C
:107440006BDE80E887CF823419F0873609F0D1C02F
:107450001092D3011092D20145DEC82E43DED82E01
:1074600041DE182F8554823010F08FE373CFDC2D6E
:1074700080E0C82FCD2910926F00073609F041C077
:1074800081E180935700E895B12C01E037C0C090AE
:10749000D801D090D901E090DA01F090DB011634E8
:1074A000B9F4EB2DF0E0EC29FD29849135DEBB2009
:1074B00069F0E2E0CE0ED11CE11CF11CC092D801B3
:1074C000D092D901E092DA01F092DB01B02615C02A
:1074D000D701C601B695A79597958795F0D41CDE80
:1074E000F2E0CF0ED11CE11CF11CC092D801D09269
:1074F000D901E092DA01F092DB012197209739F669
:1075000074C08090D8019090D901A090DA01B09019
:10751000DB01163409F057C083E0F4018093570073
:10752000E89507B600FCFDCF4EC0163439F5DD20D6
:1075300009F14090D8015090D9016090DA01709023
:10754000DB01D0DDF82EE12C97012C29F201090195
:1075500000935700E8951124F2E04F0E511C611C76
:10756000711C4092D8015092D9016092DA01709258
:10757000DB0102C0B7DDC82ED02623C0B3DD682FE3
:107580008091D8019091D901A091DA01B091DB01ED
:10759000B695A795979587959AD44091D801509123
:1075A000D9016091DA017091DB014E5F5F4F6F4F3F
:1075B0007F4F4093D8015093D9016093DA017093C3
:1075C000DB01219703C0C12CD12C01E0209709F0E9
:1075D000ACCF163441F485E0F40180935700E89570
:1075E00007B600FCFDCF8DE097DD82E080936F0051
:1075F00096C0833471F4C091D801D091D90172DD65
:1076000090E021E0FE010C0120935700E895112441
:10761000A0CE833611F5C090D801D090D901E0906A
:10762000DA01F090DB015EDDB701A601416090E078
:1076300021E0FA010C0120935700E8951124F2E0B3
:10764000CF0ED11CE11CF11CC092D801D092D901FF
:10765000E092DA01F092DB017CCE8D3661F4E091AC
:10766000D801F091D90185E080935700E89507B6DD
:1076700000FCFDCF6ECE823551F4E091D801F0913F
:10768000D901C591D4918D2F47DD8C2F63CE8434E1
:1076900019F528DD682F8091D8019091D901A0912A
:1076A000DA01B091DB01B695A795979587950FD430
:1076B0008091D8019091D901A091DA01B091DB01BC
:1076C0000296A11DB11D8093D8019093D901A0937A
:1076D000DA01B093DB013DCE8436F1F4C090D801DD
:1076E000D090D901E090DA01F090DB01D701C6011A
:1076F000B695A79597958795E2D30EDD22E0C20E49
:10770000D11CE11CF11CC092D801D092D901E092A9
:10771000DA01F092DB0103C08B3109F0A6CE83E0E1
:107720008093E9009091E8008091E8008E77809343
:10773000E80095FD11C08091E80080FD04C08EB383
:107740008111F9CF15C08091E8008E778093E80011
:1077500003C08EB3882361F08091E80080FFF9CFE9
:1077600084E08093E9008091E8008B778093E800C3
:10777000DF91CF911F910F91FF90EF90DF90CF900D
:10778000BF90AF909F908F907F906F905F904F9041
:1077900008958091000890910108109201081092BC
:1077A000000844B714BE28E10FB6F8942093600097
:1077B000109260000FBEE0E0F0E0259134912F3F81
:1077C0003F4F51F140FD1DC041FF1DC08091100889
:1077D000909111088F3A9D4A29F410921108109245
:1077E00010081AC08FEA9DEA909311088093100840
:1077F0005FE78FE492E1515080409040E1F700C094
:107800000000A9DC09C0483039F420910001309112
:10781000010182179307A9F7C8DC78941092D3016D
:107820001092D2010CC061DD39D38091D2019091C8
:10783000D3018131974210F010920201A0DC8091B7
:1078400002018111F0CF8091E00081608093E0001F
:1078500082DC80E090E00895292F30E03327223049
:10786000310539F02330310549F02130310589F0F7
:107870000BC02EE330E088E791E01EC0882371F052
:10788000813089F08230A1F020E030E080E090E0AB
:1078900013C022E130E086EB91E00EC024E030E03E
:1078A00084E791E009C022E230E08CE391E004C07B
:1078B00028E130E08AE091E0FA0191838083C901F8
:1078C00008958093E900EBEEF0E080818160808391
:1078D000EDEEF0E010826093EC0040838091EE00CA
:1078E000881F8827881F08958091E00187FD05C0C3
:1078F0008091E80080FF0DC010C08091E80082FDFB
:1079000004C08EB38111F9CF08958091E8008B7780
:1079100007C08EB38111ECCF08958091E8008E7777
:107920008093E80008950F931F93CF93DF9341D086
:1079300048D0C8EDD0E088818F77888388818068BF
:10794000888388818F7D888319BC1EBA1092DE01DE
:1079500000EE10E0F80180818B7F80838881816058
:10796000888342E060E080E0ACDFE1EEF0E080811F
:107970008E7F8083E2EEF0E0808181608083808171
:1079800088608083F80180818E7F80838881806118
:107990008883DF91CF911F910F910895E7EDF0E07B
:1079A0008081816080838AE482BF81E08093DF01EF
:1079B000BACFE8EDF0E080818E7F80831092E20004
:1079C00008951092DA001092E10008951F920F922C
:1079D0000FB60F9211242F933F934F935F936F93A2
:1079E0007F938F939F93AF93BF93EF93FF93809178
:1079F000DA0080FF19C08091D80080FF15C0809107
:107A0000DA008E7F8093DA008091D90019BC80FF64
:107A100009C082E089BD09B400FEFDCF81E08EBBC4
:107A20003CD202C01EBA39D28091E10080FF17C05B
:107A30008091E20080FF13C08091E2008E7F8093EE
:107A4000E2008091E20080618093E2008091D800A2
:107A500080628093D80019BC85E08EBB1ED28091D5
:107A6000E10084FF2BC08091E20084FF27C019BC95
:107A700082E089BD09B400FEFDCF8091D8008F7DE2
:107A80008093D8008091E1008F7E8093E100809107
:107A9000E2008F7E8093E2008091E200816080931B
:107AA000E2008091DE01811104C08091E30087FF34
:107AB00002C084E001C081E08EBBEFD18091E10083
:107AC00083FF21C08091E20083FF1DC08091E1000F
:107AD000877F8093E10082E08EBB1092DE0180916F
:107AE000E1008E7F8093E1008091E2008E7F8093A1
:107AF000E2008091E20080618093E20042E060E079
:107B000080E0DFDECAD1FF91EF91BF91AF919F91ED
:107B10008F917F916F915F914F913F912F910F9036
:107B20000FBE0F901F9018954091E6015091E7010C
:107B30004617570748F06115710539F44091E80080
:107B40004E774093E80001C0BA01FC0140E032C02A
:107B50008EB3882309F441C0853009F440C0809178
:107B6000E80083FD38C08091E80082FD2EC080913E
:107B7000E80080FF1FC09091F3008091F200392F40
:107B800020E0A901482BCA0106C041914093F100B1
:107B90006150710901966115710519F088309105E0
:107BA000A0F341E0089709F040E08091E8008E776B
:107BB0008093E8006115710559F64111C9CF05C0E0
:107BC0008EB3882351F0853051F08091E80082FF18
:107BD000F7CF80E0089581E0089582E0089583E082
:107BE00008956115710529F44091E8004B774093A1
:107BF000E800AC0127C08EB38823B1F1853071F164
:107C00008091E80083FD2CC08091E80082FFF3CFD3
:107C1000FA0107C08091F1008193AF0161507109B1
:107C200061F0AF019091F3008091F200392F20E0D4
:107C3000D901A82BCD01892B69F78091E8008B77BA
:107C40008093E80061157105B1F68091E80080FD30
:107C500009C08EB3882341F08530B9F783E00895D9
:107C600081E0089580E0089582E00895EF92FF9208
:107C70000F931F93CF93DF9300D0CDB7DEB7E0EE25
:107C8000F1E08091F100819381E0E83EF807C9F7C7
:107C9000FEDA8091E80083FFE9C08091E0019091D5
:107CA000E101953009F46FC038F4913071F170F052
:107CB000933009F0DBC029C0983009F4AAC099308C
:107CC00009F4B9C0963009F0D1C083C0803809F4F6
:107CD000CDC0823809F0CAC08091E4019091E501DD
:107CE000877099278093E9009091EB001092E9004A
:107CF0008091E800877F8093E80095FB882780F9D2
:107D00008093F1001092F1008FC0882319F0823027
:107D100009F0ACC08F71823009F0A8C08091E201F7
:107D200081112BC08091E4019091E5018770992722
:107D3000009709F49BC08093E9002091EB0020FF9D
:107D40001CC02091E101233021F48091EB0080627E
:107D500012C09091EB0090619093EB0021E030E035
:107D600001C0220F8A95EAF72093EA001092EA00F8
:107D70008091EB0088608093EB001092E900809185
:107D8000E800877F54C0811171C00091E201109119
:107D9000E3010F771127E02EFFB6F8948091E800F9
:107DA000877F8093E800A0DD8091E80080FFFCCF12
:107DB0008091E3008078802B8093E300806880933B
:107DC000E300EE2011F083E001C082E08EBBFFBE35
:107DD0004DC08058823008F049C0AE014F5F5F4F00
:107DE0006091E4018091E2019091E30135DD00971B
:107DF00009F43CC02091E800277F2093E800BC01F3
:107E000089819A8191DE8091E8008B778093E800E8
:107E10002DC0803859F58091E800877F8093E80075
:107E20008091DE018093F1008091E8008E7780934D
:107E3000E8005ADD1BC0811119C09091E201923017
:107E4000A8F48091E800877F8093E8009093DE019A
:107E50004BDD8091DE01811104C08091E30087FF3A
:107E600002C084E001C081E08EBB05DA8091E800A9
:107E700083FF0AC08091EB0080628093EB008091C9
:107E8000E800877F8093E8000F900F90DF91CF91FB
:107E90001F910F91FF90EF9008950895CF938EB3A7
:107EA000882359F0C091E900C7701092E9008091D1
:107EB000E80083FDDBDEC093E900CF910895F999D6
:107EC000FECF92BD81BDF89A992780B50895262FDF
:107ED000F999FECF1FBA92BD81BD20BD0FB6F894AF
:107EE000FA9AF99A0FBE01960895F894FFCF777722
:107EF0000100000000000008180341006400610058
:107F000066007200750069007400200049006E0070
:107F100064007500730074007200690065007300EE
:107F200020004C004C00430000002203410064008C
:107F3000610066007200750069007400200049004D
:107F400074007300790042006900740073007900C6
:107F5000200033003200750034002000330056004A
:107F600000000403090409023E00020100803209F6
:107F70000400000102020100052400100104240293
:107F8000040524060001070582030800FF09040117
:107F900000020A0000000705040210000107058323
:107FA0000210000112011001020000089A230D00C6
:107FB0000100020100014341544552494E41000075
:00000001FF
